:020000040000fa
:10000000f87f00207d1100003311000083140000f0
:1000100000000000000000000000000000000000e0
:10002000000000000000000000000000b116000009
:1000300000000000000000009112000015160000f2
:10004000cf0d0000cf0d0000cf0d0000d10d00003e
:10005000cf0d0000cf0d0000cf0d0000cf0d000030
:10006000cf0d0000cf0d0000cf0d0000cf0d000020
:10007000cf0d0000cf0d0000cf0d0000cf0d000010
:10008000cf0d0000cf0d0000cf0d0000cf0d000000
:10009000cf0d0000cf0d0000cf0d0000cf0d0000f0
:1000a000cf0d0000cf0d0000cf0d0000cf0d0000e0
:0c00b000cf0d0000cf0d0000cf0d0000b0
:020000040000fa
:1000bc00f8b5c046f8bc08bc9e4670475d11000000
:1000cc00f8b5c046f8bc08bc9e4670473511000018
:020000040000fa
:1000dc007c1500201c00000000000000081400200b
:1000ec00c000000000000000101600202c000000d2
:1000fc000000000098150020140000000000000013
:10010c003c1600200400000000000000ac1500208c
:10011c00280000000000000040160020080000002d
:10012c0000000000d4150020280000000000000092
:10013c00c8140020640000000000000048160020d5
:10014c000c00000000000000000000200010000067
:10015c0000000000581700200400000001000000ff
:10016c00aaaaaaaa6816002001000000000000003c
:10017c005416002008000000000000002c15002080
:10018c0050000000000000006c1600206c00000005
:10019c00010000007816002074160020781600204c
:1001ac0000000000250000000810002000040000e2
:1001bc000000000000000000000000000000000033
:1001cc000000000000000000000000000000000023
:1001dc006d1900000000000000000000000000008d
:1001ec00000000006b0d000000000000000000008b
:1001fc0000000000000000000000000000000000f3
:10020c000010002008040000000000005c16002014
:10021c00040000000000000038170020200000003f
:10022c0001000000010000000300000000000000bd
:10023c0000000000000000000000000000000000b2
:10024c00081600200816002008000000000000001e
:10025c00d816002060000000010000000100000022
:10026c00030000000000000000000000000000007f
:10027c0000000000000000008d0e000000000000d7
:10028c0000000000000000002d1900003f190000c4
:10029c000000000000000000000000000000000052
:1002ac000000000000000000000000000000000042
:1002bc000000000000000000000000005c1700209f
:1002cc000400000001000000010000006016002086
:1002dc000800000000000000fc1500200c000000cd
:1002ec00000000000000000000000000666666666a
:020000040000fa
:1002fc00f0b583b000900f0001939400200000f043
:10030c005ffb061e59d0542000f05afb051e51d03d
:10031c005422002101f0a6fa2e632200a521300000
:10032c0001f0a0fa043c2e6b361907229643002fdd
:10033c000cd000242a0034323b5d1355002b02d024
:10034c000134102cf8d143230022ea54089f042fc7
:10035c0000d90427ef626f642c1d200001f0eefa27
:10036c002800183001f0eafa2d610523db1bab6184
:10037c006d62019a0099300000f0d2fa2860099b56
:10038c00002b00d01d6001f00bfa394a13680133c1
:10039c001360384b1b68002b13d0374b1b68002b9a
:1003ac0015d1344b1b68da6aeb6a9a420fd8314b81
:1003bc001d600ce0300001f0b2f90120404203b0a6
:1003cc00f0bd2c4b1d602a4b1b68012b31d02b4ae6
:1003dc00136801331360ea6a294b1b689a4201d9ee
:1003ec00274b1a60274993009b189b00cb185b681e
:1003fc00ab609a68ea6054609c60e86a83001a18e3
:10040c00920052186a611a189200535801335350d3
:10041c0001f0d2f9184b1b680120002bcfd0154be3
:10042c001b68da6aeb6a9a42c9d201f0adf9012075
:10043c00c5e7144e37006437300001f0d5f9143697
:10044c00be42f9d1104f380001f0cef90f4e3000fa
:10045c0001f0caf90e4801f0c7f90e4801f0c4f9d1
:10046c000d4801f0c1f90d4b1f600d4b1e60aee73e
:10047c0038160020481600202c1600201c160020d0
:10048c0030160020c8140020e8150020d4150020d8
:10049c00c0150020ac150020981500204416002033
:0404ac0040160020d6
:020000040000fa
:1004b000f0b5de4657464e464546e0b583b0584b4c
:1004c0001b68002b00d09de0564b1c68621c0092fc
:1004d0001a60002a11d0544b1b6800229346009ae0
:1004e00093421dd8514b1b681b68002b12d04f4df7
:1004f0004f4fbc464f4901955ce04c4a11684e4b4a
:100500001868106019604d4a13680133136000f0d9
:10051000cfffe0e700239b46434b012252421a6083
:10052000474b1b68434ad96a8b005b189b009b585a
:10053000012b01d901239b46424b1b68002b67d03e
:1005400001239b4664e0384b1a60e9e7dc6854609d
:1005500041e000229a622268013a2260dc6a3a682d
:10056000944201d962461460a200121992008a18be
:1005700052689a609468dc6060609060d86a82001b
:100580001418a400a046884444465c611418a400d2
:100590006258013262502a4a12689046da6a43462b
:1005a000db6a9a4201d901239b46019b1b681b68a9
:1005b000002bb1d02b68db68db685a68009890424a
:1005c000c1d35a699c68d868a0609c684460181db3
:1005d00054688442bad000245c611468013c146001
:1005e0009c6a002cbad0da6992461a6a5646b26002
:1005f000de6956601a00183266689642a9d11a6af6
:100600006260a6e7104a13680133136000239b461b
:10061000584603b0f0bcbb46b246a946a046f0bd62
:100620001016002034160020181600204416002052
:1006300030160020c814002040160020201600208c
:0c06400048160020241600202816002078
:020000040000fa
:10064c00f8b5de4657464e464546e0b501f0a8f8eb
:10065c00494b1a68013a1a601b680024002b7bd1a5
:10066c00464b1b68002b77d0454b1b68002b5cd08e
:10067c00434e00239b46434dac46434b9a463400b5
:10068c0008e0196a516012e0d96851601ee02368d5
:10069c00002b48d0f368db689a6ad869196a8160c4
:1006ac00d86948601900183150688842e9d0594619
:1006bc0099621168013911605a699868d96881602a
:1006cc00986848601f1d5168b942ddd05946596180
:1006dc00116801391160d86a2a68904201d96246c2
:1006ec0010602a498200121892008a1852689a6087
:1006fc009068d86047609760df6aba00d0198000b4
:10070c008046884440465861d019800042580132d6
:10071c0042501f4a1168da6acb6a9a42b7d9012350
:10072c0052461360b3e700f0bdfe1a4b1c68002c58
:10073c000ed0154e012502e0013c002c05d0fff730
:10074c00b1fe0028f8d03560f6e7124b00221a6093
:10075c000d4b1c68002c08d101f02ef82000f0bcc9
:10076c00bb46b246a946a046f8bd094b1b6801f032
:10077c000bf80124f0e7c0461016002038160020b4
:10078c00c01500203016002024160020c8140020ac
:08079c00481600202816002079
:020000040000fa
:1007a40010b52e4b1b68002b03d02d4b01221a6071
:1007b40010bd2b4b00221a602a4b1a68116b1a6861
:1007c4001b6812681b6b9a4203d9274b0a689a422a
:1007d40033d0244b19681868343101f0bcf8234b2a
:1007e4001b6823499a00d21892005258002a09d152
:1007f4009a00d21892001f495218013b143a5169c9
:100804000029fad01a489a00d118890041184c6876
:1008140064684c60d218920008321218944216d0c0
:10082400134a9900c918890052185268d1680d4ab0
:1008340011600e490b601368bae74a689a42c8d13e
:100844008a689a42c5d1ca689a42c2d1c7e7990058
:10085400c91889004218d1685160e1e710160020d8
:100864002416002048160020a5a5a5a530160020b2
:08087400c8140020b414002098
:020000040000fa
:10087c00254b5a6852031b68db0c13439b029b0ae3
:10088c00224a936300235375110004228b691a4288
:10089c00fcd11e491022cb681a42fcd01b4a137d96
:1008ac0080210b4313751a4b00229a611a61194b64
:1008bc00194a1a62190004224b681a42fcd1154ad3
:1008cc0088234021d15010004831402243581a420d
:1008dc00fcd0104ae4234021d1501000a431402216
:1008ec0043581a42fcd00b4a94235b004021d15050
:1008fc0010001900402243581a42fcd0074b4022ea
:10090c00da613e3a1a6270472060800000100040a5
:10091c0000140040001c00400601010000080040cb
:020000040000fa
:10092c0010b5031f802464041c60043b1960043b55
:10093c0016491960043b16491960043b15491960a6
:10094c00043b15491960043b14491960043b1a60b7
:10095c00043b134a1a60043b124a1a60043b124ac5
:10096c001a60043b114a1a60043b114a1a60043b9a
:10097c00104a1a60043b104a1a60043b0f4a1a6072
:10098c00443803235b42036010bdc046ad18000021
:10099c0012121212030303030202020201010101eb
:1009ac001111111110101010090909090808080873
:1009bc0007070707060606060505050504040404d3
:020000040000fa
:1009cc0070b5040007231a000240034205d013003f
:1009dc00093b834229d30834a41a00f07dff194b3c
:1009ec001b68002b0ed0002c25d0174b1b68e24344
:1009fc009a420dd31c19154a94420cd9fff720fecc
:100a0c001be000240f4a124b07218b431360eae7cb
:100a1c00fff716fe11e00b4a1568ed180a4b1c6027
:100a2c00fff70efe002d0bd107e000f055ff054b34
:100a3c001b68002be5d0fff703fe00f08aff0025b2
:100a4c00280070bd4c16002050160020f70f000037
:040a5c00070000206f
:020000040000fa
:100a6000002934d00123002210b488422cd3012461
:100a70002407a14204d2814202d209011b01f8e7f6
:100a8000e400a14204d2814202d249005b00f8e7af
:100a9000884201d3401a1a434c08a04202d3001bdb
:100aa0005c0822438c08a04202d3001b9c0822430e
:100ab000cc08a04202d3001bdc082243002803d04c
:100ac0001b0901d00909e3e7100010bc704701b50c
:100ad000002000f04fff02bd0029f8d003b5fff75a
:0c0ae000c1ff0ebc4243891a1847c046f3
:020000040000fa
:100aec0010b51e4a137801210b431370110001221b
:100afc004b681a42fcd1194980235b05cb61c0239a
:100b0c009b030b6282239b018b610b61144b1022a4
:100b1c001a819a821a849a851a8744201a520c30a8
:100b2c001a520c3007241c520c301a520c301a5228
:100b3c000c301a520c301a520c301a520c3006343b
:100b4c001c520c301a520c301a520b780e3a1343ba
:100b5c000b704b681a42fcd110bdc04600280040f7
:040b6c000814002049
:020000040000fa
:100b7000f0b51600040002278269436987b09b1a0a
:100b800003939b19029204910596019302ad3a00da
:100b90002900206800f006fd019b984208d1a36857
:100ba000e268a3619a18a2626361300007b0f0bde9
:100bb00000280cda102200236168a3620a43a361b3
:100bc00063616260022f12d06b68f61aede7019b39
:100bd0001b1a01936b68984202d9c01a0835013f6d
:100be0002b681b182b606b681b1a6b60cfe71e000d
:020bf000dbe741
:020000040000fa
:020bf20070474a
:020000040000fa
:100bf40000b587b000230293039304930593013354
:100c04001448c25c69460731ca5419000133002aea
:100c1400f7d102ab5b18013b1a700f480f4b0193dd
:100c240000920023803202a9fff766fb012803d05b
:100c34000b4b1b6807b000bd72b60a4b012252422f
:100c44001a60094b02321a60084b00221a6000f045
:100c5400fbfaede76b1500007d1700001416002069
:100c640064190000181600202c16002034160020e9
:020000040000fa
:100c7400f7b51d4f03003c68201e0dd00022210053
:100c8400100001920d68ac460d699c4509d1002afb
:100c940005d0156110310800febd2900f2e73d6062
:100ca400f8e79c4506d9002802d00668b44501d26d
:100cb400080001920a00002defd10028ecd00500b5
:100cc40002680169d21a1035102a05d90360eb189d
:100cd40019611900103a1a60844202d1396028005f
:0c0ce400dae7019b1961fae760160020b6
:020000040000fa
:100cf000f8b5866a04000f001500002e0ad0a36a1a
:100d000062699b1aab420cd22a0039002000fff71f
:100d10002fff05e000f018fd03003000002beed09f
:100d2000f8bd002df0d03422a256002a1bdb2b0088
:100d3000d2b21e00013bf95c914212d1320039005f
:100d40002000fff715ff8642ead8bf19ae1b32001c
:100d50003900606900f082fd636928009b196361b6
:0a0d6000dee7002be5d12e00f1e7dd
:020000040000fa
:100d6a007fb51600c2680d0013000091591e8b4111
:100d7a00f31a019383680400039269460222006809
:100d8a00029300f0f7fb002808dc18220821024031
:100d9a00514062680a43626004b070bd01998142a1
:100daa00fad2a268431ad3182364e368e263002bd9
:100dba0001d13000f0e7531ce3631378ad19013d0c
:040dca002b70f6e7ad
:020000040000fa
:020dce00fee73e
:020000040000fa
:100dd000f8b50024144d154e03e077610134102c52
:100de00020d063001b199b00eb181b89dbb2e1b21a
:100df0008b42f3d173690127a7401f42eed00a4905
:100e000063001b199b005b58002be6d008006300b1
:100e100019198900411849681b199b001b580800c3
:100e20009847dae7f8bdc0460814002000280040c3
:020000040000fa
:100e300000230e4a10b513600d4a13600d4a13606b
:100e40000d4a13600d4a13600d4a5362136101335a
:100e5000936000f05dfd00f044fd0a4c0a4b9c429b
:100e600000d310bd08cc9847f8e7c0465c160020b8
:100e700038150020341500202c15002030150020d6
:0c0e80003c150020c8000000cc00000061
:020000040000fa
:100e8c0070b504000d00002801d1002070bd43682e
:100e9c009b0607d5426983699a4215d80023a36241
:100eac00a3616361e36b216c8b4204d20122206845
:100ebc00591a00f057fd00232364e3639d42e4d0ec
:100ecc00206800f041fde1e70022c36a1100984759
:0c0edc006369002be2d101204042d7e7ff
:020000040000fa
:100ee80037b5144d04002b68002b0fd000f0ecfb35
:100ef800019001a800f085fc0f230f300199984359
:100f080000f010fc00280bd000232b60002c00d12f
:100f180001340f230f349c4304d10c22064b1a6072
:100f280000203ebd2000fff7a1fe0028f9d0031fd6
:0c0f38001c60f6e75c1700206416002027
:020000040000fa
:100f4400f8b507000e000020002f20d000f098fa1a
:100f5400002e1dd000250f4a0424072105e0108d22
:100f64006b00f8520135ae420cd0137e2342fcd004
:100f7400538b0b4207d153680b40012befd0138dd9
:100f84007b55efe73500761b73425e41f0b2f8bd46
:080f94003500f8e700040043fa
:020000040000fa
:100f9c0010b58223db0580228021090399507f3a0a
:100fac00d0215a5401315a540021d3201954043001
:100fbc001a541f3822241c5401301954023019546d
:100fcc0091301a545020ff301a545620ff301a54c6
:100fdc003632ff325438ff3898543822ff321e30e4
:080fec0098540332995410bd22
:020000040000fa
:100ff400f8b5104b1b68002b1ad00f4f0f4e0d4d38
:1010040000f0d2fbfb68dc68201d00f0effa3368c7
:10101400013b33602b68013b2b6000f0d1fb206b5c
:1010240000f081fb200000f07efb2b68002be7d151
:10103400f8bdc0463c160020ac1500203816002030
:020000040000fa
:1010440070b5040016001d00022a1dd043689b06db
:101054001ad4002908d1002d01d18025ed002800e3
:101064000830fff73fff010020236268a1601343ab
:101074006360e5600a23012e01d001235b42220054
:1010840034321370014be362002070bdf10c000098
:020000040000fa
:1010940070b5104d04002b68002b0cd0002c12da14
:1010a4000d4a2b6812689b1a6242934208db286837
:1010b40004192c6006e000f099f92b68002bedd19f
:1010c4000120404270bd054b2a681b689b1aa3424d
:1010d400eddaf5e7fc1500200416002000160020c8
:020000040000fa
:1010e40037b56b46dd1d836a04002970002b0cd0d4
:1010f4006369a26a93420fd3012229002000e36aa4
:101104009847012805d1287805e000f01bfb00284a
:10111400eed0012040423ebd2200343212782878bd
:0e11240052b29042e8d05a1c62611870f3e794
:020000040000fa
:02113200fee7d6
:020000040000fa
:1011340010b5064c2378002b07d1054b002b02d0a9
:10114400044800e000bf0123237010bd7c1500207b
:101154000000000000000000044b10b5002b03d079
:101164000349044800e000bf10bdc0460000000071
:081174008015002000000000be
:020000040000fa
:10117c0010b50a4b98470a4b984700f0fbf8094bff
:10118c00ff229343084a9360084b9847084b9847b3
:10119c00084b984700f0e0fafee7c046cb1500007c
:1011ac00cb1500000000000000ed00e0310e000047
:0811bc00cb150000cb1500006b
:020000040000fa
:1011c40070b5002818d0002918d000250c4a012435
:1011d400072605e06b00c35a13850135a94209d0df
:1011e400137e2342fcd053683340012bf2d0435d7d
:1011f4001385f2e7012070bd0020fce70120fae727
:04120400000400439f
:020000040000fa
:1012080010b50e4b06225a600d4b1b68186800215a
:1012180000f051fbfff7befefff72cfb00f066fb6a
:10122800fff7e3fc00f070f800f08af8fff75afccb
:1012380000f072fb00f0c6f910bdc0460040004146
:0412480070160020fc
:020000040000fa
:10124c0010b50d4b1968ff2212040a431a60196875
:10125c00ff2212060a431a600024084b1c6000f09f
:10126c004df9074b1c6000f045fbfff795fa00f0b9
:10127c0017fb002010bdc04620ed00e01ced00e087
:04128c0058170020cf
:020000040000fa
:10129000eff309800e4a1168243808607346f8c0dd
:1012a00044464d4656465f46f0c072b6fff77afa9e
:1012b00062b6074a116808681430f0c8a046a9460b
:1012c000b246bb4680f309882438f8c81847c046a0
:0412d000481600209c
:020000040000fa
:1012d4000b004968020010b5890603d4190000f018
:1012e40069f810bd190034310978c0b249b281429d
:1012f40007d059699c6aa14203d24c1c5c610a70f4
:0c130400efe711001800fff7ebfeeae72e
:020000040000fa
:101310000a4b0b4a1a600b4a9a81c02292025a6009
:101320001a00d369002bfcd1044a136802210b4335
:101330001360d369002bfcd17047c0460004004302
:08134000840130405555000006
:020000040000fa
:101348000a4b0b4a1a600b4a9a81c02292025a60d1
:101358001a00d369002bfcd1044a136802210b43fd
:101368001360d369002bfcd17047c04600180042b7
:081378000401104056ecffffd8
:020000040000fa
:1013800010b50b480168002905d14368002b02d134
:1013900000f0e7f910bd04008368064a9bb20c34e4
:1013a0009b009b5842682000984780002018e9e77e
:0813b000dc00000048180000f9
:020000040000fa
:1013b80013b503006a460800d9b2d1714268d20554
:1013c80005d54269541c44611170d8b216bd6b46ec
:1013d8000122d91d00f05cfa002802d06b46d879aa
:0813e800f4e701204042f1e7a7
:020000040000fa
:1013f000074a1368002b01d1064b1360064b19688e
:10140000002901d105491960054b12681a6070471f
:10141000041600206817002000160020681900201c
:04142000fc15002097
:020000040000fa
:10142400f8b5070018000b00160014005a1e93416b
:101434004e430d005b42320039001c4000f02afa92
:10144400864203d02900fff709fb04002000f8bd01
:020000040000fa
:1014540001000022030048318a56501e02430a70dc
:101464005968042208001040114205d001200c32b2
:0e1474000a435a60404270471864d863fbe791
:020000040000fa
:02148200fee783
:020000040000fa
:10148400094b5b8b5b070dd0074b80221a76793aa8
:101494005a831b7e5b0705d5034b04211a8d1a7ee4
:0c14a4000a42fbd17047c0460004004320
:020000040000fa
:1014b000084b1b681b68002b04d1074b01225242ca
:1014c0001a607047034b1b68db681a68024b1a608e
:0c14d000f7e7c046441600201816002064
:020000040000fa
:1014dc0000b583b006490748074b019301230093dd
:1014ec0000238022fef704fffff77efb03b000bd54
:0c14fc0074150000a91600005416002012
:020000040000fa
:10150800054b04221a60054a00211160044a054966
:10151800116007221a60704710e000e018e000e050
:0815280014e000e07fbb0000ad
:020000040000fa
:1015300010b5084c2368196800f0a5f801230028ad
:1015400005db23680a20196800f0f5f9c30f58423b
:0815500010bdc0465417002035
:020000040000fa
:101558004e65787447656e204754726f6e204178e7
:101568004300000049444c45000000004150505fd2
:061578005461736b730067
:020000040000fa
:10157e00f7b5002516000c002f000190b74201dbd5
:10158e002800febd62682168019800f064f80137fa
:06159e002d180834f2e7ed
:020000040000fa
:1015a400f7b5002516000c002f000190b74201dbaf
:1015b4002800febd62682168019800f0a6f8013792
:0615c4002d180834f2e7c7
:020000040000fa
:0215ca00704768
:020000040000fa
:1015cc00bff35f8f62b6064ac020800013581b021f
:1015dc001b0ac02109060b431350082313607047e4
:0415ec0000e100e03a
:020000040000fa
:1015f0000369416882688a60416851605a68824222
:1016000005d00022026118680138186070478268ae
:041610005a60f6e73f
:020000040000fa
:1016140010b500f00ff80400fef748ff002803d0cf
:10162400034b802252051a60200000f08ef910bd91
:0416340004ed00e0e1
:020000040000fa
:08163800eff3108072b6704759
:020000040000fa
:10164000074a1168086804c8022181f31488203011
:1016500080f30988bff36f8f1047c046c046c0466d
:041660004816002008
:020000040000fa
:1016640010b503000c000020002b09d11800002a3b
:1016740006d001212000fff763fc0028f9d00120e7
:0216840010bd97
:020000040000fa
:1016860070b50e00050000f0a6f833000400020055
:1016960001212800fff7c3fe001b431e984140426c
:0216a60070bd15
:020000040000fa
:0816a80010b500f0c3f8fce7e7
:020000040000fa
:1016b00004207146084202d0eff30980b0e0eff356
:1016c0000880ade0c046c046c046c046c046c046e1
:020000040000fa
:1016d00010b5054c2368002b01d1fff789fe034ba1
:1016e00018682368c01a10bdfc15002000160020e1
:020000040000fa
:1016f000002310b5934206d103201840421e9041aa
:0e1700009b08c01810bdc45ccc540133f2e746
:020000040000fa
:10170e0070b50d001400012801d0200070bd21001d
:0c171e002800fff750fd0028f9d0f6e786
:020000040000fa
:02172a00704706
:020000040000fa
:10172c0003000020044a10b51468844203d11360ee
:0c173c0018611960013010bd601600201b
:020000040000fa
:1017480010b50400fff782fe002805d1a368e268ff
:0a175800a36163619b18a36210bd3a
:020000040000fa
:021762007047ce
:020000040000fa
:1017640010b50020fff74efd0248fff7dffefff73c
:08177400b3fefce7581500006c
:020000040000fa
:10177c0010b5044cfff738fc2368012bfad900f0a4
:08178c0003f8f7e7c814002080
:020000040000fa
:10179400044b802252051a60bff34f8fbff36f8f43
:0817a4007047c04604ed00e0af
:020000040000fa
:1017ac0072b6044a136801331360bff34f8fbff353
:0817bc006f8f704758170020e1
:020000040000fa
:1017c400044b1a68013a1a601b68002b00d162b6f8
:0817d4007047c04658170020c1
:020000040000fa
:1017dc000378002b06d003005a780133002afbd182
:0817ec00181a70470020fce709
:020000040000fa
:1017f400030008334360012252428260c3600361e4
:06180400002303607047a1
:020000040000fa
:10180a00006810b5002801da002010bdfff73dfc82
:06181a00431cfad1f8e7bf
:020000040000fa
:1018200010b58369023b1b78642b00d010bdfff715
:0418300007fffbe7cc
:020000040000fa
:10183400034b1b78002b02d1014b01221a70704715
:041844006816002002
:020000040000fa
:10184800d1180000f116000069190000691900009c
:04185800691900000a
:020000040000fa
:10185c0010b5002a05d00023cc5cc454013393424c
:04186c00fad110bde0
:020000040000fa
:10187000002a06d00300c9b212181970013393422e
:04188000fbd17047e1
:020000040000fa
:1018840010b500f05bf8024b1860586010bdc046fc
:041894000816002012
:020000040000fa
:10189800c36a10b5002b01d0984710bd0068fff748
:0418a80032fffae72a
:020000040000fa
:1018ac0082b00023019372b6019b002bfcd002b0d6
:0218bc00704773
:020000040000fa
:1018be0010b580234a424a41db005200fff7bbfbc2
:0218ce0010bd4b
:020000040000fa
:1018d0008a18914201d10020704700230b7001311a
:0218e000f7e728
:020000040000fa
:0218e20070474d
:020000040000fa
:1018e400024a1368013313607047c0461016002083
:020000040000fa
:0c18f400014b84225a6070470040004104
:020000040000fa
:1019000062b6bff34f8fbff36f8f64dfc046c04630
:020000040000fa
:1019100010b5fff7b7ff00f024f800f022f810bd73
:020000040000fa
:0c192000014b00221a707047681600206e
:020000040000fa
:0a192c0010b50068fff7edfe10bdd6
:020000040000fa
:0819360010b5fff7ccfc10bd59
:020000040000fa
:02193e007047f0
:020000040000fa
:0819400000487047d816002092
:020000040000fa
:061948000023036170475b
:020000040000fa
:06194e0080f310887047d1
:020000040000fa
:0619540001204042704733
:020000040000fa
:04195a0072b6fee77c
:020000040000fa
:04195e0072b6fee778
:020000040000fa
:021962007047cc
:020000040000fa
:04196400040000007b
:020000040000fa
:0419680000207047a4
:020000040000fa
:04196c0000207047a0
:020000040000fa
:04197000002070479c
:020000040000fa
:041974007047c046b2
:020000040000fa
:0200000400807a
:04400000770800003d
:020000040000fa
:0200000400807a
:044004000000ffffba
:00000001FF
