:10000000F0290020E1710000DD710000DD710000C9
:1000100000000000000000000000000000000000E0
:10002000000000000000000000000000DD71000082
:100030000000000000000000DD710000FDB50000C0
:10004000DD710000DD710000DD7100008D940000A5
:10005000DD710000DD710000DD710000DD71000068
:10006000DD710000DD710000A5990000DD71000068
:10007000DD710000DD710000B9990000DD71000044
:10008000B5900000DD710000DD710000DD71000041
:10009000DD710000B1A00000C5A00000DD7100000E
:1000A000D9A00000DD710000DD710000DD710000ED
:1000B000DD710000DD710000DD71000010B5064C3F
:1000C0002378002B07D1054B002B02D0044800E019
:1000D00000BF0123237010BD30020020000000008B
:1000E000B83D0100084B10B5002B03D00749084864
:1000F00000E000BF07480368002B00D110BD064B8D
:10010000002BFBD09847F9E70000000034020020E4
:10011000B83D0100B83D01000000000010B5024BE1
:100120009847024B984710BD0D7A0000A5B5000016
:1001300070B504000E001D00FA2189005143090129
:100140003048314B984701380004304B1840304B51
:1001500018432660B36901221343B36123689A6987
:10016000D207FBD59A6902210A439A61294B9E4224
:1001700034D02268936902218B439361226893698A
:1001800001398B43936123689B69DB07FBD4200013
:10019000214B98476B091F2215401E3AAA40C024E4
:1001A000E405DB011E19B2601004000C8021C905B2
:1001B00001438220C005844663449962110CC02526
:1001C0002D0629439962726110238822A3502032A0
:1001D000124981508550143AA35070BD2368D861EC
:1001E0000F4B802252027E315A50BFF34F8FBFF324
:1001F0006F8F0131FF315A501A6023680122DA658E
:10020000B7E7C046006CDC02099200000000FF0165
:10021000030A000600200042257E00001000004076
:1002200000E100E010B50A000121014B984710BD24
:10023000BD7E000010B50A000021014B984710BD9B
:10024000BD7E000010B584B0009100216C46217184
:1002500006A902912373002A08D10023637369461B
:10026000044B9847044B186004B010BD012363731E
:10027000F5E7C046857E0000CC07002010B584B0AD
:100280000C0002926946084B9847009B23606B461E
:100290001B79002B05D0012B01D0002002E00220A9
:1002A00000E0012004B010BD4D7E000010B582B00A
:1002B00000910192002B06D16B4600220021054CD3
:1002C000A04702B010BD6B4601220021014CA0479F
:1002D000F7E7C0460D7F000070B5430E0F241C40A9
:1002E000144B1C70450CEDB2134B1D70420AD2B278
:1002F000124B1A70C0B2124B187012490B79124E81
:1003000033706419E4B21219D2B28018C0B20A78FC
:100310008018C0B24A788018C0B28A788018C0B2FB
:10032000CA788018C0B2094A1070181A434258415E
:10033000C0B270BD200400205C0800209D05002094
:100340002805002000080020290500204908002079
:10035000F0B58FB0B14B984200D1DBE020D9B04B63
:10036000984200D17DE300D8FAE0AE4B984200D12C
:100370008BE200D9E4E1AC4B984200D1B4E200D961
:100380003CE1AA4B984200D13CE3A94B984200D0F3
:1003900074E20122A74B1A710022A74B1A608AE26D
:1003A000A64B984200D1B5E000D9A4E0A44B9842F6
:1003B00000D102E33ED9A34B984200D129E36BD888
:1003C00082239B04984200D1B1E29F4B984200D017
:1003D00054E201229D4B1A709D4B98479D4B18602B
:1003E0009D4B1B78002B00D1DCE29A4B18684042F1
:1003F000914B1C68994B984700222100984B9847D5
:10040000944C2068974B98470423642201210B20C9
:10041000954DA84725682068904B98479349944B81
:100420009847944B984702000B0029009248934C40
:10043000A04723E2102800D11EE224D9904B984215
:1004400000D1DDE38F4B984200D017E2804B9847F4
:10045000804B18608C4B1C7800228C4B5A60002C0F
:1004600000D121E31A001B7801210B4313700221F4
:100470000020874B98478748874B9847210087483B
:100480007E4B9847FAE1022800D0F7E100200021D6
:100490007D4B18605960F1E1814B984200D1C7E271
:1004A000804B984200D0E9E1694B984701007E4CAF
:1004B00020607E48714B984720687D4B98477D4B64
:1004C00098477D4B9847010020607C4B1B78002BA0
:1004D00003D07B4B1B78002B01D1574B1960794817
:1004E000664CA0470523642201210B205E4DA847DE
:1004F0007548A047C2E1754B98420BD01CD8744B8D
:10050000984207D010D8734B984203D0724B984250
:1005100000D0B3E10523642201210B20524CA047F7
:100520006E486F4B9847A9E16E4B9842F2D06E4BE4
:10053000984200D0A2E1EDE76C4B9842EAD007D890
:100540006B4B9842E6D06B4B984200D096E1E1E7C6
:10055000694B9842DED0694B984200D08EE1D9E7D2
:10056000674B9842D6D02DD9664B9842D2D03DD910
:10057000654B9842CED0654B984200D07EE10AA8E8
:10058000634B9847C023DB05802252009C582032E1
:100590008221C9058858103A9B5843401C4044406A
:1005A0000AA85C4B98478020C0020440601E84412A
:1005B000E0B22C4B98470A23642201210B202A4CDD
:1005C000A0475BE1544B9842A4D007D8534B9842C4
:1005D000A0D0534B984200D050E19BE7514B98423A
:1005E00098D0514B984200D048E193E74F4B984246
:1005F00090D04F4B984200D040E18BE74D4B984252
:1006000000D148E1C5239B04984200D036E14A4B13
:1006100098474A48324B984730E1C04600EA0A0200
:1006200000160C020002140300021A0200A20D02BE
:1006300000001A020808002060080020000A0A02D0
:100640000000060200000A0200020802C80700209B
:1006500021380000680800202A050020C1F50000AC
:100660005D570000093800000D3700008542214623
:1006700029EC00003D1201006017010095C6000042
:1006800015000002180000020008002040080020A9
:10069000C1B8000024090020418300002418010093
:1006A00000020A0200080A0264080020C8160100BD
:1006B00049110100D1320000E110010016050020AF
:1006C000A0070020D8160100EC16010000320A0233
:1006D000002C0A02001C0A0200220A02BC160100B9
:1006E000B1C70000002E0A0200300A0200380A02D8
:1006F00000340A0200360A0200E60A0200E80A0292
:10070000000C0B0200860B0200A20B0200140C026C
:10071000917D00009F7D000000F80A0200EC0A02B3
:1007200000EE0A0200FA0A0200020B0200820B022B
:1007300000840B0200041A02C13300008C16010071
:10074000E3239B04984200D1A2E328D8E2239B0430
:10075000984200D181E3E04B984200D08EE0DF4B1D
:1007600098470400DE4B9847051CDE49DE4B98474E
:10077000DE4B9847DE4E3063DE4B9847316BDE48E8
:10078000DE4B9847DE49281CDE4B9847DE4B9847E6
:1007900002000B000094DD48DD4988476EE0F0233D
:1007A0009B04984200D14EE1DA4B984266D1DA4B75
:1007B0001A68DA4B18681121D94B98470690D94B23
:1007C0001B78002B00D147E10020D74B98474642C9
:1007D0002E210020D54B98470500F0170004000C8F
:1007E00080190014D24CA04706000F000698D14B88
:1007F000984732003B00D04EB04706000F0028005B
:10080000A04732003B00CD4DA847CD4B984705008F
:10081000B84B984707952900CA48B84B9847CA4B28
:1008200018785E789F78DC78C84B1D79C84B1B78A8
:10083000C84A1278C8490978059504940397029626
:100840000190C64800780090C548B14EB047069860
:10085000C44B9847AB4CC449A047071C079D2800D0
:100860009F4B9847391CA047A74B984702000B00A5
:100870002900BE48B04701E0BD4B9847B64B1B78F6
:10088000012B00D124E30FB0F0BDBA4B9847BA4812
:10089000BA4B9847F2E70122B94B1A70B94B984707
:1008A000B948B64B9847E9E700210020B74B984775
:1008B000B748B24B98470020B64B98470028F3D171
:1008C0000230B54B98478A4B1B79002B09D1B348AE
:1008D000AA4B98470D23642201210B20B04CA0475E
:1008E000CCE7B04B9847F2E700210020A74B984790
:1008F00000210020AC4B98470023AC4A1370AC4A4F
:1009000013707B4A13715372137200200021A94B9C
:1009100018605960A848A94B9847A948974B984731
:100920000D23642201210B209D4CA047A6E7012244
:10093000A44B1A70694B9847A34B1860794B1B78EE
:10094000002B24D0A04B18684042A04B1C68644B7D
:100950009847012221009E4B98479B4C2068654B8D
:1009600098470423642201210B208D4DA847256858
:1009700020685B4B98476249624B9847624B9847A7
:1009800002000B0029009348614CA04776E78E4B8C
:1009900018688E4B1C68524B9847012221008C4BE3
:1009A0009847DAE7884B1868884B1C684C4B984787
:1009B00000222100864B984722E500210020734B3E
:1009C000984700210020784B98470023774A1370FE
:1009D000774A1370464A137153721372794A13702F
:1009E00000200021734B186059607348734B98477F
:1009F0000323642201210B20694CA04776485F4BFA
:100A000098473BE70623642201210B20644CA04752
:100A100034E70020714B98470400364B984721007B
:100A20003548364B984721006D48394B984725E7A4
:100A300000203D4B984704002E4B984721002E483C
:100A40002E4B98471AE700222E210020654B98472D
:100A500065484A4B984711E70020334B98470600FA
:100A6000B6E60BA8614B9847C023DB0580225200F5
:100A70009C5820328221C9058858103A9B5843401F
:100A80001C4044400BA85A4B984780204003044028
:100A9000601E8441E0B2174B98470B23642201216A
:100AA0000B203F4CA047E9E6524A137801218B43C3
:100AB00013705148414B9847002100203A4DA847F8
:100AC0000020194B9847010000204C4B9847032108
:100AD0000020A847D2E4C04600008A032138000065
:100AE000C1F500008542A14605E9000081F500003E
:100AF000080800200938000005C80216A1320000CD
:100B00008542214629EC00003D120100A418010095
:100B100095C600000000C203080000200400002069
:100B2000457100002A050020B1B8000019B6000088
:100B300049110100CD11010075050100EDF600001D
:100B4000E1100100E1C80216B807002000080020EB
:100B50009D0500205C0800202004002028050020BE
:100B6000C417010061F600003333CB40F8170100D1
:100B7000CD6D0000F1320000A0160100B1C70000E9
:100B8000A8070020AD350000A8160100F5B7000049
:100B90000017010005B80000417F00001C1701008C
:100BA0000D370000BD520000C1B80000160500203E
:100BB000A007002008050020900900207D83000088
:100BC0002C170100C80700206808002060080020DA
:100BD0005D570000381701008817010071B8000048
:100BE00098170100C5B60000B0170100917D000004
:100BF0009F7D0000400800202409002035B8000037
:100C0000C84B9847C84B1860C84B1D785B78013BB0
:100C100058425841C64943010A7820208243134371
:100C20000B700CA8C34B9847C023DB0580225200F1
:100C30009C5820328221C9058A58882149005B5876
:100C400053401C4054400CA8BB4B9847E30203D4CC
:100C5000B74B1B789B0625D40DA8B64B9847C023ED
:100C6000DB05802252009C5820328221C9058A5817
:100C7000882149005B5853401C4054400DA8AE4B9E
:100C80009847630303D4AA4B1B789B060AD5A84B4D
:100C90001B789B0672D50A2D00D9EFE5AD00A74B56
:100CA0005B599F46A648A74B9847ECE50022A04B0E
:100CB0005A60E3E5A44B1B78002B03D00B239C4A1E
:100CC0005360DBE50123FAE79F4B1B78002B03D031
:100CD0000C23974A5360D1E50223FAE79A4B1B781D
:100CE000002B03D00D23924A5360C7E50323FAE794
:100CF000954B1B78002B03D00E238D4A5360BDE526
:100D00000423FAE7904B1B78002B03D00F23884A6B
:100D10005360B3E50523FAE78B4B1B78002B03D018
:100D20001023834A5360A9E50623FAE7864B1B7814
:100D3000002B03D011237E4A53609FE50723FAE777
:100D4000814B1B78002B03D01223794A536095E521
:100D50000823FAE77C4B1B78002B03D01323744A3B
:100D600053608BE50923FAE7774B1B78002B03D000
:100D700014236F4A536081E50A23FAE70A2D00D94C
:100D80007CE5AD00714B5B599F460022684B5A6071
:100D900074E56D4B1B78002B03D00123644A53602C
:100DA0006CE50B23FAE7684B1B78002B03D002237A
:100DB0005F4A536062E50C23FAE7634B1B78002B14
:100DC00003D003235A4A536058E50D23FAE75E4BDC
:100DD0001B78002B03D00423554A53604EE50E23A5
:100DE000FAE7594B1B78002B03D00523504A536078
:100DF00044E50F23FAE7544B1B78002B03D006235E
:100E00004B4A53603AE51023FAE74F4B1B78002B0F
:100E100003D00723464A536030E51123FAE74A4BD3
:100E20001B78002B03D00823414A536026E5122388
:100E3000FAE7454B1B78002B03D009233C4A53604B
:100E40001CE51323FAE7404B1B78002B03D00A2341
:100E5000374A536012E51423FAE73D4B5C69002CD6
:100E600000D11C6920003B4B984721003A483B4B7E
:100E7000984720003A4B98473A493B4B98473B4BA1
:100E8000984702000B00009439483A498847F5E436
:100E9000244B98470400324B9847051C3649374B82
:100EA0009847374B98472A4EF0622A4B9847F16A89
:100EB00034482A4B98472B49281C2B4B98472B4BDF
:100EC000984702000B0000942F482A498847D5E430
:100ED0002E4B1B78803BDAB2142A00D9D3E493005E
:100EE0002B4AD3589F460F4B98470400294B19783B
:100EF00002000020284B98472000164B98472100FD
:100F00002648164B9847BEE4224B19780020244B04
:100F1000984704000F4B9847210022480F4B9847F1
:100F2000B1E4C04621380000680800200008002015
:100F300040080020917D00009F7D0000701401009A
:100F400038180100B1C700002A0500209C140100D8
:100F5000080800200938000006C80216A132000067
:100F6000C1F500008542214629EC00003D12010038
:100F70006C18010095C600008542A14649F20000A8
:100F800081F5000005C80216D01801005C08002099
:100F9000C81401009D050020C5B6000092C80216C5
:100FA00019B6000094C802162F4B197880225200FF
:100FB0002E4B1A602E4B1A682E4C20682E4B9847E9
:100FC000236898682D4B9847236899682C4D280012
:100FD0002C4B98472C4B18712368996828002B4B91
:100FE0009847226811785378926802920192009390
:100FF0000A002748274CA04745E41B4B1C78264B8A
:101000001D78264B984709902A0009A92000244BF7
:1010100098470998194B9847224E09993000194B67
:101020009847194B187109993000184B9847099B3C
:101030000293019300952B00220021001A48154CC1
:10104000A04720E4084B1C78144B98470300084A3B
:101050001268084908682100144CA0471448154B31
:101060009847FFF710FCC0469D0500208807002028
:10107000080000200400002045710000093800002D
:1010800084C80216A1370000B8070020A132000072
:10109000F818010095C6000028050020213800003E
:1010A000DD6D000082C80216501901007570000045
:1010B000AC190100B1C70000F0B5DE4657464E46F8
:1010C0004546E0B591B00C00C84B984200D1DEE037
:1010D00021D9C74B984201D100F090FC00D8FCE028
:1010E000C44B984200D1E0E200D932E2C24B9842B0
:1010F00000D106E300D91EE2C04B984200D18BE339
:10110000BF4B984200D0C3E20122BE4B1A710022AD
:10111000BD4B1A60DCE2BD4B984200D1B7E000D96C
:10112000A6E0BB4B984200D154E33ED9B94B98425C
:1011300000D19EE36DD88123DB04984200D103E304
:10114000B54B984200D0A3E20122B44B1A70B44BC5
:101150009847B44B1860B44B1B78002B00D12EE39A
:10116000B04B18684042A84B1C68B04B984700220F
:101170002100AF4B9847AB4C2068AE4B98470423F7
:10118000642202210C20AC4DA84725682068A74B9B
:101190009847AA49AA4B9847AA4B984702000B00C8
:1011A0002900A948A94CA04772E2112800D16DE29C
:1011B00026D9A74B984201D100F0ADFCA54B98422F
:1011C00000D065E2964B9847964B1860A24B1C786E
:1011D0000022A24B5A60002C01D100F084FC1A00BE
:1011E0001B7801210B431370022100209C4B984770
:1011F0009C489D4B984721009C48944B984747E258
:10120000022800D044E200200021934B186059606E
:101210003EE2974B984200D13AE3964B984200D079
:1012200036E27F4B98470100934C20609348874BF0
:1012300098472068924B9847924B9847924B984713
:1012400001002060914B1B78002B03D0904B1B7842
:10125000002B01D16C4B19608E487C4CA0470523B4
:10126000642202210C20744DA8478B48A0470FE24E
:101270008A4B98420BD01CD8894B984207D010D883
:10128000884B984203D0884B984200D000E2052357
:10129000642202210C20684CA0478448844B984764
:1012A000F6E1844B9842F2D0834B984200D0EFE1B4
:1012B000EDE7824B9842EAD007D8814B9842E6D0BE
:1012C000804B984200D0E3E1E1E77F4B9842DED0CB
:1012D0007E4B984200D0DBE1D9E77D4B9842D6D0D7
:1012E0006DD97C4B9842D2D000D81BE17A4B984202
:1012F000CDD07A4B984200D0CAE10AA8784B9B46E1
:101300009847C025ED0580235B009A46EF5882235D
:10131000DB05994690235B0098464B464246985819
:1013200088235B00EB5843401F4047400AA86D4E9E
:10133000B0478023DB021F40781E8741F8B23D4B47
:101340009847694F21003800684B9847684C2071D6
:1013500000213800674B98472378069362789446BB
:10136000A778E0783C4B1C79634B1B78634A127872
:10137000634909780594049003976446029406989B
:1013800001906048007800905F48304CA04709A861
:10139000D8475346EB584A46414651588822520096
:1013A000AD584D401D404D4009A8B0478023DB0299
:1013B0001D40691E8D41E9B25448A04768E1544B75
:1013C000984200D163E708D8524B984200D15EE7BB
:1013D000514B984200D05BE159E7504B984200D105
:1013E00055E74F4B984200D052E150E700EA0A041B
:1013F00000160C040002140500021A0400A20D04D9
:1014000000001A040808002060080020000A0A04EE
:101410000000060400000A0400020804C8070020B7
:1014200021380000680800202A050020C1F50000CE
:101430005D570000093800000D3700008542214645
:1014400029EC00003D1201007C1A010095C6000045
:1014500015000004180000040008002040080020C7
:10146000C1B800002409002041830000681B01006E
:1014700000020A0400080A0464080020001A01009F
:1014800049110100D1320000E110010016050020D1
:10149000A0070020101A0100241A010000320A04DB
:1014A000002C0A04001C0A0400220A04F41901009A
:1014B000B1C70000002E0A0400300A0400380A04F4
:1014C00000340A0400360A0400E60A0400E80A04AC
:1014D000000C0B0400860B0400A20B0400140C0487
:1014E000917D00009F7D00000AC80418A13700000C
:1014F000B8070020A13200009D0500205C080020F4
:101500002004002028050020C4170100281B01002A
:1015100000F80A0400EC0A0400EE0A0400FA0A04C7
:1015200000020B04E24B984200D1B0E6E14B984236
:1015300000D0ADE0ABE6E04B984200D1BBE0DF4B22
:10154000984200D0A4E0DE4B9847DE48DE4B984737
:101550009EE0DE4B984201D100F069FC29D8B1230E
:10156000DB04984201D100F047FCD94B984200D0EF
:101570008EE0D84B98470400D74B9847051CD749B5
:10158000D74B9847D74B9847D74E3063D74B9847A0
:10159000316BD748D74B9847D749281CD74B98472A
:1015A000D74B984702000B000094D648D64988478D
:1015B0006EE0B823DB04984200D111E2D34B98428D
:1015C00066D1D34B1A68D34B18681121D24B984778
:1015D0000690D24B1B78002B00D10AE20020D04BA2
:1015E000984746422E210020CE4B98470500F01721
:1015F0000004000C80190014CB4CA04706000F001B
:101600000698CA4B984732003B00C94EB0470600C7
:101610000F002800A04732003B00C64DA847C64B2C
:1016200098470500B14B984707952900C348B14B2F
:101630009847C34B18785E789F78DC78C14B1D794A
:10164000C14B1B78C14A1278C149097805950494A9
:10165000039702960190BF4800780090BE48AA4EBA
:10166000B0470698BD4B9847A44CBD49A047071CFE
:10167000079D2800984B9847391CA047A04B9847D6
:1016800002000B002900B748B04701E0B64B98476D
:10169000AF4B1B78022B01D100F0EAFB11B03CBC30
:1016A00090469946A246AB46F0BDB04B9847B0482D
:1016B000854B9847ECE7AF4B9847AF48824B98472C
:1016C000E6E700210020AD4B9847AD487E4B984798
:1016D0000020AC4B98470028F3D10230AA4B984722
:1016E000814B1B79002B09D1A848774B98470D23D4
:1016F000642202210C20A64CA047C9E7A54B9847BD
:10170000F2E7002100209D4B984700210020A24BCA
:1017100098470023A14A1370A14A1370724A1371AB
:1017200053721372002000219E4B186059609E482E
:101730009E4B98479E48644B98470D236422022194
:101740000C20934CA047A3E701229A4B1A70614BDF
:101750009847994B1860714B1B78002B24D0964BFF
:1017600018684042954B1C685B4B9847012221004A
:10177000934B9847904C20685C4B98470423642215
:1017800002210C20824DA84725682068524B9847BB
:1017900059495A4B98475A4B984702000B00290069
:1017A0008848594CA04773E7834B1868834B1C68E3
:1017B000494B984701222100814B9847DAE77E4B3D
:1017C00018687E4B1C68444B9847002221007C4BD4
:1017D0009847D0E400210020684B98470021002062
:1017E0006D4B984700236D4A13706D4A13703E4A43
:1017F0001371537213726F4A137000200021694BEA
:10180000186059606848694B984703236422022195
:101810000C205F4CA0473BE70020414B9847050058
:10182000324B9847684E21003000684B9847444C33
:1018300020710695290030002E4B98472078667855
:10184000A778E4783F4B1D793F4B1B783F4A1278CD
:101850003F490978059504940397029601903D4805
:10186000007800903C48284CA04706995848A0476B
:101870000EE70020574B984704001C4B9847210067
:101880001B481C4B9847210053481F4B9847FFE6C5
:101890000020234B98470400144B9847210014481C
:1018A000144B984721004D48174B9847F0E6C04627
:1018B00000820B0400840B0400041A0400001405C9
:1018C000C1330000C4190100B1C7000000008C053D
:1018D00000008A0521380000C1F500008542A146BC
:1018E00005E9000081F50000080800200938000023
:1018F00005C80418A13200008542214629EC0000E9
:101900003D120100E41B010095C600000000C20565
:101910000800002004000020457100002A05002076
:10192000B1B8000019B6000049110100CD11010045
:1019300075050100EDF60000E1100100E1C8041892
:10194000B8070020000800209D0500205C0800204A
:101950002004002028050020C417010061F60000C3
:101960003333CB40FC1A0100CD6D0000F132000092
:10197000D8190100AD350000E0190100F5B70000ED
:101980000017010005B80000417F0000381A01006F
:101990000D370000BD520000C1B800001605002040
:1019A000A007002008050020900900207D8300008A
:1019B000481A0100C80700206808002060080020BD
:1019C0005D570000541A010006C80418A137000032
:1019D000A41A010071B8000098170100D01A010084
:1019E00000222E210020D14B9847D148D14B984757
:1019F0004EE60020D04B98470600F3E50DA8CF4BEC
:101A00009B469847C026F60580235B009A46F5580A
:101A10008223DB059946902252009A5888235B0066
:101A2000F35853401D4055400DA8C54B9846984764
:101A300080235B031D406B1E9D41EDB20CA8D8476F
:101A40005346F7584B4690225200985888235B0023
:101A5000F35843401F4047400CA8C04780235B0316
:101A60001F40781E8741F8B2B64B9847B64F210009
:101A70003800B64B9847B64C207129003800B54B5A
:101A8000984723789C466778A578E078B24B1C7914
:101A9000B24B1B78B24A1278B24909780594049087
:101AA0000395029760460190AF4800780090AF48D8
:101AB000AF4CA0470BA8D8475346F5584B46902249
:101AC0005200995888235B00F3584B401D404D400D
:101AD0000BA8C04780235B031D40691E8D41E9B2FE
:101AE000A448A047D4E5A44A137801218B4313707E
:101AF000A248A34B984700210020A24DA8470020F0
:101B00008D4B9847010000209F4B984703210020F0
:101B1000A847FFF770FB9D4B98479D4B18608E4B75
:101B20001D785B78013B58425841934943010A783C
:101B30002020824313430B700EA8804B9847C0238C
:101B4000DB05802252009C5820328221C9058A5828
:101B5000882149005B5853401C4054400EA8784BE4
:101B60009847E30203D4844B1B789B0624D50FA827
:101B7000724B9847C023DB05802252009C582032CC
:101B80008221C9058A58882149005B5853401C406E
:101B900054400FA86A4B9847630303D4764B1B78D5
:101BA0009B0609D4744B1B789B0679D50A2D0AD85D
:101BB000AB00784AD3589F4677485E4B98476DE50F
:101BC00000226D4B5A606C4B1A789206D20F290096
:101BD0007248674B98475BE5714B1B78002B03D02D
:101BE0000B23654A5360EEE70123FAE76C4B1B7841
:101BF000002B03D00C23604A5360E4E70223FAE78A
:101C0000674B1B78002B03D00D235B4A5360DAE748
:101C10000323FAE7624B1B78002B03D00E23564AAE
:101C20005360D0E70423FAE75D4B1B78002B03D009
:101C30000F23514A5360C6E70523FAE7584B1B7838
:101C4000002B03D010234C4A5360BCE70623FAE76D
:101C5000534B1B78002B03D01123474A5360B2E744
:101C60000723FAE74E4B1B78002B03D01223424A7E
:101C70005360A8E70823FAE7494B1B78002B03D0F1
:101C800013233D4A53609EE70923FAE7444B1B7830
:101C9000002B03D01423384A536094E70A23FAE751
:101CA0000A2D90D8AB003F4AD3589F460022324BB2
:101CB0005A6088E73A4B1B78002B03D001232E4A49
:101CC000536080E70B23FAE7354B1B78002B03D0DA
:101CD0000223294A536076E70C23FAE7304B1B783E
:101CE000002B03D00323244A53606CE70D23FAE74B
:101CF0002B4B1B78002B03D004231F4A536062E751
:101D00000E23FAE7264B1B78002B03D005231A4A33
:101D1000536058E70F23FAE7214B1B78002B03D0C1
:101D20000623154A53604EE71023FAE7C5B60000B4
:101D3000E81A0100B1C70000B1B80000917D0000B1
:101D40009F7D0000093800000BC80418A13700006F
:101D5000B8070020A1320000000800209D050020E7
:101D60005C0800202004002028050020C417010082
:101D700095C60000481B01004008002024090020EF
:101D80007D830000C1B8000035B800002138000094
:101D9000680800201C150100381801007C1B010098
:101DA0002A05002048150100784B1B78002B03D032
:101DB0000723774A536006E71123FAE7734B1B7832
:101DC000002B03D00823724A5360FCE61223FAE783
:101DD0006E4B1B78002B03D009236D4A5360F2E64B
:101DE0001323FAE7694B1B78002B03D00A23684AB8
:101DF0005360E8E61423FAE7664B5C69002C00D1D7
:101E00001C692000644B984721006448644B984744
:101E10002000644B98476449644B9847644B98474B
:101E200002000B00009463486349884730E4634B29
:101E3000984704005B4B9847051C6149614B9847E4
:101E4000614B9847534EF062534B9847F16A5F4895
:101E5000534B98475449281C544B9847544B984728
:101E600002000B0000945A4853498847FFF710FCC2
:101E7000584B1B78803BDAB2142A01D9FFF70EFCCD
:101E80009300554AD3589F464C4B98470400534BF8
:101E9000197802000020524B984720003E4B98478B
:101EA000210050483E4B9847FFF7F8FB4B4B197801
:101EB00000204D4B98470400374B984721004B4872
:101EC000374B9847FFF7EAFB444B197880225200C2
:101ED000474B1A60474B1A68474C2068474B984756
:101EE000236898682C4B984723689968444D2800CC
:101EF000444B9847444B1871236899682800284B35
:101F00009847226811785378926802920192009360
:101F10000A003E48284CA047FFF7C0FB2F4B1C7817
:101F20003B4B1D78254B984708902A0008A92000B4
:101F3000384B98470898184B9847374E0899300007
:101F4000304B9847304B187108993000144B984724
:101F5000089B0293019300952B00220021002F483B
:101F6000154CA047FFF79AFB1C4B1C78134B984766
:101F70000300204A1268204908682100284CA04725
:101F80002848294B9847FFF789FBC0462A050020BF
:101F900040080020080800200938000006C804187E
:101FA000A1320000C1F500008542214629EC000065
:101FB0003D120100AC1B010095C600002138000055
:101FC0008542A14649F2000081F5000005C80418C9
:101FD000101C01005C080020741501009D05002004
:101FE000C5B6000092C8041819B6000094C80418B9
:101FF0008807002008000020040000204571000030
:1020000084C80418A1370000B8070020381C01005C
:1020100028050020DD6D000082C80418901C010016
:1020200075700000EC1C0100B1C70000F0B5DE4681
:1020300057464E464546E0B591B0BE4B984200D15A
:1020400005E126D9BC4B984201D100F03BFD00D8F8
:1020500021E1BA4B984200D15BE200D90FE2B84BC4
:10206000984200D1ACE200D9FCE1B64B984200D1D5
:1020700063E3B54B984226D16023B44AD35C002B6E
:1020800000D05AE20122B24B1A710022B14B1A6001
:1020900072E2B14B984200D1D9E000D9BBE0AF4B1E
:1020A000984200D124E341D8E52801D100F0F6FBA5
:1020B00016D8022800D126E2122804D1A848A94B3C
:1020C0009847A94B9847A94B1B78032B01D100F0E7
:1020D000FDFE11B03CBC90469946A246AB46F0BD11
:1020E000A34B984201D100F029FDA24B9842EAD1BE
:1020F000A14B9847A14B1860A14B1C780022A14B23
:102100005A60002C01D100F001FD1A001B7801215A
:102110000B431370022100209B4B98479B489C4B1C
:10212000984721009B489C4B9847CCE79B4B984293
:1021300000D110E338D8C123DB04984200D162E219
:10214000974B9842BFD10122964B1A708A4B984701
:102150008A4B1860944B1B78002B00D1BDE2874B53
:10216000186840427B4B1C68904B98470022210026
:102170008F4B9847814C20688E4B984704236422EC
:1021800003210D208C4DA84725682068874B984770
:102190008A498B4B98478B4B984702000B002900CC
:1021A00089487D4CA0478EE7884B984200D1E1E2F8
:1021B000874B984200D086E76F4B98470100854CCB
:1021C00020608548744DA8472068844B9847844B0D
:1021D0009847844B9847010020608348A847834B69
:1021E0001B78002B03D0824B1B78002B03D1794B3B
:1021F0001A68584B1A60A3237E4AD35C002B00D088
:1022000093E10523642203210D206B4CA0477A48FB
:10221000614B984757E7794B984218D00CD9784BC7
:10222000984226D10523642203210D20624CA04749
:1022300074484C4B984746E7734B984207D010D8E8
:10224000724B984203D0724B984200D03BE7052373
:10225000642203210D20584CA0476E48414B9847FB
:1022600031E76D4B9842F2D06C4B984200D02AE790
:10227000EDE7984207D86A4B9842E8D0694B9842FC
:1022800000D020E7E3E7684B9842E0D0674B9842E4
:1022900000D018E7DBE7664B9842D8D02DD9654BC4
:1022A0009842D4D03DD9644B9842D0D0634B9842E9
:1022B00000D008E70CA8624B9847C023DB058022BA
:1022C00052009C5820328221C9058858103A9B58E8
:1022D00043401C4044400CA85A4B98478020C00201
:1022E0000440601E8441E0B2324B98470A236422C6
:1022F00003210D20304CA047E5E6534B9842A6D071
:1023000007D8524B9842A2D0514B984200D0DAE6FF
:102310009DE7504B98429AD04F4B984200D0D2E65E
:1023200095E74E4B984292D04D4B984200D0CAE66A
:102330008DE7C04600EA0A0600160C0600021407E4
:1023400000021A0600A20D0600001A063005002041
:102350000808002060080020000A0A06000006069F
:10236000041D0100B1C70000CD6D00002004002055
:10237000150000061800000621380000680800203B
:102380000008002040080020C1B8000024090020F7
:10239000418300001C20010095C6000000000A06D1
:1023A00000020806C80700202A050020C1F5000029
:1023B0005D570000093800000D37000085422146B6
:1023C00029EC00003D120100E81D010000020A0690
:1023D00000080A0664080020C8160100491101001F
:1023E000D1320000E11001005C1D01001605002043
:1023F000A007002058040020901D010000320A06AA
:1024000000380A06481D0100002C0A06001C0A06B6
:1024100000220A063C1D0100002E0A0600300A06B2
:1024200000340A0600360A0600E60A0600E80A0634
:10243000000C0B0600860B0600A20B0600140C060F
:10244000917D00009F7D000000F80A0600EC0A065E
:1024500000EE0A0600FA0A0600020B0600820B06CE
:1024600000840B06CA4B984259D0CA4B984200D000
:1024700029E6C94B9847C948C94B984723E6C94B39
:10248000984201D100F001FD29D8F123DB049842E4
:1024900001D100F0DEFCC44B984200D013E6C34BE0
:1024A00098470400C24B9847051CC249C24B984745
:1024B000C24B9847C24E3063C24B9847316BC248FB
:1024C000C24B9847C249281CC24B9847C24B9847F9
:1024D00002000B000094C148C1498847F3E5F82386
:1024E000DB04984200D1E8E2BE4B984200D0EAE516
:1024F0000020BD4B98470400B24B98472100BB48D1
:10250000B24B9847DFE500200021B94B18605960B5
:10251000D9E5B84B9847B848A14B9847D3E5B74B96
:102520009847B7489E4B9847CDE5B64B19689C2312
:10253000D150B548AA4B984763E61220B34B984751
:10254000B34B1A68B34B18681221B34B9847002855
:1025500009D180235B01802252001A432C210020E4
:10256000AE4B98478EE50023F5E700210020AC4BE9
:102570009847AC488A4B98470020AB4B98470028B7
:10258000F3D10230A94B98478D4B1B79002B09D111
:10259000A748834B98470D23642203210D20A54CA7
:1025A000A04790E5A44B98476023A44AD35C002B36
:1025B000EED00022824B1A731220944B9847E7E723
:1025C00000210020964B9847002100209C4B984703
:1025D00000239C4A13709C4A1370794A13715372FA
:1025E000137200200021994B186059609848994B4C
:1025F000984799486A4B98470D23642203210D2080
:102600008C4CA0475FE50122944B1A70674B9847AA
:10261000934B186018686B4B9847A123914AD35C81
:10262000002B03D0A223D35C002B25D18E4B1B782B
:10263000002B47D08A4B186840428C4B1C685C4B7F
:102640009847012221008A4B9847042364220321E2
:102650000D20784CA047824B1C681868544B984753
:102660005B495C4B98475C4B984702000B0021008C
:1026700080485B4CA04726E5546900205A4B984798
:10268000241AE317E4185C407B4B9C42CEDD744B6C
:102690001968744B982299500C3A9B58002B0BDB0D
:1026A000704B5B69754A944663446D4A136001211F
:1026B000A3236C4AD154B9E76A4B5B69704A9446CC
:1026C0006344F2E7664B1868684B1C68384B9847C0
:1026D00001222100664B9847B7E7614B1868634BAE
:1026E0001C68334B984700222100614B984741E515
:1026F000002100204A4B984700210020504B98476A
:102700000023504A1370504A13702D4A13715372AC
:102710001372524A1370002000214C4B186059600C
:102720004B484C4B98470323642203210D20414C16
:10273000A04754481A4B9847C5E400202A4B9847B5
:102740000400204B984721004F48204B98474F48A2
:10275000134B9847B7E400204D4B98470400194BA2
:10276000984721001848194B9847210049481C4BAD
:102770009847A8E400201C4B98470400114B984749
:1027800021001148114B98474348054B98479AE45C
:1027900000041A0600001407C13300000C1D0100DC
:1027A000B1C7000000008C0700008A072138000034
:1027B000C1F500008542A14605E9000081F5000051
:1027C000080800200938000005C8061AA1320000D8
:1027D0008542214629EC00003D12010068200100DD
:1027E00095C600000000C207B1B80000E1C8061A93
:1027F00000080020F1320000201D0100AD3500006E
:10280000281D010064080020701D0100E580000003
:10281000080000200400002045710000C5B600003B
:10282000F5B700000017010005B80000417F000067
:10283000A41D01000D370000BD520000300500202E
:10284000C1B8000016050020A007002008050020E0
:10285000900900207D830000B41D0100C8070020FE
:1028600068080020580400202A0500206008002085
:102870005D570000C01D0100B95C02005FAFFFFFA3
:10288000A1500000101E010006C8061A181E010003
:1028900071B8000098170100241E0100E84B1A6867
:1028A0005B68E84C22606360E74B1868E74B1A6886
:1028B0000F21E74B9847010080204002E54B9847E5
:1028C00023686268D11752184A404243E2608C2262
:1028D00092461A00424351466250DA179B18534001
:1028E0005843A06000269823E6500433E650DA4BA4
:1028F0001E609023E158D94B1A680131D848D94F4E
:10290000B8470020D84B98472061E3689846D74BDA
:102910009B4640469847D64DD649A8470790A3689E
:1029200099461800D847D349A8474346DB170725DF
:102930002B404344DB100893CF4A934690470490C2
:1029400005914A460392D3172B404B44DB10029368
:102950000798D8470090019142460899C748B84760
:102960005346E158CA172A405218D210C448B847F3
:102970000122A123E254C348B8479423E650200023
:10298000143078220021C04B9847E268A3689A422D
:102990001FD00121A223AB4AD154AA4D8C262B690A
:1029A000AA59944663441C006B611800AF4B9847CA
:1029B000B049AF4B9847B04B984702000B000094CA
:1029C0000021B248A74CA047AB59002B4BDB012498
:1029D00067E0AF4B98470020A34B9847A34F079061
:1029E000B847A34DA349A8470890964EB468200065
:1029F000B847A049A847051C9F4F0898B8470890BA
:102A000009910494281CB84702900391079B0093F6
:102A1000089A099B00219F48924CA0470022A223BC
:102A2000F254BAE7874BE21C92009A185568DA68AC
:102A3000AD1A221D92009B185D6028008B4B9847B1
:102A40008C498B4B98478C4B984702000B000095A4
:102A500021009148834DA84701341D2CE2DD8F48A9
:102A60008F4B984722E00124F7E7764BE21C920057
:102A70009A185568DA6894466544221D92009B189E
:102A80005D602800794B98477A49794B98477A4B93
:102A9000984702000B00009521007F48714DA84720
:102AA00001341D2CE1DD7F487D4B9847654990221C
:102AB0008B5801338B50FFF706FB7B48784B9847C8
:102AC000FFF701FB0DA8794B9847C023DB05802257
:102AD00052009C5820328221C9058858103A9B58D0
:102AE00043401C4044400DA8714B98478020400350
:102AF0000440601E8441E0B26E4B98470B23642271
:102B000003210D206C4CA047FFF7DDFA6B4A1378C8
:102B100001218B4313706A486A4B984700210020BB
:102B2000694DA8470020504B984701000020674B93
:102B3000984703210020A847FFF7F3FA644B984712
:102B4000644B18603E4B1D785B78013B58425841FE
:102B50005A4943010A782020824313430B700EA880
:102B6000524B9847C023DB05802252009C582032EC
:102B70008221C9058A58882149005B5853401C406E
:102B800054400EA84A4B9847E30203D44B4B1B78A2
:102B90009B0625D50FA8454B9847C023DB0580220F
:102BA00052009C5820328221C9058A588821490048
:102BB0005B5853401C4054400FA83D4B984763035B
:102BC00003D43E4B1B789B060AD43C4B1B789B06D8
:102BD00000D4CFE00A2D0BD8AB003F4AD3589F4614
:102BE0003E482F4B9847FFF774FA0022334B5A6048
:102BF000324B1A789206D20F29003948194B984760
:102C0000FFF761FA374B1B78002B03D00B232B4ABD
:102C10005360EDE70123FAE7324B1B78002B03D01A
:102C20000C23264A5360E3E70223FAE72D4B1B7877
:102C3000002B03D00D23214A5360D9E70323FAE781
:102C40000008002058040020040000200800002094
:102C500045710000D3910000A40700206008002007
:102C6000341E010095C60000B1B80000C1F5000097
:102C700029EC0000854221463D1201008C1E010016
:102C8000F41E0100201F0100A3BD0000801F0100F1
:102C900019670000301F0100A81F0100D01F0100AC
:102CA000B1C70000F01F01000C200100917D000061
:102CB0009F7D0000093800000D370000400800200B
:102CC000240900207D830000C1B8000035B8000051
:102CD0002138000068080020C815010038180100DC
:102CE0007C1B01002A050020BF4B1B78002B03D062
:102CF0000E23BE4A53607BE70423FAE7BA4B1B78E6
:102D0000002B03D00F23B94A536071E70523FAE77C
:102D1000B54B1B78002B03D01023B44A536067E7F0
:102D20000623FAE7B04B1B78002B03D01123AF4AE0
:102D300053605DE70723FAE7AB4B1B78002B03D00A
:102D40001223AA4A536053E70823FAE7A64B1B78DD
:102D5000002B03D01323A54A536049E70923FAE760
:102D6000A14B1B78002B03D01423A04A53603FE7EC
:102D70000A23FAE70A2D00D93AE7AB009C4AD35858
:102D80009F460022994B5A6032E7974B1B78002BE5
:102D900003D00123954A53602AE70B23FAE7924BAD
:102DA0001B78002B03D00223904A536020E70C23AA
:102DB000FAE78D4B1B78002B03D003238B4A53601B
:102DC00016E70D23FAE7884B1B78002B03D004236A
:102DD000864A53600CE70E23FAE7834B1B78002BDF
:102DE00003D00523814A536002E70F23FAE77E4BA5
:102DF0001B78002B03D006237C4A5360F8E610238F
:102E0000FAE7794B1B78002B03D00723774A5360EE
:102E1000EEE61123FAE7744B1B78002B03D008234E
:102E2000724A5360E4E61223FAE76F4B1B78002BDB
:102E300003D009236D4A5360DAE61323FAE76A4B9D
:102E40001B78002B03D00A23684A5360D0E6142372
:102E5000FAE7684B5C69002C00D11C692000664BC6
:102E6000984721006548664B98472000654B984776
:102E70006549664B9847664B984702000B000094E3
:102E8000644865498847FFF71EF9644B984704007A
:102E90005C4B9847051C6249624B9847624B9847C8
:102EA000544EF062544B9847F16A6048544B98472F
:102EB0005549281C554B9847554B984702000B0025
:102EC00000945B4854498847FFF7FDF8594B1B783D
:102ED000803BDAB2142A01D9FFF7FBF89300564A77
:102EE000D3589F464D4B98470400544B1978020025
:102EF0000020534B984720003F4B984721005148F2
:102F00003F4B9847FFF7E5F84C4B197800204E4BA4
:102F100098470400384B984721004C48384B984755
:102F2000FFF7D7F8454B197880225200484B1A60BA
:102F3000484B1A68484C2068484B98472368986863
:102F40002D4B984723689968454D2800454B984775
:102F5000454B1871236899682800294B98472268C7
:102F60001178537892680292019200930A003F48C8
:102F7000294CA047FFF7ADF8304B1C783C4B1D782F
:102F8000264B98470B902A000BA92000394B9847F5
:102F90000B98194B9847384E0B993000314B984796
:102FA000314B18710B993000154B98470B9B0293CE
:102FB000019300952B00220021003048164CA047B9
:102FC000FFF787F81D4B1C78144B98470300214AE4
:102FD0001268214908682100294CA04729482A4B3A
:102FE0009847FFF776F8C0462A05002040080020E1
:102FF000F4150100080800200938000006C8061A68
:10300000A1320000C1F500008542214629EC0000F4
:103010003D1201003020010095C60000213800005B
:103020008542A14649F2000081F5000005C8061A54
:10303000942001005C080020201601009D0500205E
:10304000C5B6000092C8061A19B6000094C8061A40
:1030500088070020080000200400002045710000BF
:1030600084C8061AA1370000B8070020BC20010060
:1030700028050020DD6D000082C8061A1421010019
:103080007570000070210100B1C7000010B5094C37
:10309000094B1A68230004C3084A03CA03C3084B38
:1030A00098470100E06002000648074B9847074B2D
:1030B000984710BDA8080020D8070020000800206D
:1030C0003D3800008821010095C600004D450000F4
:1030D000F0B5CE46474680B587B004000D00444B9E
:1030E0009847444B1A78052A05D89300424AD3588A
:1030F0009F46424B984707B00CBC90469946F0BD9E
:103100003F4B18785E789F78DA7894461B7998461A
:103110003C4B1B7899463C4A12783C490978434617
:10312000059363460493039702960190384800780C
:1031300000904B463748384EB04729002000374BA7
:103140009847D8E72E4B18785E789F78DA789446BF
:103150001B7998462B4B1B7899462B4A12782B49A2
:1031600009784346059363460493039702960190BA
:103170002748007800904B462948274EB047290041
:103180002000284B9847B6E71D4B18785C789D784F
:10319000DE781F791B4B1B781B4A12781B49097874
:1031A00005970496039502940190194800780090C1
:1031B0001D48194CA047114B98479CE7104B1878B5
:1031C0005C789D78DE781F790E4B1B780E4A12785A
:1031D0000E490978059704960395029401900C48CE
:1031E0000078009011480C4CA047044B984782E7A8
:1031F000D90200009C050020741601008D300000EB
:10320000000800209D0500205C080020200400200C
:1032100028050020A821010095C60000B910000073
:10322000D82101002D2000000822010040220100C9
:1032300070B5114B1B78002B00D170BD013B0E4ABD
:1032400013700E4D002200232A606B600C4C00238B
:1032500023600C4A13700C4A13700C4A13700C4A0A
:1032600013702A0021000B480B4B984729682068EF
:103270000A4B9847E1E7C0464C04002000080020B4
:10328000D8070020200400205C0800209D050020B5
:1032900028050020F80800207D020000D130000041
:1032A00010B582B00100064B5C681B680093019466
:1032B000082301220348044CA04702B010BDC046B9
:1032C000B8070020F8080020450200007047000001
:1032D00010B5044C0022044BA0470022034BA0472A
:1032E00010BDC0467505010000004E400000F03ED4
:1032F000F0B587B00022012100201F4B98471F4BDB
:103300001B78012B2FD0002B29D0022B2FD001208E
:103310001B4B98471B4B19681B4D28681B4B984744
:103320001B4C2071286800211A4B9847207865783B
:10333000A678E478184B1F79184B1B78184A127836
:103340001849097805970494039602950190164848
:10335000007800901548164CA04707B0F0BD154AFC
:10336000094B1A60D3E7144A074B1A60CFE7134A98
:10337000054B1A60CBE7C046C5B600009C0500208F
:1033800009380000C0070020D8070020A13700003E
:10339000B8070020A1320000000800209D05002091
:1033A0005C0800202004002028050020C41701002C
:1033B00095C600008AC802168AC804188AC8061A68
:1033C000F0B587B0264B1B78012B35D0002B2FD0C2
:1033D000022B35D0234B1B79002B35D10020224BFB
:1033E0009847224B1968224B1868224B9847224B6A
:1033F00018711F4B18680121204B98471E4B1878F5
:103400005C789D78DE781E4B1F791E4B1B781E4A18
:1034100012781E4909780597049603950294019045
:103420001B48007800901B481B4CA04707B0F0BD1C
:103430001A4A0F4B1A60CDE7194A0D4B1A60C9E7BB
:10344000184A0B4B1A60C5E70320074B9847074BF8
:103450001968074B1868074B9847074B1871C8E75E
:103460009C0500200808002009380000C007002043
:10347000D8070020A1370000B8070020A1320000C3
:10348000000800209D0500205C080020200400208A
:1034900028050020C417010095C600008AC802163E
:1034A0008AC804188AC8061AF0B587B0274B1B785B
:1034B000012B42D0002B3CD0022B42D00120244BC8
:1034C0009847244E244D31682868244B9847244C53
:1034D000207131682868234B984720786578A67852
:1034E000E478214B1F79214B1B78214A127821491E
:1034F0000978059704940396029501901E48007878
:1035000000901E481E4CA04700201E4B9847050007
:103510001D4B98471D491E4B98471E4B984702006C
:103520000B0029001C48A04700221C4B1A7007B052
:10353000F0BD1B4A084B1A60C0E71A4A064B1A60D6
:10354000BCE7194A044B1A60B8E7C0469C05002046
:1035500009380000C0070020D8070020A13700006C
:10356000B8070020A1320000000800209D050020BF
:103570005C0800202004002028050020C41701005A
:1035800095C60000B1B80000C1F500008542214693
:1035900029EC00003D12010078220100C80700203C
:1035A0008A0003168A0005188A00071AF0B587B04A
:1035B000434B1B78012B28D0002B22D0022B28D084
:1035C000404B1B79002B28D03F4B00221A705A70B9
:1035D0009A700532DA703C4D3C4C296820683C4BAF
:1035E000984728713B4B196820683B4B9847344BF0
:1035F0001B78012B31D0002B16D0022B46D007B000
:10360000F0BD364A314B1A60DAE7354A2F4B1A6063
:10361000D6E7344A2D4B1A60D2E72B4B00221A70A2
:103620005A709A70DA70D6E7274B18785C789D78D4
:10363000DE782D4B1F792D4B1B782D4A12782D49A2
:103640000978059704960395029401902A4800781A
:1036500000902A482A4CA047D1E71B4B18785C7889
:103660009D78DE78204B1F79204B1B78204A1278FA
:1036700020490978059704960395029401901E4805
:10368000007800901F481E4CA047B8E70E4B1878F2
:103690005C789D78DE78144B1F79144B1B78144AA4
:1036A00012781449097805970496039502940190BD
:1036B0001148007800901448114CA0479FE7C0467D
:1036C0009C05002008080020B8070020D80700202B
:1036D000A1370000C0070020A13200000DC802166B
:1036E0000DC804180DC8061A000800209D0500200A
:1036F0005C0800202004002028050020B0220100E2
:1037000095C60000F022010030230100F0B589B019
:1037100017001D000690430607914A0413437A02DE
:1037200013432B43144E3360144C002200232260B9
:103730006360134B9847134B984721683068124BCE
:1037400098472071114B19683068114B98472378BE
:103750006278A178E0780F4C247905940490039165
:103760000292019300953B00079A06990A480B4C78
:10377000A04709B0F0BDC046D8070020B807002018
:103780002138000009380000A1370000C0070020E0
:10379000A132000000080020C417010095C60000F7
:1037A00010B5430E0F211940114B1970440CE4B2AF
:1037B000104B1C70430ADBB20F4A1370C0B20F4AA1
:1037C00010700919C9B25B18DBB2C018C0B20C4B3B
:1037D0001A788018C0B25A788018C0B29A788018C7
:1037E000C0B2DB78C018C0B2064B187010BDC0461E
:1037F000200400205C0800209D05002028050020F2
:10380000B807002029050020020E044B1A7002148C
:103810005A7002129A70D8707047C046B8070020DC
:10382000054B187800065A78120410439A78120251
:103830001043DB781843704700080020054B987848
:103840000006DA78120410431A79120210435B79E9
:103850001843704700080020044B01229A70E421AD
:1038600049005A5801325A507047C046A8050020F6
:10387000024A137802210B4313707047400800205E
:10388000024A1378013313707047C0464C0400207D
:103890007047000010B50400094B9847094B1860A9
:1038A000094B186003E0064B9847064B1860054B20
:1038B0001B68054A12689B1AA342F4D310BDC04688
:1038C0000DB600004804002090070020F0B5D64651
:1038D00000B582B082460191002718E0C024E405BB
:1038E0008026B600E6616B469B8800931800104D59
:1038F000A847E6618026F601E6610098A847E661E0
:1039000080263602E6610098A847E66101375745F0
:10391000E4D3C023DB05802292009A618022120248
:103920009A618022D2019A6102B004BC9246F0BD35
:10393000617F000070B5084901248C60074BCB60A3
:103940000C740748074DA84707498C60074BCB60AC
:103950000C740748A84770BD800800205938000043
:1039600090090020B98300006C0800207138000025
:103970002409002070B50B4C4923FA2252000A4951
:1039800020000A4DA8470A4920000A4B98470A49D7
:1039900020000A4B98470123002200212000084CF8
:1039A000A04770BDF808002000200042310100004F
:1039B000CD320000250200008138000035020000F1
:1039C000AD02000010B50B4C0B4920000B4B984783
:1039D00020000B4B98470B4C0B4A002120000B4B4F
:1039E00098470B4920000B4B984720000A4B9847FB
:1039F00010BDC046EC0800202C0500209D8800006A
:103A0000718800004009002091380000CD86000038
:103A1000500400209D86000071860000F8B5CE4657
:103A2000474680B5002401235B429946002398460F
:103A3000002602E09846F6180134312C0DDC0F4DBB
:103A400002232A0000210E480E4FB8472B889845C4
:103A5000F0D39945EFD99946EDE7322130000A4B72
:103A6000984702004B4641460848094CA0470022AF
:103A7000084B1A700CBC90469946F8BD14050020FE
:103A800020090020E17C0000099200007023010061
:103A900095C600009C050020F8B500221A210020E0
:103AA000204CA047802149009423C022D205D15048
:103AB0000022FD390020A04700240025002609E04F
:103AC00002210020184B984703041B0CF618000C29
:103AD0002D180134154B9C42F2DD154FFA21890057
:103AE0003000B8470400FA2189002800B8470500D3
:103AF000020021000F48104B98472204120C822329
:103B0000DB031A432D042D0C1D4309210020054C15
:103B1000A0472A0008210020A04707221A210020E0
:103B2000A047F8BDC5B6000019B60000E7030000C5
:103B300009920000A023010095C60000F8B5CE460A
:103B4000474680B5B54EB64D326813212868B54C4E
:103B5000A047431E9841B44B18703268162128685C
:103B6000A047431E9841B14B187032681121286854
:103B7000A047AF4FB865326819212868A047431E97
:103B800098416023F85432681A212868A047A94F49
:103B90003863326828681B21A047F862A64B1B785F
:103BA000012B00D16EE0002B06D0022B00D1CFE01C
:103BB0000CBC90469946F8BD9D4CFA239B002360AF
:103BC000964F974E3A680A213068964DA847606034
:103BD0003A6800213068A847A0603A68012130683F
:103BE000A84720613A6802213068A847E0603A6837
:103BF00003213068A847A0613A6804213068A847CB
:103C000060613A6805213068A84720623A68062159
:103C10003068A847E0613A6807213068A847A06289
:103C20003A6808213068A84760623A680B2130681A
:103C3000A847E0620A21814B984720633A680C212B
:103C40003068A84760633A680D213068A847A063D0
:103C50007B4B98477B4B98467B4998477B4B9946D3
:103C60009847206461643A6830680E21A847A064D0
:103C7000774B98477449C0477349C047C847206588
:103C8000616595E76A4CFA239B002360634F644E9D
:103C90003A680A213068634DA84760603A6800219D
:103CA0003068A847A0603A6801213068A8472061C1
:103CB0003A6802213068A847E0603A68032130681A
:103CC000A847A0613A6804213068A84760613A6853
:103CD00005213068A84720623A6806213068A84765
:103CE000E0613A6807213068A847A0623A68082175
:103CF0003068A84760623A680B213068A847E062E4
:103D00000A214E4B984720633A680C213068A84737
:103D100060633A680D213068A847A063484B984714
:103D2000484B984648499847484B994698472064DD
:103D300061643A6830680E21A847A064444B9847F4
:103D40004149C0474049C047C847206561652FE7E2
:103D5000374C404B2360314F314E3A680A2130686E
:103D6000304DA84760603A6800213068A847A060DD
:103D70003A6801213068A84720613A68022130681A
:103D8000A847E0603A6803213068A847A0613A6814
:103D900004213068A84760613A6805213068A84767
:103DA00020623A6806213068A847E0613A68072136
:103DB0003068A847A0623A6808213068A847606266
:103DC0003A680B213068A847E0620A211B4B9847EC
:103DD00020633A680C213068A84760633A680D2177
:103DE0003068A847A063164B9847164B984616496B
:103DF0009847164B99469847206461643A68306842
:103E00000E21A847A064124B98470F49C0470E499E
:103E1000C047C84720656165CAE6C0460800002063
:103E200004000020457100002A050020190500202B
:103E300030050020080800209C050020D3910000D8
:103E400061F6000009F000006F12833A3D12010094
:103E5000C1F50000DC05000010B5104B9847104B71
:103E600098470A200F4CA0470022012100200E4B4A
:103E700098470120A047002100200C4B98470C4B8D
:103E8000C41863425C41E4B20A4B984201D020005E
:103E900010BD0948094B9847F9E7C046CD99000085
:103EA000899A0000617F0000C5B6000019B60000C5
:103EB000CFC8C9CB31373634C8230100B1C70000A1
:103EC00010B50A4B98470A4B98470A20094B984768
:103ED000094B9847002801D1012010BD0748084B25
:103EE0009847084B98470020F7E7C046A19A000082
:103EF0005D9B0000617F0000456C0000F023010025
:103F0000B1C700001147000070B50120064EB04750
:103F1000C024E4058025AD009423E5500120B0477E
:103F20009823E55070BDC046617F0000F0B583B0B6
:103F30003D4B64221A60C83A5A60FA2212019A6014
:103F400001223A4B1A700024394B1C70394B1C600B
:103F500000200021384B18605960384B18605960B8
:103F6000374B1C60374B1A70374B1A70374B1C702D
:103F70003749384B1960384B9C70DC701A715C7192
:103F80009C71DC711C725C729A72DC72334A147020
:103F90001C615C619C61DC611C625C629C62DC6235
:103FA0001C632F4B1C60EC235B002E4AD4502E4D1B
:103FB000002600272E606F60AC60EC602C61493BEE
:103FC000FF3BEC502800143078220021274B984703
:103FD000274B1C60A023EC540233EC54254B5C604F
:103FE000254B1E605F60254B1C6001A8244B984741
:103FF000C023DB05802252009C5820328221C90553
:104000008A58882149005B5853401C40544001A8FD
:104010001C4B9847E30305D4012252421A4B9A6184
:1040200003B0F0BD0122F9E71C050020B007002015
:10403000C907002048040020980700203804002009
:104040009007002016050020A0070020180500207A
:10405000A08601009805002008080020A80700207D
:1040600060080020A805002058040020A3BD00001F
:10407000A407002040080020B8070020D80700202F
:10408000917D00009F7D0000DC070020F0B5CE464A
:10409000474680B583B03F4C0122012120003E4BB2
:1040A000984720003D4B9847C023DB058022D20172
:1040B0009A61802292009A61802212029A61802184
:1040C000490398229950903A9A61354B98470021BC
:1040D0003448354B9847354B9847354B984700281F
:1040E00050D00822C023DB059A61324B9847002844
:1040F0004CD1C026F6050825B56101A82E4B99467E
:1041000098478023F4588223DB059846A023424633
:10411000D258103BF35853401C40544001A8274F3D
:10412000B84780235B031C40631E9C41E4B2684691
:10413000C84733684246126A366956401E405640A8
:104140006846B84735406A1E9541EAB221001C48CE
:104150001C4B98471C4B984700201C4B984700204D
:104160001B4B984700201B4B98471B4B98471B4BFA
:1041700098471B4B98471B4B984703B00CBC904685
:104180009946F0BD1848194B9847F6E71848174B61
:104190009847AEE7D008002011820000D5810000CA
:1041A000C539000020090020B57C00001D3A000040
:1041B000593E0000C13E0000917D00009F7D00003F
:1041C0006424010095C600003D3B0000FD4900004D
:1041D000C54800001D480000993A0000353900002C
:1041E00075390000815600000C240100B1C70000A1
:1041F0003824010070B50400802149009823C022B2
:10420000D205D15000203C4B98473C4DA847A0B266
:104210003B4B98473B4B00221A605A609A60A84774
:10422000394B19880020394B98470322522100202E
:10423000374CA04703210020364B98470020364BCF
:10424000984701000020354B984700226321002049
:10425000A04700210020324B9847324B1B78012B9E
:104260001FD0002B02D0022B36D070BD262100209B
:104270002D4DA84701002D482D4CA0472521002099
:10428000A84701002B48A0472D210020A847010086
:104290002948A0472C210020A84701002748A04713
:1042A000E3E726210020204DA84701002448204CA8
:1042B000A04725210020A84701002248A0472D2122
:1042C0000020A84701002048A0472C210020A84733
:1042D00001001A48A047C8E726210020124DA84730
:1042E00001001A48124CA04725210020A8470100D0
:1042F0001748A047B9E7C046BDA30000B54C000071
:10430000617F00001C05002030050020494B0000A3
:10431000C5B60000C1B80000B1B8000035B8000053
:10432000F5B700009C05002019B60000902401009C
:1043300095C60000C0240100E824010018250100F2
:10434000402501007025010098250100C8250100C5
:10435000F825010010B502210020094B9847094AB1
:10436000137801210B43DBB204210B431370064881
:10437000064B9847064B19680648074B984710BDEF
:10438000C1B800004008002024090020418300003B
:10439000940800200429010095C6000010B5010012
:1043A000024BD8600248034B984710BD9408002088
:1043B0003029010095C6000010B50100044C2060B2
:1043C0000020044B984721680348044B984710BDD0
:1043D00094080020F5B700006829010095C6000088
:1043E00010B500210020144B984700210020134BEA
:1043F000984700210020124B98470023114A137060
:10440000114A1370114A1370114A137801218B431A
:1044100003318B431370002000210E4B186059604C
:104420000D480E4B984700200D4B98470D4B586098
:104430000D480E4B984710BDF5B7000015B80000A9
:10444000C1B8000016050020A0070020C807002002
:104450004008002008050020900900207D8300000E
:10446000B1B800009408002088290100B1C70000FD
:1044700070B504000D0001221F4B1A7000201F4B65
:104480009847001BC317C0185840FA235B00984296
:104490001BDD002D0FD01A4B1E682000194B9847CA
:1044A00001223100184B9847002D1FD121001748D9
:1044B000174B984770BD124B1E682000114B984750
:1044C00000223100104B9847EEE70D4B1968002091
:1044D000104B9847002D04D0210000200E4B984728
:1044E000E2E7210000200D4B9847DDE721000C4852
:1044F000074B9847DEE7C046C8070020B1B8000068
:1045000094080020C1F500005D570000B8290100A3
:1045100095C60000F5B7000035B8000045B80000AA
:104520009C29010010B5054CA0600121044B98475F
:10453000A1680448044B984710BDC0469408002069
:1045400071440000D429010095C6000010B5264B27
:104550001B6884225200934215D00A22FF329342F4
:1045600016D0224B1B78002B19D1002917D11E4BD6
:104570001B79012B13D11C4B5B790D2B0FD89B00A2
:104580001B4AD3589F461B481B4B98470021E8E71E
:104590001A48194B98470121E3E7194B984710BD7A
:1045A000184B9847FBE7104BD868174B9847F6E72E
:1045B0000D4BD8680121154B9847F0E70A4BD86896
:1045C0000121124B9847EAE7074BD86800210F4BAF
:1045D0009847E4E7044BD8680D4B9847DFE7024B58
:1045E000D8680C4B9847DAE7A80800209C05002003
:1045F000CC280100002A0100B1C700001C2A0100DC
:1046000055430000E1430000B9430000714400003D
:104610009D4300002545000010B50CE00278084BD2
:104620009A62074B1B7E5B07FBD5054B9B6A0B70A1
:10463000013101302200541EE4B2002AEED110BD37
:1046400000100042F0B583B000900E000192C02728
:10465000FF0508247C610120064DA8476B461A79A6
:1046600031000098044B98470120A847BC61012005
:1046700003B0F0BD617F00001946000000B583B0B3
:104680000B2801D903B000BD01AB40221A7058704D
:1046900099703D3A69461800014B9847F2E7C046C9
:1046A0004546000010B582B00C000B280FD8002939
:1046B0000DD001AB41221A70587000229A7003325B
:1046C00069461800034B98476B469B78237002B0ED
:1046D00010BDC0464546000010B582B06B46DC1DDB
:1046E0000023237021000720074B98472378002BD5
:1046F00001D102B010BD054C21000820024B9847A3
:1047000001236370F5E7C046A5460000A005002020
:1047100010B582B0302100200C4CA04700210620AB
:10472000A04702210520A04730210120A0473021C9
:104730000220A0476B46D91D00230B700820044BB4
:1047400098470448044B984702B010BD7D460000CE
:10475000A54600003C2A0100B1C7000010B50E4A72
:10476000137801210B431370002100200B4B984755
:10477000002100200A4B98470A4A137801218B43F5
:10478000137000210020084B98470848084B9847B1
:104790000848094B984710BD08080020F5B70000ED
:1047A00015B8000040080020C1B800006C2A0100C4
:1047B000B1C70000900900207D83000010B50E4AAB
:1047C000137802210B431370002100200B4B9847F4
:1047D000002100200A4B98470A4A137801218B4395
:1047E000137000210020084B98470848084B984751
:1047F0000848094B984710BD08080020F5B700008D
:1048000015B8000040080020C1B80000802A01004F
:10481000B1C70000900900207D83000070B504003E
:104820001F4E32005C211F4DA84732005D21200041
:10483000A8471D4EB2685E212000A84732225F21A2
:104840002000A847002260212000A847174A6121C4
:104850002000A847164A62212000A84703225221BF
:104860002000A847092250212000A84709225121F1
:104870002000A847328AB18920000E4B9847328B1E
:10488000B18A20000C4B9847328CB18B20000B4B27
:104890009847328DB18C2000094B984770BDC046B7
:1048A000FF7F0000C5B60000300500200100008039
:1048B000FFFFFF7F01B9000015B9000029B9000012
:1048C0003DB9000070B505003E4A1B213E4CA04793
:1048D000002217212800A0473C4A18212800A047A1
:1048E0003B4A19212800A04707221A212800A04787
:1048F000384A0A210020A047374A04210020A04757
:104900008026B605320005210020A047320006218E
:104910000020A047314A07210020A047304A092142
:104920000020A0472F4A08210020A04700221F2175
:104930002800A047002220212800A0470022212192
:104940002800A047002223212800A047022252214C
:104950002800A047082263212800A047002229211F
:104960000020A047012252210020A04700221C2144
:104970000020A047FA22120124210020A047FA209B
:104980008000194B9847194E32005C212800A0473F
:1049900032005D212800A047154B9A685E2128004F
:1049A000A047002260212800A047124A6121280068
:1049B000A047114A62212800A04703226D21002050
:1049C000A04770BD32000200C5B600009F0F000076
:1049D0001919000000010018100010004E014E01CE
:1049E00097814100C5814100617F0000FF7F000089
:1049F0003005002001000080FFFFFF7F70B504003C
:104A000000221A214C4DA84700221B212000A84754
:104A1000002217212000A847002218212000A847C3
:104A2000002219212000A84700220A212000A847BF
:104A3000002204212000A847002205212000A847C9
:104A4000002206212000A847002207212000A847B5
:104A5000002209212000A847002208212000A847A1
:104A600000221F212000A847002220212000A84763
:104A7000002221212000A847002223212000A8474E
:104A8000002252212000A847002263212000A847CD
:104A9000002224212000A847002226212000A84728
:104AA000002227210020A84700225C212000A847DF
:104AB00000225D212000A84700225E212000A84797
:104AC00000225F212000A847002266212000A8477D
:104AD000002261212000A847002262212000A8476F
:104AE000002252212000A847002250212000A84780
:104AF000002251212000A847002263212000A8475E
:104B0000002268212000A84700226B212000A8472E
:104B1000002260212000A847002200212000074B2E
:104B20009847002200212000054B984700220021D1
:104B30002000044B984770BDC5B60000E1B80000E6
:104B400029B900003DB90000F0B583B005000E00A2
:104B50004F4CA0884F4FB8470023012229210195CF
:104B600028004D4DA8470123002252210198A84753
:104B70000023012224210198A84733000022242188
:104B8000019E3000A847002300221C213000A847C6
:104B9000FA204000B847414F414E3A680F21306833
:104BA000404DA847E0653A6830681021A8470028C2
:104BB0002FD180246401394E394F32681121386871
:104BC000384DA847324B9865326838681221A8479B
:104BD000002820D180256D01334B1B78012B33D069
:104BE000002B1AD0022B46D000222721019C200046
:104BF0002E4DA847002252212000A847FA2040004D
:104C0000244B984701222A212000294B984703B0C2
:104C1000F0BD0024CFE70025DEE72200252100209B
:104C2000224EB0471A4FFA6D26210198B0472A004C
:104C30002C210020B047BA6D2D210020B047002262
:104C40002E210020B047CFE7220025210020174E5B
:104C5000B0470F4FFA6D26210198B0472A002C214A
:104C60000020B047BA6D2D210020B04700222E2130
:104C70000020B047B8E7064BDA6D2621019E3000D0
:104C80000A4DA847220025213000A847ACE7C046BE
:104C900030050020617F000081B70000080000207F
:104CA00004000020457100009C050020C5B60000EE
:104CB00061B7000070B50822632100200B4CA047AB
:104CC00000221F210020A047094D2A682021002032
:104CD000A0476A6821210020A047AA68242100205B
:104CE000A047022252210020A04770BDC5B6000097
:104CF0001C05002010B500210020084B984700211A
:104D00000020074B984700210020064B9847064A91
:104D1000137801218B43137010BDC046C1B8000049
:104D2000F5B7000015B800004008002010B50021BC
:104D30000020084B984700210020074B984700218E
:104D40000020064B9847064A137801218B431370C5
:104D500010BDC046C1B80000F5B7000015B800008E
:104D600040080020F0B5D6464F464646C0B588B04C
:104D700000200021864B18605960864B5B7A002B1F
:104D800000D1D1E0834C0025657200210020824BC8
:104D90009847FA20814B984725610020804B98471F
:104DA000C317C018584060612369E3612062002185
:104DB00000207C4DA847002100207B4CA04700210B
:104DC0000020A84700210020A047032263210020E3
:104DD000764CA04700222E210020A047744B1B7860
:104DE000022B00D185E000236A4A1371714A1370C7
:104DF000714A1370714B1B78002B00D180E0704B0F
:104E00009A46704B994653461A681A214B461868C1
:104E10006D4CA0476D4FB8476D4E6E49B0476E4D13
:104E2000A847049052461268494608681B21A047CB
:104E3000B8476849B047A847684B1B78002B62D039
:104E4000049B5C424042614FB8476549654B9847B7
:104E5000504D614EB047E8622000B8476049624B50
:104E60009847B04728634B4B9A465D69574B994624
:104E7000280098475D4F5749B847049053461E692C
:104E80003000C8475349B8470790594C0498A04789
:104E9000049005910798A047029003910096049A08
:104EA000059B29005348544EB0475346DD6A2800FD
:104EB000C8474849B847049053461B6B98461800AA
:104EC000C8474449B847071C0498A0470490059177
:104ED000381CA0470290039143460093049A059B17
:104EE00029004648B04708B01CBC90469946A246E7
:104EF000F0BD4348434B98470722434B1A7072E773
:104F0000424B98477BE7314FB8473549364B984776
:104F1000204D314EB047E8620498B8473049314BD4
:104F20009847B04728639EE71A4C0123637200211B
:104F30000020194B9847002100201A4B9847FA206F
:104F4000334B98470023636123611C4B1B78DAB213
:104F5000012A0ED9022BC6D1204B1B78002B11D071
:104F60002C490020104B9847032100202A4B9847DA
:104F7000B9E7284900200C4B984703210020264B15
:104F80009847B0E725490020074B9847ECE7C04613
:104F90000805002008080020F5B70000617F000028
:104FA000B1B80000A1B8000035B80000C5B60000D7
:104FB00018050020A0070020160500209C050020F1
:104FC000080000200400002045710000C1F5000029
:104FD00009F000008542214681F500002A050020E5
:104FE0008542A14605E9000049F2000029EC0000D5
:104FF0003D120100BC2A010095C600000C2B0100E7
:1050000090090020418300004D040020AD350000D0
:1050100095380000FFFFFF7FC1B80000010000804D
:10502000F0B5D6464F464646C0B588B000200021B0
:105030007D4B186059607D4B5B7A002B00D1C8E036
:105040007B4B1B78002B04D17A4B1B78002B00D1B3
:10505000A4E0764D00246C7200210020764B984726
:10506000FA20764B98470020754B9847C317C01815
:10507000584028616C61EC61286200210020714B6E
:10508000984700210020704B98472C716F4B1C7083
:105090006F4B1C7000222E2100206E4B98476E4BE8
:1050A0001B78022B00D17CE06C4B9A466C4B9946E6
:1050B00053461A681A214B4618686A4CA0476A4F33
:1050C000B8476A4E6A49B0476A4DA84704905246AD
:1050D0001268494608681B21A047B8476449B04791
:1050E000A847654B1B78002B62D0049B5C42404272
:1050F0005D4FB8476149624B98474C4D5D4EB04794
:10510000E8622000B8475D495E4B9847B047286386
:10511000464B9A465D69544B9946280098475A4F2A
:105120005349B847049053461E693000C847504958
:10513000B8470790554C0498A047049005910798EC
:10514000A047029003910096049A059B29005048BD
:10515000504EB0475346DD6A2800C8474449B84717
:10516000049053461B6B98461800C8474049B847FF
:10517000071C0498A04704900591381CA047029092
:10518000039143460093049A059B29004248B04787
:1051900008B01CBC90469946A246F0BD3F4B9847CC
:1051A00057E73F483F4B984707223F4B1A707BE732
:1051B0002D4FB8473149334B98471C4D2D4EB047C2
:1051C000E8620498B8472D492D4B9847B0472863AB
:1051D0009EE7164C0123637200210020164B98476E
:1051E00000210020174B9847FA20304B98470023A6
:1051F000636123610E4B1B78DAB2012A0AD9022BB4
:10520000C6D12B490020104B984703210020294B81
:105210009847BDE7284900200B4B98470321002001
:10522000244B9847B4E7C046080500200808002032
:105230009C050020A8070020F5B70000617F000052
:10524000B1B80000A1B8000035B80000A0070020E8
:1052500016050020C5B60000180500200800002033
:105260000400002045710000C1F5000009F00000B5
:105270008542214681F500002A0500208542A1468D
:1052800005E9000049F2000029EC00003D12010090
:10529000BC2A010095C600000C2B0100AD350000B2
:1052A00090090020418300004D0400209538000043
:1052B000FFFFFF7FC1B800000100008010B586B07D
:1052C000802149009823C022D205D150FD39002009
:1052D000614B9847614B1B78002B15D0604900202B
:1052E000604B98476023604AD35C002B11D10022A9
:1052F0005E4B5A725E4B1B78DAB2012A25D9022B1B
:1053000000D16EE006B010BD5A490020554B9847B9
:10531000E8E700200021584B186059600022632103
:105320000020564B984700210020554B98474F4B83
:1053300000225A725A611A6149490020494B984724
:1053400003210020444B9847DCE701A84D4B9847C8
:10535000C023DB05802252009A58902252008221FD
:10536000C9058A58882252009B5801A8464B984785
:105370003A4B1B78002B19D002A8424B9847C02308
:10538000DB05802252009C5820328221C9058A58B0
:10539000882149005B5853401C40544002A83A4BB6
:1053A0009847E302AED4394B9847ABE703A8354B97
:1053B0009847C023DB05802252009C58203282216E
:1053C000C9058A58882149005B5853401C40544005
:1053D00003A82D4B9847E30200D593E72B4B984742
:1053E00090E71E4B1B78002B1AD004A8254B98473A
:1053F000C023DB05802252009C5820328221C9053F
:105400008A58882149005B5853401C40544004A8E6
:105410001D4B9847630300D574E71D4B984771E710
:1054200005A8184B9847C023DB05802252009C58E2
:1054300020328221C9058A58882149005B5853408F
:105440001C40544005A8104B9847630300D559E70A
:105450000F4B984756E7C046C1B800002A05002008
:105460000100008035B80000300500200808002049
:105470009C050020FFFFFF7F08050020C5B6000047
:10548000F5B70000917D00009F7D000021500000D5
:10549000654D0000F0B5DE4657464E464546E0B540
:1054A00083B001A8264B9B469847C026F60580246A
:1054B000640035598223DB059A4690235B009946A8
:1054C00053464A469A5888235B009846F3585340FF
:1054D0001D40554001A81B4FB84780235B031D406A
:1054E0006846D847345953464A469A584346F35873
:1054F00053401C4054406846B8478023DB021C40A0
:10550000002D10D180229200B261002C11D0802297
:105510001202C023DB055A6103B03CBC9046994699
:10552000A246AB46F0BD80229200C023DB055A6143
:10553000EBE780221202C023DB059A61ECE7C0464C
:10554000917D00009F7D000010B53B4B1A78531EE3
:10555000DBB2012B0ED9131FDBB2012B01D9002ABC
:1055600012D1364B5B78002B0ED00022334B5A7091
:10557000072441E0324B1B78DB0706D4304B1B7805
:105580009B0718D42F4B984710BD2D4C2378012230
:105590009343237080229200C023DB055A612A487E
:1055A0002A4B984723785B0702D5294B9847E5E7B4
:1055B000284B9847E2E7224C23780222934323703A
:1055C00080221202C023DB055A6123481F4B9847F3
:1055D0002379002B02D0214B9847D3E7204B9847E3
:1055E000D0E7164B1B78234101221A4021001D48A9
:1055F0001D4B9847013C64B2002CF2DA0A201B4B89
:1056000098470E4B1B78DA0609D49A060BD45A0633
:105610000DD4DB09B8D016480C4B9847B4E71548B1
:105620000A4B9847B0E71448084B9847ACE7134833
:10563000064B9847A8E7C0469C050020A00500201F
:1056400008080020955400006C2A0100B1C7000032
:1056500021500000F54C0000802A0100654D00003B
:105660002D4D00005C2B010095C60000C9C600004E
:10567000CC2B01006C2B0100882B0100A42B010016
:1056800010B507495420074CA04707495220A047AE
:1056900006495120A04706493520A04710BDC04605
:1056A0005D470000F97F0000BD4700003158000051
:1056B000D946000070B560231F4AD35C002B2DD162
:1056C0000FE0A02212061D4B200029001C4CA04711
:1056D0001C4B186059601C4B9847010000201B4B65
:1056E0009847154BD86A1A4B9847164B1C685D684B
:1056F00022002B00174EB0470028E2D170BD0022D7
:10570000154B200029000E4CA0470E4B1860596025
:105710000D4B9847010000200C4B9847064BD86A68
:105720000B4B9847074B1C685D6822002B00094E05
:10573000B0470028E3D1E1E7300500209999993F6F
:10574000EDF6000008050020E1100100F5B70000AB
:105750004911010055E800000000D03F70B5051C5C
:105760000C001600002200231E490A604B601E49EF
:105770000A604B60002100201C4B9847002E28D067
:10578000281C1B4B9847010000201A4B98471A4BC6
:105790001C601A481A4B984703210020194B984760
:1057A0000022194B1A700132184B1A70184B1B79D2
:1057B000002B07D1A333174AD35C002B02D101225F
:1057C000154B1A701548164B98471648164B9847B4
:1057D00070BD281C064B984701000020134B9847CA
:1057E000D5E7C04638040020D0070020F5B70000F8
:1057F00081F5000035B8000060080020A8050020F1
:1058000041B30000C1B800004D040020A0070020F3
:105810000808002058040020C807002024090020A0
:105820007D830000900900204183000045B80000FE
:1058300010B52D4B1B7B002B2AD0002100202B4BB9
:105840009847002100202A4B98470022272100205A
:10585000284B984700210020274B98470021002023
:10586000264B9847204A002313731371244A137060
:10587000244A13705120244B9847244B1B78012B4A
:1058800026D0002B20D0022B26D0032B28D010BDF1
:1058900000210020154B984700210020144B984709
:1058A0000024174B1C70174B1C700020184B984796
:1058B00001221E210020174B98470B4B1C731C71B3
:1058C0005120114B9847D8E71348144B9847DEE70F
:1058D0001348124B9847DAE71248104B9847D6E71F
:1058E00011480E4B9847D2E708080020C1B80000C5
:1058F000F5B70000C5B60000A1B8000035B800003B
:10590000A007002016050020F58000009C0500205F
:10591000B1B800005D570000F42B0100B1C70000D2
:10592000202C01004C2C0100782C0100F0B5DE4643
:1059300057464E464546E0B593B0CF4B9B78002B7B
:1059400006D113B03CBC90469946A246AB46F0BD8A
:105950000022C94B9A700020C84B984700280AD0F3
:105960000020C74B9847C74B1A78072AE9D89300FD
:10597000C54AD3589F460321C44B9847F0E70020FF
:10598000BF4B9847BC4DAE69EF69C14CA047320090
:105990003B00C04EB047C04B9847C317C018584093
:1059A0002E6F6F6FA047012432003B00BB4DA8470C
:1059B000002800D10024E4B2002C41D0012CC0D139
:1059C000AD4B3133FF3318685968B54B9847B54B29
:1059D0001C685D6822002B00B34EB047002811D030
:1059E000B24B1A6D5B6DB24E20002900B047020029
:1059F0000B00AC490A604B60AE4C20686168B04750
:105A000020606160AC4CAB4B1A685B6822606360DD
:105A1000994BF83318685968A14B98476568246812
:105A200022002B00A04EB047002800D189E72000BB
:105A30002900994B984701000020A04B984780E728
:105A400000208F4B98478C4DAE69EF69904B9A467A
:105A50009847904C32003B00A0478F4B98469847A0
:105A6000C217831853402E6F6F6F0B931800D047E7
:105A700032003B00A047EC246400C0472851F822C4
:105A80009246AA44524610685168854A904690470B
:105A9000884B186059602A6F6B6F0C920D9300222F
:105AA000874B804908684968864EB0470E900F9131
:105AB0002E003136FF3630687168C04706000F008F
:105AC0000020814B98478346514608684968C04783
:105AD0002C590894069007915C460494029603970B
