:10000000D8330020054B0000014B0000014B0000DD
:1000100000000000000000000000000000000000E0
:10002000000000000000000000000000014B000084
:100030000000000000000000014B000005920000DD
:10004000014B0000014B0000014B0000017000005B
:10005000014B0000014B0000014B0000D16D00007E
:10006000014B0000014B000019750000014B00001E
:10007000014B0000014B00002D750000014B0000FA
:10008000E9690000014B0000014B0000014B00003A
:10009000014B0000257C0000397C0000014B000072
:1000A0004D7C0000014B0000014B0000014B0000A3
:1000B000014B0000014B0000014B000010B5064C45
:1000C0002378002B07D1054B002B02D0044800E019
:1000D00000BF0123237010BD50020020000000006B
:1000E00048230100084B10B5002B03D007490848EE
:1000F00000E000BF07480368002B00D110BD064B8D
:10010000002BFBD09847F9E70000000054020020C4
:1001100048230100482301000000000010B5024BF5
:100120009847024B984710BD45530000AD91000021
:1001300070B504000E001D00FA2189005143090129
:100140003048314B984701380004304B1840304B51
:1001500018432660B36901221343B36123689A6987
:10016000D207FBD59A6902210A439A61294B9E4224
:1001700034D02268936902218B439361226893698A
:1001800001398B43936123689B69DB07FBD4200013
:10019000214B98476B091F2215401E3AAA40C024E4
:1001A000E405DB011E19B2601004000C8021C905B2
:1001B00001438220C005844663449962110CC02526
:1001C0002D0629439962726110238822A3502032A0
:1001D000124981508550143AA35070BD2368D861EC
:1001E0000F4B802252027E315A50BFF34F8FBFF324
:1001F0006F8F0131FF315A501A6023680122DA658E
:10020000B7E7C046006CDC02556B00000000FF0140
:10021000030A000600200042595700001000004069
:1002200000E100E010B50A000121014B984710BD24
:10023000F157000010B50A000021014B984710BD8E
:10024000F157000010B584B0009100216C46217177
:1002500006A902912373002A0BD100236373694618
:10026000054B9847054B1860431E9841C0B204B037
:1002700010BD01236373F2E7B9570000A40B0020FF
:1002800010B584B00C0002926946084B9847009B59
:1002900023606B461B79002B05D0012B01D0002079
:1002A00002E0022000E0012004B010BD81570000F0
:1002B00010B582B000910192002B06D16B4600224E
:1002C0000021054CA04702B010BD6B460122002161
:1002D000014CA047F7E7C04641580000F0B5420E78
:1002E0000F231340174F3B70430CDBB2164E337095
:1002F000430ADBB2154D2B70C0B2154C2070154A65
:10030000137915490B703B783078C018C0B22B7840
:100310001818C0B223781B18DBB210781B18DBB298
:1003200050781B18DBB290781B18DBB2D2789B1880
:10033000DBB20A4A137008781378C01A4342584156
:10034000C0B2F0BDF8070020380C0020750900206D
:1003500000090020D80B002001090020250C0020F6
:1003600010B5094C094B1A68230004C3084A03CA94
:1003700003C3084B98470100E06002000648074BA2
:100380009847074B984710BD080F0020B00B00207E
:10039000D80B0020E505000078F30000B1A70000AD
:1003A000D91D0000F0B5C64600B586B00400424B2A
:1003B0009847424B1A78052A1FD89300404AD358D1
:1003C0009F46404B1978C9B23F4B1A78D2B23F4B87
:1003D0001B78DBB298463E4804783E48057846785C
:1003E0008778C37800790590049303970296019566
:1003F000009443463848394CA04706B004BC9046A8
:10040000F0BD304B1978C9B22F4B1A78D2B22F4BAE
:100410001B78DBB298462E4804782E48057846783B
:100420008778C37800790590049303970296019525
:10043000009443462A48294CA047DEE7214B19780F
:10044000C9B2214B1A78D2B2204B1B78DBB2984646
:100450001F4804781F48057846788778C378007964
:1004600005900493039702960195009443461D4816
:100470001A4CA047C1E717490A784B788878CD789D
:10048000097902910195009021001748134CA0476B
:10049000164B9847B1E70F490A784B788878CD78A2
:1004A0000979029101950090210011480B4CA04759
:1004B0000E4B9847A1E7C046DD02000074090020FA
:1004C00060F30000F8070020380C002075090020B8
:1004D00000090020D80B002098F30000B1A700000D
:1004E000C8F30000F8F3000028F4000061030000E6
:1004F00058F4000070B5A423104AD3585B0603D10A
:1005000000220F4B1A7070BD0E4D002200232A608E
:100510006B600D4C002323600C4A13700C4A13705F
:100520000C4A13700C4A13702A0021000B480C4B24
:100530009847296820680B4B9847E4E70020004261
:1005400028080020D80B0020B00B0020F80700205E
:10055000380C00207509002000090020580F0020E9
:1005600081020000A503000010B582B00100064B17
:100570005C681B6800930194062301220348044C25
:10058000A04702B010BDC046900B0020580F0020BD
:100590004502000010B5074C217062701A0EA2705F
:1005A0001A14E2701A1222716371034B1968034B1B
:1005B000984710BD900B0020980B002069050000A3
:1005C0007047000010B5044C0022044BA0470022E5
:1005D000034BA04710BDC04665E4000000004E403C
:1005E0000000F03E054B98780006DA7812041043BC
:1005F0001A79120210435B7918437047D80B002018
:10060000044B01229A70E42149005A5801325A5091
:100610007047C04680090020034B1A68916E402342
:100620000B4393667047C04604000020024A1378CB
:100630000133DBB2137070472808002070470000B8
:1006400010B5002837D0082939D80170002343603D
:100650008360C360036143618361C361036243627A
:100660008362C362838603636824035D012293432C
:10067000013293430232934304329343083293434B
:1006800010329343203293433F321340035502000C
:1006900068325378012423435370836E5B045B0CF0
:1006A0008366012910D006290ED0683043782022B5
:1006B0009343437010BD0749074B9847FAE7074932
:1006C0000120054B9847F5E7683043782022134313
:1006D0004370EFE788F400009D130000ACF40000C5
:1006E000F0B5D64600B582B082460191002718E0E9
:1006F000C024E4058026B600E6616B469B88009323
:100700001800104DA847E6618026F601E6610098C2
:10071000A847E66180263602E6610098A847E661B0
:1007200001375745E4D3C023DB05802292009A614C
:10073000802212029A618022D2019A6102B004BC26
:100740009246F0BD9558000070B5084901248C60B0
:10075000074BCB600C740748074DA84707498C60CE
:10076000074BCB600C740748A84770BD680C00208D
:1007700001060000F00F0020ED5C0000400C00209E
:1007800019060000840F002070B50B4C4923FA2293
:1007900052000A4920000A4DA8470A4920000A4B86
:1007A00098470A4920000A4B98470123002200215C
:1007B0002000084CA04770BD580F002000200042C8
:1007C00031010000C1050000250200002D060000D7
:1007D00035020000B102000010B50B4C0B4920009F
:1007E0000B4B984720000B4B98470B4C0B4A0021B2
:1007F00020000B4B98470B4920000B4B98472000DB
:100800000A4B984710BDC0464C0F00200409002039
:10081000D1610000A5610000A00F00203D0600008E
:10082000016000002C080020D15F0000A55F0000DF
:10083000F8B5CE46474680B5002401235B42994671
:1008400000239846002602E09846F6180134312C21
:100850000DDC0F4D02232A0000210E480E4FB84731
:100860002B889845F0D39945EFD99946EDE7322189
:1008700030000A4B984702004B4641460848094C55
:10088000A0470422084B1A700CBC90469946F8BD4C
:10089000EC080020800F002015560000556B00006A
:1008A000E4F40000B1A7000074090020F8B50022AC
:1008B0001A210020204CA047802149009423C02207
:1008C000D205D1500022FD390020A0470024002588
:1008D000002609E002210020184B984703041B0C56
:1008E000F618000C2D180134154B9C42F2DD154F03
:1008F000FA2189003000B8470400FA218900280055
:10090000B8470500020021000F48104B9847220409
:10091000120C8223DB031A432D042D0C1D430921E5
:100920000020054CA0472A0008210020A0470722EC
:100930001A210020A047F8BDCD92000021920000AE
:10094000E7030000556B000014F50000B1A700009C
:10095000F8B5CE46474680B5E84EE94D32681321DA
:100960002868E84CA047431E9841E74B187032684E
:1009700016212868A047431E9841E44B187032683E
:1009800011212868A047E24FB8653268192128680C
:10099000A047431E98416023F85432681A21286802
:1009A000A047DC4F3863326828681B21A047F862F3
:1009B000D94B1B78012B00D171E0002B09D0022B01
:1009C00000D1D2E0042B00D134E10CBC9046994612
:1009D000F8BDCF4CFA239B002360C84FC84E3A683D
:1009E0000A213068C74DA84760603A680021306826
:1009F000A847A0603A6801213068A84720613A689A
:100A000002213068A847E0603A6803213068A847AF
:100A1000A0613A6804213068A84760613A680521FE
:100A20003068A84720623A6806213068A847E0612C
:100A30003A6807213068A847A0623A680821306800
:100A4000A84760623A680B213068A847E0620A2133
:100A5000B24B984720633A680C213068A84760631E
:100A60003A680D213068A847A063AD4B9847AD4B5D
:100A70009846AD499847AD4B9946984720646164C4
:100A80003A6830680E21A847A064A94B9847A64948
:100A9000C047A549C047C8472065616595E79C4C9C
:100AA000FA239B002360954F954E3A680A213068DF
:100AB000944DA84760603A6800213068A847A0605C
:100AC0003A6801213068A84720613A6802213068FD
:100AD000A847E0603A6803213068A847A0613A68F7
:100AE00004213068A84760613A6805213068A8474A
:100AF00020623A6806213068A847E0613A68072119
:100B00003068A847A0623A6808213068A847606248
:100B10003A680B213068A847E0620A217F4B98476A
:100B200020633A680C213068A84760633A680D2159
:100B30003068A847A0637A4B98477A4B98467A4921
:100B400098477A4B99469847206461643A683068C0
:100B50000E21A847A064764B98477349C047724955
:100B6000C047C847206561652FE7694C714B23601A
:100B7000624F634E3A680A213068624DA847606050
:100B80003A6800213068A847A0603A6801213068BF
:100B9000A84720613A6802213068A847E0603A68B7
:100BA00003213068A847A0613A6804213068A8474B
:100BB00060613A6805213068A84720623A680621DA
:100BC0003068A847E0613A6807213068A847A0620A
:100BD0003A6808213068A84760623A680B2130689B
:100BE000A847E0620A214D4B984720633A680C21E0
:100BF0003068A84760633A680D213068A847A06351
:100C0000474B9847474B984647499847474B994623
:100C10009847206461643A6830680E21A847A06450
:100C2000434B98474049C0473F49C047C8472065A4
:100C30006165CAE6364CFA239B0023602F4F304E85
:100C40003A680A2130682F4DA84760603A68002151
:100C50003068A847A0603A6801213068A847206141
:100C60003A6802213068A847E0603A68032130689A
:100C7000A847A0613A6804213068A84760613A68D3
:100C800005213068A84720623A6806213068A847E5
:100C9000E0613A6807213068A847A0625023636288
:100CA0003A680B213068A847E0620A211B4B98473D
:100CB00020633A680C213068A84760633A680D21C8
:100CC0003068A847A063164B9847164B98461649BC
:100CD0009847164B99469847206461643A68306893
:100CE0000E21A847A064124B98470F49C0470E49F0
:100CF000C047C8472065616567E6C0462000002000
:100D00001C000020694A000002090020F2080020AF
:100D100008090020E40B0020740900201F6B00006C
:100D200051D50000F9CE00006F12833A2DF100007A
:100D3000B1D40000DC05000070B5154B9847154B89
:100D400098470A20144CA047002201210020134B91
:100D500098470120A04700210020114CA047050022
:100D600000210020A04706000E4BC41863425C41DE
:100D7000E4B22A0029000C480C4B98470C4B9E42C9
:100D800001D0200070BD0B480B4B9847F9E7C046D7
:100D900041750000FD75000095580000CD920000DF
:100DA00021920000CFC8C9CB3CF50000B1A70000DC
:100DB0003137363458F50000A5A8000010B50A4BAD
:100DC00098470A4B98470A20094B9847094B984780
:100DD000002801D1012010BD0748084B9847084B57
:100DE00098470020F7E7C04615760000D17600004E
:100DF000955800006D47000080F50000A5A8000090
:100E00003527000070B50120064EB047C024E40528
:100E10008025AD009423E5500120B0479823E5508C
:100E200070BDC04695580000F0B583B000243E4B1D
:100E30001C703E4B64221A60C83A5A60FA221201B2
:100E40009A6001223A4B1A703A4B1C703A4B1C6064
:100E500000200021394B18605960394B18605960E7
:100E6000384B1C60384B1A70384B1C70384B1C7058
:100E70003849394B1960394B9C70DC701A715C71C0
:100E80009C71DC711C725C729A72DC72344A147050
:100E90001C615C619C61DC611C625C629C62DC6266
:100EA0001C63304B1C60EC235B002F4AD4502F4D49
:100EB000002600272E606F60AC60EC602C61493B1F
:100EC000FF3BEC502800143078220021284B984733
:100ED000284B1C60A023EC540233EC54264B5C607E
:100EE000264B1E605F60264B1C6001A8254B98476F
:100EF000C023DB05802252009C5820328221C90584
:100F00008A58882149005B5853401C40544001A82E
:100F10001D4B9847E30305D4012252421B4B9A61B3
:100F200003B0F0BD0122F9E728080020F4080020F2
:100F3000880B0020A10B002024080020700B00204B
:100F400010080020680B0020EF080020780B00201C
:100F5000F1080020A086010070090020E40B0020A9
:100F6000800B00203C0C002080090020300800206D
:100F7000BF9E00007C0B00201C0C0020900B00206A
:100F8000B00B0020C5560000D3560000B40B002063
:100F9000F0B5CE46474680B583B0694C01220121A9
:100FA0002000684B98472000674B9847674B98474D
:100FB000C023DB0580214900942299508022D20170
:100FC0009A61802292009A61802212029A618021A5
:100FD000490398229950903A9A615D4B98475D4B2E
:100FE00098475D4B984700215C485D4B98475D4BA7
:100FF00098475D4B9847002858D00822C023DB054E
:101000009A615A4B9847002854D1C026F605082506
:10101000B56101A8564B994698478023F45882231E
:10102000DB059846A0234246D258103BF358534064
:101030001C40544001A84F4FB84780235B031C401D
:10104000631E9C41E4B26846C84733684246126A50
:10105000366956401E4056406846B84735406A1EBD
:101060009541EAB221004448444B9847444B984785
:101070000020444B98470020434B98470020434BA7
:101080009847434B9847434B1B78012B33D0002B99
:1010900014D0022B49D0404B9847404B9847404BC7
:1010A000984703B00CBC90469946F0BD3D483E4B76
:1010B0009847A2E73D483C4B9847A6E73C4B186849
:1010C00001213C4CA0473C4D00212868A04700204E
:1010D0003A4FB8473A4E04213068A0470120B8473C
:1010E0003268384B1A60296859609A603649022084
:1010F000364B9847CFE7364D022128682D4FB84729
:1011000000202E4EB047334C03212068B847012001
:10111000B0472C4B00221A602A685A6022689A60F5
:101120002D490220294B9847B5E7264B00221A602B
:101130005A609A6029490220244B9847ABE7C04681
:10114000300F0020455B0000095B0000050E000029
:10115000D9070000617C0000497D0000800F00205D
:10116000E955000031080000390D0000BD0D0000F8
:10117000C5560000D3560000F4F50000B1A70000EA
:1011800051090000A52E00006D2D0000C52C0000A7
:10119000AD080000EE0800204907000089070000A4
:1011A000093400009CF50000A5A80000C8F5000067
:1011B000040000204106000008000020099A0000F9
:1011C00014000020780500201CF600009D1300008C
:1011D0000C0000201000002084F60000DCF6000067
:1011E00070B50400802149009823C022D205D15057
:1011F0000020444B9847444DA847A0B2434B984722
:10120000434B00221A605A609A60A847414B1988E4
:101210000020414B98470322522100203F4CA04719
:10122000032100203E4B984700203E4B9847010089
:1012300000203D4B9847002263210020A047002159
:1012400000203A4B98473A4B1B78012B21D0002BBA
:1012500004D0022B38D0042B45D070BD26210020AD
:10126000344DA84701003448344CA04725210020C4
:10127000A84701003248A0472D210020A8470100BF
:101280003048A0472C210020A84701002E48A04745
:10129000E3E726210020274DA84701002B48274CD3
:1012A000A04725210020A84701002948A0472D215B
:1012B0000020A84701002748A0472C210020A8476C
:1012C00001002148A047C8E726210020194DA84762
:1012D00001002148194CA04725210020A847010002
:1012E0001E48A047B9E726210020124DA84701005B
:1012F0001B48124CA04725210020A847010019488F
:10130000A047AAE7C57F000089310000955800007A
:10131000F408002008090020F12F0000CD92000001
:10132000B9940000A99400002D940000FD930000E2
:10133000740900202192000048F70000B1A70000C6
:1013400078F70000A0F70000D0F70000F8F70000E1
:1013500028F8000050F8000080F80000B0F8000005
:10136000D8F800000CF900000122014B1A707047F8
:101370000000002010B5044B186000221A710332DF
:101380005A71024B984710BD6C020020691300008F
:101390000122014B1A707047000000200EB4F0B516
:1013A000C64600B583B02C4B5B79834206D203B0AE
:1013B00004BC9046F0BC08BC03B018478000274B23
:1013C000C358274A8021890023480830254CA0476C
:1013D000061E13DB0AAB01931F48083080198021D9
:1013E0008900891B099A204CA047002808DB361881
:1013F0001E4B9E4200DD1E00002720E00026E9E78C
:101400000020F4E780239846134C2079184D0835C6
:10141000C001281821000831C9194246154B9847C8
:1014200023681B682079C001281841469847237912
:1014300001225340DBB2237147444346F61A002E83
:10144000B5DD0D4B1B78002BFBD000220A4B1A7028
:10145000802ED7DCB046D7E76C020020E4FB00000A
:10146000F4FB000025AA0000EDAA0000FF01000027
:101470006C040020AD9E00000000002010B5064B5B
:101480003F22995CC9B20020985440301C5C64082B
:101490003F382040995410BD0060004110B5014B09
:1014A000984710BD9113000010B5014B984710BD2F
:1014B0009113000010B50C00002811D0002901D1B3
:1014C000002010BD01000020064B9847210000209D
:1014D000054B984700210020044B98470120F0E776
:1014E0000020EEE71D6D00002D6D0000816D0000F5
:1014F00010B5174B00213F22995440315A5C02200D
:1015000082435A544023124AD35C9B07FAD4114AAF
:101510000F4B5A648022D2000F4B1A800F490020D3
:101520000F4B98470122002100200E4CA0470122BA
:1015300001210020A0470C4C002120000B4B9847B4
:1015400023680B4A1A6023680A4A5A6010BDC046D5
:101550000060004100348000501000202804004347
:101560000D6D0000C96C000074050020BD6D000009
:10157000A91400009D1400000048704718FC0000EA
:1015800070B50C4C2368D860D96800200A4B984786
:1015900025680020094B9847686123685969002035
:1015A000074B98472368DA6806490320064B98479B
:1015B00070BDC04604000020FD930000A994000007
:1015C0002D9400005CFE00009D13000070B5094CD6
:1015D000256868620020084B98476861236859694C
:1015E0000020064B984723685A6A05490320054B9B
:1015F000984770BD04000020A99400002D940000BD
:101600007CFE00009D13000010B50200094B186815
:101610001300591E8B41816E1B03074C21400B4365
:101620008366836EDB04DB0F04490320044CA04770
:1016300010BDC04604000020FFEFFFFFB4FE000015
:101640009D13000010B5044B5B685A605A6803494B
:101650000320034B984710BD04000020E8FE000063
:101660009D13000010B5324B1B689A6E120519D4F9
:10167000996E10220A439A66996E2E4A0A409A661B
:101680009A6E920602D59B6EDB0632D4284B1B68FD
:1016900040229A5C012A3ED0DA6827490320274B72
:1016A000984710BD996E264A0A409A66022100208A
:1016B000244B98471E4B1A68916E10230B43936678
:1016C000936E9B0602D5936EDB060AD4184B1A68FC
:1016D000916E184B0B4093661B490320174B98479C
:1016E000DFE71A481A4B98471A490320134B9847CB
:1016F000ECE71648164B984702210020114B9847FB
:101700000B4B1B68D9680020134B984711490320E5
:101710000A4B9847BAE70121623299540021053AF1
:10172000995204329954996E054A0A409A66B3E771
:1017300004000020FFF7FFFF74FF00009D1300006E
:10174000FFFDFFFFB99400005CFF0000840F002044
:10175000755C000018FF00000D94000070B50400D7
:101760000D0001222A4B1A7000202A4B9847001BBB
:10177000C317C0185840284B984224DD002D17D0BD
:10178000264B1B68DE682000254B9847012231005C
:10179000244B9847214B1B6840229A5C022A24D094
:1017A000002D2ED1220020490220204B984770BDE9
:1017B0001A4B1B68DE682000194B98470022310045
:1017C000184B9847E6E7154B1B68D9680020184B63
:1017D0009847002D04D021000020164B9847D9E7E8
:1017E00021000020144B9847D4E7996E134A0A4011
:1017F0009A66012164229954114903200B4B9847A2
:10180000CEE722000F490220084B9847CFE7C04699
:10181000A00B0020A9940000DC05000004000020BB
:10182000B1D400003D340000E0FF00009D13000033
:10183000FD9300002D9400003D940000FFFDFFFF8C
:10184000A0FF0000C4FF000010B5074C2368186219
:10185000186A0121054B984723681A6A0449032036
:10186000044B984710BDC046040000205D170000DF
:10187000FCFF00009D13000070B50020084B984746
:1018800002000404240C230006490320064DA84747
:1018900023001222012185204000044CA04770BD86
:1018A000A9940000280001009D1300009505000088
:1018B00010B500210020154B984700210020144B43
:1018C0009847144B1B68996E082291439966996E4C
:1018D000102291439966996E2022914399660122C4
:1018E0000D4B1A710D4B984760230D4AD35C002BAA
:1018F00004D10C4902200C4B984710BD0022064B26
:101900001A735120094B9847F3E7C0469994000099
:101910002D94000004000020E40B0020C9310000D9
:10192000080900206C0001009D130000195A0000F6
:1019300010B582B06B46DC1D0023237068220021A5
:101940000020264B984721000920254B9847254B1E
:101950001B78042B0DD0052B10D06B4607331B785A
:10196000DB0622D5204B02221A700C325A70022359
:101970000DE0852252001D4B1A60EEE70C22FF326B
:101980001A4B1A60E9E70021174AD1540133072B9B
:10199000F9DD154B1968154B1868154B9847154913
:1019A0000320154B984702B010BD0F4B02221A704E
:1019B0000D325A70022303E000210B4AD154013347
:1019C000072BF9DD084B1968084B1868084B984736
:1019D0000A490320084B9847E5E7C046FD990000F7
:1019E000F126000074090020900B0020B00B0020AD
:1019F00069050000880001009D130000AC00010093
:101A000010B50C0080B200222221094B98476822B1
:101A1000A35C01218B4307318B4306398B43023191
:101A20008B43A35403490320034B984710BDC04682
:101A3000FD990000D40001009D13000030B583B073
:101A40000C006B46DD1D00232B7029000920174B6D
:101A500098472B78DB0614D4682200210020144B11
:101A60009847FA22120121000020124B9847682261
:101A7000A35C02210B43A3540F48104B984703B0BB
:101A800030BD0F480D4B98476834637840221343AC
:101A90006370852040000B4B18600B4B04221A70BA
:101AA0000A325A701968094B9847E8E7F126000096
:101AB000FD990000C995000020010100A5A80000C3
:101AC000E8000100B00B0020900B00206905000029
:101AD00030B583B005000C006B46D91D00230B7098
:101AE00009201A4B98476834637840221343637087
:101AF000002D04D16B4607331B789B0615D4682252
:101B000000210020124B9847124B5968124A0020BE
:101B1000124B9847124A916E04230B439366114966
:101B20000320114B984703B030BD104903200E4BE2
:101B30009847852040000E4B18600E4B05221A7006
:101B400009325A7019680C4B9847ECE7F1260000EF
:101B5000FD9900000400002060F0FFFFC99500001F
:101B6000540D00207C0101009D1300004401010080
:101B7000B00B0020900B00206905000030B583B049
:101B80000C0015006821625C082002436254E26A7E
:101B90006261FA2189006160002B00D02561AA42B0
:101BA00019DA002B01D1521922616822002100208C
:101BB000194B9847626821000020184B98476368CA
:101BC00000932B00626916490320164DA847012394
:101BD000E37003B030BDAA421ADD002B01D1521BC5
:101BE00022616822002100200B4B984763685A420B
:101BF00021000020094B984763685B4200932B004B
:101C0000626907490320074DA8470123E370E0E715
:101C10000548064B9847DCE7FD990000C995000090
:101C2000A40101009D130000F0010100A5A800001F
:101C300070B500210020234B984700210020224B43
:101C4000984700210020214B98470024204B1C700E
:101C5000204B1C70204B1C70204D2B68996E10225D
:101C600091439966996E20229143996664229C540F
:101C7000996E1B4A0A409A6662229C5401210132E5
:101C80009954053A9C52996E164A0A409A66002069
:101C90000021154B186059601448154B9847154B97
:101CA0001C60154B1C602C680020144B9847606129
:101CB0002B6859690020124B984712490220124B99
:101CC000984770BDFD9300000D940000B99400008A
:101CD000EF080020780B0020A00B0020040000205B
:101CE000FFF7FFFFFFFBFFFFE0080020840F00204D
:101CF000B15C000020080020E00B0020A994000047
:101D00002D9400002C0201009D130000F8B5002165
:101D10000020214FB84700210020204B9847002188
:101D200000201F4EB04700241E4B1C701E4B1C7021
:101D30001E4B1C701E4D2B68996E102291439966A4
:101D4000996E20229143996600200021194B18605A
:101D500059601948194B9847194B1C60194B1C6066
:101D60002C680020184B984760612B685969002047
:101D7000164B984702210020B84703210020B047A6
:101D80002A68916E80231B010B4393661049022041
:101D9000104B9847F8BDC046FD9300000D9400001D
:101DA000B9940000EF080020780B0020A00B002061
:101DB00004000020E0080020840F0020B15C000037
:101DC00020080020E00B0020A99400002D940000C2
:101DD000400201009D13000070B5CB4B1B68073B10
:101DE000FF3B082B09D89B00C84AD3589F460022C6
:101DF000C74B1A70C748C84B9847C54B1B78002B78
:101E000004D1C64A1278042A00D1DBE0012B00D1AC
:101E1000D3E070BD0122BE4B1A70C148BE4B98473B
:101E2000EBE70022BA4B1A70BE48BB4B9847BE4B3B
:101E30001B689A6ED206E0D5B34A1279002A25D0E3
:101E4000012A3DD1996E1F320A439A669A6E920614
:101E5000D20F9B6EDB06DB0F134203D1B348AE4BB0
:101E60009847CAE70023B24A1360B24A1360B248E7
:101E7000B24B9847AC4C2368D9680020B04B9847C8
:101E80002368D9680020AF4B9847E7E7996E202276
:101E9000914399669A6E920602D59B6EDB0607D433
:101EA0000023A34A1360A34A1360A348A64B984794
:101EB00000210020A34B9847A448974B98479CE7E4
:101EC000A348954B984798E70122914B1A70A14877
:101ED000914B9847944B1B689A6ED20600D48CE7BE
:101EE000894A1279002A16D0012A24D1996E1F320C
:101EF0000A439A669A6E9206D20F9B6EDB06DB0F40
:101F0000134204D194490320944B984775E78A48BB
:101F10008A4B9847F6E7996E202291439966864846
:101F2000894B984700210020864B98478C49032015
:101F30008A4B984761E78B490320884B98475CE7B9
:101F4000764B1B78042B16D0052B00D055E7864B1B
:101F50001B78032B00D050E71020FF30834B186014
:101F6000834B03221A701968824B984782490320D9
:101F70007A4B984741E77C4A1278012AE4D1102035
:101F8000FF307A4B18607A4B1A701968794B984772
:101F90007A490320714B98472FE700225C4B1A7057
:101FA000774903206D4B984727E70122584B1A7059
:101FB00074490320694B98471FE7584B1B78052B42
:101FC00000D026E7504B1B790A2B00D921E79B0054
:101FD0006D4AD3589F464C4B5B791A2B38D89B00DF
:101FE0006A4AD3589F466A4B984712E7694B98470D
:101FF0000FE7454BD868684B98470AE700218020D7
:102000004002664B984704E73F4BD8680121634B79
:102010009847FEE63C4BD8680021604B9847F8E6AD
:10202000394BD8685E4B9847F3E6374BD8685D4B21
:102030009847EEE65C4B9847EBE65C4B9847E8E642
:102040005B4B9847E5E6304BD8685A4B9847E0E63B
:1020500059490320414B9847DBE62B4B5B79102B0A
:102060003ED89B00554AD3589F462F4B59680020B5
:10207000534B9847CDE6244BDA682B4B5968002028
:10208000504B9847C5E6204BDA68274B5968012327
:1020900000204D4CA047BCE61B4BDA68224B596828
:1020A00001230020484CA047B3E6174BDA681E4BCB
:1020B000596800230020444CA047AAE61A4B5968EF
:1020C0000020424B9847A4E6174B59680020404B2C
:1020D00098479EE6144B596800203E4B984798E677
:1020E0003D4903201D4B984793E6074B5B790D2B29
:1020F00000D998E09B00394AD3589F460A4B99680B
:1021000000202F4B984784E6080F002020FC000099
:10211000040F002054020100A5A80000740900204B
:1021200078020100A002010004000020D00201009A
:1021300020080020E00B0020840F0020755C0000C8
:10214000FD9300000D940000B15C00001803010035
:102150005C03010080030100B40301009D13000033
:10216000FC03010040040100D80B0020B00B00204C
:10217000900B002069050000B00401006804010014
:10218000FC0401002805010044FC000070FC000074
:1021900065160000311C0000811500005D1700006D
:1021A000CD1500004918000079180000B118000092
:1021B0000D1D00000916000054050100DCFC0000A4
:1021C000011A0000451600007D1B00003D1A0000AA
:1021D000D11A0000311900007C05010020FD00002B
:1021E000C84BDA68C84B99680020C84B984710E67E
:1021F000C44BDA68C44B996801230020C44CA04743
:1022000007E6C04BDA68C04B996801230020C04C38
:10221000A047FEE5BB4BDA68BB4B99680023002062
:10222000BB4CA047F5E5BB490320BB4B9847F0E505
:10223000B44B5B79032B05D3042B00D8E9E5102BB5
:1022400000D1E6E5B5490320B34B9847E1E5AD4B36
:102250005B79032B05D3042B00D8DAE5102B00D1D2
:10226000D7E5AF490320AC4B9847D2E5A54B5B7946
:102270000D2B2CD89B00AB4AD3589F46A24BD96854
:102280000120A94B9847C4E59E4BDA689E4BD9685C
:1022900001209E4B9847BCE59A4BDA689A4BD96867
:1022A000012301209A4CA047B3E5964BDA68964B80
:1022B000D96801230120964CA047AAE5914BDA6822
:1022C000914BD96800230120914CA047A1E5914989
:1022D0000320914B98479CE58A4B5B790D2B2CD8BA
:1022E0009B00924AD3589F46874B196900208E4B1A
:1022F00098478EE5834BDA68834B19690020834B3E
:10230000984786E57F4BDA687F4B196901230020E7
:102310007F4CA0477DE57B4BDA687B4B1969012335
:1023200000207B4CA04774E5764BDA68764B196940
:1023300000230020764CA0476BE576490320764BBE
:10234000984766E56F4B5B790D2B2CD89B00784A3C
:10235000D3589F466C4B59690120734B984758E5F9
:10236000684BDA68684B59690120684B984750E51B
:10237000644BDA68644B596901230120644CA0471F
:1023800047E5604BDA68604B596901230120604CD6
:10239000A0473EE55B4BDA685B4B5969002301209F
:1023A0005B4CA04735E55B4903205B4B984730E524
:1023B000544B5B79033BDAB2162A00D92CE1930027
:1023C0005C4AD3589F46504B1B68012240215A5407
:1023D00023315A5400215D32995204329954996E36
:1023E000554A0A409A66996E8022D2000A439A663C
:1023F00052490220484B98470BE5434B1B6800228B
:1024000040215A5422315A54996E4D4A0A409A66D4
:102410004C490220404B9847FBE43B4B1A68394B30
:1024200099895C23D152D25A92B2474902203A4B41
:102430009847EEE4344C2268916E80231B010B43D5
:102440009366424B9847226800214023D15440496B
:102450000220314B9847DCE42B4B1B68294AD26899
:102460001A65996E3B4A0A409A661A6D002A00D096
:102470007EE09A6ED20439D51A6D37490220264B78
:102480009847214D2C6801234022A3542332A354A2
:1024900000225D33E2520433E254A26E264B134015
:1024A000A366A26E8023DB001343A36600202B4BA0
:1024B0009847A0642B689B6EDB041DD52849022039
:1024C000154B9847104B1B685C229A5A92B2002A0F
:1024D00000D193E05C229A5A92B25C215A525A5A25
:1024E00092B2204903200C4B984792E41A6D1E4982
:1024F0000220094B9847C4E71C490220064B984725
:10250000E0E7C046080F0020040000204516000048
:102510007D1B0000A40501009D130000D4050100EF
:102520000006010058FD0000011A000090FD0000A7
:10253000C8FD000000FE0000FFFDFFFF2C060100AB
:10254000FFFBFFFF50060100740601000D1D000097
:1025500094060100FFF7FFFFB4060100A9940000F4
:102560000407010034080100DC06010038070100FF
:102570009A6ED2043CD51A6D2A4902202A4B9847FC
:102580002A4D2C6802224023E254A26E8023DB00F5
:102590001343A36600225E23E252A16E3E3B0B432F
:1025A000A36662230021E154A16E523B0B43A36654
:1025B000626500201E4B9847A0642B689A6E9206B5
:1025C00000D47FE79B6EDB0600D47BE719481A4BEB
:1025D000984702210020194B9847144B1B68D96873
:1025E0000020174B9847174903200F4B984769E77E
:1025F0001A6D154902200C4B9847C1E703226CE77E
:102600000A4B1B68114AD2689A659A6D10490220DC
:10261000054B9847FFF7FDFB0E490220024B9847F8
:10262000FFF7F7FB6C0701009D130000040000207A
:10263000A9940000840F0020755C0000B99400008C
:102640000D940000F0070100B0070100080F002002
:10265000600801008C0801000122014B5A7070478C
:102660007809002010B50CE00278084B9A62074BFD
:102670001B7E5B07FBD5054B9B6A0B70013101305C
:102680002200541EE4B2002AEED110BD0010004218
:10269000F0B583B000900E000192C027FF0508241A
:1026A0007C610120064DA8476B461A7931000098DD
:1026B000044B98470120A847BC61012003B0F0BD3E
:1026C000955800006526000000B583B00B2801D99D
:1026D00003B000BD01AB40221A70587099703D3AAA
:1026E00069461800014B9847F2E7C0469126000062
:1026F00030B583B00D000B2814D8002912D001ACDE
:102700004123237060700023A370032269462000D8
:10271000054B98476B469B782B702178627803486D
:10272000034CA04703B030BD91260000B80801005B
:10273000B1A7000010B582B0302100200C4CA0479A
:1027400000210620A04702210520A04730210120BA
:10275000A04730210220A0476B46D91D00230B70F3
:102760000820044B98470448044B984702B010BD1A
:10277000C9260000F1260000FC080100A5A8000001
:1027800070B5C024E4058025ED059823E5500120AF
:10279000064B98478023DB01E3619423E550044B0B
:1027A0001C68044B9847E06370BDC0467558000034
:1027B0000400002015920000F0B5CE46474680B5D3
:1027C00085B0CB4B1C68656AA36D230040339B8B9F
:1027D0009BB2002B03D12300403303229A830020B5
:1027E000C44B9847A36CC01AC317C01858402300A5
:1027F00040339B8BA26D5343984207D9BC4B1B6857
:102800009A6E920502D49B6EDB042AD5B84B1B68E6
:102810009A6E920507D5220062321278002A02D001
:102820009B6EDB042FD5B24B1B689A6E920502D5C6
:102830009A6ED20432D5AE4B1B689B6EDB0405D575
:10284000230062331B78002B00D19AE0230062330F
:102850001B78002B00D09DE005B00CBC904699463B
:10286000F0BD230040339A8BA36D5A43A249002048
:10287000A24B9847002302220A21A148A14EB0474B
:10288000A14B9847C2E7A14901209C4B9847984B20
:102890001A68916E9E4B0B409366C4E7996E9C4AF2
:1028A0000A409A660020934B984780462300633382
:1028B0001B78002B07D08E4B1B689A6E120502D432
:1028C0009B6EDB0437D58A4B1A68916E914B0B4097
:1028D0009366A66C43469E1BF317F6185E40A76DE1
:1028E000BB00DB19580064218B4B9847BE4230D99E
:1028F000F31B83422FD922004032D38B01339BB28A
:10290000D383928B92B2934229D323004033DA8B44
:1029100092B23B1A029601973F1800977F49012017
:10292000764EB047002301220A217548754EB04704
:10293000754B984713E02300633300221A70A0649C
:102940006064623401232370754903206B4B984700
:1029500082E7BB1BCDE7230040330022DA83A26C61
:1029600043469A1AD317D2185A406E490320634B34
:1029700098474346A36463640122230062331A70BC
:1029800059E70122230062331A700020594B9847FF
:1029900060645BE70020574B98470600236D002BCF
:1029A00032D1636CC31ADA179B1853409D4200D989
:1029B00052E75D4B984722004032138C01339BB2A3
:1029C00013840022230062331A70494B1B689B6EEC
:1029D000DB040CD5636C626CB21AD11752184A40F2
:1029E0000092320051490320444CA04734E7636C05
:1029F000626CB21AD11752184A40009232004C4908
:102A000003203E4CA04727E7636CC31ADA179B18D4
:102A100053409D4200D91FE7636D01336365226D0A
:102A200093422ED2404B98470022230062331A7003
:102A30002F4B1B689B6EDB0411D5626D236D3D49E6
:102A400003202E4DA847636C626CB21AD11752183E
:102A50004A400092320035490320A847FCE6626DE7
:102A6000236D35490320254DA847636C626CB21A6B
:102A7000D11752184A40009232002D490320A8472E
:102A8000EAE6214B9847284B9847194B1B689B6EE9
:102A9000DB0426D5626D236D28490320174DA84716
:102AA000134B1A68916E264B0B40936622006232DC
:102AB000002313704022A35463650D4B1B68996E6D
:102AC000204A0A409A66996E802212010A439A6649
:102AD000996E202291439966996E102291439966CE
:102AE000BAE6626D236D18490320044DA847DDE75F
:102AF00004000020A99400000C0901009D130000AF
:102B000002040000950500000D1D00006809010089
:102B1000FFFDFFFFFFF7FFFF556B0000D809010025
:102B2000A8090100180A010081270000400A0100DD
:102B3000800A0100C00A0100E80A0100100B010030
:102B4000FFEFFFFFFFFBFFFF500B010010B50E4B27
:102B50001B689A6E120513D440229A5CD2B2012AE5
:102B60000CD0022A0DD09A6E920509D5DA6C01328A
:102B7000DA64996E054A0A409A6601E0044B984768
:102B800010BD034B9847FBE704000020FFFDFFFF4B
:102B9000B927000010B52A4B1B79002B00D110BDBE
:102BA0003220284B98475120274B9847002100207E
:102BB000264B984700210020254B98470020254BA5
:102BC000984701000020244B984700200021234B08
:102BD0001860596000210020214B98470023214AAA
:102BE0001370214A1370164A1371204B1A78042A65
:102BF00006D893001E4AD3589F461E481E4B98473E
:102C0000852040001D4B18601D4B01221A701032A8
:102C10005A7019681B4B98471B48174B9847BEE7DB
:102C20001A48154B9847EBE71948134B9847E7E7C5
:102C30001848114B9847E3E717480F4B9847DFE7D1
:102C4000E40B002095580000295A0000B9940000B8
:102C500099940000A99400002D940000E008002041
:102C6000FD930000780B0020EF080020740900207D
:102C7000900B0100C40B0100A5A80000B00B0020C0
:102C8000900B002069050000AC0C0100F00B010066
:102C90001C0C0100480C0100740C010070B5074BBE
:102CA0001C68A26E8025AD0013002B43A366044B65
:102CB0009847A063C023DB05DD6170BD04000020E0
:102CC0001592000070B504001F4E32005C211F4DAC
:102CD000A84732005D212000A8471D4EB2685E2142
:102CE0002000A84732225F212000A847002260214F
:102CF0002000A847174A61212000A847164A6221F0
:102D00002000A847032252212000A8470922502171
:102D10002000A847092251212000A847328AB18902
:102D200020000E4B9847328BB18A20000C4B9847FD
:102D3000328CB18B20000B4B9847328DB18C200028
:102D4000094B984770BDC046FF7F0000CD92000040
:102D50000809002001000080FFFFFF7FF9940000B8
:102D60000D950000219500003595000070B5050017
:102D70003E4A1B213E4CA047002217212800A047B5
:102D80003C4A18212800A0473B4A19212800A047A7
:102D900007221A212800A047384A0A210020A0470C
:102DA000374A04210020A0478026B60532000521BD
:102DB0000020A047320006210020A047314A072109
:102DC0000020A047304A09210020A0472F4A0821AF
:102DD0000020A04700221F212800A0470022202118
:102DE0002800A047002221212800A04700222321FB
:102DF0002800A047022252212800A0470822632170
:102E00002800A047002229210020A04701225221AA
:102E10000020A04700221C210020A047FA22120116
:102E200024210020A047FA208000194B9847194E12
:102E300032005C212800A04732005D212800A04715
:102E4000154B9A685E212800A047002260212800C7
:102E5000A047124A61212800A047114A6221280098
:102E6000A04703226D210020A04770BD3200020060
:102E7000CD9200009F0F00001919000000010018FA
:102E8000100010004E014E0197814100C5814100A4
:102E900095580000FF7F0000080900200100008015
:102EA000FFFFFF7F70B5040000221A214C4DA84798
:102EB00000221B212000A847002217212000A8473C
:102EC000002218212000A847002219212000A8472D
:102ED00000220A212000A847002204212000A84740
:102EE000002205212000A847002206212000A84733
:102EF000002207212000A847002209212000A8471E
:102F0000002208212000A84700221F212000A847F6
:102F1000002220212000A847002221212000A847CC
:102F2000002223212000A847002252212000A84788
:102F3000002263212000A847002224212000A84766
:102F4000002226212000A847002227210020A84790
:102F500000225C212000A84700225D212000A84714
:102F600000225E212000A84700225F212000A84700
:102F7000002266212000A847002261212000A847E6
:102F8000002262212000A847002252212000A847E9
:102F9000002250212000A847002251212000A847EC
:102FA000002263212000A847002268212000A847B2
:102FB00000226B212000A847002260212000A847A2
:102FC000002200212000074B98470022002120000A
:102FD000054B9847002200212000044B984770BD04
:102FE000CD920000D9940000219500003595000095
:102FF000F0B5C64600B582B005000E00594CA08859
:10300000594FB84700230122292101952800574D27
:10301000A8470123002252210198A847002301223A
:1030200024210198A847330000222421019E30006A
:10303000A847002300221C213000A847FA204000A6
:10304000B8474B4F4B4E3A680F2130684A4DA8475E
:10305000E0653A6830681021A847002834D1802301
:103060005B019846424F434E3A6811213068424D09
:10307000A8473C4B98653A6830681221A847002859
:1030800025D180256D013D4B1B78012B38D0002BBD
:103090001FD0022B4BD0042B55D000222721019C9E
:1030A0002000374DA847002252212000A847FA20CF
:1030B00040002D4B984701222A212000314B984790
:1030C00002B004BC9046F0BD00239846CAE7002534
:1030D000D9E7424625210020294EB047214FFA6DFD
:1030E00026210198B0472A002C210020B047BA6D54
:1030F0002D210020B04700222E210020B047CCE730
:103100004246252100201E4EB047164FFA6D26215B
:103110000198B0472A002C210020B047BA6D2D211C
:103120000020B04700222E210020B047B5E70D4B0C
:10313000DA6D2621019C2000114DA8474246252129
:103140002000A847A9E70822434613431A00252177
:1031500000200B4DA847034BDA6D26210198A847A4
:103160009BE7C0460809002095580000899300009D
:10317000200000201C000020694A00007409002083
:10318000CD9200006993000070B5082263210020F1
:103190000B4CA04700221F210020A047094D2A68A0
:1031A00020210020A0476A6821210020A047AA68AA
:1031B00024210020A047022252210020A04770BDF8
:1031C000CD920000F408002010B58021490098231A
:1031D000C022D205D150FD390020174B98476023FB
:1031E000164AD35C002B03D10022154B5A7210BD36
:1031F00000200021134B1860596000226321002039
:10320000114B984700210020104CA0470C4B002286
:103210005A725A611A61002100200D4B98470D49DE
:1032200000200D4B9847054BD96A0020A047032189
:103230000020014B9847DAE7B99400000809002004
:10324000E40B0020E0080020CD920000FD93000078
:10325000999400006A0401003D94000030B583B0E9
:103260000023574A53706A46D41DD37121000720AA
:10327000544B98472378002B01D103B030BD5249FD
:103280000320524B9847524B5C689D686923E35C6E
:103290005B064AD46923EB5C5B064BD40024002C0C
:1032A0004ED0474D29000820464B984749490320F6
:1032B000464B9847012363702B785A064AD52378EA
:1032C000032B42D0072B40D0052B3ED000222221D9
:1032D0000120414B9847414903203C4B98476823C4
:1032E000E35C9B07C9D56822A35C02218B43A354EE
:1032F00020003B4B9847E36AA3613A4B1A68916EF2
:10330000394B0B40936685204000384B1860384B92
:1033100004221A700A325A701968364B9847A2690B
:1033200035490320294B9847A7E734490320274B09
:103330009847B4E731490320244B98472C00AEE767
:103340002F490120214B9847ABE72E4900201F4B06
:10335000984792E7DB0900D18FE700222221012064
:103360001D4B98471D490320184B98476823E35C81
:103370005B0700D481E76822A35C04218B43A3543C
:103380002000174B98470023E3622363E361220088
:103390006832537840218B43537085204000134B93
:1033A0001860134B05221A7009325A701968114BB4
:1033B0009847A26910490320044B98475DE7C0462F
:1033C00078090020F1260000600D01009D13000027
:1033D00078050020C80D0100FD990000340E0100A1
:1033E0001996000008000020FFBFFFFFB00B00206F
:1033F000900B0020690500007C0E0100780D010093
:10340000940D0100FC0D010010B507495420074C34
:10341000A04707495120A04706493520A047064943
:103420003720A04710BDC0469D2C00002D5900003C
:10343000952B0000592600004995000070B5051C29
:103440000C001600002200231E490A604B601E4932
:103450000A604B60002100201C4B9847002E28D0AA
:10346000281C1B4B9847010000201A4B98471A4B09
:103470001C601A481A4B984703210020194B9847A3
:103480000022194B1A700132184B1A70184B1B7915
:10349000002B07D1A333174AD35C002B02D10122A2
:1034A000154B1A701548164B98471648164B9847F7
:1034B00070BD281C064B984701000020134B98470D
:1034C000D5E7C04610080020A80B0020FD9300009F
:1034D00071D400002D9400003C0C002080090020D5
:1034E000498F0000B994000029080020780B0020C3
:1034F000E40B002030080020A00B0020840F0020E7
:10350000B15C0000F00F0020755C00003D940000ED
:10351000F0B5DE4657464E464546E0B593B0CF4B34
:103520009B78002B06D113B03CBC90469946A2462E
:10353000AB46F0BD0022C94B9A700020C84B98479B
:1035400000280AD00020C74B9847C74B1A78072A93
:10355000E9D89300C54AD3589F460321C44B9847E6
:10356000F0E70020BF4B9847BC4DAE69EF69C14CF6
:10357000A04732003B00C04EB047C04B9847C3172E
:10358000C01858402E6F6F6FA047012432003B00D7
:10359000BB4DA847002800D10024E4B2002C41D044
:1035A000012CC0D1AD4B3133FF3318685968B54B8E
:1035B0009847B54B1C685D6822002B00B34EB0479E
:1035C000002811D0B24B1A6D5B6DB24E200029005D
:1035D000B04702000B00AC490A604B60AE4C20685B
:1035E0006168B04720606160AC4CAB4B1A685B68A7
:1035F00022606360994BF83318685968A14B98476B
:103600006568246822002B00A04EB047002800D136
:1036100089E720002900994B984701000020A04B22
:10362000984780E700208F4B98478C4DAE69EF6933
:10363000904B9A469847904C32003B00A0478F4BE6
:1036400098469847C217831853402E6F6F6F0B939D
:103650001800D04732003B00A047EC246400C0476C
:103660002851F8229246AA44524610685168854A69
:1036700090469047884B186059602A6F6B6F0C9288
:103680000D930022874B804908684968864EB047F1
:103690000E900F912E003136FF3630687168C047AA
:1036A00006000F000020814B98478346514608686A
:1036B0004968C0472C590894069007915C460494C9
:1036C000029603970E980F99009001910C9A0D9B0A
:1036D0000B997748774CA047AA23FF33EA5C002375
:1036E000012191425B41DBB2911E4D424D41D01E02
:1036F00041424141C8B22B430AD1002808D1043AC3
:10370000D2B2012A00D90EE70122574B1A700AE7FC
:103710000222554B1A7006E70020524B98474F4D36
:10372000AE69EF69534CA04732003B00524EB047A0
:10373000524B9847C317C0185840AE6FEF6FA04761
:10374000012432003B004E4DA847002800D1002440
:10375000E4B2002C25D0012C00D0E4E63F4B01332D
:10376000FF3318685968474B98474C4B1A685B6899
:10377000464CA047002800D1D5E6474C424B1A687A
:103780005B6820686168434DA84720606160434BD7
:1037900018605960394B984701000020404B98470A
:1037A000C1E600202F4B98472C4DAE69EF69314B95
:1037B0009A469847304C32003B00A0472F4B984622
:1037C0009847C21783185340AE6FEF6F0B931800E2
:1037D000D04732003B00A047EC246400C04728518A
:1037E0006A1CFF32924610685168264A90469047FC
:1037F000294B18605960AA6FEB6F0C920D93002251
:10380000284B214908684968274EB0470E900F9110
:103810002E003936FF3630687168C04706000F0049
:103820000020224B98478346514608684968C047A4
:103830002C590894069007915C46049402960397CD
:103840000E980F99009001910C9A0D9B0B991A48B4
:10385000184CA0470222044B1A7064E6800900202D
:10386000C9940000A994000029080020A40B0100BD
:10387000B994000039F0000065E90000D1EF0000C4
:10388000D1CC0000C5050000A80B00200DCD000024
:1038900008090020DDD5000010080020700B002072
:1038A000FD93000000408F4065E40000ED930000B0
:1038B000E80E0100B1A700001C0F01000020C14B61
:1038C0009847C14CA669E769C04DA84732003B0044
:1038D000BF4EB047BF4B9847C317C01858408034FD
:1038E00026686768A847012432003B00BA4DA84704
:1038F000002800D10024E4B2002C44D0012C00D0D8
:1039000011E6B14B4133FF3318685968B34B984700
:10391000B34B1C685D6822002B00B24EB0470028F4
:1039200012D0B14B1A6D5B6D20002900A84CA04746
:1039300002000B00AA490A604B60AC4C2068616829
:10394000AB4DA84720606160AA4CA84B1A685B6821
:10395000226063609C4B0933FF33186859689F4BA2
:1039600098476568246822002B00A34EB0470028C2
:1039700000D1D8E520002900964B9847010000208F
:103980009E4B9847CFE500208E4B98478E4CA669FA
:10399000E7698E4B9A4698478D4D32003B00A84709
:1039A0008C4B9B469847C217831853408022904601
:1039B000A0444246166857680B931800D04732005F
:1039C0003B00A847EC235B009946D8474B46E050A4
:1039D000842252009246A2445246106851687F4E9B
:1039E000B047824B186059604246536812680C9287
:1039F0000D937B4F0022824B38687968814DA84730
:103A00001090119123004133FF3318685968B04773
:103A10000E900F9100207C4B9847804651460868D5
:103A20004968B0474B46E6580896069007914646C7
:103A300004960E9D0F9E0295039610981199009082
:103A400001910C9A0D9B0B997048714DA84700226B
:103A500000233A607B60AA23FF33E35C594259415B
:103A60009A1E5442544121431A1F54425441E2B217
:103A7000002915D1002A13D15A1E54425441D91E8F
:103A80004A424A412243053B58425841C3B2002AA8
:103A900002D1002B00D146E504225E4B1A7042E5AC
:103AA00003225C4B1A703EE50020464B9847464C7B
:103AB000A669E769454DA84732003B00444EB04730
:103AC000444B9847C317C018584088342668676825
:103AD000A847012432003B003F4DA847002800D1F1
:103AE0000024E4B2002C08D0012C00D01BE50020FB
:103AF00000213B4B1860596015E50020314B984779
:103B0000314DAE69EF69314B9A469847304C3200DF
:103B10003B00A0472F4B9B469847C2178318534042
:103B200088229146A9444A46166857680B931800A4
:103B3000D04732003B00A047EC246400D84728510E
:103B4000882252009346AB445A4610685168234A73
:103B500090469047254B186059604A465368126852
:103B60000C920D930022264B1D4908684968254E8A
:103B7000B0470E900F912E004936FF3630687168BD
:103B8000C04706000F0000201F4B9847814659464A
:103B900008684968C0472C590894069007914C461C
:103BA0000494029603970E980F99009001910C9A35
:103BB0000D9B0B991848164CA0470422154B1A7000
:103BC000B1E4C046A99400008009002039F000004B
:103BD00065E90000D1EF0000D1CC0000C505000070
:103BE000A80B0020E5CC00000809002010080020E8
:103BF000DDD50000700B00200DCD0000FD9300000E
:103C000000408F4065E40000ED930000500F01007C
:103C1000B1A7000029080020840F01000020CB4B31
:103C20009847CB4CA669E769CA4DA84732003B00CC
:103C3000C94EB047C94B9847C317C0185840903475
:103C400026686768A847012432003B00C44DA84796
:103C5000002800D10024E4B2002C46D0012C00D072
:103C600061E4BB4B5133FF3318685968BD4B98472B
:103C7000BD4B1C685D6822002B00BC4EB04700287D
:103C800012D0BB4B1A6D5B6D20002900B24CA047CF
:103C900002000B00B4490A604B60B64C20686168B2
:103CA000B54DA84720606160B44CB24B1A685B68A0
:103CB00022606360A64B1933FF3318685968A94B1B
:103CC00098476568246822002B00A84EB04700285A
:103CD00001D1FFF728FC20002900A04B98470100E4
:103CE0000020A74B9847FFF71EFC0020974B9847F2
:103CF000974DAE69EF69974B9A469847964C3200BC
:103D00003B00A047954B9B469847C21783185340EA
:103D100090229146A9444A46166857680B931800AA
:103D2000D04732003B00A047EC246400D84728511C
:103D30008C2252009346AB445A4610685168894A17
:103D4000904690478B4B186059604A4653681268FA
:103D50000C920D9300228B4B8349086849688A4E68
:103D6000B0470E900F912E005136FF3630687168C3
:103D7000C04706000F000020844B984781465946F3
:103D800008684968C0472C590894069007914C462A
:103D90000494029603970E980F99009001910C9A43
:103DA0000D9B0B997A487B4CA047AA23FF33EA5C12
:103DB0000023012191425B41DBB2911E4D424D41F6
:103DC000D01E41424141C8B22B430CD100280AD138
:103DD000043AD2B2012A01D9FFF7A5FB05226E4BA6
:103DE0001A70FFF7A0FB06226B4B1A70FFF79BFBC4
:103DF0000020564B9847564CA669E769554DA84791
:103E000032003B00544EB047544B9847C317C0187C
:103E10005840983426686768A847012432003B0060
:103E20004F4DA847002800D10024E4B2002C28D030
:103E3000012C01D0FFF777FB454B2133FF33186886
:103E40005968484B98474D4B1A685B68474CA047E8
:103E5000002801D1FFF767FB464C434B1A685B68AB
:103E600020686168444DA84720606160434B18603A
:103E700059603A4B984701000020414B9847FFF7A3
:103E800052FB0020314B9847314DAE69EF69314B01
:103E90009A469847304C32003B00A0472F4B9B4638
:103EA0009847C2178318534098229146A9444A461E
:103EB000166857680B931800D04732003B00A047A4
:103EC000EC246400D8472851902252009346AB441A
:103ED0005A4610685168234A90469047254B18600F
:103EE00059604A46536812680C920D930022254B84
:103EF0001D4908684968244EB0470E900F912E0066
:103F00005936FF3630687168C04706000F00002040
:103F10001E4B98478146594608684968C0472C5946
:103F20000894069007914C460494029603970E98C5
:103F30000F99009001910C9A0D9B0B991748154C05
:103F4000A0470622144B1A70FFF7EDFAA99400005F
:103F50008009002039F0000065E90000D1EF000081
:103F6000D1CC0000C5050000A80B0020E5CC000066
:103F70000809002010080020DDD50000700B00208B
:103F8000FD93000000408F4065E40000ED930000C9
:103F9000B80F0100B1A7000029080020EC0F0100B4
:103FA0000020AE4B9847AE4DAE69EF69AD4CA047CF
:103FB00032003B00AC4EB047AC4B9847C317C0181B
:103FC0005840AE6DEF6DA047012432003B00A84D74
:103FD000A847002800D10024E4B2002C34D0012CE2
:103FE00001D0FFF7A0FAA34B1B78002B25D0A24BE2
:103FF000186859680022A14BA14CA047002801D1A4
:10400000FFF791FA9F4B186D596D9F4C9F4D226899
:104010006368A847206061609D4C22686368A84778
:1040200020606160944B18605960904B9847010084
:104030000020984B9847FFF776FA9748974B984798
:1040400001228C4B1A70D2E70020844B9847844D94
:10405000AE69EF69834B9A469847834B9946320085
:104060003B00C847814CA047C21783185340A02289
:104070009046A8444246166857680B931800D047EC
:1040800032003B00C847EC277F00A047E85194224C
:1040900052009346AB445A4610685168804CA04782
:1040A0007B4B186059604246536812680C920D931E
:1040B00000227C4B7449086849687B4EB0471090D9
:1040C00011912E006136FF3630687168A0470E905E
:1040D0000F910020754B984706005B461868596899
:1040E000A047EC5908940690079104960E990F9AF0
:1040F0000291039210981199009001910C9A0D9BD6
:104100000B996B486B4CA0470023EB516A4B1B7813
:10411000013BDBB2012B07D96848694B98476748D8
:10412000674B9847FFF7FFF90722664B1A70F6E7CF
:10413000614B1B78012B17D0022B01D0FFF7F3F94D
:104140000020614B98474F4B5C6B604B1C60604B91
:104150001B78012B41D0002B1FD0022B5DD00122F8
:10416000554B1A70FFF7DFF90020574B9847454B26
:10417000596B564B1960574B1B78002B08D0012206
:104180005548564B984702224B4B1A70FFF7CBF914
:1041900001225348514B9847F5E74E4B1B78002BB3
:1041A0000FD0504B186A504DA8475049504B984774
:1041B000504B98474042A84701222100474B98475F
:1041C000CDE7484B186A484B98474849484B9847B1
:1041D00000222100414B9847C1E73E4B1B78002B42
:1041E0000FD0404B186A404DA8474349404B984771
:1041F000404B98474042A84701222100374B98473F
:10420000ADE7384B186A384B98473B49384B9847CD
:1042100000222100314B9847A1E72E4B1B78002B41
:104220000FD0304B186A304DA8473049304B984773
:10423000304B98474042A84701222100274B98471E
:104240008DE7284B186A284B98472849284B9847F0
:1042500000222100214B984781E7C046A994000025
:104260008009002039F0000065E90000D1EF00006E
:10427000D1CC000084050020700B002000002440F9
:10428000F9CC000008090020A80B0020DDD50000B3
:1042900010080020FD93000020100100A5A80000D8
:1042A000C505000000408F4065E40000ED9300006C
:1042B00028100100B1A70000F1080020F00F002035
:1042C000B15C000029080020955800003C0C00203B
:1042D0007409002002090020004021C63D3400007E
:1042E00085422146E40B0020B1D4000026934947C3
:1042F00039D1000071D400002693C94710B5364B60
:104300001B6840229A5C022A10D00020334B984749
:10431000C317C0185840182803DC314A136801330A
:1043200013602F4B1B68312B0BD810BD62329B5C86
:10433000002BEAD02B4B98472B4B1B78002BE4D15A
:10434000F3E70024264B1C600020244B9847274BA2
:104350001860254B1C70264B1C70264B1C70A1232B
:10436000254AD4541C4B1B6840229A5C022A16D062
:1043700085204000214B1860214B01221A70103219
:104380005A7019681F4B98471F48204B9847204B7D
:104390001B78022B15D01F481F4B9847C5E7623288
:1043A0009A5C002AE4D0002264215A5424395A54D9
:1043B000996E1A4A0A409A6619490320194B984780
:1043C000D6E70422184B1A701248184B984701225E
:1043D000074B1A70A9E7C04604000020799400003A
:1043E000340C00204D2B0000A00B0020DC08002026
:1043F000780B0020EF08002030080020B00B0020D0
:10440000900B00206905000094100100A5A8000091
:10441000F1080020F00F0020B15C0000FFFBFFFF5F
:104420005C1001009D130000880B0020755C0000EB
:10443000F0B5CE46474680B583B0574A137802217F
:104440008B431370554B1B68002B5BD00020544BE3
:1044500098470600514B1B68DC680020514B984779
:1044600005000020504B9847022803D0022100206D
:104470004E4B98474E4B9847484B1B689A6E5205D7
:1044800002D59B6EDB0442D5444B1B685A6A002A56
:1044900012D0484A5278002A0ED09A6E52050BD498
:1044A000444A5268521BD11752184A40596A8A42EC
:1044B00002D39B6EDB042DD43E4B5B78002B41D0A6
:1044C000A64250DD20003C4B98473A4B9C68211C8B
:1044D0003A4B984700280DD0394B1E6C5F6C201C5E
:1044E000384B984732003B00374CA047374B984732
:1044F000304B98602F4B9868354B9847010000204F
:10450000344B984703B00CBC90469946F0BD324BF3
:104510009847B9E7314B9847314B1A6801321A6016
:10452000244B99465B685B1B1C490968496AD8178C
:104530001B18434000912B4903202B4FB8474B4693
:104540005D60B9E71B4D30001B4B9847A860002009
:10455000144B98476860FA2189000020234B984744
:1045600001236B70ACE72000134B9847114B9C68FC
:10457000211C1F4B98470028BCD0114B1E6C5F6C50
:10458000201C104B984732003B001A4CA0470F4BA1
:104590009847084B9860ADE71C0C002004000020F1
:1045A0001D940000A9940000C9940000B994000073
:1045B0001592000084050020B1D4000045CD000014
:1045C000080900202DF1000065E90000D1F100008C
:1045D00071D400000D9400004D2B000081270000D5
:1045E00020080020F41001009D130000FD9300003E
:1045F0006DCD0000DDD5000010B50CE00278084B51
:104600009A62074B1B7E5B07FBD5054B9B6A0B70C1
:10461000013101302200541EE4B2002AEED110BD57
:104620000004004210B50CE00278084B9A62074B78
:104630001B7E5B07FBD5054B9B6A0B70013101307C
:104640002200541EE4B2002AEED110BD0010004238
:1046500070B5C024E40580256D039423E550D2B2E3
:10466000024B98479823E550012070BD2546000075
:1046700010B582B0040001A8052303700023437025
:10468000837003220449054B9847002802D0024B4F
:104690005B78237002B010BD9005002051460000E9
:1046A00010B582B06B46DC1D2000044B9847237880
:1046B000DB07F7D4002002B010BDC04671460000F1
:1046C00000B583B001A80623037001220449054BFD
:1046D0009847002802D0002003B000BD0338FBE754
:1046E000900500205146000000B583B001A89F232B
:1046F0000370002343708370C37004220649074B84
:104700009847002805D0044A5178054B1972D27891
:104710005A7203B000BDC04690050020514600000B
:104720009006002010B50E4B9847002817D00D4A70
:104730000D4BDA60002203E008330B49CB600132F5
:10474000052A0BD8084B1C7ADB6819798C42F3D107
:1047500005494C7A59798C42EED100E0002010BD19
:10476000E9460000081101009006002000B583B062
:10477000044B9847002801D103B000BD01A8024BAB
:104780009847F9E7254700007146000070B582B0F0
:1047900004000D0016000F4B9847002803D000249A
:1047A000200002B070BD01A803230370230C4370E6
:1047B000230A8370C4702A1D92B20749074B984799
:1047C000041EEDD02A00044904313000044B984700
:1047D000E6E7C046A14600009005002051460000D3
:1047E000AD9E0000F0B5DE4657464E46C0B582B0DD
:1047F00005000F00160021E001A8022303702B0C16
:1048000043702B0A8370C5702D193F1BC023DB0535
:10481000994680235B039A4694234A465146D150D9
:1048200004221549154B9B469847E2B212493000C5
:10483000D84798234A465146D1503619002F10D0F8
:104840000F4B9847002813D10E4B9847002811D1E1
:10485000FF242C4080235B001C1BA742CCD23C00D1
:10486000CAE7012002B01CBC91469A46A346F0BD9F
:104870000020F7E70020F5E790050020254600001E
:10488000A1460000C1460000F0B583B00C1E5AD00E
:10489000002803D1802149002C4B19606B46D87148
:1048A000073369468A71294A10681A000121284B8A
:1048B0009847002802D1022003B0F0BD6B46DA7998
:1048C000224D130029682348234EB0472B68581CFB
:1048D00028606B469A1D01211D4B9847002801D185
:1048E0000220E9E76B469E1D9A79184D130029684E
:1048F0001A48194FB8472B68581C28603178220095
:10490000134B9847002801D10220D5E76B469D79CB
:104910006B1EDBB2002205E0E15CD80081400A4357
:10492000013BDBB2AB42F7D3084C130021680C48C3
:10493000094DA8476B4606331B78226894466344AA
:1049400023600020B8E70120B6E7C046600B0020D6
:10495000E547000038110100B1A700007011010007
:10496000A8110100F0B583B006000C00171E69D035
:10497000002969D000251B2D5FD8354B186822000F
:104980000121344B9847002860D02378B3421CD0D3
:104990002F4B1A68501C1860621C01212D4B984740
:1049A0002378FF2B2CD06378FF2B29D0284802686E
:1049B0009446634401330360A21C0023A370617812
:1049C0000068244B98470135D5E7214D2B683B60A3
:1049D00001233B712B68581C2860621C01211D4E6D
:1049E000B0472B6801332B60A71C0422002138003C
:1049F000194B9847617828683A00B04700201FE0BB
:104A00001648174B9847124B1A680223FF339A42F5
:104A100001D0052014E0802252000D4B1A600025C1
:104A20000195FC3A01A900200E4CA04701950222F5
:104A300001A90120A047052002E000233B710520C9
:104A400003B0F0BD0120FBE70120F9E70320F7E701
:104A5000600B00208D470000BF9E0000E4110100A4
:104A6000A5A800008948000070B584B004000800C3
:104A70001500002C36D0002A36D0802252001B4B65
:104A80001A602A0021001A4B9847002806D1194BBA
:104A90001B685E78731EDBB200200FE000232370DA
:104AA0006370A370E37023716371A36016E0E21872
:104AB0009278D9008A401043013BDBB2B342F6D36F
:104AC000A060217863780290019000930A000A4860
:104AD0000A4EB0472B79002B02D1032004B070BDE1
:104AE000A068FBE70120F9E70120F7E7600B002051
:104AF000654900001C00002090120100B1A70000D1
:104B0000FEE7000010B5104A104B9A4209D00F4B37
:104B10000D4A03E011681960043304320C498B42DA
:104B2000F8D30C4B02E000221A6004330A4A934285
:104B3000F9D30A4AFF210A4B8B439360094B9847EC
:104B4000094B9847FEE7C0464823010000000020BB
:104B50004802002050020020D413002000ED00E0A5
:104B600000000000659E0000617D000010B5094A4C
:104B7000D1698023DB010B43D3614121FC23064A29
:104B8000D150064B9847020005490648064B984706
:104B900010BDC04600080040001C0040E17B000042
:104BA00000380042840F0020315C000010B5094A33
:104BB000D16980235B020B43D361412180235B00D9
:104BC000054AD150054B9847020005490548064B58
:104BD000984710BD00080040001C0040E17B000029
:104BE00000400042F00F0020315C000002218223CF
:104BF0005B00C022D205D1508222D20524330B495A
:104C0000D150C0210906D1504221FF31535C01200F
:104C100083430343DBB253541139535C0F200340E9
:104C200010200343DBB253547047C04602000040DB
:104C3000054AD16980239B020B43D3614021822323
:104C40005B00024AD150704700080040001C004041
:104C500010B5064B9847064B9847064B98470200FD
:104C600005490648064B984710BDC046314C000028
:104C7000ED4B0000D565000000440042800F00208D
:104C8000B1550000F0B5DE4657464E464546E0B504
:104C900083B0412188238D4AD1508D4A51698023A8
:104CA000DB000B435361C026F60580239B029B4625
:104CB00073608223DB05874D9D62874A9A62512784
:104CC000DA5D04208243DA55DC5D01218C43012248
:104CD0001443E4B2DC55193FDC5D0E3291461440BA
:104CE000DC558022D20272609D627C4A9A621A3739
:104CF000DC5D8443DC55DC5D8C4301221443E4B26B
:104D0000DC55193FDC5D4A469443DC55802424037E
:104D100074609D62724C9C62443290469C5C8443F9
:104D20009C549C5C8C43523A1443E4B242469C54DB
:104D3000DC5D4A461440DC55753292468024A4035B
:104D4000B4506F37DD51674ADA51D52290469C5CEA
:104D500084439C549C5C8C43D43A1443E4B2424652
:104D60009C541B3A90469C5C4A46144042469C54D4
:104D7000802424045246B450DD515B4CDC512F3763
:104D8000DC5D8443DC55DC5D8C43833A1443E4B240
:104D9000DC551C3FDC5D4A461440DC55F53290463C
:104DA00080246402B450942464001D514F4F1F515D
:104DB0004C3292469F5C87439F549F5C8F43503A8E
:104DC000FF3A1743FFB252469F54183A9A5C4F4637
:104DD000BA432A37FF37DA5542465F46B7501D516E
:104DE0003D4A1A515222FF3293469A5C82439246C0
:104DF0005A4657469F549A5C8A4301273A436F4666
:104E0000FA71FA7992465A4657469F54193A9A5C73
:104E10004F463A402A37FF37DA5542468027FF028D
:104E2000B7501D512D4A1A51A922520092469F5C3B
:104E300087439F549F5C8F43523AFF3A1743FFB218
:104E400052469F543A22FF3292469F5C4A4697430D
:104E500052469F5480277F034246B7501D51244F2E
:104E60001F51503292469F5C87439F549F5C8F43F3
:104E7000543AFF3A1743FFB252469F541A3A9346A8
:104E80009A5C4F46BA435F46DA5542468027BF03D5
:104E9000B7501D51134A1A515624FF341D5D8543E6
:104EA0001D55185D884301220243D2B21A555A4655
:104EB0009A5C49460A4059465A540E4B984703B0EB
:104EC0003CBC90469946A246AB46F0BD001C004053
:104ED0000008004000000240020002C0040002C0BE
:104EE000080002C0200002C0800002C0010002C011
:104EF000100002C0F9580000F0B5C64600B5C02247
:104F0000D2051023536193608223DB052449996203
:104F1000C02109068C4699624420195C0127B943D7
:104F200001263143C9B219543221585C0F25A843D8
:104F30000324A04644462043C0B258542020506168
:104F40009060184898626046986245208446185CD4
:104F5000B8433043C0B264461855585C363C2040D4
:104F60003024A44664462043C0B258540E315160E8
:104F70000D4A9A620D4A9A624622995C0420814346
:104F80009954995CB9433143C9B2995433215A5C5D
:104F9000AA4340460243D2B25A5404BC9046F0BDE4
:104FA000100000402000004040000240000002C00D
:104FB000064B4021CC2299500331043A9950044ABF
:104FC000D36941390B43D3617047C046001C004090
:104FD00000080040064B4021D02299500331083A86
:104FE0009950044AD3693F390B43D3617047C04697
:104FF000001C00400008004030B58223DB05402241
:10500000995C0125A94301242143C9B29954302058
:10501000195C313A914303221143C9B21954412119
:105020005A5CAA432243D2B25A541A5C32390A401B
:1050300030210A43D2B21A5430BD000010B582B0FC
:10504000064B9847002300931033054A054906484C
:10505000064CA047064B984702B010BDD54F000044
:10506000A006002000080042A00F0020095F0000F9
:10507000F94F0000F0B5C64600B5C024E405802312
:10508000DB0363608223DB05244A9A62244A9A6226
:1050900056215A5C042082435A545A5C0338804695
:1050A0008243844660460243D2B25A543B27DA5DBB
:1050B00047398A4302210A43D2B2DA5580221204C8
:1050C0006261A2608021C9059962164A9A625720DE
:1050D0001A5C4546AA4365462A43D2B21A54D85DA3
:1050E0000F26304020252843C0B2D8558022920494
:1050F0006261A26099620C4A9A625922995C4046A8
:10510000814360460143C9B299543C215A5C324004
:105110002A43D2B25A5404BC9046F0BD000002406B
:10512000400002C0800000C0000200C0064B4021C9
:10513000D82299500331103A9950044AD36933392F
:105140000B43D3617047C046001C0040000800407C
:10515000054B4021E42299504320043A9850034AD9
:10516000D3690B43D3617047001C00400008004026
:1051700030B58223DB05D022995C0125A9430124A7
:105180002143C9B29954B820195CC13A9143022213
:105190001143C9B21954D1215A5CAA432243D2B255
:1051A0005A541A5CC2390A4020210A43D2B21A5416
:1051B00030BD30B58223DB05A6225200995C012464
:1051C000A14301200143C9B29954163A995C0F25B5
:1051D000A94302252943C9B299545021FF315A5C91
:1051E000A2430243D2B25A543821FF315A5C0F20F5
:1051F000024020200243D2B25A5430BD064B402117
:105200009422520099500331603A9950034A136A2C
:1052100041390B4313627047001C004000080040F6
:1052200010B5054B9847002204490548054B98479F
:10523000054B984710BDC046FD51000000040043D7
:105240004C0F002059610000B35100008222D205AA
:105250004A21535C012083430343DBB25354153985
:10526000535C0F20834304200343DBB25354704745
:10527000054AD16980239B010B43D3614221F82366
:10528000024AD1507047C04600080040001C004050
:1052900010B5064B9847064B9847064B98470200B7
:1052A00005490648064B984710BDC046715200009C
:1052B0004D520000E57B000000340042300F00201A
:1052C000C15A000030B58223DB05CF22995C01254D
:1052D000A94301242143C9B29954B720195CC03AAB
:1052E000114060221143C9B21954CE215A5CAA431D
:1052F0002243D2B25A541A5CBF398A4306210A4368
:10530000D2B21A5430BD000010B5084A116980238A
:105310009B000B4313614021EC23054AD150054902
:105320000548064B9847064B984710BD00080040BB
:10533000001C004000200042580F002005570000CC
:10534000C5520000F8B5DE4657464E464546E0B524
:10535000784B9847C022D20508239361936082233B
:10536000DB0575499962C02424069C624325595D7A
:105370000120814359558021516191606F4DAA46AA
:105380009D629C624727DD5D8543DD558025AD002C
:10539000556195606A4DA9469D629C624925AC465F
:1053A0005D5D854366469D558025ED01556195609F
:1053B000644D9D629C624E25AC465D5D85436646AC
:1053C0009D5580252D02556195605F4D9D629C62C3
:1053D0004F25AC465D5D854366469D559825A8469C
:1053E0005151103DAB465151283155465D505C50EE
:1053F000C7255E5D86435E559426393595515F46D7
:10540000D551524D5D505C50C825AA465D5D85431F
:10541000AC46554667465F553935FF3595515D4673
:105420008027BF0057514D465D505C50C9255F5DD8
:1054300087435F558027FF0097515D465751444F82
:105440005F505C5042355F5D87435F558427802500
:105450002D01A946D5513F4D5D503F4D5D504D4604
:10546000D551CB25AC465F5D0425AA4655462F4352
:10547000FFB265465F5545464F46575165465F5DED
:1054800087435F5580277F0197515D465751334FC2
:105490005F505C50CC27DC5D8443DC5580242403C2
:1054A000945154518024E4055C502D4F5F504B358E
:1054B0005F5D87435F5580277F03454657515D46B3
:1054C00057515C50274F5F504C355F5D87435F55A8
:1054D00094515D4654515C50234A5A5036315A5CBF
:1054E00082435A54214B9847214B9847214B984768
:1054F000214B9847214B9847214B9847214B984780
:10550000214B9847214B9847214B9847214B98476F
:10551000214B9847214B9847214B9847214B98475F
:10552000214B9847214B98473CBC90469946A24650
:10553000AB46F8BDB16A00000800004080000040A2
:105540000002004000400040008000400001004098
:105550000004004000080240000002C000100040AB
:10556000080000C0100000C0004000C0514C000006
:10557000854C0000B14F000041750000F94E00005D
:105580003D5000002D5100001576000075500000C0
:1055900051510000617C0000715100002152000057
:1055A000915200006D4B0000AD4B0000095300000C
:1055B00070B504000D0000280DD0002909D001208D
:1055C00039220649064B984729002000054B984789
:1055D00070BD0020F4E70020F2E7C046D4120100BD
:1055E000016200004D65000070B504000D00431E0F
:1055F0009841C0B24E220449044B9847290020002C
:10560000034B9847002070BDD412010001620000D6
:1056100085650000F8B5CE46474680B506000D000A
:105620009046994600281AD0002A1AD04B46002BE3
:1056300019D1002067221C491C4FB84734003000A4
:105640001B4B98470100060048461A4B98474842B2
:105650004841C0B269221449B847002709E0002038
:10566000E8E70020E6E70120E4E7BF19BFB2B9454B
:1056700015D92000104B9847290020000F4B984760
:105680000028F9D0290020000D4B98474346D855F3
:10569000012EEAD97B1C000A4246D054E5E73800C7
:1056A0000CBC90469946F8BDD4120100016200007E
:1056B000996500008D6B0000B9650000AF650000C2
:1056C000CD650000EFF31083036072B6BFF35F8F08
:1056D0007047BFF35F8F036883F31088704710B57E
:1056E000C369002B00D0984710BD10B5036A002B8A
:1056F00000D0984710BD10B5436A002B00D09847E2
:1057000010BD000070B504000D00002815D0002960
:1057100011D0012041220A490A4B98472900200054
:10572000094B9847002805D1084B6360084BA360DC
:10573000084BE36070BD0020ECE70020EAE7C046BC
:10574000F012010001620000D9650000DF56000080
:10575000EB560000F756000010B50400431E9841B8
:10576000C0B25C220349044B98472000034B984782
:1057700010BDC046F012010001620000E5660000A5
:1057800070B504000D0000280DD0002909D00120BB
:105790006E220649064B984729002000054B984782
:1057A00070BD0020F4E70020F2E7C046F0120100CF
:1057B00001620000F566000070B504000D000028CD
:1057C0000DD0002909D0012077220649064B9847C1
:1057D00029002000054B984770BD0020F4E7002009
:1057E000F2E7C046F012010001620000B567000058
:1057F00070B506000D001400431E9841C0B281220E
:105800000C490D4B9847012D10D0002D04D0022DCE
:105810000ED00D20404208E03462621E9441E2B294
:1058200029003000054B9847002070BDF461F4E773
:105830007462F2E7F01201000162000011690000D9
:10584000F8B504000D0016001F00431E9841C0B2B9
:10585000B8220549054B98473B003200290020003B
:10586000034CA047F8BDC046F012010001620000E1
:105870005D69000010B5044B1C68044B984701009B
:105880002000034B984710BDB0060020756A000049
:10589000A96A000010B5044B1C68044B984701002E
:1058A0002000034B984710BDB00600208D6A000011
:1058B000A96A000070B50A25002407E00D4AB35814
:1058C000002B00D0984770BD013AD5B2AC42FAD84F
:1058D0002B195B10DAB2092AF5D8FF210B40DE0044
:1058E0000449891949688142E8D0EDD20132D4B225
:1058F000ECE7C046B406002010B5002309E0084AD2
:10590000D9005018012464424460002088500133BB
:105910009BB2092BF3D90348034B984710BDC046EF
:10592000B4060020B5580000E56E0000F0B5D6467C
:105930004F464646C0B584B00023092B0DD8DC0085
:10594000334A12195268824202D00133DBB2F4E7C3
:105950002F4BE15001239A4601E000239A4600298B
:105960000CD05346002B41D1092B13D8DA00284D17
:105970005259002A08D00133DBB2F5E75346002B19
:1059800040D0244B984737E0DC0061512C1960600F
:1059900001229246002201E00132D2B2092A25D822
:1059A000092B23D801931A49DC000C196768D4002D
:1059B000091949688F42EFD24C1CEDD002A98C46E0
:1059C000134FD400A0463C19664622CC22C601994A
:1059D000C9008946414679184C463C1960CC60C1E3
:1059E0003D004D44614650C950C5D5E75346002B94
:1059F0000BD00121074B984704B01CBC9046994638
:105A0000A246F0BD0D204042F6E70D204042F3E7EC
:105A1000B4060020AD6F000010B50121014B98477E
:105A200010BDC046AD6F000010B50021014B984776
:105A300010BDC046AD6F000070B504000D0016002B
:105A400000280ED000290AD0012034220649074B35
:105A500098472368320029002000984770BD002035
:105A6000F3E70020F1E7C0460C13010001620000DB
:105A700070B504000D00160000280ED000290AD0D1
:105A800001203D220649074B9847636832002900F0
:105A90002000984770BD0020F3E70020F1E7C046E2
:105AA0000C1301000162000010B54369002B00D007
:105AB000984710BD10B58369002B00D0984710BDE2
:105AC00070B504000D00002812D000290ED001206E
:105AD00033220849084B984729002000074B984774
