:10000000783200204947000045470000454700007E
:1000100000000000000000000000000000000000E0
:100020000000000000000000000000004547000044
:10003000000000000000000045470000358E000071
:10004000454700004547000045470000456C00005B
:10005000454700004547000045470000156A00007D
:1000600045470000454700005D710000454700001E
:1000700045470000454700007171000045470000FA
:100080002D66000045470000454700004547000039
:1000900045470000697800007D7800004547000072
:1000A00091780000454700004547000045470000A3
:1000B00045470000454700004547000010B5064C85
:1000C0002378002B07D1054B002B02D0044800E019
:1000D00000BF0123237010BD40020020000000007B
:1000E000A01B0100084B10B5002B03D0074908489E
:1000F00000E000BF07480368002B00D110BD064B8D
:10010000002BFBD09847F9E70000000044020020D4
:10011000A01B0100A01B01000000000010B5024B55
:100120009847024B984710BD894F0000DD8D0000B5
:1001300070B504000E001D00FA2189005143090129
:100140003048314B984701380004304B1840304B51
:1001500018432660B36901221343B36123689A6987
:10016000D207FBD59A6902210A439A61294B9E4224
:1001700034D02268936902218B439361226893698A
:1001800001398B43936123689B69DB07FBD4200013
:10019000214B98476B091F2215401E3AAA40C024E4
:1001A000E405DB011E19B2601004000C8021C905B2
:1001B00001438220C005844663449962110CC02526
:1001C0002D0629439962726110238822A3502032A0
:1001D000124981508550143AA35070BD2368D861EC
:1001E0000F4B802252027E315A50BFF34F8FBFF324
:1001F0006F8F0131FF315A501A6023680122DA658E
:10020000B7E7C046006CDC02996700000000FF0100
:10021000030A0006002000429D5300001000004029
:1002200000E100E010B50A000121014B984710BD24
:100230003554000010B50A000021014B984710BD4D
:100240003554000010B584B0009100216C46217136
:1002500006A902912373002A0BD100236373694618
:10026000054B9847054B1860431E9841C0B204B037
:1002700010BD01236373F2E7FD5300008C0B0020D7
:1002800010B584B00C0002926946084B9847009B59
:1002900023606B461B79002B05D0012B01D0002079
:1002A00002E0022000E0012004B010BDC5530000B0
:1002B00010B582B000910192002B06D16B4600224E
:1002C0000021054CA04702B010BD6B460122002161
:1002D000014CA047F7E7C0468554000070B5430EB7
:1002E0000F241C40144B1C70450CEDB2134B1D70B9
:1002F000420AD2B2124B1A70C0B2124B1870124995
:100300000B79124E33706419E4B21219D2B280180C
:10031000C0B20A788018C0B24A788018C0B28A7811
:100320008018C0B2CA788018C0B2094A1070181A72
:1003300043425841C0B270BDE0070020200C0020AD
:100340005D090020E8080020C00B0020E90800201B
:100350000D0C002010B5094C094B1A68230004C38A
:10036000084A03CA03C3084B98470100E060020033
:100370000648074B9847074B984710BDAC0D002027
:10038000980B0020C00B0020A5050000ECEF00003A
:1003900091A30000891C0000F0B587B00400394B20
:1003A0009847394B1A78052A1AD89300374AD358F8
:1003B0009F46374B18785C789D78DE781F79354BEF
:1003C0001B78354A127835490978059704960395C4
:1003D000029401903248007800903248324CA04795
:1003E00007B0F0BD2A4B18785C789D78DE781F79CD
:1003F000284B1B78284A12782849097805970496D3
:100400000395029401902648007800902748264CD6
:10041000A047E5E71E4B18785C789D78DE781F7959
:100420001C4B1B781C4A12781C49097805970496C6
:100430000395029401901A48007800901C481A4CC9
:10044000A047CDE712490A784B788878CD780979AA
:1004500002910195009021001648134CA047164BBD
:100460009847BDE70A490A784B788878CD780979AA
:10047000029101950090210010480B4CA0470E4BB3
:100480009847ADE7DD0200005C090020D4EF0000D2
:10049000C00B00205D090020200C0020E007002098
:1004A000E80800200CF0000091A300003CF00000E0
:1004B0006CF000009CF0000055030000CCF0000040
:1004C00070B50F4A1378013B13700E4D00220023C4
:1004D0002A606B600C4C002323600C4A13700C4A9A
:1004E00013700C4A13700C4A13702A0021000B4839
:1004F0000B4B9847296820680A4B984770BDC04647
:1005000010080020C00B0020980B0020E0070020FE
:10051000200C00205D090020E8080020FC0D0020D0
:10052000810200009903000010B582B00100064B63
:100530005C681B6800930194062301220348044C65
:10054000A04702B010BDC046780B0020FC0D002073
:100550004502000010B5074C217062701A0EA2709F
:100560001A14E2701A1222716371034B1968034B5B
:10057000984710BD780B0020800B00202905000053
:100580007047000010B5044C0022044BA047002225
:10059000034BA04710BDC046D9E0000000004E400C
:1005A0000000F03E054B98780006DA7812041043FC
:1005B0001A79120210435B7918437047C00B002070
:1005C000044B01229A70E42149005A5801325A50D2
:1005D0007047C04668090020034B1A68916E40239B
:1005E0000B4393667047C04604000020024A13780C
:1005F000013313707047C046100800207047000098
:1006000010B500282ED0032930D801700023436094
:100610008360C360036143618361C36103624362BA
:100620008362C362838603636821435C0122934330
:10063000013293430232934304329343083293438B
:1006400010329343203293433F321340435402000D
:100650006832537801210B435370836E1B051B0DC9
:10066000836610BD0348044B9847FAE70348024BE2
:100670009847F6E7FCF00000ADA4000020F1000070
:10068000F0B5D64600B582B082460191002718E049
:10069000C024E4058026B600E6616B469B88009383
:1006A0001800104DA847E6618026F601E661009823
:1006B000A847E66180263602E6610098A847E66111
:1006C00001375745E4D3C023DB05802292009A61AD
:1006D000802212029A618022D2019A6102B004BC87
:1006E0009246F0BDD954000070B5084901248C60D1
:1006F000074BCB600C740748074DA84707498C602F
:10070000074BCB600C740748A84770BD500C002005
:10071000C1050000940E002031590000280C002073
:10072000D9050000280E002070B50B4C4923FA2291
:1007300052000A4920000A4DA8470A4920000A4BE6
:1007400098470A4920000A4B9847012300220021BC
:100750002000084CA04770BDFC0D00200020004286
:10076000310100008105000025020000ED050000B8
:1007700035020000B102000010B50B4C0B492000FF
:100780000B4B984720000B4B98470B4C0B4A002112
:1007900020000B4B98470B4920000B4B984720003B
:1007A0000A4B984710BDC046F00D0020EC08002011
:1007B000155E0000E95D0000440E0020FD0500000C
:1007C000455C000014080020155C0000E95B000097
:1007D000F8B5CE46474680B5002401235B429946D2
:1007E00000239846002602E09846F6180134312C82
:1007F0000DDC0F4D02232A0000210E480E4FB84792
:100800002B889845F0D39945EFD99946EDE73221E9
:1008100030000A4B984702004B4641460848094CB5
:10082000A0470422084B1A700CBC90469946F8BDAC
:10083000D4080020240E00205952000099670000BF
:1008400058F1000091A300005C090020F8B50022D7
:100850001A210020204CA047802149009423C02267
:10086000D205D1500022FD390020A04700240025E8
:10087000002609E002210020184B984703041B0CB6
:10088000F618000C2D180134154B9C42F2DD154F63
:10089000FA2189003000B8470400FA2189002800B5
:1008A000B8470500020021000F48104B984722046A
:1008B000120C8223DB031A432D042D0C1D43092146
:1008C0000020054CA0472A0008210020A04707224D
:1008D0001A210020A047F8BDFD8E0000518E0000B7
:1008E000E70300009967000088F1000091A3000071
:1008F000F8B5CE46474680B5E84EE94D326813213B
:100900002868E84CA047431E9841E74B18703268AE
:1009100016212868A047431E9841E44B187032689E
:1009200011212868A047E24FB8653268192128686C
:10093000A047431E98416023F85432681A21286862
:10094000A047DC4F3863326828681B21A047F86253
:10095000D94B1B78012B00D171E0002B09D0022B61
:1009600000D1D2E0042B00D134E10CBC9046994672
:10097000F8BDCF4CFA239B002360C84FC84E3A689D
:100980000A213068C74DA84760603A680021306886
:10099000A847A0603A6801213068A84720613A68FA
:1009A00002213068A847E0603A6803213068A84710
:1009B000A0613A6804213068A84760613A6805215F
:1009C0003068A84720623A6806213068A847E0618D
:1009D0003A6807213068A847A0623A680821306861
:1009E000A84760623A680B213068A847E0620A2194
:1009F000B24B984720633A680C213068A84760637F
:100A00003A680D213068A847A063AD4B9847AD4BBD
:100A10009846AD499847AD4B994698472064616424
:100A20003A6830680E21A847A064A94B9847A649A8
:100A3000C047A549C047C8472065616595E79C4CFC
:100A4000FA239B002360954F954E3A680A2130683F
:100A5000944DA84760603A6800213068A847A060BC
:100A60003A6801213068A84720613A68022130685D
:100A7000A847E0603A6803213068A847A0613A6857
:100A800004213068A84760613A6805213068A847AA
:100A900020623A6806213068A847E0613A68072179
:100AA0003068A847A0623A6808213068A8476062A9
:100AB0003A680B213068A847E0620A217F4B9847CB
:100AC00020633A680C213068A84760633A680D21BA
:100AD0003068A847A0637A4B98477A4B98467A4982
:100AE00098477A4B99469847206461643A68306821
:100AF0000E21A847A064764B98477349C0477249B6
:100B0000C047C847206561652FE7694C714B23607A
:100B1000624F634E3A680A213068624DA8476060B0
:100B20003A6800213068A847A0603A68012130681F
:100B3000A84720613A6802213068A847E0603A6817
:100B400003213068A847A0613A6804213068A847AB
:100B500060613A6805213068A84720623A6806213A
:100B60003068A847E0613A6807213068A847A0626A
:100B70003A6808213068A84760623A680B213068FB
:100B8000A847E0620A214D4B984720633A680C2140
:100B90003068A84760633A680D213068A847A063B1
:100BA000474B9847474B984647499847474B994684
:100BB0009847206461643A6830680E21A847A064B1
:100BC000434B98474049C0473F49C047C847206505
:100BD0006165CAE6364CFA239B0023602F4F304EE6
:100BE0003A680A2130682F4DA84760603A680021B2
:100BF0003068A847A0603A6801213068A8472061A2
:100C00003A6802213068A847E0603A6803213068FA
:100C1000A847A0613A6804213068A84760613A6833
:100C200005213068A84720623A6806213068A84745
:100C3000E0613A6807213068A847A06264236362D4
:100C40003A680B213068A847E0620A211B4B98479D
:100C500020633A680C213068A84760633A680D2128
:100C60003068A847A063164B9847164B984616491C
:100C70009847164B99469847206461643A683068F3
:100C80000E21A847A064124B98470F49C0470E4950
:100C9000C047C8472065616567E6C046140000206C
:100CA00010000020AD460000EA080020D90800200E
:100CB000F0080020CC0B00205C09002063670000D6
:100CC000C5D100006DCB00006F12833AA1ED00008A
:100CD00025D10000DC05000070B5154B9847154B79
:100CE00098470A20144CA047002201210020134BF2
:100CF00098470120A04700210020114CA047050083
:100D000000210020A04706000E4BC41863425C413E
:100D1000E4B22A0029000C480C4B98470C4B9E4229
:100D200001D0200070BD0B480B4B9847F9E7C04637
:100D30008571000041720000D9540000FD8E000052
:100D4000518E0000CFC8C9CBB0F1000091A30000C4
:100D500031373634CCF10000ADA4000010B50A4B99
:100D600098470A4B98470A20094B9847094B9847E0
:100D7000002801D1012010BD0748084B9847084BB7
:100D800098470020F7E7C04659720000157300002D
:100D9000D9540000B1430000F4F10000ADA40000FC
:100DA0003926000070B50120064EB047C024E40586
:100DB0008025AD009423E5500120B0479823E550ED
:100DC00070BDC046D9540000F0B583B000243E4B3E
:100DD0001C703E4B64221A60C83A5A60FA22120113
:100DE0009A6001223A4B1A703A4B1C703A4B1C60C5
:100DF00000200021394B18605960394B1860596048
:100E0000384B1C60384B1A70384B1C70384B1C70B8
:100E10003849394B1960394B9C70DC701A715C7120
:100E20009C71DC711C725C729A72DC72344A1470B0
:100E30001C615C619C61DC611C625C629C62DC62C6
:100E40001C63304B1C60EC235B002F4AD4502F4DA9
:100E5000002600272E606F60AC60EC602C61493B7F
:100E6000FF3BEC502800143078220021284B984793
:100E7000284B1C60A023EC540233EC54264B5C60DE
:100E8000264B1E605F60264B1C6001A8254B9847CF
:100E9000C023DB05802252009C5820328221C905E4
:100EA0008A58882149005B5853401C40544001A88F
:100EB0001D4B9847E30305D4012252421B4B9A6114
:100EC00003B0F0BD0122F9E710080020DC08002083
:100ED000700B0020890B00200C080020580B00200C
:100EE000F8070020500B0020D6080020600B0020DF
:100EF000D8080020A086010058090020CC0B002053
:100F0000680B0020240C002068090020180800202D
:100F10009F9A0000640B0020040C0020780B002036
:100F2000980B002009530000175300009C0B002071
:100F3000F0B5CE46474680B583B04A4C0122012128
:100F40002000494B98472000484B9847484B98470A
:100F5000C023DB0580214900942299508022D201D0
:100F60009A61802292009A61802212029A61802105
:100F7000490398229950903A9A613E4B98473E4BCC
:100F800098473E4B984700213D483E4B98473E4B83
:100F900098473E4B984700285CD00822C023DB05C9
:100FA0009A613B4B9847002858D1C026F605082582
:100FB000B56101A8374B994698478023F45882239E
:100FC000DB059846A0234246D258103BF3585340C5
:100FD0001C40544001A8304FB84780235B031C409D
:100FE000631E9C41E4B26846C84733684246126AB1
:100FF000366956401E4056406846B84735406A1E1E
:101000009541EAB221002548254B9847254B984742
:101010000020254B98470020244B98470020244B64
:101020009847244B9847244B18680121234CA0472C
:10103000234B18680021A0470020224B9847224BE1
:101040009847224B9847224B984703B00CBC9046D8
:101050009946F0BD1F48204B98479EE71F481E4BFE
:101060009847A2E7D40D0020895700004D57000093
:10107000A50D000079070000A57800008D7900001B
:10108000240E00202D520000D1070000D90C0000D2
:101090005D0D0000095300001753000068F20000C6
:1010A00091A30000F1080000A12C0000692B0000B2
:1010B000C12A00004D0800000400002001060000C5
:1010C00008000020ED950000E90600002907000057
:1010D0005930000010F20000ADA400003CF2000006
:1010E00070B50400802149009823C022D205D15058
:1010F0000020444B9847444DA847A0B2434B984723
:10110000434B00221A605A609A60A847414B1988E5
:101110000020414B98470322522100203F4CA0471A
:10112000032100203E4B984700203E4B984701008A
:1011300000203D4B9847002263210020A04700215A
:1011400000203A4B98473A4B1B78012B21D0002BBB
:1011500004D0022B38D0042B45D070BD26210020AE
:10116000344DA84701003448344CA04725210020C5
:10117000A84701003248A0472D210020A8470100C0
:101180003048A0472C210020A84701002E48A04746
:10119000E3E726210020274DA84701002B48274CD4
:1011A000A04725210020A84701002948A0472D215C
:1011B0000020A84701002748A0472C210020A8476D
:1011C00001002148A047C8E726210020194DA84763
:1011D00001002148194CA04725210020A847010003
:1011E0001E48A047B9E726210020124DA84701005C
:1011F0001B48124CA04725210020A8470100194890
:10120000A047AAE7F57B0000852F0000D954000015
:10121000DC080020F0080020ED2D0000FD8E00000D
:10122000E9900000D99000005D9000002D90000032
:101230005C090020518E000090F2000091A3000094
:10124000C0F20000E8F2000018F3000040F30000D4
:1012500070F3000098F30000C8F30000F8F30000FA
:1012600020F4000054F400000122014B1A70704772
:101270000000002010B5044B186000221A710332E0
:101280005A71024B984710BD5C02002069120000A1
:101290000122014B1A707047000000200EB4F0B517
:1012A000C64600B583B02C4B5B79834206D203B0AF
:1012B00004BC9046F0BC08BC03B018478000274B24
:1012C000C358274A8021890023480830254CA0476D
:1012D000061E13DB0AAB01931F48083080198021DA
:1012E0008900891B099A204CA047002808DB361882
:1012F0001E4B9E4200DD1E00002720E00026E9E78D
:101300000020F4E780239846134C2079184D0835C7
:10131000C001281821000831C9194246154B9847C9
:1013200023681B682079C001281841469847237913
:1013300001225340DBB2237147444346F61A002E84
:10134000B5DD0D4B1B78002BFBD000220A4B1A7029
:10135000802ED7DCB046D7E75C0200202CF70000D7
:101360003CF700002DA60000F5A60000FF010000DC
:101370005C0400208D9A00000000002010B5064B90
:101380003F22995CC9B20020985440301C5C64082C
:101390003F382040995410BD0060004110B5014B0A
:1013A000984710BD9112000010B5014B984710BD31
:1013B0009112000010B50C00002811D0002901D1B5
:1013C000002010BD01000020064B9847210000209E
:1013D000054B984700210020044B98470120F0E777
:1013E0000020EEE76169000071690000C569000036
:1013F00010B5174B00213F22995440315A5C02200E
:1014000082435A544023124AD35C9B07FAD4114AB0
:101410000F4B5A648022D2000F4B1A800F490020D4
:101420000F4B98470122002100200E4CA0470122BB
:1014300001210020A0470C4C002120000B4B9847B5
:1014400023680B4A1A6023680A4A5A6010BDC046D6
:101450000060004100348000F00E002028040043AA
:10146000516900000D69000064050020016A000058
:10147000A91300009D1300000048704760F70000AA
:1014800010B5324B1B689A6E120519D4996E102252
:101490000A439A66996E2E4A0A409A669A6E920696
:1014A00002D59B6EDB0632D4284B1B6840229A5C27
:1014B000012A3ED0DA6827490320274B984710BD00
:1014C000996E264A0A409A6602210020244B9847CA
:1014D0001E4B1A68916E10230B439366936E9B0606
:1014E00002D5936EDB060AD4184B1A68916E184B1E
:1014F0000B4093661B490320174B9847DFE71A48B8
:101500001A4B98471A490320134B9847ECE71648A3
:10151000164B984702210020114B98470B4B1B6834
:10152000D9680020134B9847114903200A4B98476C
:10153000BAE70121623299540021053A99520432E6
:101540009954996E054A0A409A66B3E70400002050
:10155000FFF7FFFF48F900009D120000FFFDFFFFAD
:10156000E990000030F90000280E0020B958000072
:10157000ECF800003D90000070B50B4C2368D8607B
:10158000D9680020094B984725680020084B9847E8
:101590006861236859690020064B98472368D96819
:1015A0000548064B984770BD040000202D900000B0
:1015B000D99000005D90000074F9000091A3000034
:1015C00070B5094C256868620020084B984768612F
:1015D000236859690020064B98472368596A0548D3
:1015E000054B984770BDC04604000020D99000000C
:1015F0005D90000094F9000091A3000010B5044B29
:101600005B68596059680348034B984710BDC04652
:1016100004000020CCF9000091A3000070B5040084
:101620000D0001222A4B1A7000202A4B9847001BFC
:10163000C317C0185840284B984224DD002D17D0FE
:10164000264B1B68DE682000254B9847012231009D
:10165000244B9847214B1B6840229A5C022A24D0D5
:10166000002D2ED1220020490220204B984770BD2A
:101670001A4B1B68DE682000194B98470022310086
:10168000184B9847E6E7154B1B68D9680020184BA4
:101690009847002D04D021000020164B9847D9E729
:1016A00021000020144B9847D4E7996E134A0A4052
:1016B0009A66012164229954114903200B4B9847E3
:1016C000CEE722000F490220084B9847CFE7C046DB
:1016D000880B0020D9900000DC05000004000020E9
:1016E00025D100008D3000003CFA00009D12000062
:1016F0002D9000005D9000006D900000FFFDFFFF49
:10170000FCF9000020FA000010B5064C23681862AE
:10171000186A0121044B98472368196A0348044B4F
:10172000984710BD040000201D16000058FA000064
:1017300091A3000070B50020084B984702000404F4
:10174000240C230006490320064DA847230012223B
:10175000012185204000044CA04770BDD9900000B5
:1017600084FA00009D1200005505000010B500210C
:101770000020154B984700210020144B9847144B2C
:101780001B68996E082291439966996E10229143C5
:101790009966996E20229143996601220D4B1A7128
:1017A0000D4B984760230D4AD35C002B04D10C49A4
:1017B00002200C4B984710BD0022064B1A73512093
:1017C000094B9847F3E7C046C99000005D900000C0
:1017D00004000020CC0B0020C52F0000F0080020E2
:1017E000C8FA00009D1200005D56000010B582B0DE
:1017F0006B46DC1D00232370682200210020254B4E
:10180000984721000920244B9847244B1B78042B30
:101810000DD0052B10D06B4607331B78DB0621D586
:101820001F4B02221A700C325A7002230DE08522DF
:1018300052001C4B1A60EEE70C22FF32194B1A6063
:10184000E9E70021164AD1540133072BF9DD144B87
:101850001968144B1868144B98471448144B984750
:1018600002B010BD0E4B02221A700D325A700223C4
:1018700003E000210A4AD1540133072BF9DD084B5C
:101880001968084B1868084B98470A48084B98474E
:10189000E6E7C046E1950000A92400005C090020AD
:1018A000780B0020980B002029050000E4FA0000C6
:1018B000ADA4000004FB000010B5012800D010BD4D
:1018C0000022222100200B4B98470B4B996E0122DE
:1018D00091439966996E082291439966996E022206
:1018E00091439966996E0422914399660348044B8B
:1018F0009847E4E7E1950000640C002028FB000015
:10190000ADA4000010B582B06B46DC1D002323702F
:1019100021000920154B98472378DB0615D468224F
:1019200000210020124B9847124B5968FA221201ED
:101930000020114B9847114A916E02230B43936686
:101940000F48104B984702B010BD0F480D4B9847F9
:10195000852040000D4B18600D4B04221A700A328E
:101960005A7019680B4B9847EDE7C046A924000050
:10197000E195000004000020AD910000640C0020FF
:1019800074FB0000ADA400003CFB0000980B00209D
:10199000780B00202905000010B582B06B46DC1DD5
:1019A0000023237021000920144B984723789B06BD
:1019B00014D4682200210020114B9847114B59681C
:1019C000114A0020114B9847114A916E04230B4392
:1019D00093661048104B984702B010BD0F480E4B4D
:1019E0009847852040000E4B18600E4B05221A7058
:1019F00009325A7019680C4B9847EDE7A92400008A
:101A0000E19500000400002060F0FFFFAD910000B0
:101A1000640C0020D0FB0000ADA4000098FB000087
:101A2000980B0020780B00202905000070B50C00F1
:101A3000244B5B68986E082101439966D96A596105
:101A4000FA2189005960002A00D01C6159698C4232
:101A500017DD002A02D15A69A2181A6168220021F2
:101A60000020194B9847174D69684A680020174BAA
:101A700098476B6859695B6822001548154CA04768
:101A800070BD59698C4219DA002A02D15A69121BB9
:101A90001A616822002100200B4B9847094D6968A4
:101AA0004A6852420020094B98476B6859695B6845
:101AB0005B4222000648074CA047E1E70648074B77
:101AC0009847DDE704000020E1950000AD9100009B
:101AD000F8FB000091A3000044FC0000ADA400004E
:101AE00010B500210020234B984700210020224BF5
:101AF000984700210020214B98470024204B1C7060
:101B0000204B1C70204B1C70204B1B68996E1022C0
:101B100091439966996E20229143996664229C5460
:101B2000986E1B4A01001140996662215C540120A5
:101B30000131585405395C52996E0A409A6600206A
:101B40000021144B186059601348144B9847144BEC
:101B50001C60144B1C600020134B9847134B5861BA
:101B600059690020124B984712490220124B98479E
:101B700010BDC0462D9000003D900000E99000008F
:101B8000D6080020600B0020880B002004000020F5
:101B9000FFF7FFFFC8080020280E0020F5580000BE
:101BA00008080020C80B0020D9900000D00C0020AD
:101BB0005D90000080FC00009D120000F8B500213F
:101BC0000020204FB847002100201F4B98470021DC
:101BD00000201E4EB04700251D4B1D701D4B1D7073
:101BE0001D4B1D701D4CA26E10239A43A266A26E5F
:101BF00020239A43A26600200021194B18605960E7
:101C00001848194B9847194B1D60194B1D6000204F
:101C1000184B9847606161690020174B9847022173
:101C20000020B84703210020B047144B1A68916E7A
:101C300080231B010B43936611490220114B9847E7
:101C4000F8BDC0462D9000003D900000E9900000D6
:101C5000D6080020600B0020880B0020D00C00204C
:101C6000C8080020280E0020F558000008080020B1
:101C7000C80B0020D99000005D90000004000020F7
:101C800094FC00009D12000070B5CA4B1B68073B16
:101C9000FF3B082B09D89B00C74AD3589F46002218
:101CA000C64B1A70C648C74B9847C44B1B78002BCD
:101CB00004D1C54A1278042A00D1D5E0012B00D105
:101CC000CDE070BD0122BD4B1A70C048BD4B984796
:101CD000EBE70022B94B1A70BD48BA4B9847BD4B91
:101CE0009B6EDB06E1D5B34B1B79002B24D0012B77
:101CF0003ED1B84A916E1F330B439366936E9B0699
:101D0000DB0F926ED206D20F1A4203D1B248AD4B0E
:101D10009847CAE70023B14A1360B14A1360B1483B
:101D2000B14B9847AB4CE1680020B04B9847E16855
:101D30000020AF4B9847E9E7A64B996E20229143CC
:101D400099669B6E9B0603D5A24B9B6EDB0607D460
:101D50000023A24A1360A24A1360A248A54B9847E9
:101D600000210020A24B9847A348964B98479CE738
:101D7000A248944B984798E70122904B1A70A048CC
:101D8000904B9847934B9B6EDB0600D48DE7894BB5
:101D90001B79002B16D0012B24D18E4A916E1F3354
:101DA0000B439366936E9B06DB0F926ED206D20FA7
:101DB0001A4203D18848834B984776E789488A4B73
:101DC0009847F7E7834B996E20229143996685489F
:101DD000884B984700210020854B98478648794BCF
:101DE000984762E78548774B98475EE7764B1B78C4
:101DF000042B15D0052B00D057E7824B1B78032B03
:101E000000D052E71020FF307F4B18607F4B032239
:101E10001A7019687E4B98477E486A4B984744E78A
:101E2000784A1278012AE5D11020FF30764B1860ED
:101E3000764B1A701968764B98477748614B9847EC
:101E400033E700225D4B1A7074485E4B98472CE7CD
:101E500001225A4B1A7072485A4B984725E75A4B41
:101E60001B78052B00D02CE7524B1B790B2B00D98C
:101E700027E79B006B4AD3589F464E4B5B79152B47
:101E800033D89B00684AD3589F46684B984718E759
:101E9000674B984715E7474BD868664B984710E75C
:101EA000002180204002644B98470AE7414BD868E4
:101EB0000121614B984704E73E4BD86800215E4BF7
:101EC0009847FEE63B4BD8685C4B9847F9E6394BA0
:101ED000D8685B4B9847F4E65A4B9847F1E65A4B63
:101EE0009847EEE6594B9847EBE659490320594B82
:101EF0009847E6E62F4B5B79102B2BD89B00564A70
:101F0000D3589F460120554B9847DAE6294BD968AC
:101F10000120534B9847D4E6264BD9680122012073
:101F2000504B9847CDE6234BD968012201204D4BF9
:101F30009847C6E61F4BD96800220120494B9847B5
:101F4000BFE6494B9847BCE6484B9847B9E6484B33
:101F50009847B6E6474903203E4B9847B1E6154BF4
:101F60005B790D2B22D89B00434AD3589F46022011
:101F70003A4B9847A5E60F4BD9680220384B984753
:101F80009FE60C4BD96801220220364B984798E611
:101F9000084BD96801220220324B984791E6054B45
:101FA000D968002202202F4B98478AE63348054B18
:101FB000984786E6AC0D002068F700003C0D002035
:101FC000A8FC0000ADA400005C090020CCFC0000CF
:101FD000F4FC0000D00C002024FD000008080020C4
:101FE000C80B0020280E0020B95800002D900000DA
:101FF0003D900000F55800006CFD0000B0FD0000B1
:10200000D4FD0000C00B0020980B0020780B0020AE
:102010002905000050FE000008FE000098FE0000A8
:10202000C0FE00008CF70000BCF700008114000027
:10203000E11A0000791500001D160000C11500000E
:1020400009170000351700006D170000BD1B0000C8
:10205000E8FE00009D12000014F80000B91800000E
:10206000FD1500002D1A0000051900009919000047
:10207000ED17000010FF000058F8000038FF0000C6
:10208000C74B5B79032B05D3042B00D819E6102B23
:1020900000D116E6C348C44B984712E6C04B5B79A3
:1020A000032B05D3042B00D80BE6102B00D108E638
:1020B000BE48BD4B984704E6B94B5B79033BDAB2A7
:1020C000162A00D9CFE09300B94AD3589F46B94B9E
:1020D0001B68012240215A5423315A5400215D3299
:1020E000995204329954996EB34A0A409A66996E8D
:1020F0008022D2000A439A66B0490220B04B98472A
:10210000DFE5AC4B1B68002240215A5422315A545F
:10211000996EAC4A0A409A66AB490220A84B984790
:10212000CFE5A44B1A689E4B99895C23D152D25AB1
:1021300092B2A6490220A24B9847C2E59D4C226864
:10214000916E80231B010B439366A14B9847226835
:1021500000214023D1549F490220994B9847B0E574
:10216000944B1B688E4AD2681A651A6D002A33D1C7
:102170001A6D99490220924DA8478E4B1C68012385
:102180004022A3542332A35400225D33E25204338D
:10219000E254A26E884B1340A366A26E8023DB003C
:1021A0001343A36600208D4B9847A0648C490220FE
:1021B000A847804B1B685C229A5A92B2002A45D0ED
:1021C0005C22995A89B25C2299529A5A92B28549F4
:1021D00003207B4B984774E51A6D83490220784BA6
:1021E0009847744D2C6802224023E254A26E80234B
:1021F000DB001343A36600225E23E252A16E3E3B46
:102200000B43A36662230021E154A16E523B0B43B2
:10221000A36662650020714B9847A0642B689A6E94
:102220009206C6D59B6EDB06C3D57048704B9847A7
:10223000022100206F4B98476F4BD96800206F4BED
:1022400098476F4903205E4B9847B2E70321BAE7EE
:10225000584B1B68524AD2689A659A6D69490220A8
:10226000574B98472DE568490220554B984728E57C
:102270004B4B5B79042B72D0152B7FD0032B04D0F2
:10228000614902204E4B98471BE54A4B1B68444A64
:10229000D2681A651A6D002A3FD01A6D5249022081
:1022A000474B9847434D2C6802224023E254A26ECC
:1022B0008023DB001343A36600225E23E252A16E5B
:1022C000524B0B40A366A16E20230B43A3666223EF
:1022D0000021E154A16E523B0B43A36662650020CE
:1022E0003E4B9847A0642B689A6E920600D4E8E4AF
:1022F0009B6EDB0600D4E4E43C483D4B984702214A
:1023000000203C4B98473C4BD96800203B4B9847FA
:102310003B4903202A4B9847D3E41A6D2E490220EB
:10232000274DA847234B1C6801234022A354233286
:10233000A35400225D33E2520433E254A26E1E4BDA
:102340001340A366A26E8023DB001343A366002024
:10235000224B9847A0642E490220A847B1E4154BB0
:102360001B68996E174A0A409A66996E102291432B
:10237000996628490220124B9847A2E40D4B1B682E
:1023800064229A5C002A05D1996E802212010A43C8
:102390009A6696E420490220094B984791E4C0468A
:1023A000AC0D002068FF0000ADA4000094FF000009
:1023B00090F8000004000020FFFDFFFFC0FF0000B8
:1023C0009D120000FFFBFFFFE4FF0000080001007A
:1023D000BD1B00002800010048000100D99000004A
:1023E0006C00010028010100A8000100280E002057
:1023F000B9580000E9900000D00C00203D9000008A
:10240000E40001005401010080010100FFF7FFFF1B
:10241000AC010100E00101000802010010B50CE070
:102420000278084B9A62074B1B7E5B07FBD5054B76
:102430009B6A0B70013101302200541EE4B2002A65
:10244000EED110BD00100042F0B583B000900E0038
:102450000192C027FF0508247C610120064DA84792
:102460006B461A7931000098044B98470120A84721
:10247000BC61012003B0F0BDD95400001D24000050
:1024800000B583B00B2801D903B000BD01AB4022D9
:102490001A70587099703D3A69461800014B984778
:1024A000F2E7C0464924000030B583B00D000B2888
:1024B00014D8002912D001AC41232370607000238E
:1024C000A370032269462000054B98476B469B7812
:1024D0002B70217862780348034CA04703B030BDCD
:1024E000492400004002010091A3000010B582B011
:1024F0006B46DC1D00232370210007203C4B9847CE
:102500002378002B01D102B010BD3A4C21000820E5
:10251000374B98473848394B98470A20384B9847EB
:102520002378DA0612D49B06EDD500222221002062
:10253000344B98473448314B9847344B1B689A6E5C
:10254000520730D432482D4B9847DCE70022222135
:1025500000202C4B98472F48284B98472B4B186846
:10256000836E9B0703D42C48244B9847CBE7826E9D
:1025700002239A438266294B9847244C2368DA6ADF
:102580009A6185204000264B1860264B04221A7061
:102590000A325A701968244B98472368996923486E
:1025A000234B9847DFE7996E0422914399660022F6
:1025B00022210020134B9847144C2068174B984752
:1025C00023680022DA621A63DA6ADA618520400041
:1025D000134B1860134B05221A7009325A70196890
:1025E000114B98472368D9691248114B9847A9E7BE
:1025F000A92400006009002084020100ADA40000AD
:10260000C5A30000E195000034030100080000208C
:102610008C030100BC02010014030100FD910000C5
:10262000980B0020780B002029050000D40201003F
:1026300091A300004C03010010B582B030210020AE
:102640000C4CA04700210620A04702210520A047EE
:1026500030210120A04730210220A0476B46D91D20
:1026600000230B700820044B98470448044B9847FC
:1026700002B010BD81240000A9240000AC030100B9
:10268000ADA4000070B5C024E4058025ED059823B5
:10269000E5500120064B98478023DB01E36194233A
:1026A000E550044B1C68044B9847E06370BDC0467E
:1026B000B954000004000020458E0000F0B5CE465D
:1026C000474680B585B08F4E3468656AA36D00209B
:1026D0008D4B9847A36CC01AC317C0185840326876
:1026E0005E23D35A916D4B43984202D9936E9B055A
:1026F00019D5844B1B689B6E9B0504D52300623360
:102700001B78002B1CD17F4B1B689A6E920522D43C
:10271000230062331B78002B00D08DE005B00CBC89
:1027200090469946F0BD79490020794B984700239F
:1027300002220A217748784EB047784B9847D8E76D
:1027400077490120724B98476E4B1A68916E754B12
:102750000B409366D7E7996E724A0A409A6600204A
:10276000694B98478046230063331B78002B04D0C5
:10277000644B1B689B6E1B0538D5624B1A68916EC3
:10278000694B0B409366A66C43469E1BF317F618E5
:102790005E40A76DB800C0198300C0186421634B68
:1027A0009847BE4230D9F31B83422FD922004032D2
:1027B000D38B01339BB2D383928B92B2934229D3B2
:1027C00023004033DA8B92B23B1A029601973F18EE
:1027D0000097574901204E4EB047002301220A219D
:1027E0004C484D4EB0474D4B984713E023006333A0
:1027F00000221A70A06460646234012323704D4982
:102800000320434B984789E7BB1BCDE723004033A8
:102810000022DA83A26C43469A1AD317D2185A4080
:10282000454903203A4B98474346A3646364012219
:10283000230062331A706BE70020334B9847060081
:10284000236D002B20D1636CC31ADA179B185340F9
:102850009D4200D962E7394B984722004032138CE1
:1028600001339BB213842300623300221A70636C1D
:10287000626CB21AD11752184A40009232003049A5
:102880000320234CA04749E7636CC31ADA179B184F
:1028900053409D4200D941E7636D01336365226D6A
:1028A000934217D31D4B9847244B9847626D236D75
:1028B00024490320164DA8472200623200231370DA
:1028C0004022A35463650F4B1A68916E1E4B0B4058
:1028D000936623E7194B98472300623300221A704E
:1028E000626D236D19490320094DA847636C626C22
:1028F000B21AD11752184A400092320010490320F0
:10290000A8470BE704000020D9900000BC03010099
:102910009D1200000204000055050000BD1B0000D0
:1029200028040100FFFDFFFFFFF7FFFF996700008C
:102930009804010068040100D80401008526000005
:102940000005010068050100FFFBFFFF40050100D5
:1029500010B50E4B1B689A6E120513D440229A5C78
:10296000D2B2012A0CD0022A0DD09A6E920509D556
:10297000DA6C0132DA64996E054A0A409A6601E01F
:10298000044B984710BD034B9847FBE70400002019
:10299000FFFDFFFFBD26000010B52A4B1B79002B61
:1029A00000D110BD3220284B98475120274B984723
:1029B00000210020264B984700210020254B9847F6
:1029C0000020254B984701000020244B9847002009
:1029D0000021234B1860596000210020214B9847AB
:1029E0000023214A1370214A1370164A1371204B99
:1029F0001A78042A06D893001E4AD3589F461E48C8
:102A00001E4B9847852040001D4B18601D4B01222E
:102A10001A7010325A7019681B4B98471B48174B95
:102A20009847BEE71A48154B9847EBE71948134BF0
:102A30009847E7E71848114B9847E3E717480F4BCB
:102A40009847DFE7CC0B0020D95400006D560000FA
:102A5000E9900000C9900000D99000005D9000004E
:102A6000C80800202D900000600B0020D608002030
:102A70005C090020A8050100DC050100ADA40000F0
:102A8000980B0020780B002029050000C4060100E7
:102A90000806010034060100600601008C060100F2
:102AA00010B5054B1C68A26E80239B001343A366E0
:102AB000024B9847A06310BD04000020458E000023
:102AC00070B504001F4E32005C211F4DA847320034
:102AD0005D212000A8471D4EB2685E212000A84756
:102AE00032225F212000A847002260212000A84751
:102AF000174A61212000A847164A62212000A847F2
:102B0000032252212000A847092250212000A84773
:102B1000092251212000A847328AB18920000E4B9A
:102B20009847328BB18A20000C4B9847328CB18B7E
:102B300020000B4B9847328DB18C2000094B9847F1
:102B400070BDC046FF7F0000FD8E0000F008002031
:102B500001000080FFFFFF7F299100003D910000F0
:102B6000519100006591000070B505003E4A1B219F
:102B70003E4CA047002217212800A0473C4A1821BC
:102B80002800A0473B4A19212800A04707221A2104
:102B90002800A047384A0A210020A047374A0421CC
:102BA0000020A0478026B605320005210020A0475E
:102BB000320006210020A047314A07210020A0470B
:102BC000304A09210020A0472F4A08210020A047B1
:102BD00000221F212800A047002220212800A04712
:102BE000002221212800A047002223212800A047FD
:102BF000022252212800A047082263212800A04772
:102C0000002229210020A047012252210020A047B4
:102C100000221C210020A047FA22120124210020BA
:102C2000A047FA208000194B9847194E32005C21CA
:102C30002800A04732005D212800A047154B9A6864
:102C40005E212800A047002260212800A047124AE8
:102C500061212800A047114A62212800A0470322D1
:102C60006D210020A04770BD32000200FD8E0000E3
:102C70009F0F00001919000000010018100010003B
:102C80004E014E0197814100C5814100D954000099
:102C9000FF7F0000F008002001000080FFFFFF7FA1
:102CA00070B5040000221A214C4DA84700221B21B8
:102CB0002000A847002217212000A8470022182141
:102CC0002000A847002219212000A84700220A213D
:102CD0002000A847002204212000A8470022052147
:102CE0002000A847002206212000A8470022072133
:102CF0002000A847002209212000A847002208211F
:102D00002000A84700221F212000A84700222021E0
:102D10002000A847002221212000A84700222321CB
:102D20002000A847002252212000A847002263214A
:102D30002000A847002224212000A84700222621A5
:102D40002000A847002227210020A84700225C215C
:102D50002000A84700225D212000A84700225E2114
:102D60002000A84700225F212000A84700226621FA
:102D70002000A847002261212000A84700226221EC
:102D80002000A847002252212000A84700225021FD
:102D90002000A847002251212000A84700226321DB
:102DA0002000A847002268212000A84700226B21AC
:102DB0002000A847002260212000A847002200210F
:102DC0002000074B9847002200212000054B984720
:102DD000002200212000044B984770BDFD8E0000AA
:102DE000099100005191000065910000F0B5C646C0
:102DF00000B582B005000E00594CA088594FB84765
:102E000000230122292101952800574DA8470123BD
:102E1000002252210198A847002301222421019871
:102E2000A847330000222421019E3000A847002338
:102E300000221C213000A847FA204000B8474B4F21
:102E40004B4E3A680F2130684A4DA847E0653A6812
:102E500030681021A847002834D180235B019846B0
:102E6000424F434E3A6811213068424DA8473C4BCF
:102E700098653A6830681221A847002825D1802536
:102E80006D013D4B1B78012B38D0002B1FD0022B3E
:102E90004BD0042B55D000222721019C2000374D18
:102EA000A847002252212000A847FA2040002D4BBD
:102EB000984701222A212000314B984702B004BCD8
:102EC0009046F0BD00239846CAE70025D9E7424660
:102ED00025210020294EB047214FFA6D2621019867
:102EE000B0472A002C210020B047BA6D2D210020C8
:102EF000B04700222E210020B047CCE742462521D2
:102F000000201E4EB047164FFA6D26210198B0479B
:102F10002A002C210020B047BA6D2D210020B04797
:102F200000222E210020B047B5E70D4BDA6D262197
:102F3000019C2000114DA847424625212000A847AA
:102F4000A9E70822434613431A00252100200B4D10
:102F5000A847034BDA6D26210198A8479BE7C04696
:102F6000F0080020D9540000B98F000014000020A0
:102F700010000020AD4600005C090020FD8E00001E
:102F8000998F000070B50822632100200B4CA047E8
:102F900000221F210020A047094D2A68202100207F
:102FA000A0476A6821210020A047AA6824210020A8
:102FB000A047022252210020A04770BDFD8E0000D4
:102FC000DC08002010B5802149009823C022D205DA
:102FD000D150FD390020174B98476023164AD35C27
:102FE000002B03D10022154B5A7210BD0020002186
:102FF000134B18605960002263210020114B984741
:1030000000210020104CA0470C4B00225A725A613C
:103010001A61002100200D4B98470D4900200D4BEF
:103020009847054BD96A0020A04703210020014B97
:103030009847DAE7E9900000F0080020CC0B002068
:10304000C8080020FD8E00002D900000C9900000EF
:103050006A0401006D90000010B507495420074C28
:10306000A04707495120A04706493520A0470649F7
:103070003720A04710BDC046A12A000071550000AE
:1030800099290000ED2400007991000070B5051C1D
:103090000C001600002200231E490A604B601E49E6
:1030A0000A604B60002100201C4B9847002E28D05E
:1030B000281C1B4B9847010000201A4B98471A4BBD
:1030C0001C601A481A4B984703210020194B984757
:1030D0000022194B1A700132184B1A70184B1B79C9
:1030E000002B07D1A333174AD35C002B02D1012256
:1030F000154B1A701548164B98471648164B9847AB
:1031000070BD281C064B984701000020134B9847C0
:10311000D5E7C046F8070020900B00202D90000056
:10312000E5D000005D900000240C0020680900201C
:10313000798B0000E990000011080020600B00204E
:10314000CC0B002018080020880B0020280E00203F
:10315000F5580000940E0020B95800006D90000052
:10316000F0B5DE4657464E464546E0B593B0CF4BE8
:103170009B78002B06D113B03CBC90469946A246E2
:10318000AB46F0BD0022C94B9A700020C84B98474F
:1031900000280AD00020C74B9847C74B1A78072A47
:1031A000E9D89300C54AD3589F460321C44B98479A
:1031B000F0E70020BF4B9847BC4DAE69EF69C14CAA
:1031C000A04732003B00C04EB047C04B9847C317E2
:1031D000C01858402E6F6F6FA047012432003B008B
:1031E000BB4DA847002800D10024E4B2002C41D0F8
:1031F000012CC0D1AD4B3133FF3318685968B54B42
:103200009847B54B1C685D6822002B00B34EB04751
:10321000002811D0B24B1A6D5B6DB24E2000290010
:10322000B04702000B00AC490A604B60AE4C20680E
:103230006168B04720606160AC4CAB4B1A685B685A
:1032400022606360994BF83318685968A14B98471E
:103250006568246822002B00A04EB047002800D1EA
:1032600089E720002900994B984701000020A04BD6
:10327000984780E700208F4B98478C4DAE69EF69E7
:10328000904B9A469847904C32003B00A0478F4B9A
:1032900098469847C217831853402E6F6F6F0B9351
:1032A0001800D04732003B00A047EC246400C04720
:1032B0002851F8229246AA44524610685168854A1D
:1032C00090469047884B186059602A6F6B6F0C923C
:1032D0000D930022874B804908684968864EB047A5
:1032E0000E900F912E003136FF3630687168C0475E
:1032F00006000F000020814B98478346514608681E
:103300004968C0472C590894069007915C4604947C
:10331000029603970E980F99009001910C9A0D9BBD
:103320000B997748774CA047AA23FF33EA5C002328
:10333000012191425B41DBB2911E4D424D41D01EB5
:1033400041424141C8B22B430AD1002808D1043A76
:10335000D2B2012A00D90EE70122574B1A700AE7B0
:103360000222554B1A7006E70020524B98474F4DEA
:10337000AE69EF69534CA04732003B00524EB04754
:10338000524B9847C317C0185840AE6FEF6FA04715
:10339000012432003B004E4DA847002800D10024F4
:1033A000E4B2002C25D0012C00D0E4E63F4B0133E1
:1033B000FF3318685968474B98474C4B1A685B684D
:1033C000464CA047002800D1D5E6474C424B1A682E
:1033D0005B6820686168434DA84720606160434B8B
:1033E00018605960394B984701000020404B9847BE
:1033F000C1E600202F4B98472C4DAE69EF69314B49
:103400009A469847304C32003B00A0472F4B9846D5
:103410009847C21783185340AE6FEF6F0B93180095
:10342000D04732003B00A047EC246400C04728513D
:103430006A1CFF32924610685168264A90469047AF
:10344000294B18605960AA6FEB6F0C920D93002204
:10345000284B214908684968274EB0470E900F91C4
:103460002E003936FF3630687168C04706000F00FD
:103470000020224B98478346514608684968C04758
:103480002C590894069007915C4604940296039781
:103490000E980F99009001910C9A0D9B0B991A4868
:1034A000184CA0470222044B1A7064E668090020F9
:1034B000F9900000D990000011080020BC0501001F
:1034C000E9900000ADEC0000D9E5000045EC0000FB
:1034D00045C9000085050000900B002081C900004F
:1034E000F008002051D20000F8070020580B0020FF
:1034F0002D90000000408F40D9E000001D9000009A
:10350000C407010091A30000F80701000020C14B8F
:103510009847C14CA669E769C04DA84732003B00F7
:10352000BF4EB047BF4B9847C317C01858408034B0
:1035300026686768A847012432003B00BA4DA847B7
:10354000002800D10024E4B2002C44D0012C00D08B
:1035500011E6B14B4133FF3318685968B34B9847B4
:10356000B34B1C685D6822002B00B24EB0470028A8
:1035700012D0B14B1A6D5B6D20002900A84CA047FA
:1035800002000B00AA490A604B60AC4C20686168DD
:10359000AB4DA84720606160AA4CA84B1A685B68D5
:1035A000226063609C4B0933FF33186859689F4B56
:1035B00098476568246822002B00A34EB047002876
:1035C00000D1D8E520002900964B98470100002043
:1035D0009E4B9847CFE500208E4B98478E4CA669AE
:1035E000E7698E4B9A4698478D4D32003B00A847BD
:1035F0008C4B9B469847C2178318534080229046B5
:10360000A0444246166857680B931800D047320012
:103610003B00A847EC235B009946D8474B46E05057
:10362000842252009246A2445246106851687F4E4E
:10363000B047824B186059604246536812680C923A
:103640000D937B4F0022824B38687968814DA847E3
:103650001090119123004133FF3318685968B04727
:103660000E900F9100207C4B984780465146086889
:103670004968B0474B46E65808960690079146467B
:1036800004960E9D0F9E0295039610981199009036
:1036900001910C9A0D9B0B997048714DA84700221F
:1036A00000233A607B60AA23FF33E35C594259410F
:1036B0009A1E5442544121431A1F54425441E2B2CB
:1036C000002915D1002A13D15A1E54425441D91E43
:1036D0004A424A412243053B58425841C3B2002A5C
:1036E00002D1002B00D146E504225E4B1A7042E560
:1036F00003225C4B1A703EE50020464B9847464C2F
:10370000A669E769454DA84732003B00444EB047E3
:10371000444B9847C317C0185840883426686768D8
:10372000A847012432003B003F4DA847002800D1A4
:103730000024E4B2002C08D0012C00D01BE50020AE
:1037400000213B4B1860596015E50020314B98472C
:10375000314DAE69EF69314B9A469847304C320093
:103760003B00A0472F4B9B469847C21783185340F6
:1037700088229146A9444A46166857680B93180058
:10378000D04732003B00A047EC246400D8472851C2
:10379000882252009346AB445A4610685168234A27
:1037A00090469047254B186059604A465368126806
:1037B0000C920D930022264B1D4908684968254E3E
:1037C000B0470E900F912E004936FF363068716871
:1037D000C04706000F0000201F4B984781465946FE
:1037E00008684968C0472C590894069007914C46D0
:1037F0000494029603970E980F99009001910C9AE9
:103800000D9B0B991848164CA0470422154B1A70B3
:10381000B1E4C046D990000068090020ADEC00007A
:10382000D9E5000045EC000045C900008505000011
:10383000900B002059C90000F0080020F807002074
:1038400051D20000580B002081C900002D900000CB
:1038500000408F40D9E000001D9000002C080100BE
:1038600091A3000011080020600801000020CB4B4C
:103870009847CB4CA669E769CA4DA84732003B0080
:10388000C94EB047C94B9847C317C0185840903429
:1038900026686768A847012432003B00C44DA8474A
:1038A000002800D10024E4B2002C46D0012C00D026
:1038B00061E4BB4B5133FF3318685968BD4B9847DF
:1038C000BD4B1C685D6822002B00BC4EB047002831
:1038D00012D0BB4B1A6D5B6D20002900B24CA04783
:1038E00002000B00B4490A604B60B64C2068616866
:1038F000B54DA84720606160B44CB24B1A685B6854
:1039000022606360A64B1933FF3318685968A94BCE
:1039100098476568246822002B00A84EB04700280D
:1039200001D1FFF728FC20002900A04B9847010097
:103930000020A74B9847FFF71EFC0020974B9847A5
:10394000974DAE69EF69974B9A469847964C32006F
:103950003B00A047954B9B469847C217831853409E
:1039600090229146A9444A46166857680B9318005E
:10397000D04732003B00A047EC246400D8472851D0
:103980008C2252009346AB445A4610685168894ACB
:10399000904690478B4B186059604A4653681268AE
:1039A0000C920D9300228B4B8349086849688A4E1C
:1039B000B0470E900F912E005136FF363068716877
:1039C000C04706000F000020844B984781465946A7
:1039D00008684968C0472C590894069007914C46DE
:1039E0000494029603970E980F99009001910C9AF7
:1039F0000D9B0B997A487B4CA047AA23FF33EA5CC6
:103A00000023012191425B41DBB2911E4D424D41A9
:103A1000D01E41424141C8B22B430CD100280AD1EB
:103A2000043AD2B2012A01D9FFF7A5FB05226E4B59
:103A30001A70FFF7A0FB06226B4B1A70FFF79BFB77
:103A40000020564B9847564CA669E769554DA84744
:103A500032003B00544EB047544B9847C317C01830
:103A60005840983426686768A847012432003B0014
:103A70004F4DA847002800D10024E4B2002C28D0E4
:103A8000012C01D0FFF777FB454B2133FF3318683A
:103A90005968484B98474D4B1A685B68474CA0479C
:103AA000002801D1FFF767FB464C434B1A685B685F
:103AB00020686168444DA84720606160434B1860EE
:103AC00059603A4B984701000020414B9847FFF757
:103AD00052FB0020314B9847314DAE69EF69314BB5
:103AE0009A469847304C32003B00A0472F4B9B46EC
:103AF0009847C2178318534098229146A9444A46D2
:103B0000166857680B931800D04732003B00A04757
:103B1000EC246400D8472851902252009346AB44CD
:103B20005A4610685168234A90469047254B1860C2
:103B300059604A46536812680C920D930022254B37
:103B40001D4908684968244EB0470E900F912E0019
:103B50005936FF3630687168C04706000F000020F4
:103B60001E4B98478146594608684968C0472C59FA
:103B70000894069007914C460494029603970E9879
:103B80000F99009001910C9A0D9B0B991748154CB9
:103B9000A0470622144B1A70FFF7EDFAD9900000E7
:103BA00068090020ADEC0000D9E5000045EC0000FC
:103BB00045C9000085050000900B002059C9000090
:103BC000F0080020F807002051D20000580B002018
:103BD0002D90000000408F40D9E000001D900000B3
:103BE0009408010091A3000011080020C8080100FA
:103BF0000020AE4B9847AE4DAE69EF69AD4CA04783
:103C000032003B00AC4EB047AC4B9847C317C018CE
:103C10005840AE6DEF6DA047012432003B00A84D27
:103C2000A847002800D10024E4B2002C34D0012C95
:103C300001D0FFF7A0FAA34B1B78002B25D0A24B95
:103C4000186859680022A14BA14CA047002801D157
:103C5000FFF791FA9F4B186D596D9F4C9F4D22684D
:103C60006368A847206061609D4C22686368A8472C
:103C700020606160944B18605960904B9847010038
:103C80000020984B9847FFF776FA9748974B98474C
:103C900001228C4B1A70D2E70020844B9847844D48
:103CA000AE69EF69834B9A469847834B9946320039
:103CB0003B00C847814CA047C21783185340A0223D
:103CC0009046A8444246166857680B931800D047A0
:103CD00032003B00C847EC277F00A047E851942200
:103CE00052009346AB445A4610685168804CA04736
:103CF0007B4B186059604246536812680C920D93D2
:103D000000227C4B7449086849687B4EB04710908C
:103D100011912E006136FF3630687168A0470E9011
:103D20000F910020754B984706005B46186859684C
:103D3000A047EC5908940690079104960E990F9AA3
:103D40000291039210981199009001910C9A0D9B89
:103D50000B996B486B4CA0470023EB516A4B1B78C7
:103D6000013BDBB2012B07D96848694B984767488C
:103D7000674B9847FFF7FFF90722664B1A70F6E783
:103D8000614B1B78012B17D0022B01D0FFF7F3F901
:103D90000020614B98474F4B5C6B604B1C60604B45
:103DA0001B78012B41D0002B1FD0022B5DD00122AC
:103DB000554B1A70FFF7DFF90020574B9847454BDA
:103DC000596B564B1960574B1B78002B08D00122BA
:103DD0005548564B984702224B4B1A70FFF7CBF9C8
:103DE00001225348514B9847F5E74E4B1B78002B67
:103DF0000FD0504B186A504DA8475049504B984728
:103E0000504B98474042A84701222100474B984712
:103E1000CDE7484B186A484B98474849484B984764
:103E200000222100414B9847C1E73E4B1B78002BF5
:103E30000FD0404B186A404DA8474349404B984724
:103E4000404B98474042A84701222100374B9847F2
:103E5000ADE7384B186A384B98473B49384B984781
:103E600000222100314B9847A1E72E4B1B78002BF5
:103E70000FD0304B186A304DA8473049304B984727
:103E8000304B98474042A84701222100274B9847D2
:103E90008DE7284B186A284B98472849284B9847A4
:103EA00000222100214B984781E7C046D9900000AD
:103EB00068090020ADEC0000D9E5000045EC0000E9
:103EC00045C9000068050020580B00200000244070
:103ED0006DC90000F0080020900B002051D20000B6
:103EE000F80700202D900000FC080100ADA40000A0
:103EF0008505000000408F40D9E000001D900000C3
:103F00000409010091A30000D8080020940E0020AD
:103F1000F558000011080020D9540000240C00209E
:103F20005C090020EA080020004021C68D30000016
:103F300085422146CC0B002025D10000269349471D
:103F4000ADCD0000E5D000002693C94710B5364B33
:103F50001B6840229A5C022A10D00020334B9847FD
:103F6000C317C0185840182803DC314A13680133BE
:103F700013602F4B1B68312B0BD810BD62329B5C3A
:103F8000002BEAD02B4B98472B4B1B78002BE4D10E
:103F9000F3E70024264B1C600020244B9847274B56
:103FA0001860254B1C70264B1C70264B1C70A123DF
:103FB000254AD4541C4B1B6840229A5C022A16D016
:103FC00085204000214B1860214B01221A701032CD
:103FD0005A7019681F4B98471F48204B9847204B31
:103FE0001B78022B15D01F481F4B9847C5E762323C
:103FF0009A5C002AE4D0002264215A5424395A548D
:10400000996E1A4A0A409A6619490320194B984733
:10401000D6E70422184B1A701248184B9847012211
:10402000074B1A70A9E7C04604000020A9900000C1
:104030001C0C002051290000880B0020C40800201F
:10404000600B0020D608002018080020980B0020E4
:10405000780B00202905000070090100ADA40000C4
:10406000D8080020940E0020F5580000FFFBFFFF49
:10407000380901009D120000700B0020B9580000A3
:10408000F0B5CE46474680B583B0544A1378022136
:104090008B431370524B1B68002B55D00020514BA3
:1040A000984705004E4B1B68DC6800204E4B984734
:1040B000060000204D4B9847022803D00221002023
:1040C0004B4B98474B4B9847454B1B689B6E5B058A
:1040D0003FD4434B1B685A6A002A0FD0464A527895
:1040E000002A0BD09A6E520508D4434A5268921B9C
:1040F000D11752184A405B6A9A422DD23E4B5B78E8
:10410000002B41D0A54250DD20003C4B98473A4B54
:104110009C68211C3A4B984700280DD0394B1E6CE7
:104120005F6C201C384B984732003B00374CA0474F
:10413000374B9847304B98602F4B9868354B9847D2
:1041400001000020344B984703B00CBC90469946C0
:10415000F0BD324B9847BCE7314B9847314B1A685A
:1041600001321A60244B99465B689B1B1C49096805
:10417000496AD8171B18434000912B4903202B4F45
:10418000B8474B465E60B9E71B4E28001B4B98476B
:10419000B0600020144B98477060FA21890000201D
:1041A000234B984701237370ACE72000134B9847CB
:1041B000114B9C68211C1F4B98470028BCD0114B09
:1041C0001E6C5F6C201C104B984732003B001A4C51
:1041D000A0470F4B9847084B9860ADE7040C0020B0
:1041E000040000204D900000D9900000F9900000DC
:1041F000E9900000458E00006805002025D10000F0
:10420000B9C90000F0080020A1ED0000D9E50000C8
:1042100045EE0000E5D000003D900000512900006F
:104220008526000008080020D00901009D1200002A
:104230002D900000E1C9000051D2000010B50CE043
:104240000278084B9A62074B1B7E5B07FBD5054B38
:104250009B6A0B70013101302200541EE4B2002A27
:10426000EED110BD0004004210B50CE00278084BFE
:104270009A62074B1B7E5B07FBD5054B9B6A0B7055
:10428000013101302200541EE4B2002AEED110BDEB
:104290000010004270B5C024E40580256D0394230E
:1042A000E550D2B2024B98479823E550012070BDEB
:1042B0006942000010B582B0040001A80523037014
:1042C00000234370837003220449054B984700285C
:1042D00002D0024B5B78237002B010BD7405002041
:1042E0009542000010B582B06B46DC1D2000044BE7
:1042F00098472378DB07F7D4002002B010BDC046F2
:10430000B542000000B583B001A806230370012266
:104310000449054B9847002802D0002003B000BD97
:104320000338FBE7740500209542000000B583B018
:1043300001A89F230370002343708370C37004227D
:104340000649074B9847002805D0044A5178054B89
:104350001972D2785A7203B000BDC04674050020AD
:10436000954200007406002010B50E4B98470028B7
:1043700017D00D4A0D4BDA60002203E008330B49D9
:10438000CB600132052A0BD8084B1C7ADB681979FF
:104390008C42F3D105494C7A59798C42EED100E038
:1043A000002010BD2D430000E40901007406002028
:1043B00000B583B0044B9847002801D103B000BD7D
:1043C00001A8024B9847F9E769430000B542000095
:1043D00070B582B004000D0016000F4B98470028FE
:1043E00003D00024200002B070BD01A80323037095
:1043F000230C4370230A8370C4702A1D92B20749AC
:10440000074B9847041EEDD02A00044904313000C0
:10441000044B9847E6E7C046E542000074050020DB
:10442000954200008D9A0000F0B5DE4657464E4694
:10443000C0B582B005000F00160021E001A80223DC
:1044400003702B0C43702B0A8370C5702D193F1B12
:10445000C023DB05994680235B039A4694234A4692
:104460005146D15004221549154B9B469847E2B25C
:1044700012493000D84798234A465146D150361940
:10448000002F10D00F4B9847002813D10E4B9847A0
:10449000002811D1FF242C4080235B001C1BA74265
:1044A000CCD23C00CAE7012002B01CBC91469A461F
:1044B000A346F0BD0020F7E70020F5E774050020D3
:1044C00069420000E542000005430000F0B583B0FA
:1044D0000C1E5AD0002803D1802149002C4B1960B2
:1044E0006B46D871073369468A71294A10681A00E9
:1044F0000121284B9847002802D1022003B0F0BDCB
:104500006B46DA79224D130029682348234EB047C1
:104510002B68581C28606B469A1D01211D4B98473B
:10452000002801D10220E9E76B469E1D9A79184DBB
:10453000130029681A48194FB8472B68581C28607F
:1045400031782200134B9847002801D10220D5E78B
:104550006B469D796B1EDBB2002205E0E15CD80062
:1045600081400A43013BDBB2AB42F7D3084C130056
:1045700021680C48094DA8476B4606331B78226812
:104580009446634423600020B8E70120B6E7C046A4
:10459000480B002029440000140A010091A30000E8
:1045A0004C0A0100840A0100F0B583B006000C003B
:1045B000171E69D0002969D000251B2D5FD8354B07
:1045C000186822000121344B9847002860D02378D6
:1045D000B3421CD02F4B1A68501C1860621C01217A
:1045E0002D4B98472378FF2B2CD06378FF2B29D0B5
:1045F000284802689446634401330360A21C0023E8
:10460000A37061780068244B98470135D5E7214DA8
:104610002B683B6001233B712B68581C2860621C8F
:1046200001211D4EB0472B6801332B60A71C0422CB
:1046300000213800194B9847617828683A00B04744
:1046400000201FE01648174B9847124B1A680223A8
:10465000FF339A4201D0052014E0802252000D4B16
:104660001A6000250195FC3A01A900200E4CA047D4
:104670000195022201A90120A047052002E00023A4
:104680003B71052003B0F0BD0120FBE70120F9E7F5
:104690000320F7E7480B0020D14300009F9A000059
:1046A000C00A0100ADA40000CD44000070B584B084
:1046B000040008001500002C36D0002A36D08022D5
:1046C00052001B4B1A602A0021001A4B9847002801
:1046D00006D1194B1B685E78731EDBB200200FE019
:1046E000002323706370A370E37023716371A36070
:1046F00016E0E2189278D9008A401043013BDBB201
:10470000B342F6D3A06021786378029001900093C1
:104710000A000A480A4EB0472B79002B02D1032029
:1047200004B070BDA068FBE70120F9E70120F7E7BE
:10473000480B0020A9450000100000206C0B010070
:1047400091A30000FEE7000010B5104A104B9A42FA
:1047500009D00F4B0D4A03E011681960043304328D
:104760000C498B42F8D30C4B02E000221A60043350
:104770000A4A9342F9D30A4AFF210A4B8B439360BA
:10478000094B9847094B9847FEE7C046A01B01001C
:10479000000000203C020020400200207412002093
:1047A00000ED00E000000000459A0000A57900003F
:1047B00010B5094AD1698023DB010B43D361412144
:1047C000FC23064AD150064B98470200054906488B
:1047D000064B984710BDC04600080040001C004032
:1047E0002578000000380042280E0020755800008F
:1047F00010B5094AD16980235B020B43D361412183
:1048000080235B00054AD150054B984702000549BB
:104810000548064B984710BD00080040001C0040AA
:104820002578000000400042940E002075580000DA
:10483000022182235B00C022D205D1508222D20500
:1048400024330B49D150C0210906D1504221FF31F8
:10485000535C012083430343DBB253541139535C4F
:104860000F20034010200343DBB253547047C0466F
:1048700002000040054AD16980239B020B43D361AB
:10488000402182235B00024AD1507047000800405B
:10489000001C004010B5064B9847064B9847064B46
:1048A0009847020005490648064B984710BDC04688
:1048B00075480000314800001962000000440042C1
:1048C000240E0020F5510000F0B5DE4657464E4656
:1048D0004546E0B583B0412188238D4AD1508D4AA9
:1048E00051698023DB000B435361C026F60580230A
:1048F0009B029B4673608223DB05874D9D62874A3E
:104900009A625127DA5D04208243DA55DC5D012189
:104910008C4301221443E4B2DC55193FDC5D0E32B6
:1049200091461440DC558022D20272609D627C4A1E
:104930009A621A37DC5D8443DC55DC5D8C430122CE
:104940001443E4B2DC55193FDC5D4A469443DC5520
:104950008024240374609D62724C9C6244329046B1
:104960009C5C84439C549C5C8C43523A1443E4B258
:1049700042469C54DC5D4A461440DC5575329246F2
:104980008024A403B4506F37DD51674ADA51D52231
:1049900090469C5C84439C549C5C8C43D43A144366
:1049A000E4B242469C541B3A90469C5C4A461440F2
:1049B00042469C54802424045246B450DD515B4C42
:1049C000DC512F37DC5D8443DC55DC5D8C43833A5E
:1049D0001443E4B2DC551C3FDC5D4A461440DC5510
:1049E000F532904680246402B450942464001D5132
:1049F0004F4F1F514C3292469F5C87439F549F5CA0
:104A00008F43503AFF3A1743FFB252469F54183A29
:104A10009A5C4F46BA432A37FF37DA5542465F461B
:104A2000B7501D513D4A1A515222FF3293469A5CAB
:104A3000824392465A4657469F549A5C8A430127BE
:104A40003A436F46FA71FA7992465A4657469F544E
:104A5000193A9A5C4F463A402A37FF37DA554246B0
:104A60008027FF02B7501D512D4A1A51A92252002A
:104A700092469F5C87439F549F5C8F43523AFF3A14
:104A80001743FFB252469F543A22FF3292469F5C30
:104A90004A46974352469F5480277F034246B75069
:104AA0001D51244F1F51503292469F5C87439F54A3
:104AB0009F5C8F43543AFF3A1743FFB252469F54CC
:104AC0001A3A93469A5C4F46BA435F46DA554246D5
:104AD0008027BF03B7501D51134A1A515624FF3483
:104AE0001D5D85431D55185D884301220243D2B2E6
:104AF0001A555A469A5C49460A4059465A540E4B32
:104B0000984703B03CBC90469946A246AB46F0BDE0
:104B1000001C00400008004000000240020002C0EB
:104B2000040002C0080002C0200002C0800002C0D1
:104B3000010002C0100002C03D550000F0B5C6469D
:104B400000B5C022D2051023536193608223DB0598
:104B500024499962C02109068C4699624420195C57
:104B60000127B94301263143C9B219543221585C97
:104B70000F25A8430324A04644462043C0B25854FE
:104B800020205061906018489862604698624520E5
:104B90008446185CB8433043C0B264461855585C2C
:104BA000363C20403024A44664462043C0B25854CA
:104BB0000E3151600D4A9A620D4A9A624622995C02
:104BC000042081439954995CB9433143C9B2995443
:104BD00033215A5CAA4340460243D2B25A5404BC21
:104BE0009046F0BD10000040200000404000024010
:104BF000000002C0064B4021CC2299500331043AF8
:104C00009950044AD36941390B43D3617047C04678
:104C1000001C004000080040064B4021D022995063
:104C20000331083A9950044AD3693F390B43D361A1
:104C30007047C046001C00400008004030B5822389
:104C4000DB054022995C0125A94301242143C9B217
:104C500099543020195C313A914303221143C9B26F
:104C6000195441215A5CAA432243D2B25A541A5CC5
:104C700032390A4030210A43D2B21A5430BD000002
:104C800010B582B0064B9847002300931033054AB5
:104C900005490648064CA047064B984702B010BD90
:104CA000194C00008406002000080042440E002039
:104CB0004D5B00003D4C0000F0B5C64600B5C02479
:104CC000E4058023DB0363608223DB05244A9A62C8
:104CD000244A9A6256215A5C042082435A545A5CF0
:104CE000033880468243844660460243D2B25A5417
:104CF0003B27DA5D47398A4302210A43D2B2DA55AB
:104D0000802212046261A2608021C9059962164A5C
:104D10009A6257201A5C4546AA4365462A43D2B296
:104D20001A54D85D0F26304020252843C0B2D855EC
:104D3000802292046261A26099620C4A9A625922AE
:104D4000995C4046814360460143C9B299543C2175
:104D50005A5C32402A43D2B25A5404BC9046F0BD49
:104D600000000240400002C0800000C0000200C0FD
:104D7000064B4021D82299500331103A9950044AE9
:104D8000D36933390B43D3617047C046001C0040E0
:104D900000080040054B4021E42299504320043A8A
:104DA0009850034AD3690B43D3617047001C0040FD
:104DB0000008004030B58223DB05D022995C012534
:104DC000A94301242143C9B29954B820195CC13ABE
:104DD000914302221143C9B21954D1215A5CAA430A
:104DE0002243D2B25A541A5CC2390A4020210A43E3
:104DF000D2B21A5430BD30B58223DB05A622520050
:104E0000995C0124A14301200143C9B29954163A87
:104E1000995C0F25A94302252943C9B29954502111
:104E2000FF315A5CA2430243D2B25A543821FF31B7
:104E30005A5C0F20024020200243D2B25A5430BDA7
:104E4000064B40219422520099500331603A995008
:104E5000034A136A41390B4313627047001C004038
:104E60000008004010B5054B98470022044905484A
:104E7000054B9847054B984710BDC046414E000072
:104E800000040043F00D00209D5D0000F74D000080
:104E90008222D2054A21535C012083430343DBB2C3
:104EA00053541539535C0F20834304200343DBB272
:104EB00053547047054AD16980239B010B43D3614A
:104EC0004221F823024AD1507047C04600080040F2
:104ED000001C004010B5064B9847064B9847064B00
:104EE0009847020005490648064B984710BDC04642
:104EF000B54E0000914E00002978000000340042B9
:104F0000D40D00200557000030B58223DB05CF22E9
:104F1000995C0125A94301242143C9B29954B720C2
:104F2000195CC03A114060221143C9B21954CE2114
:104F30005A5CAA432243D2B25A541A5CBF398A43FC
:104F400006210A43D2B21A5430BD000010B5084AF7
:104F5000116980239B000B4313614021EC23054A18
:104F6000D15005490548064B9847064B984710BD58
:104F700000080040001C004000200042FC0D002002
:104F800049530000094F0000F8B5DE4657464E462B
:104F90004546E0B5784B9847C022D2050823936177
:104FA00093608223DB0575499962C02424069C62C4
:104FB0004325595D012081435955802151619160FC
:104FC0006F4DAA469D629C624727DD5D8543DD5596
:104FD0008025AD00556195606A4DA9469D629C6231
:104FE0004925AC465D5D854366469D558025ED01AE
:104FF00055619560644D9D629C624E25AC465D5D39
:10500000854366469D5580252D02556195605F4D0F
:105010009D629C624F25AC465D5D854366469D550D
:105020009825A8465151103DAB465151283155465F
:105030005D505C50C7255E5D86435E5594263935CC
:1050400095515F46D551524D5D505C50C825AA46DA
:105050005D5D8543AC46554667465F553935FF353E
:1050600095515D468027BF0057514D465D505C50BD
:10507000C9255F5D87435F558027FF0097515D46D7
:105080005751444F5F505C5042355F5D87435F55D9
:10509000842780252D01A946D5513F4D5D503F4DB8
:1050A0005D504D46D551CB25AC465F5D0425AA46E3
:1050B00055462F43FFB265465F5545464F4657510B
:1050C00065465F5D87435F5580277F0197515D4649
:1050D0005751334F5F505C50CC27DC5D8443DC5527
:1050E00080242403945154518024E4055C502D4FB6
:1050F0005F504B355F5D87435F5580277F03454693
:1051000057515D4657515C50274F5F504C355F5D9E
:1051100087435F5594515D4654515C50234A5A5021
:1051200036315A5C82435A54214B9847214B984759
:10513000214B9847214B9847214B9847214B984743
:10514000214B9847214B9847214B9847214B984733
:10515000214B9847214B9847214B9847214B984723
:10516000214B9847214B9847214B98473CBC904690
:105170009946A246AB46F8BDF5660000080000401F
:1051800080000040000200400040004000800040DD
:10519000000100400004004000080240000002C07E
:1051A00000100040080000C0100000C0004000C017
:1051B00095480000C9480000F54B000085710000CB
:1051C0003D4B0000814C0000714D00005972000001
:1051D000B94C0000954D0000A5780000B54D0000C9
:1051E000654E0000D54E0000B1470000F1470000B9
:1051F0004D4F000070B504000D0000280DD00029AF
:1052000009D0012039220649064B98472900200081
:10521000054B984770BD0020F4E70020F2E7C04638
:10522000B00B0100455E00009161000070B5040004
:105230000D00431E9841C0B24E220449044B9847CA
:1052400029002000034B9847002070BDB00B0100DF
:10525000455E0000C9610000F8B5CE46474680B5FE
:1052600006000D009046994600281AD0002A1AD050
:105270004B46002B19D1002067221C491C4FB84710
:10528000340030001B4B98470100060048461A4B7B
:10529000984748424841C0B269221449B84700279C
:1052A00009E00020E8E70020E6E70120E4E7BF1975
:1052B000BFB2B94515D92000104B984729002000EE
:1052C0000F4B98470028F9D0290020000D4B984734
:1052D0004346D855012EEAD97B1C000A4246D054D9
:1052E000E5E738000CBC90469946F8BDB00B0100CC
:1052F000455E0000DD610000D1670000FD61000037
:10530000F361000011620000EFF31083036072B6D6
:10531000BFF35F8F7047BFF35F8F036883F310881D
:10532000704710B5C369002B00D0984710BD10B569
:10533000036A002B00D0984710BD10B5436A002BBC
:1053400000D0984710BD000070B504000D00002883
:1053500015D0002911D0012041220A490A4B984753
:1053600029002000094B9847002805D1084B6360AD
:10537000084BA360084BE36070BD0020ECE7002001
:10538000EAE7C046CC0B0100455E00001D6200004C
:10539000235300002F5300003B53000010B50400BE
:1053A000431E9841C0B25C220349044B9847200039
:1053B000034B984710BDC046CC0B0100455E000072
:1053C0002963000070B504000D0000280DD00029ED
:1053D00009D001206E220649064B9847290020007B
:1053E000054B984770BD0020F4E70020F2E7C04667
:1053F000CC0B0100455E00003963000070B504006D
:105400000D0000280DD0002909D00120772206497F
:10541000064B984729002000054B984770BD002097
:10542000F4E70020F2E7C046CC0B0100455E000027
:10543000F963000070B506000D001400431E98418A
:10544000C0B281220C490D4B9847012D10D0002D80
:1054500004D0022D0ED00D20404208E03462621EBE
:105460009441E2B229003000054B9847002070BDFE
:10547000F461F4E77462F2E7CC0B0100455E0000D2
:1054800055650000F8B504000D0016001F00431E0E
:105490009841C0B2B8220549054B98473B003200FD
:1054A00029002000034CA047F8BDC046CC0B0100EA
:1054B000455E0000A165000010B5044B1C68044B5C
:1054C000984701002000034B984710BD9406002028
:1054D000B9660000ED66000010B5044B1C68044B73
:1054E000984701002000034B984710BD9406002008
:1054F000D1660000ED66000070B50A25002407E0C3
:105500000D4AB358002B00D0984770BD013AD5B270
:10551000AC42FAD82B195B10DAB2092AF5D8FF2170
:105520000B40DE000449891949688142E8D0EDD278
:105530000132D4B2ECE7C0469806002010B5002333
:1055400009E0084AD9005018012464424460002050
:10555000885001339BB2092BF3D90348034B98477A
:1055600010BDC04698060020F9540000296B0000C9
:10557000F0B5D6464F464646C0B584B00023092B49
:105580000DD8DC00334A12195268824202D001332E
:10559000DBB2F4E72F4BE15001239A4601E00023F0
:1055A0009A4600290CD05346002B41D1092B13D821
:1055B000DA00284D5259002A08D00133DBB2F5E752
:1055C0005346002B40D0244B984737E0DC00615114
:1055D0002C19606001229246002201E00132D2B211
:1055E000092A25D8092B23D801931A49DC000C1964
:1055F0006768D400091949688F42EFD24C1CEDD07E
:1056000002A98C46134FD400A0463C19664622CC12
:1056100022C60199C9008946414679184C463C1971
:1056200060CC60C13D004D44614650C950C5D5E7CE
:105630005346002B0BD00121074B984704B01CBCEC
:1056400090469946A246F0BD0D204042F6E70D2057
:105650004042F3E798060020F16B000010B50121ED
:10566000014B984710BDC046F16B000010B50021FA
:10567000014B984710BDC046F16B000070B50400A7
:105680000D00160000280ED000290AD00120342277
:105690000649074B984723683200290020009847A5
:1056A00070BD0020F3E70020F1E7C046E80B0100E1
:1056B000455E000070B504000D00160000280ED0F5
:1056C00000290AD001203D220649074B984763680C
:1056D000320029002000984770BD0020F3E7002029
:1056E000F1E7C046E80B0100455E000010B54369D4
:1056F000002B00D0984710BD10B58369002B00D057
:10570000984710BD70B504000D00002812D0002984
:105710000ED0012033220849084B98472900200069
:10572000074B9847074B2360074B6360002070BD11
:105730000020EFE70020EDE7FC0B0100455E0000D4
:10574000E1750000ED560000F956000010B50400A8
:10575000431E9841C0B24A220749084B984720008F
:10576000074B9847002804D12000064B984700209B
:1057700010BD11204042FBE7FC0B0100455E00001C
:10578000137800005B77000070B504000D00160070
:10579000431E9841C0B27C220449054B9847320011
:1057A00029002000034B9847002070BDFC0B01002E
:1057B000455E000081770000F8B50668002E02D033
:1057C000330000250CE0104B984718E09F68BC465A
:1057D0006444A41A01348F68BC420BD21D001B68BC
:1057E000002B07D05C689442F0D8A41A9F68BC468E
:1057F0006444F0E7B34203D02800044B9847F8BD57
:10580000014B9847FBE7C046655E0000915E0000D3
:10581000F8B50500446903695E1C0661037EDB0779
:1058200002D4037E9B070AD52B7E02221343DBB2F0
:105830002B76F8BD6F69E368200098473C00002C88
:10584000F7D06368F31AA2689342F2D32F0014379B
:105850003800064B9847237C012BEBD16660320061
:1058600021003800024B9847E4E7C046995E0000EB
:10587000B957000070B504000D00002812D00029AF
:105880000ED001203B220849084B984729002000F0
:10589000074B984700232361064B2360002070BD0F
:1058A0000020EFE70020EDE7140C0100455E00004A
:1058B000297400001158000010B50400431E9841DF
:1058C000C0B253220749084B98472000074B98471E
:1058D000002804D12000064B9847002010BD11205D
:1058E0004042FBE7140C0100455E00000178000017
:1058F0004977000010B50400431E9841C0B26122F0
:105900000749084B98472000074B9847002804D0C8
:105910002000064B9847002010BD11204042FBE7B5
:10592000140C0100455E0000017800006D77000056
:1059300070B582B004000D00002826D0002922D0C6
:1059400001207A221F49204B9847237E01221343CE
:10595000DBB2237626001436290030001B4B984713
:10596000002814D123696B60226929003000184B8C
:105970009847237E012293432376237E9B0712D4EC
:10598000002002B070BD0020DBE70020D9E7237EB5
:105990000122934323767E320A4900200A4B98471E
:1059A00012204042EDE701A80A4B9847237E0222CD
:1059B000934323762000084B984701A8074B98474C
:1059C0000020DEE7140C0100455E00004D5E000083
:1059D000B9570000095300002D780000175300004C
:1059E00010B5083800230363436A002B00D09847A2
:1059F00010BD10B5083800230363C36A002B00D024
:105A0000984710BD10B504002C30044B9847236A0A
:105A1000083C002B01D02000984710BD455F0000D6
:105A200070B504000E00150000281DD000291DD0FF
:105A3000002A1DD100203C22FF321049104B98470C
:105A40004423E25A0833E35A9A4213D1A6644C2302
:105A5000E5520022083BE252433B2363200008301A
:105A6000084B9847280070BD0020E4E70020E2E7DB
:105A70000120E0E71C204042F5E7C0462C0C010065
:105A8000455E0000D370000070B504000200083AC3
:105A90004423D35A4C21525A93420DD00200016C38
:105AA000083A5D1C44201552C95C2000044B9847FD
:105AB0002000044B984770BD034B9847FBE7C04656
:105AC000A1700000D3700000DB700000F0B585B05D
:105AD00004000D001600002817D0002917D0002A56
