:10000000C02C0020AD6D0000A96D0000A96D00009E
:1000100000000000000000000000000000000000E0
:10002000000000000000000000000000A96D0000BA
:100030000000000000000000A96D000021B20000D7
:10004000A96D0000A96D0000A96D00006590000079
:10005000A96D0000A96D0000A96D0000A96D000048
:10006000A96D0000A96D00007D950000A96D00003C
:10007000A96D0000A96D000091950000A96D000018
:10008000918C0000A96D0000A96D0000A96D000011
:10009000A96D0000899C00009D9C0000A96D0000D6
:1000A000B19C0000A96D0000A96D0000A96D0000C1
:1000B000A96D0000A96D0000A96D000010B5064CE7
:1000C0002378002B07D1054B002B02D0044800E019
:1000D00000BF0123237010BD380200200000000083
:1000E000C8470100084B10B5002B03D0074908484A
:1000F00000E000BF07480368002B00D110BD064B8D
:10010000002BFBD09847F9E7000000003C020020DC
:10011000C8470100C84701000000000010B5024BAD
:100120009847024B984710BDED750000C9B100001B
:1001300070B504000E001D00FA2189005143090129
:100140003048314B984701380004304B1840304B51
:1001500018432660B36901221343B36123689A6987
:10016000D207FBD59A6902210A439A61294B9E4224
:1001700034D02268936902218B439361226893698A
:1001800001398B43936123689B69DB07FBD4200013
:10019000214B98476B091F2215401E3AAA40C024E4
:1001A000E405DB011E19B2601004000C8021C905B2
:1001B00001438220C005844663449962110CC02526
:1001C0002D0629439962726110238822A3502032A0
:1001D000124981508550143AA35070BD2368D861EC
:1001E0000F4B802252027E315A50BFF34F8FBFF324
:1001F0006F8F0131FF315A501A6023680122DA658E
:10020000B7E7C046006CDC02E58D00000000FF018E
:10021000030A000600200042017A0000100000409E
:1002200000E100E010B50A000121014B984710BD24
:10023000997A000010B50A000021014B984710BDC3
:10024000997A000010B584B0009100216C462171AC
:1002500006A902912373002A08D10023637369461B
:10026000044B9847044B186004B010BD012363731E
:10027000F5E7C046617A0000E407002010B584B0BD
:100280000C0002926946084B9847009B23606B461E
:100290001B79002B05D0012B01D0002002E00220A9
:1002A00000E0012004B010BD297A000010B582B032
:1002B00000910192002B06D16B4600220021054CD3
:1002C000A04702B010BD6B4601220021014CA0479F
:1002D000F7E7C046E97A000070B5430E0F241C40D2
:1002E000144B1C70450CEDB2134B1D70420AD2B278
:1002F000124B1A70C0B2124B187012490B79124E81
:1003000033706419E4B21219D2B28018C0B20A78FC
:100310008018C0B24A788018C0B28A788018C0B2FB
:10032000CA788018C0B2094A1070181A434258415E
:10033000C0B270BD3804002074080020B50500204C
:100340004005002018080020410500206108002019
:10035000F0B5D6464F4680B58FB0B24B984200D12B
:10036000DCE020D9B04B984200D188E300D8FBE014
:10037000AE4B984200D196E200D9E5E1AC4B9842F1
:1003800000D1BFE200D93DE1AA4B984200D147E33A
:10039000A94B984200D07CE20122A84B1A7100229E
:1003A000A74B1A6095E2A74B984200D1B6E000D95E
:1003B000A5E0A54B984200D10DE33ED9A34B98424E
:1003C00000D134E36CD882239B04984200D1BCE274
:1003D0009F4B984200D05CE201229E4B1A709E4BCC
:1003E00098479E4B18609E4B1B78002B00D1E7E28C
:1003F0009A4B18684042924B1C689A4B98470022CF
:100400002100994B9847954C2068984B98470423B6
:10041000642201210B20964DA84725682068914B46
:1004200098479449944B9847944B984702000B0087
:1004300029009348934CA0472BE2102800D126E2D4
:1004400025D9914B984201D100F0ECFB8F4B98429B
:1004500000D01EE2804B9847804B18608C4B1C7874
:1004600000228C4B5A60002C00D12BE31A001B7821
:1004700001210B43137002210020874B98478748C6
:10048000874B9847210087487E4B984701E2022816
:1004900000D0FEE1002000217D4B18605960F8E19A
:1004A000814B984200D1D1E2804B984200D0F0E1DC
:1004B000694B984701007E4C20607E48714B9847FD
:1004C00020687D4B98477D4B98477D4B98470100AE
:1004D00020607C4B1B78002B03D07B4B1B78002BC0
:1004E00001D1574B19607948664CA0470523642217
:1004F00001210B205E4DA8477548A047C9E1754B07
:1005000098420BD01CD8744B984207D010D8734B2C
:10051000984203D0724B984200D0BAE1052364227E
:1005200001210B20524CA0476E486F4B9847B0E119
:100530006E4B9842F2D06E4B984200D0A9E1EDE7A5
:100540006C4B9842EAD007D86B4B9842E6D06B4B85
:10055000984200D09DE1E1E7694B9842DED0694BBB
:10056000984200D095E1D9E7674B9842D6D02DD973
:10057000664B9842D2D03DD9654B9842CED0654B60
:10058000984200D085E10AA8634B9847C023DB0559
:10059000802252009C5820328221C9058858103A86
:1005A0009B5843401C4044400AA85C4B984780201D
:1005B000C0020440601E8441E0B22C4B98470A23DD
:1005C000642201210B202A4CA04762E1544B98423F
:1005D000A4D007D8534B9842A0D0534B984200D098
:1005E00057E19BE7514B984298D0514B984200D02D
:1005F0004FE193E74F4B984290D04F4B984200D039
:1006000047E18BE74D4B984200D152E1C5239B0453
:10061000984200D03DE14A4B98474A48324B9847B0
:1006200037E1C04600EA0A0200160C020002140379
:1006300000021A0200A20D0200001A022008002087
:1006400078080020000A0A020000060200000A02E0
:1006500000020802E007002079370000800800202F
:1006600042050020B5F70000855400006137000006
:1006700065360000854221461DEE00003114010060
:100680005419010089C8000015000002180000027A
:100690001808002058080020D9B40000F4090020F0
:1006A0001D7F0000181A010000020A0200080A0259
:1006B0007C080020BC1801003D1301002D33000010
:1006C000D51201002E050020B8070020CC1801002B
:1006D000E018010000320A02002C0A02001C0A0283
:1006E00000220A02B0180100A5C90000002E0A026B
:1006F00000300A0200380A0200340A0200360A02F8
:1007000000E60A0200E80A02000C0B0200860B0257
:1007100000A20B0200140C026D7900007B7900002E
:1007200000F80A0200EC0A0200EE0A0200FA0A02CD
:1007300000020B0200820B0200840B0200041A026A
:100740001D34000080180100E3239B04984200D16F
:10075000B0E328D8E2239B04984200D18FE3E54B15
:10076000984200D095E0E44B98470400E34B98474B
:10077000051CE349E34B9847E34B9847E34E30634E
:10078000E34B9847316BE348E34B9847E349281C18
:10079000E34B9847E34B984702000B000094E24874
:1007A000E249884775E0F0239B04984200D158E164
:1007B000DF4B98426DD1DF4B1A68DF4B186811216F
:1007C000DE4B98470690DE4B1B78002B00D151E1A1
:1007D0000020DC4B984746422E210020DA4B9847F8
:1007E0000500C64B994630009847DE218905D74B56
:1007F0009847CC4CA047D64B984706000F00069868
:10080000D44B984732003B00D34EB04706000F0050
:100810002800D24B984732003B00D14DA847D14B1E
:1008200098470500BA4B984707952900CE48BA4B20
:100830009847CE4B18785E789F78DD78CC4B1B7943
:100840009A46CC4B1B789C46CB4A1278CB49097808
:10085000534605930495039702960190C848007883
:1008600000906346C748B14EB0470698C64B9847BC
:10087000AB4FC649B847051C0798C847291CB8475D
:10088000A04702000B000799C148B04701E0C14BE7
:100890009847BA4B1B78012B00D12BE30FB00CBC4F
:1008A00091469A46F0BDBC4B9847BC48BC4B984714
:1008B000EFE70122BB4B1A70BB4B9847BB48B84BC4
:1008C0009847E6E700210020B94B9847B948B44B58
:1008D00098470020B84B98470028F3D10230B74B17
:1008E00098478A4B1B79002B09D1B548AC4B9847E8
:1008F0000D23642201210B20B24CA047C9E7B24B63
:100900009847F2E700210020A94B984700210020DA
:10091000AE4B98470023AE4A1370AE4A13707B4A21
:1009200013715372137200200021AB4B1860596091
:10093000AA48AB4B9847AB48994B98470D23642284
:1009400001210B209F4CA047A3E70122A64B1A7060
:10095000694B9847A54B1860794B1B78002B24D026
:10096000A24B18684042A24B1C68644B9847012276
:100970002100A04B98479D4C2068654B9847042365
:10098000642201210B208F4DA847256820685B4B0E
:1009900098476249624B9847624B984702000B00A8
:1009A00029009548614CA04773E7904B1868904B1D
:1009B0001C68524B9847012221008E4B9847DAE77A
:1009C0008A4B18688A4B1C684C4B984700222100C0
:1009D000884B984717E500210020754B9847002168
:1009E00000207A4B98470023794A1370794A137094
:1009F000464A1371537213727B4A13700020002110
:100A0000754B186059607548754B984703236422ED
:100A100001210B206B4CA0477848614B984738E781
:100A20000623642201210B20664CA04731E70020F9
:100A3000734B98470400364B984721003548364B96
:100A4000984721006F48394B984722E700203D4BDB
:100A5000984704002E4B984721002E482E4B98476C
:100A600017E700222E210020674B984767484C4B20
:100A700098470EE70020334B98470600ACE60BA8DA
:100A8000634B9847C023DB05802252009C582032DC
:100A90008221C9058858103A9B5843401C40444065
:100AA0000BA85C4B9847802040030440601E8441A3
:100AB000E0B2174B98470B23642201210B20414CD5
:100AC000A047E6E6544A137801218B43137053483C
:100AD000434B9847002100203C4DA8470020194B6C
:100AE0009847010000204E4B984703210020A8475B
:100AF000C8E4C04600008A0379370000B5F700005B
:100B00008542A146F9EA000075F7000020080020A0
:100B10006137000005C80216FD32000085422146FB
:100B20001DEE000031140100981A010089C8000070
:100B30000000C203100000200C000020116D000016
:100B400042050020C9B4000031B20000FDF10000F0
:100B50007DBB0000C1130100690701003D130100C6
:100B6000E1F80000D5120100E1C80216D00700200C
:100B700018080020B5050020740800203804002063
:100B800040050020B819010055F800003333CB4070
:100B9000EC190100996900004D3300009418010020
:100BA000A5C90000C0070020053500009C18010001
:100BB0000DB40000F41801001DB400001D7B0000FE
:100BC0001019010065360000A1530000D9B40000DF
:100BD0002E050020B807002020050020600A002014
:100BE000597F000020190100E00700208008002044
:100BF00078080020855400002C1901007C190100A0
:100C000089B400008C190100DDB20000A4190100B4
:100C10006D7900007B79000058080020F40900205D
:100C20004DB40000C84B9847C84B1860C84B1D789E
:100C30005B78013B58425841C64943010A7820205D
:100C4000824313430B700CA8C34B9847C023DB05AA
:100C5000802252009C5820328221C9058A5888215E
:100C600049005B5853401C4054400CA8BB4B98476C
:100C7000E30203D4B74B1B789B0625D40DA8B64BD3
:100C80009847C023DB05802252009C5820328221E5
:100C9000C9058A58882149005B5853401C4054407C
:100CA0000DA8AE4B9847630303D4AA4B1B789B0651
:100CB0000AD5A84B1B789B0672D50A2D00D9E8E50A
:100CC000AD00A74B5B599F46A648A74B9847E5E563
:100CD0000022A04B5A60DCE5A44B1B78002B03D00C
:100CE0000B239C4A5360D4E50123FAE79F4B1B7802
:100CF000002B03D00C23974A5360CAE50223FAE77E
:100D00009A4B1B78002B03D00D23924A5360C0E509
:100D10000323FAE7954B1B78002B03D00E238D4A53
:100D20005360B6E50423FAE7904B1B78002B03D001
:100D30000F23884A5360ACE50523FAE78B4B1B78F9
:100D4000002B03D01023834A5360A2E50623FAE761
:100D5000864B1B78002B03D011237E4A536098E505
:100D60000723FAE7814B1B78002B03D01223794A23
:100D700053608EE50823FAE77C4B1B78002B03D0E9
:100D80001323744A536084E50923FAE7774B1B78F1
:100D9000002B03D014236F4A53607AE50A23FAE745
:100DA0000A2D00D975E5AD00714B5B599F460022B5
:100DB000684B5A606DE56D4B1B78002B03D0012307
:100DC000644A536065E50B23FAE7684B1B78002BF8
:100DD00003D002235F4A53605BE50C23FAE7634BC1
:100DE0001B78002B03D003235A4A536051E50D238F
:100DF000FAE75E4B1B78002B03D00423554A53605F
:100E000047E50E23FAE7594B1B78002B03D0052347
:100E1000504A53603DE50F23FAE7544B1B78002BF3
:100E200003D006234B4A536033E51023FAE74F4BB8
:100E30001B78002B03D00723464A536029E5112372
:100E4000FAE74A4B1B78002B03D00823414A536032
:100E50001FE51223FAE7454B1B78002B03D009232B
:100E60003C4A536015E51323FAE7404B1B78002BEF
:100E700003D00A23374A53600BE51423FAE73D4BAE
:100E80005C69002C00D11C6920003B4B9847210075
:100E90003A483B4B984720003A4B98473A493B4BDE
:100EA00098473B4B984702000B00009439483A4959
:100EB0008847EEE4244B98470400324B9847051CC2
:100EC0003649374B9847374B98472A4EF0622A4BA2
:100ED0009847F16A34482A4B98472B49281C2B4BDA
:100EE00098472B4B984702000B0000942F482A4943
:100EF0008847CEE42E4B1B78803BDAB2142A00D907
:100F0000CCE493002B4AD3589F460F4B98470400DC
:100F1000294B197802000020284B98472000164BD7
:100F2000984721002648164B9847B7E4224B19787A
:100F30000020244B984704000F4B9847210022487B
:100F40000F4B9847AAE4C04679370000800800207C
:100F500018080020580800206D7900007B790000F7
:100F6000641601002C1A0100A5C9000042050020EA
:100F700090160100200800206137000006C8021604
:100F8000FD320000B5F70000854221461DEE00004D
:100F900031140100601A010089C800008542A14691
:100FA0003DF4000075F7000005C80216C41A0100E0
:100FB00074080020BC160100B5050020DDB2000059
:100FC00092C8021631B2000094C802162F4B19784D
:100FD000802252002E4B1A602E4B1A682E4C20682D
:100FE0002E4B9847236898682D4B9847236899683B
:100FF0002C4D28002C4B98472C4B1871236899686E
:1010000028002B4B984722681178537892680292F7
:10101000019200930A002748274CA0473EE41B4B4F
:101020001C78264B1D78264B984709902A0009A961
:101030002000244B98470998194B9847224E09994C
:101040003000194B9847194B187109993000184B0B
:101050009847099B0293019300952B0022002100E1
:101060001A48154CA04719E4084B1C78144B9847B4
:101070000300084A1268084908682100144CA04778
:101080001448154B9847FFF709FCC046B5050020EA
:10109000A0070020100000200C000020116D0000AF
:1010A0006137000084C80216F9360000D00700201E
:1010B000FD320000EC1A010089C800004005002044
:1010C00079370000A969000082C80216441B01009C
:1010D000416C0000A01B0100A5C90000F0B5DE4670
:1010E00057464E464546E0B591B00C00C84B984275
:1010F00000D1DEE021D9C74B984201D100F099FC24
:1011000000D8FCE0C44B984200D1E7E200D932E2BB
:10111000C24B984200D10DE300D91EE2C04B984269
:1011200000D192E3BF4B984200D0CAE20122BE4BED
:101130001A710022BD4B1A60E3E2BD4B984200D108
:10114000B7E000D9A6E0BB4B984200D15BE33ED9A3
:10115000B94B984200D1A5E36DD88123DB049842B6
:1011600000D10AE3B54B984200D0AAE20122B44B69
:101170001A70B44B9847B44B1860B44B1B78002BD3
:1011800000D135E3B04B18684042A84B1C68B04B07
:10119000984700222100AF4B9847AB4C2068AE4BDC
:1011A00098470423642202210C20AC4DA8472568EF
:1011B0002068A74B9847AA49AA4B9847AA4B98473B
:1011C00002000B002900A948A94CA04779E2112888
:1011D00000D174E226D9A74B984201D100F0B6FCA9
:1011E000A54B984200D06CE2964B9847964B1860FE
:1011F000A24B1C780022A24B5A60002C01D100F0B7
:101200008DFC1A001B7801210B4313700221002072
:101210009C4B98479C489D4B984721009C48944B79
:1012200098474EE2022800D04BE200200021934B69
:101230001860596045E2974B984200D1DCE3964B29
:10124000984200D03DE27F4B98470100934C2060CC
:101250009348874B98472068924B9847924B984702
:10126000924B984701002060914B1B78002B03D0D4
:10127000904B1B78002B01D16C4B19608E487C4C35
:10128000A0470523642202210C20744DA8478B48F7
:10129000A04716E28A4B98420BD01CD8894B984243
:1012A00007D010D8884B984203D0884B984200D082
:1012B00007E20523642202210C20684CA0478448E1
:1012C000844B9847FDE1844B9842F2D0834B98427F
:1012D00000D0F6E1EDE7824B9842EAD007D8814B87
:1012E0009842E6D0804B984200D0EAE1E1E77F4B9C
:1012F0009842DED07E4B984200D0E2E1D9E77D4BA8
:101300009842D6D06DD97C4B9842D2D000D81BE100
:101310007A4B9842CDD07A4B984200D0D1E10AA8BE
:10132000784B9B469847C025ED0580235B009A4685
:10133000EF588223DB05994690235B0098464B4685
:101340004246985888235B00EB5843401F40474073
:101350000AA86D4EB0478023DB021F40781E8741EC
:10136000F8B23D4B9847694F21003800684B9847C9
:10137000684C207100213800674B9847237806930A
:1013800062789446A778E0783C4B1C79634B1B78D5
:10139000634A127863490978059404900397644678
:1013A0000294069801906048007800905F48304CA5
:1013B000A04709A8D8475346EB584A4641465158DA
:1013C00088225200AD584D401D404D4009A8B047FD
:1013D0008023DB021D40691E8D41E9B25448A047BD
:1013E0006FE1544B984200D163E708D8524B9842C2
:1013F00000D15EE7514B984200D062E159E7504B73
:10140000984200D155E74F4B984200D059E150E740
:1014100000EA0A0400160C040002140500021A0473
:1014200000A20D0400001A04200800207808002003
:10143000000A0A040000060400000A04000208046E
:10144000E0070020793700008008002042050020D6
:10145000B5F70000855400006137000065360000D4
:10146000854221461DEE000031140100701C010070
:1014700089C80000150000041800000418080020A6
:1014800058080020D9B40000F40900201D7F000096
:101490005C1D010000020A0400080A047C08002008
:1014A000F41B01003D1301002D330000D512010093
:1014B0002E050020B8070020041C0100181C0100A4
:1014C00000320A04002C0A04001C0A0400220A0448
:1014D000E81B0100A5C90000002E0A0400300A0420
:1014E00000380A0400340A0400360A0400E60A043C
:1014F00000E80A04000C0B0400860B0400A20B0495
:1015000000140C046D7900007B7900000AC80418EF
:10151000F9360000D0070020FD320000B50500209C
:10152000740800203804002040050020B81901008C
:101530001C1D010000F80A0400EC0A0400EE0A0475
:1015400000FA0A0400020B04DE4B984200D1B0E618
:10155000DD4B984200D0B4E0ABE6DC4B984200D1C2
:10156000C2E0DB4B984200D0ABE0DA4B9847DA4858
:10157000DA4B9847A5E0DA4B984201D100F077FCAE
:1015800029D8B123DB04984201D100F055FCD54B9A
:10159000984200D095E0D44B98470400D34B98472D
:1015A000051CD349D34B9847D34B9847D34E306350
:1015B000D34B9847316BD348D34B9847D349281C1A
:1015C000D34B9847D34B984702000B000094D24866
:1015D000D249884775E0B823DB04984200D11AE26B
:1015E000CF4B98426DD1CF4B1A68CF4B1868112161
:1015F000CE4B98470690CE4B1B78002B00D113E2C0
:101600000020CC4B984746422E210020CA4B9847D9
:101610000500B64B994630009847DE218905C74B37
:101620009847BC4CA047C64B984706000F00069849
:10163000C44B984732003B00C34EB04706000F0032
:101640002800C24B984732003B00C14DA847C14B10
:1016500098470500AA4B984707952900BE48AA4B12
:101660009847BE4B18785E789F78DD78BC4B1B7925
:101670009A46BC4B1B789C46BB4A1278BB490978FA
:10168000534605930495039702960190B848007855
:1016900000906346B748A14EB0470698B64B9847AE
:1016A0009B4FB649B847051C0798C847291CB8473F
:1016B000A04702000B000799B148B04701E0B14BC9
:1016C0009847AA4B1B78022B01D100F0F1FB11B017
:1016D0003CBC90469946A246AB46F0BDAA4B984703
:1016E000AA487E4B9847ECE7A94B9847A9487B4B03
:1016F0009847E6E700210020A74B9847A748774B7B
:1017000098470020A64B98470028F3D10230A54BFC
:1017100098477A4B1B79002B09D1A3486F4B984708
:101720000D23642202210C20A04CA047C9E7A04B46
:101730009847F2E700210020974B984700210020AE
:101740009C4B984700239C4A13709C4A13706B4A29
:1017500013715372137200200021994B1860596065
:101760009848994B984799485C4B98470D236422B9
:1017700002210C208D4CA047A3E70122944B1A7044
:10178000594B9847934B1860694B1B78002B24D01A
:10179000904B18684042904B1C68544B984701226C
:1017A00021008E4B98478B4C2068554B984704235B
:1017B000642202210C207D4DA847256820684B4BF0
:1017C00098475249524B9847524B984702000B009A
:1017D00029008348514CA04773E77E4B18687E4B25
:1017E0001C68424B9847012221007C4B9847DAE75E
:1017F000784B1868784B1C683C4B984700222100B6
:10180000764B9847C9E400210020634B984700219C
:101810000020684B98470023674A1370674A13708B
:10182000364A137153721372694A137000200021F3
:10183000634B186059606348634B984703236422E5
:1018400002210C20594CA0473BE70020394B984718
:1018500005002B4B9847634E21003000624B9847A0
:101860003E4C2071069529003000274B9847207880
:101870006678A778E4783A4B1D793A4B1B783A4A58
:1018800012783A49097805950494039702960190D5
:101890003748007800903748204CA04706995348B5
:1018A000A0470EE70020524B98470400144B98477E
:1018B00021001448144B984721004E48174B984775
:1018C000FFE6C04600820B0400840B0400041A04E7
:1018D000000014051D340000B81B0100A5C900005C
:1018E00000008C0500008A0579370000B5F700007C
:1018F0008542A146F9EA000075F7000020080020A3
:101900006137000005C80418FD32000085422146F9
:101910001DEE000031140100D81D010089C800002F
:101920000000C205100000200C000020116D000016
:1019300042050020C9B4000031B20000FDF10000F2
:101940007DBB0000C1130100690701003D130100C8
:10195000E1F80000D5120100E1C80418D00700200A
:1019600018080020B5050020740800203804002065
:1019700040050020B819010055F800003333CB4072
:10198000F01C0100996900004D330000CC1B0100E0
:1019900005350000D41B01000DB40000F41801004F
:1019A0001DB400001D7B00002C1C010065360000EA
:1019B000A1530000D9B400002E050020B807002074
:1019C00020050020600A0020597F00003C1C010017
:1019D000E0070020800800207808002085540000DF
:1019E000481C010006C80418F9360000981C0100C4
:1019F00089B400008C1901000020D54B98470400E1
:101A0000D44B98472100D448D44B98472100D44860
:101A1000D44B984755E600222E210020D24B984700
:101A2000D248D34B98474CE60020C94B9847060054
:101A3000EAE50DA8CF4B9B469847C026F6058023C4
:101A40005B009A46F5588223DB05994690225200A6
:101A50009A5888235B00F35853401D4055400DA809
:101A6000C54B9846984780235B031D406B1E9D41E4
:101A7000EDB20CA8D8475346F7584B469022520077
:101A8000985888235B00F35843401F4047400CA8F8
:101A9000C04780235B031F40781E8741F8B2AD4BDF
:101AA0009847B64F21003800B54B9847B54C207188
:101AB00029003800A94B984723789C466778A57879
:101AC000E078B14B1C79B14B1B78B14A1278B1491F
:101AD0000978059404900395029760460190AE48FA
:101AE00000780090AD489F4CA0470BA8D8475346BC
:101AF000F5584B4690225200995888235B00F358C2
:101B00004B401D404D400BA8C04780235B031D4048
:101B1000691E8D41E9B2A248A047D2E5A14A1378D7
:101B200001218B431370A048A04B9847002100204F
:101B30009F4DA8470020864B9847010000209D4BF1
:101B4000984703210020A847FFF767FB9A4B984767
:101B50009A4B18608C4B1D785B78013B584258417A
:101B6000904943010A782020824313430B700EA84A
:101B7000804B9847C023DB05802252009C582032BE
:101B80008221C9058A58882149005B5853401C406E
:101B900054400EA8784B9847E30203D4814B1B783E
:101BA0009B0624D50FA8734B9847C023DB058022E2
:101BB00052009C5820328221C9058A588821490048
:101BC0005B5853401C4054400FA86B4B984763032D
:101BD00003D4744B1B789B0609D4724B1B789B066D
:101BE00079D50A2D0AD8AB00754AD3589F46754857
:101BF0005F4B98476BE500226A4B5A60694B1A7835
:101C00009206D20F29007048564B984759E56F4B02
:101C10001B78002B03D00B23624A5360EEE70123AD
:101C2000FAE76A4B1B78002B03D00C235D4A536004
:101C3000E4E70223FAE7654B1B78002B03D00D2362
:101C4000584A5360DAE70323FAE7604B1B78002B0E
:101C500003D00E23534A5360D0E70423FAE75B4BCB
:101C60001B78002B03D00F234E4A5360C6E7052391
:101C7000FAE7564B1B78002B03D01023494A5360D8
:101C8000BCE70623FAE7514B1B78002B03D0112346
:101C9000444A5360B2E70723FAE74C4B1B78002B0A
:101CA00003D012233F4A5360A8E70823FAE7474BC3
:101CB0001B78002B03D013233A4A53609EE7092375
:101CC000FAE7424B1B78002B03D01423354A5360AC
:101CD00094E70A23FAE70A2D90D8AB003C4AD35880
:101CE0009F4600222F4B5A6088E7384B1B78002B09
:101CF00003D001232B4A536080E70B23FAE7334BD1
:101D00001B78002B03D00223264A536076E70C236E
:101D1000FAE72E4B1B78002B03D00323214A536094
:101D20006CE70D23FAE7294B1B78002B03D0042323
:101D30001C4A536062E70E23FAE7244B1B78002B02
:101D400003D00523174A536058E70F23FAE7C0462C
:101D5000C9B400006137000005C80418FD32000056
:101D6000C41C010089C80000DDB20000DC1C0100B9
:101D7000A5C900006D7900007B7900000BC804182C
:101D8000F9360000D007002018080020B505002013
:101D9000740800203804002040050020B819010014
:101DA0003C1D010058080020F4090020597F000064
:101DB000D9B400004DB4000079370000800800203D
:101DC000101701002C1A0100701D010042050020AF
:101DD0003C1701007D4B1B78002B03D006237C4A67
:101DE00053600BE71023FAE7784B1B78002B03D0E6
:101DF0000723774A536001E71123FAE7734B1B78F7
:101E0000002B03D00823724A5360F7E61223FAE747
:101E10006E4B1B78002B03D009236D4A5360EDE60F
:101E20001323FAE7694B1B78002B03D00A23684A77
:101E30005360E3E61423FAE7664B5C69002C00D19B
:101E40001C692000644B984721006448644B984704
:101E50002000644B98476449644B9847644B98470B
:101E600002000B00009463486349884729E4634BF0
:101E7000984704005B4B9847051C6149614B9847A4
:101E8000614B9847534EF062534B9847F16A5F4855
:101E9000534B98475449281C544B9847544B9847E8
:101EA00002000B0000945A4853498847FFF709FC89
:101EB000584B1B78803BDAB2142A01D9FFF707FC94
:101EC0009300554AD3589F464C4B98470400534BB8
:101ED000197802000020524B984720003E4B98474B
:101EE000210050483E4B9847FFF7F1FB4B4B1978C8
:101EF00000204D4B98470400374B984721004B4832
:101F0000374B9847FFF7E3FB444B19788022520088
:101F1000474B1A60474B1A68474C2068474B984715
:101F2000236898682C4B984723689968444D28008B
:101F3000444B9847444B1871236899682800284BF4
:101F40009847226811785378926802920192009320
:101F50000A003E48284CA047FFF7B9FB2F4B1C78DE
:101F60003B4B1D78254B984708902A0008A9200074
:101F7000384B98470898184B9847374E08993000C7
:101F8000304B9847304B187108993000144B9847E4
:101F9000089B0293019300952B00220021002F48FB
:101FA000154CA047FFF793FB1C4B1C78134B98472D
:101FB0000300204A1268204908682100284CA047E5
:101FC0002848294B9847FFF782FBC046420500206E
:101FD00058080020200800206137000006C80418B7
:101FE000FD320000B5F70000854221461DEE0000DD
:101FF00031140100A01D010089C8000079370000DC
:102000008542A1463DF4000075F7000005C804189C
:10201000041E01007408002068170100B5050020A7
:10202000DDB2000092C8041831B2000094C8041850
:10203000A0070020100000200C000020116D0000FF
:1020400084C80418F9360000D00700202C1E0100B7
:1020500040050020A969000082C80418841E010000
:10206000416C0000E01E0100A5C90000F0B5DE468D
:1020700057464E464546E0B591B0BE4B984200D11A
:1020800005E126D9BC4B984201D100F03DFD00D8B6
:1020900021E1BA4B984200D15BE200D90FE2B84B84
:1020A000984200D1ACE200D9FCE1B64B984200D195
:1020B00063E3B54B984226D16023B44AD35C002B2E
:1020C00000D05AE20122B24B1A710022B14B1A60C1
:1020D00072E2B14B984200D1D9E000D9BBE0AF4BDE
:1020E000984200D124E341D8E52801D100F0F6FB65
:1020F00016D8022800D126E2122804D1A848A94BFC
:102100009847A94B9847A94B1B78032B01D100F0A6
:10211000FFFE11B03CBC90469946A246AB46F0BDCE
:10212000A34B984201D100F02BFDA24B9842EAD17B
:10213000A14B9847A14B1860A14B1C780022A14BE2
:102140005A60002C01D100F003FD1A001B78012118
:102150000B431370022100209B4B98479B489C4BDC
:10216000984721009B489C4B9847CCE79B4B984253
:1021700000D110E338D8C123DB04984200D162E2D9
:10218000974B9842BFD10122964B1A708A4B9847C1
:102190008A4B1860944B1B78002B00D1BDE2874B13
:1021A000186840427B4B1C68904B984700222100E6
:1021B0008F4B9847814C20688E4B984704236422AC
:1021C00003210D208C4DA84725682068874B984730
:1021D0008A498B4B98478B4B984702000B0029008C
:1021E00089487D4CA0478EE7884B984200D1E1E2B8
:1021F000874B984200D086E76F4B98470100854C8B
:1022000020608548744DA8472068844B9847844BCC
:102210009847844B9847010020608348A847834B28
:102220001B78002B03D0824B1B78002B03D1794BFA
:102230001A68584B1A60A3237E4AD35C002B00D047
:1022400093E10523642203210D206B4CA0477A48BB
:10225000614B984757E7794B984218D00CD9784B87
:10226000984226D10523642203210D20624CA04709
:1022700074484C4B984746E7734B984207D010D8A8
:10228000724B984203D0724B984200D03BE7052333
:10229000642203210D20584CA0476E48414B9847BB
:1022A00031E76D4B9842F2D06C4B984200D02AE750
:1022B000EDE7984207D86A4B9842E8D0694B9842BC
:1022C00000D020E7E3E7684B9842E0D0674B9842A4
:1022D00000D018E7DBE7664B9842D8D02DD9654B84
:1022E0009842D4D03DD9644B9842D0D0634B9842A9
:1022F00000D008E70CA8624B9847C023DB0580227A
:1023000052009C5820328221C9058858103A9B58A7
:1023100043401C4044400CA85A4B98478020C002C0
:102320000440601E8441E0B2324B98470A23642285
:1023300003210D20304CA047E5E6534B9842A6D030
:1023400007D8524B9842A2D0514B984200D0DAE6BF
:102350009DE7504B98429AD04F4B984200D0D2E61E
:1023600095E74E4B984292D04D4B984200D0CAE62A
:102370008DE7C04600EA0A0600160C0600021407A4
:1023800000021A0600A20D0600001A0648050020E9
:102390002008002078080020000A0A06000006062F
:1023A000F81E0100A5C9000099690000380400204A
:1023B000150000061800000679370000800800208C
:1023C0001808002058080020D9B40000F4090020A3
:1023D0001D7F00001022010089C8000000000A06CD
:1023E00000020806E007002042050020B5F70000C3
:1023F00085540000613700006536000085422146A3
:102400001DEE000031140100DC1F010000020A066D
:1024100000080A067C080020BC1801003D130100DA
:102420002D330000D5120100501F01002E050020A1
:10243000B807002070040020841F010000320A0643
:1024400000380A063C1F0100002C0A06001C0A0680
:1024500000220A06301F0100002E0A0600300A067C
:1024600000340A0600360A0600E60A0600E80A06F4
:10247000000C0B0600860B0600A20B0600140C06CF
:102480006D7900007B79000000F80A0600EC0A066E
:1024900000EE0A0600FA0A0600020B0600820B068E
:1024A00000840B06CA4B984259D0CA4B984200D0C0
:1024B00029E6C94B9847C948C94B984723E6C94BF9
:1024C000984201D100F003FD29D8F123DB049842A2
:1024D00001D100F0E0FCC44B984200D013E6C34B9E
:1024E00098470400C24B9847051CC249C24B984705
:1024F000C24B9847C24E3063C24B9847316BC248BB
:10250000C24B9847C249281CC24B9847C24B9847B8
:1025100002000B000094C148C1498847F3E5F82345
:10252000DB04984200D1EAE2BE4B984200D0EAE5D3
:102530000020BD4B98470400B24B98472100BB4890
:10254000B24B9847DFE500200021B94B1860596075
:10255000D9E5B84B9847B848A14B9847D3E5B74B56
:102560009847B7489E4B9847CDE5B64B19689C23D2
:10257000D150B548AA4B984763E61220B34B984711
:10258000B34B1A68B34B18681221B34B9847002815
:1025900009D180235B01802252001A432C210020A4
:1025A000AE4B98478EE50023F5E700210020AC4BA9
:1025B0009847AC488A4B98470020AB4B9847002877
:1025C000F3D10230A94B98478D4B1B79002B09D1D1
:1025D000A748834B98470D23642203210D20A54C67
:1025E000A04790E5A44B98476023A44AD35C002BF6
:1025F000EED00022824B1A731220944B9847E7E7E3
:1026000000210020964B9847002100209C4B9847C2
:1026100000239C4A13709C4A1370794A13715372B9
:10262000137200200021994B186059609848994B0B
:10263000984799486A4B98470D23642203210D203F
:102640008C4CA0475FE50122944B1A70674B98476A
:10265000934B186018686B4B9847A123914AD35C41
:10266000002B03D0A223D35C002B25D18E4B1B78EB
:10267000002B47D08A4B186840428C4B1C685C4B3F
:102680009847012221008A4B9847042364220321A2
:102690000D20784CA047824B1C681868544B984713
:1026A0005B495C4B98475C4B984702000B0021004C
:1026B00080485B4CA04726E5546900205A4B984758
:1026C000241AE317E4185C407B4B9C42CEDD744B2C
:1026D0001968744B982299500C3A9B58002B0BDBCD
:1026E000704B5B69754A944663446D4A13600121DF
:1026F000A3236C4AD154B9E76A4B5B69704A94468C
:102700006344F2E7664B1868684B1C68384B98477F
:1027100001222100664B9847B7E7614B1868634B6D
:102720001C68334B984700222100614B984741E5D4
:10273000002100204A4B984700210020504B984729
:102740000023504A1370504A13702D4A137153726C
:102750001372524A1370002000214C4B18605960CC
:102760004B484C4B98470323642203210D20414CD6
:10277000A04754481A4B9847C5E400202A4B984775
:102780000400204B984721004F48204B98474F4862
:10279000134B9847B7E400204D4B98470400194B62
:1027A000984721001848194B9847210049481C4B6D
:1027B0009847A8E400201C4B98470400114B984709
:1027C00021001148114B98474348054B98479AE41C
:1027D00000041A06000014071D340000001F010049
:1027E000A5C9000000008C0700008A0779370000A7
:1027F000B5F700008542A146F9EA000075F7000030
:10280000200800206137000005C8061AFD320000CC
:10281000854221461DEE0000311401005C220100BA
:1028200089C800000000C207C9B40000E1C8061A48
:10283000180800204D330000141F0100053500006A
:102840001C1F01007C080020641F0100C17C0000E7
:10285000100000200C000020116D0000DDB200000F
:102860000DB40000F41801001DB400001D7B000031
:10287000981F010065360000A153000048050020A4
:10288000D9B400002E050020B80700202005002044
:10289000600A0020597F0000A81F0100E007002007
:1028A00080080020700400204205002078080020E5
:1028B00085540000B41F0100B95C02005FAFFFFF48
:1028C000A15000000420010006C8061A0C200100D7
:1028D00089B400008C19010018200100E94B1A6826
:1028E0005B68E94C22606360E84B1868E84B1A6843
:1028F0000F21E84B9847E84B9B469847011CE74D52
:102900008F20C005A847E64B984723686268D11717
:1029100052184A404243E2608C2292461A004243D7
:1029200051466250DA179B1853405843A060002666
:102930009823E6500433E650DA4B1E609023E158AA
:10294000D94B1A680131D948D94FB8470020D94B23
:1029500098472061E36898461800D847D649A847A9
:102960000790A36899461800D847D349A84743461B
:10297000DB1707252B404344DB100893CF4A9346CF
:102980009047049005914A460392D3172B404B443D
:10299000DB1002930798D8470090019142460899AE
:1029A000C748B8475346E158CA172A405218D210B0
:1029B000C448B8470122A123E254C348B84794232E
:1029C000E6502000143078220021C04B9847E2687E
:1029D000A3689A421FD00121A223AB4AD154AA4D29
:1029E0008C262B69AA59944663441C006B6118001D
:1029F000A94B9847B049A94B9847B04B984702005C
:102A00000B0000940021B248A94CA047AB59002B01
:102A10004BDB012467E0AF4B98470020A54B98475C
:102A20009D4F0790B8479D4DA349A8470890964EE3
:102A3000B4682000B847A049A847051C9F4F0898D4
:102A4000B847089009910494281CB8470290039154
:102A5000079B0093089A099B00219F48944CA0472C
:102A60000022A223F254BAE7874BE21C92009A1884
:102A70005568DA68AD1A221D92009B185D60280027
:102A8000854B98478C49854B98478C4B984702005B
:102A90000B00009521009148854DA84701341D2C5D
:102AA000E2DD8F488F4B984722E00124F7E7764B11
:102AB000E21C92009A185568DA6894466544221D13
:102AC00092009B185D602800734B98477A49734BBE
:102AD00098477A4B984702000B00009521007F48E9
:102AE000734DA84701341D2CE1DD7F487D4B98478D
:102AF000654990228B5801338B50FFF704FB7B48CC
:102B0000784B9847FFF7FFFA0DA8794B9847C023F9
:102B1000DB05802252009C5820328221C90588584A
:102B2000103A9B5843401C4044400DA8714B9847B5
:102B3000802040030440601E8441E0B26E4B984701
:102B40000B23642203210D206C4CA047FFF7DBFA16
:102B50006B4A137801218B4313706A486A4B98477C
:102B600000210020694DA8470020524B98470100E2
:102B70000020674B984703210020A847FFF7F1FA90
:102B8000644B9847644B18603E4B1D785B78013B63
:102B9000584258415A4943010A782020824313433E
:102BA0000B700EA8524B9847C023DB0580225200C1
:102BB0009C5820328221C9058A58882149005B58D7
:102BC00053401C4054400EA84A4B9847E30203D49C
:102BD0004B4B1B789B0625D50FA8454B9847C02328
:102BE000DB05802252009C5820328221C9058A5878
:102BF000882149005B5853401C4054400FA83D4B6E
:102C00009847630303D43E4B1B789B060AD43C4B86
:102C10001B789B0600D4CFE00A2D0BD8AB003F4AAF
:102C2000D3589F463E482F4B9847FFF772FA002231
:102C3000334B5A60324B1A789206D20F290039482A
:102C40001B4B9847FFF75FFA374B1B78002B03D0DD
:102C50000B232B4A5360EDE70123FAE7324B1B7835
:102C6000002B03D00C23264A5360E3E70223FAE744
:102C70002D4B1B78002B03D00D23214A5360D9E73D
:102C80000323FAE718080020700400200C0000203D
:102C900010000020116D0000B5F700001DEE0000CF
:102CA00075F70000BC0700207808002028200100EC
:102CB00089C80000C9B400008542214631140100D2
:102CC00080200100E82001001421010097BF0000CE
:102CD000742101004D640000242101009C210100A9
:102CE000C4210100A5C90000E42101000022010067
:102CF0006D7900007B7900006137000065360000C7
:102D000058080020F4090020597F0000D9B40000C1
:102D10004DB400007937000080080020BC17010086
:102D20002C1A0100701D010042050020BF4B1B78CA
:102D3000002B03D00E23BE4A53607BE70423FAE73F
:102D4000BA4B1B78002B03D00F23B94A536071E7AD
:102D50000523FAE7B54B1B78002B03D01023B44AA8
:102D6000536067E70623FAE7B04B1B78002B03D0CC
:102D70001123AF4A53605DE70723FAE7AB4B1B789B
:102D8000002B03D01223AA4A536053E70823FAE723
:102D9000A64B1B78002B03D01323A54A536049E7A9
:102DA0000923FAE7A14B1B78002B03D01423A04A78
:102DB00053603FE70A23FAE70A2D00D93AE7AB0050
:102DC0009C4AD3589F460022994B5A6032E7974B52
:102DD0001B78002B03D00123954A53602AE70B236D
:102DE000FAE7924B1B78002B03D00223904A5360E2
:102DF00020E70C23FAE78D4B1B78002B03D003232D
:102E00008B4A536016E70D23FAE7884B1B78002B9B
:102E100003D00423864A53600CE70E23FAE7834B62
:102E20001B78002B03D00523814A536002E70F2350
:102E3000FAE77E4B1B78002B03D006237C4A5360B5
:102E4000F8E61023FAE7794B1B78002B03D0072311
:102E5000774A5360EEE61123FAE7744B1B78002B98
:102E600003D00823724A5360E4E61223FAE76F4B5B
:102E70001B78002B03D009236D4A5360DAE6132335
:102E8000FAE76A4B1B78002B03D00A23684A536089
:102E9000D0E61423FAE7684B5C69002C00D11C696A
:102EA0002000664B984721006548664B98472000F4
:102EB000654B98476549664B9847664B98470200B3
:102EC0000B000094644865498847FFF71CF9644B80
:102ED000984704005C4B9847051C6249624B984731
:102EE000624B9847544EF062544B9847F16A6048E1
:102EF000544B98475549281C554B9847554B984774
:102F000002000B0000945B4854498847FFF7FBF828
:102F1000594B1B78803BDAB2142A01D9FFF7F9F834
:102F20009300564AD3589F464D4B98470400544B44
:102F3000197802000020534B984720003F4B9847D8
:102F4000210051483F4B9847FFF7E3F84C4B197865
:102F500000204E4B98470400384B984721004C48BE
:102F6000384B9847FFF7D5F8454B19788022520027
:102F7000484B1A60484B1A68484C2068484B9847A1
:102F8000236898682D4B984723689968454D280019
:102F9000454B9847454B1871236899682800294B81
:102FA00098472268117853789268029201920093B0
:102FB0000A003F48294CA047FFF7ABF8304B1C787C
:102FC0003C4B1D78264B98470B902A000BA92000FC
:102FD000394B98470B98194B9847384E0B9930004E
:102FE000314B9847314B18710B993000154B98476E
:102FF0000B9B0293019300952B0022002100304887
:10300000164CA047FFF785F81D4B1C78144B9847CA
:103010000300214A1268214908682100294CA04771
:1030200029482A4B9847FFF774F8C046420500200C
:1030300058080020E8170100200800206137000030
:1030400006C8061AFD320000B5F700008542214689
:103050001DEE0000311401002422010089C8000087
:10306000793700008542A1463DF4000075F7000065
:1030700005C8061A882201007408002014180100EF
:10308000B5050020DDB2000092C8061A31B200007A
:1030900094C8061AA0070020100000200C00002091
:1030A000116D000084C8061AF9360000D007002010
:1030B000B022010040050020A969000082C8061A5C
:1030C00008230100416C000064230100A5C9000031
:1030D00010B5094C094B1A68230004C3084A03CAF7
:1030E00003C3084B98470100E06002000648074B05
:1030F0009847074B984710BD78090020F00700203B
:1031000018080020953700007C23010089C80000C2
:10311000D5480000F0B5CE46474680B587B00400DC
:103120000D004A4B98474A4B1A78052A24D8930039
:10313000484AD3589F46484B18785E789F78DA788B
:1031400094461B799846454B1B789946444A127819
:1031500044490978434605936346049303970296CE
:1031600001904148007800904B464048404EB0479F
:10317000290020003F4B984707B00CBC9046994669
:10318000F0BD354B18785E789F78DA7894461B79D5
:103190009846324B1B789946314A12783149097862
:1031A00043460593634604930397029601902E4885
:1031B000007800904B4630482D4EB0472900200043
:1031C0002E4B9847D8E7244B18785E789F78DA78AA
:1031D00094461B799846214B1B789946204A1278D1
:1031E0002049097843460593634604930397029662
:1031F00001901D48007800904B4621481C4EB04776
:10320000290020001F4B9847B6E713490A784B78EE
:103210008878CD78097902910195009021001A48AB
:10322000134CA047194B9847A6E70B490A784B78EF
:103230008878CD7809790291019500902100144891
:103240000B4CA047114B984796E7C046D9020000A7
:10325000B40500206818010018080020B5050020FA
:103260007408002038040020400500209C23010041
:1032700089C8000051030000CC230100DD100000CC
:10328000FC2301006D2000002C240100D13000003F
:103290005C24010070B50F4A1378013B13700E4D8A
:1032A000002200232A606B600C4C002323600C4A30
:1032B00013700C4A13700C4A13700C4A13702A00D6
:1032C00021000B480B4B9847296820680A4B984708
:1032D00070BDC0466404002018080020F0070020DC
:1032E0003804002074080020B505002040050020A7
:1032F000C80900207D0200001531000010B582B021
:103300000100064B5C681B680093019406230122B0
:103310000348044CA04702B010BDC046D0070020AF
:10332000C8090020450200007047000010B5044C99
:103330000022044BA0470022034BA04710BDC0460B
:103340006907010000004E400000F03EF0B587B074
:103350000022012100201F4B98471F4B1B78012B97
:103360002FD0002B29D0022B2FD001201B4B9847A8
:103370001B4B19681B4D28681B4B98471B4C207131
:10338000286800211A4B984720786578A678E47859
:10339000184B1F79184B1B78184A1278184909786E
:1033A00005970494039602950190164800780090C2
:1033B0001548164CA04707B0F0BD154A094B1A60D6
:1033C000D3E7144A074B1A60CFE7134A054B1A603C
:1033D000CBE7C046DDB20000B40500206137000035
:1033E000D8070020F0070020F9360000D0070020A1
:1033F000FD32000018080020B505002074080020E8
:103400003804002040050020B819010089C80000D8
:103410008AC802168AC804188AC8061AF0B587B086
:10342000264B1B78012B35D0002B2FD0022B35D00B
:10343000234B1B79002B35D10020224B9847224B80
:103440001968224B1868224B9847224B18711F4B62
:1034500018680121204B98471E4B18785C789D789E
:10346000DE781E4B1F791E4B1B781E4A12781E49B0
:103470000978059704960395029401901B480078FB
:1034800000901B481B4CA04707B0F0BD1A4A0F4BD9
:103490001A60CDE7194A0D4B1A60C9E7184A0B4B61
:1034A0001A60C5E70320074B9847074B1968074B7D
:1034B0001868074B9847074B1871C8E7B4050020F8
:1034C0002008002061370000D8070020F007002006
:1034D000F9360000D0070020FD3200001808002057
:1034E000B5050020740800203804002040050020A5
:1034F000B819010089C800008AC802168AC80418D1
:103500008AC8061AF0B587B0434B1B78012B28D028
:10351000002B22D0022B28D0404B1B79002B28D027
:103520003F4B00221A705A709A700532DA703C4D87
:103530003C4C296820683C4B984728713B4B1968E4
:1035400020683B4B9847344B1B78012B31D0002B24
:1035500016D0022B46D007B0F0BD364A314B1A6068
:10356000DAE7354A2F4B1A60D6E7344A2D4B1A60FA
:10357000D2E72B4B00221A705A709A70DA70D6E795
:10358000274B18785C789D78DE782D4B1F792D4B72
:103590001B782D4A12782D490978059704960395D2
:1035A000029401902A48007800902A482A4CA047AB
:1035B000D1E71B4B18785C789D78DE78204B1F791B
:1035C000204B1B78204A12782049097805970496E9
:1035D0000395029401901E48007800901F481E4CED
:1035E000A047B8E70E4B18785C789D78DE78144BCE
:1035F0001F79144B1B78144A1278144909780597DF
:1036000004960395029401901148007800901448A4
:10361000114CA0479FE7C046B405002020080020B9
:10362000D0070020F0070020F9360000D80700205E
:10363000FD3200000DC802160DC804180DC8061A88
:1036400018080020B5050020740800203804002068
:1036500040050020CC24010089C800000C25010091
:103660004C250100F0B589B017001D0006904306F7
:1036700007914A0413437A0213432B43144E3360D9
:10368000144C0022002322606360134B9847134BB5
:10369000984721683068124B98472071114B196880
:1036A0003068114B984723786278A178E0780F4C06
:1036B00024790594049003910292019300953B00B4
:1036C000079A06990A480B4CA04709B0F0BDC046BE
:1036D000F0070020D0070020793700006137000094
:1036E000F9360000D8070020FD320000180800203D
:1036F000B819010089C8000010B5430E0F21194008
:10370000114B1970440CE4B2104B1C70430ADBB22D
:103710000F4A1370C0B20F4A10700919C9B25B1872
:10372000DBB2C018C0B20C4B1A788018C0B25A78FD
:103730008018C0B29A788018C0B2DB78C018C0B2C6
:10374000064B187010BDC0463804002074080020D5
:10375000B505002040050020D007002041050020CD
:10376000020E044B1A7002145A7002129A70D8702A
:103770007047C046D0070020054B187800065A78DD
:10378000120410439A7812021043DB7818437047F2
:1037900018080020054B98780006DA7812041043C8
:1037A0001A79120210435B791843704718080020F9
:1037B000044B01229A70E42149005A5801325A50B0
:1037C0007047C046C0050020034B196838228B5C47
:1037D000402003438B54704704000020024A1378B2
:1037E000013313707047C046640400207047000026
:1037F00010B500282ED0032930D801700023436073
:103800008360C360036143618361C3610362436298
:103810008362C362038643633821435C012293437E
:103820000132934302329343043293430832934369
:1038300010329343203293433F32134043540200EB
:103840003832537801210B435370836BDB05DB0D5A
:10385000836310BD0348044B9847FAE70348024BC3
:103860009847F6E78C250100A5C90000B0250100A6
:10387000F0B5D64600B582B082460191002718E027
:10388000C024E4058026B600E6616B469B88009361
:103890001800104DA847E6618026F601E661009801
:1038A000A847E66180263602E6610098A847E661EF
:1038B00001375745E4D3C023DB05802292009A618B
:1038C000802212029A618022D2019A6102B004BC65
:1038D0009246F0BD3D7B000070B5084901248C6024
:1038E000074BCB600C740748074DA84707498C600D
:1038F000074BCB600C740748A84770BDAC0800208C
:10390000B1370000600A0020957F00008408002085
:10391000C9370000F409002070B50B4C4923FA2286
:1039200052000A4920000A4DA8470A4920000A4BC4
:1039300098470A4920000A4B98470123002200219A
:103940002000084CA04770BDC8090020002000429C
:10395000310100002933000025020000DD3700009E
:1039600035020000AD02000010B50B4C0B492000E1
:103970000B4B984720000B4B98470B4C0B4A0021F0
:1039800020000B4B98470B4920000B4B9847200019
:103990000A4B984710BDC046BC09002044050020D2
:1039A000798400004D840000100A0020ED370000EB
:1039B000A982000068040020798200004D82000086
:1039C000F8B5CE46474680B5002401235B429946B0
:1039D00000239846002602E09846F6180134312C60
:1039E0000DDC0F4D02232A0000210E480E4FB84770
:1039F0002B889845F0D39945EFD99946EDE73221C8
:103A000030000A4B984702004B4641460848094C93
:103A1000A0470422084B1A700CBC90469946F8BD8A
:103A20002C050020F0090020BD780000E58D000085
:103A3000E825010089C80000B4050020F8B500227F
:103A40001A210020204CA047802149009423C02245
:103A5000D205D1500022FD390020A04700240025C6
:103A6000002609E002210020184B984703041B0C94
:103A7000F618000C2D180134154B9C42F2DD154F41
:103A8000FA2189003000B8470400FA218900280093
:103A9000B8470500020021000F48104B9847220448
:103AA000120C8223DB031A432D042D0C1D43092124
:103AB0000020054CA0472A0008210020A04707222B
:103AC0001A210020A047F8BDDDB2000031B200008D
:103AD000E7030000E58D00001826010089C80000FA
:103AE000F8B5CE46474680B5E94EEA4D3268132117
:103AF0002868E94CA047431E9841E84B187032688B
:103B000016212868A047431E9841E54B187032687B
:103B100011212868A047E34FB86532681921286849
:103B2000A047431E98416023F85432681A21286840
:103B3000A047DD4F3863326828681B21A047F86230
:103B4000DA4B1B78012B00D171E0002B09D0022B3E
:103B500000D1D2E0042B00D134E10CBC9046994650
:103B6000F8BDD04CFA239B002360C94FC94E3A6878
:103B70000A213068C84DA84760603A680021306863
:103B8000A847A0603A6801213068A84720613A68D8
:103B900002213068A847E0603A6803213068A847EE
:103BA000A0613A6804213068A84760613A6805213D
:103BB0003068A84720623A6806213068A847E0616B
:103BC0003A6807213068A847A0623A68082130683F
:103BD000A84760623A680B213068A847E0620A2172
:103BE000B34B984720633A680C213068A84760635C
:103BF0003A680D213068A847A063AE4B9847AE4B9A
:103C00009846AE499847AE4B994698472064616400
:103C10003A6830680E21A847A064AA4B9847A74984
:103C2000C047A649C047C8472065616595E79D4CD8
:103C3000FA239B002360964F964E3A680A2130681B
:103C4000954DA84760603A6800213068A847A06099
:103C50003A6801213068A84720613A68022130683B
:103C6000A847E0603A6803213068A847A0613A6835
:103C700004213068A84760613A6805213068A84788
:103C800020623A6806213068A847E0613A68072157
:103C90003068A847A0623A6808213068A847606287
:103CA0003A680B213068A847E0620A21804B9847A8
:103CB00020633A680C213068A84760633A680D2198
:103CC0003068A847A0637B4B98477B4B98467B495D
:103CD00098477B4B99469847206461643A683068FE
:103CE0000E21A847A064774B98477449C047734991
:103CF000C047C847206561652FE76A4C724B236057
:103D0000634F644E3A680A213068634DA84760608B
:103D10003A6800213068A847A0603A6801213068FD
:103D2000A84720613A6802213068A847E0603A68F5
:103D300003213068A847A0613A6804213068A84789
:103D400060613A6805213068A84720623A68062118
:103D50003068A847E0613A6807213068A847A06248
:103D60003A6808213068A84760623A680B213068D9
:103D7000A847E0620A214E4B984720633A680C211D
:103D80003068A84760633A680D213068A847A0638F
:103D9000484B9847484B984648499847484B99465E
:103DA0009847206461643A6830680E21A847A0648F
:103DB000444B98474149C0474049C047C8472065E0
:103DC0006165CAE6374CFA239B002360304F314EC1
:103DD0003A680A213068304DA84760603A6800218F
:103DE0003068A847A0603A6801213068A847206180
:103DF0003A6802213068A847E0603A6803213068D9
:103E0000A847A0613A6804213068A84760613A6811
:103E100005213068A84720623A6806213068A84723
:103E2000E0613A6807213068A847A0623A68082133
:103E30003068A84760623A680B213068A847E062A2
:103E40000A211B4B984720633A680C213068A84729
:103E500060633A680D213068A847A063154B984706
:103E6000154B984615499847154B99469847206435
:103E700061643A6830680E21A847A064114B9847E6
:103E80000E49C0470D49C047C8472065616564E6D3
:103E9000100000200C000020116D000042050020E1
:103EA000310500204805002020080020B40500202E
:103EB000AF8D000055F80000FDF100006F12833A4D
:103EC00031140100B5F70000DC05000010B5104BFF
:103ED0009847104B98470A200F4CA0470022012119
:103EE00000200E4B98470120A047002100200C4BDA
:103EF00098470C4BC41863425C41E4B20A4B9842A9
:103F000001D0200010BD0948094B9847F9E7C04689
:103F1000A5950000619600003D7B0000DDB2000029
:103F200031B20000CFC8C9CB31373634402601004A
:103F3000A5C9000010B50A4B98470A4B98470A20BC
:103F4000094B9847094B9847002801D1012010BD23
:103F50000748084B9847084B98470020F7E7C046AA
:103F600079960000359700003D7B00001168000045
:103F700068260100A5C90000654E000070B501204B
:103F8000064EB047C024E4058025AD009423E550DB
:103F90000120B0479823E55070BDC0463D7B00002E
:103FA000F0B583B03D4B64221A60C83A5A60FA22D9
:103FB00012019A6001223A4B1A700024394B1C708E
:103FC000394B1C6000200021384B18605960384B79
:103FD00018605960374B1C60374B1A70374B1C7098
:103FE000374B1C703749384B1960384B9C70DC706C
:103FF0001A715C719C71DC711C725C729A72DC7259
:10400000334A14701C615C619C61DC611C625C62FF
:104010009C62DC621C632F4B1C60EC235B002E4A0D
:10402000D4502E4D002600272E606F60AC60EC60EF
:104030002C61493BFF3BEC502800143078220021D2
:10404000274B9847274B1C60A023EC540233EC54B9
:10405000254B5C60254B1E605F60254B1C6001A8F2
:10406000244B9847C023DB05802252009C58203205
:104070008221C9058A58882149005B5853401C4059
:10408000544001A81C4B9847E30305D40122524237
:104090001A4B9A6103B0F0BD0122F9E73405002004
:1040A000C8070020E107002060040020B0070020BE
:1040B00050040020A80700202E050020B80700208B
:1040C00030050020A0860100B00500202008002057
:1040D000C007002078080020C005002070040020E0
:1040E00097BF0000BC07002058080020D007002020
:1040F000F00700206D7900007B790000F4070020B4
:10410000F0B5CE46474680B583B04A4C0122012126
:104110002000494B98472000484B9847484B984708
:10412000C023DB0580214900942299508022D201CE
:104130009A61802292009A61802212029A61802103
:10414000490398229950903A9A613E4B98473E4BCA
:1041500098473E4B984700213D483E4B98473E4B81
:1041600098473E4B984700285CD00822C023DB05C7
:104170009A613B4B9847002858D1C026F605082580
:10418000B56101A8374B994698478023F45882239C
:10419000DB059846A0234246D258103BF3585340C3
:1041A0001C40544001A8304FB84780235B031C409B
:1041B000631E9C41E4B26846C84733684246126AAF
:1041C000366956401E4056406846B84735406A1E1C
:1041D0009541EAB221002548254B9847254B984741
:1041E0000020254B98470020244B98470020244B63
:1041F0009847244B9847244B18680121234CA0472B
:10420000234B18680021A0470020224B9847224BDF
:104210009847224B9847224B984703B00CBC9046D6
:104220009946F0BD1F48204B9847F6E71F481E4BA4
:104230009847A2E7A0090020ED7D0000B17D0000B5
:104240007D3F000069390000C59C0000AD9D000065
:10425000F009002091780000C1390000CD3E000037
:10426000353F00006D7900007B790000DC260100FD
:1042700089C80000E13A000091500000594F000049
:10428000B14E00003D3A000004000020F13700006C
:1042900000000020BDB90000D93800001939000025
:1042A0004554000084260100A5C90000B026010085
:1042B00070B50400802149009823C022D205D15056
:1042C0000020444B9847444DA847A0B2434B984721
:1042D000434B00221A605A609A60A847414B1988E4
:1042E0000020414B98470322522100203F4CA04719
:1042F000032100203E4B984700203E4B9847010089
:1043000000203D4B9847002263210020A047002158
:1043100000203A4B98473A4B1B78012B21D0002BB9
:1043200004D0022B38D0042B45D070BD26210020AC
:10433000344DA84701003448344CA04725210020C3
:10434000A84701003248A0472D210020A8470100BE
:104350003048A0472C210020A84701002E48A04744
:10436000E3E726210020274DA84701002B48274CD2
:10437000A04725210020A84701002948A0472D215A
:104380000020A84701002748A0472C210020A8476B
:1043900001002148A047C8E726210020194DA84761
:1043A00001002148194CA04725210020A847010001
:1043B0001E48A047B9E726210020124DA84701005A
:1043C0001B48124CA04725210020A847010019488E
:1043D000A047AAE7E19F0000615300003D7B000079
:1043E0003405002048050020DD510000DDB200004A
:1043F000D9B40000C9B400004DB400000DB40000F1
:10440000B405002031B200000427010089C8000073
:10441000342701005C2701008C270100B42701002C
:10442000E42701000C2801003C2801006C28010051
:1044300094280100C828010010B5022100200A4B71
:1044400098470A4938228B5C102003438B549B0603
:1044500005D4064BD9680648064B984710BD064858
:10446000064B9847F5E7C046D9B40000FC08002089
:10447000842C010089C80000F40900201D7F000081
:1044800010B50100024B58620248034B984710BD1B
:10449000FC080020B02C010089C8000010B5034BB7
:1044A0001B6859600248034B984710BD000000206C
:1044B000E82C010089C8000010B50100044CE06040
:1044C0000020044B9847E1680348044B984710BD0F
:1044D000FC0800200DB40000182D010089C8000060
:1044E00010B500210020164B984700210020154BE5
:1044F000984700210020144B98470023134A13705B
:10450000134A1370134A1370134938228B5C10201E
:1045100083438B5400200021104A106051603022E8
:104520001A4208D000200E4B98470B4B58610D489B
:104530000D4B984710BD0D480D4B9847F2E7C0460C
:104540000DB400002DB40000D9B400002E050020E9
:10455000B8070020E0070020FC080020200500200C
:10456000C9B40000382D0100A5C90000F4090020DD
:10457000597F000070B504000D0001221F4B1A7016
:1045800000201F4B9847001BC317C0185840FA2340
:104590005B0098421BDD002D0FD01A4BDE68200017
:1045A000194B984701223100184B9847002D1FD115
:1045B00021001748174B984770BD124BDE6820004A
:1045C000114B984700223100104B9847EEE70D4BF6
:1045D000D9680020104B9847002D04D021000020FE
:1045E0000E4B9847E2E7210000200D4B9847DDE78E
:1045F00021000C48074B9847DEE7C046E007002043
:10460000C9B40000FC080020B5F700008554000084
:10461000682D010089C800000DB400004DB40000F1
:104620005DB400004C2D010010B5054C2062012145
:10463000044B9847216A0448044B984710BDC04674
:10464000FC08002075450000842D010089C8000089
:1046500010B500210020134B984700210020124B79
:104660009847124B596838228B5C082083430830E6
:104670008343103083438B54373A0D4B1A716023B8
:104680000C4AD35C002B05D10B4B98470B480C4BC5
:10469000984710BD0022064B1A733130094B9847DA
:1046A000F2E7C046B9B400004DB40000000000209D
:1046B0002008002048050020A1530000B02D010073
:1046C000A5C90000C17C000010B5084B1968084A54
:1046D0000020084B9847084938228B5C022003438E
:1046E0008B540648064B984710BDC046000000207A
:1046F00060F0FFFF9DB50000C0080020CC2D010038
:10470000A5C9000010B5084B1968FA221201002053
:10471000064B9847064938228B5C042003438B5490
:104720000448054B984710BD000000209DB50000CF
:10473000C0080020F02D0100A5C9000070B50C00D4
:104740001D4B196838200B5C08252B430B54CB6A92
:104750004B61FA2000014860002A00D00C61A3429E
:1047600011DA002A01D11B190B61FA221201002073
:10477000124B9847104B1A68536851692200104831
:10478000104CA04770BDA34211DD002A01D11B1BB4
:104790000B610D4A0020094B9847074B1A68536874
:1047A0005B42516922000648064CA047EAE70748E9
:1047B000074B9847E6E7C046000000209DB5000083
:1047C000182E010089C8000060F0FFFF642E010070
:1047D000A5C9000000B583B06B46D91D00230B703E
:1047E0000920234B9847234B1B78042B0DD0052B16
:1047F00010D06B4607331B78DB0621D51E4B0222F7
:104800001A700C325A7002230DE0852252001B4BA5
:104810001A60EEE70C22FF32184B1A60E9E700211C
:10482000154AD1540133072BF9DD134B1968134B8B
:104830001868134B98471348134B984703B000BDB3
:104840000D4B02221A700D325A70022303E0002130
:10485000094AD1540133072BF9DD074B1968074B7F
:104860001868074B98470948074B9847E6E7C04642
:10487000CD4C0000B4050020D0070020F007002038
:10488000FD320000A02E0100A5C90000C02E0100CD
:1048900010B5012800D010BD002222210020094BB4
:1048A0009847094938228B5C0120834307308343B2
:1048B00006388343023083438B540448044B9847A3
:1048C000E9E7C046B1B90000C0080020E42E0100AD
:1048D000A5C9000010B5B24B1B680A22FF329342F3
:1048E00035D020D986225200934237D00E22FF3293
:1048F000934221D10122AB4B1A70AB48AB4B984786
:10490000A74B1B79002B62D0012B00D074E0A84983
:1049100038228B5C202003438B54DB0653D4A548FC
:10492000A24B984708E0013A934205D100229D4BE3
:104930001A70A1489D4B98479A4B1B78002B03D1C6
:104940009E4A1278042A5FD0012B59D010BD012253
:10495000944B1A709A48954B9847EDE70022914B7B
:104960001A709848914B98478D4B1B79002B11D0AA
:10497000012B24D18E4938228B5C202003438B5499
:10498000DB0603D48B48894B9847D5E78E488F4B7D
:104990009847F7E7864938228B5C202083438B5465
:1049A000083A1A4207D000210020894B98478948CD
:1049B0007E4B9847C0E78448874B9847F3E7874882
:1049C0007A4B9847B8E78048804B9847A7E77849E3
:1049D00038228B5C202083438B54083A1A4207D03C
:1049E000002100207A4B98477A48704B9847A3E7FC
:1049F0007548794B9847F3E778486C4B98479BE7A5
:104A00006E4B1B78052BA1D1654B1B79072B9DD8CD
:104A10009B00734AD3589F46614B5B79112B2DD86D
:104A20009B00704AD3589F466F4B98478EE76F4B59
:104A300098478BE75A4BD8686D4B984786E700211B
:104A4000802040026B4B984780E7554BD868012186
:104A5000684B98477AE7524BD8680021654B9847D6
:104A600074E74F4BD868644B98476FE74C4BD86856
:104A7000624B98476AE7624B984767E761484B4B40
:104A8000984763E7464B5B79102B2BD89B005E4A17
:104A9000D3589F4601205D4B984757E7404BD96854
:104AA00001205B4B984751E73D4BD968012201201B
:104AB000584B98474AE73A4BD96801220120554B99
:104AC000984743E7364BD96800220120514B98475D
:104AD0003CE7514B984739E7504B984736E7504BE6
:104AE000984733E74F48314B98472FE72C4B5B797A
:104AF0000D2B22D89B004C4AD3589F460220434B93
:104B0000984723E7264BD9680220414B98471DE779
:104B1000234BD968012202203E4B984716E7204BD1
:104B2000D968012202203B4B98470FE71C4BD968FC
:104B300000220220374B984708E73C481B4B984718
:104B400004E7174B5B79032B05D3042B00D8FDE654
:104B5000102B00D1FAE63648144B9847F6E6104B76
:104B60005B79032B05D3042B00D8EFE6102B00D183
:104B7000ECE630480D4B9847E8E6094B5B79042B8F
:104B800000D8E3E62C48094B9847DFE6044B5B79F5
:104B9000042B00D8DAE62948044B9847D6E6C046ED
:104BA000780900203809002008300100A5C900005C
:104BB000FC080020582F0100F82E0100B405002049
:104BC000142F0100342F0100F40900201D7F000084
:104BD0002DB40000A02F0100597F0000E42F010038
:104BE000A02B0100C02B010039440000E14400006B
:104BF000B9440000754500008144000029460000CA
:104C0000514600002C300100082C010091480000A2
:104C10009D4400003D470000C946000005470000D4
:104C2000D5470000543001004C2C01007C300100BD
:104C3000AC300100D8300100043101002C310100FA
:104C400010B50CE00278084B9A62074B1B7E5B079D
:104C5000FBD5054B9B6A0B70013101302200541EBD
:104C6000E4B2002AEED110BD00100042F0B583B0CE
:104C700000900E000192C027FF0508247C610120EE
:104C8000064DA8476B461A7931000098044B9847A7
:104C90000120A847BC61012003B0F0BD3D7B0000AE
:104CA000414C000000B583B00B2801D903B000BD12
:104CB00001AB40221A70587099703D3A694618004D
:104CC000014B9847F2E7C0466D4C000030B583B009
:104CD0000D000B2814D8002912D001AC41232370F9
:104CE00060700023A370032269462000054B98479B
:104CF0006B469B782B70217862780348034CA04761
:104D000003B030BD6D4C00005431010089C8000073
:104D100010B582B06B46DC1D0023237021000720F4
:104D20003E4B98472378002B01D102B010BD3C4C7C
:104D300021000820394B98473A483B4B98470A20B6
:104D40003A4B98472378DA0613D49B06EDD5002218
:104D500022210020364B98473648334B9847364B34
:104D60001B6838229A5C520734D434482E4B98473B
:104D7000DBE70022222100202D4B984730482A4BA8
:104D800098472D4B18683823C35C9B0703D42D48E4
:104D9000254B9847C9E73822835C02218B43835413
:104DA000294B9847244C23680022DA625A639A619F
:104DB00085204000254B1860254B04321A700A32BA
:104DC0005A701968234B9847236899692248234BE6
:104DD0009847DCE738215A5C042082435A54002269
:104DE00016390020124B9847134C2068164B9847F1
:104DF0002368DA6ADA6185204000144B1860144B8E
:104E000005221A7009325A701968124B98472368A4
:104E1000D9691348114B9847A7E7C046CD4C00000D
:104E2000B805002098310100A5C90000BDC80000E8
:104E3000B1B900004832010000000020A03201009A
:104E4000D031010028320100CDB50000F00700206C
:104E5000D0070020FD320000E831010089C80000C1
:104E60006032010010B582B0302100200C4CA04708
:104E700000210620A04702210520A0473021012063
:104E8000A04730210220A0476B46D91D00230B709C
:104E90000820044B98470448044B984702B010BDC3
:104EA000A54C0000CD4C0000C0320100A5C9000097
:104EB00070B504001F4E32005C211F4DA847320020
:104EC0005D212000A8471D4EB2685E212000A84742
:104ED00032225F212000A847002260212000A8473D
:104EE000174A61212000A847164A62212000A847DE
:104EF000032252212000A847092250212000A84760
:104F0000092251212000A847328AB18920000E4B86
:104F10009847328BB18A20000C4B9847328CB18B6A
:104F200020000B4B9847328DB18C2000094B9847DD
:104F300070BDC046FF7F0000DDB2000048050020C4
:104F400001000080FFFFFF7F19B500002DB50000B4
:104F500041B5000055B5000070B505003E4A1B2163
:104F60003E4CA047002217212800A0473C4A1821A8
:104F70002800A0473B4A19212800A04707221A21F0
:104F80002800A047384A0A210020A047374A0421B8
:104F90000020A0478026B605320005210020A0474A
:104FA000320006210020A047314A07210020A047F7
:104FB000304A09210020A0472F4A08210020A0479D
:104FC00000221F212800A047002220212800A047FE
:104FD000002221212800A047002223212800A047E9
:104FE000022252212800A047082263212800A0475E
:104FF000002229210020A047012252210020A047A1
:1050000000221C210020A047FA22120124210020A6
:10501000A047FA208000194B9847194E32005C21B6
:105020002800A04732005D212800A047154B9A6850
:105030005E212800A047002260212800A047124AD4
:1050400061212800A047114A62212800A0470322BD
:105050006D210020A04770BD32000200DDB20000CB
:105060009F0F000019190000000100181000100027
:105070004E014E0197814100C58141003D7B0000FA
:10508000FF7F00004805002001000080FFFFFF7F38
:1050900070B5040000221A214C4DA84700221B21A4
:1050A0002000A847002217212000A847002218212D
:1050B0002000A847002219212000A84700220A2129
:1050C0002000A847002204212000A8470022052133
:1050D0002000A847002206212000A847002207211F
:1050E0002000A847002209212000A847002208210B
:1050F0002000A84700221F212000A84700222021CD
:105100002000A847002221212000A84700222321B7
:105110002000A847002252212000A8470022632136
:105120002000A847002224212000A8470022262191
:105130002000A847002227210020A84700225C2148
:105140002000A84700225D212000A84700225E2100
:105150002000A84700225F212000A84700226621E6
:105160002000A847002261212000A84700226221D8
:105170002000A847002252212000A84700225021E9
:105180002000A847002251212000A84700226321C7
:105190002000A847002268212000A84700226B2198
:1051A0002000A847002260212000A84700220021FB
:1051B0002000074B9847002200212000054B98470C
:1051C000002200212000044B984770BDDDB2000092
:1051D000F9B4000041B5000055B50000F0B583B04A
:1051E00005000E00554CA088554FB84700230122FA
:1051F000292101952800534DA8470123002252215F
:105200000198A8470023012224210198A8473300D0
:1052100000222421019E3000A847002300221C21E7
:105220003000A847FA204000B847474F474E3A6839
:105230000F213068464DA847E0653A683068102174
:10524000A847002831D1802464013F4E3F4F326887
:10525000112138683E4DA847384B98653268386848
:105260001221A847002822D180256D01394B1B78D7
:10527000012B35D0002B1CD0022B48D0042B52D050
:1052800000222721019C2000334DA84700225221F3
:105290002000A847FA204000294B984701222A21E4
:1052A00020002E4B984703B0F0BD0024CDE7002529
:1052B000DCE7220025210020274EB0471F4FFA6D62
:1052C00026210198B0472A002C210020B047BA6D52
:1052D0002D210020B04700222E210020B047CFE72B
:1052E0002200252100201C4EB047144FFA6D2621C4
:1052F0000198B0472A002C210020B047BA6D2D211B
:105300000020B04700222E210020B047B8E70B4B09
:10531000DA6D2621019E30000F4DA847220025217D
:105320003000A847ACE72200252100200A4DA847FD
:10533000024BDA6D26210198A847A1E74805002015
:105340003D7B000099B30000100000200C000020FD
:10535000116D0000B4050020DDB2000079B300003B
:1053600070B50822632100200B4CA04700221F21AA
:105370000020A047094D2A6820210020A0476A6824
:1053800021210020A047AA6824210020A047022252
:1053900052210020A04770BDDDB20000340500207E
:1053A00010B5802149009823C022D205D150FD3983
:1053B00000201A4B98471A4B1B78002B0CD0194928
:1053C0000020194B98476023184AD35C002B08D162
:1053D0000022174B5A7210BD16490020124B9847F5
:1053E000F1E700200021144B18605960002263216E
:1053F0000020124B984700210020114B98470C4B7E
:1054000000225A725A611A6106490020064B9847D9
:1054100003210020014B9847DDE7C046D9B40000C6
:1054200042050020010000804DB400004805002026
:1054300020080020FFFFFF7F20050020DDB20000D4
:105440000DB4000010B505495120054CA047054991
:105450003520A04704493720A04710BD595500000A
:10546000D57B0000114D000069B5000010B5034B5D
:10547000D96A0020024B984710BDC046480500205D
:105480000DB4000070B5051C0C00160000220023AE
:105490001E490A604B601E490A604B6000210020D3
:1054A0001C4B9847002E28D0281C1B4B9847010006
:1054B00000201A4B98471A4B1C601A481A4B984701
:1054C00003210020194B98470022194B1A70013212
:1054D000184B1A70184B1B79002B07D1A333174AAE
:1054E000D35C002B02D10122154B1A701548164BC4
:1054F00098471648164B984770BD281C064B98478E
:1055000001000020134B9847D5E7C0465004002007
:10551000E80700200DB4000075F700004DB400004E
:1055200078080020C005002065AF0000D9B4000055
:1055300065040020B8070020200800207004002027
:10554000E0070020F4090020597F0000600A0020D5
:105550001D7F00005DB4000010B52F4B1B7B002B9E
:105560002AD0002100202D4B9847002100202C4BF1
:1055700098470022272100202A4B9847002100202D
:10558000294B984700210020284B9847224A0023A6
:1055900013731371264A1370264A13705120264B39
:1055A0009847264B1B78012B29D0002B23D0022BA8
:1055B00029D0032B2BD010BD00210020174B98477A
:1055C00000210020164B98470024194B1C70194BE2
:1055D0001C7000201A4B984701221E210020194BF5
:1055E00098470D4B1C731C715120134B984716485C
:1055F000164B9847D5E71648144B9847DBE71548F4
:10560000124B9847D7E71448104B9847D3E71348F5
:105610000E4B9847CFE7C04620080020D9B40000C1
:105620000DB40000DDB20000B9B400004DB40000BC
:10563000B80700202E050020D17C0000B405002012
:10564000C9B4000085540000D8330100A5C900008A
:10565000EC330100183401004434010070340100BF
:10566000F0B5DE4657464E464546E0B593B0CF4BC3
:105670009B78002B06D113B03CBC90469946A246BD
:10568000AB46F0BD0022C94B9A700020C84B98472A
:1056900000280AD00020C74B9847C74B1A78072A22
:1056A000E9D89300C54AD3589F460321C44B984775
:1056B000F0E70020BF4B9847BC4DAE69EF69C14C85
:1056C000A04732003B00C04EB047C04B9847C317BD
:1056D000C01858402E6F6F6FA047012432003B0066
:1056E000BB4DA847002800D10024E4B2002C41D0D3
:1056F000012CC0D1AD4B3133FF3318685968B54B1D
:105700009847B54B1C685D6822002B00B34EB0472C
:10571000002811D0B24B1A6D5B6DB24E20002900EB
:10572000B04702000B00AC490A604B60AE4C2068E9
:105730006168B04720606160AC4CAB4B1A685B6835
:1057400022606360994BF83318685968A14B9847F9
:105750006568246822002B00A04EB047002800D1C5
:1057600089E720002900994B984701000020A04BB1
:10577000984780E700208F4B98478C4DAE69EF69C2
:10578000904B9A469847904C32003B00A0478F4B75
:1057900098469847C217831853402E6F6F6F0B932C
:1057A0001800D04732003B00A047EC246400C047FB
:1057B0002851F8229246AA44524610685168854AF8
:1057C00090469047884B186059602A6F6B6F0C9217
:1057D0000D930022874B804908684968864EB04780
:1057E0000E900F912E003136FF3630687168C04739
:1057F00006000F000020814B9847834651460868F9
:105800004968C0472C590894069007915C46049457
:10581000029603970E980F99009001910C9A0D9B98
:105820000B997748774CA047AA23FF33EA5C002303
:10583000012191425B41DBB2911E4D424D41D01E90
:1058400041424141C8B22B430AD1002808D1043A51
:10585000D2B2012A00D90EE70122574B1A700AE78B
:105860000222554B1A7006E70020524B98474F4DC5
:10587000AE69EF69534CA04732003B00524EB0472F
:10588000524B9847C317C0185840AE6FEF6FA047F0
:10589000012432003B004E4DA847002800D10024CF
:1058A000E4B2002C25D0012C00D0E4E63F4B0133BC
:1058B000FF3318685968474B98474C4B1A685B6828
:1058C000464CA047002800D1D5E6474C424B1A6809
:1058D0005B6820686168434DA84720606160434B66
:1058E00018605960394B984701000020404B984799
:1058F000C1E600202F4B98472C4DAE69EF69314B24
:105900009A469847304C32003B00A0472F4B9846B0
:105910009847C21783185340AE6FEF6F0B93180070
:10592000D04732003B00A047EC246400C047285118
:105930006A1CFF32924610685168264A904690478A
:10594000294B18605960AA6FEB6F0C920D930022DF
:10595000284B214908684968274EB0470E900F919F
:105960002E003936FF3630687168C04706000F00D8
:105970000020224B98478346514608684968C04733
:105980002C590894069007915C460494029603975C
:105990000E980F99009001910C9A0D9B0B991A4843
:1059A000184CA0470222044B1A7064E6C005002080
:1059B000E9B40000C9B4000065040020D032010041
:1059C000D9B400003D130100690C0100D51201009B
:1059D00021EA00002D330000E80700205DEA000006
:1059E00048050020E1F8000050040020B007002026
:1059F0000DB4000000408F4069070100FDB30000B6
:105A00009C34010089C80000D03401000020C14B43
:105A10009847C14CA669E769C04DA84732003B00D2
:105A2000BF4EB047BF4B9847C317C018584080348B
:105A300026686768A847012432003B00BA4DA84792
:105A4000002800D10024E4B2002C44D0012C00D066
:105A500011E6B14B4133FF3318685968B34B98478F
:105A6000B34B1C685D6822002B00B24EB047002883
:105A700012D0B14B1A6D5B6D20002900A84CA047D5
:105A800002000B00AA490A604B60AC4C20686168B8
:105A9000AB4DA84720606160AA4CA84B1A685B68B0
:105AA000226063609C4B0933FF33186859689F4B31
:105AB00098476568246822002B00A34EB047002851
:105AC00000D1D8E520002900964B9847010000201E
:105AD0009E4B9847CFE500208E4B98478E4CA66989
