S01D00004754726F6E5F417869735F436F6E74726F6C6C65722E73726563A6
S214000000502C00206D6B0000696B0000696B0000CF
S21400001000000000000000000000000000000000DB
S214000020000000000000000000000000696B0000F7
S2140000300000000000000000696B000091AF0000A7
S214000040696B0000696B0000696B0000158E00008C
S214000050696B0000696B0000696B0000696B00004B
S214000060696B0000696B00002D930000696B00004F
S214000070696B0000696B000041930000696B00002B
S214000080418A0000696B0000696B0000696B000024
S214000090696B0000399A00004D9A0000696B0000F9
S2140000A0619A0000696B0000696B0000696B0000D4
S2140000B0696B0000696B0000696B000010B5064CA8
S2140000C02378002B07D1054B002B02D0044800E014
S2140000D000BF0123237010BD38020020000000007E
S2140000E0C8400100084B10B5002B03D0074908484C
S2140000F000E000BF07480368002B00D110BD064B88
S214000100002BFBD09847F9E7000000003C020020D7
S214000110C8400100C84001000000000010B5024BB6
S2140001209847024B984710BD9973000039AF0000FE
S21400013070B504000E001D00FA2189005143090124
S2140001403048314B984701380004304B1840304B4C
S21400015018432660B36901221343B36123689A6982
S214000160D207FBD59A6902210A439A61294B9E421F
S21400017034D02268936902218B4393612268936985
S21400018001398B43936123689B69DB07FBD420000E
S214000190214B98476B091F2215401E3AAA40C024DF
S2140001A0E405DB011E19B2601004000C8021C905AD
S2140001B001438220C005844663449962110CC02521
S2140001C02D0629439962726110238822A35020329B
S2140001D0124981508550143AA35070BD2368D861E7
S2140001E00F4B802252027E315A50BFF34F8FBFF31F
S2140001F06F8F0131FF315A501A6023680122DA6589
S214000200B7E7C046006CDC02958B00000000FF01DB
S214000210030A000600200042B177000010000040EC
S21400022000E100E010B50A000121014B984710BD1F
S2140002304978000010B50A000021014B984710BD10
S2140002404978000010B584B0009100216C462171F9
S21400025006A902912373002A08D100236373694616
S214000260044B9847044B186004B010BD0123637319
S214000270F5E7C04611780000F407002010B584B0FA
S2140002800C0002926946084B9847009B23606B4619
S2140002901B79002B05D0012B01D0002002E00220A4
S2140002A000E0012004B010BDD977000010B582B080
S2140002B000910192002B06D16B4600220021054CCE
S2140002C0A04702B010BD6B4601220021014CA0479A
S2140002D0F7E7C0469978000070B5430E0F241C401F
S2140002E0144B1C70450CEDB2134B1D70420AD2B273
S2140002F0124B1A70C0B2124B187012490B79124E7C
S21400030033706419E4B21219D2B28018C0B20A78F7
S2140003108018C0B24A788018C0B28A788018C0B2F6
S214000320CA788018C0B2094A1070181A4342584159
S214000330C0B270BD4004002088080020C50500201B
S2140003404C050020280800204D05002071080020DC
S214000350F0B5D6464F4680B58FB0B24B984200D126
S214000360DCE020D9B04B984200D188E300D8FBE00F
S214000370AE4B984200D196E200D9E5E1AC4B9842EC
S21400038000D1BFE200D93DE1AA4B984200D147E335
S214000390A94B984200D07CE20122A84B1A71002299
S2140003A0A74B1A6095E2A74B984200D1B6E000D959
S2140003B0A5E0A54B984200D10DE33ED9A34B984249
S2140003C000D134E36CD882239B04984200D1BCE26F
S2140003D09F4B984200D05CE201229E4B1A709E4BC7
S2140003E098479E4B18609E4B1B78002B00D1E7E287
S2140003F09A4B18684042924B1C689A4B98470022CA
S2140004002100994B9847954C2068984B98470423B1
S214000410642201210B20964DA84725682068914B41
S21400042098479449944B9847944B984702000B0082
S21400043029009348934CA0472BE2102800D126E2CF
S21400044025D9914B984201D100F0ECFB8F4B984296
S21400045000D01EE2804B9847804B18608C4B1C786F
S21400046000228C4B5A60002C00D12BE31A001B781C
S21400047001210B43137002210020874B98478748C1
S214000480874B9847210087487E4B984701E2022811
S21400049000D0FEE1002000217D4B18605960F8E195
S2140004A0814B984200D1D1E2804B984200D0F0E1D7
S2140004B0694B984701007E4C20607E48714B9847F8
S2140004C020687D4B98477D4B98477D4B98470100A9
S2140004D020607C4B1B78002B03D07B4B1B78002BBB
S2140004E001D1574B19607948664CA0470523642212
S2140004F001210B205E4DA8477548A047C9E1754B02
S21400050098420BD01CD8744B984207D010D8734B27
S214000510984203D0724B984200D0BAE10523642279
S21400052001210B20524CA0476E486F4B9847B0E114
S2140005306E4B9842F2D06E4B984200D0A9E1EDE7A0
S2140005406C4B9842EAD007D86B4B9842E6D06B4B80
S214000550984200D09DE1E1E7694B9842DED0694BB6
S214000560984200D095E1D9E7674B9842D6D02DD96E
S214000570664B9842D2D03DD9654B9842CED0654B5B
S214000580984200D085E10AA8634B9847C023DB0554
S214000590802252009C5820328221C9058858103A81
S2140005A09B5843401C4044400AA85C4B9847802018
S2140005B0C0020440601E8441E0B22C4B98470A23D8
S2140005C0642201210B202A4CA04762E1544B98423A
S2140005D0A4D007D8534B9842A0D0534B984200D093
S2140005E057E19BE7514B984298D0514B984200D028
S2140005F04FE193E74F4B984290D04F4B984200D034
S21400060047E18BE74D4B984200D152E1C5239B044E
S214000610984200D03DE14A4B98474A48324B9847AB
S21400062037E1C04600EA0A0200160C020002140374
S21400063000021A0200A20D0200001A023008002072
S2140006408C080020000A0A020000060200000A02C7
S21400065000020802F007002061370000940800201E
S2140006604E050020E9F20000615200004937000004
S2140006704D3600008542214651E90000650F010015
S21400068070140100BDC3000015000002180000022F
S214000690280800206808002049B2000084090020CD
S2140006A0CD7C00003415010000020A0200080A0290
S2140006B090080020D8130100710E010015330000C9
S2140006C0090E01003A050020C8070020E8130100C3
S2140006D0FC13010000320A02002C0A02001C0A0267
S2140006E000220A02CC130100D9C40000002E0A0220
S2140006F000300A0200380A0200340A0200360A02F3
S21400070000E60A0200E80A02000C0B0200860B0252
S21400071000A20B0200140C021D7700002B770000CD
S21400072000F80A0200EC0A0200EE0A0200FA0A02C8
S21400073000020B0200820B0200840B0200041A0265
S214000740053400009C130100E3239B04984200D16B
S214000750B0E328D8E2239B04984200D18FE3E54B10
S214000760984200D095E0E44B98470400E34B984746
S214000770051CE349E34B9847E34B9847E34E306349
S214000780E34B9847316BE348E34B9847E349281C13
S214000790E34B9847E34B984702000B000094E2486F
S2140007A0E249884775E0F0239B04984200D158E15F
S2140007B0DF4B98426DD1DF4B1A68DF4B186811216A
S2140007C0DE4B98470690DE4B1B78002B00D151E19C
S2140007D00020DC4B984746422E210020DA4B9847F3
S2140007E00500C64B994630009847DE218905D74B51
S2140007F09847CC4CA047D64B984706000F00069863
S214000800D44B984732003B00D34EB04706000F004B
S2140008102800D24B984732003B00D14DA847D14B19
S21400082098470500BA4B984707952900CE48BA4B1B
S2140008309847CE4B18785E789F78DD78CC4B1B793E
S2140008409A46CC4B1B789C46CB4A1278CB49097803
S214000850534605930495039702960190C84800787E
S21400086000906346C748B14EB0470698C64B9847B7
S214000870AB4FC649B847051C0798C847291CB84758
S214000880A04702000B000799C148B04701E0C14BE2
S2140008909847BA4B1B78012B00D12BE30FB00CBC4A
S2140008A091469A46F0BDBC4B9847BC48BC4B98470F
S2140008B0EFE70122BB4B1A70BB4B9847BB48B84BBF
S2140008C09847E6E700210020B94B9847B948B44B53
S2140008D098470020B84B98470028F3D10230B74B12
S2140008E098478A4B1B79002B09D1B548AC4B9847E3
S2140008F00D23642201210B20B24CA047C9E7B24B5E
S2140009009847F2E700210020A94B984700210020D5
S214000910AE4B98470023AE4A1370AE4A13707B4A1C
S21400092013715372137200200021AB4B186059608C
S214000930AA48AB4B9847AB48994B98470D2364227F
S21400094001210B209F4CA047A3E70122A64B1A705B
S214000950694B9847A54B1860794B1B78002B24D021
S214000960A24B18684042A24B1C68644B9847012271
S2140009702100A04B98479D4C2068654B9847042360
S214000980642201210B208F4DA847256820685B4B09
S21400099098476249624B9847624B984702000B00A3
S2140009A029009548614CA04773E7904B1868904B18
S2140009B01C68524B9847012221008E4B9847DAE775
S2140009C08A4B18688A4B1C684C4B984700222100BB
S2140009D0884B984717E500210020754B9847002163
S2140009E000207A4B98470023794A1370794A13708F
S2140009F0464A1371537213727B4A1370002000210B
S214000A00754B186059607548754B984703236422E8
S214000A1001210B206B4CA0477848614B984738E77C
S214000A200623642201210B20664CA04731E70020F4
S214000A30734B98470400364B984721003548364B91
S214000A40984721006F48394B984722E700203D4BD6
S214000A50984704002E4B984721002E482E4B984767
S214000A6017E700222E210020674B984767484C4B1B
S214000A7098470EE70020334B98470600ACE60BA8D5
S214000A80634B9847C023DB05802252009C582032D7
S214000A908221C9058858103A9B5843401C40444060
S214000AA00BA85C4B9847802040030440601E84419E
S214000AB0E0B2174B98470B23642201210B20414CD0
S214000AC0A047E6E6544A137801218B431370534837
S214000AD0434B9847002100203C4DA8470020194B67
S214000AE09847010000204E4B984703210020A84756
S214000AF0C8E4C04600008A0361370000E9F200003F
S214000B008542A1462DE60000A9F20000300800202C
S214000B104937000005C80216E53200008542214626
S214000B2051E90000650F0100B4150100BDC30000C7
S214000B300000C2030C00002008000020D16A00005C
S214000B404E05002039B20000A1AF000031ED0000D4
S214000B50B1B60000F50E01009D020100710E010005
S214000B6015F40000090E0100E1C80216E007002097
S214000B7028080020C5050020880800204004002022
S214000B804C050020D414010089F300003333CB4019
S214000B90081501005967000035330000B013010046
S214000BA0D9C40000D0070020ED340000B8130100BF
S214000BB07DB10000101401008DB10000CD7800005A
S214000BC02C1401004D3600007950000049B2000098
S214000BD03A050020C807002028050020F00900205C
S214000BE0097D00003C140100F00700209408002056
S214000BF08C0800206152000048140100981401007F
S214000C00F9B10000A81401004DB00000C0140100A6
S214000C101D7700002B77000068080020840900205C
S214000C20BDB10000C84B9847C84B1860C84B1D782C
S214000C305B78013B58425841C64943010A78202058
S214000C40824313430B700CA8C34B9847C023DB05A5
S214000C50802252009C5820328221C9058A58882159
S214000C6049005B5853401C4054400CA8BB4B984767
S214000C70E30203D4B74B1B789B0625D40DA8B64BCE
S214000C809847C023DB05802252009C5820328221E0
S214000C90C9058A58882149005B5853401C40544077
S214000CA00DA8AE4B9847630303D4AA4B1B789B064C
S214000CB00AD5A84B1B789B0672D50A2D00D9E8E505
S214000CC0AD00A74B5B599F46A648A74B9847E5E55E
S214000CD00022A04B5A60DCE5A44B1B78002B03D007
S214000CE00B239C4A5360D4E50123FAE79F4B1B78FD
S214000CF0002B03D00C23974A5360CAE50223FAE779
S214000D009A4B1B78002B03D00D23924A5360C0E504
S214000D100323FAE7954B1B78002B03D00E238D4A4E
S214000D205360B6E50423FAE7904B1B78002B03D0FC
S214000D300F23884A5360ACE50523FAE78B4B1B78F4
S214000D40002B03D01023834A5360A2E50623FAE75C
S214000D50864B1B78002B03D011237E4A536098E500
S214000D600723FAE7814B1B78002B03D01223794A1E
S214000D7053608EE50823FAE77C4B1B78002B03D0E4
S214000D801323744A536084E50923FAE7774B1B78EC
S214000D90002B03D014236F4A53607AE50A23FAE740
S214000DA00A2D00D975E5AD00714B5B599F460022B0
S214000DB0684B5A606DE56D4B1B78002B03D0012302
S214000DC0644A536065E50B23FAE7684B1B78002BF3
S214000DD003D002235F4A53605BE50C23FAE7634BBC
S214000DE01B78002B03D003235A4A536051E50D238A
S214000DF0FAE75E4B1B78002B03D00423554A53605A
S214000E0047E50E23FAE7594B1B78002B03D0052342
S214000E10504A53603DE50F23FAE7544B1B78002BEE
S214000E2003D006234B4A536033E51023FAE74F4BB3
S214000E301B78002B03D00723464A536029E511236D
S214000E40FAE74A4B1B78002B03D00823414A53602D
S214000E501FE51223FAE7454B1B78002B03D0092326
S214000E603C4A536015E51323FAE7404B1B78002BEA
S214000E7003D00A23374A53600BE51423FAE73D4BA9
S214000E805C69002C00D11C6920003B4B9847210070
S214000E903A483B4B984720003A4B98473A493B4BD9
S214000EA098473B4B984702000B00009439483A4954
S214000EB08847EEE4244B98470400324B9847051CBD
S214000EC03649374B9847374B98472A4EF0622A4B9D
S214000ED09847F16A34482A4B98472B49281C2B4BD5
S214000EE098472B4B984702000B0000942F482A493E
S214000EF08847CEE42E4B1B78803BDAB2142A00D902
S214000F00CCE493002B4AD3589F460F4B98470400D7
S214000F10294B197802000020284B98472000164BD2
S214000F20984721002648164B9847B7E4224B197875
S214000F300020244B984704000F4B98472100224876
S214000F400F4B9847AAE4C04661370000940800207B
S214000F5028080020680800201D7700002B77000076
S214000F609811010048150100D9C400004E05002064
S214000F70C4110100300800204937000006C80216D8
S214000F80E5320000E9F200008542214651E9000002
S214000F90650F01007C150100BDC300008542A14617
S214000FA071EF0000A9F2000005C80216E015010066
S214000FB088080020F0110100C50500204DB0000093
S214000FC092C80216A1AF000094C802162F4B1978DB
S214000FD0802252002E4B1A602E4B1A682E4C206828
S214000FE02E4B9847236898682D4B98472368996836
S214000FF02C4D28002C4B98472C4B18712368996869
S21400100028002B4B984722681178537892680292F2
S214001010019200930A002748274CA0473EE41B4B4A
S2140010201C78264B1D78264B984709902A0009A95C
S2140010302000244B98470998194B9847224E099947
S2140010403000194B9847194B187109993000184B06
S2140010509847099B0293019300952B0022002100DC
S2140010601A48154CA04719E4084B1C78144B9847AF
S2140010700300084A1268084908682100144CA04773
S2140010801448154B9847FFF709FCC046C5050020D5
S214001090B00700200C00002008000020D16A0000E5
S2140010A04937000084C80216E1360000E007002039
S2140010B0E532000008160100BDC300004C05002004
S2140010C0613700006967000082C8021660160100DA
S2140010D0016A0000BC160100D9C40000F0B5DE4667
S2140010E057464E464546E0B591B00C00C84B984270
S2140010F000D1DEE021D9C74B984201D100F099FC1F
S21400110000D8FCE0C44B984200D1E7E200D932E2B6
S214001110C24B984200D10DE300D91EE2C04B984264
S21400112000D192E3BF4B984200D0CAE20122BE4BE8
S2140011301A710022BD4B1A60E3E2BD4B984200D103
S214001140B7E000D9A6E0BB4B984200D15BE33ED99E
S214001150B94B984200D1A5E36DD88123DB049842B1
S21400116000D10AE3B54B984200D0AAE20122B44B64
S2140011701A70B44B9847B44B1860B44B1B78002BCE
S21400118000D135E3B04B18684042A84B1C68B04B02
S214001190984700222100AF4B9847AB4C2068AE4BD7
S2140011A098470423642202210C20AC4DA8472568EA
S2140011B02068A74B9847AA49AA4B9847AA4B984736
S2140011C002000B002900A948A94CA04779E2112883
S2140011D000D174E226D9A74B984201D100F0B6FCA4
S2140011E0A54B984200D06CE2964B9847964B1860F9
S2140011F0A24B1C780022A24B5A60002C01D100F0B2
S2140012008DFC1A001B7801210B431370022100206D
S2140012109C4B98479C489D4B984721009C48944B74
S21400122098474EE2022800D04BE200200021934B64
S2140012301860596045E2974B984200D1DCE3964B24
S214001240984200D03DE27F4B98470100934C2060C7
S2140012509348874B98472068924B9847924B9847FD
S214001260924B984701002060914B1B78002B03D0CF
S214001270904B1B78002B01D16C4B19608E487C4C30
S214001280A0470523642202210C20744DA8478B48F2
S214001290A04716E28A4B98420BD01CD8894B98423E
S2140012A007D010D8884B984203D0884B984200D07D
S2140012B007E20523642202210C20684CA0478448DC
S2140012C0844B9847FDE1844B9842F2D0834B98427A
S2140012D000D0F6E1EDE7824B9842EAD007D8814B82
S2140012E09842E6D0804B984200D0EAE1E1E77F4B97
S2140012F09842DED07E4B984200D0E2E1D9E77D4BA3
S2140013009842D6D06DD97C4B9842D2D000D81BE1FB
S2140013107A4B9842CDD07A4B984200D0D1E10AA8B9
S214001320784B9B469847C025ED0580235B009A4680
S214001330EF588223DB05994690235B0098464B4680
S2140013404246985888235B00EB5843401F4047406E
S2140013500AA86D4EB0478023DB021F40781E8741E7
S214001360F8B23D4B9847694F21003800684B9847C4
S214001370684C207100213800674B98472378069305
S21400138062789446A778E0783C4B1C79634B1B78D0
S214001390634A127863490978059404900397644673
S2140013A00294069801906048007800905F48304CA0
S2140013B0A04709A8D8475346EB584A4641465158D5
S2140013C088225200AD584D401D404D4009A8B047F8
S2140013D08023DB021D40691E8D41E9B25448A047B8
S2140013E06FE1544B984200D163E708D8524B9842BD
S2140013F000D15EE7514B984200D062E159E7504B6E
S214001400984200D155E74F4B984200D059E150E73B
S21400141000EA0A0400160C040002140500021A046E
S21400142000A20D0400001A04300800208C080020DA
S214001430000A0A040000060400000A040002080469
S214001440F007002061370000940800204E050020B9
S214001450E9F2000061520000493700004D360000F6
S2140014608542214651E90000650F01008C170100F6
S214001470BDC3000015000004180000042808002062
S2140014806808002049B2000084090020CD7C0000D6
S2140014907818010000020A0400080A0490080020D8
S2140014A010170100710E010015330000090E01002F
S2140014B03A050020C8070020201701003417010055
S2140014C000320A04002C0A04001C0A0400220A0443
S2140014D004170100D9C40000002E0A0400300A04D4
S2140014E000380A0400340A0400360A0400E60A0437
S2140014F000E80A04000C0B0400860B0400A20B0490
S21400150000140C041D7700002B7700000AC804188E
S214001510E1360000E0070020E5320000C5050020A7
S21400152088080020400400204C050020D414010048
S2140015303818010000F80A0400EC0A0400EE0A0459
S21400154000FA0A0400020B04DE4B984200D1B0E613
S214001550DD4B984200D0B4E0ABE6DC4B984200D1BD
S214001560C2E0DB4B984200D0ABE0DA4B9847DA4853
S214001570DA4B9847A5E0DA4B984201D100F077FCA9
S21400158029D8B123DB04984201D100F055FCD54B95
S214001590984200D095E0D44B98470400D34B984728
S2140015A0051CD349D34B9847D34B9847D34E30634B
S2140015B0D34B9847316BD348D34B9847D349281C15
S2140015C0D34B9847D34B984702000B000094D24861
S2140015D0D249884775E0B823DB04984200D11AE266
S2140015E0CF4B98426DD1CF4B1A68CF4B186811215C
S2140015F0CE4B98470690CE4B1B78002B00D113E2BB
S2140016000020CC4B984746422E210020CA4B9847D4
S2140016100500B64B994630009847DE218905C74B32
S2140016209847BC4CA047C64B984706000F00069844
S214001630C44B984732003B00C34EB04706000F002D
S2140016402800C24B984732003B00C14DA847C14B0B
S21400165098470500AA4B984707952900BE48AA4B0D
S2140016609847BE4B18785E789F78DD78BC4B1B7920
S2140016709A46BC4B1B789C46BB4A1278BB490978F5
S214001680534605930495039702960190B848007850
S21400169000906346B748A14EB0470698B64B9847A9
S2140016A09B4FB649B847051C0798C847291CB8473A
S2140016B0A04702000B000799B148B04701E0B14BC4
S2140016C09847AA4B1B78022B01D100F0F1FB11B012
S2140016D03CBC90469946A246AB46F0BDAA4B9847FE
S2140016E0AA487E4B9847ECE7A94B9847A9487B4BFE
S2140016F09847E6E700210020A74B9847A748774B76
S21400170098470020A64B98470028F3D10230A54BF7
S21400171098477A4B1B79002B09D1A3486F4B984703
S2140017200D23642202210C20A04CA047C9E7A04B41
S2140017309847F2E700210020974B984700210020A9
S2140017409C4B984700239C4A13709C4A13706B4A24
S21400175013715372137200200021994B1860596060
S2140017609848994B984799485C4B98470D236422B4
S21400177002210C208D4CA047A3E70122944B1A703F
S214001780594B9847934B1860694B1B78002B24D015
S214001790904B18684042904B1C68544B9847012267
S2140017A021008E4B98478B4C2068554B9847042356
S2140017B0642202210C207D4DA847256820684B4BEB
S2140017C098475249524B9847524B984702000B0095
S2140017D029008348514CA04773E77E4B18687E4B20
S2140017E01C68424B9847012221007C4B9847DAE759
S2140017F0784B1868784B1C683C4B984700222100B1
S214001800764B9847C9E400210020634B9847002197
S2140018100020684B98470023674A1370674A137086
S214001820364A137153721372694A137000200021EE
S214001830634B186059606348634B984703236422E0
S21400184002210C20594CA0473BE70020394B984713
S21400185005002B4B9847634E21003000624B98479B
S2140018603E4C2071069529003000274B984720787B
S2140018706678A778E4783A4B1D793A4B1B783A4A53
S21400188012783A49097805950494039702960190D0
S2140018903748007800903748204CA04706995348B0
S2140018A0A0470EE70020524B98470400144B984779
S2140018B021001448144B984721004E48174B984770
S2140018C0FFE6C04600820B0400840B0400041A04E2
S2140018D00000140505340000D4160100D9C4000029
S2140018E000008C0500008A0561370000E9F2000060
S2140018F08542A1462DE60000A9F20000300800202F
S2140019004937000005C80418E53200008542214624
S21400191051E90000650F0100F4180100BDC3000086
S2140019200000C2050C00002008000020D16A00005C
S2140019304E05002039B20000A1AF000031ED0000D6
S214001940B1B60000F50E01009D020100710E010007
S21400195015F40000090E0100E1C80418E007002095
S21400196028080020C5050020880800204004002024
S2140019704C050020D414010089F300003333CB401B
S2140019800C1801005967000035330000E816010006
S214001990ED340000F01601007DB1000010140100C7
S2140019A08DB10000CD780000481701004D360000CC
S2140019B07950000049B200003A050020C807002010
S2140019C028050020F0090020097D000058170100B6
S2140019D0F0070020940800208C08002061520000C8
S2140019E06417010006C80418E1360000B4170100A9
S2140019F0F9B10000A81401000020D54B9847040058
S214001A00D44B98472100D448D44B98472100D4485B
S214001A10D44B984755E600222E210020D24B9847FB
S214001A20D248D34B98474CE60020C94B984706004F
S214001A30EAE50DA8CF4B9B469847C026F6058023BF
S214001A405B009A46F5588223DB05994690225200A1
S214001A509A5888235B00F35853401D4055400DA804
S214001A60C54B9846984780235B031D406B1E9D41DF
S214001A70EDB20CA8D8475346F7584B469022520072
S214001A80985888235B00F35843401F4047400CA8F3
S214001A90C04780235B031F40781E8741F8B2AD4BDA
S214001AA09847B64F21003800B54B9847B54C207183
S214001AB029003800A94B984723789C466778A57874
S214001AC0E078B14B1C79B14B1B78B14A1278B1491A
S214001AD00978059404900395029760460190AE48F5
S214001AE000780090AD489F4CA0470BA8D8475346B7
S214001AF0F5584B4690225200995888235B00F358BD
S214001B004B401D404D400BA8C04780235B031D4043
S214001B10691E8D41E9B2A248A047D2E5A14A1378D2
S214001B2001218B431370A048A04B9847002100204A
S214001B309F4DA8470020864B9847010000209D4BEC
S214001B40984703210020A847FFF767FB9A4B984762
S214001B509A4B18608C4B1D785B78013B5842584175
S214001B60904943010A782020824313430B700EA845
S214001B70804B9847C023DB05802252009C582032B9
S214001B808221C9058A58882149005B5853401C4069
S214001B9054400EA8784B9847E30203D4814B1B7839
S214001BA09B0624D50FA8734B9847C023DB058022DD
S214001BB052009C5820328221C9058A588821490043
S214001BC05B5853401C4054400FA86B4B9847630328
S214001BD003D4744B1B789B0609D4724B1B789B0668
S214001BE079D50A2D0AD8AB00754AD3589F46754852
S214001BF05F4B98476BE500226A4B5A60694B1A7830
S214001C009206D20F29007048564B984759E56F4BFD
S214001C101B78002B03D00B23624A5360EEE70123A8
S214001C20FAE76A4B1B78002B03D00C235D4A5360FF
S214001C30E4E70223FAE7654B1B78002B03D00D235D
S214001C40584A5360DAE70323FAE7604B1B78002B09
S214001C5003D00E23534A5360D0E70423FAE75B4BC6
S214001C601B78002B03D00F234E4A5360C6E705238C
S214001C70FAE7564B1B78002B03D01023494A5360D3
S214001C80BCE70623FAE7514B1B78002B03D0112341
S214001C90444A5360B2E70723FAE74C4B1B78002B05
S214001CA003D012233F4A5360A8E70823FAE7474BBE
S214001CB01B78002B03D013233A4A53609EE7092370
S214001CC0FAE7424B1B78002B03D01423354A5360A7
S214001CD094E70A23FAE70A2D90D8AB003C4AD3587B
S214001CE09F4600222F4B5A6088E7384B1B78002B04
S214001CF003D001232B4A536080E70B23FAE7334BCC
S214001D001B78002B03D00223264A536076E70C2369
S214001D10FAE72E4B1B78002B03D00323214A53608F
S214001D206CE70D23FAE7294B1B78002B03D004231E
S214001D301C4A536062E70E23FAE7244B1B78002BFD
S214001D4003D00523174A536058E70F23FAE7C04627
S214001D5039B200004937000005C80418E532000013
S214001D60E0170100BDC300004DB00000F8170100E9
S214001D70D9C400001D7700002B7700000BC804189C
S214001D80E1360000E007002028080020C5050020F6
S214001D9088080020400400204C050020D4140100D0
S214001DA0581801006808002084090020097D0000FA
S214001DB049B20000BDB10000613700009408002061
S214001DC044120100481501008C1801004E05002041
S214001DD0701201007D4B1B78002B03D006237C4A33
S214001DE053600BE71023FAE7784B1B78002B03D0E1
S214001DF00723774A536001E71123FAE7734B1B78F2
S214001E00002B03D00823724A5360F7E61223FAE742
S214001E106E4B1B78002B03D009236D4A5360EDE60A
S214001E201323FAE7694B1B78002B03D00A23684A72
S214001E305360E3E61423FAE7664B5C69002C00D196
S214001E401C692000644B984721006448644B9847FF
S214001E502000644B98476449644B9847644B984706
S214001E6002000B00009463486349884729E4634BEB
S214001E70984704005B4B9847051C6149614B98479F
S214001E80614B9847534EF062534B9847F16A5F4850
S214001E90534B98475449281C544B9847544B9847E3
S214001EA002000B0000945A4853498847FFF709FC84
S214001EB0584B1B78803BDAB2142A01D9FFF707FC8F
S214001EC09300554AD3589F464C4B98470400534BB3
S214001ED0197802000020524B984720003E4B984746
S214001EE0210050483E4B9847FFF7F1FB4B4B1978C3
S214001EF000204D4B98470400374B984721004B482D
S214001F00374B9847FFF7E3FB444B19788022520083
S214001F10474B1A60474B1A68474C2068474B984710
S214001F20236898682C4B984723689968444D280086
S214001F30444B9847444B1871236899682800284BEF
S214001F40984722681178537892680292019200931B
S214001F500A003E48284CA047FFF7B9FB2F4B1C78D9
S214001F603B4B1D78254B984708902A0008A920006F
S214001F70384B98470898184B9847374E08993000C2
S214001F80304B9847304B187108993000144B9847DF
S214001F90089B0293019300952B00220021002F48F6
S214001FA0154CA047FFF793FB1C4B1C78134B984728
S214001FB00300204A1268204908682100284CA047E0
S214001FC02848294B9847FFF782FBC0464E0500205D
S214001FD068080020300800204937000006C80418AA
S214001FE0E5320000E9F200008542214651E9000092
S214001FF0650F0100BC180100BDC30000613700007A
S2140020008542A14671EF0000A9F2000005C8041839
S21400201020190100880800209C120100C505002038
S2140020204DB0000092C80418A1AF000094C8041870
S214002030B00700200C00002008000020D16A000035
S21400204084C80418E1360000E007002048190100A3
S2140020504C0500206967000082C80418A01901001A
S214002060016A0000FC190100D9C40000F0B5DE4684
S21400207057464E464546E0B591B0BE4B984200D115
S21400208005E126D9BC4B984201D100F03DFD00D8B1
S21400209021E1BA4B984200D15BE200D90FE2B84B7F
S2140020A0984200D1ACE200D9FCE1B64B984200D190
S2140020B063E3B54B984226D16023B44AD35C002B29
S2140020C000D05AE20122B24B1A710022B14B1A60BC
S2140020D072E2B14B984200D1D9E000D9BBE0AF4BD9
S2140020E0984200D124E341D8E52801D100F0F6FB60
S2140020F016D8022800D126E2122804D1A848A94BF7
S2140021009847A94B9847A94B1B78032B01D100F0A1
S214002110FFFE11B03CBC90469946A246AB46F0BDC9
S214002120A34B984201D100F02BFDA24B9842EAD176
S214002130A14B9847A14B1860A14B1C780022A14BDD
S2140021405A60002C01D100F003FD1A001B78012113
S2140021500B431370022100209B4B98479B489C4BD7
S214002160984721009B489C4B9847CCE79B4B98424E
S21400217000D110E338D8C123DB04984200D162E2D4
S214002180974B9842BFD10122964B1A708A4B9847BC
S2140021908A4B1860944B1B78002B00D1BDE2874B0E
S2140021A0186840427B4B1C68904B984700222100E1
S2140021B08F4B9847814C20688E4B984704236422A7
S2140021C003210D208C4DA84725682068874B98472B
S2140021D08A498B4B98478B4B984702000B00290087
S2140021E089487D4CA0478EE7884B984200D1E1E2B3
S2140021F0874B984200D086E76F4B98470100854C86
S21400220020608548744DA8472068844B9847844BC7
S2140022109847844B9847010020608348A847834B23
S2140022201B78002B03D0824B1B78002B03D1794BF5
S2140022301A68584B1A60A3237E4AD35C002B00D042
S21400224093E10523642203210D206B4CA0477A48B6
S214002250614B984757E7794B984218D00CD9784B82
S214002260984226D10523642203210D20624CA04704
S21400227074484C4B984746E7734B984207D010D8A3
S214002280724B984203D0724B984200D03BE705232E
S214002290642203210D20584CA0476E48414B9847B6
S2140022A031E76D4B9842F2D06C4B984200D02AE74B
S2140022B0EDE7984207D86A4B9842E8D0694B9842B7
S2140022C000D020E7E3E7684B9842E0D0674B98429F
S2140022D000D018E7DBE7664B9842D8D02DD9654B7F
S2140022E09842D4D03DD9644B9842D0D0634B9842A4
S2140022F000D008E70CA8624B9847C023DB05802275
S21400230052009C5820328221C9058858103A9B58A2
S21400231043401C4044400CA85A4B98478020C002BB
S2140023200440601E8441E0B2324B98470A23642280
S21400233003210D20304CA047E5E6534B9842A6D02B
S21400234007D8524B9842A2D0514B984200D0DAE6BA
S2140023509DE7504B98429AD04F4B984200D0D2E619
S21400236095E74E4B984292D04D4B984200D0CAE625
S2140023708DE7C04600EA0A0600160C06000214079F
S21400238000021A0600A20D0600001A0658050020D4
S214002390300800208C080020000A0A060000060606
S2140023A0141A0100D9C40000596700004004002038
S2140023B0150000061800000661370000940800208B
S2140023C0280800206808002049B200008409002080
S2140023D0CD7C00002C1D0100BDC3000000000A06D5
S2140023E000020806F00700204E050020E9F2000073
S2140023F061520000493700004D36000085422146F4
S21400240051E90000650F0100F81A010000020A06F3
S21400241000080A0690080020D8130100710E01007B
S21400242015330000090E01006C1A01003A05002061
S214002430C807002078040020A01A010000320A060F
S21400244000380A06581A0100002C0A06001C0A0664
S21400245000220A064C1A0100002E0A0600300A0660
S21400246000340A0600360A0600E60A0600E80A06EF
S214002470000C0B0600860B0600A20B0600140C06CA
S2140024801D7700002B77000000F80A0600EC0A060D
S21400249000EE0A0600FA0A0600020B0600820B0689
S2140024A000840B06CA4B984259D0CA4B984200D0BB
S2140024B029E6C94B9847C948C94B984723E6C94BF4
S2140024C0984201D100F003FD29D8F123DB0498429D
S2140024D001D100F0E0FCC44B984200D013E6C34B99
S2140024E098470400C24B9847051CC249C24B984700
S2140024F0C24B9847C24E3063C24B9847316BC248B6
S214002500C24B9847C249281CC24B9847C24B9847B3
S21400251002000B000094C148C1498847F3E5F82340
S214002520DB04984200D1EAE2BE4B984200D0EAE5CE
S2140025300020BD4B98470400B24B98472100BB488B
S214002540B24B9847DFE500200021B94B1860596070
S214002550D9E5B84B9847B848A14B9847D3E5B74B51
S2140025609847B7489E4B9847CDE5B64B19689C23CD
S214002570D150B548AA4B984763E61220B34B98470C
S214002580B34B1A68B34B18681221B34B9847002810
S21400259009D180235B01802252001A432C2100209F
S2140025A0AE4B98478EE50023F5E700210020AC4BA4
S2140025B09847AC488A4B98470020AB4B9847002872
S2140025C0F3D10230A94B98478D4B1B79002B09D1CC
S2140025D0A748834B98470D23642203210D20A54C62
S2140025E0A04790E5A44B98476023A44AD35C002BF1
S2140025F0EED00022824B1A731220944B9847E7E7DE
S21400260000210020964B9847002100209C4B9847BD
S21400261000239C4A13709C4A1370794A13715372B4
S214002620137200200021994B186059609848994B06
S214002630984799486A4B98470D23642203210D203A
S2140026408C4CA0475FE50122944B1A70674B984765
S214002650934B186018686B4B9847A123914AD35C3C
S214002660002B03D0A223D35C002B25D18E4B1B78E6
S214002670002B47D08A4B186840428C4B1C685C4B3A
S2140026809847012221008A4B98470423642203219D
S2140026900D20784CA047824B1C681868544B98470E
S2140026A05B495C4B98475C4B984702000B00210047
S2140026B080485B4CA04726E5546900205A4B984753
S2140026C0241AE317E4185C407B4B9C42CEDD744B27
S2140026D01968744B982299500C3A9B58002B0BDBC8
S2140026E0704B5B69754A944663446D4A13600121DA
S2140026F0A3236C4AD154B9E76A4B5B69704A944687
S2140027006344F2E7664B1868684B1C68384B98477A
S21400271001222100664B9847B7E7614B1868634B68
S2140027201C68334B984700222100614B984741E5CF
S214002730002100204A4B984700210020504B984724
S2140027400023504A1370504A13702D4A1371537267
S2140027501372524A1370002000214C4B18605960C7
S2140027604B484C4B98470323642203210D20414CD1
S214002770A04754481A4B9847C5E400202A4B984770
S2140027800400204B984721004F48204B98474F485D
S214002790134B9847B7E400204D4B98470400194B5D
S2140027A0984721001848194B9847210049481C4B68
S2140027B09847A8E400201C4B98470400114B984704
S2140027C021001148114B98474348054B98479AE417
S2140027D000041A0600001407053400001C1A010045
S2140027E0D9C4000000008C0700008A07613700008B
S2140027F0E9F200008542A1462DE60000A9F200009D
S214002800300800204937000005C8061AE5320000E7
S2140028108542214651E90000650F0100781D010040
S214002820BDC300000000C20739B20000E1C8061AA6
S2140028302808002035330000301A0100ED3400006F
S214002840381A010090080020801A0100717A0000F2
S2140028500C00002008000020D16A00004DB00000E7
S2140028607DB10000101401008DB10000CD7800008D
S214002870B41A01004D3600007950000058050020BB
S21400288049B200003A050020C807002028050020AD
S214002890F0090020097D0000C41A0100F00700209E
S2140028A094080020780400204E0500208C080020A4
S2140028B061520000D01A0100B95C02005FAFFFFF52
S2140028C0A1500000201B010006C8061A281B0100A4
S2140028D0F9B10000A8140100341B0100E94B1A6886
S2140028E05B68E94C22606360E84B1868E84B1A683E
S2140028F00F21E84B9847E84B9B469847011CE74D4D
S2140029008F20C005A847E64B984723686268D11712
S21400291052184A404243E2608C2292461A004243D2
S21400292051466250DA179B1853405843A060002661
S2140029309823E6500433E650DA4B1E609023E158A5
S214002940D94B1A680131D948D94FB8470020D94B1E
S21400295098472061E36898461800D847D649A847A4
S2140029600790A36899461800D847D349A847434616
S214002970DB1707252B404344DB100893CF4A9346CA
S2140029809047049005914A460392D3172B404B4438
S214002990DB1002930798D8470090019142460899A9
S2140029A0C748B8475346E158CA172A405218D210AB
S2140029B0C448B8470122A123E254C348B847942329
S2140029C0E6502000143078220021C04B9847E26879
S2140029D0A3689A421FD00121A223AB4AD154AA4D24
S2140029E08C262B69AA59944663441C006B61180018
S2140029F0A94B9847B049A94B9847B04B9847020057
S214002A000B0000940021B248A94CA047AB59002BFC
S214002A104BDB012467E0AF4B98470020A54B984757
S214002A209D4F0790B8479D4DA349A8470890964EDE
S214002A30B4682000B847A049A847051C9F4F0898CF
S214002A40B847089009910494281CB847029003914F
S214002A50079B0093089A099B00219F48944CA04727
S214002A600022A223F254BAE7874BE21C92009A187F
S214002A705568DA68AD1A221D92009B185D60280022
S214002A80854B98478C49854B98478C4B9847020056
S214002A900B00009521009148854DA84701341D2C58
S214002AA0E2DD8F488F4B984722E00124F7E7764B0C
S214002AB0E21C92009A185568DA6894466544221D0E
S214002AC092009B185D602800734B98477A49734BB9
S214002AD098477A4B984702000B00009521007F48E4
S214002AE0734DA84701341D2CE1DD7F487D4B984788
S214002AF0654990228B5801338B50FFF704FB7B48C7
S214002B00784B9847FFF7FFFA0DA8794B9847C023F4
S214002B10DB05802252009C5820328221C905885845
S214002B20103A9B5843401C4044400DA8714B9847B0
S214002B30802040030440601E8441E0B26E4B9847FC
S214002B400B23642203210D206C4CA047FFF7DBFA11
S214002B506B4A137801218B4313706A486A4B984777
S214002B6000210020694DA8470020524B98470100DD
S214002B700020674B984703210020A847FFF7F1FA8B
S214002B80644B9847644B18603E4B1D785B78013B5E
S214002B90584258415A4943010A7820208243134339
S214002BA00B700EA8524B9847C023DB0580225200BC
S214002BB09C5820328221C9058A58882149005B58D2
S214002BC053401C4054400EA84A4B9847E30203D497
S214002BD04B4B1B789B0625D50FA8454B9847C02323
S214002BE0DB05802252009C5820328221C9058A5873
S214002BF0882149005B5853401C4054400FA83D4B69
S214002C009847630303D43E4B1B789B060AD43C4B81
S214002C101B789B0600D4CFE00A2D0BD8AB003F4AAA
S214002C20D3589F463E482F4B9847FFF772FA00222C
S214002C30334B5A60324B1A789206D20F2900394825
S214002C401B4B9847FFF75FFA374B1B78002B03D0D8
S214002C500B232B4A5360EDE70123FAE7324B1B7830
S214002C60002B03D00C23264A5360E3E70223FAE73F
S214002C702D4B1B78002B03D00D23214A5360D9E738
S214002C800323FAE728080020780400200800002024
S214002C900C000020D16A0000E9F2000051E90000B3
S214002CA0A9F20000CC0700208C080020441B01007D
S214002CB0BDC3000039B2000085422146650F010001
S214002CC09C1B0100041C0100301C0100CBBA000054
S214002CD0901C010029620000401C0100B81C010085
S214002CE0E01C0100D9C40000001D01001C1D0100ED
S214002CF01D7700002B770000493700004D36000096
S214002D006808002084090020097D000049B2000000
S214002D10BDB100006137000094080020F0120100E9
S214002D20481501008C1801004E050020BF4B1B788B
S214002D30002B03D00E23BE4A53607BE70423FAE73A
S214002D40BA4B1B78002B03D00F23B94A536071E7A8
S214002D500523FAE7B54B1B78002B03D01023B44AA3
S214002D60536067E70623FAE7B04B1B78002B03D0C7
S214002D701123AF4A53605DE70723FAE7AB4B1B7896
S214002D80002B03D01223AA4A536053E70823FAE71E
S214002D90A64B1B78002B03D01323A54A536049E7A4
S214002DA00923FAE7A14B1B78002B03D01423A04A73
S214002DB053603FE70A23FAE70A2D00D93AE7AB004B
S214002DC09C4AD3589F460022994B5A6032E7974B4D
S214002DD01B78002B03D00123954A53602AE70B2368
S214002DE0FAE7924B1B78002B03D00223904A5360DD
S214002DF020E70C23FAE78D4B1B78002B03D0032328
S214002E008B4A536016E70D23FAE7884B1B78002B96
S214002E1003D00423864A53600CE70E23FAE7834B5D
S214002E201B78002B03D00523814A536002E70F234B
S214002E30FAE77E4B1B78002B03D006237C4A5360B0
S214002E40F8E61023FAE7794B1B78002B03D007230C
S214002E50774A5360EEE61123FAE7744B1B78002B93
S214002E6003D00823724A5360E4E61223FAE76F4B56
S214002E701B78002B03D009236D4A5360DAE6132330
S214002E80FAE76A4B1B78002B03D00A23684A536084
S214002E90D0E61423FAE7684B5C69002C00D11C6965
S214002EA02000664B984721006548664B98472000EF
S214002EB0654B98476549664B9847664B98470200AE
S214002EC00B000094644865498847FFF71CF9644B7B
S214002ED0984704005C4B9847051C6249624B98472C
S214002EE0624B9847544EF062544B9847F16A6048DC
S214002EF0544B98475549281C554B9847554B98476F
S214002F0002000B0000945B4854498847FFF7FBF823
S214002F10594B1B78803BDAB2142A01D9FFF7F9F82F
S214002F209300564AD3589F464D4B98470400544B3F
S214002F30197802000020534B984720003F4B9847D3
S214002F40210051483F4B9847FFF7E3F84C4B197860
S214002F5000204E4B98470400384B984721004C48B9
S214002F60384B9847FFF7D5F8454B19788022520022
S214002F70484B1A60484B1A68484C2068484B98479C
S214002F80236898682D4B984723689968454D280014
S214002F90454B9847454B1871236899682800294B7C
S214002FA098472268117853789268029201920093AB
S214002FB00A003F48294CA047FFF7ABF8304B1C7877
S214002FC03C4B1D78264B98470B902A000BA92000F7
S214002FD0394B98470B98194B9847384E0B99300049
S214002FE0314B9847314B18710B993000154B984769
S214002FF00B9B0293019300952B0022002100304882
S214003000164CA047FFF785F81D4B1C78144B9847C5
S2140030100300214A1268214908682100294CA0476C
S21400302029482A4B9847FFF774F8C0464E050020FB
S214003030680800201C1301003008002049370000F3
S21400304006C8061AE5320000E9F20000854221466D
S21400305051E90000650F0100401D0100BDC30000DE
S214003060613700008542A14671EF0000A9F200001A
S21400307005C8061AA41D0100880800204813010090
S214003080C50500204DB0000092C8061AA1AF00008A
S21400309094C8061AB00700200C0000200800002084
S2140030A0D16A000084C8061AE1360000E007002056
S2140030B0CC1D01004C0500206967000082C8061A76
S2140030C0241E0100016A0000801E0100D9C4000011
S2140030D010B5094C094B1A68230004C3084A03CAF2
S2140030E003C3084B98470100E06002000648074B00
S2140030F09847074B984710BD080900200008002095
S214003100280800207D370000981E0100BDC300007F
S21400311019470000F0B5CE46474680B587B0040094
S2140031200D00454B9847454B1B78022B48D0DAB22A
S214003130022A1DD9042B65D0052B3CD1404B1878AC
S2140031405C789D78DE781F793E4B1B783E4A127875
S2140031503E490978059704960395029401903C48E9
S214003160007800903B483C4CA0473C4B984722E0F8
S214003170012B20D1324B18785E789F78DA78944607
S2140031801B7998462F4B1B7899462F4A12782F4961
S2140031900978434605936346049303970296019085
S2140031A02B48007800904B462D482B4EB047290000
S2140031B020002C4B984707B00CBC90469946F0BDB3
S2140031C01F4B18785E789F78DA7894461B79984675
S2140031D01C4B1B7899461C4A12781C4909784346B2
S2140031E00593634604930397029601901848007867
S2140031F000904B461C48184EB047290020001B4B39
S2140032009847D8E70E4B18785C789D78DE781F795B
S2140032100C4B1B780C4A12780C49097805970496D3
S2140032200395029401900A480078009010480A4CD2
S214003230A0470A4B9847BEE7D9020000C405002005
S21400324028080020C505002088080020400400202B
S2140032504C050020501F0100BDC30000D130000007
S214003260B81E0100DD100000E81E01006D20000001
S214003270181F010070B5114B1B78002B00D170BDD4
S214003280013B0E4A13700E4D002200232A606B602D
S2140032900C4C002323600C4A13700C4A13700C4A23
S2140032A013700C4A13702A0021000B480B4B9847EA
S2140032B0296820680A4B9847E1E7C0466C0400205E
S2140032C0280800200008002040040020880800206D
S2140032D0C50500204C050020580900207D0200008E
S2140032E01531000010B582B00100064B5C681B6803
S2140032F000930194082301220348044CA04702B01F
S21400330010BDC046E0070020580900204502000016
S2140033107047000010B5044C0022044BA047002262
S214003320034BA04710BDC0469D02010000004E4062
S2140033300000F03EF0B587B00022012100201F4BB0
S21400334098471F4B1B78012B2FD0002B29D0022B20
S2140033502FD001201B4B98471B4B19681B4D286824
S2140033601B4B98471B4C2071286800211A4B984726
S21400337020786578A678E478184B1F79184B1B7868
S214003380184A127818490978059704940396029506
S21400339001901648007800901548164CA04707B0D4
S2140033A0F0BD154A094B1A60D3E7144A074B1A605A
S2140033B0CFE7134A054B1A60CBE7C0464DB0000076
S2140033C0C405002049370000E80700200008002058
S2140033D0E1360000E0070020E53200002808002063
S2140033E0C505002088080020400400204C05002069
S2140033F0D4140100BDC300008AC802168AC8041887
S2140034008AC8061AF0B587B0264B1B78012B35D034
S214003410002B2FD0022B35D0234B1B79002B35D118
S2140034200020224B9847224B1968224B1868224BE3
S2140034309847224B18711F4B18680121204B98475C
S2140034401E4B18785C789D78DE781E4B1F791E4BD5
S2140034501B781E4A12781E4909780597049603952C
S214003460029401901B48007800901B481B4CA04714
S21400347007B0F0BD1A4A0F4B1A60CDE7194A0D4B3C
S2140034801A60C9E7184A0B4B1A60C5E70320074BBA
S2140034909847074B1968074B1868074B9847074B20
S2140034A01871C8E7C405002030080020493700001E
S2140034B0E807002000080020E1360000E0070020B2
S2140034C0E532000028080020C505002088080020F6
S2140034D0400400204C050020D4140100BDC30000A9
S2140034E08AC802168AC804188AC8061AF0B587B0B1
S2140034F0434B1B78012B28D0002B22D0022B28D040
S214003500404B1B79002B28D03F4B00221A705A7074
S2140035109A700532DA703C4D3C4C296820683C4B6A
S214003520984728713B4B196820683B4B9847344BAB
S2140035301B78012B31D0002B16D0022B46D007B0BB
S214003540F0BD364A314B1A60DAE7354A2F4B1A601F
S214003550D6E7344A2D4B1A60D2E72B4B00221A705E
S2140035605A709A70DA70D6E7274B18785C789D7890
S214003570DE782D4B1F792D4B1B782D4A12782D495E
S2140035800978059704960395029401902A480078D6
S21400359000902A482A4CA047D1E71B4B18785C7845
S2140035A09D78DE78204B1F79204B1B78204A1278B6
S2140035B020490978059704960395029401901E48C1
S2140035C0007800901F481E4CA047B8E70E4B1878AE
S2140035D05C789D78DE78144B1F79144B1B78144A60
S2140035E01278144909780597049603950294019079
S2140035F01148007800901448114CA0479FE7C04639
S214003600C405002030080020E00700200008002045
S214003610E1360000E8070020E53200000DC802167B
S2140036200DC804180DC8061A28080020C505002075
S21400363088080020400400204C050020C81F010018
S214003640BDC300000820010048200100F0B589B085
S21400365017001D000690430607914A0413437A029A
S21400366013432B43144E3360144C00220023226075
S2140036706360134B9847134B984721683068124B8A
S21400368098472071114B19683068114B984723787A
S2140036906278A178E0780F4C247905940490039121
S2140036A00292019300953B00079A06990A480B4C34
S2140036B0A04709B0F0BDC04600080020E007002083
S2140036C06137000049370000E1360000E8070020B7
S2140036D0E532000028080020D4140100BDC3000015
S2140036E010B5430E0F211940114B1970440CE4B26B
S2140036F0104B1C70430ADBB20F4A1370C0B20F4A5D
S21400370010700919C9B25B18DBB2C018C0B20C4BF6
S2140037101A788018C0B25A788018C0B29A78801882
S214003720C0B2DB78C018C0B2064B187010BDC046D9
S2140037304004002088080020C50500204C05002015
S214003740E00700204D050020020E044B1A700214FC
S2140037505A7002129A70D8707047C046E007002070
S214003760054B187800065A78120410439A7812020D
S2140037701043DB781843704728080020054B9878DC
S2140037800006DA78120410431A79120210435B79A5
S2140037901843704728080020044B01229A70E42141
S2140037A049005A5801325A507047C046D00500208A
S2140037B0024A137802210B431370704768080020F2
S2140037C0024A1378013313707047C0466C04002019
S2140037D070470000F0B5D64600B582B0824601912B
S2140037E0002718E0C024E4058026B600E6616B4694
S2140037F09B8800931800104DA847E6618026F601C6
S214003800E6610098A847E66180263602E6610098E1
S214003810A847E66101375745E4D3C023DB0580227D
S21400382092009A61802212029A618022D2019A61E5
S21400383002B004BC9246F0BDED78000070B50849B1
S21400384001248C60074BCB600C740748074DA847D3
S21400385007498C60074BCB600C740748A84770BDBF
S214003860C008002099370000F0090020457D0000C0
S21400387098080020B13700008409002070B50B4C72
S2140038804923FA2252000A4920000A4DA8470A494D
S21400389020000A4B98470A4920000A4B9847012304
S2140038A0002200212000084CA04770BD58090020C7
S2140038B00020004231010000113300002502000004
S2140038C0C137000035020000AD02000010B50B4CF9
S2140038D00B4920000B4B984720000B4B98470B4C8E
S2140038E00B4A002120000B4B98470B4920000B4B3E
S2140038F0984720000A4B984710BDC0464C09002048
S2140039005005002029820000FD810000A00900204B
S214003910D137000059800000700400202980000084
S214003920FD7F0000F8B5CE46474680B5002401234B
S2140039305B42994600239846002602E09846F61811
S2140039400134312C0DDC0F4D02232A0000210E48D5
S2140039500E4FB8472B889845F0D39945EFD999462E
S214003960EDE7322130000A4B984702004B464146AD
S2140039700848094CA0470422084B1A700CBC904615
S2140039809946F8BD38050020800900206D760000B5
S214003990958B000088200100BDC30000C4050020F0
S2140039A0F8B500221A210020204CA04780214900AB
S2140039B09423C022D205D1500022FD390020A04712
S2140039C000240025002609E002210020184B984715
S2140039D003041B0CF618000C2D180134154B9C42E2
S2140039E0F2DD154FFA2189003000B8470400FA21AD
S2140039F089002800B8470500020021000F48104B38
S214003A0098472204120C8223DB031A432D042D0C44
S214003A101D4309210020054CA0472A00082100204C
S214003A20A04707221A210020A047F8BD4DB000008D
S214003A30A1AF0000E7030000958B0000B82001004E
S214003A40BDC30000F8B5CE46474680B5E94EEA4D00
S214003A50326813212868E94CA047431E9841E84B7A
S214003A601870326816212868A047431E9841E54B17
S214003A701870326811212868A047E34FB86532688D
S214003A8019212868A047431E98416023F8543268DD
S214003A901A212868A047DD4F3863326828681B2142
S214003AA0A047F862DA4B1B78012B00D171E0002B9F
S214003AB009D0022B00D1D2E0042B00D134E10CBC9B
S214003AC090469946F8BDD04CFA239B002360C94F18
S214003AD0C94E3A680A213068C84DA84760603A68FF
S214003AE000213068A847A0603A6801213068A847DE
S214003AF020613A6802213068A847E0603A680321EE
S214003B003068A847A0613A6804213068A847606119
S214003B103A6805213068A84720623A68062130686E
S214003B20A847E0613A6807213068A847A0623A686B
S214003B3008213068A84760623A680B213068A847B9
S214003B40E0620A21B34B984720633A680C2130683C
S214003B50A84760633A680D213068A847A063AE4B5B
S214003B609847AE4B9846AE499847AE4B994698470D
S214003B70206461643A6830680E21A847A064AA4BA6
S214003B809847A749C047A649C047C847206561650A
S214003B9095E79D4CFA239B002360964F964E3A6815
S214003BA00A213068954DA84760603A680021306861
S214003BB0A847A0603A6801213068A84720613A68A3
S214003BC002213068A847E0603A6803213068A847B9
S214003BD0A0613A6804213068A84760613A68052108
S214003BE03068A84720623A6806213068A847E06136
S214003BF03A6807213068A847A0623A68082130680A
S214003C00A84760623A680B213068A847E0620A213C
S214003C10804B984720633A680C213068A847606359
S214003C203A680D213068A847A0637B4B98477B4BCA
S214003C3098467B4998477B4B994698472064616431
S214003C403A6830680E21A847A064774B98477449B5
S214003C50C0477349C047C847206561652FE76A4C6F
S214003C60724B2360634F644E3A680A213068634D96
S214003C70A84760603A6800213068A847A0603A68A4
S214003C8001213068A84720613A6802213068A847B9
S214003C90E0603A6803213068A847A0613A680421CA
S214003CA03068A84760613A6805213068A8472062F6
S214003CB03A6806213068A847E0613A68072130680C
S214003CC0A847A0623A6808213068A84760623A6848
S214003CD00B213068A847E0620A214E4B98472063C4
S214003CE03A680C213068A84760633A680D2130684E
S214003CF0A847A063484B9847484B9846484998477A
S214003D00484B99469847206461643A6830680E21AB
S214003D10A847A064444B98474149C0474049C0471C
S214003D20C84720656165CAE6374CFA239B002360C6
S214003D30304F314E3A680A213068304DA8476060EF
S214003D403A6800213068A847A0603A6801213068C8
S214003D50A84720613A6802213068A847E0603A68C0
S214003D6003213068A847A0613A6804213068A84754
S214003D7060613A6805213068A84720623A680621E3
S214003D803068A847E0613A6807213068A847A06213
S214003D903A6808213068A84760623A680B213068A4
S214003DA0A847E0620A211B4B984720633A680C211B
S214003DB03068A84760633A680D213068A847A0635A
S214003DC0154B9847154B984615499847154B9946F5
S214003DD09847206461643A6830680E21A847A0645A
S214003DE0114B98470E49C0470D49C047C847206544
S214003DF0616564E60C00002008000020D16A00001F
S214003E004E0500203D050020580500203008002003
S214003E10C40500205F8B000089F3000031ED000030
S214003E206F12833A650F0100E9F20000DC0500001E
S214003E3010B5104B9847104B98470A200F4CA047D8
S214003E400022012100200E4B98470120A0470021A8
S214003E5000200C4B98470C4BC41863425C41E4B2FC
S214003E600A4B984201D0200010BD0948094B9847DC
S214003E70F9E7C0465593000011940000ED78000065
S214003E804DB00000A1AF0000CFC8C9CB31373634E3
S214003E90E0200100D9C4000010B50A4B98470A4B31
S214003EA098470A20094B9847094B9847002801D1A4
S214003EB0012010BD0748084B9847084B984700203C
S214003EC0F7E7C04629940000E5940000ED7800006E
S214003ED0D165000008210100D9C400003D4B000058
S214003EE070B50120064EB047C024E4058025AD001D
S214003EF09423E5500120B0479823E55070BDC04696
S214003F00ED780000F0B583B03D4B64221A60C83AE5
S214003F105A60FA2212019A6001223A4B1A70002463
S214003F20394B1C70394B1C6000200021384B186040
S214003F305960384B18605960374B1C60374B1A7005
S214003F40374B1A70374B1C703749384B1960384B53
S214003F509C70DC701A715C719C71DC711C725C72F6
S214003F609A72DC72334A14701C615C619C61DC617D
S214003F701C625C629C62DC621C632F4B1C60EC2340
S214003F805B002E4AD4502E4D002600272E606F6010
S214003F90AC60EC602C61493BFF3BEC5028001430D1
S214003FA078220021274B9847274B1C60A023EC540F
S214003FB00233EC54254B5C60254B1E605F60254B3E
S214003FC01C6001A8244B9847C023DB0580225200C2
S214003FD09C5820328221C9058A58882149005B589E
S214003FE053401C40544001A81C4B9847E30305D49B
S214003FF0012252421A4B9A6103B0F0BD0122F9E742
S21400400040050020D8070020F107002068040020A3
S214004010C007002058040020B80700203A050020FA
S214004020C80700203C050020A0860100C00500202F
S21400403030080020D00700208C080020D005002083
S21400404078040020CBBA0000CC07002068080020C7
S214004050E0070020000800201D7700002B770000F6
S21400406004080020F0B5CE46474680B583B0464CDF
S214004070012201212000454B98472000444B9847D9
S214004080444B9847C023DB05802149009422995071
S2140040908022D2019A61802292009A6180221202C6
S2140040A09A618021490398229950903A9A613A4B36
S2140040B098473A4B98473A4B9847002139483A4B2D
S2140040C098473A4B98473A4B9847002853D00822CF
S2140040D0C023DB059A61374B984700284FD1C0268E
S2140040E0F6050825B56101A8334B99469847802305
S2140040F0F4588223DB059846A0234246D258103B4C
S214004100F35853401C40544001A82C4FB847802316
S2140041105B031C40631E9C41E4B26846C847336894
S2140041204246126A366956401E4056406846B847B0
S21400413035406A1E9541EAB221002148214B984736
S214004140214B98470020214B98470020204B98474A
S2140041500020204B9847204B984700201F4B98473D
S2140041601F4B98471F4B98471F4B984703B00CBCF4
S21400417090469946F0BD1D481D4B9847F6E71D48EA
S2140041801B4B9847ABE7C046300900209D7B0000DC
S214004190617B0000E13E0000CD380000759A00000B
S2140041A03D9B000080090020417600002539000074
S2140041B0313E0000993E00001D7700002B7700007E
S2140041C07C210100BDC30000453A0000694D000097
S2140041D0314C0000894B0000A1390000E5B4000016
S2140041E03D3800007D3800002152000024210100E7
S2140041F0D9C400005021010070B504008021490098
S2140042009823C022D205D1500020444B9847444DF5
S214004210A847A0B2434B9847434B00221A605A6007
S2140042209A60A847414B19880020414B98470322C3
S214004230522100203F4CA047032100203E4B9847C8
S21400424000203E4B9847010000203D4B9847002237
S21400425063210020A047002100203A4B98473A4BA4
S2140042601B78012B21D0002B04D0022B38D0042B36
S21400427045D070BD26210020344DA84701003448A3
S214004280344CA04725210020A84701003248A0470B
S2140042902D210020A84701003048A0472C210020EF
S2140042A0A84701002E48A047E3E726210020274D17
S2140042B0A84701002B48274CA04725210020A847E7
S2140042C001002948A0472D210020A84701002748C3
S2140042D0A0472C210020A84701002148A047C8E796
S2140042E026210020194DA84701002148194CA04757
S2140042F025210020A84701001E48A047B9E726212F
S2140043000020124DA84701001148124CA047252155
S2140043100020A84701001048A047AAE7519D0000CA
S21400432039500000ED7800004005002058050020B8
S214004330B54E00004DB0000049B2000039B2000092
S214004340BDB100007DB10000C4050020A1AF000093
S214004350A4210100BDC30000D4210100FC210100FE
S2140043602C2201005422010084220100AC2201000C
S214004370DC2201000C23010010B502210020094BAD
S2140043809847094A137801210B4313705B0705D43D
S214004390064B19680648074B984710BD0648074B5A
S2140043A09847F5E749B2000068080020F0080020AA
S2140043B08C260100BDC3000084090020CD7C0000CF
S2140043C010B50100024BD8600248034B984710BD59
S2140043D0F0080020B8260100BDC3000010B501009B
S2140043E0044C20600020044B984721680348044B87
S2140043F0984710BDF00800207DB10000F0260100AF
S214004400BDC3000010B500210020154B98470021C1
S2140044100020144B984700210020134B9847002398
S214004420124A1370124A1370124A1370124A137803
S21400443001218B43137000200021104A1060516048
S21400444005221A4208D000200D4B98470D4B5860A5
S2140044500D480E4B984710BD0D480E4B9847F2E797
S2140044607DB100009DB1000049B200003A05002071
S214004470C8070020F0070020680800202805002054
S21400448039B20000F008002010270100D9C400004F
S21400449084090020097D000070B504000D0001228B
S2140044A01F4B1A7000201F4B9847001BC317C018DD
S2140044B05840FA235B0098421BDD002D0FD01A4BA4
S2140044C01E682000194B984701223100184B984768
S2140044D0002D1FD121001748174B984770BD124B6F
S2140044E01E682000114B984700223100104B984759
S2140044F0EEE70D4B19680020104B9847002D04D0AE
S214004500210000200E4B9847E2E7210000200D4BCB
S2140045109847DDE721000C48074B9847DEE7C04682
S214004520F007002039B20000F0080020E9F2000091
S2140045306152000040270100BDC300007DB10000AD
S214004540BDB10000CDB100002427010010B5054C18
S214004550A0600121044B9847A1680448044B984783
S21400456010BDC046F0080020994400005C270100FA
S214004570BDC3000010B50122094B1A716023094A19
S214004580D35C002B05D1084B98470848084B984742
S21400459010BD0022024B1A735120064B9847F2E7D3
S2140045A030080020580500207950000088270100B8
S2140045B0D9C40000717A000010B5074A22210020F5
S2140045C0064B9847064A137E02210B43137605488E
S2140045D0054B984710BDC04660F0FFFFD9B40000F9
S2140045E0D4080020A4270100D9C4000010B5FA2280
S2140045F0120122210020054B9847054A137E04210C
S2140046000B4313760348044B984710BDD9B40000FB
S214004610D4080020C8270100D9C4000010B501281E
S21400462000D010BD002222210020084B9847084ADF
S214004630137E01218B4307318B4306398B430231AE
S2140046408B4313760348044B9847EAE7D9B4000037
S214004650D4080020F0270100D9C4000000B583B0BC
S2140046606B46D91D00230B700920234B9847234B1C
S2140046701B78042B0DD0052B10D06B4607331B7808
S214004680DB0621D51E4B04221A700A325A7002230A
S2140046900DE0852252001B4B1A60EEE70C22FF321B
S2140046A0184B1A60E9E70021154AD1540133072B4D
S2140046B0F9DD134B1968134B1868134B98471348CA
S2140046C0134B984703B000BD0D4B04221A700B32F3
S2140046D05A70022303E00021094AD1540133072B04
S2140046E0F9DD074B1968074B1868074B98470948C8
S2140046F0074B9847E6E7C046994A0000C4050020E5
S214004700E007002000080020E53200000428010031
S214004710D9C400002428010010B5974B1B680A2254
S214004720FF32934234D01FD986225200934236D0AD
S2140047300E22FF32934220D10122904B1A709048ED
S214004740904B98478C4B1B79002B5FD0012B00D0E9
S21400475070E08D4A137804210B431370DB0751D4A5
S2140047608A48884B984708E0013A934205D10022D0
S214004770824B1A708648834B9847804B1B78002BD9
S21400478003D1844A1278042A5CD0012B56D010BD7F
S21400479001227A4B1A7080487A4B9847EDE7002240
S2140047A0764B1A707D48774B9847734B1B79002BD6
S2140047B010D0012B22D1744A137804210B431370B6
S2140047C0DB0703D471486F4B9847D6E77448754BA0
S2140047D09847F7E76C4A137804218B431370052239
S2140047E01A4207D0002100206F4B98476F48654B50
S2140047F09847C2E76A486E4B9847F3E76D48614BA7
S2140048009847BAE76648674B9847A9E75E4A137821
S21400481004218B43137005221A4207D00021002082
S214004820614B98476148574B9847A6E75C48604BF2
S2140048309847F3E75F48534B98479EE7554B1B78DE
S214004840052BA4D14C4B1B79072BA0D89B005A4AAA
S214004850D3589F46484B5B79112B2DD89B00574A5F
S214004860D3589F46564B984791E7564B98478EE746
S214004870414BD868544B984789E73F4BD86801218D
S214004880524B984783E73C4BD86801214F4B9847DB
S2140048907DE7394BD86800214C4B984777E7364B75
S2140048A0D8684B4B984772E7334BD868494B9847C4
S2140048B06DE7494B98476AE74848324B984766E7A2
S2140048C02D4B5B79102B10D89B00454AD3589F463A
S2140048D00120444B98475AE7434B984757E7434BCA
S2140048E0984754E7424B984751E74248254B98472C
S2140048F04DE7214B5B79082B08D8052B00D346E7FC
S214004900022B06D10220374B984740E70D2B00D1EB
S2140049103DE739481B4B984739E7174B5B79032B24
S21400492005D3042B00D832E7102B00D12FE73348ED
S214004930144B98472BE7104B5B79032B05D3042BBE
S21400494000D824E7102B00D121E72D480D4B9847BF
S2140049501DE7094B5B79042B00D818E72948094B5B
S214004960984714E7044B5B79042B00D80FE72648DA
S214004970044B98470BE7C0460809002004090020AE
S21400498058290100D9C4000068080020A8280100A2
S21400499048280100C405002064280100842801007E
S2140049A084090020CD7C00009DB10000F0280100A5
S2140049B0097D000034290100E025010000260100E1
S2140049C07943000005440000DD43000099440000E0
S2140049D0C14300004D450000754500007C290100DC
S2140049E0482601001D460000B9450000ED450000C0
S2140049F05D460000A4290100CC290100FC29010025
S214004A00282A0100542A01007C2A010010B50CE077
S214004A100278084B9A62074B1B7E5B07FBD5054B5B
S214004A209B6A0B70013101302200541EE4B2002A4A
S214004A30EED110BD00100042F0B583B000900E001D
S214004A400192C027FF0508247C610120064DA84777
S214004A506B461A7931000098044B98470120A84706
S214004A60BC61012003B0F0BDED7800000D4A0000E7
S214004A7000B583B00B2801D903B000BD01AB4022BE
S214004A801A70587099703D3A69461800014B98475D
S214004A90F2E7C046394A000030B583B00D000B2857
S214004AA014D8002912D001AC412323706070002373
S214004AB0A370032269462000054B98476B469B78F7
S214004AC02B70217862780348034CA04703B030BDB2
S214004AD0394A0000A42A0100BDC3000010B582B008
S214004AE06B46DC1D00232370210007200E4B9847E1
S214004AF02378002B01D102B010BD0C4C21000820F9
S214004B00094B98472378DA0601D49B0607D500227E
S214004B1022210020064B98470648074B984701225B
S214004B20024B5A70E7E7C046994A0000C8050020C5
S214004B30D9B40000E82A0100D9C4000010B582B03C
S214004B40302100200C4CA04700210620A04702215F
S214004B500520A04730210120A04730210220A04791
S214004B606B46D91D00230B700820044B9847044859
S214004B70044B984702B010BD714A0000994A0000E5
S214004B80202B0100D9C4000070B504001F4E32006F
S214004B905C211F4DA84732005D212000A8471D4E0E
S214004BA0B2685E212000A84732225F212000A84775
S214004BB0002260212000A847174A61212000A8474C
S214004BC0164A62212000A847032252212000A84747
S214004BD0092250212000A847092251212000A84779
S214004BE0328AB18920000E4B9847328BB18A20005A
S214004BF00C4B9847328CB18B20000B4B9847328D6C
S214004C00B18C2000094B984770BDC046FF7F00005E
S214004C104DB000005805002001000080FFFFFF7F18
S214004C2089B200009DB20000B1B20000C5B200001B
S214004C3070B505003E4A1B213E4CA04700221721B6
S214004C402800A0473C4A18212800A0473B4A1921C3
S214004C502800A04707221A212800A047384A0A2120
S214004C600020A047374A04210020A0478026B6052A
S214004C70320005210020A047320006210020A04770
S214004C80314A07210020A047304A09210020A047CA
S214004C902F4A08210020A04700221F212800A047F5
S214004CA0002220212800A047002221212800A0471A
S214004CB0002223212800A047022252212800A047D4
S214004CC0082263212800A047002229210020A047AF
S214004CD0012252210020A04700221C210020A047CC
S214004CE0FA22120124210020A047FA208000194B46
S214004CF09847194E32005C212800A04732005D21FB
S214004D002800A047154B9A685E212800A04700227D
S214004D1060212800A047124A61212800A047114AB6
S214004D2062212800A04703226D210020A04770BD05
S214004D30320002004DB000009F0F0000191900005D
S214004D4000010018100010004E014E01978141002E
S214004D50C5814100ED780000FF7F00005805002067
S214004D6001000080FFFFFF7F70B5040000221A21BB
S214004D704C4DA84700221B212000A84700221721DF
S214004D802000A847002218212000A8470022192149
S214004D902000A84700220A212000A847002204215C
S214004DA02000A847002205212000A847002206214F
S214004DB02000A847002207212000A847002209213A
S214004DC02000A847002208212000A84700221F2113
S214004DD02000A847002220212000A84700222121E9
S214004DE02000A847002223212000A84700225221A5
S214004DF02000A847002263212000A8470022242183
S214004E002000A847002226212000A84700222721AC
S214004E100020A84700225C212000A84700225D2130
S214004E202000A84700225E212000A84700225F211C
S214004E302000A847002266212000A8470022612102
S214004E402000A847002262212000A8470022522105
S214004E502000A847002250212000A8470022512108
S214004E602000A847002263212000A84700226821CE
S214004E702000A84700226B212000A84700226021BE
S214004E802000A847002200212000074B9847002258
S214004E9000212000054B9847002200212000044BEB
S214004EA0984770BD4DB0000069B20000B1B2000076
S214004EB0C5B20000F0B583B005000E00554CA088C2
S214004EC0554FB84700230122292101952800534D4C
S214004ED0A8470123002252210198A8470023012257
S214004EE024210198A847330000222421019E300087
S214004EF0A847002300221C213000A847FA204000C3
S214004F00B847474F474E3A680F213068464DA84786
S214004F10E0653A6830681021A847002831D180241F
S214004F2064013F4E3F4F3268112138683E4DA84716
S214004F30384B9865326838681221A847002822D175
S214004F4080256D01394B1B78012B35D0002B1CD0EA
S214004F50022B48D0042B52D000222721019C20008F
S214004F60334DA847002252212000A847FA204000CF
S214004F70294B984701222A2120002E4B984703B040
S214004F80F0BD0024CDE70025DCE722002521002027
S214004F90274EB0471F4FFA6D26210198B0472A00CA
S214004FA02C210020B047BA6D2D210020B0470022EA
S214004FB02E210020B047CFE72200252100201C4EDE
S214004FC0B047144FFA6D26210198B0472A002C21CD
S214004FD00020B047BA6D2D210020B04700222E21B8
S214004FE00020B047B8E70B4BDA6D2621019E300053
S214004FF00F4DA847220025213000A847ACE7220025
S214005000252100200A4DA847024BDA6D262101987B
S214005010A847A1E758050020ED78000009B1000078
S2140050200C00002008000020D16A0000C405002003
S2140050304DB00000E9B0000070B5082263210020E2
S2140050400B4CA04700221F210020A047094D2A68CC
S21400505020210020A0476A6821210020A047AA68D6
S21400506024210020A047022252210020A04770BD24
S2140050704DB000004005002010B58021490098235F
S214005080C022D205D150FD3900201A4B98471A4B42
S2140050901B78002B0CD019490020194B9847602329
S2140050A0184AD35C002B08D10022174B5A7210BD49
S2140050B016490020124B9847F1E700200021144BB8
S2140050C018605960002263210020124B9847002187
S2140050D00020114B98470C4B00225A725A611A61F5
S2140050E006490020064B984703210020014B9847AD
S2140050F0DDE7C04649B200004E05002001000080F2
S214005100BDB100005805002030080020FFFFFF7FDB
S214005110280500204DB000007DB1000010B5324BD0
S2140051201B78043BDBB2012B00D910BD2F4B5B78FC
S214005130002BFAD000222D4B5A7007240AE02B4B86
S2140051401B78234101221A4021002948294B984701
S214005150013C64B2002CF2DA0A20274B9847234B16
S2140051601B78DA0618D5254B1B681A7E920703D4DF
S2140051702348244B9847D8E71A7E02218A431A769A
S214005180002220310020204B98471C4B1B681969D1
S2140051901E48184B9847EBE79A0618D5174B1B681E
S2140051A01A7E520703D41A48164B9847BDE71A7E54
S2140051B004218A431A7600221E310020124B98479B
S2140051C00E4B1B68596913480A4B9847EBE75A067B
S2140051D005D4DB09A9D010480A4B9847A5E70F4825
S2140051E0084B9847A1E7C046C4050020C805002024
S2140051F0F02B0100BDC30000F1C300000400002036
S214005200402C0100D9C40000D9B40000002C0100D5
S214005210A02C0100602C0100E82C0100C02C01002D
S21400522010B505495120054CA04705493520A04733
S21400523004493E20A04710BD355300008579000084
S214005240DD4A0000D9B2000010B5034BD96A002031
S214005250024B984710BDC046580500207DB100009F
S21400526070B5051C0C001600002200231E490A60BB
S2140052704B601E490A604B60002100201C4B98477B
S214005280002E28D0281C1B4B9847010000201A4BE4
S21400529098471A4B1C601A481A4B9847032100205F
S2140052A0194B98470022194B1A700132184B1A7086
S2140052B0184B1B79002B07D1A333174AD35C002B5E
S2140052C002D10122154B1A701548164B98471648FE
S2140052D0164B984770BD281C064B984701000020C7
S2140052E0134B9847D5E7C04658040020F80700201F
S2140052F07DB10000A9F20000BDB100008C080020BE
S214005300D0050020D5AC000049B200006D04002096
S214005310C80700203008002078040020F00700208E
S21400532084090020097D0000F0090020CD7C0000E3
S214005330CDB1000010B52F4B1B7B002B2AD00021CF
S21400534000202D4B9847002100202C4B9847002228
S214005350272100202A4B984700210020294B9847F8
S21400536000210020284B9847224A0023137313710C
S214005370264A1370264A13705120264B9847264B10
S2140053801B78012B29D0002B23D0022B29D0032BEE
S2140053902BD010BD00210020174B9847002100207D
S2140053A0164B98470024194B1C70194B1C70002094
S2140053B01A4B984701221E210020194B98470D4B87
S2140053C01C731C715120134B98471648164B984770
S2140053D0D5E71648144B9847DBE71548124B984715
S2140053E0D7E71448104B9847D3E713480E4B984717
S2140053F0CFE7C0463008002049B200007DB100006B
S2140054004DB0000029B20000BDB10000C807002062
S2140054103A050020817A0000C405002039B2000059
S21400542061520000382D0100D9C400004C2D010047
S214005430782D0100A42D0100D02D0100F0B5DE4628
S21400544057464E464546E0B593B0CF4B9B78002B6B
S21400545006D113B03CBC90469946A246AB46F0BD7A
S2140054600022C94B9A700020C84B984700280AD0E3
S2140054700020C74B9847C74B1A78072AE9D89300ED
S214005480C54AD3589F460321C44B9847F0E70020EF
S214005490BF4B9847BC4DAE69EF69C14CA047320080
S2140054A03B00C04EB047C04B9847C317C018584083
S2140054B02E6F6F6FA047012432003B00BB4DA847FC
S2140054C0002800D10024E4B2002C41D0012CC0D129
S2140054D0AD4B3133FF3318685968B54B9847B54B19
S2140054E01C685D6822002B00B34EB047002811D020
S2140054F0B24B1A6D5B6DB24E20002900B047020019
S2140055000B00AC490A604B60AE4C20686168B0473F
S21400551020606160AC4CAB4B1A685B6822606360CD
S214005520994BF83318685968A14B98476568246802
S21400553022002B00A04EB047002800D189E72000AB
S2140055402900994B984701000020A04B984780E718
S21400555000208F4B98478C4DAE69EF69904B9A466A
S2140055609847904C32003B00A0478F4B9846984790
S214005570C217831853402E6F6F6F0B931800D047D7
S21400558032003B00A047EC246400C0472851F822B4
S2140055909246AA44524610685168854A90469047FB
S2140055A0884B186059602A6F6B6F0C920D9300221F
S2140055B0874B804908684968864EB0470E900F9121
S2140055C02E003136FF3630687168C04706000F007F
S2140055D00020814B98478346514608684968C04773
S2140055E02C590894069007915C46049402960397FB
S2140055F00E980F99009001910C9A0D9B0B99774885
S214005600774CA047AA23FF33EA5C0023012191428E
S2140056105B41DBB2911E4D424D41D01E414241419D
S214005620C8B22B430AD1002808D1043AD2B2012AC4
S21400563000D90EE70122574B1A700AE70222554B93
S2140056401A7006E70020524B98474F4DAE69EF6937
S214005650534CA04732003B00524EB047524B98473F
S214005660C317C0185840AE6FEF6FA0470124320032
S2140056703B004E4DA847002800D10024E4B2002C81
S21400568025D0012C00D0E4E63F4B0133FF331868E9
S2140056905968474B98474C4B1A685B68464CA0477E
S2140056A0002800D1D5E6474C424B1A685B68206854
S2140056B06168434DA84720606160434B186059609D
S2140056C0394B984701000020404B9847C1E6002020
S2140056D02F4B98472C4DAE69EF69314B9A46984749
S2140056E0304C32003B00A0472F4B98469847C217D5
S2140056F083185340AE6FEF6F0B931800D0473200FD
S2140057003B00A047EC246400C04728516A1CFF32C7
S214005710924610685168264A90469047294B186072
S2140057205960AA6FEB6F0C920D930022284B21490B
S21400573008684968274EB0470E900F912E003936FC
S214005740FF3630687168C04706000F000020224B05
S21400575098478346514608684968C0472C590894BC
S214005760069007915C460494029603970E980F994C
S214005770009001910C9A0D9B0B991A48184CA04763
S2140057800222044B1A7064E6D005002059B20000CD
S21400579039B200006D040020302B010049B2000031
S2140057A0710E01009D070100090E010055E500007D
S2140057B015330000F807002091E50000580500208A
S2140057C015F4000058040020C00700207DB100003A
S2140057D000408F409D0201006DB10000FC2D0100CD
S2140057E0BDC30000302E01000020C14B9847C14CBD
S2140057F0A669E769C04DA84732003B00BF4EB047D8
S214005800BF4B9847C317C01858408034266867684F
S214005810A847012432003B00BA4DA847002800D113
S2140058200024E4B2002C44D0012C00D011E6B14B89
S2140058304133FF3318685968B34B9847B34B1C681D
S2140058405D6822002B00B24EB047002812D0B14B44
S2140058501A6D5B6D20002900A84CA04702000B00C3
S214005860AA490A604B60AC4C20686168AB4DA847FB
S21400587020606160AA4CA84B1A685B68226063606F
S2140058809C4B0933FF33186859689F4B98476568E7
S214005890246822002B00A34EB047002800D1D8E58C
S2140058A020002900964B9847010000209E4B984701
S2140058B0CFE500208E4B98478E4CA669E7698E4B45
