:10000000B82A0020516E00004D6E00004D6E0000B9
:1000100000000000000000000000000000000000E0
:100020000000000000000000000000004D6E000015
:1000300000000000000000004D6E000029B200002A
:100040004D6E00004D6E00004D6E0000D59000001A
:100050004D6E00004D6E00004D6E00004D6E0000B4
:100060004D6E00004D6E0000ED9500004D6E0000DD
:100070004D6E00004D6E0000019600004D6E0000B8
:10008000058D00004D6E00004D6E00004D6E0000AD
:100090004D6E0000F99C00000D9D00004D6E0000AB
:1000A000219D00004D6E00004D6E00004D6E000061
:1000B0004D6E00004D6E00004D6E000010B5064CF8
:1000C0002378002B07D1054B002B02D0044800E019
:1000D00000BF0123237010BD30020020000000008B
:1000E00068360100084B10B5002B03D007490848BB
:1000F00000E000BF07480368002B00D110BD064B8D
:10010000002BFBD09847F9E70000000034020020E4
:1001100068360100683601000000000010B5024B8F
:100120009847024B984710BD7D760000D1B1000082
:1001300070B504000E001D00FA2189005143090129
:100140003048314B984701380004304B1840304B51
:1001500018432660B36901221343B36123689A6987
:10016000D207FBD59A6902210A439A61294B9E4224
:1001700034D02268936902218B439361226893698A
:1001800001398B43936123689B69DB07FBD4200013
:10019000214B98476B091F2215401E3AAA40C024E4
:1001A000E405DB011E19B2601004000C8021C905B2
:1001B00001438220C005844663449962110CC02526
:1001C0002D0629439962726110238822A3502032A0
:1001D000124981508550143AA35070BD2368D861EC
:1001E0000F4B802252027E315A50BFF34F8FBFF324
:1001F0006F8F0131FF315A501A6023680122DA658E
:10020000B7E7C046006CDC02598E00000000FF0119
:10021000030A000600200042957A0000100000400A
:1002200000E100E010B50A000121014B984710BD24
:100230002D7B000010B50A000021014B984710BD2E
:100240002D7B000010B584B0009100216C46217117
:1002500006A902912373002A08D10023637369461B
:10026000044B9847044B186004B010BD012363731E
:10027000F5E7C046F57A0000B408002010B584B058
:100280000C0002926946084B9847009B23606B461E
:100290001B79002B05D0012B01D0002002E00220A9
:1002A00000E0012004B010BDBD7A000010B582B09E
:1002B00000910192002B06D16B4600220021054CD3
:1002C000A04702B010BD6B4601220021014CA0479F
:1002D000F7E7C0467D7B000070B5430E0F241C403D
:1002E000144B1C70450CEDB2134B1D70420AD2B278
:1002F000124B1A70C0B2124B187012490B79124E81
:1003000033706419E4B21219D2B28018C0B20A78FC
:100310008018C0B24A788018C0B28A788018C0B2FB
:10032000CA788018C0B2094A1070181A434258415E
:10033000C0B270BD20040020440900208D050020BB
:1003400020050020E80800202105002031090020B8
:10035000F0B58FB0B14B984200D1DBE020D9B04B63
:10036000984200D17DE300D8FAE0AE4B984200D12C
:100370008BE200D9E4E1AC4B984200D1B4E200D961
:100380003CE1AA4B984200D13CE3A94B984200D0F3
:1003900074E20122A74B9A700022A74B1A608AE2EE
:1003A000A64B984200D1B5E000D9A4E0A44B9842F6
:1003B00000D102E33ED9A34B984200D129E36BD888
:1003C00082239B04984200D1B1E29F4B984200D017
:1003D00054E201229D4B1A709D4B98479D4B18602B
:1003E0009D4B1B78002B00D1DCE29A4B18684042F1
:1003F000914B1C68994B984700222100984B9847D5
:10040000944C2068974B98470423642201210B20C9
:10041000954DA84725682068904B98479349944B81
:100420009847944B984702000B0029009248934C40
:10043000A04723E2102800D11EE224D9904B984215
:1004400000D1DBE38F4B984200D017E2804B9847F6
:10045000804B18608C4B1C7800228C4B5A60002C0F
:1004600000D121E31D0001232B7002210020884BC5
:1004700098478848884B98470023AB6021008748FD
:100480007E4B9847FAE1022800D0F7E100200021D6
:100490007D4B18605960F1E1814B984200D1C7E271
:1004A000804B984200D0E9E1694B984701007E4CAF
:1004B00020607E48714B984720687D4B98477D4B64
:1004C00098477D4B9847010020607C4B1B78002BA0
:1004D00003D07B4B1B78002B01D1574B1960794817
:1004E000664CA0470523642201210B205E4DA847DE
:1004F0007548A047C2E1754B98420BD01CD8744B8D
:10050000984207D010D8734B984203D0724B984250
:1005100000D0B3E10523642201210B20524CA047F7
:100520006E486F4B9847A9E16E4B9842F2D06E4BE4
:10053000984200D0A2E1EDE76C4B9842EAD007D890
:100540006B4B9842E6D06B4B984200D096E1E1E7C6
:10055000694B9842DED0694B984200D08EE1D9E7D2
:10056000674B9842D6D02DD9664B9842D2D03DD910
:10057000654B9842CED0654B984200D07EE10AA8E8
:10058000634B9847C023DB05802252009C582032E1
:100590008221C9058858103A9B5843401C4044406A
:1005A0000AA85C4B98478020C0020440601E84412A
:1005B000E0B22C4B98470A23642201210B202A4CDD
:1005C000A0475BE1544B9842A4D007D8534B9842C4
:1005D000A0D0534B984200D050E19BE7514B98423A
:1005E00098D0514B984200D048E193E74F4B984246
:1005F00090D04F4B984200D040E18BE74D4B984252
:1006000000D148E1C5239B04984200D036E14A4B13
:1006100098474A48324B984730E1C04600EA0A0200
:1006200000160C020002140300021A0200A20D02BE
:1006300000001A02F008002048090020000A0A02FF
:100640000000060200000A0200020802B0080020B2
:1006500069370000500900202205002059F10000F0
:1006600035510000513700005536000085422146C3
:10067000C1E70000D50D0100E4110100C1C2000076
:100680001500000218000002E808002024090020DC
:10069000EDB40000E8090020917F0000A8120100DD
:1006A00000020A0200080A024C0900204C11010055
:1006B000E10C010019320000790C01000E05002048
:1006C000880800205C1101007011010000320A024C
:1006D000002C0A02001C0A0200220A02401101003A
:1006E000B5C30000002E0A0200300A0200380A02D8
:1006F00000340A0200360A0200E60A0200E80A0292
:10070000000C0B0200860B0200A20B0200140C026C
:10071000017A00000F7A000000F80A0200EC0A02D9
:1007200000EE0A0200FA0A0200020B0200820B022B
:1007300000840B0200041A020933000010110100AA
:10074000E3239B04984200D19BE328D8E2239B0437
:10075000984200D17AE3DF4B984200D08EE0DE4B26
:1007600098470400DD4B9847051CDD49DD4B984751
:10077000DD4B9847DD4EF062DD4B9847F16ADD486E
:10078000DD4B9847DD49281CDD4B9847DD4B9847EA
:1007900002000B000094DC48DC4988476EE0F0233F
:1007A0009B04984200D14EE1D94B984266D1D94B77
:1007B0001A68D94B18681121D84B98470690D84B26
:1007C0001B78002B00D147E10020D64B98474642CA
:1007D0002E210020D44B98470500F0170004000C90
:1007E00080190014D14CA04706000F000698D04B8A
:1007F000984732003B00CF4EB04706000F0028005C
:10080000A04732003B00CC4DA847CC4B9847050091
:10081000B74B984707952900C948B74B9847C94B2C
:1008200018785E789F78DC78C74B1D79C74B1B78AA
:10083000C74A1278C7490978059504940397029628
:100840000190C54800780090C448B04EB047069863
:10085000C34B9847AA4CC349A047071C079D2800D3
:100860009E4B9847391CA047A64B984702000B00A7
:100870002900BD48B04701E0BC4B9847B54B1B78F9
:10088000012B00D11DE30FB0F0BDB94B9847B9481B
:10089000B94B9847F2E70122B84B1A70B84B98470A
:1008A000B848B54B9847E9E700210020B64B984778
:1008B000B648B14B98470020B54B98470028F3D174
:1008C0000230B44B9847894B9B78002B09D1B24832
:1008D000A94B98470D23642201210B20AF4CA04760
:1008E000CCE7AF4B9847F2E700210020A64B984792
:1008F00000210020AB4B98470023AB4A1370AB4A52
:1009000013707A4A9370D371937100200021A84B21
:1009100018605960A748A84B9847A848964B984735
:100920000D23642201210B209C4CA047A6E7012245
:10093000A34B1A70684B9847A24B1860784B1B78F2
:10094000002B24D09F4B186840429F4B1C68634B80
:100950009847012221009D4B98479A4C2068644B90
:1009600098470423642201210B208C4DA847256859
:1009700020685A4B98476149614B9847614B9847AB
:1009800002000B0029009248604CA04776E78D4B8F
:1009900018688D4B1C68514B9847012221008B4BE6
:1009A0009847DAE7874B1868874B1C684B4B98478A
:1009B00000222100854B984722E500210020724B40
:1009C000984700210020774B98470023764A137000
:1009D000764A1370454A9370D3719371784A1370B5
:1009E00000200021724B186059607248724B984782
:1009F0000323642201210B20684CA04775485E4BFD
:100A000098473BE70623642201210B20634CA04753
:100A100034E70020704B98470400354B984721007D
:100A20003448354B984721006C48384B984725E7A8
:100A300000203C4B984704002D4B984721002D483F
:100A40002D4B98471AE700222E210020644B98472F
:100A50006448494B984711E70020324B98470600FD
:100A6000B6E60BA8604B9847C023DB0580225200F6
:100A70009C5820328221C9058858103A9B5843401F
:100A80001C4044400BA8594B984780204003044029
:100A9000601E8441E0B2164B98470B23642201216B
:100AA0000B203E4CA047E9E6514D00262E705148E0
:100AB000414B9847002100203A4FB8470020194B7E
:100AC0009847010000204C4B984703210020B8476D
:100AD000AE60D3E400008A036937000059F10000DA
:100AE0008542A1469DE4000019F10000F0080020B5
:100AF0005137000005C80216E93100008542214641
:100B0000C1E70000D50D010028130100C1C200009B
:100B10000000C2030400002000000020B56D0000AA
:100B200022050020DDB4000045B20000E10C010008
:100B3000650D01000D01010085F20000790C010036
:100B4000E1C80216A0080020E80800208D0500205A
:100B50004409002020040020200500204812010044
:100B6000F9F100003333CB407C1201003D6A0000F4
:100B70003932000024110100B5C3000090080020A4
:100B8000F53400002C11010021B400008411010093
:100B900031B40000B17B0000A01101005536000007
:100BA000114E0000EDB400000E0500208808002062
:100BB00000050020540A0020CD7F0000B011010084
:100BC000B0080020500900204809002035510000DD
:100BD000BC1101000C1201009DB400001C120100A8
:100BE000F1B2000034120100017A00000F7A000017
:100BF00024090020E809002061B40000C54B984793
:100C0000C54B1860C54B1D785B78013B5942594173
:100C1000C34AD1700CA8C34B9847C023DB05802280
:100C200052009C5820328221C9058A5888214900E7
:100C30005B5853401C4054400CA8BB4B9847E30200
:100C400003D4B74BDB78002B25D10DA8B54B9847C3
:100C5000C023DB05802252009C5820328221C90526
:100C60008A58882149005B5853401C4054400DA8C5
:100C7000AD4B9847630303D4A94BDB78002B0AD014
:100C8000A74BDB78002B72D00A2D00D9F6E5AD001A
:100C9000A64B5B599F46A648A64B9847F3E5002212
:100CA0009F4B5A60EAE5A44B1B78002B03D00B2323
:100CB0009B4A5360E2E50123FAE79F4B1B78002B28
:100CC00003D00C23964A5360D8E50223FAE79A4BE7
:100CD0001B78002B03D00D23914A5360CEE50323EC
:100CE000FAE7954B1B78002B03D00E238C4A5360F8
:100CF000C4E50423FAE7904B1B78002B03D00F23A5
:100D0000874A5360BAE50523FAE78B4B1B78002B23
:100D100003D01023824A5360B0E50623FAE7864BDE
:100D20001B78002B03D011237D4A5360A6E50723CF
:100D3000FAE7814B1B78002B03D01223784A5360CB
:100D40009CE50823FAE77C4B1B78002B03D0132388
:100D5000734A536092E50923FAE7774B1B78002B1F
:100D600003D014236E4A536088E50A23FAE70A2D5C
:100D700000D983E5AD00714B5B599F460022684B5B
:100D80005A607BE56C4B1B78002B03D00123644A2F
:100D9000536073E50B23FAE7674B1B78002B03D0F6
:100DA00002235F4A536069E50C23FAE7624B1B7824
:100DB000002B03D003235A4A53605FE50D23FAE763
:100DC0005D4B1B78002B03D00423554A536055E537
:100DD0000E23FAE7584B1B78002B03D00523504A0B
:100DE00053604BE50F23FAE7534B1B78002B03D0DE
:100DF00006234B4A536041E51023FAE74E4B1B781C
:100E0000002B03D00723464A536037E51123FAE746
:100E1000494B1B78002B03D00823414A53602DE532
:100E20001223FAE7444B1B78002B03D009233C4ADA
:100E3000536023E51323FAE73F4B1B78002B03D0C5
:100E40000A23374A536019E51423FAE73C4B1C691F
:100E5000002C00D1DC6820003A4B984721003A482A
:100E60003A4B984720003A4B98473A493A4B9847B3
:100E70003A4B984702000B0000943948394988479B
:100E8000FCE4244B98470400314B9847051C364935
:100E9000364B9847364B9847294EB062294B9847B6
:100EA000B16A3448294B98472A49281C2A4B98474D
:100EB0002A4B984702000B0000942F482949884785
:100EC000DCE42E4B1B78803BDAB2142A00D9DAE43A
:100ED00093002B4AD3589F460E4B98470400294B4A
:100EE000197802000020284B98472000154B98479E
:100EF00021002648154B9847C5E4224B197800205D
:100F0000234B984704000F4B9847210021480F4B73
:100F10009847B8E46937000050090020E80800202D
:100F200024090020017A00000F7A0000F40E01006D
:100F3000BC120100B5C3000022050020200F0100F3
:100F4000F00800205137000006C80216E931000001
:100F500059F1000085422146C1E70000D50D01008E
:100F6000F0120100C1C200008542A146E1ED00007F
:100F700019F1000005C802165413010044090020AD
:100F80004C0F01008D050020F1B2000092C802163E
:100F900045B2000094C802162F4B197880225200E7
:100FA0002E4B1A602E4B1A682E4C20682E4B9847F9
:100FB000236898682D4B9847236899682C4D280022
:100FC0002C4B98472C4B18712368996828002B4BA1
:100FD00098472268117853789268029201920093A0
:100FE0000A002748274CA0474DE41B4B1C78264B92
:100FF0001D78264B984709902A0009A92000244B08
:1010000098470998194B9847224E09993000194B77
:101010009847194B187109993000184B9847099B4C
:101020000293019300952B00220021001A48154CD1
:10103000A04728E4084B1C78144B98470300084A43
:101040001268084908682100144CA0471448154B41
:101050009847FFF718FCC0468D0500207008002057
:101060000400002000000020B56D00005137000092
:1010700084C80216E9360000A0080020E93100000B
:101080007C130100C1C20000200500206937000068
:101090004D6A000082C80216D4130100E56C0000FE
:1010A00030140100B5C30000F0B5DE4657464E4689
:1010B0004546E0B591B00C00C84B984200D1DEE047
:1010C00021D9C74B984201D100F08EFC00D8FCE03A
:1010D000C44B984200D1DFE200D932E2C24B9842C1
:1010E00000D105E300D91EE2C04B984200D18AE34B
:1010F000BF4B984200D0C3E20122BE4B9A7000223F
:10110000BD4B1A60DBE2BD4B984200D1B7E000D97D
:10111000A6E0BB4B984200D153E33ED9B94B98426D
:1011200000D19DE36DD88123DB04984200D102E316
:10113000B54B984200D0A3E20122B44B1A70B44BD5
:101140009847B44B1860B44B1B78002B00D12DE3AB
:10115000B04B18684042A84B1C68B04B984700221F
:101160002100AF4B9847AB4C2068AE4B9847042307
:10117000642202210C20AC4DA84725682068A74BAB
:101180009847AA49AA4B9847AA4B984702000B00D8
:101190002900A948A94CA04772E2112800D16DE2AC
:1011A00026D9A74B984201D100F0AAFCA54B984242
:1011B00000D065E2964B9847964B1860A24B1C787E
:1011C0000022A24B5A60002C01D100F082FC1D00CD
:1011D00001232B70022100209D4B98479D489E4B78
:1011E00098470023AB6021009C48944B984747E206
:1011F000022800D044E200200021934B186059607F
:101200003EE2974B984200D139E3964B984200D08A
:1012100036E27F4B98470100934C20609348874B00
:1012200098472068924B9847924B9847924B984723
:1012300001002060914B1B78002B03D0904B1B7852
:10124000002B01D16C4B19608E487C4CA0470523C4
:10125000642202210C20744DA8478B48A0470FE25E
:101260008A4B98420BD01CD8894B984207D010D893
:10127000884B984203D0884B984200D000E2052367
:10128000642202210C20684CA0478448844B984774
:10129000F6E1844B9842F2D0834B984200D0EFE1C4
:1012A000EDE7824B9842EAD007D8814B9842E6D0CE
:1012B000804B984200D0E3E1E1E77F4B9842DED0DB
:1012C0007E4B984200D0DBE1D9E77D4B9842D6D0E7
:1012D0006DD97C4B9842D2D000D81BE17A4B984212
:1012E000CDD07A4B984200D0CAE10AA8784B9B46F1
:1012F0009847C025ED0580235B009A46EF5882236E
:10130000DB05994690235B0098464B464246985829
:1013100088235B00EB5843401F4047400AA86D4EAE
:10132000B0478023DB021F40781E8741F8B23D4B57
:101330009847694F21003800684B9847684C2071E6
:1013400000213800674B98472378069362789446CB
:10135000A778E0783C4B1C79634B1B78634A127882
:1013600063490978059404900397644602940698AB
:1013700001906048007800905F48304CA04709A871
:10138000D8475346EB584A464146515888225200A6
:10139000AD584D401D404D4009A8B0478023DB02A9
:1013A0001D40691E8D41E9B25448A04768E1544B85
:1013B000984200D163E708D8524B984200D15EE7CB
:1013C000514B984200D05BE159E7504B984200D115
:1013D00055E74F4B984200D052E150E700EA0A042B
:1013E00000160C040002140500021A0400A20D04E9
:1013F00000001A04F008002048090020000A0A042E
:101400000000060400000A0400020804B0080020DE
:1014100069370000500900202205002059F1000022
:1014200035510000513700005536000085422146F5
:10143000C1E70000D50D010000150100C1C2000088
:101440001500000418000004E8080020240900200A
:10145000EDB40000E8090020917F0000EC150100C8
:1014600000020A0400080A044C0900208414010048
:10147000E10C010019320000790C01000E0500207A
:101480008808002094140100A814010000320A0406
:10149000002C0A04001C0A0400220A04781401002B
:1014A000B5C30000002E0A0400300A0400380A0404
:1014B00000340A0400360A0400E60A0400E80A04BC
:1014C000000C0B0400860B0400A20B0400140C0497
:1014D000017A00000F7A00000AC80418E9360000FB
:1014E000A0080020E93100008D05002044090020FB
:1014F000200400202005002048120100AC15010046
:1015000000F80A0400EC0A0400EE0A0400FA0A04D7
:1015100000020B04E14B984200D1B0E6E04B984248
:1015200000D0ADE0ABE6DF4B984200D1BAE0DE4B35
:10153000984200D0A4E0DD4B9847DD48DD4B98474A
:101540009EE0DD4B984201D100F05DFC29D8B1232B
:10155000DB04984201D100F03BFCD84B984200D00C
:101560008EE0D74B98470400D64B9847051CD649C8
:10157000D64B9847D64B9847D64EF062D64B9847F5
:10158000F16AD648D64B9847D649281CD64B98477F
:10159000D64B984702000B000094D548D5498847A0
:1015A0006EE0B823DB04984200D10FE2D24B9842A0
:1015B00066D1D24B1A68D24B18681121D14B98478B
:1015C0000690D14B1B78002B00D108E20020CF4BB6
:1015D000984746422E210020CD4B98470500F01732
:1015E0000004000C80190014CA4CA04706000F002C
:1015F0000698C94B984732003B00C84EB0470600DA
:101600000F002800A04732003B00C54DA847C54B3E
:1016100098470500B04B984707952900C248B04B42
:101620009847C24B18785E789F78DC78C04B1D795C
:10163000C04B1B78C04A1278C049097805950494BC
:10164000039702960190BE4800780090BD48A94ECD
:10165000B0470698BC4B9847A34CBC49A047071C11
:10166000079D2800974B9847391CA0479F4B9847E8
:1016700002000B002900B648B04701E0B54B98477F
:10168000AE4B1B78022B00D1DDE311B03CBC904681
:101690009946A246AB46F0BDAF4B9847AF48854B45
:1016A0009847EDE7AE4B9847AE48824B9847E7E73F
:1016B00000210020AC4B9847AC487E4B9847002057
:1016C000AB4B98470028F3D10230AA4B9847814B87
:1016D0009B78002B09D1A848764B98470D236422AC
:1016E00002210C20A54CA047CAE7A54B9847F2E77A
:1016F000002100209C4B984700210020A14B9847D7
:101700000023A14A1370A14A1370724A9370D371D7
:101710009371002000219E4B186059609D489E4B9C
:1017200098479E48634B98470D23642202210C2062
:10173000924CA047A4E70122994B1A70604B98473E
:10174000984B1860704B1B78002B24D0954B186871
:101750004042954B1C685B4B984701222100934BFC
:101760009847904C20685C4B9847042364220221E0
:101770000C20824DA84725682068524B984759494C
:10178000594B9847594B984702000B00290088484D
:10179000584CA04774E7834B1868834B1C68494B2F
:1017A000984701222100814B9847DAE77D4B186862
:1017B0007D4B1C68434B9847002221007B4B984788
:1017C000D1E400210020684B9847002100206D4B98
:1017D000984700236C4A13706C4A13703D4A93700B
:1017E000D37193716E4A137000200021684B18600A
:1017F00059606848684B98470323642202210C20F3
:101800005E4CA0473CE70020404B98470500324B18
:101810009847684E21003000674B9847434C207131
:101820000695290030002E4B984720786678A778D7
:10183000E4783F4B1D793F4B1B783F4A12783F4974
:101840000978059504940397029601903C48007826
:1018500000903C48274CA04706995848A0470FE7FE
:101860000020574B984704001B4B984721001B480A
:101870001B4B9847210053481E4B984700E7002018
:10188000224B98470400144B984721001348144BEF
:10189000984721004C48174B9847F1E600820B040B
:1018A00000840B0400041A0400001405093300002E
:1018B00048140100B5C3000000008C0500008A0533
:1018C0006937000059F100008542A1469DE40000FF
:1018D00019F10000F00800205137000005C8041875
:1018E000E931000085422146C1E70000D50D010025
:1018F00068160100C1C200000000C20504000020FB
:1019000000000020B56D000022050020DDB40000BD
:1019100045B20000E10C0100650D01000D01010060
:1019200085F20000790C0100E1C80418A00800202D
:10193000E80800208D050020440900202004002034
:101940002005002048120100F9F100003333CB409C
:10195000801501003D6A0000393200005C1401006E
:10196000F53400006414010021B40000841101006A
:1019700031B40000B17B0000BC14010055360000FA
:10198000114E0000EDB400000E0500208808002074
:1019900000050020540A0020CD7F0000CC14010077
:1019A000B0080020500900204809002035510000EF
:1019B000D814010006C80418E936000028150100F3
:1019C0009DB400001C1201005415010000222E21BC
:1019D0000020D14B9847D148D14B984750E6002082
:1019E000D04B98470600F5E50DA8CF4B9B4698478E
:1019F000C026F60580235B009A46F5588223DB0556
:101A00009946902252009A5888235B00F35853401D
:101A10001D4055400DA8C54B9846984780235B0351
:101A20001D406B1E9D41EDB20CA8D8475346F75898
:101A30004B4690225200985888235B00F35843404D
:101A40001F4047400CA8C04780235B031F40781EFF
:101A50008741F8B2B64B9847B64F21003800B64BD5
:101A60009847B64C207129003800B54B9847237829
:101A70009C466778A578E078B24B1C79B24B1B780E
:101A8000B24A1278B24909780594049003950297F6
:101A900060460190AF4800780090AF48AF4CA04737
:101AA0000BA8D8475346F5584B46902252009958F8
:101AB00088235B00F3584B401D404D400BA8C047A6
:101AC00080235B031D40691E8D41E9B2A448A047F5
:101AD000D6E5A44D00262E70A348A44B98470021BC
:101AE0000020A34FB84700208E4B984701000020EC
:101AF000A04B984703210020B847AE60FFF773FB67
:101B00009D4B98479D4B18608E4B1D785B78013B31
:101B100059425941934AD1700EA8834B9847C0232C
:101B2000DB05802252009C5820328221C9058A5848
:101B3000882149005B5853401C4054400EA87B4B01
:101B40009847E30203D4874BDB78002B24D00FA8FF
:101B5000754B9847C023DB05802252009C582032E9
:101B60008221C9058A58882149005B5853401C408E
:101B700054400FA86D4B9847630303D4794BDB782F
:101B8000002B09D1774BDA78002A75D00A2D0AD8B4
:101B9000AB007B49CB589F467A48614B984774E528
:101BA0000021704B5960290077486C4B984767E5D6
:101BB000764B1B78002B03D00B236A494B60F2E76E
:101BC0000123FAE7714B1B78002B03D00C236549E6
:101BD0004B60E8E70223FAE76C4B1B78002B03D03D
:101BE0000D2360494B60DEE70323FAE7674B1B7860
:101BF000002B03D00E235B494B60D4E70423FAE7A4
:101C0000624B1B78002B03D00F2356494B60CAE769
:101C10000523FAE75D4B1B78002B03D010235149B5
:101C20004B60C0E70623FAE7584B1B78002B03D024
:101C300011234C494B60B6E70723FAE7534B1B7857
:101C4000002B03D0122347494B60ACE70823FAE787
:101C50004E4B1B78002B03D0132342494B60A2E765
:101C60000923FAE7494B1B78002B03D014233D4985
:101C70004B6098E70A23FAE70A2D94D8AB00444951
:101C8000CB589F460021374B59608CE73F4B1B7860
:101C9000002B03D0012333494B6084E70B23FAE781
:101CA0003A4B1B78002B03D002232E494B607AE776
:101CB0000C23FAE7354B1B78002B03D0032329496B
:101CC0004B6070E70D23FAE7304B1B78002B03D0F5
:101CD000042324494B6066E70E23FAE72B4B1B785D
:101CE000002B03D005231F494B605CE70F23FAE765
:101CF000264B1B78002B03D006231A494B6052E772
:101D00001023FAE7214B1B78002B03D0072315493A
:101D10004B6048E71123FAE7F1B200006C150100AF
:101D2000B5C30000DDB40000017A00000F7A0000A6
:101D3000513700000BC80418E9360000A008002045
:101D4000E9310000E80800208D050020440900204A
:101D5000200400202005002048120100C1C200001C
:101D6000CC15010024090020E8090020CD7F0000E7
:101D7000EDB4000061B40000693700005009002094
:101D8000A00F0100BC120100001601002205002076
:101D9000CC0F0100724B1B78002B03D00823714934
:101DA0004B6000E71223FAE76D4B1B78002B03D042
:101DB00009236C494B60F6E61323FAE7684B1B785E
:101DC000002B03D00A2367494B60ECE61423FAE7A3
:101DD000654B1C69002C00D1DC682000634B9847E0
:101DE00021006348634B98472000634B9847634941
:101DF000634B9847634B984702000B00009462487E
:101E0000624988473CE4624B984704005A4B984724
:101E1000051C6049604B9847604B9847524EB06232
:101E2000524B9847B16A5E48524B98475349281C19
:101E3000534B9847534B984702000B000094594866
:101E4000524988471CE4584B1B78803BDAB2142A6D
:101E500000D91AE49300554AD3589F464C4B9847F3
:101E60000400534B197802000020524B9847200081
:101E70003E4B9847210050483E4B9847FFF705FCE2
:101E80004B4B197800204D4B98470400374B98472F
:101E900021004B48374B9847FFF7F7FB444B197825
:101EA00080225200474B1A60474B1A68474C206803
:101EB000474B9847236898682C4B98472368996844
:101EC000444D2800444B9847444B18712368996847
:101ED0002800284B9847226811785378926802921C
:101EE000019200930A003E48284CA047FFF7CDFB23
:101EF0002F4B1C783B4B1D78254B984708902A00A8
:101F000008A92000384B98470898184B9847374E37
:101F100008993000304B9847304B187108993000C1
:101F2000144B9847089B0293019300952B002200C5
:101F300021002F48154CA047FFF7A7FB1C4B1C782E
:101F4000134B98470300204A126820490868210073
:101F5000284CA0472848294B9847FFF796FBC046D6
:101F60002205002024090020F0080020513700003D
:101F700006C80418E931000059F1000085422146E5
:101F8000C1E70000D50D010030160100C1C20000FC
:101F9000693700008542A146E1ED000019F100001B
:101FA00005C804189416010044090020F80F010028
:101FB0008D050020F1B2000092C8041845B200005F
:101FC00094C80418700800200400002000000020BD
:101FD000B56D000084C80418E9360000A008002090
:101FE000BC160100200500204D6A000082C80418BC
:101FF00014170100E56C000070170100B5C3000064
:10200000F0B5DE4657464E464546E0B591B0BA4B70
:10201000984200D1FEE020D9B84B984201D100F09F
:1020200003FD00D81AE1B64B984200D151E200D925
:1020300005E2B44B984200D17FE200D9F2E1B24B05
:10204000984200D136E3B14B98421FD10122B04BE8
:102050009A700022AF4B1A6056E2AF4B984200D103
:10206000D8E000D9BAE0AD4B984200D1FDE240D8AB
:10207000E52800D1C4E316D8022800D123E21228B3
:1020800004D1A748A74B9847A74B9847A74B1B7865
:10209000032B01D100F0C2FE11B03CBC9046994622
:1020A000A246AB46F0BDA24B984201D100F0F7FC2E
:1020B000A04B9842EAD1A04B9847A04B1860A04B88
:1020C0001C7800229F4B5A60002C01D100F0D0FCFC
:1020D0001D0001232B70022100209B4B98479B4839
:1020E0009B4B98470023AB6021009A489A4B984736
:1020F000CCE79A4B984200D1EAE238D8C123DB04FE
:10210000984200D13CE2964B9842BFD10122954BB8
:102110001A70894B9847894B1860934B1B78002B9A
:1021200000D197E2854B186840427A4B1C688F4B70
:102130009847002221008E4B9847804C20688D4B99
:1021400098470423642203210D208B4DA84725685E
:102150002068864B98478949894B9847894B98470F
:1021600002000B00290088487B4CA0478EE7874B74
:10217000984200D1BBE2864B984200D086E76E4B76
:1021800098470100834C20608348734DA84720681E
:10219000824B9847824B9847824B984701002060BA
:1021A0008148A847814B1B78002B03D0804B1B78BC
:1021B000002B03D1774B1A68564B1A60A3237D4A34
:1021C000D35C002B00D090E10523642203210D2075
:1021D000694CA0477848604B984757E7774B98423F
:1021E00018D00CD9764B984226D1052364220321BE
:1021F0000D20614CA04773484A4B984746E7724B05
:10220000984207D010D8714B984203D0704B984237
:1022100000D03BE70523642203210D20564CA04744
:102220006C48404B984731E76B4B9842F2D06B4B70
:10223000984200D02AE7EDE7984207D8684B9842C9
:10224000E8D0684B984200D020E7E3E7664B98421D
:10225000E0D0664B984200D018E7DBE7644B984229
:10226000D8D02DD9634B9842D4D03DD9624B9842F7
:10227000D0D0624B984200D008E70CA8604B98473A
:10228000C023DB05802252009C5820328221C905E0
:102290008858103A9B5843401C4044400CA8594B66
:1022A00098478020C0020440601E8441E0B2314B58
:1022B00098470A23642203210D202F4CA047E5E60E
:1022C000514B9842A6D007D8504B9842A2D0504BC1
:1022D000984200D0DAE69DE74E4B98429AD04E4B9A
:1022E000984200D0D2E695E74C4B984292D04C4BA6
:1022F000984200D0CAE68DE700EA0A0600160C06EE
:102300000002140700021A0600A20D0600001A06B9
:10231000F008002048090020000A0A06000006060E
:1023200088170100B5C300003D6A000020040020AA
:10233000150000061800000669370000500900204B
:10234000E808002024090020EDB40000E80900207E
:10235000917F0000A01A0100C1C2000000000A061F
:1023600000020806B00800202205002059F10000F4
:102370003551000051370000553600008542214696
:10238000C1E70000D50D01006C18010000020A062B
:1023900000080A064C0900204C110100E10C010064
:1023A00019320000790C0100E01701000E05002031
:1023B00088080020500400201418010000320A068A
:1023C00000380A06CC170100002C0A06001C0A0679
:1023D00000220A06C0170100002E0A0600300A0675
:1023E00000340A0600360A0600E60A0600E80A0675
:1023F000000C0B0600860B0600A20B0600140C0650
:10240000017A00000F7A000000F80A0600EC0A06C4
:1024100000EE0A0600FA0A0600020B0600820B060E
:1024200000840B06B94B984259D0B94B984200D062
:102430002CE6B84B9847B848B84B984726E6B84BB7
:10244000984201D100F0C9FC29D8F123DB0498425D
:1024500001D100F0A6FCB34B984200D016E6B24B77
:1024600098470400B14B9847051CB149B14B9847B8
:10247000B14B9847B14EF062B14B9847F16AB14801
:10248000B14B9847B149281CB14B9847B14B98477D
:1024900002000B000094B048B0498847F6E5F823E5
:1024A000DB04984200D1BAE2AD4B984200D0EDE592
:1024B0000020AC4B98470400A14B98472100AA4844
:1024C000A14B9847E2E500200021A84B1860596015
:1024D000DCE5A74B9847A748904B9847D6E5A64B15
:1024E0009847A6488D4B9847D0E5A54B19689C2383
:1024F000D150A448994B984766E600210020A24B92
:102500009847A248854B98470020A14B9847002840
:10251000F3D102309F4B9847884B9B78002B09D111
:102520009D487E4B98470D23642203210D209B4C30
:10253000A047ABE59A4B9847F2E700210020924B69
:10254000984700210020974B98470023964A137024
:10255000964A1370794A9370D371937100200021C9
:10256000934B186059609348934B984793486B4B33
:1025700098470D23642203210D20884CA04785E550
:1025800001228F4B1A70684B98478E4B1860186861
:102590006B4B9847A1238C4AD35C002B03D0A2231A
:1025A000D35C002B25D1894B1B78002B47D0854B62
:1025B00018684042864B1C685C4B984701222100FA
:1025C000844B98470423642203210D20734CA047B9
:1025D0007C4B1C681868554B98475C495C4B984786
:1025E0005C4B984702000B0021007B485B4CA047E6
:1025F0004CE5546900205B4B9847241AE317E41814
:102600005C40764B9C42CEDD6E4B19686E4B982237
:1026100099500C3A9B58002B0BDB6B4B5B69704A53
:1026200094466344674A13600121A323664AD15448
:10263000B9E7654B5B696B4A94466344F2E7614BCB
:102640001868634B1C68394B984701222100614B85
:102650009847B7E75B4B18685D4B1C68334B98474E
:10266000002221005B4B984767E500210020464B84
:102670009847002100204B4B984700234A4A13708B
:102680004A4A13702D4A9370D37193714C4A137058
:1026900000200021464B186059604648464B984739
:1026A0000323642203210D203C4CA0474E481B4BC2
:1026B0009847EBE400202B4B98470400204B9847A9
:1026C00021004A48204B98474948144B9847DDE47D
:1026D0000020484B98470400194B9847210019489F
:1026E000194B9847210044481C4B9847CEE40020E2
:1026F0001C4B98470400124B984721001148124B7D
:1027000098473E48054B9847C0E4C04600041A0667
:10271000000014070933000090170100B5C3000042
:1027200000008C0700008A076937000059F100009B
:102730008542A1469DE4000019F10000F008002048
:102740005137000005C8061AE931000085422146CC
:10275000C1E70000D50D0100EC1A0100C1C2000064
:102760000000C207DDB40000E1C8061AE808002036
:1027700039320000A4170100F5340000AC17010045
:102780004C090020F417010021B40000841101005D
:1027900031B40000B17B000028180100553600005C
:1027A000114E0000EDB400000E0500208808002046
:1027B00000050020540A0020CD7F000038180100D9
:1027C000B0080020500900205004002022050020FD
:1027D000480900203551000044180100B95C02008E
:1027E0005FAFFFFFA15000009418010006C8061A51
:1027F0009C1801009DB400001C120100A8180100E3
:10280000E84B1A685B68E84C22606360E74B186825
:10281000E74B1A680F21E74B9847010080204002E0
:10282000E54B984723686268D11752184A404243E3
:10283000E2608C2292461A00424351466250DA17F7
:102840009B1853405843A06000269823E650043359
:10285000E650DA4B1E609023E158D94B1A680131DB
:10286000D848D94FB8470020D84B98472061E36833
:102870009846D74B9B4640469847D64DD649A847E1
:102880000790A36899461800D847D349A8474346FC
:10289000DB1707252B404344DB100893CF4A9346B0
:1028A0009047049005914A460392D3172B404B441E
:1028B000DB1002930798D84700900191424608998F
:1028C000C748B8475346E158CA172A405218D21091
:1028D000C448B8470122A123E254C348B84794230F
:1028E000E6502000143078220021C04B9847E2685F
:1028F000A3689A421FD00121A223AB4AD154AA4D0A
:102900008C262B69AA59944663441C006B611800FD
:10291000AF4B9847B049AF4B9847B04B9847020030
:102920000B0000940021B248A74CA047AB59002BE4
:102930004BDB012467E0AF4B98470020A34B98473F
:10294000A34F0790B847A34DA349A8470890964EB8
:10295000B4682000B847A049A847051C9F4F0898B5
:10296000B847089009910494281CB8470290039135
:10297000079B0093089A099B00219F48924CA0470F
:102980000022A223F254BAE7874BE21C92009A1865
:102990005568DA68AD1A221D92009B185D60280008
:1029A0008B4B98478C498B4B98478C4B9847020030
:1029B0000B00009521009148834DA84701341D2C40
:1029C000E2DD8F488F4B984722E00124F7E7764BF2
:1029D000E21C92009A185568DA6894466544221DF4
:1029E00092009B185D602800794B98477A49794B93
:1029F00098477A4B984702000B00009521007F48CA
:102A0000714DA84701341D2CE1DD7F487D4B98476F
:102A1000654990228B5801338B50FFF737FB7B4879
:102A2000784B9847FFF732FB0DA8794B9847C023A6
:102A3000DB05802252009C5820328221C90588582B
:102A4000103A9B5843401C4044400DA8714B984796
:102A5000802040030440601E8441E0B26E4B9847E2
:102A60000B23642203210D206C4CA047FFF70EFBC3
:102A70006B4D00262E706B486B4B98470021002051
:102A80006A4FB8470020514B984701000020684B1F
:102A9000984703210020B847AE60FFF725FB654B40
:102AA0009847654B18603F4B1D785B78013B594256
:102AB00059415B4AD1700EA8554B9847C023DB059E
:102AC000802252009C5820328221C9058A588821D0
:102AD00049005B5853401C4054400EA84D4B98474A
:102AE000E30203D44E4BDB78002B25D00FA8484BD4
:102AF0009847C023DB05802252009C582032822157
:102B0000C9058A58882149005B5853401C405440ED
:102B10000FA8404B9847630303D4414BDB78002B4D
:102B20000AD13F4BDA78002A00D1CBE00A2D0BD82E
:102B3000AB004249CB589F464148324B9847FFF77C
:102B4000ABFA0021364B596029003E481E4B98478E
:102B5000FFF79CFA3C4B1B78002B03D00B2330492A
:102B60004B60F1E70123FAE7374B1B78002B03D0CA
:102B70000C232B494B60E7E70223FAE7324B1B7823
:102B8000002B03D00D2326494B60DDE70323FAE732
:102B90002D4B1B78002B03D00E2321494B60D3E72C
:102BA0000423FAE7E8080020500400200000002079
:102BB00004000020B56D0000238E00008C0800206A
:102BC00048090020B8180100C1C20000DDB40000AF
:102BD00059F10000C1E7000085422146D50D0100F2
:102BE0001019010078190100A4190100CFB90000E3
:102BF000041A010029600000B41901002C1A010018
:102C0000541A0100B5C30000741A0100901A0100A3
:102C1000017A00000F7A000051370000553600009D
:102C200024090020E8090020CD7F0000EDB4000059
:102C300061B4000069370000500900204C10010009
:102C4000BC1201000016010022050020BA4B1B78BF
:102C5000002B03D00F23B9494B6075E70523FAE732
:102C6000B54B1B78002B03D01023B4494B606BE7A6
:102C70000623FAE7B04B1B78002B03D01123AF4992
:102C80004B6061E70723FAE7AB4B1B78002B03D0BF
:102C90001223AA494B6057E70823FAE7A64B1B7893
:102CA000002B03D01323A5494B604DE70923FAE716
:102CB000A14B1B78002B03D01423A0494B6043E7A2
:102CC0000A23FAE70A2D00D93EE7AB009C49CB580E
:102CD0009F460021994B596036E7974B1B78002B94
:102CE00003D0012395494B602EE70B23FAE7924B63
:102CF0001B78002B03D0022390494B6024E70C2360
:102D0000FAE78D4B1B78002B03D003238B494B60D4
:102D10001AE70D23FAE7884B1B78002B03D0042316
:102D200086494B6010E70E23FAE7834B1B78002B94
:102D300003D0052381494B6006E70F23FAE77E4B5A
:102D40001B78002B03D006237C494B60FCE6102344
:102D5000FAE7794B1B78002B03D0072377494B60A8
:102D6000F2E61123FAE7744B1B78002B03D00823FB
:102D700072494B60E8E61223FAE76F4B1B78002B91
:102D800003D009236D494B60DEE61323FAE76A4B53
:102D90001B78002B03D00A2368494B60D4E6142328
:102DA000FAE7684B1C69002C00D1DC682000664BF8
:102DB000984721006548664B98472000654B984727
:102DC0006549664B9847664B984702000B00009494
:102DD000644865498847FFF759F9644B98470400F0
:102DE0005C4B9847051C6249624B9847624B984779
:102DF000544EB062544B9847B16A6048544B984760
:102E00005549281C554B9847554B984702000B00D5
:102E100000945B4854498847FFF738F9594B1B78B1
:102E2000803BDAB2142A01D9FFF736F99300564AEB
:102E3000D3589F464D4B98470400544B19780200D5
:102E40000020534B984720003F4B984721005148A2
:102E50003F4B9847FFF720F94C4B197800204E4B19
:102E600098470400384B984721004C48384B984706
:102E7000FFF712F9454B197880225200484B1A602F
:102E8000484B1A68484C2068484B98472368986814
:102E90002D4B984723689968454D2800454B984726
:102EA000454B1871236899682800294B9847226878
:102EB0001178537892680292019200930A003F4879
:102EC000294CA047FFF7E8F8304B1C783C4B1D78A5
:102ED000264B98470B902A000BA92000394B9847A6
:102EE0000B98194B9847384E0B993000314B984747
:102EF000314B18710B993000154B98470B9B02937F
:102F0000019300952B00220021003048164CA04769
:102F1000FFF7C2F81D4B1C78144B98470300214A59
:102F20001268214908682100294CA04729482A4BEA
:102F30009847FFF7B1F8C046220500202409002079
:102F400078100100F00800205137000006C8061A6A
:102F5000E931000059F1000085422146C1E7000037
:102F6000D50D0100B41A0100C1C20000693700008C
:102F70008542A146E1ED000019F1000005C8061ADE
:102F8000181B010044090020A41001008D05002039
:102F9000F1B2000092C8061A45B2000094C8061AA1
:102FA000700800200400002000000020B56D000023
:102FB00084C8061AE9360000A0080020401B010062
:102FC000200500204D6A000082C8061A981B0100E7
:102FD000E56C0000F41B0100B5C30000F0B5CE465F
:102FE000474680B587B004000D00524B9847524BBE
:102FF0001A78052A24D89300504AD3589F46504B3C
:1030000018785E789F78DA7894461B7998464D4B0D
:103010001B7899464C4A12784C49097843460593E7
:103020006346049303970296019049480078009004
:103030004B464848484EB04729002000474B984728
:1030400007B00CBC90469946F0BD3D4B18785E78B1
:103050009F78DA7894461B7998463A4B1B789946C4
:10306000394A1278394909784346059363460493EF
:103070000397029601903648007800904B463848F6
:10308000354EB04729002000364B9847D8E72C4BE7
:1030900018785E789F78DA7894461B799846294BA1
:1030A0001B789946284A127828490978434605939F
:1030B0006346049303970296019025480078009098
:1030C0004B462948244EB04729002000274B9847FB
:1030D000B6E71B4B18785C789D78DE781F79194B22
:1030E0001B78194A127819490978059704960395AF
:1030F000029401901648007800901D48164CA04795
:103100009EE70F4B18785C789D78DE781F790D4B21
:103110001B780D4A12780D49097805970496039596
:10312000029401900A480078009012480A4CA04787
:1031300086E7C046D90200008C050020F810010087
:10314000E80800208D05002044090020200400200C
:10315000200500200C1C0100C1C20000510300002A
:103160003C1C0100A91000006C1C010001200000A3
:103170009C1C0100D41C010070B5114B1B78002B66
:1031800000D170BD013B0E4A13700E4D002200238A
:103190002A606B600C4C002323600C4A13700C4AAD
:1031A00013700C4A13700C4A13702A0021000B484C
:1031B0000B4B9847296820680A4B9847E1E7C046BF
:1031C00044040020E8080020C0080020200400205B
:1031D000440900208D05002020050020BC090020A6
:1031E0007D020000DD2F000010B582B00100064B0B
:1031F0005C681B6800930194082301220348044C77
:10320000A04702B010BDC046A0080020BC090020A5
:10321000450200007047000010B5044C0022044B2A
:10322000A0470022034BA04710BDC0460D0101007E
:1032300000004E400000F03EF0B587B000220121B2
:1032400000201F4B98471F4B1B78012B2FD0002BC2
:1032500029D0022B2FD001201B4B98471B4B1968FC
:103260001B4D28681B4B98471B4C20712868002178
:103270001A4B984720786578A678E478184B1F7920
:10328000184B1B78184A1278184909780597049446
:103290000396029501901648007800901548164C48
:1032A000A04707B0F0BD154A094B1A60D3E7144A8E
:1032B000074B1A60CFE7134A054B1A60CBE7C046AD
:1032C000F1B200008C05002051370000A808002052
:1032D000C0080020E9360000A0080020E931000005
:1032E000E80800208D05002044090020200400206B
:1032F0002005002048120100C1C200008AC8021641
:103300008AC804188AC8061AF0B587B0264B1B78FD
:10331000012B35D0002B2FD0022B35D0234B9B789F
:10332000002B35D10020224B9847224B1968224BA5
:103330001868224B9847224B18711F4B18680121BF
:10334000204B98471E4B18785C789D78DE781E4B92
:103350001F791E4B1B781E4A12781E490978059763
:1033600004960395029401901B48007800901B4836
:103370001B4CA04707B0F0BD1A4A0F4B1A60CDE7AF
:10338000194A0D4B1A60C9E7184A0B4B1A60C5E77A
:103390000320074B9847074B1968074B1868074BE2
:1033A0009847074B1871C8E78C050020F0080020EB
:1033B00051370000A8080020C0080020E9360000AE
:1033C000A0080020E9310000E80800208D05002059
:1033D000440900202004002020050020481201009C
:1033E000C1C200008AC802168AC804188AC8061A10
:1033F000F0B587B0274B1B78012B42D0002B3CD077
:10340000022B42D00120244B9847244E244D316892
:103410002868244B9847244C207131682868234B36
:10342000984720786578A678E478214B1F79214B5E
:103430001B78214A1278214909780597049403964C
:10344000029501901E48007800901E481E4CA0472F
:1034500000201E4B984705001D4B98471D491E4BE9
:1034600098471E4B984702000B0029001C48A047B4
:1034700000221C4B1A7007B0F0BD1B4A084B1A60A3
:10348000C0E71A4A064B1A60BCE7194A044B1A6097
:10349000B8E7C0468C05002051370000A80800207E
:1034A000C0080020E9360000A0080020E931000033
:1034B000E80800208D050020440900202004002099
:1034C0002005002048120100C1C20000DDB4000048
:1034D00059F1000085422146C1E70000D50D0100E9
:1034E0000C1D0100B00800208A0003168A00051890
:1034F0008A00071AF0B587B0434B1B78012B28D000
:10350000002B22D0022B28D0404B9B78002B28D0B8
:103510003F4B00221A705A709A700532DA703C4D97
:103520003C4C296820683C4B984728713B4B1968F4
:1035300020683B4B9847344B1B78012B31D0002B34
:1035400016D0022B46D007B0F0BD364A314B1A6078
:10355000DAE7354A2F4B1A60D6E7344A2D4B1A600A
:10356000D2E72B4B00221A705A709A70DA70D6E7A5
:10357000274B18785C789D78DE782D4B1F792D4B82
:103580001B782D4A12782D490978059704960395E2
:10359000029401902A48007800902A482A4CA047BB
:1035A000D1E71B4B18785C789D78DE78204B1F792B
:1035B000204B1B78204A12782049097805970496F9
:1035C0000395029401901E48007800901F481E4CFD
:1035D000A047B8E70E4B18785C789D78DE78144BDE
:1035E0001F79144B1B78144A1278144909780597EF
:1035F00004960395029401901148007800901448B5
:10360000114CA0479FE7C0468C050020F008002021
:10361000A0080020C0080020E9360000A80800200B
:10362000E93100000DC802160DC804180DC8061AAD
:10363000E80800208D050020440900202004002017
:1036400020050020441D0100C1C20000841D0100AE
:10365000C41D0100F0B589B017001D000690430697
:1036600007914A0413437A0213432B43144E3360E9
:10367000144C0022002322606360134B9847134BC5
:10368000984721683068124B98472071114B196890
:103690003068114B984723786278A178E0780F4C16
:1036A00024790594049003910292019300953B00C4
:1036B000079A06990A480B4CA04709B0F0BDC046CE
:1036C000C0080020A0080020693700005137000022
:1036D000E9360000A8080020E9310000E8080020D1
:1036E00048120100C1C2000010B5430E0F2119405D
:1036F000114B1970440CE4B2104B1C70430ADBB23E
:103700000F4A1370C0B20F4A10700919C9B25B1882
:10371000DBB2C018C0B20C4B1A788018C0B25A780D
:103720008018C0B29A788018C0B2DB78C018C0B2D6
:10373000064B187010BDC04620040020440900202C
:103740008D05002020050020A00800202105002074
:10375000020E044B1A7002145A7002129A70D8703A
:103760007047C046A0080020054B187800065A781C
:10377000120410439A7812021043DB781843704702
:10378000E8080020044B01229A70B22189005A589F
:1037900001325A507047C046900500200122014B6B
:1037A0009A70704724090020024A1378013313707D
:1037B0007047C046440400207047000010B5040064
:1037C000094B9847094B1860094B186003E0064BFA
:1037D0009847064B1860054B1B68054A12689B1AF0
:1037E000A342F4D310BDC04639B20000400400200B
:1037F00078080020F0B5D64600B582B08246019127
:10380000002718E0C024E4058026B600E6616B4678
:103810009B8800931800104DA847E6618026F601AA
:10382000E6610098A847E66180263602E6610098C6
:10383000A847E66101375745E4D3C023DB05802262
:1038400092009A61802212029A618022D2019A61CA
:1038500002B004BC9246F0BDD17B000070B50949AE
:1038600001248C60084BCB600C740848084DA847B5
:103870000849FA238B60084BCB600C740748A847B3
:1038800070BDC0466809002085370000540A00203A
:1038900009800000540900209D370000E80900203D
:1038A00070B50B4C4923FA2252000A4920000A4DF8
:1038B000A8470A4920000A4B98470A4920000A4BAA
:1038C00098470123002200212000084CA04770BD2A
:1038D000BC09002000200042310100001532000028
:1038E00025020000A937000035020000AD020000EB
:1038F00010B50B4C0B4920000B4B984720000B4B8D
:1039000098470B4C0B4A002120000B4B98470B4962
:1039100020000B4B984720000A4B984710BDC0462B
:10392000B009002024050020ED840000C1840000BF
:10393000040A0020B93700001D830000480400205D
:10394000ED820000C1820000F8B5CE46474680B542
:10395000002401235B42994600239846002602E09A
:103960009846F6180134F423FF339C420DDC104DC9
:1039700002232A0000210F480F4FB8472B88984593
:10398000EED39945EDD99946EBE7FA21490030008D
:103990000A4B984702004B4641460948094CA0474C
:1039A0000222094B1A700CBC90469946F8BDC046DD
:1039B0000C050020E409002051790000598E000018
:1039C000041E0100C1C200008C050020F8B50022D1
:1039D0001A210020204CA047802149009423C022B6
:1039E000D205D1500022FD390020A0470024002537
:1039F000002609E002210020184B984703041B0C05
:103A0000F618000C2D180134154B9C42F2DD154FB1
:103A1000FA2189003000B8470400FA218900280003
:103A2000B8470500020021000F48104B98472204B8
:103A3000120C8223DB031A432D042D0C1D43092194
:103A40000020054CA0472A0008210020A04707229B
:103A50001A210020A047F8BDF1B2000045B20000D5
:103A6000E7030000598E0000341E0100C1C20000AF
:103A7000F8B5CE46474680B5B14EB24D32681321F7
:103A80002868B14CA047431E9841B04B187032686B
:103A900016212868A047431E9841AD4B1870326824
:103AA00011212868A047AB4B986532681A21286815
:103AB000A047A94FF862326828681B21A047B86266
:103AC000A64B1B78012B00D16EE0002B06D0022BF9
:103AD00000D1CFE00CBC90469946F8BD9D4CFA232E
:103AE0009B002360964F974E3A680A213068964DA6
:103AF000A84760603A6800213068A847A0603A682B
:103B000001213068A84720613A6802213068A8473F
:103B1000E0603A6803213068A847A0613A68042150
:103B20003068A84760613A6805213068A84720627C
:103B30003A6806213068A847E0613A680721306892
:103B4000A847A0623A6808213068A84760623A68CE
:103B50000B213068A847E0620A21814B9847206317
:103B60003A680C213068A84760633A680D213068D4
:103B7000A847A0637B4B98477B4B98467B49984767
:103B80007B4B99469847206461643A6830680E21FF
:103B9000A847A064774B98477449C0477349C0470A
:103BA000C8472065616595E76A4CFA239B0023604E
:103BB000634F644E3A680A213068634DA8476060DD
:103BC0003A6800213068A847A0603A68012130684F
:103BD000A84720613A6802213068A847E0603A6847
:103BE00003213068A847A0613A6804213068A847DB
:103BF00060613A6805213068A84720623A6806216A
:103C00003068A847E0613A6807213068A847A06299
:103C10003A6808213068A84760623A680B2130682A
:103C2000A847E0620A214E4B984720633A680C216E
:103C30003068A84760633A680D213068A847A063E0
:103C4000484B9847484B984648499847484B9946AF
:103C50009847206461643A6830680E21A847A064E0
:103C6000444B98474149C0474049C047C847206531
:103C700061652FE7374C404B2360314F314E3A6836
:103C80000A213068304DA84760603A6800213068EA
:103C9000A847A0603A6801213068A84720613A68C7
:103CA00002213068A847E0603A6803213068A847DD
:103CB000A0613A6804213068A84760613A6805212C
:103CC0003068A84720623A6806213068A847E0615A
:103CD0003A6807213068A847A0623A68082130682E
:103CE000A84760623A680B213068A847E0620A2161
:103CF0001B4B984720633A680C213068A8476063E3
:103D00003A680D213068A847A063164B9847164BB8
:103D1000984616499847164B99469847206461641F
:103D20003A6830680E21A847A064124B98470F49A3
:103D3000C0470E49C047C84720656165CAE6C0460E
:103D40000400002000000020B56D000022050020C6
:103D50001005002028050020F00800208C05002018
:103D6000238E0000F9F10000A1EB00006F12833AEE
:103D7000D50D010059F10000DC05000010B50C4B19
:103D800098470C4B98470A200B4CA0470022012172
:103D900000200A4B98470120A04700210020084B33
:103DA0009847084B9C46604443425841C0B210BDFE
:103DB00015960000D1960000D17B0000F1B2000002
:103DC00045B20000CFC8C9CB10B5094B9847094B85
:103DD00098470A20084B9847084B9847002801D17C
:103DE000012010BD0648074B98470020F9E7C04660
:103DF000E9960000A5970000D17B0000B56800009F
:103E00005C1E0100B5C3000070B50120064EB0472E
:103E1000C024E4058025AD009423E5500120B0477F
:103E20009823E55070BDC046D17B0000F0B583B04B
:103E30003E4B64221A60C83A5A60FA2212019A6014
:103E400001223B4B1A7000243A4B1C703A4B1C6009
:103E500000200021394B18605960394B18605960B7
:103E6000384B1C60384B1A70384B1A70384B1C702A
:103E70003849394B1960394B1C705C709A70DC7092
:103E80001C715C719C71DC711A725C72344A147022
:103E9000DC601C615C619C61DC611C625C629C6238
:103EA000DC62304B1C60B6239B002F4AD4502F4D50
:103EB000002600272E606F60AC60EC602C619023C0
:103EC000EC502800143078220021294B9847294BC8
:103ED0001C60A023EC540233EC54274B5C709C70A4
:103EE0005C60264B1E605F60254B1C6001A8254B63
:103EF0009847C023DB05802252009C582032822143
:103F0000C9058A58882149005B5853401C405440D9
:103F100001A81D4B9847E30305D4012252421B4BD5
:103F20009A6103B0F0BD0122F9E7C04614050020F4
:103F300098080020B10800204004002080080020DC
:103F400030040020780800200E050020880800209A
:103F50000F050020A086010088050020F008002041
:103F600090080020480900209005002050040020FF
:103F7000CFB900008C08002024090020A0080020F0
:103F8000C0080020017A00000F7A0000C408002059
:103F900010B5204C0122012120001F4B9847200022
:103FA0001E4B9847C023DB058022D2019A618022F4
:103FB00092009A61802212029A61194B984700215F
:103FC0001848194B9847194B9847194B98470028A0
:103FD00017D0184B9847002817D1174B9847002047
:103FE000164B98470020164B98470020154B9847D2
:103FF000154B9847154B9847154B9847154B9847C5
:1040000010BD1548154B9847FAE71548134B9847CC
:10401000E3E7C04694090020617E0000257E000091
:10402000F1380000E409002025790000493900003A
:104030007D3D0000C93D0000713A00005945000077
:104040002144000079430000CD3900005D380000B4
:10405000A1380000B5500000781E0100B5C3000073
:10406000A41E010070B50400802149009823C022DD
:10407000D205D15000203C4B98473C4DA847A0B2F8
:104080003B4B98473B4B00221A605A609A60A84706
:10409000394B19880020394B9847032252210020C0
:1040A000374CA04703210020364B98470020364B61
:1040B000984701000020354B9847002263210020DB
:1040C000A04700210020324B9847324B1B78012B30
:1040D0001FD0002B02D0022B36D070BD262100202D
:1040E0002D4DA84701002D482D4CA047252100202B
:1040F000A84701002B48A0472D210020A847010018
:104100002948A0472C210020A84701002748A047A4
:10411000E3E726210020204DA84701002448204C39
:10412000A04725210020A84701002248A0472D21B3
:104130000020A84701002048A0472C210020A847C4
:1041400001001A48A047C8E726210020124DA847C1
:1041500001001A48124CA04725210020A847010061
:104160001748A047B9E7C046AD9F000011480000BE
:10417000D17B00001405002028050020A546000082
:10418000F1B20000EDB40000DDB4000061B4000045
:1041900021B400008C05002045B20000D41E0100AF
:1041A000C1C20000041F01002C1F01005C1F0100A0
:1041B000841F0100B41F0100DC1F01000C2001005E
:1041C0003C20010010B50CE00278084B9A62074BC6
:1041D0001B7E5B07FBD5054B9B6A0B7001310130E1
:1041E0002200541EE4B2002AEED110BD001000429D
:1041F000F0B583B000900E000192C027FF0508249F
:104200007C610120064DA8476B461A793100009861
:10421000044B98470120A847BC61012003B0F0BDC2
:10422000D17B0000C541000010B582B00B2801D938
:1042300002B010BD01AC402323706070A170032256
:1042400069462000044B984721786278A378034898
:10425000034CA047ECE7C046F141000010230100E9
:10426000C1C2000070B584B00E000B2818D8002918
:1042700016D003AC4123237060700023A37002ADFD
:10428000032229002000074B9847A8783070217836
:1042900062782B786C78019000940348034CA04717
:1042A00004B070BDF141000058230100C1C20000FC
:1042B00010B50F4C01232370002100200D4B9847AF
:1042C000002100200C4B984700220C4B1A70A37859
:1042D000002B02D10132094B5A7000210020084BFB
:1042E00098470848084B98470848094B984710BD1D
:1042F000F008002021B4000041B40000240900208F
:10430000EDB400001C240100B5C30000540A0020D5
:10431000CD7F000010B50F4C0123637000210020F9
:104320000D4B9847002100200C4B984700220C4B66
:104330001A70A378002B02D10132094B5A70002168
:104340000020084B98470848084B98470848094BF5
:10435000984710BDF008002021B4000041B40000CF
:1043600024090020EDB4000030240100B5C3000092
:10437000540A0020CD7F000070B504001F4E3200AB
:104380005C211F4DA84732005D212000A8471D4E2B
:10439000B2685E212000A84732225F212000A84792
:1043A000002260212000A847174A61212000A84769
:1043B000164A62212000A847032252212000A84764
:1043C000092250212000A847092251212000A84796
:1043D000328AB18920000E4B9847328BB18A200077
:1043E0000C4B9847328CB18B20000B4B9847328D89
:1043F000B18C2000094B984770BDC046FF7F00007C
:10440000F1B200002805002001000080FFFFFF7FBF
:104410002DB5000041B5000055B5000069B500009C
:1044200070B505003E4A1B213E4CA04700221721D3
:104430002800A0473C4A18212800A0473B4A1921E0
:104440002800A04707221A212800A047384A0A213D
:104450000020A047374A04210020A0478026B60547
:10446000320005210020A047320006210020A0478D
:10447000314A07210020A047304A09210020A047E7
:104480002F4A08210020A04700221F212800A04712
:10449000002220212800A047002221212800A04737
:1044A000002223212800A047022252212800A047F1
:1044B000082263212800A047002229210020A047CC
:1044C000012252210020A04700221C210020A047E9
:1044D000FA22120124210020A047FA208000194B63
:1044E0009847194E32005C212800A04732005D2118
:1044F0002800A047154B9A685E212800A04700229B
:1045000060212800A047124A61212800A047114AD3
:1045100062212800A04703226D210020A04770BD22
:1045200032000200F1B200009F0F000019190000D4
:1045300000010018100010004E014E01978141004B
:10454000C5814100D17B0000FF7F000028050020CD
:1045500001000080FFFFFF7F70B5040000221A21D8
:104560004C4DA84700221B212000A84700221721FC
:104570002000A847002218212000A8470022192166
:104580002000A84700220A212000A8470022042179
:104590002000A847002205212000A847002206216C
:1045A0002000A847002207212000A8470022092157
:1045B0002000A847002208212000A84700221F2130
:1045C0002000A847002220212000A8470022212106
:1045D0002000A847002223212000A84700225221C2
:1045E0002000A847002263212000A84700222421A0
:1045F0002000A847002226212000A84700222721CA
:104600000020A84700225C212000A84700225D214D
:104610002000A84700225E212000A84700225F2139
:104620002000A847002266212000A847002261211F
:104630002000A847002262212000A8470022522122
:104640002000A847002250212000A8470022512125
:104650002000A847002263212000A84700226821EB
:104660002000A84700226B212000A84700226021DB
:104670002000A847002200212000074B9847002275
:1046800000212000054B9847002200212000044B08
:10469000984770BDF1B200000DB5000055B500009F
:1046A00069B50000F0B583B005000E004F4CA0883E
:1046B0004F4FB847002301222921019528004D4D75
:1046C000A8470123002252210198A8470023012274
:1046D00024210198A847330000222421019E3000A4
:1046E000A847002300221C213000A847FA204000E0
:1046F000B847414F414E3A680F213068404DA847B6
:10470000E0653A6830681021A84700282FD180243E
:104710006401394E394F326811213868384DA84745
:10472000324B9865326838681221A847002820D19A
:1047300080256D01334B1B78012B33D0002B1AD011
:10474000022B46D000222721019C20002E4DA84795
:10475000002252212000A847FA204000244B98470D
:1047600001222A212000294B984703B0F0BD0024E4
:10477000CFE70025DEE7220025210020224EB047AA
:104780001A4FFA6D26210198B0472A002C210020EB
:10479000B047BA6D2D210020B04700222E21002005
:1047A000B047CFE7220025210020174EB0470F4F1A
:1047B000FA6D26210198B0472A002C210020B0472D
:1047C000BA6D2D210020B04700222E210020B047D5
:1047D000B8E7064BDA6D2621019E30000A4DA84746
:1047E000220025213000A847ACE7C046280500205C
:1047F000D17B0000ADB300000400002000000020C9
:10480000B56D00008C050020F1B200008DB30000F2
:1048100070B50822632100200B4CA04700221F2105
:104820000020A047094D2A6820210020A0476A687F
:1048300021210020A047AA6824210020A0470222AD
:1048400052210020A04770BDF1B2000014050020E5
:1048500010B500210020074B984700210020064B8F
:10486000984700210020054B9847054B00225A70BD
:104870001A7010BDEDB4000021B4000041B4000076
:104880002409002010B500210020074B9847002183
:104890000020064B984700210020054B9847054B08
:1048A00000225A701A7010BDEDB4000021B400004F
:1048B00041B4000024090020F0B5D6464F464646D4
:1048C000C0B588B000200021864B18605960864B27
:1048D000DB79002B00D1D1E0834C0025E57100216C
:1048E0000020824B9847FA20814B9847E5600020D2
:1048F000804B9847C317C01858402061E368A361F4
:10490000E061002100207C4DA847002100207B4C65
:10491000A04700210020A84700210020A047032233
:1049200063210020764CA04700222E210020A047C2
:10493000744B1B78022B00D185E000236A4A9370E8
:10494000714A1370714A1370714B1B78002B00D1A0
:1049500080E0704B9A46704B994653461A681A216C
:104960004B4618686D4CA0476D4FB8476D4E6E4969
:10497000B0476E4DA84704905246126849460868F1
:104980001B21A047B8476849B047A847684B1B7828
:10499000002B62D0049B5C424042614FB84765499E
:1049A000654B9847504D614EB047A8622000B8470C
:1049B0006049624B9847B047E8624B4B9A461D6985
:1049C000574B9946280098475D4F5749B847049080
:1049D0005346DE683000C8475349B8470790594CE2
:1049E0000498A047049005910798A047029003916E
:1049F0000096049A059B29005348544EB0475346ED
:104A00009D6A2800C8474849B84704905346DB6A66
:104A100098461800C8474449B847071C0498A0475F
:104A200004900591381CA0470290039143460093DF
:104A3000049A059B29004648B04708B01CBC904624
:104A40009946A246F0BD4348434B98470722434B43
:104A50001A7072E7424B98477BE7314FB8473549A8
:104A6000364B9847204D314EB047A8620498B8475E
:104A70003049314B9847B047E8629EE71A4C012312
:104A8000E37100210020194B9847002100201A4BA8
:104A90009847FA20334B984700232361E3601C4B6F
:104AA0001B78DAB2012A0ED9022BC6D1204B1B7813
:104AB000002B11D02C490020104B984703210020D7
:104AC0002A4B9847B9E7284900200C4B9847032107
:104AD0000020264B9847B0E725490020074B984710
:104AE000ECE7C04600050020F008002021B40000DB
:104AF000D17B0000DDB40000CDB4000061B4000043
:104B0000F1B200000F050020880800200E050020EB
:104B10008C0500200400002000000020B56D00007E
:104B200059F10000A1EB00008542214619F1000077
:104B3000220500208542A1469DE40000E1ED000031
:104B4000C1E70000D50D01006C240100C1C20000C6
:104B5000BC240100540A0020917F0000450400207D
:104B6000F5340000BD370000FFFFFF7FEDB400000B
:104B700001000080F0B5D6464F464646C0B588B025
:104B8000002000217D4B186059607D4BDB79002BA4
:104B900000D1C8E07B4B1B78002B04D17A4B1B78EB
:104BA000002B00D1A4E0764D0024EC710021002000
:104BB000764B9847FA20764B98470020754B9847DC
:104BC000C317C0185840E8602C61AC61E86100214F
:104BD0000020714B984700210020704B9847AC7023
:104BE0006F4B1C706F4B1C7000222E2100206E4BEF
:104BF00098476E4B1B78022B00D17CE06C4B9A4699
:104C00006C4B994653461A681A214B4618686A4CF1
:104C1000A0476A4FB8476A4E6A49B0476A4DA847ED
:104C2000049052461268494608681B21A047B847BD
:104C30006449B047A847654B1B78002B62D0049BA2
:104C40005C4240425D4FB8476149624B98474C4DCA
:104C50005D4EB047A8622000B8475D495E4B98475B
:104C6000B047E862464B9A461D69544B9946280066
:104C700098475A4F5349B84704905346DE6830006E
:104C8000C8475049B8470790554C0498A04704902E
:104C900005910798A047029003910096049A059BFE
:104CA00029005048504EB04753469D6A2800C847D7
:104CB0004449B84704905346DB6A98461800C847F1
:104CC0004049B847071C0498A04704900591381C38
:104CD000A0470290039143460093049A059B290044
:104CE0004248B04708B01CBC90469946A246F0BD69
:104CF0003F4B984757E73F483F4B984707223F4B6A
:104D00001A707BE72D4FB8473149334B98471C4DFC
:104D10002D4EB047A8620498B8472D492D4B9847AF
:104D2000B047E8629EE7164C0123E37100210020A2
:104D3000164B984700210020174B9847FA20304B1C
:104D4000984700232361E3600E4B1B78DAB2012AF7
:104D50000AD9022BC6D12B490020104B98470321BA
:104D60000020294B9847BDE7284900200B4B984766
:104D700003210020244B9847B4E7C04600050020DB
:104D8000F00800208C0500209008002021B40000CD
:104D9000D17B0000DDB40000CDB4000061B40000A0
:104DA000880800200E050020F1B200000F05002049
:104DB0000400002000000020B56D000059F1000043
:104DC000A1EB00008542214619F1000022050020D8
:104DD0008542A1469DE40000E1ED0000C1E700002E
:104DE000D50D01006C240100C1C20000BC240100EB
:104DF000F5340000540A0020917F00004504002093
:104E0000BD370000FFFFFF7FEDB400000100008010
:104E100010B586B0802149009823C022D205D15018
:104E2000FD3900204F4B98474F4B1B78002B0FD07C
:104E30004E4900204E4B984700224E4BDA714E4BA4
:104E40001B78DAB2012A08D9022B51D006B010BD66
:104E50004A490020464B9847EEE701A8484B98473F
:104E6000C023DB05802252009A58902252008221F2
:104E7000C9058A58882252009B5801A8414B98477F
:104E8000394B1B78002B19D002A83D4B9847C02303
:104E9000DB05802252009C5820328221C9058A58A5
:104EA000882149005B5853401C40544002A8354BB0
:104EB00098476303CAD4344B9847C7E703A8304BDD
:104EC0009847C023DB05802252009C582032822163
:104ED000C9058A58882149005B5853401C405440FA
:104EE00003A8284B9847E302B0D4284B9847ADE776
:104EF0001D4B1B78002B1AD004A8214B9847C023C8
:104F0000DB05802252009C5820328221C9058A5834
:104F1000882149005B5853401C40544004A8194B59
:104F20009847630300D591E7174B98478EE705A88C
:104F3000134B9847C023DB05802252009C58203237
:104F40008221C9058A58882149005B5853401C407A
:104F5000544005A80B4B9847630300D576E70A4BEE
:104F6000984773E7EDB4000022050020010000809F
:104F700061B40000F00800208C050020FFFFFF7FD7
:104F8000017A00000F7A0000B9480000754B00005C
:104F9000F0B5DE4657464E464546E0B583B001A81B
:104FA000264B9B469847C026F60580246400355959
:104FB0008223DB059A4690235B00994653464A4676
:104FC0009A5888235B009846F35853401D4055403B
:104FD00001A81B4FB84780235B031D406846D84794
:104FE000345953464A469A584346F35853401C4056
:104FF00054406846B8478023DB021C40002D10D186
:1050000080229200B261002C11D080221202C023B3
:10501000DB055A6103B03CBC90469946A246AB46BC
:10502000F0BD80229200C023DB055A61EBE78022AD
:105030001202C023DB059A61ECE7C046017A00004A
:105040000F7A000010B5154B1B78002B0CD0134BBA
:1050500000221A7080218900C022D20551619B78FC
:10506000002B15D00E4B98470C4B5B78002B0CD0C7
:105070000A4B00225A7080210902C022D2055161D8
:105080009B78002B07D1074B9847074B984710BDDB
:10509000064B9847E8E7064B9847F6E7F0080020EC
:1050A000754B000085480000914F000051480000FA
:1050B000B948000010B504495420044CA0470449E5
:1050C0005220A04710BDC046B1420000697C0000DC
:1050D0001543000070B50F4BD86A0F4B98470F4B24
:1050E0001C685D6822002B000D4EB047002800D1DF
:1050F00070BDA02212060B4B200029000A4CA047CD
:10510000064B18605960094B984701000020084B76
:105110009847EDE728050020E10C0100000500207C
:10512000EDE300009999993F85F20000790C0100A8
:1051300021B4000070B5051C0C00160000220023ED
:105140001E490A604B601E490A604B600021002026
:105150001C4B9847002E28D0281C1B4B9847010059
:1051600000201A4B98471A4B1C601A481A4B984754
:1051700003210020194B98470022194B1A70013265
:10518000184B1A70184B9B78002B07D1A333174A82
:10519000D35C002B02D10122154B1A701548164B17
:1051A00098471648164B984770BD281C064B9847E1
:1051B00001000020134B9847D5E7C046300400207B
:1051C000B808002021B4000019F1000061B400000B
:1051D00048090020900500206DAF0000EDB40000EC
:1051E0004504002088080020F0080020500400201A
:1051F000B0080020E8090020CD7F0000540A0020FC
:10520000917F000071B40000F0B5DE4657464E466F
:105210004546E0B593B0A64B9B78002B06D113B062
:105220003CBC90469946A246AB46F0BD0022A04B3E
:105230009A7000209F4B984700280AD000209E4B70
:1052400098479E4B1A78072AE9D893009C4AD3586E
:105250009F4603219B4B9847F0E70020964B9847C9
:10526000934CA669E769984DA84732003B00974EDA
:10527000B047974B9847C317C0185840B0342668BA
:105280006768A847012432003B00924DA8470028D8
:1052900000D10024E4B2002C44D0012CBFD1844BB7
:1052A0008C22920094466344186859688A4B984748
:1052B0008A4B1C685D6822002B00894EB04700288D
:1052C00011D0884B1A6D5B6D874E20002900B047C6
:1052D00002000B0081490A604B60844C20686168C1
:1052E000B04720606160824C804B1A685B68226026
:1052F00063606F4BB933FF3318685968764B984732
:105300006568246822002B00754EB047002800D144
:1053100085E7200029006E4B984701000020754B5F
:1053200098477CE70020644B9847614DAE69EF6970
:10533000654B9A469847654C32003B00A047644B4A
:105340009B469847C21783185340B0229146A94400
:105350004A46166857680B931800D04732003B0046
:10536000A047B624A400D8472851DC225200934617
:10537000AB445A4610685168574A904690475B4B79
:10538000186059604A46536812680C920D930022C7
:10539000594B524908684968584EB0470E900F91D2
:1053A0008C26B600AB1918685968C04706000F0074
:1053B0000020534B98478146594608684968C047C2
:1053C0002C590894069007914C4604940296039732
:1053D0000E980F99009001910C9A0D9B0B994948DA
:1053E000494CA047494BEA5C0023012191425B41B3
:1053F000DBB2911E4D424D41D01E41424141C8B2E7
:105400002B430AD1002808D1043AD2B2012A00D98C
:1054100005E70122294B1A7001E70222274B1A7077
:10542000FDE60020244B9847214CA669E769264DEC
:10543000A84732003B00254EB047254B9847C3177D
:10544000C0185840B83426686768A847012432005D
:105450003B00204DA847002800D10024E4B2002CD6
:1054600056D0012C00D0DAE6114BC133FF33186857
:105470005968194B98471E4B1A685B68184CA0472F
:10548000002800D1CBE6194C144B1A685B682068E1
:105490006168154DA84720606160154B1860596020
:1054A0000B4B984701000020124B9847B7E6C046C7
:1054B00090050020FDB40000DDB40000450400208C
:1054C000A8230100EDB40000E10C01000D0601006D
:1054D000790C0100C5E3000019320000B808002073
:1054E00001E400002805002085F2000030040020BF
:1054F0008008002021B4000000408F400D01010011
:1055000011B400000C250100C1C20000A902000076
:105510000020C14B9847C14DAE69EF69C04B9A4618
:105520009847C04C32003B00A047BF4B9B46984772
:10553000C21783185340B8229146A9444A461668B8
:1055400057680B931800D04732003B00A047B624A1
:10555000A400D8472851E02252009346AB445A4653
:1055600010685168B14A90469047B14B1860596035
:105570004A46536812680C920D930022AD4BAE4917
:1055800008684968AD4EB0470E900F918E26B60060
:10559000AB1918685968C04706000F000020A84BD7
:1055A00098478146594608684968C0472C5908946D
:1055B000069007914C460494029603970E980F9913
:1055C000009001910C9A0D9B0B999E489E4CA04710
:1055D00002229E4B1A7022E600208F4B98478F4C78
:1055E000A669E7698E4DA84732003B008D4EB04753
:1055F0008D4B9847C317C0185840C0342668676859
:10560000A847012432003B00914DA847002800D153
:105610000024E4B2002C46D0012C00D0FFE57F4BE3
:105620009022920094466344186859687F4B9847CB
:10563000814B1C685D6822002B00864EB047002815
:1056400012D0854B1A6D5B6D20002900754CA04768
:1056500002000B0078490A604B60754C2068616855
:105660007E4DA847206061607D4C714B1A685B6875
:1056700022606360694BC933FF33186859686B4B0C
:1056800098476568246822002B00764EB0470028B2
:1056900000D1C4E520002900634B98470100002099
:1056A000714B9847BBE500205B4B98475B4CA66964
:1056B000E7695B4B9A4698475A4D32003B00A84732
:1056C000594B9B469847C21783185340C0229046B7
:1056D000A0444246166857680B931800D047320022
:1056E0003B00A847B6239B009946D8474B46E0505D
:1056F000E42252009246A2445246106851684B4E32
:10570000B0474B4B186059604246536812680C9280
:105710000D93494F0022474B38687968474DA84799
:10572000109011919025AD00631918685968B04721
:105730000E900F910020424B9847804651460868D2
:105740004968B0474B46E65808960690079146468A
:1057500004960E9D0F9E0295039610981199009045
:1057600001910C9A0D9B0B994048374DA847002298
:1057700000233A607B603E4BE35C594259419A1EDC
:105780005442544121431A1F54425441E2B2002969
:1057900015D1002A13D15A1E54425441D91E4A42EF
:1057A0004A412243053B58425841C3B2002A02D124
:1057B000002B00D133E50422244B1A702FE503227D
:1057C000224B1A702BE50020134B9847134CA66907
:1057D000E769134DA84732003B00124EB047124B09
:1057E0009847C317C0185840C83426686768A84748
:1057F000012432003B00164DA847002800D10024A8
:10580000E4B2002C36D0012C00D008E500200021A5
:10581000094B1860596002E5DDB4000090050020D6
:10582000E10C01000D060100790C010019320000A5
:105830003004002000408F40B80800200D01010016
:1058400011B4000040250100C1C200004504002041
:10585000C5E30000D9E300002805002085F2000020
:105860008008002001E4000021B40000742501003C
:10587000A90200000020CC4B9847CC4DAE69EF69DF
:10588000CB4B9A469847CB4C32003B00A047CA4BC3
:105890009B469847C21783185340C8229146A94493
:1058A0004A46166857680B931800D04732003B00F1
:1058B000A047B624A400D8472851E82252009346B6
:1058C000AB445A4610685168BC4A90469047BC4B5E
:1058D000186059604A46536812680C920D93002272
:1058E000B84BB94908684968B84EB0470E900F9157
:1058F0009226B600AB1918685968C04706000F0019
:105900000020B34B98478146594608684968C0470C
:105910002C590894069007914C46049402960397DC
:105920000E980F99009001910C9A0D9B0B99A94824
:10593000A94CA0470422A94B1A7070E400209A4B8E
:1059400098479A4CA669E769994DA84732003B00F1
:10595000984EB047984B9847C317C0185840D0345A
:1059600026686768A847012432003B009C4DA84781
:10597000002800D10024E4B2002C49D0012C01D031
:10598000FFF74DFC894B94229200944663441868BB
:1059900059688A4B98478C4B1C685D6822002B0025
:1059A000904EB047002812D08F4B1A6D5B6D2000CF
:1059B0002900804CA04702000B0083490A604B601D
:1059C0007F4C20686168894DA84720606160884CE1
:1059D0007B4B1A685B6822606360744BD933FF337A
:1059E00018685968754B98476568246822002B0031
:1059F0007C4EB047002801D1FFF711FC20002900A0
:105A00006D4B9847010000207A4B9847FFF707FC41
:105A10000020654B9847654DAE69EF69644B9A4627
:105A20009847644C32003B00A047634B9B46984725
:105A3000C21783185340D0229146A9444A4616689B
:105A400057680B931800D04732003B00A047B6249C
:105A5000A400D8472851EC2252009346AB445A4642
:105A600010685168554A90469047554B18605960E8
:105A70004A46536812680C920D930022514B5249CA
:105A800008684968514EB0470E900F919426B600B1
:105A9000AB1918685968C04706000F0000204C4B2E
:105AA00098478146594608684968C0472C59089468
:105AB000069007914C460494029603970E980F990E
:105AC000009001910C9A0D9B0B994B48424CA047BA
:105AD0004A4BEA5C0023012191425B41DBB2911EFB
