S01D00004754726F6E5F417869735F436F6E74726F6C6C65722E73726563A6
S214000000F02B0020317200002D7200002D720000CF
S21400001000000000000000000000000000000000DB
S2140000200000000000000000000000002D7200002C
S21400003000000000000000002D7200001DB7000048
S2140000402D7200002D7200002D7200001595000024
S2140000502D7200002D7200002D7200002D7200001F
S2140000602D7200002D7200002D9A00002D720000E7
S2140000702D7200002D720000419A00002D720000C3
S214000080459100002D7200002D7200002D720000B8
S2140000902D72000039A100004DA100002D72000055
S2140000A061A100002D7200002D7200002D7200006C
S2140000B02D7200002D7200002D72000010B5064C47
S2140000C02378002B07D1054B002B02D0044800E014
S2140000D000BF0123237010BD300200200000000086
S2140000E0C8420100084B10B5002B03D0074908484A
S2140000F000E000BF07480368002B00D110BD064B88
S214000100002BFBD09847F9E70000000034020020DF
S214000110C8420100C84201000000000010B5024BB2
S2140001209847024B984710BDAD7A0000C5B6000050
S21400013070B504000E001D00FA2189005143090124
S2140001403048314B984701380004304B1840304B4C
S21400015018432660B36901221343B36123689A6982
S214000160D207FBD59A6902210A439A61294B9E421F
S21400017034D02268936902218B4393612268936985
S21400018001398B43936123689B69DB07FBD420000E
S214000190214B98476B091F2215401E3AAA40C024DF
S2140001A0E405DB011E19B2601004000C8021C905AD
S2140001B001438220C005844663449962110CC02521
S2140001C02D0629439962726110238822A35020329B
S2140001D0124981508550143AA35070BD2368D861E7
S2140001E00F4B802252027E315A50BFF34F8FBFF31F
S2140001F06F8F0131FF315A501A6023680122DA6589
S214000200B7E7C046006CDC02999200000000FF01D0
S214000210030A000600200042C57E000010000040D1
S21400022000E100E010B50A000121014B984710BD1F
S2140002305D7F000010B50A000021014B984710BDF5
S2140002405D7F000010B584B0009100216C462171DE
S21400025006A902912373002A08D100236373694616
S214000260044B9847044B186004B010BD0123637319
S214000270F5E7C046257F0000CC07002010B584B007
S2140002800C0002926946084B9847009B23606B4619
S2140002901B79002B05D0012B01D0002002E00220A4
S2140002A000E0012004B010BDED7E000010B582B065
S2140002B000910192002B06D16B4600220021054CCE
S2140002C0A04702B010BD6B4601220021014CA0479A
S2140002D0F7E7C046AD7F000070B5430E0F241C4004
S2140002E0144B1C70450CEDB2134B1D70420AD2B273
S2140002F0124B1A70C0B2124B187012490B79124E7C
S21400030033706419E4B21219D2B28018C0B20A78F7
S2140003108018C0B24A788018C0B28A788018C0B2F6
S214000320CA788018C0B2094A1070181A4342584159
S214000330C0B270BD300400205C080020A505002077
S2140003403005002000080020310500204908002064
S214000350F0B58FB0B14B984200D1DBE020D9B04B5E
S214000360984200D17DE300D8FAE0AE4B984200D127
S2140003708BE200D9E4E1AC4B984200D1B4E200D95C
S2140003803CE1AA4B984200D13CE3A94B984200D0EE
S21400039074E20122A74B9A700022A74B1A608AE2E9
S2140003A0A64B984200D1B5E000D9A4E0A44B9842F1
S2140003B000D102E33ED9A34B984200D129E36BD883
S2140003C082239B04984200D1B1E29F4B984200D012
S2140003D054E201229D4B1A709D4B98479D4B186026
S2140003E09D4B1B78002B00D1DCE29A4B18684042EC
S2140003F0914B1C68994B984700222100984B9847D0
S214000400944C2068974B98470423642201210B20C4
S214000410954DA84725682068904B98479349944B7C
S2140004209847944B984702000B0029009248934C3B
S214000430A04723E2102800D11EE224D9904B984210
S21400044000D1DBE38F4B984200D017E2804B9847F1
S214000450804B18608C4B1C7800228C4B5A60002C0A
S21400046000D121E31D0001232B7002210020884BC0
S21400047098478848884B98470023AB6021008748F8
S2140004807E4B9847FAE1022800D0F7E100200021D1
S2140004907D4B18605960F1E1814B984200D1C7E26C
S2140004A0804B984200D0E9E1694B984701007E4CAA
S2140004B020607E48714B984720687D4B98477D4B5F
S2140004C098477D4B9847010020607C4B1B78002B9B
S2140004D003D07B4B1B78002B01D1574B1960794812
S2140004E0664CA0470523642201210B205E4DA847D9
S2140004F07548A047C2E1754B98420BD01CD8744B88
S214000500984207D010D8734B984203D0724B98424B
S21400051000D0B3E10523642201210B20524CA047F2
S2140005206E486F4B9847A9E16E4B9842F2D06E4BDF
S214000530984200D0A2E1EDE76C4B9842EAD007D88B
S2140005406B4B9842E6D06B4B984200D096E1E1E7C1
S214000550694B9842DED0694B984200D08EE1D9E7CD
S214000560674B9842D6D02DD9664B9842D2D03DD90B
S214000570654B9842CED0654B984200D07EE10AA8E3
S214000580634B9847C023DB05802252009C582032DC
S2140005908221C9058858103A9B5843401C40444065
S2140005A00AA85C4B98478020C0020440601E844125
S2140005B0E0B22C4B98470A23642201210B202A4CD8
S2140005C0A0475BE1544B9842A4D007D8534B9842BF
S2140005D0A0D0534B984200D050E19BE7514B984235
S2140005E098D0514B984200D048E193E74F4B984241
S2140005F090D04F4B984200D040E18BE74D4B98424D
S21400060000D148E1C5239B04984200D036E14A4B0E
S21400061098474A48324B984730E1C04600EA0A02FB
S21400062000160C020002140300021A0200A20D02B9
S21400063000001A020808002060080020000A0A02CB
S2140006400000060200000A0200020802C807002096
S21400065019380000680800203205002031FA000032
S2140006604955000001380000053700008542214644
S21400067099F00000AD160100BC1A010005CB000081
S2140006801500000218000002000800203C080020A8
S214000690E1B9000020090020D1830000801B010082
S2140006A000020A0200080A0264080020241A010058
S2140006B0B9150100C9320000511501001E050020C1
S2140006C0A0070020341A0100481A010000320A026E
S2140006D0002C0A02001C0A0200220A02181A010054
S2140006E021CC0000002E0A0200300A0200380A025E
S2140006F000340A0200360A0200E60A0200E80A028D
S214000700000C0B0200860B0200A20B0200140C0267
S214000710317E00003F7E000000F80A0200EC0A026C
S21400072000EE0A0200FA0A0200020B0200820B0226
S21400073000840B0200041A02B9330000E819010015
S214000740E3239B04984200D19BE328D8E2239B0432
S214000750984200D17AE3DF4B984200D08EE0DE4B21
S21400076098470400DD4B9847051CDD49DD4B98474C
S214000770DD4B9847DD4EF062DD4B9847F16ADD4869
S214000780DD4B9847DD49281CDD4B9847DD4B9847E5
S21400079002000B000094DC48DC4988476EE0F0233A
S2140007A09B04984200D14EE1D94B984266D1D94B72
S2140007B01A68D94B18681121D84B98470690D84B21
S2140007C01B78002B00D147E10020D64B98474642C5
S2140007D02E210020D44B98470500F0170004000C8B
S2140007E080190014D14CA04706000F000698D04B85
S2140007F0984732003B00CF4EB04706000F00280057
S214000800A04732003B00CC4DA847CC4B984705008C
S214000810B74B984707952900C948B74B9847C94B27
S21400082018785E789F78DC78C74B1D79C74B1B78A5
S214000830C74A1278C7490978059504940397029623
S2140008400190C54800780090C448B04EB04706985E
S214000850C34B9847AA4CC349A047071C079D2800CE
S2140008609E4B9847391CA047A64B984702000B00A2
S2140008702900BD48B04701E0BC4B9847B54B1B78F4
S214000880012B00D11DE30FB0F0BDB94B9847B94816
S214000890B94B9847F2E70122B84B1A70B84B984705
S2140008A0B848B54B9847E9E700210020B64B984773
S2140008B0B648B14B98470020B54B98470028F3D16F
S2140008C00230B44B9847894B9B78002B09D1B2482D
S2140008D0A94B98470D23642201210B20AF4CA0475B
S2140008E0CCE7AF4B9847F2E700210020A64B98478D
S2140008F000210020AB4B98470023AB4A1370AB4A4D
S21400090013707A4A9370D371937100200021A84B1C
S21400091018605960A748A84B9847A848964B984730
S2140009200D23642201210B209C4CA047A6E7012240
S214000930A34B1A70684B9847A24B1860784B1B78ED
S214000940002B24D09F4B186840429F4B1C68634B7B
S2140009509847012221009D4B98479A4C2068644B8B
S21400096098470423642201210B208C4DA847256854
S21400097020685A4B98476149614B9847614B9847A6
S21400098002000B0029009248604CA04776E78D4B8A
S21400099018688D4B1C68514B9847012221008B4BE1
S2140009A09847DAE7874B1868874B1C684B4B984785
S2140009B000222100854B984722E500210020724B3B
S2140009C0984700210020774B98470023764A1370FB
S2140009D0764A1370454A9370D3719371784A1370B0
S2140009E000200021724B186059607248724B98477D
S2140009F00323642201210B20684CA04775485E4BF8
S214000A0098473BE70623642201210B20634CA0474E
S214000A1034E70020704B98470400354B9847210078
S214000A203448354B984721006C48384B984725E7A3
S214000A3000203C4B984704002D4B984721002D483A
S214000A402D4B98471AE700222E210020644B98472A
S214000A506448494B984711E70020324B98470600F8
S214000A60B6E60BA8604B9847C023DB0580225200F1
S214000A709C5820328221C9058858103A9B5843401A
S214000A801C4044400BA8594B984780204003044024
S214000A90601E8441E0B2164B98470B236422012166
S214000AA00B203E4CA047E9E6514D00262E705148DB
S214000AB0414B9847002100203A4FB8470020194B79
S214000AC09847010000204C4B984703210020B84768
S214000AD0AE60D3E400008A031938000031FA000043
S214000AE08542A14675ED0000F1F9000008080020D7
S214000AF00138000005C802169932000085422146DA
S214000B0099F00000AD160100001C010005CB0000A6
S214000B100000C203040000200000002095710000C1
S214000B2032050020D1B9000039B70000B915010020
S214000B303D160100E50901005DFB000051150100AE
S214000B40E1C80216B807002000080020A50500200E
S214000B505C0800203004002030050020201B010027
S214000B60D1FA00003333CB40541B01001D6E000049
S214000B70E9320000FC19010021CC0000A807002083
S214000B80A5350000041A010015B900005C1A010022
S214000B9025B90000E17F0000781A01000537000043
S214000BA055510000E1B900001E050020A0070020F6
S214000BB0100500208C0900200D840000881A010012
S214000BC0C80700206808002060080020495500007B
S214000BD0941A0100E41A010091B90000F41A010009
S214000BE0E5B700000C1B0100317E00003F7E0000D0
S214000BF03C0800202009002055B90000C54B984746
S214000C00C54B1860C54B1D785B78013B594259416E
S214000C10C34AD1700CA8C34B9847C023DB0580227B
S214000C2052009C5820328221C9058A5888214900E2
S214000C305B5853401C4054400CA8BB4B9847E302FB
S214000C4003D4B74BDB78002B25D10DA8B54B9847BE
S214000C50C023DB05802252009C5820328221C90521
S214000C608A58882149005B5853401C4054400DA8C0
S214000C70AD4B9847630303D4A94BDB78002B0AD00F
S214000C80A74BDB78002B72D00A2D00D9F6E5AD0015
S214000C90A64B5B599F46A648A64B9847F3E500220D
S214000CA09F4B5A60EAE5A44B1B78002B03D00B231E
S214000CB09B4A5360E2E50123FAE79F4B1B78002B23
S214000CC003D00C23964A5360D8E50223FAE79A4BE2
S214000CD01B78002B03D00D23914A5360CEE50323E7
S214000CE0FAE7954B1B78002B03D00E238C4A5360F3
S214000CF0C4E50423FAE7904B1B78002B03D00F23A0
S214000D00874A5360BAE50523FAE78B4B1B78002B1E
S214000D1003D01023824A5360B0E50623FAE7864BD9
S214000D201B78002B03D011237D4A5360A6E50723CA
S214000D30FAE7814B1B78002B03D01223784A5360C6
S214000D409CE50823FAE77C4B1B78002B03D0132383
S214000D50734A536092E50923FAE7774B1B78002B1A
S214000D6003D014236E4A536088E50A23FAE70A2D57
S214000D7000D983E5AD00714B5B599F460022684B56
S214000D805A607BE56C4B1B78002B03D00123644A2A
S214000D90536073E50B23FAE7674B1B78002B03D0F1
S214000DA002235F4A536069E50C23FAE7624B1B781F
S214000DB0002B03D003235A4A53605FE50D23FAE75E
S214000DC05D4B1B78002B03D00423554A536055E532
S214000DD00E23FAE7584B1B78002B03D00523504A06
S214000DE053604BE50F23FAE7534B1B78002B03D0D9
S214000DF006234B4A536041E51023FAE74E4B1B7817
S214000E00002B03D00723464A536037E51123FAE741
S214000E10494B1B78002B03D00823414A53602DE52D
S214000E201223FAE7444B1B78002B03D009233C4AD5
S214000E30536023E51323FAE73F4B1B78002B03D0C0
S214000E400A23374A536019E51423FAE73C4B1C691A
S214000E50002C00D1DC6820003A4B984721003A4825
S214000E603A4B984720003A4B98473A493A4B9847AE
S214000E703A4B984702000B00009439483949884796
S214000E80FCE4244B98470400314B9847051C364930
S214000E90364B9847364B9847294EB062294B9847B1
S214000EA0B16A3448294B98472A49281C2A4B984748
S214000EB02A4B984702000B0000942F482949884780
S214000EC0DCE42E4B1B78803BDAB2142A00D9DAE435
S214000ED093002B4AD3589F460E4B98470400294B45
S214000EE0197802000020284B98472000154B984799
S214000EF021002648154B9847C5E4224B1978002058
S214000F00234B984704000F4B9847210021480F4B6E
S214000F109847B8E419380000680800200008002048
S214000F203C080020317E00003F7E0000CC17010008
S214000F30941B010021CC000032050020F8170100A8
S214000F40080800200138000006C802169932000082
S214000F5031FA00008542214699F00000AD160100E6
S214000F60C81B010005CB00008542A146B9F600006B
S214000F70F1F9000005C802162C1C01005C080020D0
S214000F8024180100A5050020E5B7000092C8021647
S214000F9039B7000094C802162F4B197880225200E9
S214000FA02E4B1A602E4B1A682E4C20682E4B9847F4
S214000FB0236898682D4B9847236899682C4D28001D
S214000FC02C4B98472C4B18712368996828002B4B9C
S214000FD0984722681178537892680292019200939B
S214000FE00A002748274CA0474DE41B4B1C78264B8D
S214000FF01D78264B984709902A0009A92000244B03
S21400100098470998194B9847224E09993000194B72
S2140010109847194B187109993000184B9847099B47
S2140010200293019300952B00220021001A48154CCC
S214001030A04728E4084B1C78144B98470300084A3E
S2140010401268084908682100144CA0471448154B3C
S2140010509847FFF718FCC046A50500208807002023
S21400106004000020000000209571000001380000F8
S21400107084C8021699370000B8070020993200008D
S214001080541C010005CB0000300500201938000074
S2140010902D6E000082C80216AC1C0100C570000050
S2140010A0081D010021CC0000F0B5DE4657464E462E
S2140010B04546E0B591B00C00C84B984200D1DEE042
S2140010C021D9C74B984201D100F08EFC00D8FCE035
S2140010D0C44B984200D1DFE200D932E2C24B9842BC
S2140010E000D105E300D91EE2C04B984200D18AE346
S2140010F0BF4B984200D0C3E20122BE4B9A7000223A
S214001100BD4B1A60DBE2BD4B984200D1B7E000D978
S214001110A6E0BB4B984200D153E33ED9B94B984268
S21400112000D19DE36DD88123DB04984200D102E311
S214001130B54B984200D0A3E20122B44B1A70B44BD0
S2140011409847B44B1860B44B1B78002B00D12DE3A6
S214001150B04B18684042A84B1C68B04B984700221A
S2140011602100AF4B9847AB4C2068AE4B9847042302
S214001170642202210C20AC4DA84725682068A74BA6
S2140011809847AA49AA4B9847AA4B984702000B00D3
S2140011902900A948A94CA04772E2112800D16DE2A7
S2140011A026D9A74B984201D100F0AAFCA54B98423D
S2140011B000D065E2964B9847964B1860A24B1C7879
S2140011C00022A24B5A60002C01D100F082FC1D00C8
S2140011D001232B70022100209D4B98479D489E4B73
S2140011E098470023AB6021009C48944B984747E201
S2140011F0022800D044E200200021934B186059607A
S2140012003EE2974B984200D139E3964B984200D085
S21400121036E27F4B98470100934C20609348874BFB
S21400122098472068924B9847924B9847924B98471E
S21400123001002060914B1B78002B03D0904B1B784D
S214001240002B01D16C4B19608E487C4CA0470523BF
S214001250642202210C20744DA8478B48A0470FE259
S2140012608A4B98420BD01CD8894B984207D010D88E
S214001270884B984203D0884B984200D000E2052362
S214001280642202210C20684CA0478448844B98476F
S214001290F6E1844B9842F2D0834B984200D0EFE1BF
S2140012A0EDE7824B9842EAD007D8814B9842E6D0C9
S2140012B0804B984200D0E3E1E1E77F4B9842DED0D6
S2140012C07E4B984200D0DBE1D9E77D4B9842D6D0E2
S2140012D06DD97C4B9842D2D000D81BE17A4B98420D
S2140012E0CDD07A4B984200D0CAE10AA8784B9B46EC
S2140012F09847C025ED0580235B009A46EF58822369
S214001300DB05994690235B0098464B464246985824
S21400131088235B00EB5843401F4047400AA86D4EA9
S214001320B0478023DB021F40781E8741F8B23D4B52
S2140013309847694F21003800684B9847684C2071E1
S21400134000213800674B98472378069362789446C6
S214001350A778E0783C4B1C79634B1B78634A12787D
S21400136063490978059404900397644602940698A6
S21400137001906048007800905F48304CA04709A86C
S214001380D8475346EB584A464146515888225200A1
S214001390AD584D401D404D4009A8B0478023DB02A4
S2140013A01D40691E8D41E9B25448A04768E1544B80
S2140013B0984200D163E708D8524B984200D15EE7C6
S2140013C0514B984200D05BE159E7504B984200D110
S2140013D055E74F4B984200D052E150E700EA0A0426
S2140013E000160C040002140500021A0400A20D04E4
S2140013F000001A040808002060080020000A0A04FA
S2140014000000060400000A0400020804C8070020C2
S21400141019380000680800203205002031FA000064
S2140014204955000001380000053700008542214676
S21400143099F00000AD160100D81D010005CB000094
S2140014401500000418000004000800203C080020D6
S214001450E1B9000020090020D1830000C41E01006D
S21400146000020A0400080A04640800205C1D01004B
S214001470B9150100C9320000511501001E050020F3
S214001480A00700206C1D0100801D010000320A0428
S214001490002C0A04001C0A0400220A04501D010045
S2140014A021CC0000002E0A0400300A0400380A048A
S2140014B000340A0400360A0400E60A0400E80A04B7
S2140014C0000C0B0400860B0400A20B0400140C0492
S2140014D0317E00003F7E00000AC8041899370000DD
S2140014E0B807002099320000A50500205C080020FF
S2140014F03004002030050020201B0100841E01005F
S21400150000F80A0400EC0A0400EE0A0400FA0A04D2
S21400151000020B04E14B984200D1B0E6E04B984243
S21400152000D0ADE0ABE6DF4B984200D1BAE0DE4B30
S214001530984200D0A4E0DD4B9847DD48DD4B984745
S2140015409EE0DD4B984201D100F05DFC29D8B12326
S214001550DB04984201D100F03BFCD84B984200D007
S2140015608EE0D74B98470400D64B9847051CD649C3
S214001570D64B9847D64B9847D64EF062D64B9847F0
S214001580F16AD648D64B9847D649281CD64B98477A
S214001590D64B984702000B000094D548D54988479B
S2140015A06EE0B823DB04984200D10FE2D24B98429B
S2140015B066D1D24B1A68D24B18681121D14B984786
S2140015C00690D14B1B78002B00D108E20020CF4BB1
S2140015D0984746422E210020CD4B98470500F0172D
S2140015E00004000C80190014CA4CA04706000F0027
S2140015F00698C94B984732003B00C84EB0470600D5
S2140016000F002800A04732003B00C54DA847C54B39
S21400161098470500B04B984707952900C248B04B3D
S2140016209847C24B18785E789F78DC78C04B1D7957
S214001630C04B1B78C04A1278C049097805950494B7
S214001640039702960190BE4800780090BD48A94EC8
S214001650B0470698BC4B9847A34CBC49A047071C0C
S214001660079D2800974B9847391CA0479F4B9847E3
S21400167002000B002900B648B04701E0B54B98477A
S214001680AE4B1B78022B00D1DDE311B03CBC90467C
S2140016909946A246AB46F0BDAF4B9847AF48854B40
S2140016A09847EDE7AE4B9847AE48824B9847E7E73A
S2140016B000210020AC4B9847AC487E4B9847002052
S2140016C0AB4B98470028F3D10230AA4B9847814B82
S2140016D09B78002B09D1A848764B98470D236422A7
S2140016E002210C20A54CA047CAE7A54B9847F2E775
S2140016F0002100209C4B984700210020A14B9847D2
S2140017000023A14A1370A14A1370724A9370D371D2
S2140017109371002000219E4B186059609D489E4B97
S21400172098479E48634B98470D23642202210C205D
S214001730924CA047A4E70122994B1A70604B984739
S214001740984B1860704B1B78002B24D0954B18686C
S2140017504042954B1C685B4B984701222100934BF7
S2140017609847904C20685C4B9847042364220221DB
S2140017700C20824DA84725682068524B9847594947
S214001780594B9847594B984702000B002900884848
S214001790584CA04774E7834B1868834B1C68494B2A
S2140017A0984701222100814B9847DAE77D4B18685D
S2140017B07D4B1C68434B9847002221007B4B984783
S2140017C0D1E400210020684B9847002100206D4B93
S2140017D0984700236C4A13706C4A13703D4A937006
S2140017E0D37193716E4A137000200021684B186005
S2140017F059606848684B98470323642202210C20EE
S2140018005E4CA0473CE70020404B98470500324B13
S2140018109847684E21003000674B9847434C20712C
S2140018200695290030002E4B984720786678A778D2
S214001830E4783F4B1D793F4B1B783F4A12783F496F
S2140018400978059504940397029601903C48007821
S21400185000903C48274CA04706995848A0470FE7F9
S2140018600020574B984704001B4B984721001B4805
S2140018701B4B9847210053481E4B984700E7002013
S214001880224B98470400144B984721001348144BEA
S214001890984721004C48174B9847F1E600820B0406
S2140018A000840B0400041A0400001405B933000079
S2140018B0201D010021CC000000008C0500008A05D8
S2140018C01938000031FA00008542A14675ED000087
S2140018D0F1F90000080800200138000005C80418C7
S2140018E0993200008542214699F00000AD160100AD
S2140018F0401F010005CB00000000C20504000020C8
S214001900000000209571000032050020D1B90000CB
S21400191039B70000B91501003D160100E5090100C0
S2140019205DFB000051150100E1C80418B80700204F
S21400193000080020A50500205C08002030040020D8
S21400194030050020201B0100D1FA00003333CB40C5
S214001950581E01001D6E0000E9320000341D010013
S214001960A53500003C1D010015B900005C1A0100F9
S21400197025B90000E17F0000941D01000537000036
S21400198055510000E1B900001E050020A007002008
S214001990100500208C0900200D840000A41D010005
S2140019A0C80700206808002060080020495500008D
S2140019B0B01D010006C8041899370000001E01007B
S2140019C091B90000F41A01002C1E010000222E21FD
S2140019D00020D14B9847D148D14B984750E600207D
S2140019E0D04B98470600F5E50DA8CF4B9B46984789
S2140019F0C026F60580235B009A46F5588223DB0551
S214001A009946902252009A5888235B00F358534018
S214001A101D4055400DA8C54B9846984780235B034C
S214001A201D406B1E9D41EDB20CA8D8475346F75893
S214001A304B4690225200985888235B00F358434048
S214001A401F4047400CA8C04780235B031F40781EFA
S214001A508741F8B2B64B9847B64F21003800B64BD0
S214001A609847B64C207129003800B54B9847237824
S214001A709C466778A578E078B24B1C79B24B1B7809
S214001A80B24A1278B24909780594049003950297F1
S214001A9060460190AF4800780090AF48AF4CA04732
S214001AA00BA8D8475346F5584B46902252009958F3
S214001AB088235B00F3584B401D404D400BA8C047A1
S214001AC080235B031D40691E8D41E9B2A448A047F0
S214001AD0D6E5A44D00262E70A348A44B98470021B7
S214001AE00020A34FB84700208E4B984701000020E7
S214001AF0A04B984703210020B847AE60FFF773FB62
S214001B009D4B98479D4B18608E4B1D785B78013B2C
S214001B1059425941934AD1700EA8834B9847C02327
S214001B20DB05802252009C5820328221C9058A5843
S214001B30882149005B5853401C4054400EA87B4BFC
S214001B409847E30203D4874BDB78002B24D00FA8FA
S214001B50754B9847C023DB05802252009C582032E4
S214001B608221C9058A58882149005B5853401C4089
S214001B7054400FA86D4B9847630303D4794BDB782A
S214001B80002B09D1774BDA78002A75D00A2D0AD8AF
S214001B90AB007B49CB589F467A48614B984774E523
S214001BA00021704B5960290077486C4B984767E5D1
S214001BB0764B1B78002B03D00B236A494B60F2E769
S214001BC00123FAE7714B1B78002B03D00C236549E1
S214001BD04B60E8E70223FAE76C4B1B78002B03D038
S214001BE00D2360494B60DEE70323FAE7674B1B785B
S214001BF0002B03D00E235B494B60D4E70423FAE79F
S214001C00624B1B78002B03D00F2356494B60CAE764
S214001C100523FAE75D4B1B78002B03D010235149B0
S214001C204B60C0E70623FAE7584B1B78002B03D01F
S214001C3011234C494B60B6E70723FAE7534B1B7852
S214001C40002B03D0122347494B60ACE70823FAE782
S214001C504E4B1B78002B03D0132342494B60A2E760
S214001C600923FAE7494B1B78002B03D014233D4980
S214001C704B6098E70A23FAE70A2D94D8AB0044494C
S214001C80CB589F460021374B59608CE73F4B1B785B
S214001C90002B03D0012333494B6084E70B23FAE77C
S214001CA03A4B1B78002B03D002232E494B607AE771
S214001CB00C23FAE7354B1B78002B03D00323294966
S214001CC04B6070E70D23FAE7304B1B78002B03D0F0
S214001CD0042324494B6066E70E23FAE72B4B1B7858
S214001CE0002B03D005231F494B605CE70F23FAE760
S214001CF0264B1B78002B03D006231A494B6052E76D
S214001D001023FAE7214B1B78002B03D00723154935
S214001D104B6048E71123FAE7E5B70000441E0100D0
S214001D2021CC0000D1B90000317E00003F7E0000CB
S214001D30013800000BC8041899370000B8070020C7
S214001D409932000000080020A50500205C0800204D
S214001D503004002030050020201B010005CB0000C9
S214001D60A41E01003C080020200900200D8400006D
S214001D70E1B9000055B900001938000068080020D5
S214001D8078180100941B0100D81E010032050020BF
S214001D90A4180100724B1B78002B03D0082371494E
S214001DA04B6000E71223FAE76D4B1B78002B03D03D
S214001DB009236C494B60F6E61323FAE7684B1B7859
S214001DC0002B03D00A2367494B60ECE61423FAE79E
S214001DD0654B1C69002C00D1DC682000634B9847DB
S214001DE021006348634B98472000634B984763493C
S214001DF0634B9847634B984702000B000094624879
S214001E00624988473CE4624B984704005A4B98471F
S214001E10051C6049604B9847604B9847524EB0622D
S214001E20524B9847B16A5E48524B98475349281C14
S214001E30534B9847534B984702000B000094594861
S214001E40524988471CE4584B1B78803BDAB2142A68
S214001E5000D91AE49300554AD3589F464C4B9847EE
S214001E600400534B197802000020524B984720007C
S214001E703E4B9847210050483E4B9847FFF705FCDD
S214001E804B4B197800204D4B98470400374B98472A
S214001E9021004B48374B9847FFF7F7FB444B197820
S214001EA080225200474B1A60474B1A68474C2068FE
S214001EB0474B9847236898682C4B9847236899683F
S214001EC0444D2800444B9847444B18712368996842
S214001ED02800284B98472268117853789268029217
S214001EE0019200930A003E48284CA047FFF7CDFB1E
S214001EF02F4B1C783B4B1D78254B984708902A00A3
S214001F0008A92000384B98470898184B9847374E32
S214001F1008993000304B9847304B187108993000BC
S214001F20144B9847089B0293019300952B002200C0
S214001F3021002F48154CA047FFF7A7FB1C4B1C7829
S214001F40134B98470300204A12682049086821006E
S214001F50284CA0472848294B9847FFF796FBC046D1
S214001F60320500203C080020080800200138000048
S214001F7006C804189932000031FA0000854221464E
S214001F8099F00000AD160100081F010005CB000007
S214001F90193800008542A146B9F60000F1F90000A4
S214001FA005C804186C1F01005C080020D01801004A
S214001FB0A5050020E5B7000092C8041839B7000050
S214001FC094C80418880700200400002000000020A1
S214001FD09571000084C8041899370000B8070020DF
S214001FE0941F0100300500202D6E000082C80418E2
S214001FF0EC1F0100C57000004820010021CC000045
S214002000F0B5DE4657464E464546E0B591B0BE4B67
S214002010984200D105E126D9BC4B984201D100F088
S2140020203BFD00D821E1BA4B984200D15BE200D9D3
S2140020300FE2B84B984200D1ACE200D9FCE1B64BB7
S214002040984200D163E3B54B984226D16023B44A48
S214002050D35C002B00D05AE20122B24B9A700022C9
S214002060B14B1A6072E2B14B984200D1D9E000D968
S214002070BBE0AF4B984200D124E341D8E52801D11C
S21400208000F0F6FB16D8022800D126E2122804D16A
S214002090A848A94B9847A94B9847A94B1B78032BF0
S2140020A001D100F0F3FE11B03CBC90469946A24622
S2140020B0AB46F0BDA34B984201D100F028FDA24BE1
S2140020C09842EAD1A14B9847A14B1860A14B1C78C7
S2140020D00022A14B5A60002C01D100F001FD1D002A
S2140020E001232B70022100209C4B98479C489D4B57
S2140020F098470023AB6021009B489C4B9847CCE751
S2140021009B4B984200D110E338D8C123DB04984299
S21400211000D162E2974B9842BFD10122964B1A70CB
S2140021208A4B98478A4B1860944B1B78002B00D13B
S214002130BDE2874B186840427B4B1C68904B984723
S214002140002221008F4B9847814C20688E4B984781
S2140021500423642203210D208C4DA847256820689F
S214002160874B98478A498B4B98478B4B984702007A
S2140021700B00290089487D4CA0478EE7884B984283
S21400218000D1E1E2874B984200D086E76F4B984734
S2140021900100854C20608548744DA8472068844B14
S2140021A09847844B9847844B9847010020608348A3
S2140021B0A847834B1B78002B03D0824B1B78002B41
S2140021C003D1794B1A68584B1A60A3237E4AD35C16
S2140021D0002B00D093E10523642203210D206B4CD5
S2140021E0A0477A48614B984757E7794B984218D0F2
S2140021F00CD9784B984226D10523642203210D2062
S214002200624CA04774484C4B984746E7734B98423D
S21400221007D010D8724B984203D0724B984200D029
S2140022203BE70523642203210D20584CA0476E4847
S214002230414B984731E76D4B9842F2D06C4B984231
S21400224000D02AE7EDE7984207D86A4B9842E8D0D4
S214002250694B984200D020E7E3E7684B9842E0D00D
S214002260674B984200D018E7DBE7664B9842D8D019
S2140022702DD9654B9842D4D03DD9644B9842D0D0E6
S214002280634B984200D008E70CA8624B9847C023DF
S214002290DB05802252009C5820328221C9058858CE
S2140022A0103A9B5843401C4044400CA85A4B984751
S2140022B08020C0020440601E8441E0B2324B984742
S2140022C00A23642203210D20304CA047E5E6534B39
S2140022D09842A6D007D8524B9842A2D0514B98426B
S2140022E000D0DAE69DE7504B98429AD04F4B984282
S2140022F000D0D2E695E74E4B984292D04D4B98428E
S21400230000D0CAE68DE7C04600EA0A0600160C06AC
S2140023100002140700021A0600A20D0600001A06A4
S214002320380500200808002060080020000A0A0679
S214002330000006066020010021CC00001D6E000093
S21400234030040020150000061800000619380000AA
S21400235068080020000800203C080020E1B90000C2
S21400236020090020D18300007823010005CB00005F
S21400237000000A0600020806C807002032050020F2
S21400238031FA00004955000001380000053700000A
S2140023908542214699F00000AD1601004421010057
S2140023A000020A0600080A0664080020241A010033
S2140023B0B9150100C932000051150100B82001000E
S2140023C01E050020A007002060040020EC2001006D
S2140023D000320A0600380A06A4200100002C0A066D
S2140023E0001C0A0600220A0698200100002E0A0693
S2140023F000300A0600340A0600360A0600E60A0618
S21400240000E80A06000C0B0600860B0600A20B0668
S21400241000140C06317E00003F7E000000F80A061D
S21400242000EC0A0600EE0A0600FA0A0600020B0690
S21400243000820B0600840B06CA4B984259D0CA4B42
S214002440984200D029E6C94B9847C948C94B9847D7
S21400245023E6C94B984201D100F0F7FC29D8F123B6
S214002460DB04984201D100F0D4FCC44B984200D063
S21400247013E6C34B98470400C24B9847051CC24955
S214002480C24B9847C24B9847C24EF062C24B984721
S214002490F16AC248C24B9847C249281CC24B9847AB
S2140024A0C24B984702000B000094C148C1498847B8
S2140024B0F3E5F823DB04984200D1E8E2BE4B9842ED
S2140024C000D0EAE50020BD4B98470400B24B984781
S2140024D02100BB48B24B9847DFE500200021B94BEE
S2140024E018605960D9E5B84B9847B848A14B98474B
S2140024F0D3E5B74B9847B7489E4B9847CDE5B64BC4
S21400250019689C23D150B548AA4B984763E6122019
S214002510B34B9847B34B1A68B34B18681221B34BAA
S2140025209847002809D180235B01802252001A4375
S2140025302C210020AE4B98478EE50023F5E70021BE
S2140025400020AC4B9847AC488A4B98470020AB4BD2
S21400255098470028F3D10230A94B98478D4B9B78BB
S214002560002B09D1A748834B98470D2364220321EB
S2140025700D20A54CA04790E5A44B98476023A44A9D
S214002580D35C002BEED00022824B9A721220944B22
S2140025909847E7E700210020964B98470021002047
S2140025A09C4B984700239C4A13709C4A1370794AA8
S2140025B09370D371937100200021994B1860596075
S2140025C09848994B984799486A4B98470D23642238
S2140025D003210D208C4CA0475FE50122944B1A7016
S2140025E0674B9847934B186018686B4B9847A12326
S2140025F0914AD35C002B03D0A223D35C002B25D1B9
S2140026008E4B1B78002B47D08A4B186840428C4B69
S2140026101C685C4B9847012221008A4B984704238C
S214002620642203210D20784CA047824B1C68186852
S214002630544B98475B495C4B98475C4B9847020065
S2140026400B00210080485B4CA04726E5546900201B
S2140026505A4B9847241AE317E4185C407B4B9C427D
S214002660CEDD744B1968744B982299500C3A9B58DF
S214002670002B0BDB704B5B69754A944663446D4ACE
S21400268013600121A3236C4AD154B9E76A4B5B69F6
S214002690704A94466344F2E7664B1868684B1C68B9
S2140026A0384B984701222100664B9847B7E7614BA5
S2140026B01868634B1C68334B984700222100614B17
S2140026C0984741E5002100204A4B9847002100200A
S2140026D0504B98470023504A1370504A13702D4AA7
S2140026E09370D3719371524A1370002000214C4BA3
S2140026F0186059604B484C4B9847032364220321CB
S2140027000D20414CA04754481A4B9847C5E400207A
S2140027102A4B98470400204B984721004F48204BEF
S21400272098474F48134B9847B7E400204D4B9847BF
S2140027300400194B984721001848194B9847210068
S21400274049481C4B9847A8E400201C4B98470400B7
S214002750114B984721001148114B98474348054BA9
S21400276098479AE400041A0600001407B9330000DC
S2140027706820010021CC000000008C0700008A07BA
S2140027801938000031FA00008542A14675ED0000B8
S214002790F1F90000080800200138000005C8061AF4
S2140027A0993200008542214699F00000AD160100DE
S2140027B0C423010005CB00000000C207D1B9000009
S2140027C0E1C8061A00080020E93200007C2001005B
S2140027D0A53500008420010064080020CC200100FC
S2140027E08581000004000020000000209571000094
S2140027F0E5B7000015B900005C1A010025B9000015
S214002800E17F00000021010005370000555100005F
S21400281038050020E1B900001E050020A0070020B2
S214002820100500208C0900200D84000010210100F6
S214002830C807002068080020600400203205002039
S21400284060080020495500001C210100B95C020008
S2140028505FAFFFFFA15000006C21010006C8061AFA
S2140028607421010091B90000F41A010080210100D2
S214002870E84B1A685B68E84C22606360E74B1868B0
S214002880E74B1A680F21E74B98470100802040026B
S214002890E54B984723686268D11752184A4042436E
S2140028A0E2608C2292461A00424351466250DA1782
S2140028B09B1853405843A06000269823E6500433E4
S2140028C0E650DA4B1E609023E158D94B1A68013166
S2140028D0D848D94FB8470020D84B98472061E368BE
S2140028E09846D74B9B4640469847D64DD649A8476C
S2140028F00790A36899461800D847D349A847434687
S214002900DB1707252B404344DB100893CF4A93463A
S2140029109047049005914A460392D3172B404B44A8
S214002920DB1002930798D847009001914246089919
S214002930C748B8475346E158CA172A405218D2101B
S214002940C448B8470122A123E254C348B847942399
S214002950E6502000143078220021C04B9847E268E9
S214002960A3689A421FD00121A223AB4AD154AA4D94
S2140029708C262B69AA59944663441C006B61180088
S214002980AF4B9847B049AF4B9847B04B98470200BB
S2140029900B0000940021B248A74CA047AB59002B6F
S2140029A04BDB012467E0AF4B98470020A34B9847CA
S2140029B0A34F0790B847A34DA349A8470890964E43
S2140029C0B4682000B847A049A847051C9F4F089840
S2140029D0B847089009910494281CB84702900391C0
S2140029E0079B0093089A099B00219F48924CA0479A
S2140029F00022A223F254BAE7874BE21C92009A18F0
S214002A005568DA68AD1A221D92009B185D60280092
S214002A108B4B98478C498B4B98478C4B98470200BA
S214002A200B00009521009148834DA84701341D2CCA
S214002A30E2DD8F488F4B984722E00124F7E7764B7C
S214002A40E21C92009A185568DA6894466544221D7E
S214002A5092009B185D602800794B98477A49794B1D
S214002A6098477A4B984702000B00009521007F4854
S214002A70714DA84701341D2CE1DD7F487D4B9847FA
S214002A80654990228B5801338B50FFF706FB7B4835
S214002A90784B9847FFF701FB0DA8794B9847C02362
S214002AA0DB05802252009C5820328221C9058858B6
S214002AB0103A9B5843401C4044400DA8714B984721
S214002AC0802040030440601E8441E0B26E4B98476D
S214002AD00B23642203210D206C4CA047FFF7DDFA80
S214002AE06B4D00262E706B486B4B984700210020DC
S214002AF06A4FB8470020514B984701000020684BAA
S214002B00984703210020B847AE60FFF7F4FA654BFC
S214002B109847654B18603F4B1D785B78013B5942E0
S214002B2059415B4AD1700EA8554B9847C023DB0528
S214002B30802252009C5820328221C9058A5888215A
S214002B4049005B5853401C4054400EA84D4B9847D4
S214002B50E30203D44E4BDB78002B25D00FA8484B5E
S214002B609847C023DB05802252009C5820328221E1
S214002B70C9058A58882149005B5853401C40544078
S214002B800FA8404B9847630303D4414BDB78002BD8
S214002B900AD13F4BDA78002A00D1CBE00A2D0BD8B9
S214002BA0AB004249CB589F464148324B9847FFF707
S214002BB07AFA0021364B596029003E481E4B98474A
S214002BC0FFF76BFA3C4B1B78002B03D00B233049E6
S214002BD04B60F1E70123FAE7374B1B78002B03D055
S214002BE00C232B494B60E7E70223FAE7324B1B78AE
S214002BF0002B03D00D2326494B60DDE70323FAE7BD
S214002C002D4B1B78002B03D00E2321494B60D3E7B6
S214002C100423FAE7000800206004002000000020DB
S214002C20040000209571000063920000A4070020B5
S214002C30600800209021010005CB0000D1B90000FB
S214002C4031FA000099F0000085422146AD160100D9
S214002C50E8210100502201007C22010013C200007E
S214002C60DC220100096400008C220100042301001C
S214002C702C23010021CC00004C2301006823010016
S214002C80317E00003F7E000001380000053700005E
S214002C903C080020200900200D840000E1B9000057
S214002CA055B90000193800006808002024190100F2
S214002CB0941B0100D81E010032050020BA4B1B7879
S214002CC0002B03D00F23B9494B6075E70523FAE7BD
S214002CD0B54B1B78002B03D01023B4494B606BE731
S214002CE00623FAE7B04B1B78002B03D01123AF491D
S214002CF04B6061E70723FAE7AB4B1B78002B03D04A
S214002D001223AA494B6057E70823FAE7A64B1B781D
S214002D10002B03D01323A5494B604DE70923FAE7A0
S214002D20A14B1B78002B03D01423A0494B6043E72C
S214002D300A23FAE70A2D00D93EE7AB009C49CB5898
S214002D409F460021994B596036E7974B1B78002B1E
S214002D5003D0012395494B602EE70B23FAE7924BED
S214002D601B78002B03D0022390494B6024E70C23EA
S214002D70FAE78D4B1B78002B03D003238B494B605F
S214002D801AE70D23FAE7884B1B78002B03D00423A1
S214002D9086494B6010E70E23FAE7834B1B78002B1F
S214002DA003D0052381494B6006E70F23FAE77E4BE5
S214002DB01B78002B03D006237C494B60FCE61023CF
S214002DC0FAE7794B1B78002B03D0072377494B6033
S214002DD0F2E61123FAE7744B1B78002B03D0082386
S214002DE072494B60E8E61223FAE76F4B1B78002B1C
S214002DF003D009236D494B60DEE61323FAE76A4BDE
S214002E001B78002B03D00A2368494B60D4E61423B2
S214002E10FAE7684B1C69002C00D1DC682000664B82
S214002E20984721006548664B98472000654B9847B1
S214002E306549664B9847664B984702000B0000941E
S214002E40644865498847FFF728F9644B98470400AB
S214002E505C4B9847051C6249624B9847624B984703
S214002E60544EB062544B9847B16A6048544B9847EA
S214002E705549281C554B9847554B984702000B0060
S214002E8000945B4854498847FFF707F9594B1B786D
S214002E90803BDAB2142A01D9FFF705F99300564AA7
S214002EA0D3589F464D4B98470400544B1978020060
S214002EB00020534B984720003F4B9847210051482D
S214002EC03F4B9847FFF7EFF84C4B197800204E4BD6
S214002ED098470400384B984721004C48384B984791
S214002EE0FFF7E1F8454B197880225200484B1A60EC
S214002EF0484B1A68484C2068484B9847236898689F
S214002F002D4B984723689968454D2800454B9847B0
S214002F10454B1871236899682800294B9847226802
S214002F201178537892680292019200930A003F4803
S214002F30294CA047FFF7B7F8304B1C783C4B1D7860
S214002F40264B98470B902A000BA92000394B984730
S214002F500B98194B9847384E0B993000314B9847D1
S214002F60314B18710B993000154B98470B9B029309
S214002F70019300952B00220021003048164CA047F4
S214002F80FFF791F81D4B1C78144B98470300214A15
S214002F901268214908682100294CA04729482A4B75
S214002FA09847FFF780F8C046320500203C0800200E
S214002FB050190100080800200138000006C8061A4B
S214002FC09932000031FA00008542214699F000004F
S214002FD0AD1601008C23010005CB00001938000057
S214002FE08542A146B9F60000F1F9000005C8061AA8
S214002FF0F02301005C0800207C190100A5050020D4
S214003000E5B7000092C8061A39B7000094C8061A39
S21400301088070020040000200000002095710000B2
S21400302084C8061A99370000B80700201824010043
S214003030300500202D6E000082C8061A702401009C
S214003040C5700000CC24010021CC000010B5074C50
S214003050074B1A68230004C3064A03CA03C3064B79
S2140030609847E060054B984710BDC046A40800206E
S214003070D807002000080020193800003944000056
S214003080F0B5CE46474680B587B004000D00544BD9
S2140030909847544B1A78052A24D89300524AD35896
S2140030A09F46524B18785E789F78DA7894461B795C
S2140030B098464F4B1B7899464E4A12784E490978E7
S2140030C043460593634604930397029601904B4844
S2140030D0007800904B464A484A4EB04729002000E8
S2140030E0494B984707B00CBC90469946F0BD3F4BFD
S2140030F018785E789F78DA7894461B7998463C4B29
S2140031001B7899463B4A12783B4909784346059313
S214003110634604930397029601903848007800901F
S2140031204B463A48374EB04729002000384B984760
S214003130D8E72E4B18785E789F78DA7894461B7915
S21400314098462B4B1B7899462A4A12782A490978C2
S21400315043460593634604930397029601902748D7
S214003160007800904B462B48264EB047290020009A
S214003170294B9847B6E71D4B18785C789D78DE7823
S2140031801F791B4B1B781B4A12781B490978059739
S21400319004960395029401901848007800901F4802
S2140031A0184CA0471E4B98479CE7104B18785C7845
S2140031B09D78DE781F790E4B1B780E4A12780E49E2
S2140031C00978059704960395029401900B480078B9
S2140031D0009014480B4CA047114B984782E7C04616
S2140031E0D9020000A4050020D01901000008002024
S2140031F0A50500205C0800203004002030050020D3
S214003200E424010005CB0000510300001425010052
S214003210A9100000442501000120000074250100CB
S2140032204D300000AC25010070B5114B1B78002B0B
S21400323000D170BD013B0E4A13700E4D00220023D4
S2140032402A606B600C4C002323600C4A13700C4AF7
S21400325013700C4A13700C4A13702A0021000B4896
S2140032600B4B9847296820680A4B9847E1E7C04609
S2140032705404002000080020D80700203004002056
S2140032805C080020A505002030050020F40800207A
S2140032907D0200008130000010B582B00100064BB0
S2140032A05C681B6800930194082301220348044CC1
S2140032B0A04702B010BDC046B8070020F4080020A2
S2140032C0450200007047000010B5044C0022044B75
S2140032D0A0470022034BA04710BDC046E5090100E9
S2140032E000004E400000F03EF0B587B000220121FD
S2140032F000201F4B98471F4B1B78012B2FD0002B0D
S21400330029D0022B2FD001201B4B98471B4B196846
S2140033101B4D28681B4B98471B4C207128680021C2
S2140033201A4B984720786578A678E478184B1F796A
S214003330184B1B78184A1278184909780597049490
S2140033400396029501901648007800901548164C92
S214003350A04707B0F0BD154A094B1A60D3E7144AD8
S214003360074B1A60CFE7134A054B1A60CBE7C046F7
S214003370E5B70000A405002001380000C0070020C3
S214003380D807002099370000B807002099320000BF
S21400339000080020A50500205C080020300400205E
S2140033A030050020201B010005CB00008AC802164D
S2140033B08AC804188AC8061AF0B587B0264B1B7848
S2140033C0012B35D0002B2FD0022B35D0234B9B78EA
S2140033D0002B35D10020224B9847224B1968224BF0
S2140033E01868224B9847224B18711F4B186801210A
S2140033F0204B98471E4B18785C789D78DE781E4BDD
S2140034001F791E4B1B781E4A12781E4909780597AD
S21400341004960395029401901B48007800901B4880
S2140034201B4CA04707B0F0BD1A4A0F4B1A60CDE7F9
S214003430194A0D4B1A60C9E7184A0B4B1A60C5E7C4
S2140034400320074B9847074B1968074B1868074B2C
S2140034509847074B1871C8E7A40500200808002005
S21400346001380000C0070020D80700209937000068
S214003470B80700209932000000080020A5050020AB
S2140034805C0800203004002030050020201B0100CE
S21400349005CB00008AC802168AC804188AC8061A0D
S2140034A0F0B587B0274B1B78012B42D0002B3CD0C1
S2140034B0022B42D00120244B9847244E244D3168DD
S2140034C02868244B9847244C207131682868234B81
S2140034D0984720786578A678E478214B1F79214BA9
S2140034E01B78214A12782149097805970494039697
S2140034F0029501901E48007800901E481E4CA0477A
S21400350000201E4B984705001D4B98471D491E4B33
S21400351098471E4B984702000B0029001C48A047FE
S21400352000221C4B1A7007B0F0BD1B4A084B1A60ED
S214003530C0E71A4A064B1A60BCE7194A044B1A60E1
S214003540B8E7C046A405002001380000C0070020E8
S214003550D807002099370000B807002099320000ED
S21400356000080020A50500205C080020300400208C
S21400357030050020201B010005CB0000D1B900005B
S21400358031FA00008542214699F00000AD16010090
S214003590E4250100C80700208A0003168A000518E3
S2140035A08A00071AF0B587B0434B1B78012B28D04A
S2140035B0002B22D0022B28D0404B9B78002B28D003
S2140035C03F4B00221A705A709A700532DA703C4DE2
S2140035D03C4C296820683C4B984728713B4B19683F
S2140035E020683B4B9847344B1B78012B31D0002B7F
S2140035F016D0022B46D007B0F0BD364A314B1A60C3
S214003600DAE7354A2F4B1A60D6E7344A2D4B1A6054
S214003610D2E72B4B00221A705A709A70DA70D6E7EF
S214003620274B18785C789D78DE782D4B1F792D4BCC
S2140036301B782D4A12782D4909780597049603952C
S214003640029401902A48007800902A482A4CA04705
S214003650D1E71B4B18785C789D78DE78204B1F7975
S214003660204B1B78204A1278204909780597049643
S2140036700395029401901E48007800901F481E4C47
S214003680A047B8E70E4B18785C789D78DE78144B28
S2140036901F79144B1B78144A127814490978059739
S2140036A004960395029401901148007800901448FF
S2140036B0114CA0479FE7C046A4050020080800203C
S2140036C0B8070020D807002099370000C007002060
S2140036D0993200000DC802160DC804180DC8061A47
S2140036E000080020A50500205C080020300400200B
S2140036F0300500201C26010005CB00005C260100DA
S2140037009C260100F0B589B017001D000690430600
S21400371007914A0413437A0213432B43144E336033
S214003720144C0022002322606360134B9847134B0F
S214003730984721683068124B98472071114B1968DA
S2140037403068114B984723786278A178E0780F4C60
S21400375024790594049003910292019300953B000E
S214003760079A06990A480B4CA04709B0F0BDC04618
S214003770D8070020B80700201938000001380000DC
S21400378099370000C007002099320000000800208A
S214003790201B010005CB000010B5430E0F21194079
S2140037A0114B1970440CE4B2104B1C70430ADBB288
S2140037B00F4A1370C0B20F4A10700919C9B25B18CD
S2140037C0DBB2C018C0B20C4B1A788018C0B25A7858
S2140037D08018C0B29A788018C0B2DB78C018C0B221
S2140037E0064B187010BDC046300400205C08002050
S2140037F0A505002030050020B80700203105002070
S214003800020E044B1A7002145A7002129A70D87084
S2140038107047C046B8070020054B187800065A784F
S214003820120410439A7812021043DB78184370474C
S21400383000080020044B01229A70E42149005A58DF
S21400384001325A507047C046A80500200122014B9D
S2140038509A7070473C080020024A137801331370B0
S2140038607047C046540400207047000010B504009E
S214003870094B9847094B1860094B186003E0064B44
S2140038809847064B1860054B1B68054A12689B1A3A
S214003890A342F4D310BDC0462DB70000500400204C
S2140038A090070020F0B5D64600B582B0824601915A
S2140038B0002718E0C024E4058026B600E6616B46C3
S2140038C09B8800931800104DA847E6618026F601F5
S2140038D0E6610098A847E66180263602E661009811
S2140038E0A847E66101375745E4D3C023DB058022AD
S2140038F092009A61802212029A618022D2019A6115
S21400390002B004BC9246F0BD0180000070B50949C3
S21400391001248C60084BCB600C740848084DA847FF
S2140039200849FA238B60084BCB600C740748A847FD
S21400393070BDC04680080020353800008C09002085
S214003940498400006C0800204D3800002009002043
S21400395070B50B4C4923FA2252000A4920000A4D42
S214003960A8470A4920000A4B98470A4920000A4BF4
S21400397098470123002200212000084CA04770BD74
S214003980F40800200020004231010000C53200008B
S214003990250200005938000035020000AD02000084
S2140039A010B50B4C0B4920000B4B984720000B4BD7
S2140039B098470B4C0B4A002120000B4B98470B49AD
S2140039C020000B4B984720000A4B984710BDC04676
S2140039D0E8080020340500202D8900000189000039
S2140039E03C090020693800005D870000580400206C
S2140039F02D87000001870000F8B5CE46474680B503
S214003A00002401235B42994600239846002602E0E4
S214003A109846F6180134312C0DDC0F4D02232A008F
S214003A2000210E480E4FB8472B889845F0D399458D
S214003A30EFD99946EDE7322130000A4B984702004D
S214003A404B4641460848094CA0470222084B1A70CC
S214003A500CBC90469946F8BD1C0500201C090020A9
S214003A60817D000099920000DC26010005CB000055
S214003A70A4050020F8B500221A210020204CA047FB
S214003A80802149009423C022D205D1500022FD395E
S214003A900020A04700240025002609E0022100207F
S214003AA0184B984703041B0CF618000C2D1801340D
S214003AB0154B9C42F2DD154FFA2189003000B847BD
S214003AC00400FA2189002800B847050002002100FA
S214003AD00F48104B98472204120C8223DB031A432C
S214003AE02D042D0C1D4309210020054CA0472A005B
S214003AF008210020A04707221A210020A047F8BD71
S214003B00E5B7000039B70000E7030000999200000F
S214003B100C27010005CB0000F8B5CE46474680B519
S214003B20B54EB64D326813212868B54CA047431EE3
S214003B309841B44B1870326816212868A047431E77
S214003B409841B14B1870326811212868A047AF4FD2
S214003B50B865326819212868A047431E984160233B
S214003B60F85432681A212868A047A94FF8623268CC
S214003B7028681B21A047B862A64B1B78012B00D1F2
S214003B806EE0002B06D0022B00D1CFE00CBC904696
S214003B909946F8BD9D4CFA239B002360964F974E9E
S214003BA03A680A213068964DA84760603A68002156
S214003BB03068A847A0603A6801213068A8472061AD
S214003BC03A6802213068A847E0603A680321306806
S214003BD0A847A0613A6804213068A84760613A683F
S214003BE005213068A84720623A6806213068A84751
S214003BF0E0613A6807213068A847A0623A68082161
S214003C003068A84760623A680B213068A847E062CF
S214003C100A21814B984720633A680C213068A847F0
S214003C2060633A680D213068A847A0637B4B9847CD
S214003C307B4B98467B4998477B4B99469847206430
S214003C4061643A6830680E21A847A064774B9847AD
S214003C507449C0477349C047C8472065616595E702
S214003C606A4CFA239B002360634F644E3A680A212D
S214003C703068634DA84760603A6800213068A847FE
S214003C80A0603A6801213068A84720613A6802219E
S214003C903068A847E0603A6803213068A847A0610A
S214003CA03A6804213068A84760613A6805213068A0
S214003CB0A84720623A6806213068A847E0613A685B
S214003CC007213068A847A0623A6808213068A847EC
S214003CD060623A680B213068A847E0620A214E4BC2
S214003CE0984720633A680C213068A84760633A68B2
S214003CF00D213068A847A063484B9847484B984624
S214003D0048499847484B99469847206461643A6802
S214003D1030680E21A847A064444B98474149C047E5
S214003D204049C047C847206561652FE7374C404B80
S214003D302360314F314E3A680A213068304DA8472B
S214003D4060603A6800213068A847A0603A680121A0
S214003D503068A84720613A6802213068A847E060CA
S214003D603A6803213068A847A0613A6804213068A1
S214003D70A84760613A6805213068A84720623A681B
S214003D8006213068A847E0613A6807213068A847EE
S214003D90A0623A6808213068A84760623A680B213A
S214003DA03068A847E0620A211B4B984720633A68B0
S214003DB00C213068A84760633A680D213068A84730
S214003DC0A063164B9847164B984616499847164BCD
S214003DD099469847206461643A6830680E21A8477F
S214003DE0A064124B98470F49C0470E49C047C847C2
S214003DF020656165CAE6C046040000200000002079
S214003E0095710000320500202105002038050020AD
S214003E1008080020A405002063920000D1FA0000E4
S214003E2079F400006F12833AAD16010031FA0000F3
S214003E30DC05000010B50C4B98470C4B98470A2041
S214003E400B4CA0470022012100200A4B9847012076
S214003E50A04700210020084B9847084B9C4660442A
S214003E6043425841C0B210BD559A0000119B000055
S214003E7001800000E5B7000039B70000CFC8C9CB05
S214003E8010B5094B9847094B98470A20084B9847A6
S214003E90084B9847002801D1012010BD0648074B63
S214003EA098470020F9E7C046299B0000E59B0000E4
S214003EB001800000956C00003427010021CC000032
S214003EC070B50120064EB047C024E4058025AD003D
S214003ED09423E5500120B0479823E55070BDC046B6
S214003EE001800000F0B583B03E4B64221A60C83AE9
S214003EF05A60FA2212019A6001223B4B1A70002483
S214003F003A4B1C703A4B1C6000200021394B18605D
S214003F105960394B18605960384B1C60384B1A7022
S214003F20384B1A70384B1C703849394B1960394B6E
S214003F301C705C709A70DC701C715C719C71DC711A
S214003F401A725C72344A1470DC601C615C619C619D
S214003F50DC611C625C629C62DC62304B1C60EC23A1
S214003F605B002F4AD4502F4D002600272E606F602E
S214003F70AC60EC602C61493BFF3BEC5028001430F1
S214003F8078220021284B9847284B1C60A023EC542D
S214003F900233EC54264B5C709C705C60254B1E60B4
S214003FA05F60254B1C6001A8244B9847C023DB05A7
S214003FB0802252009C5820328221C9058A588821C6
S214003FC049005B5853401C40544001A81C4B98477E
S214003FD0E30305D4012252421A4B9A6103B0F0BDA6
S214003FE00122F9E724050020B0070020C9070020B9
S214003FF0500400209807002040040020900700206E
S2140040001E050020A007002020050020A086010035
S214004010A005002008080020A8070020600800204F
S214004020A80500206004002013C20000A40700209A
S2140040303C080020B8070020D8070020317E00008A
S2140040403F7E0000DC070020F0B5CE46474680B530
S21400405083B0404C0122012120003F4B98472000AE
S2140040603E4B9847C023DB058022D2019A6180220E
S21400407092009A61802212029A6180214903982256
S2140040809950903A9A61364B9847364B984700219C
S2140040903548364B9847364B9847364B9847002856
S2140040A050D00822C023DB059A61334B984700287E
S2140040B04CD1C026F6050825B56101A82F4B9946B8
S2140040C098478023F4588223DB059846A02342466F
S2140040D0D258103BF35853401C40544001A8284F78
S2140040E0B84780235B031C40631E9C41E4B26846CD
S2140040F0C84733684246126A366956401E405640E4
S2140041006846B84735406A1E9541EAB221001D4808
S2140041101D4B98471D4B984700201D4B9847002085
S2140041201C4B984700201C4B98471C4B98471C4B31
S21400413098471C4B98471C4B984703B00CBC9046BE
S2140041409946F0BD19481A4B9847F6E71948184B98
S2140041509847AEE7CC080020A182000065820000E8
S214004160A139000075A100001C090020557D000043
S214004170F9390000353E0000813E0000317E000027
S2140041803F7E0000A827010005CB0000193B000079
S2140041909D48000065470000BD460000753A0000D7
S2140041A00D390000513900008154000050270100ED
S2140041B021CC00007C27010070B504008021490056
S2140041C09823C022D205D15000203C4B98473C4D46
S2140041D0A847A0B23B4B98473B4B00221A605A6058
S2140041E09A60A847394B19880020394B9847032214
S2140041F052210020374CA04703210020364B984719
S2140042000020364B984701000020354B9847002287
S21400421063210020A04700210020324B9847324BF4
S2140042201B78012B1FD0002B02D0022B36D070BD7E
S214004230262100202D4DA84701002D482D4CA047D3
S21400424025210020A84701002B48A0472D2100204B
S214004250A84701002948A0472C210020A8470100B4
S2140042602748A047E3E726210020204DA847010065
S2140042702448204CA04725210020A84701002248BA
S214004280A0472D210020A84701002048A0472C2148
S2140042900020A84701001A48A047C8E726210020AA
S2140042A0124DA84701001A48124CA04725210020AD
S2140042B0A84701001748A047B9E7C046DDA400009C
S2140042C0554B000001800000240500203805002022
S2140042D0E9490000E5B70000E1B90000D1B90000E7
S2140042E055B9000015B90000A405002039B7000034
S2140042F0D427010005CB0000042801002C2801006B
S2140043005C28010084280100B4280100DC28010094
S2140043100C2901003C290100014BD8607047C046BB
S2140043209408002010B50100024B18600020024BD4
S214004330984710BD9408002015B9000010B500215C
S21400434000200D4B9847002100200C4B9847002377
S2140043500B4A13700B4A13700B4A1370002000218F
S2140043600A4B186059600A480A4B984700200A4BC7
S21400437098470A4B586010BD15B90000E1B9000017
S2140043801E050020A0070020C807002010050020FA
S2140043908C0900200D840000D1B90000940800208C
S2140043A070B504000D000122164B1A700020164B43
S2140043B09847001BC317C0185840FA235B00984262
S2140043C015DD002D09D0114B1D682000104B9847B5
S2140043D0012229000F4B984770BD0C4B1D6820002A
S2140043E00B4B9847002229000A4B9847F4E7074BE7
S2140043F019680020084B984721000020074B984773
S214004400EAE7C046C8070020D1B90000940800209B
S21400441031FA00004955000015B9000055B90000F2
S21400442010B5034B98600121024B984710BDC0465B
S21400443094080020A143000010B5254B1B6884217A
S21400444049008B420DD00A21FF318B4200D1012258
S214004450002A03D11F4B1B78042B08D0012A02D058
S21400446010BD0022F4E71B4B1B78052BF8D1184B28
S2140044701B79012BF4D1164B5B790D2BF0D89B00E2
S214004480154AD3589F46154B9847E9E7104BD8680E
S214004490134B9847E4E70E4BD8680121114B984719
S2140044A0DEE70B4BD86801210E4B9847D8E7084B40
S2140044B0D86800210B4B9847D2E7054BD8680A4BC3
S2140044C09847CDE7024BD868084B9847C8E7C046E0
S2140044D0A4080020A4050020102C01003D43000085
S2140044E025430000A14300001943000021440000BA
S2140044F010B50CE00278084B9A62074B1B7E5B07F0
S214004500FBD5054B9B6A0B70013101302200541E0F
S214004510E4B2002AEED110BD00100042F0B583B020
S21400452000900E000192C027FF0508247C61012040
S214004530064DA8476B461A7931000098044B9847F9
S2140045400120A847BC61012003B0F0BD0180000037
S214004550F144000010B582B00B2801D902B010BD9E
S21400456001AC402323706070A1708021490358334A
S214004570C022D205D150032269462000044B98473A
S21400458021786278A3780348034CA047E6E7C04644
S2140045901D450000482C010005CB000070B584B016
S2140045A00E000B281ED800291CD003AC4123237014
S2140045B060700023A370802149039833C022D2057F
S2140045C0D15002AD032229002000074B9847A87857
S2140045D03070217862782B786C78019000940348CC
S2140045E0034CA04704B070BD1D450000902C010090
S2140045F005CB000010B50F4C0123237000210020CE
S2140046000D4B9847002100200C4B984700220C4B7E
S2140046101A70A378002B02D10132094B5A70002180
S2140046200020084B98470848084B98470848094B0D
S214004630984710BD0808002015B9000035B90000DD
S2140046403C080020E1B90000542D010021CC0000F8
S2140046508C0900200D84000010B50F4C01236370F8
S214004660002100200D4B9847002100200C4B984756
S21400467000220C4B1A70A378002B02D10132094B92
S2140046805A7000210020084B98470848084B984766
S2140046900848094B984710BD0808002015B90000C7
S2140046A035B900003C080020E1B90000682D010083
S2140046B021CC00008C0900200D84000070B5040099
S2140046C01F4E32005C211F4DA84732005D2120009E
S2140046D0A8471D4EB2685E212000A84732225F21FF
S2140046E02000A847002260212000A847174A612121
S2140046F02000A847164A62212000A847032252211C
S2140047002000A847092250212000A847092251214D
S2140047102000A847328AB18920000E4B9847328B7A
S214004720B18A20000C4B9847328CB18B20000B4B83
S2140047309847328DB18C2000094B984770BDC04613
S214004740FF7F0000E5B7000038050020010000806C
S214004750FFFFFF7F21BA000035BA000049BA00000B
S2140047605DBA000070B505003E4A1B213E4CA047CE
S214004770002217212800A0473C4A18212800A047FD
S2140047803B4A19212800A04707221A212800A047E3
S214004790384A0A210020A047374A04210020A047B3
S2140047A08026B605320005210020A04732000621EB
S2140047B00020A047314A07210020A047304A09219F
S2140047C00020A0472F4A08210020A04700221F21D2
S2140047D02800A047002220212800A04700222121EF
S2140047E02800A047002223212800A04702225221A9
S2140047F02800A047082263212800A047002229217C
S2140048000020A047012252210020A04700221C21A0
S2140048100020A047FA22120124210020A047FA20F7
S2140048208000194B9847194E32005C212800A0479B
S21400483032005D212800A047154B9A685E212800AB
S214004840A047002260212800A047124A61212800C4
S214004850A047114A62212800A04703226D210020AC
S214004860A04770BD32000200E5B700009F0F0000B1
S2140048701919000000010018100010004E014E012A
S21400488097814100C581410001800000FF7F000044
S2140048903805002001000080FFFFFF7F70B5040090
S2140048A000221A214C4DA84700221B212000A847B1
S2140048B0002217212000A847002218212000A84720
S2140048C0002219212000A84700220A212000A8471C
S2140048D0002204212000A847002205212000A84726
S2140048E0002206212000A847002207212000A84712
S2140048F0002209212000A847002208212000A847FE
S21400490000221F212000A847002220212000A847BF
S214004910002221212000A847002223212000A847AA
S214004920002252212000A847002263212000A84729
S214004930002224212000A847002226212000A84784
S214004940002227210020A84700225C212000A8473B
S21400495000225D212000A84700225E212000A847F3
S21400496000225F212000A847002266212000A847D9
S214004970002261212000A847002262212000A847CB
S214004980002252212000A847002250212000A847DC
S214004990002251212000A847002263212000A847BA
S2140049A0002268212000A84700226B212000A8478B
S2140049B0002260212000A847002200212000074B8B
S2140049C09847002200212000054B9847002200212E
S2140049D02000044B984770BDE5B7000001BA000000
S2140049E049BA00005DBA0000F0B583B005000E00BD
S2140049F04F4CA0884F4FB84700230122292101952C
S214004A0028004D4DA8470123002252210198A847AF
S214004A100023012224210198A847330000222421E4
S214004A20019E3000A847002300221C213000A84722
S214004A30FA204000B847414F414E3A680F2130688F
S214004A40404DA847E0653A6830681021A84700281E
S214004A502FD180246401394E394F326811213868CD
S214004A60384DA847324B9865326838681221A847F7
S214004A70002820D180256D01334B1B78012B33D0C5
S214004A80002B1AD0022B46D000222721019C2000A2
S214004A902E4DA847002252212000A847FA204000A9
S214004AA0244B984701222A212000294B984703B01F
S214004AB0F0BD0024CFE70025DEE7220025210020F8
S214004AC0224EB0471A4FFA6D26210198B0472A00A9
S214004AD02C210020B047BA6D2D210020B0470022BF
S214004AE02E210020B047CFE7220025210020174EB8
S214004AF0B0470F4FFA6D26210198B0472A002C21A7
S214004B000020B047BA6D2D210020B04700222E218C
S214004B100020B047B8E7064BDA6D2621019E30002C
S214004B200A4DA847220025213000A847ACE7C0461A
S214004B303805002001800000A1B800000400002015
S214004B400000002095710000A4050020E5B70000D5
S214004B5081B8000070B50822632100200B4CA047E6
S214004B6000221F210020A047094D2A68202100208E
S214004B70A0476A6821210020A047AA6824210020B7
S214004B80A047022252210020A04770BDE5B70000D2
S214004B902405002010B500210020074B984700216F
S214004BA00020064B984700210020054B9847054BF0
S214004BB000225A701A7010BDE1B9000015B9000045
S214004BC035B900003C08002010B500210020074B36
S214004BD0984700210020064B984700210020054BEF
S214004BE09847054B00225A701A7010BDE1B90000B4
S214004BF015B9000035B900003C080020F0B5D646CF
S214004C004F464646C0B588B000200021864B186047
S214004C105960864BDB79002B00D1D1E0834C002510
S214004C20E57100210020824B9847FA20814B984777
S214004C30E5600020804B9847C317C0185840206195
S214004C40E368A361E061002100207C4DA8470021B5
S214004C5000207B4CA04700210020A8470021002010
S214004C60A047032263210020764CA04700222E2175
S214004C700020A047744B1B78022B00D185E0002350
S214004C806A4A9370714A1370714A1370714B1B789D
S214004C90002B00D180E0704B9A46704B99465346E5
S214004CA01A681A214B4618686D4CA0476D4FB847D6
S214004CB06D4E6E49B0476E4DA84704905246126836
S214004CC0494608681B21A047B8476849B047A84727
S214004CD0684B1B78002B62D0049B5C424042614FBD
S214004CE0B8476549654B9847504D614EB047A86236
S214004CF02000B8476049624B9847B047E8624B4B84
S214004D009A461D69574B9946280098475D4F574964
S214004D10B84704905346DE683000C8475349B84742
S214004D200790594C0498A047049005910798A0470F
S214004D30029003910096049A059B29005348544E0E
S214004D40B04753469D6A2800C8474849B84704906C
S214004D505346DB6A98461800C8474449B847071CBC
S214004D600498A04704900591381CA0470290039130
S214004D7043460093049A059B29004648B04708B06E
S214004D801CBC90469946A246F0BD4348434B984704
S214004D900722434B1A7072E7424B98477BE7314F26
S214004DA0B8473549364B9847204D314EB047A86234
S214004DB00498B8473049314B9847B047E8629EE7B9
S214004DC01A4C0123E37100210020194B984700215B
S214004DD000201A4B9847FA20334B9847002323614C
S214004DE0E3601C4B1B78DAB2012A0ED9022BC6D11F
S214004DF0204B1B78002B11D02C490020104B9847D5
S214004E00032100202A4B9847B9E7284900200C4B7D
S214004E10984703210020264B9847B0E725490020F5
S214004E20074B9847ECE7C04610050020080800200E
S214004E3015B9000001800000D1B90000C1B900001A
S214004E4055B90000E5B7000020050020A0070020A7
S214004E501E050020A40500200400002000000020FD
S214004E609571000031FA000079F400008542214671
S214004E70F1F90000320500208542A14675ED0000DC
S214004E80B9F6000099F00000AD160100A42D01004F
S214004E9005CB0000F42D01008C090020D183000012
S214004EA055040020A53500006D380000FFFFFF7F89
S214004EB0E1B9000001000080F0B5D6464F464646F0
S214004EC0C0B588B0002000217D4B186059607D4B2E
S214004ED0DB79002B00D1C8E07B4B1B78002B04D17C
S214004EE07A4B1B78002B00D1A4E0764D0024EC71A1
S214004EF000210020764B9847FA20764B98470020F2
S214004F00754B9847C317C0185840E8602C61AC61D1
S214004F10E86100210020714B984700210020704B6B
S214004F209847AC706F4B1C706F4B1C7000222E2184
S214004F3000206E4B98476E4B1B78022B00D17CE00E
S214004F406C4B9A466C4B994653461A681A214B4648
S214004F5018686A4CA0476A4FB8476A4E6A49B04715
S214004F606A4DA847049052461268494608681B21B5
S214004F70A047B8476449B047A847654B1B78002B45
S214004F8062D0049B5C4240425D4FB8476149624B29
S214004F9098474C4D5D4EB047A8622000B8475D4923
S214004FA05E4B9847B047E862464B9A461D69544B9D
S214004FB09946280098475A4F5349B8470490534695
S214004FC0DE683000C8475049B8470790554C0498EB
S214004FD0A047049005910798A04702900391009679
S214004FE0049A059B29005048504EB04753469D6A88
S214004FF02800C8474449B84704905346DB6A984699
S2140050001800C8474049B847071C0498A0470490B2
S2140050100591381CA0470290039143460093049ADA
S214005020059B29004248B04708B01CBC90469946EC
S214005030A246F0BD3F4B984757E73F483F4B98473F
S21400504007223F4B1A707BE72D4FB8473149334B49
S21400505098471C4D2D4EB047A8620498B8472D4976
S2140050602D4B9847B047E8629EE7164C0123E37144
S21400507000210020164B984700210020174B984728
S214005080FA20304B984700232361E3600E4B1B78D1
S214005090DAB2012A0AD9022BC6D12B490020104BBE
S2140050A0984703210020294B9847BDE72849002050
S2140050B00B4B984703210020244B9847B4E7C04683
S2140050C01005002008080020A4050020A8070020DE
S2140050D015B9000001800000D1B90000C1B9000078
S2140050E055B90000A00700201E050020E5B7000007
S2140050F0200500200400002000000020957100001C
S21400510031FA000079F4000085422146F1F90000EA
S214005110320500208542A14675ED0000B9F6000074
S21400512099F00000AD160100A42D010005CB00008B
S214005130F42D0100A53500008C090020D183000065
S214005140550400206D380000FFFFFF7FE1B9000026
S2140051500100008010B586B0802149009823C02247
S214005160D205D150FD390020614B9847614B1B7822
S214005170002B15D060490020604B98476023604A9A
S214005180D35C002B11D100225E4BDA715E4B1B788C
S214005190DAB2012A25D9022B00D16EE006B010BD86
S2140051A05A490020554B9847E8E700200021584B05
S2140051B018605960002263210020564B9847002152
S2140051C00020554B98474F4B0022DA711A61DA607F
S2140051D049490020494B984703210020444B9847F3
S2140051E0DCE701A84D4B9847C023DB058022520020
S2140051F09A58902252008221C9058A588822520065
S2140052009B5801A8464B98473A4B1B78002B19D061
S21400521002A8424B9847C023DB05802252009C58C8
S21400522020328221C9058A58882149005B5853409C
S2140052301C40544002A83A4B9847E302AED4394B80
S2140052409847ABE703A8354B9847C023DB05802279
S21400525052009C5820328221C9058A58882149006C
S2140052605B5853401C40544003A82D4B9847E3021C
S21400527000D593E72B4B984790E71E4B1B78002BE7
S2140052801AD004A8254B9847C023DB05802252007D
S2140052909C5820328221C9058A58882149005B58CB
S2140052A053401C40544004A81D4B9847630300D548
S2140052B074E71D4B984771E705A8184B9847C0231D
S2140052C0DB05802252009C5820328221C9058A586C
S2140052D0882149005B5853401C40544005A8104B99
S2140052E09847630300D559E70F4B984756E7C046E3
S2140052F0E1B90000320500200100008055B9000029
S2140053003805002008080020A4050020FFFFFF7FC6
S21400531010050020E5B7000015B90000317E00003A
S2140053203F7E0000B94E0000FD4B0000F0B5DE46A3
S21400533057464E464546E0B583B001A8264B9B46E9
S2140053409847C026F6058024640035598223DB057D
S2140053509A4690235B00994653464A469A588823B5
S2140053605B009846F35853401D40554001A81B4F1C
S214005370B84780235B031D406846D84734595346D8
S2140053804A469A584346F35853401C405440684691
S214005390B8478023DB021C40002D10D180229200EB
S2140053A0B261002C11D080221202C023DB055A61A4
S2140053B003B03CBC90469946A246AB46F0BD802260
S2140053C09200C023DB055A61EBE780221202C0235D
S2140053D0DB059A61ECE7C046317E00003F7E0000A8
S2140053E010B51D4B1B78012B02D902221A4B1A70DE
S2140053F01A4B1B78002B06D1184B5B78002B16D166
S214005400174B984710BD154C00232370802292003E
S214005410C023DB055A611348134B9847A378002B2B
S21400542002D0124B9847E7E7114B9847E4E70B4C3E
S2140054300023637080221202C023DB055A610D48E8
S214005440094B9847A378002B02D10B4B9847D7E718
S2140054500A4B9847D4E7C046A40500200808002059
S2140054602D530000542D010021CC0000B94E000041
S214005470954B0000682D0100C94B0000FD4B000055
S21400548010B504495420044CA04704495220A047B4
S21400549010BDC046F5450000998000005946000042
S2140054A070B560231F4AD35C002B2DD10FE0A022DD
S2140054B012061D4B200029001C4CA0471C4B1860F0
S2140054C059601C4B9847010000201B4B9847154B12
S2140054D0D86A1A4B9847164B1C685D6822002B004A
S2140054E0174EB0470028E2D170BD0022154B2000B1
S2140054F029000E4CA0470E4B186059600D4B98477C
S214005500010000200C4B9847064BD86A0B4B984777
S214005510074B1C685D6822002B00094EB047002828
S214005520E3D1E1E7380500209999993F5DFB00003B
S214005530100500205115010015B90000B91501002D
S214005540C5EC00000000D03F70B5051C0C0016002E
S214005550002200231E490A604B601E490A604B6009
S214005560002100201C4B9847002E28D0281C1B4BDF
S2140055709847010000201A4B98471A4B1C601A489F
S2140055801A4B984703210020194B98470022194BC5
S2140055901A700132184B1A70184B9B78002B07D1E3
S2140055A0A333174AD35C002B02D10122154B1A7085
S2140055B01548164B98471648164B984770BD281C3A
S2140055C0064B984701000020134B9847D5E7C04686
S2140055D040040020D007002015B90000F1F90000B3
S2140055E055B9000060080020A805002061B400003E
S2140055F0E1B9000055040020A0070020080800209C
S21400560060040020C8070020200900200D84000048
S2140056108C090020D183000065B90000F0B5DE4695
S21400562057464E464546E0B593B0CF4B9B78002B89
S21400563006D113B03CBC90469946A246AB46F0BD98
S2140056400022C94B9A700020C84B984700280AD001
S2140056500020C74B9847C74B1A78072AE9D893000B
S214005660C54AD3589F460321C44B9847F0E700200D
S214005670BF4B9847BC4DAE69EF69C14CA04732009E
S2140056803B00C04EB047C04B9847C317C0185840A1
S2140056902E6F6F6FA047012432003B00BB4DA8471A
S2140056A0002800D10024E4B2002C41D0012CC0D147
S2140056B0AD4B3133FF3318685968B54B9847B54B37
S2140056C01C685D6822002B00B34EB047002811D03E
S2140056D0B24B1A6D5B6DB24E20002900B047020037
S2140056E00B00AC490A604B60AE4C20686168B0475E
S2140056F020606160AC4CAB4B1A685B6822606360EC
S214005700994BF83318685968A14B98476568246820
S21400571022002B00A04EB047002800D189E72000C9
S2140057202900994B984701000020A04B984780E736
S21400573000208F4B98478C4DAE69EF69904B9A4688
S2140057409847904C32003B00A0478F4B98469847AE
S214005750C217831853402E6F6F6F0B931800D047F5
S21400576032003B00A047EC246400C0472851F822D2
S2140057709246AA44524610685168854A9046904719
S214005780884B186059602A6F6B6F0C920D9300223D
S214005790874B804908684968864EB0470E900F913F
S2140057A02E003136FF3630687168C04706000F009D
S2140057B00020814B98478346514608684968C04791
S2140057C02C590894069007915C4604940296039719
S2140057D00E980F99009001910C9A0D9B0B997748A3
S2140057E0774CA047AA23FF33EA5C002301219142AD
S2140057F05B41DBB2911E4D424D41D01E41424141BC
S214005800C8B22B430AD1002808D1043AD2B2012AE2
S21400581000D90EE70122574B1A700AE70222554BB1
S2140058201A7006E70020524B98474F4DAE69EF6955
S214005830534CA04732003B00524EB047524B98475D
S214005840C317C0185840AE6FEF6FA0470124320050
S2140058503B004E4DA847002800D10024E4B2002C9F
S21400586025D0012C00D0E4E63F4B0133FF33186807
S2140058705968474B98474C4B1A685B68464CA0479C
S214005880002800D1D5E6474C424B1A685B68206872
S2140058906168434DA84720606160434B18605960BB
S2140058A0394B984701000020404B9847C1E600203E
S2140058B02F4B98472C4DAE69EF69314B9A46984767
