:1000000028340020F5530000F1530000F1530000A4
:1000100000000000000000000000000000000000E0
:10002000000000000000000000000000F15300008C
:100030000000000000000000F1530000D19A000011
:10004000F1530000F1530000F1530000F17800007B
:10005000F1530000F1530000F1530000C17600009D
:10006000F1530000F1530000097E0000F15300003D
:10007000F1530000F15300001D7E0000F153000019
:10008000D9720000F1530000F1530000F153000059
:10009000F15300001585000029850000F153000090
:1000A0003D850000F1530000F1530000F1530000C2
:1000B000F1530000F1530000F153000010B5064C5D
:1000C0002378002B07D1054B002B02D0044800E019
:1000D00000BF0123237010BD50020020000000006B
:1000E00098350100084B10B5002B03D0074908488C
:1000F00000E000BF07480368002B00D110BD064B8D
:10010000002BFBD09847F9E70000000054020020C4
:1001100098350100983501000000000010B5024B31
:100120009847024B984710BD355C0000799A000053
:1001300070B504000E001D00FA2189005143090129
:100140003048314B984701380004304B1840304B51
:1001500018432660B36901221343B36123689A6987
:10016000D207FBD59A6902210A439A61294B9E4224
:1001700034D02268936902218B439361226893698A
:1001800001398B43936123689B69DB07FBD4200013
:10019000214B98476B091F2215401E3AAA40C024E4
:1001A000E405DB011E19B2601004000C8021C905B2
:1001B00001438220C005844663449962110CC02526
:1001C0002D0629439962726110238822A3502032A0
:1001D000124981508550143AA35070BD2368D861EC
:1001E0000F4B802252027E315A50BFF34F8FBFF324
:1001F0006F8F0131FF315A501A6023680122DA658E
:10020000B7E7C046006CDC02457400000000FF0147
:10021000030A000600200042496000001000004070
:1002200000E100E010B50A000121014B984710BD24
:10023000E160000010B50A000021014B984710BD95
:10024000E160000010B584B0009100216C4621717E
:1002500006A902912373002A0BD100236373694618
:10026000054B9847054B1860431E9841C0B204B037
:1002700010BD01236373F2E7A9600000AC0B0020FE
:1002800010B584B00C0002926946084B9847009B59
:1002900023606B461B79002B05D0012B01D0002079
:1002A00002E0022000E0012004B010BD71600000F7
:1002B00010B582B000910192002B06D16B4600224E
:1002C0000021054CA04702B010BD6B460122002161
:1002D000014CA047F7E7C04631610000F0B5420E7F
:1002E0000F231340174F3B70430CDBB2164E337095
:1002F000430ADBB2154D2B70C0B2154C2070154A65
:10030000137915490B703B783078C018C0B22B7840
:100310001818C0B223781B18DBB210781B18DBB298
:1003200050781B18DBB290781B18DBB2D2789B1880
:10033000DBB20A4A137008781378C01A4342584156
:10034000C0B2F0BDF8070020400C00207D0900205D
:1003500008090020E00B0020090900202D0C0020D6
:1003600010B50A4C0A4B1A68230004C3094A03CA91
:1003700003C3094B98470200E06021680300074867
:10038000074CA047074B984710BDC046580F0020A8
:10039000B80B0020E00B0020E9050000BCFD0000C8
:1003A000F5B1000019210000F0B5C64600B586B0D1
:1003B0000400424B9847424B1A78052A1FD89300F5
:1003C000404AD3589F46404B1978C9B23F4B1A78E0
:1003D000D2B23F4B1B78DBB298463E4804783E4889
:1003E000057846788778C378007905900493039759
:1003F00002960195009443463848394CA04706B010
:1004000004BC9046F0BD304B1978C9B22F4B1A7816
:10041000D2B22F4B1B78DBB298462E4804782E4878
:10042000057846788778C378007905900493039718
:1004300002960195009443462A48294CA047DEE7DE
:10044000214B1978C9B2214B1A78D2B2204B1B78B4
:10045000DBB298461F4804781F48057846788778AD
:10046000C378007905900493039702960195009450
:1004700043461D481A4CA047C1E717490A784B78F4
:100480008878CD780979029101950090210017486C
:10049000134CA047164B9847B1E70F490A784B78A1
:1004A0008878CD7809790291019500902100114852
:1004B0000B4CA0470E4B9847A1E7C046DD02000059
:1004C0007C090020A4FD0000F8070020400C00205B
:1004D0007D09002008090020E00B0020E8FD000055
:1004E000F5B1000018FE000048FE000078FE000094
:1004F00061030000A8FE000070B5A423104AD35881
:100500005B0603D100220F4B1A7070BD0E4D002206
:1005100000232A606B600D4C002323600C4A13708B
:100520000C4A13700C4A13700C4A13702A002100F5
:100530000B480C4B9847296820680B4B9847E4E719
:100540000020004230080020E00B0020B80B002003
:10055000F8070020400C00207D0900200809002039
:10056000A80F002081020000A903000010B582B08E
:100570000100064B5C681B6800930194062301226E
:100580000348044CA04702B010BDC046980B0020A1
:10059000A80F00204502000010B5074C21706270C2
:1005A0001A0EA2701A14E2701A1222716371034BB0
:1005B0001968034B984710BD980B0020A00B002032
:1005C0006D0500007047000010B5044C0022044B7C
:1005D000A0470022034BA04710BDC046A9EE000073
:1005E00000004E400000F03E054B98780006DA7897
:1005F000120410431A79120210435B7918437047B2
:10060000E00B0020044B01229A70E42149005A5863
:1006100001325A507047C04688090020034B1A68BF
:10062000516F40230B4353677047C04604000020BE
:10063000024A13780133DBB2137070473008002090
:100640007047000070B5041E0BD007290ED801704A
:100650000023C370217807290FD88B00334AD35861
:100660009F4633490020334B984746E032490020EB
:10067000304B9847EEE700236370062908D88B00BB
:100680002E4AD3589F4602236370F6E70223A370D5
:100690000023237163710126A6710225E571A36011
:1006A000E36023616361A361E36123626362A36228
:1006B000E3622363238763637420225CB243AA430B
:1006C0000235AA430435AA430835AA431035AA4384
:1006D0002035AA433F352A402254220074325078F4
:1006E0000125284350705380012919D0062917D0BD
:1006F0007434637820229343637070BD0123A37028
:10070000C6E70323A370C3E70623A370C0E707234C
:10071000A370BDE70D23A370BAE70E23A370B7E75C
:1007200074346378202213436370E6E7D8FE000038
:1007300014FF00000914000038FF0000F8FE00005C
:10074000F0B5D64600B582B082460191002718E088
:10075000C024E4058026B600E6616B469B880093C2
:100760001800104DA847E6618026F601E661009862
:10077000A847E66180263602E6610098A847E66150
:1007800001375745E4D3C023DB05802292009A61EC
:10079000802212029A618022D2019A6102B004BCC6
:1007A0009246F0BD8561000070B5084901248C6057
:1007B000074BCB600C740748074DA84707498C606E
:1007C000074BCB600C740748A84770BD700C002025
:1007D0000506000040100020DD650000480C0020E8
:1007E0001D060000D40F002070B50B4C4923FA22DF
:1007F00052000A4920000A4DA8470A4920000A4B26
:1008000098470A4920000A4B9847012300220021FB
:100810002000084CA04770BDA80F00200020004217
:1008200031010000C505000025020000310600006E
:1008300035020000B102000010B50B4C0B4920003E
:100840000B4B984720000B4B98470B4C0B4A002151
:1008500020000B4B98470B4920000B4B984720007A
:100860000A4B984710BDC0469C0F00200C09002081
:10087000C16A0000956A0000F00F002041060000E8
:10088000F168000034080020C1680000956800008D
:10089000F8B5CE46474680B5002401235B42994611
:1008A00000239846002602E09846F6180134312CC1
:1008B0000DDC0F4D02232A0000210E480E4FB847D1
:1008C0002B889845F0D39945EFD99946EDE7322129
:1008D00030000A4B984702004B4641460848094CF5
:1008E000A0470422084B1A700CBC90469946F8BDEC
:1008F000F4080020D00F0020055F000045740000C0
:100900006CFF0000F5B100007C090020F8B5002262
:100910001A210020204CA047802149009423C022A6
:10092000D205D1500022FD390020A0470024002527
:10093000002609E002210020184B984703041B0CF5
:10094000F618000C2D180134154B9C42F2DD154FA2
:10095000FA2189003000B8470400FA2189002800F4
:10096000B8470500020021000F48104B98472204A9
:10097000120C8223DB031A432D042D0C1D43092185
:100980000020054CA0472A0008210020A04707228C
:100990001A210020A047F8BD999B0000ED9A0000A5
:1009A000E7030000457400009CFF0000F5B1000063
:1009B000F8B5CE46474680B5E64EE74D326813217E
:1009C0002868E64CA047431E9841E54B18703268F2
:1009D00016212868A047431E9841E24B18703268E0
:1009E00011212868A047E04FB865326819212868AE
:1009F000A047431E98416023F85432681A212868A2
:100A0000A047DA4F3863326828681B21A047F86294
:100A1000D74B1B78012B00D171E0002B09D0022BA2
:100A200000D1D2E0042B00D134E10CBC90469946B1
:100A3000F8BDCD4CFA239B002360C64FC64E3A68E2
:100A40000A213068C54DA84760603A6800213068C7
:100A5000A847A0603A6801213068A84720613A6839
:100A600002213068A847E0603A6803213068A8474F
:100A7000A0613A6804213068A84760613A6805219E
:100A80003068A84720623A6806213068A847E061CC
:100A90003A6807213068A847A0623A6808213068A0
:100AA000A84760623A680B213068A847E0620A21D3
:100AB000B04B984720633A680C213068A8476063C0
:100AC0003A680D213068A847A063AB4B9847AB4B01
:100AD0009846AB499847AB4B994698472064616468
:100AE0003A6830680E21A847A064A74B9847A449EC
:100AF000C047A349C047C8472065616595E79A4C40
:100B0000FA239B002360934F934E3A680A21306882
:100B1000924DA84760603A6800213068A847A060FD
:100B20003A6801213068A84720613A68022130689C
:100B3000A847E0603A6803213068A847A0613A6896
:100B400004213068A84760613A6805213068A847E9
:100B500020623A6806213068A847E0613A680721B8
:100B60003068A847A0623A6808213068A8476062E8
:100B70003A680B213068A847E0620A217D4B98470C
:100B800020633A680C213068A84760633A680D21F9
:100B90003068A847A063784B9847784B98467849C7
:100BA0009847784B99469847206461643A68306862
:100BB0000E21A847A064744B98477149C0477049FB
:100BC000C047C847206561652FE7674C6F4B2360BE
:100BD000604F614E3A680A213068604DA8476060F6
:100BE0003A6800213068A847A0603A68012130685F
:100BF000A84720613A6802213068A847E0603A6857
:100C000003213068A847A0613A6804213068A847EA
:100C100060613A6805213068A84720623A68062179
:100C20003068A847E0613A6807213068A847A062A9
:100C30003A6808213068A84760623A680B2130683A
:100C4000A847E0620A214B4B984720633A680C2181
:100C50003068A84760633A680D213068A847A063F0
:100C6000454B9847454B984645499847454B9946CB
:100C70009847206461643A6830680E21A847A064F0
:100C8000414B98473E49C0473D49C047C84720654A
:100C90006165CAE6344C3D4B23602E4F2E4E3A68B8
:100CA0000A2130682D4DA8476060394BA3603A682F
:100CB00001213068A84720613A6802213068A847BE
:100CC000E0603A6803213068A847A0613A680421CF
:100CD0003068A84760613A6805213068A8472062FB
:100CE0003A6806213068A847E0613A680721306811
:100CF000A847A062642363623A680B213068A84762
:100D0000E0620A211B4B984720633A680C21306847
:100D1000A84760633A680D213068A847A063164B66
:100D20009847164B984616499847164B9946984748
:100D3000206461643A6830680E21A847A064124BB1
:100D400098470F49C0470E49C047C84720656165AD
:100D50006BE6C046200000201C0000205953000014
:100D60000A090020FA08002010090020EC0B0020DE
:100D70007C0900200F74000095DF00003DD90000C1
:100D80006F12833A71FB0000F5DE0000DC05000005
:100D9000C409000070B5154B9847154B98470A20B9
:100DA000144CA047002201210020134B984701203A
:100DB000A04700210020114CA04705000021002081
:100DC000A04706000E4BC41863425C41E4B22A00FF
:100DD00029000C480C4B98470C4B9E4201D0200038
:100DE00070BD0B480B4B9847F9E7C046317E0000B9
:100DF000ED7E000085610000999B0000ED9A0000E7
:100E0000CFC8C9CBC4FF0000F5B10000313736347C
:100E1000E0FF0000E9B2000010B50A4B98470A4B0A
:100E200098470A20094B9847094B9847002801D159
:100E3000012010BD0748084B9847084B98470020F1
:100E4000F7E7C046057F0000C17F00008561000014
:100E50005D50000008000100E9B20000352C0000E0
:100E600070B50120064EB047C024E4058025AD00D2
:100E70009423E5500120B0479823E55070BDC0464B
:100E800085610000F0B583B000243E4B1C703E4BE2
:100E900064221A60C83A5A60FA2212019A6001224A
:100EA0003A4B1A703A4B1C703A4B1C6000200021E0
:100EB000394B18605960394B18605960384B1C60C9
:100EC000384B1A70384B1C70384B1C703849394BF2
:100ED0001960394B9C70DC701A715C719C71DC710B
:100EE0001C725C729A72DC72344A14701C615C6110
:100EF0009C61DC611C625C629C62DC621C63304B46
:100F00001C60EC235B002F4AD4502F4D0026002795
:100F10002E606F60AC60EC602C61493BFF3BEC5095
:100F20002800143078220021284B9847284B1C6059
:100F3000A023EC540233EC54264B5C60264B1E601D
:100F40005F60264B1C6001A8254B9847C023DB053A
:100F5000802252009C5820328221C9058A5888215B
:100F600049005B5853401C40544001A81D4B984712
:100F7000E30305D4012252421B4B9A6103B0F0BD3A
:100F80000122F9E730080020FC080020940B002023
:100F9000A90B00202C080020780B00201808002046
:100FA000700B0020F7080020800B0020F9080020BB
:100FB000A086010078090020EC0B00208C0B00209B
:100FC000440C0020880900203808002003A90000F4
:100FD000840B0020240C0020980B0020B80B00206C
:100FE000B55F0000C35F0000BC0B0020F0B5CE462B
:100FF000474680B583B06E4C0122012120006D4B25
:10100000984720006C4B98476C4B9847C023DB05F2
:1010100080214900942299508022D2019A61802235
:1010200092009A61802212029A61802149039822DB
:101030009950903A9A61624B9847624B9847624B3D
:10104000984700216148624B9847624B9847624B32
:101050009847002856D00822C023DB059A615F4BD1
:101060009847002852D1C026F6050825B56101A889
:101070005B4B994698478023F4588223DB059846BA
:10108000A0234246D258103BF35853401C405440D2
:1010900001A8544FB84780235B031C40631E9C414A
:1010A000E4B26846C84733684246126A3669564019
:1010B0001E4056406846B84735406A1E9541EAB220
:1010C00021004948494B9847494B98470020494BD4
:1010D00098470020484B98470020484B9847484B7A
:1010E0009847484B1B78012B35D0002B12D0022B90
:1010F00053D0454B9847454B984703B00CBC90469E
:101100009946F0BD4248434B9847A4E74248414BBB
:101110009847A8E7414F01213868414EB047414DFB
:1011200000212868B047296800203F4B984698471F
:101130003E4C04212068B04721680220C0473C4B48
:101140003A681A602A685A6022689A60394902200F
:10115000394B9847CDE7394D02212868304B9846E6
:10116000984700262B685E70296800202E4FB847EC
:10117000334C03212068C047022322685370216842
:101180000220B8472A4B1E602A685A6022689A607B
:101190002C490220284B9847ABE7254B00221A60C8
:1011A0005A609A6028490220234B9847A1E7C0461D
:1011B000800F002035640000F9630000610E00001C
:1011C000390800005185000039860000D00F00204A
:1011D000D95E000091080000950D0000190E000076
:1011E000B55F0000C35F00007C000100F5B10000A6
:1011F000B10900008132000049310000A130000037
:101200000D090000F6080020A9070000F13C0000CD
:1012100024000100E9B20000500001000400002099
:10122000450600000800002021A400001400002052
:1012300078050020A4000100091400000C00002023
:10124000100000200C0101006401010070B50400D1
:10125000802149009823C022D205D1500020444B60
:101260009847444DA847A0B2434B9847434B0022B0
:101270001A605A609A60A847414B19880020414B78
:1012800098470322522100203F4CA0470321002011
:101290003E4B984700203E4B9847010000203D4BB5
:1012A0009847002263210020A047002100203A4BEC
:1012B00098473A4B1B78012B21D0002B04D0022BEE
:1012C00038D0042B45D070BD26210020344DA847CE
:1012D00001003448344CA04725210020A8470100D4
:1012E0003248A0472D210020A84701003048A047E0
:1012F0002C210020A84701002E48A047E3E7262123
:101300000020274DA84701002B48274CA047252146
:101310000020A84701002948A0472D210020A84708
:1013200001002748A0472C210020A84701002148A0
:10133000A047C8E726210020194DA84701002148F1
:10134000194CA04725210020A84701001E48A047AE
:10135000B9E726210020124DA84701001B48124C76
:10136000A04725210020A84701001948A047AAE767
:10137000918800006535000085610000FC080020B0
:1013800010090020CD330000999B0000859D0000CE
:10139000759D0000F99C0000C99C00007C0900209C
:1013A000ED9A0000D0010100F5B10000000201003B
:1013B000280201005802010080020100B002010071
:1013C000D802010008030100380301006003010096
:1013D000940301000122014B1A70704700000020A5
:1013E00010B5044B186000221A7103325A71024B77
:1013F000984710BD6C020020D51300000122014B5C
:101400001A707047000000200EB4F0B5C64600B553
:1014100083B02C4B5B79834206D203B004BC904668
:10142000F0BC08BC03B018478000274BC358274ABC
:101430008021890023480830254CA047061E13DB75
:101440000AAB01931F480830801980218900891B4D
:10145000099A204CA047002808DB36181E4B9E42F4
:1014600000DD1E00002720E00026E9E70020F4E769
:1014700080239846134C2079184D0835C001281850
:1014800021000831C9194246154B984723681B684B
:101490002079C001281841469847237901225340FA
:1014A000DBB2237147444346F61A002EB5DD0D4BDF
:1014B0001B78002BFBD000220A4B1A70802ED7DC41
:1014C000B046D7E76C0200206C0601007C060100E4
:1014D00069B4000031B50000FF0100006C04002079
:1014E000F1A800000000002010B5064B3F22995CD7
:1014F000C9B20020985440301C5C64083F3820403A
:10150000995410BD0060004110B5014B984710BDC3
:10151000FD13000010B5014B984710BDFD130000EE
:1015200010B50C00002811D0002901D1002010BDF9
:1015300001000020064B984721000020054B9847EA
:1015400000210020044B98470120F0E70020EEE73F
:101550000D7600001D7600007176000010B5174B67
:1015600000213F22995440315A5C022082435A5450
:101570004023124AD35C9B07FAD4114A0F4B5A649A
:101580008022D2000F4B1A800F4900200F4B984742
:101590000122002100200E4CA04701220121002041
:1015A000A0470C4C002120000B4B984723680B4AA6
:1015B0001A6023680A4A5A6010BDC04600600041A4
:1015C00000348000A010002028040043FD750000B6
:1015D000B975000074050020AD76000015150000F7
:1015E0000915000000487047A006010070B50C4CBA
:1015F00023681861196900200A4B98472568002064
:10160000094B9847A861236899690020074B9847C0
:1016100023681A6906490320064B984770BDC046E7
:1016200004000020C99C0000759D0000F99C00008A
:10163000200901000914000070B5094C2568A86252
:101640000020084B9847A861236899690020064B41
:10165000984723689A6A05490320054B984770BD4F
:1016600004000020759D0000F99C00004009010065
:101670000914000010B50200094B18681300591E28
:101680008B41416F1B03074C21400B434367436F62
:10169000DB04DB0F04490320044CA04710BDC04607
:1016A00004000020FFEFFFFF78090100091400008B
:1016B00010B50A00816002490320024B984710BD13
:1016C000AC0901000914000070B5051E0ED02A49AE
:1016D00008202A4B9847041E0ED16A78002A28D188
:1016E000254B1B78DB060DD4200070BD244900205B
:1016F000244B98470024F7E723490020214B9847C3
:101700000024F1E7214903201E4B98472B78022B38
:1017100009D0042B07D0052B05D01D490020194BFB
:1017200098470124E0E71B490020164B9847012405
:10173000DAE7022A04D018490020124B9847D3E771
:101740000D4B1B785B06CFD5144903200D4B9847F2
:101750002B78032B09D0072B07D0052B05D00C497C
:101760000020084B98470124BEE70A490020054B9A
:1017700098470124B8E7C04680090020E12B00000B
:10178000DC09010009140000140A0100480A0100E4
:101790008C0A0100600A0100D00A0100B80A0100A9
:1017A00000B583B06B46D91D00230B700920244B74
:1017B0009847244B1B78042B0DD0052B10D06B467B
:1017C00007331B78DB0622D51F4B02221A700C321E
:1017D0005A7002230DE0852252001C4B1A60EEE77E
:1017E0000C22FF32194B1A60E9E70021164AD15446
:1017F0000133072BF9DD144B1968144B1868144B8F
:10180000984714490320144B984703B000BD0E4B72
:1018100002221A700D325A70022303E000210A4A94
:10182000D1540133072BF9DD074B1968074B1868B2
:10183000074B984709490320074B9847E5E7C046FF
:10184000E12B00007C090020980B0020B80B002041
:101850006D050000000B010009140000240B0100BD
:1018600070B505000020094B984702000404240CC1
:10187000230007490320074EB047A978230012220E
:1018800085204000044CA04770BDC046759D0000F7
:101890004C0B0100091400009905000010B5324BF3
:1018A0001B685A6F120519D4596F10220A435A67E0
:1018B000596F2E4A0A405A675A6F920602D55B6FDB
:1018C000DB0632D4284B1B684C229A5C012A3ED09E
:1018D0001A6927490320274B984710BD596F264A9C
:1018E0000A405A6702210020244B98471E4B1A6871
:1018F000516F10230B435367536F9B0602D5536FF1
:10190000DB060AD4184B1A68516F184B0B4053670B
:101910001B490320174B9847DFE71A481A4B984793
:101920001A490320134B9847ECE71648164B984783
:1019300002210020114B98470B4B1B6819690020AE
:10194000134B9847114903200A4B9847BAE70121E6
:101950006E3299540021053A995204329954596FC4
:10196000054A0A405A67B3E704000020FFF7FFFF6B
:10197000EC0B010009140000FFFDFFFF859D000036
:10198000D40B0100D40F002065650000900B01000E
:10199000D99C000070B504000D0001222A4B1A707A
:1019A00000202A4B9847001BC317C0185840284BEB
:1019B000984224DD002D17D0264B1B681E6920009D
:1019C000254B984701223100244B9847214B1B6837
:1019D0004C229A5C022A24D0002D2ED122002049CC
:1019E0000220204B984770BD1A4B1B681E692000CF
:1019F000194B984700223100184B9847E6E7154BE2
:101A00001B6819690020184B9847002D04D021004D
:101A10000020164B9847D9E721000020144B984727
:101A2000D4E7596F134A0A405A670121702299542A
:101A3000114903200B4B9847CEE722000F490220A3
:101A4000084B9847CFE7C046A80B0020759D0000C3
:101A5000DC05000004000020F5DE00002D3D000044
:101A6000580C010009140000C99C0000F99C0000FA
:101A7000099D0000FFFDFFFF180C01003C0C010058
:101A800010B5074C23685862586A0121054B9847E6
:101A900023685A6A04490320044B984710BDC04686
:101AA0000400002095190000740C010009140000C6
:101AB00010B500210020154B984700210020144B41
:101AC0009847144B1B68596F082291435967596F07
:101AD000102291435967596F20229143596701227F
:101AE0000D4B1A710D4B984760230D4AD35C002BA8
:101AF00004D10C4902200C4B984710BD0022064B24
:101B00001A735120094B9847F3E7C046659D0000C2
:101B1000F99C000004000020EC0B0020A53500001B
:101B200010090020A00C0100091400000963000046
:101B300070B500210020234B984700210020224B44
:101B4000984700210020214B98470024204B1C700F
:101B5000204B1C70204B1C70204D2B68596F10229D
:101B600091435967596F20229143596770229C54C1
:101B7000596F1B4A0A405A676E229C540121013258
:101B80009954053A9C52596F164A0A405A670020E8
:101B90000021154B186059601448154B9847154B98
:101BA0001C60154B1C602C680020144B9847A061EA
:101BB0002B6899690020124B984712490220124B5A
:101BC000984770BDC99C0000D99C0000859D00000D
:101BD000F7080020800B0020A80B00200400002044
:101BE000FFF7FFFFFFFBFFFFE8080020D40F0020F6
:101BF000A165000028080020E80B0020759D00006A
:101C0000F99C0000BC0C010009140000F8B500218B
:101C10000020214FB84700210020204B9847002189
:101C200000201F4EB04700241E4B1C701E4B1C7022
:101C30001E4B1C701E4D2B68596F10229143596723
:101C4000596F20229143596700200021194B1860D9
:101C500059601948194B9847194B1C60194B1C6067
:101C60002C680020184B9847A0612B6899690020C8
:101C7000164B984702210020B84703210020B047A7
:101C80002A68516F80231B010B43536710490220C0
:101C9000104B9847F8BDC046C99C0000D99C000075
:101CA000859D0000F7080020800B0020A80B002075
:101CB00004000020E8080020D40F0020A1650000E7
:101CC00028080020E80B0020759D0000F99C00000A
:101CD000D00C01000914000000280AD00378022B60
:101CE00003D3052B03D9072B01D000207047012017
:101CF000FCE70020FAE7000070B582B004000D0098
:101D00001600002841D0036B83614B4B9847002895
:101D10003DD17422A35C08210B43A354236BA36120
:101D2000FA221201A2600121444A1170002E00D053
:101D300065619D424DDD002E01D1EB186361607835
:101D4000FA22120121003E4B9847A36800932B0012
:101D5000A2693C4903203C4DA8470123E370606918
:101D6000A369984211D0C01AC317C0185840A1687F
:101D7000364B9847FA22920042436264344903206A
:101D8000314B9847334B9847A06402B070BD200098
:101D9000314B98470028BCD0A369AB4203DA2179C4
:101DA000A27991420DD0AB42B3DD2279E3799A4218
:101DB000AFD12A490320244CA04729490320A0473A
:101DC000E3E726490320204CA04726490320A047EB
:101DD000DBE79D422ADA002E01D15B1B636160784C
:101DE000214A2100164B9847A3685B4200932B00C1
:101DF000A26914490320144DA8470123E3706069C8
:101E0000A3699842C1D0C01AC317C0185840A1682E
:101E10000E4B9847FA229200424362640C49032019
:101E2000094B98470B4B9847A064AEE70F49032036
:101E3000054B9847A9E7C046D91C0000DC0B0020E1
:101E4000599E0000AC0D0100091400000F74000041
:101E5000F80D0100E19A0000C9160000E40C010031
:101E60007C0D01004C0D010060F0FFFF180E010019
:101E700030B583B005006B46DC1D002323702100C4
:101E80000920134B98472378DB0610D46878FA2290
:101E9000120129000F4B98477422AB5C02210B43BF
:101EA000AB540D4903200D4B984703B030BD0C498E
:101EB00003200A4B9847852040000A4B18600A4BC4
:101EC00004221A700A325A701968084B9847ECE7D6
:101ED000E12B0000599E0000900E01000914000043
:101EE000580E0100B80B0020980B00206D05000073
:101EF00010B582B004006B46D91D00230B70092079
:101F0000154B98476078002804D16B4607331B783F
:101F10009B060FD480B2114A2100114B98477422BE
:101F2000A35C04210B43A3540E4903200E4B984796
:101F300002B010BD0D4903300B4B9847852040007F
:101F40000B4B18600B4B05221A7009325A70196836
:101F5000094B9847ECE7C046E12B000060F0FFFF1B
:101F6000599E0000F00E010009140000B80E010097
:101F7000B80B0020980B00206D05000070B5041E02
:101F800026D0427835490320354B984722007432D9
:101F9000537840210B4353702000324B9847002860
:101FA0002DD02000304B9847050002002F49032018
:101FB0002B4B9847002D10D02D490320284B9847D4
:101FC000A17800231122852040002A4CA0472CE054
:101FD00029490020224B984727E07422A35C022164
:101FE0000B43A354254903201D4B98476078FA22E0
:101FF00012012100224B98470123E37015E02000D5
:10200000194B9847002811D17422A35C02210B437D
:10201000DBB204218B43A3542200743251787F2316
:102020000B4053702000174B984770BD1649032092
:102030000B4B98477422A35C04210B43DBB20221B3
:102040008B43A35422007432517880235B420B43AC
:10205000537020000D4B9847E7E7C0464C0F010036
:1020600009140000D91C0000C9160000780F0100F7
:10207000980F010099050000180F0100E40F0100FE
:10208000599E0000711E000024100100F11E000086
:1020900010B504004078002222210B4B9847002302
:1020A0000A4A1370E3707422A35C01218B43073149
:1020B0008B4306398B4302318B43A35404490320DD
:1020C000044B984710BDC04615A40000DC0B00204F
:1020D0006010010009140000F8B50400056B0A4BFC
:1020E0009847276BA1782B00122285204000074ECD
:1020F000B0476378002B00D0F8BD3B002A000449AC
:102100000320044CA047F7E7C59E00009905000096
:102110007410010009140000F0B583B0C64B1A68B2
:102120000A23FF339A4269D017D90E23FF339A420C
:1021300000D1ACE023D987235B009A4200D1E2E0D2
:10214000F2339A4200D013E1BC4B1B78012B41D0F3
:10215000BB490320BB4B984757E00823FF339A4203
:1021600000D1FDE03ED8013B9A4200D000E10022C0
:10217000B54B1A70B5490320B24B984745E0013B77
:102180009A4200D0F4E0AD4B1B78002B3DD10022E9
:10219000AD4B1A70AE490320AA4B9847AD4B1B6854
:1021A0005A6FD20631D5A44A1279002A4FD0012A9B
:1021B00068D1596F1F320A435A675A6F9206D20F7D
:1021C0005B6FDB06DB0F13422DD1A34903209D4B30
:1021D00098471AE000229C4B1A70A0490320994BA3
:1021E000984712E0954B1B78002B0ED10022964B9E
:1021F0001A709B490320934B984706E00122924BAB
:102200001A70984903208F4B98478F4B1B78002BEF
:1022100004D1954A1278042A00D1B3E0012B00D1F1
:10222000ABE003B0F0BD0023904A1360904A136006
:102230009048914B9847874C2368196900208F4B31
:1022400098472368196900208D4B9847BDE7596F5F
:102250002022914359675A6F920602D55B6FDB06C5
:1022600007D40023814A1360814A13608148854B5B
:10227000984700210020824B984783490320714BE7
:102280009847C2E7814903206E4B9847BDE701227A
:102290006D4B1A707E4903206A4B98476D4B1B6843
:1022A0005A6FD206B1D5644A1279002A16D0012A93
:1022B00024D1596F1F320A435A675A6F9206D20FC0
:1022C0005B6FDB06DB0F134204D1634903205D4BD8
:1022D00098479AE76748684B9847F6E7596F202276
:1022E000914359676348674B984700210020644B2E
:1022F000984765490320534B984786E76349032075
:10230000504B984781E7584B1B78042B16D0052B70
:1023100000D07AE75F4B1B78032B00D075E71020C5
:10232000FF305D4B18605D4B03221A7019685C4BDF
:1023300098475C490320434B984766E7554A127813
:10234000012AE4D11020FF30534B1860534B1A7010
:102350001968534B9847544903203A4B984754E720
:102360000122394B1A7051490320364B98474CE7EC
:102370004F490320334B984747E73B4B1B78052BCE
:1023800000D04EE72C4B1B790C2B00D949E79B0062
:10239000484AD3589F46284B5B791A2B3DD89B005F
:1023A000454AD3589F46454B98470222264B1A7000
:1023B00037E7434B9847F8E71F4BD868414B98479E
:1023C000F3E70021802040023F4B9847EDE71A4B8E
:1023D000D86801213C4B9847E7E7174BD8680021A4
:1023E000394B9847E1E7144BD868384B9847DCE7FE
:1023F000114BD868364B9847D7E7364B9847D4E708
:10240000144B1868344B9847CFE7344B9847CCE7C8
:10241000094BD868324B9847C7E732490320094B2C
:102420009847C2E7044B5B79122B00D9B4E09B00BC
:102430002D4AD3589F46C046580F0020F60800206A
:10244000D010010009140000540F002008130100EF
:102450005C110100040000208C110100A01001009B
:10246000FC100100381101007C0900202808002020
:10247000E80B0020D40F002065650000C99C000017
:10248000D99C0000A1650000D411010018120100C0
:1024900040120100E00B0020B80B0020980B002038
:1024A0006D050000BC12010074120100341301001C
:1024B00060130100A8060100DC0601009D18000061
:1024C000311B0000ED1500009519000039160000C1
:1024D000811A0000B11A0000611800000D1C0000F4
:1024E000751600007013010048070100D949022049
:1024F000D94FB84788246400022501951B26009611
:102500000C232200D5490220B847D54B1C60D54B7F
:102510000C221A705E709D7019682000D24B98478B
:102520000222D24B1A707CE6D14BD968D14B586845
:10253000D14B9847F4E7CE4BD968CE4B586801226F
:10254000CE4B9847ECE7CA4BD968CA4B5868012272
:10255000CA4B9847E4E7C64BD968C64B5868002277
:10256000C64B9847DCE7C34B5868C54B9847D7E73D
:10257000C04B5868C34B9847D2E7BE4B5868C24B14
:102580009847CDE7BB4B5868C04B9847C8E7B94B55
:102590005868BF4B9847C3E7BE490320AE4B9847E6
:1025A000BEE7B34B5B79122B39D89B00BA4AD3589C
:1025B0009F46B04B9868B94B98470222AB4B1A70B4
:1025C0002FE6AB4BD968AB4B9868AB4B9847F4E719
:1025D000A74BD968A74B98680122A84B9847ECE70E
:1025E000A34BD968A34B98680122A44B9847E4E712
:1025F0009F4BD9689F4B98680022A04B9847DCE717
:102600009C4B9868A04B9847D7E79A4B98689F4B8C
:102610009847D2E7974B98689D4B9847CDE7A049DC
:1026200003208D4B9847C8E7914B5B79032B03D36D
:10263000042B05D9102B03D09A490320864B9847C9
:1026400002228A4B1A70ECE5894B5B79032B03D38A
:10265000042B05D9102B03D0934903207E4B9847B8
:102660000222824B1A70DCE5814B5B79122B39D840
:102670009B008E4AD3589F467E4BD868874B98471D
:1026800002227A4B1A70CCE5794BD968794BD8681D
:10269000794B9847F4E7764BD968764BD868012296
:1026A000764B9847ECE7724BD968724BD868012299
:1026B000724B9847E4E76E4BD9686E4BD86800229E
:1026C0006E4B9847DCE76B4BD8686F4B9847D7E762
:1026D000684BD8686D4B9847D2E7664BD8686C4B0F
:1026E0009847CDE7724903205B4B9847C8E7604B9A
:1026F0005B79122B39D89B006E4AD3589F465D4BAD
:102700001869664B98470222584B1A7089E5584B56
:10271000D968584B1869584B9847F4E7544BD96817
:10272000544B18690122554B9847ECE7504BD96838
:10273000504B18690122514B9847E4E74C4BD9683C
:102740004C4B186900224D4B9847DCE7494B186900
:102750004D4B9847D7E7474B18694C4B9847D2E702
:10276000444B18694A4B9847CDE7534903203A4BED
:102770009847C8E73E4B5B79122B39D89B004F4AEC
:10278000D3589F463B4B5869444B98470222374BDE
:102790001A7046E5364BD968364B5869364B984720
:1027A000F4E7334BD968334B58690122334B9847D0
:1027B000ECE72F4BD9682F4B586901222F4B9847D4
:1027C000E4E72B4BD9682B4B586900222B4B9847D9
:1027D000DCE7284B58692C4B9847D7E7254B5869BD
:1027E0002A4B9847D2E7234B5869294B9847CDE7A6
:1027F00033490320184B9847C8E702221B4B1A7035
:102800000FE51B4B5B79033BDAB2162A00D932E1A4
:1028100093002C4AD3589F46164B1B6801224C212B
:102820005A5423315A54002169329952043299542E
:10283000596F254A0A405A67596F8022D2000A43CD
:102840005A6722490220044B98470222074B1A700C
:10285000E7E4C0469813010009140000C413010006
:10286000B80B0020980B00206D050000540F0020CD
:10287000580F002004000020B1160000F91C0000D1
:10288000711E0000F11E0000A11700007D1F000056
:10289000D9200000041401009407010091200000D9
:1028A0002C1401005C14010088140100E0070100F1
:1028B000B41401002C080100E414010078080100A0
:1028C00014150100C4080100FFFDFFFF44150100BD
:1028D0007F4B1B6800224C215A5422315A54596FA5
:1028E0007C4A0A405A677C4902207C4B9847ACE7F7
:1028F000774B1A687A4B99896823D152D25A92B28F
:1029000078490220754B98479FE7714C2268516FB8
:1029100080231B010B435367734B984722680021A8
:102920004C23D154714902206C4B98478DE7684B7A
:102930001B686B4AD268DA65596F6D4A0A405A675C
:10294000DA6D002A46D15A6FD20438D5DA6D69495A
:102950000220624B98475E4D2C6801234C22A35401
:102960002332A35400226933E2520433E254626FEB
:10297000614B13406367626F8023DB00134363671F
:1029800000205E4B984760652B685B6FDB041CD5AD
:102990005B490220514B98474D4B1B6868229A5A5D
:1029A00092B2002A5AD06822995A89B26822995262
:1029B0009A5A92B253490320484B984745E7DA6D3B
:1029C00051490220454B9847C5E750490220434BE7
:1029D0009847E1E75A6FD2043AD5DA6D4C490220A4
:1029E0003E4B98473A4D2C6802224C23E254626FCA
:1029F0008023DB001343636700226A23E252616F86
:102A00004A3B0B4363676E230021E154616F5E3BD9
:102A10000B43636722660020384B984760652B683C
:102A20005A6F9206B8D55B6FDB06B5D539483A4B7D
:102A3000984702210020394B9847254B1B6819699C
:102A40000020374B984737490320244B9847A3E78A
:102A5000DA6D35490220214B9847C3E70321A5E7EA
:102A60001B4B1B681E4AD2685A665A6E2F490220B9
:102A70001A4B9847E9E62E490220184B9847E4E69E
:102A8000174B5B79182B14D01B2B1BD0172B04D0A2
:102A90000222284B1A70FFF7C4FB114BDC6821009F
:102AA0000020254B98472200244902200B4B9847D1
:102AB000EEE70020114B9847020021490220074B06
:102AC0009847E5E71F490220044B9847E0E7C046D6
:102AD00004000020FFFBFFFF68150100091400003F
:102AE000580F00208C1501000D1C0000AC150100D2
:102AF000FFF7FFFFCC150100FFFDFFFF759D0000F4
:102B00001C1601004C170100F415010050160100BD
:102B100084160100D40F002065650000859D00002B
:102B2000D99C000008170100C816010078170100A1
:102B3000A4170100540F0020659D0000D01701006C
:102B4000E0170100F01701000122014B5A70704795
:102B50008009002010B50CE00278084B9A62074B00
:102B60001B7E5B07FBD5054B9B6A0B700131013067
:102B70002200541EE4B2002AEED110BD0010004223
:102B8000F0B583B000900E000192C027FF05082425
:102B90007C610120064DA8476B461A7931000098E8
:102BA000044B98470120A847BC61002003B0F0BD4A
:102BB00085610000552B000000B583B00B2802D9B9
:102BC000012003B000BD01AB40221A70587099700B
:102BD0003D3A69461800014B9847F2E7812B000007
:102BE000F0B585B00E000B281AD800291AD003AC16
:102BF0004123237060700023A37002AF03223900C9
:102C00002000094B98470500B97831702278637825
:102C1000009106490320064CA047280005B0F0BDEE
:102C20000125FAE70125F8E7812B0000FC170100D8
:102C30000914000010B582B0F02100200C4CA04710
:102C400000210620A04702210520A047F0210120F5
:102C5000A047F0210220A0476B46D91D00230B702E
:102C60000820044B98470448044B984702B010BD15
:102C7000B92B0000E12B000040180100E9B2000070
:102C800070B5C024E4058025ED059823E5500120AA
:102C9000064B98478023DB01E3619423E550044B06
:102CA0001C68044B9847206470BDC04665610000F5
:102CB00004000020E19A000070B582B0884B1C68C7
:102CC000002C18D0A56A636E636F9B0502D5636FF5
:102CD000DB0415D5824B1B685B6FDB0404D5230036
:102CE0006E331B78002B44D023006E331B78002BEF
:102CF00048D102B070BD7B4900207B4B9847F8E774
:102D0000626F7A4B134063670020794B9847060047
:102D100023006F331B78002B07D0714B1B685A6F51
:102D2000120502D45B6FDB0415D56D4B1A68516F29
:102D3000704B0B405367626DB21AD317D2185A40CA
:102D40006D490320684B984766652665012223007C
:102D50006E331A70BEE723006F3300221A7060656D
:102D600020656E3401232370644903205E4B98472D
:102D7000BFE7012223006E331A7000205C4B984796
:102D80002065B1E700205A4B98470600E36D002B01
:102D900031D1236DC31ADA179B1853409D42A8D82E
:102DA000574B984722004C32138C01339BB213844B
:102DB000002223006E331A70494B1B685B6FDB04E3
:102DC0000CD5236D226DB21AD11752184A400092C9
:102DD00032004C490320444CA0478AE7236D226D02
:102DE000B21AD11752184A400092320046490320C5
:102DF0003D4CA0477DE7236DC31ADA179B1853405B
:102E00009D4200D975E7236E01332366E26D93423C
:102E10002ED23B4B9847002223006E331A70304B62
:102E20001B685B6FDB0411D5226EE36D374903200D
:102E30002D4DA847236D226DB21AD11752184A4062
:102E4000009232002F490320A84752E7226EE36D1B
:102E50002F490320244DA847236D226DB21AD117A4
:102E600052184A400092320027490320A84740E701
:102E7000284B9847224B9847194B1B685B6FDB0424
:102E800026D5226EE36D24490320174DA847144B25
:102E90001A68516F214B0B40536722006E3200239A
:102EA00013704C22A35423660D4B1B68596F1C4AA8
:102EB0000A405A67596F802212010A435A67596FB4
:102EC000202291435967596F10229143596710E7A7
:102ED000226EE36D13490320034DA847DDE7C0468A
:102EE000040000205018010009140000FFFDFFFF3E
:102EF000759D0000FFF7FFFFB41801008418010062
:102F0000812C0000DC1801001C1901005C19010073
:102F1000841901000D1C0000AC190100FFEFFFFF38
:102F2000FFFBFFFFEC19010010B50E4B1B685A6F39
:102F3000120513D44C229A5CD2B2012A0CD0022A78
:102F40000DD05A6F920509D59A6D01329A65596F65
:102F5000054A0A405A6701E0044B984710BD034BED
:102F60009847FBE704000020FFFDFFFFB92C00009D
:102F700010B52A4B1B79002B00D110BD3220284BF5
:102F800098475120274B984700210020264B98470F
:102F900000210020254B98470020254B9847010031
:102FA0000020244B984700200021234B18605960D3
:102FB00000210020214B98470023214A1370214A09
:102FC0001370164A1371204B1A78042A06D89300FE
:102FD0001E4AD3589F461E481E4B984785204000E6
:102FE0001D4B18601D4B01221A7010325A7019685F
:102FF0001B4B98471B48174B9847BEE71A48154B81
:103000009847EBE71948134B9847E7E71848114BE7
:103010009847E3E717480F4B9847DFE7EC0B002092
:103020008561000019630000859D0000659D00001A
:10303000759D0000F99C0000E8080020C99C000074
:10304000800B0020F70800207C0900202C1A0100CA
:10305000601A0100E9B20000B80B0020980B0020B4
:103060006D050000481B01008C1A0100B81A010010
:10307000E41A0100101B010070B5074B1C68626F59
:103080008025AD0013002B436367044B9847E06332
:10309000C023DB05DD6170BD04000020E19A000063
:1030A00070B504001F4E32005C211F4DA84732004E
:1030B0005D212000A8471D4EB2685E212000A84770
:1030C00032225F212000A847002260212000A8476B
:1030D000174A61212000A847164A62212000A8470C
:1030E000032252212000A847092250212000A8478E
:1030F000092251212000A847328AB18920000E4BB5
:103100009847328BB18A20000C4B9847328CB18B98
:1031100020000B4B9847328DB18C2000094B98470B
:1031200070BDC046FF7F0000999B00001009002081
:1031300001000080FFFFFF7FC59D0000D99D0000BA
:10314000ED9D0000019E000070B505003E4A1B2168
:103150003E4CA047002217212800A0473C4A1821D6
:103160002800A0473B4A19212800A04707221A211E
:103170002800A047384A0A210020A047374A0421E6
:103180000020A0478026B605320005210020A04778
:10319000320006210020A047314A07210020A04725
:1031A000304A09210020A0472F4A08210020A047CB
:1031B00000221F212800A047002220212800A0472C
:1031C000002221212800A047002223212800A04717
:1031D000022252212800A047082263212800A0478C
:1031E000002229210020A047012252210020A047CF
:1031F00000221C210020A047FA22120124210020D5
:10320000A047FA208000194B9847194E32005C21E4
:103210002800A04732005D212800A047154B9A687E
:103220005E212800A047002260212800A047124A02
:1032300061212800A047114A62212800A0470322EB
:103240006D210020A04770BD32000200999B000054
:103250009F0F000019190000000100181000100055
:103260004E014E0197814100C581410085610000FA
:10327000FF7F00001009002001000080FFFFFF7F9A
:1032800070B5040000221A214C4DA84700221B21D2
:103290002000A847002217212000A847002218215B
:1032A0002000A847002219212000A84700220A2157
:1032B0002000A847002204212000A8470022052161
:1032C0002000A847002206212000A847002207214D
:1032D0002000A847002209212000A8470022082139
:1032E0002000A84700221F212000A84700222021FB
:1032F0002000A847002221212000A84700222321E6
:103300002000A847002252212000A8470022632164
:103310002000A847002224212000A84700222621BF
:103320002000A847002227210020A84700225C2176
:103330002000A84700225D212000A84700225E212E
:103340002000A84700225F212000A8470022662114
:103350002000A847002261212000A8470022622106
:103360002000A847002252212000A8470022502117
:103370002000A847002251212000A84700226321F5
:103380002000A847002268212000A84700226B21C6
:103390002000A847002260212000A8470022002129
:1033A0002000074B9847002200212000054B98473A
:1033B000002200212000044B984770BD999B00001B
:1033C000A59D0000ED9D0000019E0000F0B5C646E1
:1033D00000B582B005000E00594CA088594FB8477F
:1033E00000230122292101952800574DA8470123D8
:1033F000002252210198A84700230122242101988C
:10340000A847330000222421019E3000A847002352
:1034100000221C213000A847FA204000B8474B4F3B
:103420004B4E3A680F2130684A4DA847E0653A682C
:1034300030681021A847002834D180235B019846CA
:10344000424F434E3A6811213068424DA8473C4BE9
:1034500098653A6830681221A847002825D1802550
:103460006D013D4B1B78012B38D0002B1FD0022B58
:103470004BD0042B55D000222721019C2000374D32
:10348000A847002252212000A847FA2040002D4BD7
:10349000984701222A212000314B984702B004BCF2
:1034A0009046F0BD00239846CAE70025D9E742467A
:1034B00025210020294EB047214FFA6D2621019881
:1034C000B0472A002C210020B047BA6D2D210020E2
:1034D000B04700222E210020B047CCE742462521EC
:1034E00000201E4EB047164FFA6D26210198B047B6
:1034F0002A002C210020B047BA6D2D210020B047B2
:1035000000222E210020B047B5E70D4BDA6D2621B1
:10351000019C2000114DA847424625212000A847C4
:10352000A9E70822434613431A00252100200B4D2A
:10353000A847034BDA6D26210198A8479BE7C046B0
:103540001009002085610000559C0000200000202B
:103550001C000020595300007C090020999B0000AA
:10356000359C000070B50822632100200B4CA04759
:1035700000221F210020A047094D2A682021002099
:10358000A0476A6821210020A047AA6824210020C2
:10359000A047022252210020A04770BD999B000045
:1035A000FC08002010B5802149009823C022D205D4
:1035B000D150FD390020174B98476023164AD35C41
:1035C000002B03D10022154B5A7210BD00200021A0
:1035D000134B18605960002263210020114B98475B
:1035E00000210020104CA0470C4B00225A725A6157
:1035F0001A61002100200D4B98470D4900200D4B0A
:103600009847054BD96A0020A04703210020014BB1
:103610009847DAE7859D000010090020EC0B002098
:10362000E8080020999B0000C99C0000659D0000EF
:103630006A040100099D000070B582B00023D04AE1
:1036400053706A46D41DD37121000720CD4B984793
:103650002378002B01D102B070BDCB490320CB4BA6
:103660009847CB4B5C689D687523E25C353B134003
:1036700007D1E278012A04D07422A25C062111420B
:1036800074D0002B6DD0C3490320C04B9847002C49
:1036900000D188E0BA490820BA4B9847BE490320B8
:1036A000BA4B98476378002B00D0BEE1B44B1B782F
:1036B000DB0600D5A7E0B24B1B789B06CBD5637920
:1036C0002371A371B5490320B04DA847607800224B
:1036D0002221B34B9847B3490320A8477423E25AE9
:1036E000B14B1A42B7D07425635D042293436355EE
:1036F0002000AE4B9847607800222221A84B9847C3
:10370000AB490320A14B98470023E3702363636315
:103710002362625D08218A436255A64A137075339D
:10372000E35C5A0600D473E15BB2002B00DA0CE1D3
:10373000A1490220954B98477422A35C04210B43B6
:10374000A35422007432517880235B420B435370A0
:1037500020009A4B9847E269994903208B4B984780
:1037600079E798490320894B984790E77523EA5CED
:10377000353B134007D1EA78012A04D07422AA5CB1
:10378000062111420DD0002B05D08F4903207F4B1D
:1037900098472C007BE78D4903207C4B98472C00F1
:1037A00075E7002473E78A490120784DA847744CD7
:1037B00021000820734B984777490320A8472378B6
:1037C000DB0611D46E4B1B789B0612D46C4B1B7816
:1037D0005B0613D46A4B1B78DB0900D13BE77D49BC
:1037E00003206A4B984736E77B490320674B98478D
:1037F000E8E77A490320654B9847E7E778490320D3
:10380000624B9847E6E763792371A37175490320FA
:103810005E4B98472000744B9847002834D073497A
:1038200000205A4EB0476078002222215C4B984716
:103830005F490320B0477425635D022293436355BB
:1038400020005A4B98470023E3702363636323628D
:10385000210074314A78402082434A70625D082119
:103860008A436255534A1370CA30614B1860A2787C
:10387000604B1A700E225A7019685F4B9847E269C4
:103880004F490320B04716E7607800222221444BBD
:1038900098475A4902203D4B98477423E25A584BA7
:1038A0001A4200D107E77425635D022293436355F2
:1038B00020003E4B9847236BE361635D08229343EE
:1038C000635500233B4A1370E3707533E35C5A067B
:1038D0002ED55BB2002B18DB4A4902202B4B9847B0
:1038E0007422A35C04210B43A35422007432517848
:1038F00080235B420B4353702000434B9847E2699F
:103900002F490320214B9847D5E622007432537883
:1039100040218B43537085204000354B1860A278BE
:10392000344B1A7011225A701968334B9847E6E7E6
:10393000852040002E4B18602E4B04221A700A324C
:103940005A7019682C4B9847D9E7304902200F4B21
:103950009847210074314B78402293431A007F230B
:1039600013404B7085204000214B1860A278214BFA
:103970001A7011225A7019681F4B9847EBE6C0461F
:1039800080090020E12B0000FC1B0100091400004D
:1039900078050020141C0100C81C01008C1E0100C9
:1039A00015A40000A41E010004400000C59E0000F4
:1039B000901D0100DC0B0020EC1E0100711E0000B8
:1039C000BC1D0100301C0100541C0100701C0100D2
:1039D000941C0100381D0100D81C0100F81C0100D6
:1039E000181D0100480A0100D91C0000581D0100E3
:1039F000B80B0020980B00206D050000FC1D010095
:103A000002400000441E0100F11E0000341F0100AE
:103A100085204000A14B1860A14B04221A700A3285
:103A20005A7019689F4B984795E6022B00D012E612
:103A30009D4B1B785B0656D49B4B1B78DB0900D152
:103A400009E663792371A37198490320984DA8472B
:103A5000607800222221974B984797490320A84776
:103A60007423E35C5B0700D4F5E57425635D0422F1
:103A7000934363552000914B9847607800222221A0
:103A80008C4B98478E490320894B98470023E3705D
:103A9000236363632362625D08218A436255894A16
:103AA00013707533E35C5A0600D4E9E05BB2002B77
:103AB00000DACCE0844902207D4B98477422A35C55
:103AC00004210B43A35422007432517880235B42BB
:103AD0000B43537020007D4B9847E2697C490320DB
:103AE000734B9847B7E563792371A3717949032034
:103AF0006F4B98472000784B9847002855D077495E
:103B000000206B4DA84720006C4B9847607800223E
:103B10002221684B98476A490320A8470023E37095
:103B20002363636323627421625C082082436254CE
:103B3000644A13707533E35C5A0629D55BB2002BD7
:103B400013DB674906385A4B98477422A35C04215B
:103B50000B43A35422007432517880235B420B4301
:103B6000537020005F4B984766E722007432537809
:103B700040218B43537085204000484B1860A27849
:103B8000474B1A7011225A701968464B984753E7F1
:103B900085204000414B1860414B04221A700A32C4
:103BA0005A7019683F4B984746E7607800222221F7
:103BB000404B98474C4903203D4B98477423E35CA6
:103BC0009B0700D438E77425635D02229343635555
:103BD00020003A4B9847607800222221354B9847C5
:103BE00037490320324B98470022E270236BE36190
:103BF000635D08218B436355324B1A707523E35C78
:103C00005B0617D522007432537838318B435370DA
:103C100085204000214B1860A278214B1A70112298
:103C20005A7019681F4B9847E26929490320204BB5
:103C3000984701E785204000184B1860184B042274
:103C40001A700A325A701968164B9847ECE72749E0
:103C50000220174B984722007432537840218B433F
:103C60003F310B405370852040000C4B1860A27808
:103C70000B4B1A7011225A7019680A4B98472CE79F
:103C800085204000054B1860054B04221A700A324B
:103C90005A701968034B98471FE7C046B80B0020BD
:103CA000980B00206D05000080090020641F0100B2
:103CB0000914000015A40000A41E0100C59E000008
:103CC000901D0100DC0B0020EC1E0100711E0000A5
:103CD000BC1D0100B80A0100D91C0000581D0100DC
:103CE000441E0100F11E0000FC1D0100341F0100F4
:103CF00010B508495420084CA04708495120A04756
:103D000007493520A04707493720A04706495520D5
:103D1000A04710BD793000001D620000712F000027
:103D2000492B0000159E0000399E000070B5051C4F
:103D30000C001600002200231E490A604B601E4939
:103D40000A604B60002100201C4B9847002E28D0B1
:103D5000281C1B4B9847010000201A4B98471A4B10
:103D60001C601A481A4B984703210020194B9847AA
:103D70000022194B1A700132184B1A70184B1B791C
:103D8000002B07D1A333174AD35C002B02D10122A9
:103D9000154B1A701548164B98471648164B9847FE
:103DA00070BD281C064B984701000020134B984714
:103DB000D5E7C04618080020B00B0020C99C0000C1
:103DC000B5DE0000F99C0000440C002088090020AA
:103DD00015980000859D000031080020800B002010
:103DE000EC0B002038080020A80B0020D40F002086
:103DF000A16500004010002065650000099D0000DD
:103E0000F0B5DE4657464E464546E0B593B0CF4B3B
:103E10009B78002B06D113B03CBC90469946A24635
:103E2000AB46F0BD0022C94B9A700020C84B9847A2
:103E300000280AD00020C74B9847C74B1A78072A9A
:103E4000E9D89300C54AD3589F460321C44B9847ED
:103E5000F0E70020BF4B9847BC4DAE69EF69C14CFD
:103E6000A04732003B00C04EB047C04B9847C31735
:103E7000C01858402E6F6F6FA047012432003B00DE
:103E8000BB4DA847002800D10024E4B2002C41D04B
:103E9000012CC0D1AD4B3133FF3318685968B54B95
:103EA0009847B54B1C685D6822002B00B34EB047A5
:103EB000002811D0B24B1A6D5B6DB24E2000290064
:103EC000B04702000B00AC490A604B60AE4C206862
:103ED0006168B04720606160AC4CAB4B1A685B68AE
:103EE00022606360994BF83318685968A14B984772
:103EF0006568246822002B00A04EB047002800D13E
:103F000089E720002900994B984701000020A04B29
:103F1000984780E700208F4B98478C4DAE69EF693A
:103F2000904B9A469847904C32003B00A0478F4BED
:103F300098469847C217831853402E6F6F6F0B93A4
:103F40001800D04732003B00A047EC246400C04773
:103F50002851F8229246AA44524610685168854A70
:103F600090469047884B186059602A6F6B6F0C928F
:103F70000D930022874B804908684968864EB047F8
:103F80000E900F912E003136FF3630687168C047B1
:103F900006000F000020814B984783465146086871
:103FA0004968C0472C590894069007915C460494D0
:103FB000029603970E980F99009001910C9A0D9B11
:103FC0000B997748774CA047AA23FF33EA5C00237C
:103FD000012191425B41DBB2911E4D424D41D01E09
:103FE00041424141C8B22B430AD1002808D1043ACA
:103FF000D2B2012A00D90EE70122574B1A700AE704
:104000000222554B1A7006E70020524B98474F4D3D
:10401000AE69EF69534CA04732003B00524EB047A7
:10402000524B9847C317C0185840AE6FEF6FA04768
:10403000012432003B004E4DA847002800D1002447
:10404000E4B2002C25D0012C00D0E4E63F4B013334
:10405000FF3318685968474B98474C4B1A685B68A0
:10406000464CA047002800D1D5E6474C424B1A6881
:104070005B6820686168434DA84720606160434BDE
:1040800018605960394B984701000020404B984711
:10409000C1E600202F4B98472C4DAE69EF69314B9C
:1040A0009A469847304C32003B00A0472F4B984629
:1040B0009847C21783185340AE6FEF6F0B931800E9
:1040C000D04732003B00A047EC246400C047285191
:1040D0006A1CFF32924610685168264A9046904703
:1040E000294B18605960AA6FEB6F0C920D93002258
:1040F000284B214908684968274EB0470E900F9118
:104100002E003936FF3630687168C04706000F0050
:104110000020224B98478346514608684968C047AB
:104120002C590894069007915C46049402960397D4
:104130000E980F99009001910C9A0D9B0B991A48BB
:10414000184CA0470222044B1A7064E6880900202C
:10415000959D0000759D000031080020401A010067
:10416000859D00007DFA0000A9F3000015FA00000B
:1041700015D70000C9050000B00B002051D7000082
:104180001009002021E0000018080020780B002012
:10419000C99C000000408F40A9EE0000B99C0000BF
:1041A000A81F0100F5B10000DC1F01000020C14B79
:1041B0009847C14CA669E769C04DA84732003B004B
:1041C000BF4EB047BF4B9847C317C0185840803404
:1041D00026686768A847012432003B00BA4DA8470B
:1041E000002800D10024E4B2002C44D0012C00D0DF
:1041F00011E6B14B4133FF3318685968B34B984708
:10420000B34B1C685D6822002B00B24EB0470028FB
:1042100012D0B14B1A6D5B6D20002900A84CA0474D
:1042200002000B00AA490A604B60AC4C2068616830
:10423000AB4DA84720606160AA4CA84B1A685B6828
:10424000226063609C4B0933FF33186859689F4BA9
:1042500098476568246822002B00A34EB0470028C9
:1042600000D1D8E520002900964B98470100002096
:104270009E4B9847CFE500208E4B98478E4CA66901
:10428000E7698E4B9A4698478D4D32003B00A84710
:104290008C4B9B469847C217831853408022904608
:1042A000A0444246166857680B931800D047320066
:1042B0003B00A847EC235B009946D8474B46E050AB
:1042C000842252009246A2445246106851687F4EA2
:1042D000B047824B186059604246536812680C928E
:1042E0000D937B4F0022824B38687968814DA84737
:1042F0001090119123004133FF3318685968B0477B
:104300000E900F9100207C4B9847804651460868DC
:104310004968B0474B46E6580896069007914646CE
:1043200004960E9D0F9E0295039610981199009089
:1043300001910C9A0D9B0B997048714DA847002272
:1043400000233A607B60AA23FF33E35C5942594162
:104350009A1E5442544121431A1F54425441E2B21E
:10436000002915D1002A13D15A1E54425441D91E96
:104370004A424A412243053B58425841C3B2002AAF
:1043800002D1002B00D146E504225E4B1A7042E5B3
:1043900003225C4B1A703EE50020464B9847464C82
:1043A000A669E769454DA84732003B00444EB04737
:1043B000444B9847C317C01858408834266867682C
:1043C000A847012432003B003F4DA847002800D1F8
:1043D0000024E4B2002C08D0012C00D01BE5002002
:1043E00000213B4B1860596015E50020314B984780
:1043F000314DAE69EF69314B9A469847304C3200E7
:104400003B00A0472F4B9B469847C2178318534049
:1044100088229146A9444A46166857680B931800AB
:10442000D04732003B00A047EC246400D847285115
:10443000882252009346AB445A4610685168234A7A
:1044400090469047254B186059604A465368126859
:104450000C920D930022264B1D4908684968254E91
:10446000B0470E900F912E004936FF3630687168C4
:10447000C04706000F0000201F4B98478146594651
:1044800008684968C0472C590894069007914C4623
:104490000494029603970E980F99009001910C9A3C
:1044A0000D9B0B991848164CA0470422154B1A7007
:1044B000B1E4C046759D0000880900207DFA000027
:1044C000A9F3000015FA000015D70000C905000087
:1044D000B00B002029D70000100900201808002088
:1044E00021E00000780B002051D70000C99C00009B
:1044F00000408F40A9EE0000B99C00001020010090
:10450000F5B1000031080020442001000020CB4B11
:104510009847CB4CA669E769CA4DA84732003B00D3
:10452000C94EB047C94B9847C317C018584090347C
:1045300026686768A847012432003B00C44DA8479D
:10454000002800D10024E4B2002C46D0012C00D079
:1045500061E4BB4B5133FF3318685968BD4B984732
:10456000BD4B1C685D6822002B00BC4EB047002884
:1045700012D0BB4B1A6D5B6D20002900B24CA047D6
:1045800002000B00B4490A604B60B64C20686168B9
:10459000B54DA84720606160B44CB24B1A685B68A7
:1045A00022606360A64B1933FF3318685968A94B22
:1045B00098476568246822002B00A84EB047002861
:1045C00001D1FFF728FC20002900A04B98470100EB
:1045D0000020A74B9847FFF71EFC0020974B9847F9
:1045E000974DAE69EF69974B9A469847964C3200C3
:1045F0003B00A047954B9B469847C21783185340F2
:1046000090229146A9444A46166857680B931800B1
:10461000D04732003B00A047EC246400D847285123
:104620008C2252009346AB445A4610685168894A1E
:10463000904690478B4B186059604A465368126801
:104640000C920D9300228B4B8349086849688A4E6F
:10465000B0470E900F912E005136FF3630687168CA
:10466000C04706000F000020844B984781465946FA
:1046700008684968C0472C590894069007914C4631
:104680000494029603970E980F99009001910C9A4A
:104690000D9B0B997A487B4CA047AA23FF33EA5C19
:1046A0000023012191425B41DBB2911E4D424D41FD
:1046B000D01E41424141C8B22B430CD100280AD13F
:1046C000043AD2B2012A01D9FFF7A5FB05226E4BAD
:1046D0001A70FFF7A0FB06226B4B1A70FFF79BFBCB
:1046E0000020564B9847564CA669E769554DA84798
:1046F00032003B00544EB047544B9847C317C01884
:104700005840983426686768A847012432003B0067
:104710004F4DA847002800D10024E4B2002C28D037
:10472000012C01D0FFF777FB454B2133FF3318688D
:104730005968484B98474D4B1A685B68474CA047EF
:10474000002801D1FFF767FB464C434B1A685B68B2
:1047500020686168444DA84720606160434B186041
:1047600059603A4B984701000020414B9847FFF7AA
:1047700052FB0020314B9847314DAE69EF69314B08
:104780009A469847304C32003B00A0472F4B9B463F
:104790009847C2178318534098229146A9444A4625
:1047A000166857680B931800D04732003B00A047AB
:1047B000EC246400D8472851902252009346AB4421
:1047C0005A4610685168234A90469047254B186016
:1047D00059604A46536812680C920D930022254B8B
:1047E0001D4908684968244EB0470E900F912E006D
:1047F0005936FF3630687168C04706000F00002048
:104800001E4B98478146594608684968C0472C594D
:104810000894069007914C460494029603970E98CC
:104820000F99009001910C9A0D9B0B991748154C0C
:10483000A0470622144B1A70FFF7EDFA759D000091
:10484000880900207DFA0000A9F3000015FA000095
:1048500015D70000C9050000B00B002029D70000C3
:10486000100900201808002021E00000780B00202B
:10487000C99C000000408F40A9EE0000B99C0000D8
:1048800078200100F5B1000031080020AC200100C3
:104890000020AE4B9847AE4DAE69EF69AD4CA047D6
:1048A00032003B00AC4EB047AC4B9847C317C01822
:1048B0005840AE6DEF6DA047012432003B00A84D7B
:1048C000A847002800D10024E4B2002C34D0012CE9
:1048D00001D0FFF7A0FAA34B1B78002B25D0A24BE9
:1048E000186859680022A14BA14CA047002801D1AB
:1048F000FFF791FA9F4B186D596D9F4C9F4D2268A1
:104900006368A847206061609D4C22686368A8477F
:1049100020606160944B18605960904B984701008B
:104920000020984B9847FFF776FA9748974B98479F
:1049300001228C4B1A70D2E70020844B9847844D9B
:10494000AE69EF69834B9A469847834B994632008C
:104950003B00C847814CA047C21783185340A02290
:104960009046A8444246166857680B931800D047F3
:1049700032003B00C847EC277F00A047E851942253
:1049800052009346AB445A4610685168804CA04789
:104990007B4B186059604246536812680C920D9325
:1049A00000227C4B7449086849687B4EB0471090E0
:1049B00011912E006136FF3630687168A0470E9065
:1049C0000F910020754B984706005B4618685968A0
:1049D000A047EC5908940690079104960E990F9AF7
:1049E0000291039210981199009001910C9A0D9BDD
:1049F0000B996B486B4CA0470023EB516A4B1B781B
:104A0000013BDBB2012B07D96848694B98476748DF
:104A1000674B9847FFF7FFF90722664B1A70F6E7D6
:104A2000614B1B78012B17D0022B01D0FFF7F3F954
:104A30000020614B98474F4B5C6B604B1C60604B98
:104A40001B78012B41D0002B1FD0022B5DD00122FF
:104A5000554B1A70FFF7DFF90020574B9847454B2D
:104A6000596B564B1960574B1B78002B08D001220D
:104A70005548564B984702224B4B1A70FFF7CBF91B
:104A800001225348514B9847F5E74E4B1B78002BBA
:104A90000FD0504B186A504DA8475049504B98477B
:104AA000504B98474042A84701222100474B984766
:104AB000CDE7484B186A484B98474849484B9847B8
:104AC00000222100414B9847C1E73E4B1B78002B49
:104AD0000FD0404B186A404DA8474349404B984778
:104AE000404B98474042A84701222100374B984746
:104AF000ADE7384B186A384B98473B49384B9847D5
:104B000000222100314B9847A1E72E4B1B78002B48
:104B10000FD0304B186A304DA8473049304B98477A
:104B2000304B98474042A84701222100274B984725
:104B30008DE7284B186A284B98472849284B9847F7
:104B400000222100214B984781E7C046759D000057
:104B5000880900207DFA0000A9F3000015FA000082
:104B600015D7000084050020780B002000002440A9
:104B70003DD7000010090020B00B002021E000000C
:104B800018080020C99C0000E0200100E9B20000E4
:104B9000C905000000408F40A9EE0000B99C00004C
:104BA000E8200100F5B10000F908002040100020C5
:104BB000A16500003108002085610000440C002040
:104BC0007C0900200A090020004021C62D3D00007C
:104BD00085422146EC0B0020F5DE00002693494774
:104BE0007DDB0000B5DE00002693C94710B5364BCB
:104BF0001B684C229A5C022A10D00020334B984745
:104C0000C317C0185840182803DC314A1368013311
:104C100013602F4B1B68312B0BD810BD6E329B5C81
:104C2000002BEAD02B4B98472B4B1B78002BE4D161
:104C3000F3E70024264B1C600020244B9847274BA9
:104C40001860254B1C70264B1C70264B1C70A12332
:104C5000254AD4541C4B1B684C229A5C022A16D05D
:104C600085204000214B1860214B01221A70103220
:104C70005A7019681F4B98471F48204B9847204B84
:104C80001B78022B15D01F481F4B9847C5E76E3283
:104C90009A5C002AE4D0002270215A5424395A54D4
:104CA000596F1A4A0A405A6719490320194B984705
:104CB000D6E70422184B1A701248184B9847012265
:104CC000074B1A70A9E7C04604000020459D00006C
:104CD0003C0C0020292F0000A80B0020E408002035
:104CE000800B0020F708002038080020B80B0020B7
:104CF000980B00206D05000054210100E9B200006E
:104D0000F908002040100020A1650000FFFBFFFF14
:104D10001C21010009140000940B002065650000AF
:104D2000F0B5CE46474680B583B0574A1378022186
:104D30008B431370554B1B68002B5BD00020544BEA
:104D400098470600514B1B681C690020514B98473F
:104D500005000020504B9847022803D00221002074
:104D60004E4B98474E4B9847484B1B685A6F52051D
:104D700002D55B6FDB0442D5444B1B689A6A002A5C
:104D800012D0484A5278002A0ED05A6F52050BD4DE
:104D9000444A5268521BD11752184A40996A8A42B3
:104DA00002D35B6FDB042DD43E4B5B78002B41D0EC
:104DB000A64250DD20003C4B98473A4B9C68211C92
:104DC0003A4B984700280DD0394B1E6C5F6C201C65
:104DD000384B984732003B00374CA047374B984739
:104DE000304B98602F4B9868354B98470100002056
:104DF000344B984703B00CBC90469946F0BD324BFB
:104E00009847B9E7314B9847314B1A6801321A601D
:104E1000244B99465B685B1B1C490968896AD81753
:104E20001B18434000912B4903202B4FB8474B469A
:104E30005D60B9E71B4D30001B4B9847A860002010
:104E4000144B98476860FA2189000020234B98474B
:104E500001236B70ACE72000134B9847114B9C6803
:104E6000211C1F4B98470028BCD0114B1E6C5F6C57
:104E7000201C104B984732003B001A4CA0470F4BA8
:104E80009847084B9860ADE7240C002004000020F0
:104E9000E99C0000759D0000959D0000859D000027
:104EA000E19A000084050020F5DE000089D70000AB
:104EB0001009002071FB0000A9F3000015FC0000A0
:104EC000B5DE0000D99C0000292F0000812C0000D5
:104ED00028080020B421010009140000C99C00002A
:104EE000B1D7000021E0000010B50CE00278084BBB
:104EF0009A62074B1B7E5B07FBD5054B9B6A0B70C9
:104F0000013101302200541EE4B2002AEED110BD5E
:104F10000004004210B50CE00278084B9A62074B7F
:104F20001B7E5B07FBD5054B9B6A0B700131013083
:104F30002200541EE4B2002AEED110BD001000423F
:104F400070B5C024E40580256D039423E550D2B2EA
:104F5000024B98479823E550012070BD154F000083
:104F600010B582B0040001A805230370002343702C
:104F7000837003220449054B9847002802D0024B56
:104F80005B78237002B010BD90050020414F0000F7
:104F900010B582B06B46DC1D2000044B9847237887
:104FA000DB07F7D4002002B010BDC046614F0000FF
:104FB00000B583B001A80623037001220449054B04
:104FC0009847002802D0002003B000BD0338FBE75B
:104FD00090050020414F000000B583B001A89F2339
:104FE0000370002343708370C37004220649074B8B
:104FF0009847002805D0044A5178054B1972D27899
:105000005A7203B000BDC04690050020414F000019
:105010009006002010B50E4B9847002817D00D4A77
:105020000D4BDA60002203E008330B49CB600132FC
:10503000052A0BD8084B1C7ADB6819798C42F3D10E
:1050400005494C7A59798C42EED100E0002010BD20
:10505000D94F0000C82101009006002000B583B0A0
:10506000044B9847002801D103B000BD01A8024BB2
:105070009847F9E715500000614F000070B582B005
:1050800004000D0016000F4B9847002803D00024A1
:10509000200002B070BD01A803230370230C4370ED
:1050A000230A8370C4702A1D92B20749074B9847A0
:1050B000041EEDD02A00044904313000044B984707
:1050C000E6E7C046914F000090050020414F0000E8
:1050D000F1A80000F0B5DE4657464E46C0B582B096
:1050E00005000F00160021E001A8022303702B0C1D
:1050F00043702B0A8370C5702D193F1BC023DB053D
:10510000994680235B039A4694234A465146D150E0
:1051100004221549154B9B469847E2B212493000CC
:10512000D84798234A465146D1503619002F10D0FF
:105130000F4B9847002813D10E4B9847002811D1E8
:10514000FF242C4080235B001C1BA742CCD23C00D8
:10515000CAE7012002B01CBC91469A46A346F0BDA6
:105160000020F7E70020F5E790050020154F00002C
:10517000914F0000B14F0000F0B583B00C1E5AD023
:10518000002803D1802149002C4B19606B46D8714F
:10519000073369468A71294A10681A000121284B91
:1051A0009847002802D1022003B0F0BD6B46DA799F
:1051B000224D130029682348234EB0472B68581C02
:1051C00028606B469A1D01211D4B9847002801D18C
:1051D0000220E9E76B469E1D9A79184D1300296855
:1051E0001A48194FB8472B68581C2860317822009C
:1051F000134B9847002801D10220D5E76B469D79D3
:105200006B1EDBB2002205E0E15CD80081400A435E
:10521000013BDBB2AB42F7D3084C130021680C48CA
:10522000094DA8476B4606331B78226894466344B1
:1052300023600020B8E70120B6E7C046680B0020D5
:10524000D5500000F8210100F5B100003022010026
:1052500068220100F0B583B006000C00171E69D06B
:10526000002969D000251B2D5FD8354B1868220016
:105270000121344B9847002860D02378B3421CD0DA
:105280002F4B1A68501C1860621C01212D4B984747
:105290002378FF2B2CD06378FF2B29D02848026875
:1052A0009446634401330360A21C0023A370617819
:1052B0000068244B98470135D5E7214D2B683B60AA
:1052C00001233B712B68581C2860621C01211D4E74
:1052D000B0472B6801332B60A71C04220021380043
:1052E000194B9847617828683A00B04700201FE0C2
:1052F0001648174B9847124B1A680223FF339A42FD
:1053000001D0052014E0802252000D4B1A600025C8
:105310000195FC3A01A900200E4CA04701950222FC
:1053200001A90120A047052002E000233B710520D0
:1053300003B0F0BD0120FBE70120F9E70320F7E708
:10534000680B00207D50000003A90000A42201008A
:10535000E9B200007951000070B584B00400080083
:105360001500002C36D0002A36D0802252001B4B6C
:105370001A602A0021001A4B9847002806D1194BC1
:105380001B685E78731EDBB200200FE000232370E1
:105390006370A370E37023716371A36016E0E21879
:1053A0009278D9008A401043013BDBB2B342F6D376
:1053B000A060217863780290019000930A000A4867
:1053C0000A4EB0472B79002B02D1032004B070BDE8
:1053D000A068FBE70120F9E70120F7E7680B002050
:1053E000555200001C00002050230100F5B10000C0
:1053F000FEE7000010B5104A104B9A4209D00F4B3F
:105400000D4A03E011681960043304320C498B42E1
:10541000F8D30C4B02E000221A6004330A4A93428C
:10542000F9D30A4AFF210A4B8B439360094B9847F3
:10543000094B9847FEE7C046983501000000002060
:1054400048020020500200202414002000ED00E05B
:1054500000000000A9A800005186000010B5094A0C
:10546000D1698023DB010B43D3614121FC23064A30
:10547000D150064B9847020005490648064B98470D
:1054800010BDC04600080040001C0040D184000050
:1054900000380042D40F00202165000010B5094AF1
:1054A000D16980235B020B43D361412180235B00E0
:1054B000054AD150054B9847020005490548064B5F
:1054C000984710BD00080040001C0040D184000037
:1054D000004000424010002021650000022182238C
:1054E0005B00C022D205D1508222D20524330B4961
:1054F000D150C0210906D1504221FF31535C012017
:1055000083430343DBB253541139535C0F200340F0
:1055100010200343DBB253547047C04602000040E2
:10552000054AD16980239B020B43D361402182232A
:105530005B00024AD150704700080040001C004048
:1055400010B5064B9847064B9847064B9847020004
:1055500005490648064B984710BDC0462155000036
:10556000DD540000C56E000000440042D00F002052
:10557000A15E0000F0B5DE4657464E464546E0B512
:1055800083B0412188238D4AD1508D4A51698023AF
:10559000DB000B435361C026F60580239B029B462C
:1055A00073608223DB05874D9D62874A9A6251278B
:1055B000DA5D04208243DA55DC5D01218C4301224F
:1055C0001443E4B2DC55193FDC5D0E3291461440C1
:1055D000DC558022D20272609D627C4A9A621A3740
:1055E000DC5D8443DC55DC5D8C4301221443E4B272
:1055F000DC55193FDC5D4A469443DC558024240386
:1056000074609D62724C9C62443290469C5C844300
:105610009C549C5C8C43523A1443E4B242469C54E2
:10562000DC5D4A461440DC55753292468024A40362
:10563000B4506F37DD51674ADA51D52290469C5CF1
:1056400084439C549C5C8C43D43A1443E4B2424659
:105650009C541B3A90469C5C4A46144042469C54DB
:10566000802424045246B450DD515B4CDC512F376A
:10567000DC5D8443DC55DC5D8C43833A1443E4B247
:10568000DC551C3FDC5D4A461440DC55F532904643
:1056900080246402B450942464001D514F4F1F5164
:1056A0004C3292469F5C87439F549F5C8F43503A95
:1056B000FF3A1743FFB252469F54183A9A5C4F463E
:1056C000BA432A37FF37DA5542465F46B7501D5175
:1056D0003D4A1A515222FF3293469A5C82439246C7
:1056E0005A4657469F549A5C8A4301273A436F466D
:1056F000FA71FA7992465A4657469F54193A9A5C7B
:105700004F463A402A37FF37DA5542468027FF0294
:10571000B7501D512D4A1A51A922520092469F5C42
:1057200087439F549F5C8F43523AFF3A1743FFB21F
:1057300052469F543A22FF3292469F5C4A46974314
:1057400052469F5480277F034246B7501D51244F35
:105750001F51503292469F5C87439F549F5C8F43FA
:10576000543AFF3A1743FFB252469F541A3A9346AF
:105770009A5C4F46BA435F46DA5542468027BF03DC
:10578000B7501D51134A1A515624FF341D5D8543ED
:105790001D55185D884301220243D2B21A555A465C
:1057A0009A5C49460A4059465A540E4B984703B0F2
:1057B0003CBC90469946A246AB46F0BD001C00405A
:1057C0000008004000000240020002C0040002C0C5
:1057D000080002C0200002C0800002C0010002C018
:1057E000100002C0E9610000F0B5C64600B5C02255
:1057F000D2051023536193608223DB05244999620B
:10580000C02109068C4699624420195C0127B943DE
:1058100001263143C9B219543221585C0F25A843DF
:105820000324A04644462043C0B25854202050616F
:105830009060184898626046986245208446185CDB
:10584000B8433043C0B264461855585C363C2040DB
:105850003024A44664462043C0B258540E315160EF
:105860000D4A9A620D4A9A624622995C042081434D
:105870009954995CB9433143C9B2995433215A5C64
:10588000AA4340460243D2B25A5404BC9046F0BDEB
:10589000100000402000004040000240000002C014
:1058A000064B4021CC2299500331043A9950044AC6
:1058B000D36941390B43D3617047C046001C004097
:1058C00000080040064B4021D02299500331083A8D
:1058D0009950044AD3693F390B43D3617047C0469E
:1058E000001C00400008004030B58223DB05402248
:1058F000995C0125A94301242143C9B29954302060
:10590000195C313A914303221143C9B21954412120
:105910005A5CAA432243D2B25A541A5C32390A4022
:1059200030210A43D2B21A5430BD000010B582B003
:10593000064B9847002300931033054A0549064853
:10594000064CA047064B984702B010BDC558000052
:10595000A006002000080042F00F0020F9670000B8
:10596000E9580000F0B5C64600B5C024E405802320
:10597000DB0363608223DB05244A9A62244A9A622D
:1059800056215A5C042082435A545A5C033880469C
:105990008243844660460243D2B25A543B27DA5DC2
:1059A00047398A4302210A43D2B2DA5580221204CF
:1059B0006261A2608021C9059962164A9A625720E5
:1059C0001A5C4546AA4365462A43D2B21A54D85DAA
:1059D0000F26304020252843C0B2D855802292049B
:1059E0006261A26099620C4A9A625922995C4046AF
:1059F000814360460143C9B299543C215A5C32400C
:105A00002A43D2B25A5404BC9046F0BD0000024072
:105A1000400002C0800000C0000200C0064B4021D0
:105A2000D82299500331103A9950044AD369333936
:105A30000B43D3617047C046001C00400008004083
:105A4000054B4021E42299504320043A9850034AE0
:105A5000D3690B43D3617047001C0040000800402D
:105A600030B58223DB05D022995C0125A9430124AE
:105A70002143C9B29954B820195CC13A914302221A
:105A80001143C9B21954D1215A5CAA432243D2B25C
:105A90005A541A5CC2390A4020210A43D2B21A541D
:105AA00030BD30B58223DB05A6225200995C01246B
:105AB000A14301200143C9B29954163A995C0F25BC
:105AC000A94302252943C9B299545021FF315A5C98
:105AD000A2430243D2B25A543821FF315A5C0F20FC
