S01D00004754726F6E5F417869735F436F6E74726F6C6C65722E73726563A6
S214000000D02C0020C93A0000C53A0000C53A0000CE
S21400001000000000000000000000000000000000DB
S214000020000000000000000000000000C53A0000CC
S2140000300000000000000000C53A00002D7F000010
S214000040C53A0000C53A0000C53A0000815D0000D0
S214000050C53A0000C53A0000C53A0000C53A00009F
S214000060C53A0000C53A000099620000C53A000093
S214000070C53A0000C53A0000AD620000C53A00006F
S214000080AD590000C53A0000C53A0000C53A000068
S214000090C53A0000A5690000B9690000C53A00002D
S2140000A0CD690000C53A0000C53A0000C53A000018
S2140000B0C53A0000C53A0000C53A000010B5064C27
S2140000C02378002B07D1054B002B02D0044800E014
S2140000D000BF0123237010BD38020020000000007E
S2140000E0A0000100084B10B5002B03D007490848B4
S2140000F000E000BF07480368002B00D110BD064B88
S214000100002BFBD09847F9E7000000003C020020D7
S214000110A0000100A00001000000000010B5024B86
S2140001209847024B984710BD09430000D57E000053
S21400013070B504000E001D00FA2189005143090124
S2140001403048314B984701380004304B1840304B4C
S21400015018432660B36901221343B36123689A6982
S214000160D207FBD59A6902210A439A61294B9E421F
S21400017034D02268936902218B4393612268936985
S21400018001398B43936123689B69DB07FBD420000E
S214000190214B98476B091F2215401E3AAA40C024DF
S2140001A0E405DB011E19B2601004000C8021C905AD
S2140001B001438220C005844663449962110CC02521
S2140001C02D0629439962726110238822A35020329B
S2140001D0124981508550143AA35070BD2368D861E7
S2140001E00F4B802252027E315A50BFF34F8FBFF31F
S2140001F06F8F0131FF315A501A6023680122DA6589
S214000200B7E7C046006CDC02015B00000000FF019F
S214000210030A0006002000421D47000010000040B0
S21400022000E100E010B50A000121014B984710BD1F
S214000230B547000010B50A000021014B984710BDD5
S214000240B547000010B584B0009100216C462171BE
S21400025006A902912373002A08D100236373694616
S214000260044B9847044B186004B010BD0123637319
S214000270F5E7C0467D470000F407002010B584B0BF
S2140002800C0002926946084B9847009B23606B4619
S2140002901B79002B05D0012B01D0002002E00220A4
S2140002A000E0012004B010BD4547000010B582B044
S2140002B000910192002B06D16B4600220021054CCE
S2140002C0A04702B010BD6B4601220021014CA0479A
S2140002D0F7E7C0460548000070B5430E0F241C40E3
S2140002E0144B1C70450CEDB2134B1D70420AD2B273
S2140002F0124B1A70C0B2124B187012490B79124E7C
S21400030033706419E4B21219D2B28018C0B20A78F7
S2140003108018C0B24A788018C0B28A788018C0B2F6
S214000320CA788018C0B2094A1070181A4342584159
S214000330C0B270BD4804002088080020C505002013
S21400034050050020280800205105002075080020D0
S21400035010B5094C094B1A68230004C3084A03CA9F
S21400036003C3084B98470100E06002000648074BAD
S2140003709847074B984710BD8409002000080020C6
S214000380280800207505000098DC0000599400003D
S21400039015170000F0B587B00400394B9847394B65
S2140003A01A78052A1AD89300374AD3589F46374BEF
S2140003B018785C789D78DE781F79354B1B78354A3F
S2140003C012783549097805970496039502940190AA
S2140003D03248007800903248324CA04707B0F0BD53
S2140003E02A4B18785C789D78DE781F79284B1B7826
S2140003F0284A1278284909780597049603950294A6
S21400040001902648007800902748264CA047E5E74C
S2140004101E4B18785C789D78DE781F791C4B1B780D
S2140004201C4A12781C49097805970496039502948D
S21400043001901A48007800901C481A4CA047CDE757
S21400044012490A784B788878CD7809790291019517
S214000450009021001648134CA047164B9847BDE75E
S2140004600A490A784B788878CD78097902910195FF
S2140004700090210010480B4CA0470E4B9847ADE764
S214000480D9020000C405002080DC000028080020F7
S214000490C5050020880800204804002050050020DC
S2140004A0B8DC000059940000E8DC000018DD00000D
S2140004B048DD00005103000078DD000070B50F4AEB
S2140004C01378013B13700E4D002200232A606B60E8
S2140004D00C4C002323600C4A13700C4A13700C4A11
S2140004E013700C4A13702A0021000B480B4B9847D8
S2140004F0296820680A4B984770BDC04678040020DB
S2140005002808002000080020480400208808002052
S214000510C505002050050020D40900207D020000FB
S2140005209503000010B582B00100064B5C681B689E
S21400053000930194062301220348044CA04702B00E
S21400054010BDC046E0070020D40900204502000088
S2140005507047000010B5044C0022044BA047002250
S214000560034BA04710BDC04685CD000000004E409E
S2140005700000F03E054B98780006DA781204104327
S2140005801A79120210435B79184370472808002036
S214000590044B01229A70E42149005A5801325A50FD
S2140005A07047C046D0050020034B196838228B5C84
S2140005B0402003438B54704704000020024A1378FF
S2140005C0013313707047C04678040020704700005F
S2140005D010B500282ED0032930D8017000234360C0
S2140005E08360C360036143618361C36103624362E6
S2140005F08362C362038643633821435C01229343CC
S21400060001329343023293430432934308329343B6
S21400061010329343203293433F3213404354020038
S2140006203832537801210B435370836BDB05DB0DA7
S214000630836310BD0348044B9847FAE70348024B10
S2140006409847F6E7A8DD000075950000CCDD0000B1
S214000650F0B5D64600B582B082460191002718E074
S214000660C024E4058026B600E6616B469B880093AE
S2140006701800104DA847E6618026F601E66100984E
S214000680A847E66180263602E6610098A847E6613C
S21400069001375745E4D3C023DB05802292009A61D8
S2140006A0802212029A618022D2019A6102B004BCB2
S2140006B09246F0BD5948000070B5084901248C6088
S2140006C0074BCB600C740748074DA84707498C605A
S2140006D0074BCB600C740748A84770BDB8080020CD
S2140006E0910500006C0A0020B14C00009008002024
S2140006F0A9050000000A002070B50B4C4923FA2219
S21400070052000A4920000A4DA8470A4920000A4B11
S21400071098470A4920000A4B9847012300220021E7
S2140007202000084CA04770BDD409002000200042DD
S214000730310100005105000025020000BD05000043
S21400074035020000AD02000010B50B4C0B4920002E
S2140007500B4B984720000B4B98470B4C0B4A00213D
S21400076020000B4B98470B4920000B4B9847200066
S2140007700A4B984710BDC046C80900205405002003
S21400078095510000695100001C0A0020CD050000AC
S214000790C54F00007C040020954F0000694F000004
S2140007A0F8B5CE46474680B5002401235B429946FD
S2140007B000239846002602E09846F6180134312CAD
S2140007C00DDC0F4D02232A0000210E480E4FB847BD
S2140007D02B889845F0D39945EFD99946EDE7322115
S2140007E030000A4B984702004B4641460848094CE1
S2140007F0A0470422084B1A700CBC90469946F8BDD8
S2140008003C050020FC090020D9450000015B0000E3
S21400081004DE000059940000C4050020F8B500224C
S2140008201A210020204CA047802149009423C02292
S214000830D205D1500022FD390020A0470024002513
S214000840002609E002210020184B984703041B0CE1
S214000850F618000C2D180134154B9C42F2DD154F8E
S214000860FA2189003000B8470400FA2189002800E0
S214000870B8470500020021000F48104B9847220495
S214000880120C8223DB031A432D042D0C1D43092171
S2140008900020054CA0472A0008210020A047072278
S2140008A01A210020A047F8BDF57F0000497F000010
S2140008B0E7030000015B000034DE000059940000EE
S2140008C0F8B5CE46474680B5E94EEA4D3268132164
S2140008D02868E94CA047431E9841E84B18703268D8
S2140008E016212868A047431E9841E54B18703268C9
S2140008F011212868A047E34FB86532681921286897
S214000900A047431E98416023F85432681A2128688D
S214000910A047DD4F3863326828681B21A047F8627D
S214000920DA4B1B78012B00D171E0002B09D0022B8B
S21400093000D1D2E0042B00D134E10CBC904699469D
S214000940F8BDD04CFA239B002360C94FC94E3A68C5
S2140009500A213068C84DA84760603A6800213068B0
S214000960A847A0603A6801213068A84720613A6825
S21400097002213068A847E0603A6803213068A8473B
S214000980A0613A6804213068A84760613A6805218A
S2140009903068A84720623A6806213068A847E061B8
S2140009A03A6807213068A847A0623A68082130688C
S2140009B0A84760623A680B213068A847E0620A21BF
S2140009C0B34B984720633A680C213068A8476063A9
S2140009D03A680D213068A847A063AE4B9847AE4BE7
S2140009E09846AE499847AE4B99469847206461644E
S2140009F03A6830680E21A847A064AA4B9847A749D2
S214000A00C047A649C047C8472065616595E79D4C25
S214000A10FA239B002360964F964E3A680A21306868
S214000A20954DA84760603A6800213068A847A060E6
S214000A303A6801213068A84720613A680221306888
S214000A40A847E0603A6803213068A847A0613A6882
S214000A5004213068A84760613A6805213068A847D5
S214000A6020623A6806213068A847E0613A680721A4
S214000A703068A847A0623A6808213068A8476062D4
S214000A803A680B213068A847E0620A21804B9847F5
S214000A9020633A680C213068A84760633A680D21E5
S214000AA03068A847A0637B4B98477B4B98467B49AA
S214000AB098477B4B99469847206461643A6830684B
S214000AC00E21A847A064774B98477449C0477349DE
S214000AD0C047C847206561652FE76A4C724B2360A4
S214000AE0634F644E3A680A213068634DA8476060D9
S214000AF03A6800213068A847A0603A68012130684B
S214000B00A84720613A6802213068A847E0603A6842
S214000B1003213068A847A0613A6804213068A847D6
S214000B2060613A6805213068A84720623A68062165
S214000B303068A847E0613A6807213068A847A06295
S214000B403A6808213068A84760623A680B21306826
S214000B50A847E0620A214E4B984720633A680C216A
S214000B603068A84760633A680D213068A847A063DC
S214000B70484B9847484B984648499847484B9946AB
S214000B809847206461643A6830680E21A847A064DC
S214000B90444B98474149C0474049C047C84720652D
S214000BA06165CAE6374CFA239B002360304F314E0E
S214000BB03A680A213068304DA84760603A680021DC
S214000BC03068A847A0603A6801213068A8472061CD
S214000BD03A6802213068A847E0603A680321306826
S214000BE0A847A0613A6804213068A84760613A685F
S214000BF005213068A84720623A6806213068A84771
S214000C00E0613A6807213068A847A0623A68082180
S214000C103068A84760623A680B213068A847E062EF
S214000C200A211B4B984720633A680C213068A84776
S214000C3060633A680D213068A847A063154B984753
S214000C40154B984615499847154B99469847206482
S214000C5061643A6830680E21A847A064114B984733
S214000C600E49C0470D49C047C8472065616564E620
S214000C70100000200C0000202D3A00005205002035
S214000C80410500205805002034080020C405002037
S214000C90CB5A000071BE000019B800006F12833AEC
S214000CA04DDA0000D1BD0000DC05000070B5154B24
S214000CB09847154B98470A20144CA047002201215C
S214000CC00020134B98470120A04700210020114C1C
S214000CD0A047050000210020A04706000E4BC418C0
S214000CE063425C41E4B22A0029000C480C4B98474A
S214000CF00C4B9E4201D0200070BD0B480B4B984712
S214000D00F9E7C046C16200007D6300005948000054
S214000D10F57F0000497F0000CFC8C9CB5CDE00002D
S214000D20599400003137363478DE0000759500009F
S214000D3010B50A4B98470A4B98470A20094B984724
S214000D40094B9847002801D1012010BD0748084BE1
S214000D509847084B98470020F7E7C0469563000081
S214000D60516400005948000031370000A0DE000042
S214000D7075950000491D000070B50120064EB0476D
S214000D80C024E4058025AD009423E5500120B0473B
S214000D909823E55070BDC04659480000F0B583B0B2
S214000DA03D4B64221A60C83A5A60FA2212019A60D1
S214000DB001223A4B1A700024394B1C70394B1C60C8
S214000DC000200021384B18605960384B1860596075
S214000DD0374B1C60374B1A70374B1C70374B1C70E8
S214000DE03749384B1960384B9C70DC701A715C714F
S214000DF09C71DC711C725C729A72DC72334A1470DD
S214000E001C615C619C61DC611C625C629C62DC62F1
S214000E101C632F4B1C60EC235B002E4AD4502E4DD7
S214000E20002600272E606F60AC60EC602C61493BAA
S214000E30FF3BEC502800143078220021274B9847BF
S214000E40274B1C60A023EC540233EC54254B5C600B
S214000E50254B1E605F60254B1C6001A8244B9847FD
S214000E60C023DB05802252009C5820328221C9050F
S214000E708A58882149005B5853401C40544001A8BA
S214000E801C4B9847E30305D4012252421A4B9A6141
S214000E9003B0F0BD0122F9E744050020D807002082
S214000EA0F107002074040020C00700206004002022
S214000EB0B80700203E050020C80700204005002097
S214000EC0A0860100C005002034080020D0070020BE
S214000ED08C080020D005002080040020678B0000CE
S214000EE0CC0700206C080020E00700200008002047
S214000EF0894600009746000004080020F0B5CE465C
S214000F00474680B583B04A4C012201212000494B58
S214000F1098472000484B9847484B9847C023DB0526
S214000F2080214900942299508022D2019A61802221
S214000F3092009A61802212029A61802149039822C7
S214000F409950903A9A613E4B98473E4B98473E4B95
S214000F50984700213D483E4B98473E4B98473E4BAE
S214000F60984700285CD00822C023DB059A613B4BDB
S214000F709847002858D1C026F6050825B56101A86F
S214000F80374B994698478023F4588223DB059846CA
S214000F90A0234246D258103BF35853401C405440BE
S214000FA001A8304FB84780235B031C40631E9C415A
S214000FB0E4B26846C84733684246126A3669564005
S214000FC01E4056406846B84735406A1E9541EAB20C
S214000FD021002548254B9847254B98470020254B50
S214000FE098470020244B98470020244B9847244BD2
S214000FF09847244B18680121234CA047234B1868B8
S2140010000021A0470020224B9847224B9847224BAE
S2140010109847224B984703B00CBC90469946F0BDC3
S2140010201F48204B9847F6E71F481E4B9847A2E7F5
S214001030AC090020094B0000CD4A0000790D0000E5
S21400104049070000E1690000C96A0000FC090020A9
S214001050AD450000A1070000AD0C0000310D0000FA
S214001060894600009746000014DF000059940000EF
S214001070C1080000752000003D1F0000951E0000FE
S2140010801D08000004000020D1050000000000201C
S214001090B5860000B9060000F90600002D24000001
S2140010A0BCDE000075950000E8DE000070B50400A8
S2140010B0802149009823C022D205D1500020444BFD
S2140010C09847444DA847A0B2434B9847434B00224D
S2140010D01A605A609A60A847414B19880020414B15
S2140010E098470322522100203F4CA04703210020AE
S2140010F03E4B984700203E4B9847010000203D4B52
S2140011009847002263210020A047002100203A4B88
S21400111098473A4B1B78012B21D0002B04D0022B8A
S21400112038D0042B45D070BD26210020344DA8476A
S21400113001003448344CA04725210020A847010070
S2140011403248A0472D210020A84701003048A0477C
S2140011502C210020A84701002E48A047E3E72621BF
S2140011600020274DA84701002B48274CA0472521E3
S2140011700020A84701002948A0472D210020A847A5
S21400118001002748A0472C210020A847010021483D
S214001190A047C8E726210020194DA847010021488E
S2140011A0194CA04725210020A84701001E48A0474B
S2140011B0B9E726210020124DA84701001B48124C13
S2140011C0A04725210020A84701001948A047AAE704
S2140011D0ED6C00005923000059480000440500202B
S2140011E058050020C1210000F57F0000E1810000C5
S2140011F0D18100005581000025810000C405002033
S214001200497F00003CDF0000599400006CDF0000BE
S21400121094DF0000C4DF0000ECDF00001CE00000EC
S21400122044E0000074E00000A4E00000CCE0000011
S21400123000E1000010B5022100200A4B98470A4939
S21400124038228B5C102003438B549B0605D4064B38
S214001250D9680648064B984710BD0648064B98477F
S214001260F5E7C046E181000008090020D8E4000048
S21400127059940000000A0020394C000010B5034BBA
S2140012801B6859600248034B984710BD00000020B9
S21400129004E500005994000070B500210020184BAA
S2140012A0984700210020174B984700210020164B36
S2140012B098470024154B1C70154B1C70154B1C7062
S2140012C0154D3822AB5C10218B4310318B43AB5449
S2140012D000200021114B186059601148114B9847A7
S2140012E0114B1C60114B1C600020114B98470100ED
S2140012F0686100200F4B98470F48104B984770BD09
S2140013002581000035810000E18100003E050020B7
S214001310C8070020F007002008090020300500203C
S214001320000A0020754C00007004002030080020E1
S214001330D18100005581000034E50000759500005D
S21400134010B50100084CE0600020084B98470020CC
S214001350074B9847010060610020064B9847E168FC
S2140013600548064B984710BD080900202581000057
S214001370D18100005581000048E500005994000026
S21400138010B5074C60620020064B9847010060616C
S2140013900020054B9847616A0448054B984710BDE6
S2140013A008090020D18100005581000068E5000092
S2140013B05994000070B504000D0001221E4B1A70EF
S2140013C000201E4B9847001BC317C01858401C4BE4
S2140013D098421BDD002D0FD01A4BDE6820001A4BFA
S2140013E0984701223100194B9847002D1FD1210044
S2140013F01748184B984770BD124BDE682000124BFA
S214001400984700223100114B9847EEE70D4BD968FC
S2140014100020114B9847002D04D0210000200F4BD0
S2140014209847E2E7210000200D4B9847DDE72100B2
S2140014300C48084B9847DEE7F0070020D1810000F3
S214001440DC05000008090020D1BD0000552400007E
S214001450BCE500005994000025810000558100007D
S21400146065810000A0E5000010B5054C2062012152
S214001470044B9847216A0448044B984710BDC04661
S21400148008090020B5130000D8E5000059940000B4
S21400149010B500210020134B984700210020124B66
S2140014A09847124B596838228B5C082083430830D3
S2140014B08343103083438B54373A0D4B1A710D4BD0
S2140014C0984760230C4AD35C002B03D10B480C4B87
S2140014D0984710BD0022064B1A735120094B9847B7
S2140014E0F4E7C046C18100005581000000000020DE
S2140014F034080020992300005805002004E6000068
S21400150075950000DD49000010B5084B1968084ABB
S2140015100020084B9847084938228B5C022003437A
S2140015208B540648064B984710BDC0460000002066
S21400153060F0FFFFA5820000CC08002020E6000037
S2140015407595000010B5084B1968FA2212010020A4
S214001550064B9847064938228B5C042003438B547D
S2140015600448054B984710BD00000020A5820000E7
S214001570CC08002044E600007595000070B50C000D
S2140015801D4B196838200B5C08252B430B54CB6A7F
S2140015904B61FA2000014860002A00D00C61A3428B
S2140015A011DA002A01D11B190B61FA221201002060
S2140015B0124B9847104B1A6853685169220010481E
S2140015C0104CA04770BDA34211DD002A01D11B1BA1
S2140015D00B610D4A0020094B9847074B1A68536861
S2140015E05B42516922000648064CA047EAE70748D6
S2140015F0074B9847E6E7C04600000020A58200009B
S2140016006CE600005994000060F0FFFFB8E60000AA
S2140016107595000000B583B06B46D91D00230B708E
S2140016200920234B9847234B1B78042B0DD0052B02
S21400163010D06B4607331B78DB0621D51E4B0222E3
S2140016401A700C325A7002230DE0852252001B4B92
S2140016501A60EEE70C22FF32184B1A60E9E7002109
S214001660154AD1540133072BF9DD134B1968134B78
S2140016701868134B98471348134B984703B000BDA0
S2140016800D4B02221A700D325A70022303E000211D
S214001690094AD1540133072BF9DD074B1968074B6C
S2140016A01868074B98470948074B9847E6E7C0462F
S2140016B0B11B0000C4050020E00700200008002041
S2140016C025050000F4E600007595000014E700000C
S2140016D010B5012800D010BD002222210020094BA1
S2140016E09847094938228B5C01208343073083439F
S2140016F006388343023083438B540448044B984790
S214001700E9E7C046A9860000CC08002038E70000BC
S2140017107595000010B5C64B1B68093BFF3B062BB2
S21400172009D89B00C34AD3589F460022C24B1A7062
S214001730C248C34B9847C04B1B78002B04D1C14A04
S2140017401278042A00D1B9E0012B00D1B1E010BD17
S2140017500122B94B1A70BC48B94B9847EBE70022F8
S214001760B54B1A70B948B64B98473823B84AD35C7D
S214001770DB06E0D5AE4B1B79002B1BD0012B33D1FB
S214001780110038228B5C202003438B54DB0603D4E5
S214001790B048AB4B9847CEE70023AF4A1360AF4A3A
S2140017A01360AF48AF4B9847A94BD9680020AE4BA3
S2140017B09847EDE7A64938228B5C202083438B545C
S2140017C0083A1340302B07D00023A34A1360A34ADD
S2140017D01360A348A54B984700210020A44B9847C8
S2140017E0A448974B9847A6E7A348954B9847A2E787
S2140017F00122914B1A70A148914B98473823944A7E
S214001800D35CDB0697D58A4B1B79002B11D0012BB6
S21400181020D1110038228B5C202003438B54DB063A
S21400182003D48C48864B984785E78D488D4B984760
S214001830F7E7874938228B5C202083438B548848FF
S2140018408A4B984700210020894B984789487C4B53
S214001850984770E788487A4B98476CE7794B1B782F
S214001860042B15D0052B00D065E7854B1B78032B82
S21400187000D060E71020FF30824B1860824B0322B6
S2140018801A701968814B984781486D4B984752E704
S2140018907B4A1278012AE5D11020FF30794B186078
S2140018A0794B1A701968794B98477A48644B984771
S2140018B041E7644B1B78052B00D048E75C4B1B794F
S2140018C0072B00D943E79B00734AD3589F46584BD3
S2140018D05B79112B2DD89B00704AD3589F46704BCE
S2140018E0984734E76F4B984731E7514BD8686E4BB3
S2140018F098472CE70021802040026C4B984726E74B
S2140019004B4BD8680121694B984720E7484BD8686D
S2140019100021664B98471AE7454BD868644B9847B2
S21400192015E7434BD868634B984710E7624B9847D8
S2140019300DE76248424B984709E73D4B5B79102B11
S2140019402BD89B005E4AD3589F4601205D4B984794
S214001950FDE6374BD96801205B4B9847F7E6344BDA
S214001960D96801220120594B9847F0E6304BD968D8
S21400197001220120554B9847E9E62D4BD9680022F5
S2140019800120524B9847E2E6514B9847DFE6514B11
S2140019909847DCE6504B9847D9E65048284B98477E
S2140019A0D5E6234B5B790D2B22D89B004C4AD358A7
S2140019B09F460220434B9847C9E61D4BD968022034
S2140019C0414B9847C3E61A4BD968012202203F4B89
S2140019D09847BCE6164BD968012202203B4B984735
S2140019E0B5E6134BD96800220220384B9847AEE67E
S2140019F03C48134B9847AAE60D4B5B79032B05D35F
S214001A00042B00D8A3E6102B00D1A0E636480C4BDA
S214001A1098479CE6064B5B79032B05D3042B00D82E
S214001A2095E6102B00D192E63048054B98478EE697
S214001A3084090020D8E30000440900204CE7000099
S214001A4075950000C405002068E7000088E70000E0
S214001A5008090020ACE700007004002030080020D1
S214001A60000A0020394C000025810000754C00005B
S214001A7035810000F4E7000038E800005CE800006C
S214001A802808002000080020E007002025050000A8
S214001A90C8E8000080E80000F4E3000014E400005A
S214001AA0351200009912000041130000B513000023
S214001AB081130000691400009114000010E9000072
S214001AC05CE40000D11600007D1200007D150000C9
S214001AD009150000451500001516000038E900003D
S214001AE0A0E4000060E9000090E90000BCE9000006
S214001AF0084B5B79042B00D829E60748074B984724
S214001B0025E6044B5B79042B00D820E60448034BFB
S214001B1098471CE684090020E8E900007595000057
S214001B2010EA000010B50CE00278084B9A62074BEA
S214001B301B7E5B07FBD5054B9B6A0B7001310130A2
S214001B402200541EE4B2002AEED110BD001000425E
S214001B50F0B583B000900E000192C027FF05082460
S214001B607C610120064DA8476B461A793100009823
S214001B70044B98470120A847BC61012003B0F0BD84
S214001B8059480000251B000000B583B00B2801D97A
S214001B9003B000BD01AB40221A70587099703D3AF0
S214001BA069461800014B9847F2E7C046511B0000F3
S214001BB030B583B00D000B2814D8002912D001AC24
S214001BC04123237060700023A3700322694620001F
S214001BD0054B98476B469B782B70217862780348B4
S214001BE0034CA04703B030BD511B000038EA00008C
S214001BF05994000010B582B06B46DC1D002323709C
S214001C00210007203E4B98472378002B01D102B0D5
S214001C1010BD3C4C21000820394B98473A483B4BB6
S214001C2098470A203A4B98472378DA0613D49B063F
S214001C30EDD5002222210020364B98473648334BFC
S214001C409847364B1B6838229A5C520734D434487F
S214001C502E4B9847DBE70022222100202D4B984789
S214001C6030482A4B98472D4B18683823C35C9B078F
S214001C7003D42D48254B9847C9E73822835C0221B8
S214001C808B438354294B9847244C23680022DA62FE
S214001C905A639A6185204000254B1860254B043214
S214001CA01A700A325A701968234B98472368996944
S214001CB02248234B9847DCE738215A5C04208243AD
S214001CC05A54002216390020124B9847134C2068AD
S214001CD0164B98472368DA6ADA6185204000144B71
S214001CE01860144B05221A7009325A701968124B84
S214001CF098472368D9691348114B9847A7E7C04609
S214001D00B11B0000C80500207CEA000075950000A5
S214001D108D940000A98600002CEB00000000002037
S214001D2084EB0000B4EA00000CEB0000D582000053
S214001D3000080020E007002025050000CCEA00008F
S214001D405994000044EB000010B582B0302100200A
S214001D500C4CA04700210620A04702210520A047E2
S214001D6030210120A04730210220A0476B46D91D14
S214001D7000230B700820044B98470448044B9847F0
S214001D8002B010BD891B0000B11B0000A4EB0000D0
S214001D907595000010B55120284B9847002100206B
S214001DA0274B984700210020264B98470020264BBB
S214001DB0984701000020254B984700200021244B1F
S214001DC018605960234B1B79002B00D110BD0021F1
S214001DD00020214B98470023204A1370204A137096
S214001DE01C4A13711F4B1A78042A06D893001E4A01
S214001DF0D3589F461D481E4B9847852040001D4BD4
S214001E0018601D4B01221A7010325A7019681B4B4D
S214001E1098471B48164B9847D8E71A48144B9847DC
S214001E20EBE71948124B9847E7E71848104B9847D6
S214001E30E3E717480E4B9847DFE7C046ED4900003A
S214001E40E1810000C1810000D181000055810000C1
S214001E50300500203408002025810000C807002037
S214001E603E050020C4050020B4EB0000E8EB0000AF
S214001E707595000000080020E007002025050000FA
S214001E80D0EC000014EC000040EC00006CEC00000D
S214001E9098EC000070B504001F4E32005C211F4D08
S214001EA0A84732005D212000A8471D4EB2685E217B
S214001EB02000A84732225F212000A8470022602188
S214001EC02000A847174A61212000A847164A622129
S214001ED02000A847032252212000A84709225021AB
S214001EE02000A847092251212000A847328AB1893C
S214001EF020000E4B9847328BB18A20000C4B984737
S214001F00328CB18B20000B4B9847328DB18C200061
S214001F10094B984770BDC046FF7F0000F57F000064
S214001F205805002001000080FFFFFF7F218200008F
S214001F3035820000498200005D82000070B5050011
S214001F403E4A1B213E4CA047002217212800A047EE
S214001F503C4A18212800A0473B4A19212800A047E0
S214001F6007221A212800A047384A0A210020A04745
S214001F70374A04210020A0478026B60532000521F6
S214001F800020A047320006210020A047314A072142
S214001F900020A047304A09210020A0472F4A0821E8
S214001FA00020A04700221F212800A0470022202151
S214001FB02800A047002221212800A0470022232134
S214001FC02800A047022252212800A04708226321A9
S214001FD02800A047002229210020A04701225221E4
S214001FE00020A04700221C210020A047FA22120150
S214001FF024210020A047FA208000194B9847194E4C
S21400200032005C212800A04732005D212800A0474E
S214002010154B9A685E212800A04700226021280000
S214002020A047124A61212800A047114A62212800D1
S214002030A04703226D210020A04770BD3200020099
S214002040F57F00009F0F000019190000000100181E
S214002050100010004E014E0197814100C5814100DD
S21400206059480000FF7F000058050020010000804E
S214002070FFFFFF7F70B5040000221A214C4DA847D1
S21400208000221B212000A847002217212000A84775
S214002090002218212000A847002219212000A84766
S2140020A000220A212000A847002204212000A84779
S2140020B0002205212000A847002206212000A8476C
S2140020C0002207212000A847002209212000A84757
S2140020D0002208212000A84700221F212000A84730
S2140020E0002220212000A847002221212000A84706
S2140020F0002223212000A847002252212000A847C2
S214002100002263212000A847002224212000A8479F
S214002110002226212000A847002227210020A847C9
S21400212000225C212000A84700225D212000A8474D
S21400213000225E212000A84700225F212000A84739
S214002140002266212000A847002261212000A8471F
S214002150002262212000A847002252212000A84722
S214002160002250212000A847002251212000A84725
S214002170002263212000A847002268212000A847EB
S21400218000226B212000A847002260212000A847DB
S214002190002200212000074B984700220021200043
S2140021A0054B9847002200212000044B984770BD3D
S2140021B0F57F000001820000498200005D82000079
S2140021C0F0B5C64600B582B005000E00594CA08892
S2140021D0594FB84700230122292101952800574D61
S2140021E0A8470123002252210198A8470023012274
S2140021F024210198A847330000222421019E3000A4
S214002200A847002300221C213000A847FA204000DF
S214002210B8474B4F4B4E3A680F2130684A4DA84797
S214002220E0653A6830681021A847002834D180233A
S2140022305B019846424F434E3A6811213068424D42
S214002240A8473C4B98653A6830681221A847002892
S21400225025D180256D013D4B1B78012B38D0002BF6
S2140022601FD0022B4BD0042B55D000222721019CD7
S2140022702000374DA847002252212000A847FA2008
S21400228040002D4B984701222A212000314B9847C9
S21400229002B004BC9046F0BD00239846CAE700256D
S2140022A0D9E7424625210020294EB047214FFA6D36
S2140022B026210198B0472A002C210020B047BA6D8D
S2140022C02D210020B04700222E210020B047CCE769
S2140022D04246252100201E4EB047164FFA6D262195
S2140022E00198B0472A002C210020B047BA6D2D2156
S2140022F00020B04700222E210020B047B5E70D4B46
S214002300DA6D2621019C2000114DA8474246252162
S2140023102000A847A9E70822434613431A002521B0
S21400232000200B4DA847034BDA6D26210198A847DD
S2140023309BE7C0465805002059480000B1800000C1
S214002340100000200C0000202D3A0000C4050020DC
S214002350F57F00009180000070B508226321002000
S2140023600B4CA04700221F210020A047094D2A68D9
S21400237020210020A0476A6821210020A047AA68E3
S21400238024210020A047022252210020A04770BD31
S214002390F57F00004405002010B5802149009823F1
S2140023A0C022D205D150FD390020174B9847602334
S2140023B0164AD35C002B03D10022154B5A7210BD6F
S2140023C000200021134B1860596000226321002072
S2140023D0114B984700210020104CA0470C4B0022C0
S2140023E05A725A611A61002100200D4B98470D4918
S2140023F000200D4B9847054BD96A0020A0470321C3
S2140024000020014B9847DAE7E181000058050020DC
S2140024103408002030050020F57F000025810000EC
S214002420C18100006A0401006581000010B50549FD
S2140024305120054CA04705493520A04704493720C0
S214002440A04710BD951D0000F1480000F51B0000D8
S2140024507182000070B5051C0C00160000220023D7
S2140024601E490A604B601E490A604B60002100202E
S2140024701C4B9847002E28D0281C1B4B9847010061
S21400248000201A4B98471A4B1C601A481A4B98475C
S21400249003210020194B98470022194B1A7001326D
S2140024A0184B1A70184B1B79002B07D1A333174A09
S2140024B0D35C002B02D10122154B1A701548164B1F
S2140024C098471648164B984770BD281C064B9847E9
S2140024D001000020134B9847D5E7C0466004002053
S2140024E0F80700202581000091BD000055810000FE
S2140024F08C080020D0050020717C0000E1810000DF
S21400250079040020C807002034080020800400203A
S214002510F0070020000A0020754C00006C0A00201E
S214002520394C000065810000F0B5DE4657464E4641
S2140025304546E0B593B0CF4B9B78002B06D113B041
S2140025403CBC90469946A246AB46F0BD0022C94B1D
S2140025509A700020C84B984700280AD00020C74B26
S2140025609847C74B1A78072AE9D89300C54AD35824
S2140025709F460321C44B9847F0E70020BF4B98477F
S214002580BC4DAE69EF69C14CA04732003B00C04E5F
S214002590B047C04B9847C317C01858402E6F6F6F90
S2140025A0A047012432003B00BB4DA847002800D1BD
S2140025B00024E4B2002C41D0012CC0D1AD4B313305
S2140025C0FF3318685968B54B9847B54B1C685D686B
S2140025D022002B00B34EB047002811D0B24B1A6D24
S2140025E05B6DB24E20002900B04702000B00AC49DC
S2140025F00A604B60AE4C20686168B047206061603E
S214002600AC4CAB4B1A685B6822606360994BF8333E
S21400261018685968A14B98476568246822002B0003
S214002620A04EB047002800D189E720002900994B2A
S214002630984701000020A04B984780E700208F4B6A
S21400264098478C4DAE69EF69904B9A469847904CE8
S21400265032003B00A0478F4B98469847C217831816
S21400266053402E6F6F6F0B931800D04732003B001D
S214002670A047EC246400C0472851F8229246AA449A
S214002680524610685168854A90469047884B1860B5
S21400269059602A6F6B6F0C920D930022874B80490E
S2140026A008684968864EB0470E900F912E00313666
S2140026B0FF3630687168C04706000F000020814B67
S2140026C098478346514608684968C0472C5908947D
S2140026D0069007915C460494029603970E980F990D
S2140026E0009001910C9A0D9B0B997748774CA04768
S2140026F0AA23FF33EA5C0023012191425B41DBB24F
S214002700911E4D424D41D01E41424141C8B22B431D
S2140027100AD1002808D1043AD2B2012A00D90EE71D
S2140027200122574B1A700AE70222554B1A7006E729
S2140027300020524B98474F4DAE69EF69534CA04767
S21400274032003B00524EB047524B9847C317C01852
S2140027505840AE6FEF6FA047012432003B004E4D4D
S214002760A847002800D10024E4B2002C25D0012C74
S21400277000D0E4E63F4B0133FF3318685968474BF7
S21400278098474C4B1A685B68464CA047002800D117
S214002790D5E6474C424B1A685B6820686168434D33
S2140027A0A84720606160434B18605960394B9847D2
S2140027B001000020404B9847C1E600202F4B984769
S2140027C02C4DAE69EF69314B9A469847304C320033
S2140027D03B00A0472F4B98469847C2178318534094
S2140027E0AE6FEF6F0B931800D04732003B00A04748
S2140027F0EC246400C04728516A1CFF3292461068D9
S2140028005168264A90469047294B18605960AA6F2F
S214002810EB6F0C920D930022284B214908684968FB
S214002820274EB0470E900F912E003936FF3630688F
S2140028307168C04706000F000020224B9847834669
S214002840514608684968C0472C5908940690079175
S2140028505C460494029603970E980F990090019197
S2140028600C9A0D9B0B991A48184CA0470222044B51
S2140028701A7064E6D0050020F1810000D1810000C6
S21400288079040020C8EB0000E181000059D900005F
S21400289085D20000F1D80000F1B500005505000013
S2140028A0F80700202DB6000058050020FDBE0000E9
S2140028B060040020C00700202581000000408F40F3
S2140028C085CD000015810000CCED00005994000075
S2140028D000EE00000020C14B9847C14CA669E7698E
S2140028E0C04DA84732003B00BF4EB047BF4B98478D
S2140028F0C317C0185840803426686768A847012464
S21400290032003B00BA4DA847002800D10024E4B2AC
S214002910002C44D0012C00D011E6B14B4133FF33DC
S21400292018685968B34B9847B34B1C685D6822001B
S2140029302B00B24EB047002812D0B14B1A6D5B6D1B
S21400294020002900A84CA04702000B00AA490A60F4
S2140029504B60AC4C20686168AB4DA8472060616056
S214002960AA4CA84B1A685B68226063609C4B0933CC
S214002970FF33186859689F4B98476568246822009B
S2140029802B00A34EB047002800D1D8E52000290030
S214002990964B9847010000209E4B9847CFE50020B5
S2140029A08E4B98478E4CA669E7698E4B9A46984799
S2140029B08D4D32003B00A8478C4B9B469847C2176C
S2140029C08318534080229046A044424616685768B3
S2140029D00B931800D04732003B00A847EC235B005F
S2140029E09946D8474B46E050842252009246A2446D
S2140029F05246106851687F4EB047824B1860596047
S214002A004246536812680C920D937B4F0022824B0D
S214002A1038687968814DA84710901191230041339A
S214002A20FF3318685968B0470E900F9100207C4B12
S214002A3098478046514608684968B0474B46E6586E
S214002A40089606900791464604960E9D0F9E0295A0
S214002A50039610981199009001910C9A0D9B0B9972
S214002A607048714DA847002200233A607B60AA2375
S214002A70FF33E35C594259419A1E54425441214364
S214002A801A1F54425441E2B2002915D1002A13D12C
S214002A905A1E54425441D91E4A424A412243053BDB
S214002AA058425841C3B2002A02D1002B00D146E555
S214002AB004225E4B1A7042E503225C4B1A703EE518
S214002AC00020464B9847464CA669E769454DA847FF
S214002AD032003B00444EB047444B9847C317C018DB
S214002AE05840883426686768A847012432003B00AF
S214002AF03F4DA847002800D10024E4B2002C08D09F
S214002B00012C00D01BE5002000213B4B18605960CB
S214002B1015E50020314B9847314DAE69EF69314BD2
S214002B209A469847304C32003B00A0472F4B9B46B6
S214002B309847C2178318534088229146A9444A46AC
S214002B40166857680B931800D04732003B00A04722
S214002B50EC246400D8472851882252009346AB44A0
S214002B605A4610685168234A90469047254B18608D
S214002B7059604A46536812680C920D930022264B01
S214002B801D4908684968254EB0470E900F912E00E3
S214002B904936FF3630687168C04706000F000020CF
S214002BA01F4B98478146594608684968C0472C59C4
S214002BB00894069007914C460494029603970E9844
S214002BC00F99009001910C9A0D9B0B991848164C82
S214002BD0A0470422154B1A70B1E4C046D18100000C
S214002BE0D005002059D9000085D20000F1D8000099
S214002BF0F1B5000055050000F807002005B60000F6
S214002C005805002060040020FDBE0000C00700201C
S214002C102DB600002581000000408F4085CD0000C5
S214002C201581000034EE000059940000790400205D
S214002C3068EE00000020CB4B9847CB4CA669E769AE
S214002C40CA4DA84732003B00C94EB047C94B98470B
S214002C50C317C0185840903426686768A8470124F0
S214002C6032003B00C44DA847002800D10024E4B23F
S214002C70002C46D0012C00D061E4BB4B5133FF330F
S214002C8018685968BD4B9847BD4B1C685D682200A4
S214002C902B00BC4EB047002812D0BB4B1A6D5B6DA4
S214002CA020002900B24CA04702000B00B4490A607D
S214002CB04B60B64C20686168B54DA84720606160DF
S214002CC0B44CB24B1A685B6822606360A64B19333B
S214002CD0FF3318685968A94B98476568246822002E
S214002CE02B00A84EB047002801D1FFF728FC200093
S214002CF02900A04B984701000020A74B9847FFF7F4
S214002D001EFC0020974B9847974DAE69EF69974B8E
S214002D109A469847964C32003B00A047954B9B46F8
S214002D209847C2178318534090229146A9444A46B2
S214002D30166857680B931800D04732003B00A04730
S214002D40EC246400D84728518C2252009346AB44AA
S214002D505A4610685168894A904690478B4B1860CF
S214002D6059604A46536812680C920D9300228B4BAA
S214002D708349086849688A4EB0470E900F912E0026
S214002D805136FF3630687168C04706000F000020D5
S214002D90844B98478146594608684968C0472C596D
S214002DA00894069007914C460494029603970E9852
S214002DB00F99009001910C9A0D9B0B997A487B4CC9
S214002DC0A047AA23FF33EA5C0023012191425B411E
S214002DD0DBB2911E4D424D41D01E41424141C8B228
S214002DE02B430CD100280AD1043AD2B2012A01D9C9
S214002DF0FFF7A5FB05226E4B1A70FFF7A0FB062215
S214002E006B4B1A70FFF79BFB0020564B9847564CAF
S214002E10A669E769554DA84732003B00544EB047B7
S214002E20544B9847C317C0185840983426686768AC
S214002E30A847012432003B004F4DA847002800D188
S214002E400024E4B2002C28D0012C01D0FFF777FB39
S214002E50454B2133FF3318685968484B98474D4B0C
S214002E601A685B68474CA047002801D1FFF767FB4C
S214002E70464C434B1A685B6820686168444DA84717
S214002E8020606160434B186059603A4B98470100D8
S214002E900020414B9847FFF752FB0020314B9847E4
S214002EA0314DAE69EF69314B9A469847304C320047
S214002EB03B00A0472F4B9B469847C21783185340AA
S214002EC098229146A9444A46166857680B931800FC
S214002ED0D04732003B00A047EC246400D847285176
S214002EE0902252009346AB445A4610685168234AD3
S214002EF090469047254B186059604A4653681268BA
S214002F000C920D930022254B1D4908684968244EF3
S214002F10B0470E900F912E005936FF363068716814
S214002F20C04706000F0000201E4B984781465946B2
S214002F3008684968C0472C590894069007914C4683
S214002F400494029603970E980F99009001910C9A9C
S214002F500D9B0B991748154CA0470622144B1A7068
S214002F60FFF7EDFAD1810000D005002059D9000006
S214002F7085D20000F1D80000F1B50000550500002C
S214002F80F807002005B60000580500206004002061
S214002F90FDBE0000C00700202581000000408F40D5
S214002FA085CD0000158100009CEE000059940000BD
S214002FB079040020D0EE00000020AE4B9847AE4DBE
S214002FC0AE69EF69AD4CA04732003B00AC4EB0474F
S214002FD0AC4B9847C317C0185840AE6DEF6DA0476E
S214002FE0012432003B00A84DA847002800D1002449
S214002FF0E4B2002C34D0012C01D0FFF7A0FAA34B8A
S2140030001B78002B25D0A24B186859680022A14BCC
S214003010A14CA047002801D1FFF791FA9F4B186DED
S214003020596D9F4C9F4D22686368A8472060616079
S2140030309D4C22686368A84720606160944B1860C6
S2140030405960904B984701000020984B9847FFF72F
S21400305076FA9748974B984701228C4B1A70D2E71E
S2140030600020844B9847844DAE69EF69834B9A469F
S2140030709847834B994632003B00C847814CA0478F
S214003080C21783185340A0229046A84442461668AA
S21400309057680B931800D04732003B00C847EC2710
S2140030A07F00A047E851942252009346AB445A460C
S2140030B010685168804CA0477B4B186059604246A8
S2140030C0536812680C920D9300227C4B7449086872
S2140030D049687B4EB047109011912E006136FF363E
S2140030E030687168A0470E900F910020754B984786
S2140030F006005B4618685968A047EC590894069085
S214003100079104960E990F9A0291039210981199BE
S214003110009001910C9A0D9B0B996B486B4CA04745
S2140031200023EB516A4B1B78013BDBB2012B07D91E
S2140031306848694B98476748674B9847FFF7FFF919
S2140031400722664B1A70F6E7614B1B78012B17D0E7
S214003150022B01D0FFF7F3F90020614B98474F4B45
S2140031605C6B604B1C60604B1B78012B41D0002BC6
S2140031701FD0022B5DD00122554B1A70FFF7DFF9E6
S2140031800020574B9847454B596B564B1960574B89
S2140031901B78002B08D001225548564B9847022230
S2140031A04B4B1A70FFF7CBF901225348514B984707
S2140031B0F5E74E4B1B78002B0FD0504B186A504D3E
S2140031C0A8475049504B9847504B98474042A8470D
S2140031D001222100474B9847CDE7484B186A484BD9
S2140031E098474849484B984700222100414B98474A
S2140031F0C1E73E4B1B78002B0FD0404B186A404D62
S214003200A8474349404B9847404B98474042A847F9
S21400321001222100374B9847ADE7384B186A384BE8
S21400322098473B49384B984700222100314B984736
S214003230A1E72E4B1B78002B0FD0304B186A304D71
S214003240A8473049304B9847304B98474042A847EC
S21400325001222100274B98478DE7284B186A284BF8
S21400326098472849284B984700222100214B984729
S21400327081E7C046D1810000D005002059D9000062
S21400328085D20000F1D80000F1B5000054020020FD
S214003290C00700200000244019B600005805002092
S2140032A0F8070020FDBE0000600400202581000015
S2140032B004EF0000759500005505000000408F40A3
S2140032C085CD0000158100000CEF00005994000029
S2140032D0400500206C0A0020754C00007904002090
S2140032E0594800008C080020C40500205205002024
S2140032F0004021C65524000085422146340800209F
S214003300D1BD00002693494759BA000091BD000080
S2140033102693C94710B50020204B9847C317C018FE
S2140033205840182803DC1E4A1368013313601C4BF0
S2140033301B68312B00D810BD0024194B1C600020E0
S214003340164B9847174B1860174B1C70174B1C7082
S214003350174B1C70A123174AD45485204000164BE7
S2140033601860164B01221A7010325A701968144BE6
S21400337098471448144B9847144B1B78022B03D0DD
S2140033801348144B9847D6E70422134B1A7010487C
S214003390124B98470122054B1A70CCE7A18100001A
S2140033A0840800202C050020F0070020C807002015
S2140033B03E0500208004002000080020E0070020D2
S2140033C02505000040EF0000759500004005002030
S2140033D06C0A0020754C0000D8070020394C00000D
S2140033E0F0B5C64600B55B4A137802218B431370CE
S2140033F0594B1B68002B4ED00020584B98470500B1
S214003400554B1B68DC680020554B9847022803D0B4
S21400341002210020534B9847534B9847534B586014
S2140034200020534B984706004B4B1B685B6A002BEB
S2140034300BD04E4A127A002A07D04C4AD268121A8B
S214003440D11752184A40934228D9484B1B7A002B72
S21400345056D0A54265DD2000464B9847434B5C6935
S214003460211C454B984700280DD0444B1E6C5F6CC2
S214003470201C434B984732003B00424CA047424B2F
S21400348098473A4B5861394B5869404B984701006A
S21400349000203F4B984704BC9046F0BDC027FF0570
S2140034A08023DB05984698234246FA500120394B84
S2140034B098478023DB01FB6194234246FA50364B43
S2140034C01A68511C19603548354B9847274A536887
S2140034D012699B1A334A934202D8244BDE60B4E743
S2140034E02D4B9846304F1B683A68991A2F482C4B3C
S2140034F0984743461B683B601C4B5A681A61ECE7CA
S2140035001A4E28001B4B984770610020184B9847AE
S214003510F060FA2189000020254B9847012333727A
S21400352097E72000134B9847104B5C69211C214BF2
S21400353098470028A7D0114B1E6C5F6C201C104BC0
S214003540984732003B001C4CA0470F4B9847074B50
S214003550586198E76C0800200400002045810000B0
S214003560F1810000E18100003D7F00005402002050
S214003570D1810000D1BD000065B6000058050020CE
S2140035804DDA000085D20000F1DA000091BD00009F
S214003590358100003948000070040020A0EF0000CC
S2140035A0599400002F75000030080020A8EF000096
S2140035B0258100008DB60000FDBE000010B50CE0B1
S2140035C00278084B9A62074B1B7E5B07FBD5054BC0
S2140035D09B6A0B70013101302200541EE4B2002AAF
S2140035E0EED110BD0004004210B50CE00278084B86
S2140035F09A62074B1B7E5B07FBD5054B9B6A0B70DD
S214003600013101302200541EE4B2002AEED110BD72
S2140036100010004270B5C024E40580256D03942395
S214003620E550D2B2024B98479823E550012070BD72
S214003630E935000010B582B0040001A80523037028
S21400364000234370837003220449054B98470028E3
S21400365002D0024B5B78237002B010BD6C020020D3
S2140036601536000010B582B06B46DC1D2000044BFA
S21400367098472378DB07F7D4002002B010BDC04679
S2140036803536000000B583B001A80623037001227A
S2140036900449054B9847002802D0002003B000BD1F
S2140036A00338FBE76C0200201536000000B583B037
S2140036B001A89F230370002343708370C370042205
S2140036C00649074B9847002805D0044A5178054B11
S2140036D01972D2785A7203B000BDC0466C02002040
S2140036E0153600006C03002010B50E4B98470028D6
S2140036F017D00D4A0D4BDA60002203E008330B4961
S214003700CB600132052A0BD8084B1C7ADB68197986
S2140037108C42F3D105494C7A59798C42EED100E0BF
S214003720002010BDAD360000E0EF00006C03002066
S21400373000B583B0044B9847002801D103B000BD04
S21400374001A8024B9847F9E7E93600003536000035
S21400375070B582B004000D0016000F4B9847002885
S21400376003D00024200002B070BD01A8032303701C
S214003770230C4370230A8370C4702A1D92B2074933
S214003780074B9847041EEDD02A0004490431300048
S214003790044B9847E6E7C046653600006C020020FA
S2140037A015360000558B0000F0B5DE4657464E46EF
S2140037B0C0B582B005000F00160021E001A8022364
S2140037C003702B0C43702B0A8370C5702D193F1B9A
S2140037D0C023DB05994680235B039A4694234A461A
S2140037E05146D15004221549154B9B469847E2B2E4
S2140037F012493000D84798234A465146D1503619C8
S214003800002F10D00F4B9847002813D10E4B984727
S214003810002811D1FF242C4080235B001C1BA742EC
S214003820CCD23C00CAE7012002B01CBC91469A46A6
S214003830A346F0BD0020F7E70020F5E76C02002065
S214003840E93500006536000085360000F0B583B027
S2140038500C1E5AD0002803D1802149002C4B196039
S2140038606B46D871073369468A71294A10681A0070
S2140038700121284B9847002802D1022003B0F0BD52
S2140038806B46DA79224D130029682348234EB04749
S2140038902B68581C28606B469A1D01211D4B9847C3
S2140038A0002801D10220E9E76B469E1D9A79184D43
S2140038B0130029681A48194FB8472B68581C286007
S2140038C031782200134B9847002801D10220D5E713
S2140038D06B469D796B1EDBB2002205E0E15CD800EA
S2140038E081400A43013BDBB2AB42F7D3084C1300DE
S2140038F021680C48094DA8476B4606331B7822689A
S2140039009446634423600020B8E70120B6E7C0462B
S214003910B0070020A937000010F0000059940000FE
S21400392048F0000080F00000F0B583B006000C0000
S214003930171E69D0002969D000251B2D5FD8354B8E
S214003940186822000121344B9847002860D023785D
S214003950B3421CD02F4B1A68501C1860621C012101
S2140039602D4B98472378FF2B2CD06378FF2B29D03C
S214003970284802689446634401330360A21C00236F
S214003980A37061780068244B98470135D5E7214D30
S2140039902B683B6001233B712B68581C2860621C17
S2140039A001211D4EB0472B6801332B60A71C042253
S2140039B000213800194B9847617828683A00B047CC
S2140039C000201FE01648174B9847124B1A68022330
S2140039D0FF339A4201D0052014E0802252000D4B9E
S2140039E01A6000250195FC3A01A900200E4CA0475C
S2140039F00195022201A90120A047052002E000232C
S214003A003B71052003B0F0BD0120FBE70120F9E77C
S214003A100320F7E7B007002051370000678B00004F
S214003A20BCF00000759500004D38000070B584B0FD
S214003A30040008001500002C36D0002A36D080225C
S214003A4052001B4B1A602A0021001A4B9847002888
S214003A5006D1194B1B685E78731EDBB200200FE0A0
S214003A60002323706370A370E37023716371A360F7
S214003A7016E0E2189278D9008A401043013BDBB288
S214003A80B342F6D3A0602178637802900190009349
S214003A900A000A480A4EB0472B79002B02D10320B1
S214003AA004B070BDA068FBE70120F9E70120F7E746
S214003AB0B0070020293900000C00002068F1000043
S214003AC059940000FEE7000010B5104A104B9A42C9
S214003AD009D00F4B0D4A03E0116819600433043215
S214003AE00C498B42F8D30C4B02E000221A600433D8
S214003AF00A4A9342F9D30A4AFF210A4B8B43936042
S214003B00094B9847094B9847FEE7C046A0000100BE
S214003B10000000203802002038020020CC0C0020D4
S214003B2000ED00E0000000000D8B0000E16A0000E0
S214003B3010B5094AD1698023DB010B43D3614121CB
S214003B40FC23064AD150064B984702000549064812
S214003B50064B984710BDC04600080040001C0040B9
S214003B606169000000380042000A0020F54B0000A2
S214003B7010B5094AD16980235B020B43D36141210A
S214003B8080235B00054AD150054B98470200054943
S214003B900548064B984710BD00080040001C004032
S214003BA061690000004000426C0A0020F54B0000EE
S214003BB0022182235B00C022D205D1508222D20588
S214003BC024330B49D150C0210906D1504221FF3180
S214003BD0535C012083430343DBB253541139535CD7
S214003BE00F20034010200343DBB253547047C046F7
S214003BF002000040054AD16980239B020B43D36133
S214003C00402182235B00024AD150704700080040E2
S214003C10001C004010B5064B9847064B9847064BCD
S214003C209847020005490648064B984710BDC0460F
S214003C30F53B0000B13B00009955000000440042EF
S214003C40FC09002075450000F0B5DE4657464E4696
S214003C504546E0B583B0412188238D4AD1508D4A30
S214003C6051698023DB000B435361C026F605802391
S214003C709B029B4673608223DB05874D9D62874AC5
S214003C809A625127DA5D04208243DA55DC5D012111
S214003C908C4301221443E4B2DC55193FDC5D0E323E
S214003CA091461440DC558022D20272609D627C4AA6
S214003CB09A621A37DC5D8443DC55DC5D8C43012256
S214003CC01443E4B2DC55193FDC5D4A469443DC55A8
S214003CD08024240374609D62724C9C624432904639
S214003CE09C5C84439C549C5C8C43523A1443E4B2E0
S214003CF042469C54DC5D4A461440DC55753292467A
S214003D008024A403B4506F37DD51674ADA51D522B8
S214003D1090469C5C84439C549C5C8C43D43A1443ED
S214003D20E4B242469C541B3A90469C5C4A46144079
S214003D3042469C54802424045246B450DD515B4CC9
S214003D40DC512F37DC5D8443DC55DC5D8C43833AE5
S214003D501443E4B2DC551C3FDC5D4A461440DC5597
S214003D60F532904680246402B450942464001D51B9
S214003D704F4F1F514C3292469F5C87439F549F5C27
S214003D808F43503AFF3A1743FFB252469F54183AB1
S214003D909A5C4F46BA432A37FF37DA5542465F46A3
S214003DA0B7501D513D4A1A515222FF3293469A5C33
S214003DB0824392465A4657469F549A5C8A43012746
S214003DC03A436F46FA71FA7992465A4657469F54D6
S214003DD0193A9A5C4F463A402A37FF37DA55424638
S214003DE08027FF02B7501D512D4A1A51A9225200B2
S214003DF092469F5C87439F549F5C8F43523AFF3A9C
S214003E001743FFB252469F543A22FF3292469F5CB7
S214003E104A46974352469F5480277F034246B750F0
S214003E201D51244F1F51503292469F5C87439F542A
S214003E309F5C8F43543AFF3A1743FFB252469F5453
S214003E401A3A93469A5C4F46BA435F46DA5542465C
S214003E508027BF03B7501D51134A1A515624FF340A
S214003E601D5D85431D55185D884301220243D2B26D
S214003E701A555A469A5C49460A4059465A540E4BB9
S214003E80984703B03CBC90469946A246AB46F0BD68
S214003E90001C00400008004000000240020002C073
S214003EA0040002C0080002C0200002C0800002C059
S214003EB0010002C0100002C0BD480000F0B5C646B2
S214003EC000B5C022D2051023536193608223DB0520
S214003ED024499962C02109068C4699624420195CDF
S214003EE00127B94301263143C9B219543221585C1F
S214003EF00F25A8430324A04644462043C0B2585486
S214003F00202050619060184898626046986245206C
S214003F108446185CB8433043C0B264461855585CB3
S214003F20363C20403024A44664462043C0B2585451
S214003F300E3151600D4A9A620D4A9A624622995C89
S214003F40042081439954995CB9433143C9B29954CA
S214003F5033215A5CAA4340460243D2B25A5404BCA8
S214003F609046F0BD10000040200000404000024097
S214003F70000002C0064B4021CC2299500331043A7F
S214003F809950044AD36941390B43D3617047C04600
S214003F90001C004000080040064B4021D0229950EB
S214003FA00331083A9950044AD3693F390B43D36129
S214003FB07047C046001C00400008004030B5822311
S214003FC0DB054022995C0125A94301242143C9B29F
S214003FD099543020195C313A914303221143C9B2F7
S214003FE0195441215A5CAA432243D2B25A541A5C4D
S214003FF032390A4030210A43D2B21A5430BD00008A
S21400400010B582B0064B9847002300931033054A3C
S21400401005490648064CA047064B984702B010BD17
S214004020993F00007C030020000800421C0A002084
S214004030CD4E0000BD3F0000F0B5C64600B5C0241A
S214004040E4058023DB0363608223DB05244A9A624F
S214004050244A9A6256215A5C042082435A545A5C77
S214004060033880468243844660460243D2B25A549E
S2140040703B27DA5D47398A4302210A43D2B2DA5532
S214004080802212046261A2608021C9059962164AE4
S2140040909A6257201A5C4546AA4365462A43D2B21E
S2140040A01A54D85D0F26304020252843C0B2D85574
S2140040B0802292046261A26099620C4A9A62592236
S2140040C0995C4046814360460143C9B299543C21FD
S2140040D05A5C32402A43D2B25A5404BC9046F0BDD1
S2140040E000000240400002C0800000C0000200C085
S2140040F0064B4021D82299500331103A9950044A71
S214004100D36933390B43D3617047C046001C004067
S21400411000080040054B4021E42299504320043A11
S2140041209850034AD3690B43D3617047001C004084
S2140041300008004030B58223DB05D022995C0125BB
S214004140A94301242143C9B29954B820195CC13A45
S214004150914302221143C9B21954D1215A5CAA4391
S2140041602243D2B25A541A5CC2390A4020210A436A
S214004170D2B21A5430BD30B58223DB05A6225200D7
S214004180995C0124A14301200143C9B29954163A0F
S214004190995C0F25A94302252943C9B29954502199
S2140041A0FF315A5CA2430243D2B25A543821FF313F
S2140041B05A5C0F20024020200243D2B25A5430BD2F
S2140041C0064B40219422520099500331603A995090
S2140041D0034A136A41390B4313627047001C0040C0
S2140041E00008004010B5054B9847002204490548D2
S2140041F0054B9847054B984710BDC046C141000087
S21400420000040043C80900201D510000774100004B
S2140042108222D2054A21535C012083430343DBB24A
S21400422053541539535C0F20834304200343DBB2F9
S21400423053547047054AD16980239B010B43D361D1
S2140042404221F823024AD1507047C0460008004079
S214004250001C004010B5064B9847064B9847064B87
S2140042609847020005490648064B984710BDC046C9
S214004270354200001142000065690000003400422B
S214004280AC090020854A000030B58223DB05CF222A
S214004290995C0125A94301242143C9B29954B7204A
S2140042A0195CC03A114060221143C9B21954CE219C
S2140042B05A5CAA432243D2B25A541A5CBF398A4384
S2140042C006210A43D2B21A5430BD000010B5084A7F
S2140042D0116980239B000B4313614021EC23054AA0
S2140042E0D15005490548064B9847064B984710BDE0
S2140042F000080040001C004000200042D4090020B6
S214004300C946000089420000F8B5DE4657464E46CC
S2140043104546E0B5784B9847C022D20508239361FE
S21400432093608223DB0575499962C02424069C624B
S2140043304325595D01208143595580215161916083
S2140043406F4DAA469D629C624727DD5D8543DD551D
S2140043508025AD00556195606A4DA9469D629C62B8
S2140043604925AC465D5D854366469D558025ED0135
S21400437055619560644D9D629C624E25AC465D5DC0
S214004380854366469D5580252D02556195605F4D97
S2140043909D629C624F25AC465D5D854366469D5595
S2140043A09825A8465151103DAB46515128315546E7
S2140043B05D505C50C7255E5D86435E559426393554
S2140043C095515F46D551524D5D505C50C825AA4662
S2140043D05D5D8543AC46554667465F553935FF35C6
S2140043E095515D468027BF0057514D465D505C5045
S2140043F0C9255F5D87435F558027FF0097515D465F
S2140044005751444F5F505C5042355F5D87435F5560
S214004410842780252D01A946D5513F4D5D503F4D3F
S2140044205D504D46D551CB25AC465F5D0425AA466A
S21400443055462F43FFB265465F5545464F46575192
S21400444065465F5D87435F5580277F0197515D46D0
S2140044505751334F5F505C50CC27DC5D8443DC55AE
S21400446080242403945154518024E4055C502D4F3D
S2140044705F504B355F5D87435F5580277F0345461A
S21400448057515D4657515C50274F5F504C355F5D26
S21400449087435F5594515D4654515C50234A5A50A9
S2140044A036315A5C82435A54214B9847214B9847E1
S2140044B0214B9847214B9847214B9847214B9847CB
S2140044C0214B9847214B9847214B9847214B9847BB
S2140044D0214B9847214B9847214B9847214B9847AB
S2140044E0214B9847214B9847214B98473CBC904618
S2140044F09946A246AB46F8BD755A00000800004033
S2140045008000004000020040004000400080004064
S214004510000100400004004000080240000002C005
S21400452000100040080000C0100000C0004000C09E
S214004530153C0000493C0000753F0000C1620000C9
S214004540BD3E000001400000F14000009563000001
S2140045503940000015410000E169000035410000C7
S214004560E541000055420000313B0000713B000071
S214004570CD42000070B504000D0000280DD00029C3
S21400458009D0012039220649064B98472900200009
S214004590054B984770BD0020F4E70020F2E7C046C0
S2140045A0ACF10000C55100001155000070B50400C4
S2140045B00D00431E9841C0B24E220449044B984752
S2140045C029002000034B9847002070BDACF1000086
S2140045D0C551000049550000F8B5CE46474680B59F
S2140045E006000D009046994600281AD0002A1AD0D8
S2140045F04B46002B19D1002067221C491C4FB84798
S214004600340030001B4B98470100060048461A4B02
S214004610984748424841C0B269221449B847002723
S21400462009E00020E8E70020E6E70120E4E7BF19FC
S214004630BFB2B94515D92000104B98472900200075
S2140046400F4B98470028F9D0290020000D4B9847BB
S2140046504346D855012EEAD97B1C000A4246D05460
S214004660E5E738000CBC90469946F8BDACF1000072
S214004670C55100005D550000395B00007D55000007
S2140046807355000091550000EFF31083036072B677
S214004690BFF35F8F7047BFF35F8F036883F31088A5
S2140046A0704710B5C369002B00D0984710BD10B5F1
S2140046B0036A002B00D0984710BD10B5436A002B44
S2140046C000D0984710BD000070B504000D0000280B
S2140046D015D0002911D0012041220A490A4B9847DB
S2140046E029002000094B9847002805D1084B636035
S2140046F0084BA360084BE36070BD0020ECE7002089
S214004700EAE7C046C8F10000C55100009D5500000C
S214004710A3460000AF460000BB46000010B50400EC
S214004720431E9841C0B25C220349044B98472000C0
S214004730034B984710BDC046C8F10000C5510000A5
S214004740A956000070B504000D0000280DD0002901
S21400475009D001206E220649064B98472900200002
S214004760054B984770BD0020F4E70020F2E7C046EE
S214004770C8F10000C5510000B956000070B504002D
S2140047800D0000280DD0002909D001207722064907
S214004790064B984729002000054B984770BD00201F
S2140047A0F4E70020F2E7C046C8F10000C55100005B
S2140047B07957000070B506000D001400431E98419E
S2140047C0C0B281220C490D4B9847012D10D0002D08
S2140047D004D0022D0ED00D20404208E03462621E46
S2140047E09441E2B229003000054B9847002070BD86
S2140047F0F461F4E77462F2E7C8F10000C551000006
S214004800D5580000F8B504000D0016001F00431E22
S2140048109841C0B2B8220549054B98473B00320084
S21400482029002000034CA047F8BDC046C8F1000090
S214004830C55100002159000010B5044B1C68044BFC
S214004840984701002000034B984710BD8C030020BA
S214004850395A00006D5A000010B5044B1C68044B12
S214004860984701002000034B984710BD8C0300209A
S214004870515A00006D5A000070B50A25002407E062
S2140048800D4AB358002B00D0984770BD013AD5B2F8
S214004890AC42FAD82B195B10DAB2092AF5D8FF21F8
S2140048A00B40DE000449891949688142E8D0EDD200
S2140048B00132D4B2ECE7C0469003002010B50023C6
S2140048C009E0084AD90050180124644244600020D8
S2140048D0885001339BB2092BF3D90348034B984702
S2140048E010BDC0469003002079480000655C0000BB
S2140048F0F0B5D6464F464646C0B584B00023092BD1
S2140049000DD8DC00334A12195268824202D00133B5
S214004910DBB2F4E72F4BE15001239A4601E0002377
S2140049209A4600290CD05346002B41D1092B13D8A8
S214004930DA00284D5259002A08D00133DBB2F5E7D9
S2140049405346002B40D0244B984737E0DC0061519B
S2140049502C19606001229246002201E00132D2B298
S214004960092A25D8092B23D801931A49DC000C19EB
S2140049706768D400091949688F42EFD24C1CEDD005
S21400498002A98C46134FD400A0463C19664622CC9A
S21400499022C60199C9008946414679184C463C19F9
S2140049A060CC60C13D004D44614650C950C5D5E756
S2140049B05346002B0BD00121074B984704B01CBC74
S2140049C090469946A246F0BD0D204042F6E70D20DF
S2140049D04042F3E7900300202D5D000010B5012152
S2140049E0014B984710BDC0462D5D000010B5002154
S2140049F0014B984710BDC0462D5D000070B5040001
S214004A000D00160000280ED000290AD001203422FE
S214004A100649074B9847236832002900200098472C
S214004A2070BD0020F3E70020F1E7C046E4F1000087
S214004A30C551000070B504000D00160000280ED009
S214004A4000290AD001203D220649074B9847636893
S214004A50320029002000984770BD0020F3E70020B0
S214004A60F1E7C046E4F10000C551000010B5436907
S214004A70002B00D0984710BD10B58369002B00D0DE
S214004A80984710BD70B504000D00002812D000290C
S214004A900ED0012033220849084B984729002000F1
S214004AA0074B9847074B2360074B6360002070BD99
S214004AB00020EFE70020EDE7F8F10000C551000008
S214004AC01D6700006D4A0000794A000010B504001A
S214004AD0431E9841C0B24A220749084B9847200017
S214004AE0074B9847002804D12000064B9847002023
S214004AF010BD11204042FBE7F8F10000C551000050
S214004B004F6900009768000070B504000D0016009D
S214004B10431E9841C0B27C220449054B9847320098
S214004B2029002000034B9847002070BDF8F10000D4
S214004B30C5510000BD680000F8B50668002E02D01A
S214004B40330000250CE0104B984718E09F68BC46E1
S214004B506444A41A01348F68BC420BD21D001B6843
S214004B60002B07D05C689442F0D8A41A9F68BC4615
S214004B706444F0E7B34203D02800044B9847F8BDDE
S214004B80014B9847FBE7C046E55100001152000074
S214004B90F8B50500446903695E1C0661037EDB0701
S214004BA002D4037E9B070AD52B7E02221343DBB278
S214004BB02B76F8BD6F69E368200098473C00002C10
S214004BC0F7D06368F31AA2689342F2D32F00143723
S214004BD03800064B9847237C012BEBD166603200E9
S214004BE021003800024B9847E4E7C04619520000FF
S214004BF0394B000070B504000D00002812D00029C3
S214004C000ED001203B220849084B98472900200077
S214004C10074B984700232361064B2360002070BD96
S214004C200020EFE70020EDE710F20000C55100007D
S214004C3065650000914B000010B50400431E9841C6
S214004C40C0B253220749084B98472000074B9847A5
S214004C50002804D12000064B9847002010BD1120E4
S214004C604042FBE710F20000C55100003D6900001D
S214004C708568000010B50400431E9841C0B261224A
S214004C800749084B98472000074B9847002804D050
S214004C902000064B9847002010BD11204042FBE73D
S214004CA010F20000C55100003D690000A968000030
S214004CB070B582B004000D00002826D0002922D04E
S214004CC001207A221F49204B9847237E0122134356
S214004CD0DBB2237626001436290030001B4B98479B
S214004CE0002814D123696B60226929003000184B14
S214004CF09847237E012293432376237E9B0712D474
S214004D00002002B070BD0020DBE70020D9E7237E3C
S214004D100122934323767E320A4900200A4B9847A5
S214004D2012204042EDE701A80A4B9847237E022254
S214004D30934323762000084B984701A8074B9847D3
S214004D400020DEE710F20000C5510000CD51000043
S214004D50394B00008946000069690000974600004C
S214004D6010B5083800230363436A002B00D0984729
S214004D7010BD10B5083800230363C36A002B00D0AB
S214004D80984710BD10B504002C30044B9847236A92
S214004D90083C002B01D02000984710BDC5520000EB
S214004DA070B504000E00150000281DD000291DD087
S214004DB0002A1DD100203C22FF321049104B984794
S214004DC04423E25A0833E35A9A4213D1A6644C238A
S214004DD0E5520022083BE252433B236320000830A2
S214004DE0084B9847280070BD0020E4E70020E2E763
S214004DF00120E0E71C204042F5E7C04628F200000C
S214004E00C55100000F62000070B504000200083AA9
S214004E104423D35A4C21525A93420DD00200016CBF
S214004E20083A5D1C44201552C95C2000044B984784
S214004E302000044B984770BD034B9847FBE7C046DD
S214004E40DD6100000F62000017620000F0B585B05B
S214004E5004000D001600002817D0002917D0002ADD
S214004E6017D10020AC2252001249134B984703A8D2
S214004E70124B9847343420000194114B9847070092
S214004E8003A8104B984700240BE00020EAE7002018
S214004E90E8E70120E6E70134A4B2691801980A4B56
S214004EA098472100A74201D9B442F4D3200005B0A8
S214004EB0F0BDC04628F20000C5510000894600003B
S214004EC0055300009746000079520000F8B504002C
S214004ED00D0016001F00002826D0002926D0002A24
S214004EE026D0002B26D100203A221549154B98478C
S214004EF0200034303A003100134B984700281BD16D
S214004F00200008302900114B984700280BD1104B81
S214004F106360104B2360104BA360104BE360104B94
S214004F202361104B6361F8BD0020DDE70020DBE75E
S214004F300020D9E70120D7E70D204042F3E7C0461E
S214004F4028F20000C55100002D5200002561000027
S214004F504D4E0000A14D0000094E0000854D00009A
S214004F60614D0000734D000010B50400431E9841CB
S214004F70C0B261220449054B984720000830044B14
S214004F809847002010BDC04628F20000C55100001A
S214004F90C361000070B504000D0000280BD0002986
S214004FA007D0012077220549054B98472C60002042
S214004FB070BD0020F6E70020F4E7C04628F20000A7
S214004FC0C551000070B505000E001400431E984140
S214004FD0C0B283221649174B9847012E11D0002ED7
S214004FE004D0022E18D00D20404209E0AC62621EAA
S214004FF09441E2B22800083001210F4B9847002068
S21400500070BD6C62621E9441E2B228000830022134
S214005010094B98470020F3E7EC62621E9441E2B227
S214005020280008300321044B98470020E8E7C046D4
S21400503028F20000C551000021620000F8B5050006
S2140050400E001700002823D0002923D0002A23D1E1
S2140050500020F1221149124B98472C0008342000FA
S214005060104B98470028F8D00025715D20000E4BA5
S214005070984720000B4B98470028FAD00135BD42D0
S214005080F3D32000094B98470028FAD02800F8BD33
S2140050900020DEE70020DCE70120DAE748F2000027
S2140050A0C5510000ED610000D5610000F761000009
S2140050B0F8B5CE46474680B5051E884691461FD0B1
S2140050C000291FD0002A1FD10020862252000F4937
S2140050D00F4B984700262C00083420000D4B9847AD
S2140050E00028F8D043469F1920000B4B984738708D
S2140050F001364E45EFD330000CBC90469946F8BDBD
S2140051000020E2E70020E0E70120DEE748F20000AA
S214005110C551000003620000E561000070B50400A0
S2140051200D00002814D0002910D00120342209498F
S214005130094B9847200008302900084B984700285C
S21400514003D1074B6360074B236070BD0020EDE77B
S2140051500020EBE748F20000C5510000F9600000AF
S214005160B15000003D50000010B50400431E9841A9
S214005170C0B253220449054B984720000830044B20
S2140051809847002010BDC04648F20000C5510000F8
S214005190B161000070B504000D0000280BD0002996
S2140051A007D0012069220549054B98472C6000204E
S2140051B070BD0020F6E70020F4E7C04648F2000085
S2140051C0C5510000002800D100BE70470368002BC0
S2140051D003D08B4203D01B68F9E7002070470120FC
S2140051E0FCE7000070B504000D00064B984701234D
S2140051F05840C0B239220449044B984723682B60B4
S214005200256070BDCD51000064F20000C55100005D
S21400521003680B60016070470368002B03D01A68B0
S2140052200260180070470020FCE7000070B504001C
S2140052300E001500002812D0002912D0002A12D124
S214005240002028220A490B4B98476B1E2B420CD194
S21400525063600023A360E3602660002070BD00202A
S214005260EFE70020EDE70120EBE70D204042F5E7F1
S21400527084F20000C551000070B504000D0000283F
S21400528016D0002912D0012040220C490C4B98471A
S214005290A368E2689A420DD0626813402268D35C25
S2140052A02B70A3680133A360002070BD0020EBE7DD
S2140052B00020E9E70A204042F7E7C04684F20000F3
S2140052C0C551000070B504000D00431E9841C0B2E1
S2140052D051220A490A4B98476368E26813402268DD
S2140052E0D554E368A2689A1A61688A4201D9591AA5
S2140052F0A1600133E360002070BDC04684F2000068
S214005300C551000010B50400431E9841C0B2672284
S2140053100349044B9847E068A368C01A10BDC0460E
S21400532084F20000C55100000300064A1268002AF5
S21400533004D0044A1068C318136070470249014A33
S2140053401160F6E7E0030020D02C00200120404248
S214005350704780239B014B600020704701207047F8
S21400536000207047024B9C466044800AC0B27047DB
S21400537000BCFFBD30B5524B984200D188E0514B7F
S214005380984200D18FE00022038CDB0714D4038CF4
S2140053909B07FCD103789B0709D503780224A34317
S2140053A00370038C9B07FCD1038C9B07FCD4012362
S2140053B00370038C9B07FCD1038CDB07FCD482852F
S2140053C0CA00521A9400404B1B199A784270DA7839
S2140053D082701A79C270DB880381038C5B05FCD16E
S2140053E0CB005B1A9A00384B9B181B894381038CB1
S2140053F05B05FCD1CB005B1A9A00334B9B189B7A5B
S2140054000373038C5B05FCD1CB005B1A9A002E4B12
S2140054109B18DB7A4373038C5B05FCD1CB005B1ACD
S2140054209A00294B9B189B89C381038C5B06FCD48E
S214005430CB005B1A9A00244B9B18DB890382038CF3
S2140054401B06FCD4CB005B1A9A001F4B9B181B8ACA
S2140054504382038CDB05FCD4CB005B1A9A001A4B04
S2140054609B185B8A8382038C9B05FCD4164ACB0070
S2140054705D1AAC0025001419247D0477002484628C
S214005480521953780370038C9B07FCD1002030BD63
S2140054900E4B1B681A02E024E4001440DB080722C7
S2140054A01A40224370E7094B1B689A091202E0244F
S2140054B0E40022405B0A072423401A4364E7C04600
S2140054C00044004200480042A8F20000206080002D
S2140054D010B50B4B984702000020002806D08D22FE
S2140054E008490020084B9847002010BDC3001B1A2F
S2140054F09900064BCB5C9A42F7D00130C0B2ECE77D
S21400550065530000C4F20000C5510000A8F2000078
S21400551070B505000C00431E9841C0B2DD22064956
S214005520064B98472C602000054B9847010020004A
S214005530044B984770BDC046C4F20000C551000039
S214005540D1540000755300000268137802210B4303
S214005550DBB21370138C9B07FCD1704703685A8923
S214005560120903231340032B01D0022070470120A9
S214005570FCE7036898790123184070470268137E99
S21400558002210B43DBB21376138C5B05FCD170470C
S2140055900368988C80B2704700207047F0B50160B1
S2140055A08B69012213438B6103689A69D207FBD586
S2140055B09A69022422439A61334B99420FD00268BB
S2140055C0936902218B4393610268936901398B4387
S2140055D0936103689B69DB07FBD40020F0BD2B4B6F
S2140055E01A0001C22A49816101688C698C610168D0
S2140055F000248C600168274DCD610168264DCD6082
S214005600264D2D042D0C802189020D43A026076807
S214005610BD51BC25066874510C3506687451204D82
S2140056202D042D0C8026B6043543C0260768BD51D0
S2140056301204120C0A43F02506687251703D026887
S21400564054511A0014321204120C0A4384260768B6
S214005650BA511C331B041B0C0B43882201688B5069
S21400566090230268D4500F4B802252025A51BFF347
S2140056704F8FBFF36F8FC02149005A501A600368DE
S2140056800122DA659BE7C04600200042E4030020C2
S21400569014000020070A0206330A0000A80A0020A9
S2140056A0880A002000E100E00268936901218B432C
S2140056B09361002070470000F0B5CE46474680B59F
S2140056C085B080460368A4229A58520645D0A42284
S2140056D09C58240A653A1440A146234A93422ED089
S2140056E00023002B3CD01A6852002CD400224A73A8
S2140056F01A68D200520D0A601A6892002AD46A46C6
S2140057001A486E46B0C8B0C60068306058680003D5
S214005710000F125C0A73886808331900144B984708
S21400572043461968A8228B583F2083434C461C43A7
S2140057308C50002005B00CBC90469946F0BD230165
S2140057400C4A9B18CDE701224A731A68D200D20889
S2140057500A60D1E701220A71D1E70A204042E9E750
S2140057601C204042E6E7C04600200042DCF2000073
S214005770558B0000A80A002070B505000368C422F7
S2140057809A58920200D593E0C4229858000CA53A85
S21400579010404A4A93423AD00020002800D18AE0BE
S2140057A04B7B012B37D00B689B0403600A7B082ACF
S2140057B039D844680F2313401B04414A144023433E
S2140057C043602B689B691B0A0124426823405B05E3
S2140057D03C4E3240134343602B689B695B0A426829
S2140057E023401B05384E32401343436008308B6815
S2140057F00A7B1900354B98472968C423CA58120CEF
S214005800A53B13409C40D023CC50002070BD000127
S2140058102F4BC018C1E70B68036002688023DB05C6
S21400582013430360C2E70C2A07D84268244B1A4089
S21400583090231B0313434360C3E7102A07D842682C
S2140058401F4B1A40A0231B0313434360B9E7142AD7
S21400585007D842681A4B1A40B0231B031343436011
S214005860AFE7182A07D84268154B1A40C0231B0317
S21400587013434360A5E7202A07D84268104B1A4016
S214005880D0231B03134343609BE7302A07D84268A4
S2140058900B4B1A40E0231B031343436091E7402A57
S2140058A000D98EE74268F0231B031343436088E762
S2140058B01C204042AAE71C204042A7E700200042E6
