S01D00004754726F6E5F417869735F436F6E74726F6C6C65722E73726563A6
S21400000038450020D95A0000D55A0000D55A0000BD
S21400001000000000000000000000000000000000DB
S214000020000000000000000000000000D55A00009C
S2140000300000000000000000D55A0000ADA200003D
S214000040D55A0000D55A0000D55A00003580000069
S214000050D55A0000D55A0000D55A0000057E00008B
S214000060D55A0000D55A00004D850000D55A00002C
S214000070D55A0000D55A000061850000D55A000008
S2140000801D7A0000D55A0000D55A0000D55A000047
S214000090D55A0000598C00006D8C0000D55A00001F
S2140000A0818C0000D55A0000D55A0000D55A0000B1
S2140000B0D55A0000D55A0000D55A000010B5064C97
S2140000C02378002B07D1054B002B02D0044800E014
S2140000D000BF0123237010BD500200200000000066
S2140000E058430100084B10B5002B03D007490848B9
S2140000F000E000BF07480368002B00D110BD064B88
S214000100002BFBD09847F9E70000000054020020BF
S21400011058430100584301000000000010B5024B90
S2140001209847024B984710BD2D63000055A200006B
S21400013070B504000E001D00FA2189005143090124
S2140001402B482C4B9847013800042B4B18402B4B60
S21400015018432660B36901221343B36123689A6982
S214000160D207FBD59A6902210A439A61244B9E4224
S2140001702BD02268936902218B439361226893698E
S21400018001398B43936123689B69DB07FBD420000E
S2140001901C4B98476B091F2215401E3AAA40DB01EC
S2140001A0C021C9055C18A2601004000C8021C90596
S2140001B001438220C005844663449962100CC02126
S2140001C0090601439962626170BD2368D8610E4BCF
S2140001D0802252027E315A50BFF34F8FBFF36F8F8B
S2140001E00131FF315A501A6023680122DA65C0E7F0
S2140001F0006CDC02897B00000000FF01030A000699
S214000200002000429D67000000E100E010B50A00F3
S2140002100121014B984710BD3568000010B50A0053
S2140002200021014B984710BD3568000010B584B01A
S214000230009100216C46217106A902912373002AC1
S2140002400BD1002363736946054B9847054B18602E
S214000250431E9841C0B204B010BD01236373F2E799
S214000260FD670000B40A002010B584B00C000292AE
S2140002706946084B9847009B23606B461B79002B0A
S21400028005D0012B01D0002002E0022000E0012072
S21400029004B010BDC567000010B582B00091019291
S2140002A0002B06D16B4600220021054CA04702B069
S2140002B010BD6B4601220021014CA047F7E7C0465F
S2140002C085680000F0B5420E0F231340174F3B70B1
S2140002D0430CDBB2164E3370430ADBB2154D2B705F
S2140002E0C0B2154C2070154A137915490B703B782F
S2140002F03078C018C0B22B781818C0B223781B18F4
S214000300DBB210781B18DBB250781B18DBB2907883
S2140003101B18DBB2D2789B18DBB20A4A1370087837
S2140003201378C01A43425841C0B2F0BD00070020FF
S214000330480B00208508002010080020E80A00204E
S21400034011080020350B002010B582B00A4C0B4B6C
S2140003501A68230004C30A4A03CA03C3094B984712
S2140003600300E0602268009007490220074CA0477F
S214000370074B984702B010BD640E0020C00A00204C
S214000380E80A0020010500003409010061110000A0
S214000390F51E000030B585B00400174B9847174B84
S2140003A01B78042B03D0052B13D005B030BD144AA0
S2140003B0137851789078D578127903920295019047
S2140003C0009122000F4902200F4CA0470F4B984780
S2140003D0EBE70B4A137851789078D5781279039228
S2140003E0029501900091220006490220064CA04783
S2140003F0064B9847D9E7C046C5020000840800208F
S214000400E80A0020600901006111000049030000AD
S21400041070B5A423104AD3585B0603D100220F4BB5
S2140004201A7070BD0E4D002200232A606B600D4CC2
S214000430002323600C4A13700C4A13700C4A137086
S2140004400C4A13702A0021000B480C4B9847296869
S21400045020680B4B9847E4E700200042380700204E
S214000460E80A0020C00A002000070020480B0020F1
S2140004708508002010080020B02000206902000037
S2140004809503000010B582B00100064B5C681B683F
S21400049000930194062301220348044CA047002041
S2140004A002B010BDA00A0020B02000202D020000DF
S2140004B010B5074C217062701A0EA2701A14E27002
S2140004C01A1222716371034B1968034B984710BDCB
S2140004D0A00A0020A80A002085040000704700003B
S2140004E010B5044C0022044BA0470022034BA04743
S2140004F010BDC04639FA000000004E400000F03E35
S214000500054B98780006DA78120410431A7912021E
S21400051010435B7918437047E80A0020044B012219
S2140005209A70E42149005A5801325A507047C04622
S21400053090080020034B1A68516F40230B43536703
S2140005407047C04604000020024A13780133DBB22D
S21400055013707047380700207047000010B5041E5F
S2140005600CD007290FD801700023C3702378DBB2A4
S214000570072B0FD89B003E4AD3589F463D49002084
S2140005803D4B98475AE03D4900203B4B9847EDE7E6
S214000590002363702378DBB2062B08D89B00384A0A
S2140005A0D3589F4601236370F4E70223A370002309
S2140005B0237163710120A0710221E171A360E360E1
S2140005C023616361A361E36123626362A362E36202
S2140005D0236323876363626F130083436367626FDB
S2140005E013008B436367626F04239A436267626FEC
S2140005F008239A436267626F10239A436267626FAA
S21400060020239A436267626F40239A436267626F51
S21400061080239A436267626F80235B00134363679D
S214000620636F1B041A0C62672378012B19D023789A
S214000630062B16D0626F134B1340636710BD012361
S214000640A370B4E70323A370B1E70623A370AEE755
S2140006500723A370ABE70D23A370A8E70E23A370B0
S214000660A5E7626F80239B0113436367E6E7C046F6
S2140006708C090100C809010061110000EC090100A5
S214000680AC090100FFDFFFFF70B5084901248C604C
S214000690074BCB600C740748074DA84707498C608A
S2140006A0074BCB600C740748A84770BD7C0B002036
S2140006B01D0500004C210020216D0000540B002079
S2140006C035050000E020002010B5074B1B68002B06
S2140006D008D00120A9220549054B98470248054B3A
S2140006E0984710BD0020F5E7DC200020200A010016
S2140006F035720000058E0000F0B5D64600B582B013
S2140007008246019100271AE0C024E4058026B60040
S214000710E6616B469B8800931800114DA847E6617A
S2140007208026F601E6610098A847E6618026360234
S214000730E6610098A847E6610A4B98470137574597
S214000740E2D3C023DB05802292009A618022120247
S2140007509A618022D2019A6102B004BC9246F0BD32
S214000760D9680000C906000070B50B4C4923FA2270
S21400077052000A4920000A4DA8470A4920000A4BA1
S21400078098470A4920000A4B984701230022002177
S2140007902000084CA04770BDB0200020002000427A
S2140007A031010000DD0400000D02000049050000D4
S2140007B01D0200009902000010B50B4C0B492000EA
S2140007C00B4B984720000B4B98470B4C0B4A0021CD
S2140007D020000B4B98470B4920000B4B98472000F6
S2140007E00A4B984710BDC046A420002014080020DD
S2140007F005720000D9710000FC2000205905000099
S214000800357000003C07002005700000D96F00001E
S214000810F8B5CE46474680B5002401235B4299468C
S21400082000239846002602E09846F6180134312C3C
S2140008300DDC0F4D02232A0000210E480E4FB8474C
S2140008402B889845F0D39945EFD99946EDE73221A4
S21400085030000A4B984702004B4641460848094C70
S214000860A0470422084B1A700CBC90469946F8BD67
S214000870FC070020D820002059660000897B000075
S2140008803C0A0100CDB9000084080020F8B500221B
S2140008901A210020264CA047802149009423C0221C
S2140008A0D205D1500022FD390020A047214B9847A1
S2140008B005000024002600270CE0022100201E4B25
S2140008C0984703041B0CFF18030CF61845401F231B
S2140008D0DD410134194B9C42EFD92800784035029F
S2140008E06840174B9847174DFA2189003800A847EB
S2140008F00400FA2189003000A84705000200210004
S2140009001148124B98472204120C8223DB031A4329
S2140009102D042D0C1D4309210020054CA0472A005C
S21400092008210020A04707221A210020A047F8BD72
S21400093075A30000BDA20000C9A20000E7030000E6
S214000940D5BA0000897B00006C0A0100CDB9000012
S214000950F8B5CE46474680B54C4E4D4D326813210D
S21400096028684C4CA047431E98414B4B1870326881
S21400097016212868A047431E9841484B18703268D5
S21400098011212868A047464FB865326819212868A3
S214000990A047431E984160239846F85432681A21AF
S2140009A02868A0473F4B99461863326828681B2181
S2140009B0A0474B46D86201234246BB543A4B1B78AD
S2140009C0042B03D00CBC90469946F8BD344C374BEC
S2140009D023602E4F2E4E3A680A2130682D4DA847C8
S2140009E06060334BA3603A6801213068A8472061F5
S2140009F03A6802213068A847E0603A680321306808
S214000A00A847A0613A6804213068A84760613A6840
S214000A1005213068A84720623A6806213068A84752
S214000A20E0613A6807213068A847A06264236362E1
S214000A303A680B213068A847E0620A211D4B9847A8
S214000A4020633A680C213068A84760633A680D2135
S214000A503068A847A063184B9847184B9846184923
S214000A609847184B99469847206461643A683068FE
S214000A700E21A847A064144B98471149C047104957
S214000A80C047C847206561659CE7C0462000002037
S214000A901C0000203D5A000012080020020800201A
S214000AA018080020F40A002084080020DC05000056
S214000AB0C4090000537B000025EB0000CDE40000D5
S214000AC06F12833A0107010085EA000070B5154BE6
S214000AD09847154B98470A20144CA047002201213E
S214000AE00020134B98470120A04700210020114CFE
S214000AF0A047050000210020A04706000E4BC418A2
S214000B0063425C41E4B22A0029000C480C4B98472B
S214000B100C4B9E4201D0200070BD0B480B4B9847F3
S214000B20F9E7C0467585000031860000D9680000E8
S214000B3075A30000C9A20000CFC8C9CB900A010067
S214000B40CDB9000031373634AC0A0100C1BA000016
S214000B5010B50A4B98470A4B98470A20094B984706
S214000B60094B9847002801D1012010BD07490020F5
S214000B70074B9847074B98470020F6E74986000042
S214000B8005870000D968000051570000D40A01000C
S214000B9061110000252A000070B50120064EB047FE
S214000BA0C024E4058025AD009423E5500120B0471D
S214000BB09823E55070BDC046D9680000F0B583B0F4
S214000BC000243E4B1C703E4B64221A60C83A5A60A2
S214000BD0FA2212019A6001223A4B1A703A4B1C70A4
S214000BE03A4B1C6000200021394B18605960394B85
S214000BF018605960384B1C60384B1A70384B1C70A4
S214000C00384B1C703849394B1960394B9C70DC7076
S214000C101C715C719C71DC711C725C729A72DC7265
S214000C20344A14701C615C619C61DC611C625C620D
S214000C309C62DC621C63304B1C60EC235B002F4A1A
S214000C40D4502F4D002600272E606F60AC60EC60FD
S214000C502C61493BFF3BEC502800143078220021E1
S214000C60284B9847284B1C60A023EC540233EC54C6
S214000C70264B5C60264B1E605F60264B1C6001A8FE
S214000C80254B9847C023DB05802252009C58203213
S214000C908221C9058A58882149005B5853401C4068
S214000CA0544001A81D4B9847E30305D40122524245
S214000CB01B4B9A6103B0F0BD0122F9E7380700200C
S214000CC0040800209C0A0020B10A002034070020F7
S214000CD0800A002020070020780A0020FF07002056
S214000CE0880A002001080020A08601008008002055
S214000CF0F40A0020940A00204C0B002090080020E4
S214000D0040070020DBB000008C0A00202C0B0020DF
S214000D10A00A0020C00A002009670000176700002C
S214000D20C40A0020F0B5CE46474680B583B0994B3E
S214000D309847994C012201212000984B98472000A3
S214000D40974B9847974B9847C023DB05802149006F
S214000D50942299508022D2019A61802292009A6150
S214000D60802212029A618021490398229950903A73
S214000D709A618D4B98478D4B98478D4B984700212D
S214000D808C488D4B98478D4B98478D4B98478D4B8D
S214000D9098478D4B9847002864D00822C023DB056F
S214000DA09A618A4B9847002860D1C026F605082528
S214000DB0B56101A8864B994698478023F45882234C
S214000DC0DB059846A0234246D258103BF3585340C2
S214000DD01C40544001A87F4FB84780235B031C404B
S214000DE0631E9C41E4B26846C847326843461B6AA5
S214000DF036695E4016405E406846B84735406B1E12
S214000E009D41EBB2220074490220744CA047744BFB
S214000E101A68744B18681021734B9847FF220240DB
S214000E2072490320A047724B98470020714B9847A1
S214000E300020714B98470020704B9847704B98479E
S214000E40704B1B78012B51D0002B14D0022B00D1F5
S214000E5096E06D4B98474F4B984703B00CBC9046B6
S214000E609946F0BD69495D4B984796E7684900206A
S214000E705A4B984799E7674C01212068664B98477C
S214000E80664B22681A60664A12685A60654A12689B
S214000E909A60654B9847C30722D4644903204F4B9A
S214000EA09847FA25AD005E4F3B6858782A0019002F
S214000EB05F4CA0475B4E336858782A001900A0475D
S214000EC001205C4B9847396848780022A047316873
S214000ED048780022A04758490220404B9847B8E778
S214000EE0564903203D4B9847554DDCE7554D0221AA
S214000EF02868494EB04700272B685F702968002095
S214000F00514B98469847514C03212068B04701261C
S214000F1023685E7021680120C047404B1F602A6826
S214000F205A6022689A60404B9847064222D13F4951
S214000F3003202A4B9847FA25AD00394F3B6858786E
S214000F402A0019003A4CA047364E336858782A00D3
S214000F501900A0476420374B984739684878002224
S214000F60A047316848780022A047394902201B4B29
S214000F7098476EE731490320184B9847304DDCE719
S214000F80264B00221A605A609A6032490220134BA0
S214000F9098475EE7C906000088200020796B0000AD
S214000FA03D6B0000990B0000B9070000958C00000F
S214000FB07D8D0000D82000202D660000110800005E
S214000FC08906000059430000CD0A0000510B0000BE
S214000FD00967000017670000480B01006111000058
S214000FE0200000201C0000203D5A00006C0B010071
S214000FF051090000F5380000BD3700001537000025
S2140010008D080000FE070020712A0000F00A01008B
S2140010101C0B0100040000205D0500007404002085
S214001020080000201400002031BB0000800B0100E7
S21400103001A60000D9680000900B0100880B010093
S21400104018FCFFFF0C000020F1AB00001000002091
S214001050F80B0100500C010070B504008021490017
S2140010609823C022D205D1500020204B9847204D0F
S214001070A847A0B21F4B98471F4B00221A605A6021
S2140010809A60A8471D4B198800201D4B98470322DD
S214001090522100201B4CA047032100201A4B9847E2
S2140010A000201A4B984701000020194B9847002251
S2140010B063210020A04700210020164B9847164BBE
S2140010C01B78042B00D070BD26210020134DA847A6
S2140010D0020013490220134CA04725210020A847F0
S2140010E0020011490220A047EDE7C04641900000EB
S2140010F0C93B0000D968000004080020180800203A
S214001100413A000075A3000051A5000041A500006B
S214001110C5A40000A5A4000084080020C9A2000001
S214001120BC0C010061110000EC0C01000122014B17
S2140011301A7070470000002010B5044B00221A7089
S21400114003325A70024B984710BDC0466C0200200E
S2140011502D1100000122014B1A707047000000207C
S2140011600EB430B582B0134B5B78834204D202B023
S21400117030BC08BC03B0184780000F4BC3580F4A5A
S214001180802189000B4804300D4CA047011E0FDB60
S21400119006AB0193074C0434601880229200511A63
S2140011A0059A084DA84721000448074B9847DEE7F4
S2140011B00021EDE76C020020C40F0100D40F0100EF
S2140011C015BD0000DDBD0000CDB9000010B5064B12
S2140011D03F22995CC9B20020985440301C5C6408D9
S2140011E03F382040995410BD0060004110B5014BB7
S2140011F0984710BD5511000010B5014B984710BD1B
S2140012005511000010B50C00002811D0002901D19E
S214001210002010BD01000020064B9847210000204A
S214001220054B984700210020044B98470120F0E723
S2140012300020EEE7517D0000617D0000B57D0000D6
S21400124010B5174B00213F22995440315A5C0220BA
S21400125082435A544023124AD35C9B07FAD4114A5D
S2140012600F4B5A648022D2000F4B1A800F49002081
S2140012700F4B98470122002100200E4CA047012268
S21400128001210020A0470C4C002120000B4B984762
S21400129023680B4A1A6023680A4A5A6010BDC04683
S2140012A00060004100348000B02100202804004384
S2140012B0417D0000FD7C000070040020F17D0000F0
S2140012C0F9110000ED11000000487047F80F01000A
S2140012D070B50C4C23681861196900200A4B9847B2
S2140012E025680020094B9847A86123689969002063
S2140012F0074B984723681A6906490320064B984708
S21400130070BDC04604000020A5A4000041A5000052
S214001310C5A40000881201006111000070B5094CD8
S2140013202568A8620020084B9847A8612368996939
S2140013300020064B984723689A6A05490320054B08
S214001340984770BD0400002041A50000C5A4000019
S214001350A81201006111000010B50200094B1868C0
S2140013601300591E8B41416F1B03074C21400B4352
S2140013704367436FDB04DB0F04490320044CA0479C
S21400138010BDC04604000020FFEFFFFFE012010082
S2140013906111000010B58160826802490320024B8B
S2140013A0984710BD141301006111000070B5051EAA
S2140013B00ED02D4908202D4B9847041E0ED16B7871
S2140013C0002B2AD1284B1B78DB060DD4200070BDDD
S2140013D027490020274B98470024F7E72649002096
S2140013E0244B98470024F1E724490320214B9847D3
S2140013F02B78022B0BD02B78042B08D02B78052BC0
S21400140005D01F4900201B4B98470124DEE71D49E5
S2140014100020184B98470124D8E76B78012B06D09C
S2140014206A78D2B218490020124B9847CEE70E4B86
S2140014301B785B06CAD5154903200E4B98472B78B8
S214001440032B0BD02B78072B08D02B78052B05D039
S2140014500B490020074B98470124B7E709490020AD
S214001460044B98470124B1E788080020D1290000E2
S21400147044130100611100007C130100B013010049
S214001480F4130100C81301003814010020140100F1
S21400149010B582B004006B46D91D00230B700920DE
S2140014A0404B9847404B1B78042B0FD0052B12D08F
S2140014B06378002B24D13D4B1B78DB0625D5A2781C
S2140014C03B4B1A700E225A7002230DE08522520002
S2140014D0384B1A60ECE70C22FF32364B1A60E7E70F
S2140014E00021334AD1540133072BF9DD304B1968FC
S2140014F0304B1868304B984730490320304B98479C
S2140015006378012B19D002B010BDA278284B1A7050
S2140015100F225A70022303E00021254AD1540133DA
S214001520072BF9DD224B1968224B1868224B984787
S21400153024490320224B9847E2E71C4B1B785B06A6
S21400154017D5A2781A4B1A700E225A70022303E09F
S2140015500021174AD1540133072BF9DD144B1968C3
S214001560144B1868144B984714490320144B98479B
S214001570C9E7A2780E4B1A700F225A70022303E0B6
S21400158000210B4AD1540133072BF9DD084B1968AB
S214001590084B1868084B98470A490320084B984799
S2140015A0B1E7C046D1290000840800208808002042
S2140015B0A00A0020C00A002085040000681401006C
S2140015C0611100008414010070B505000020094B6D
S2140015D0984702000404240C230007490320074E02
S2140015E0B047A978C9B22300122285204000044CD7
S2140015F0A04770BD41A50000A414010061110000C1
S214001600B104000010B5344B1B685A6F120519D48C
S214001610596F10220A435A67596F304A0A405A6770
S2140016205A6F920602D55B6FDB0632D42A4B1B68D4
S2140016304C229A5C012A42D01A6929490320294B78
S214001640984710BD596F284A0A405A670221002061
S214001650264B9847204B1A68516F10230B4353674D
S214001660536F9B0602D5536FDB060AD41A4B1A68D3
S214001670516F1A4B0B4053671D490320194B98476F
S214001680DFE71C481C4B98471C490320154B98471E
S214001690ECE71848184B984702210020134B984750
S2140016A00D4C236819690020154B98472368186964
S2140016B0144B9847114903200A4B9847B6E7012177
S2140016C06E3299540021053A995204329954596F52
S2140016D0054A0A405A67AFE704000020FFF7FFFFFD
S2140016E04415010061110000FFFDFFFF51A5000039
S2140016F02C150100E0200020A96C0000E814010071
S214001700B5A40000D112000070B504000D0001223F
S2140017102A4B1A7000202A4B9847001BC317C01884
S2140017205840284B984224DD002D17D0264B1B68C6
S2140017301E692000254B984701223100244B98470C
S214001740214B1B684C229A5C022A24D0002D2ED1F5
S214001750220020490220204B984770BD1A4B1B6878
S2140017601E692000194B984700223100184B9847F5
S214001770E6E7154B1B6819690020184B9847002DA3
S21400178004D021000020164B9847D9E721000020FE
S214001790144B9847D4E7596F134A0A405A670121F9
S2140017A070229954114903200B4B9847CEE722002C
S2140017B00F490220084B9847CFE7C046B00A0020E2
S2140017C041A50000DC0500000400002085EA0000BA
S2140017D08D430000B015010061110000A5A40000B3
S2140017E0C5A40000D5A40000FFFDFFFF7015010092
S2140017F09415010010B5074C23685862586A0121F9
S214001800054B984723685A6A04490320044B9847B7
S21400181010BDC0460400002009170000CC150100CA
S2140018206111000010B500210020154B98470021DB
S2140018300020144B9847144B1B68596F082291439D
S2140018405967596F102291435967596F2022914367
S214001850596701220D4B1A710D4B984760230D4AAC
S214001860D35C002B04D10C4902200C4B984710BDCA
S2140018700022064B1A735120094B9847F3E7C046DF
S21400188031A50000C5A4000004000020F40A0020D2
S214001890093C000018080020F8150100611100003E
S2140018A05D6A000070B500210020234B9847002198
S2140018B00020224B984700210020214B9847002407
S2140018C0204B1C70204B1C70204B1C70204D2B682E
S2140018D0596F102291435967596F20220A435A675D
S2140018E070229C54596F1B4A0A405A676E229C54B9
S2140018F0012101329954053A9C52596F164A0A4002
S2140019005A6700200021154B186059601448154B83
S2140019109847154B1C60154B1C602C680020144B18
S2140019209847A0612B6899690020124B9847124986
S2140019300220124B984770BDA5A40000B5A4000075
S21400194051A50000FF070020880A0020B00A0020EA
S21400195004000020FFF7FFFFFFFBFFFFF00700205B
S214001960E0200020E56C000030070020F00A002090
S21400197041A50000C5A40000141601006111000076
S214001980F8B5224D2C680020214B9847A061002115
S2140019900020204FB847002100201F4B9847002109
S2140019A000201E4EB04700241D4B1C701D4B1C70A3
S2140019B01D4B1C702B68596F102291435967596F45
S2140019C020220A435A6700200021184B18605960ED
S2140019D01748184B9847184B1C60184B1C602B6810
S2140019E099690020164B984702210020B84703212A
S2140019F00020B0472A68516F80231B010B435367B2
S214001A0010490220104B9847F8BDC046040000203D
S214001A1041A50000A5A40000B5A4000051A5000043
S214001A20FF070020880A0020B00A0020F0070020E8
S214001A30E0200020E56C000030070020F00A0020BF
S214001A40C5A40000281601006111000000280BD074
S214001A500378DBB2022B03D3052B03D9072B01D067
S214001A60002070470120FCE70020FAE770B582B03E
S214001A7004000D00160000284AD0036B8361554B06
S214001A809847002800D06D422000524B9847002807
S214001A9040D1626F082313436367236BA361FA2365
S214001AA01B01A36001224C4B1A70002E00D065610A
S214001AB0A3699D4255DD002E02D1A369EB18636130
S214001AC06078A2682100454B9847A269A3680093F6
S214001AD02B0043490320434DA8470123E370626966
S214001AE0A3699A4214D06069A369C01AC317C018C4
S214001AF05840A1683C4B9847FA239B0058436064C3
S214001B00626C3A490320374B9847394B9847A06494
S214001B1002B070BD2000374B98470028B9D0A369A3
S214001B209D4205DD2279D2B2A379DBB29A4210D06B
S214001B30A3699D42ADDA2279D2B2E379DBB29A424A
S214001B40A7D12D490320274CA0472C490320A047A6
S214001B50DEE729490320234CA04729490320A04754
S214001B60D6E7A3699D422FDA002E02D1A3695B1B3C
S214001B7063616078A26852422100184B9847A269B8
S214001B80A3685B4200932B0015490320154DA84718
S214001B900123E3706269A3699A42B9D06069A369B8
S214001BA0C01AC317C0185840A1680F4B9847FA23AD
S214001BB09B0058436064626C0C490320094B9847AD
S214001BC00B4B9847A064A3E70E490320054B9847A4
S214001BD09EE7C0464D1A0000E40A002001A6000059
S214001BE00417010061110000537B00004C17010030
S214001BF0BDA20000AD1300003C160100D416010083
S214001C00A41601006C17010030B583B004006B46C3
S214001C10DD1D00232B7029000820154B98472B78D4
S214001C20DB0613D46078FA2212012100114B984784
S214001C30626F02231343636701230F4A1370E37036
S214001C400E4903200E4B984703B030BD0D490320C4
S214001C500B4B9847852040000B4B18600B4B04221B
S214001C601A700A325A701968094B9847ECE7C04652
S214001C70D129000001A60000E40A0020E0170100B8
S214001C8061110000A8170100C00A0020A00A002069
S214001C908504000010B582B004006B46D91D0023F1
S214001CA00B700820164B98476378002B04D16B46C0
S214001CB007331B789B0612D46078124A2100124B19
S214001CC09847626F04231343636701230F4A137018
S214001CD0E3700F4903200F4B984702B010BD0E4922
S214001CE003200C4B9847852040000C4B18600C4B8B
S214001CF005221A7009325A7019680A4B9847ECE7A1
S214001D00D129000060F0FFFF01A60000E40A0020D1
S214001D103C1801006111000004180100C00A0020F0
S214001D20A00A00208504000070B5041E22D0427868
S214001D30D2B23C4903203C4B984720003B4B984787
S214001D40002834D020003A4B984705000200394955
S214001D500320354B9847002D11D037490320324BCE
S214001D609847A178C9B20023112285204000334C41
S214001D70A04738E0324900202B4B984733E0626F8B
S214001D808023DB0113436367626F02231343636799
S214001D9001252C4B1D702C490320234B9847607857
S214001DA0FA2212012100294B9847E5701BE020001B
S214001DB01F4B9847002817D1626F8023DB0113431F
S214001DC06367626F02231343636701221D4B1A7019
S214001DD0626F04239A436267626F1D4B134063670A
S214001DE020001C4B984770BD1B4903200E4B98479C
S214001DF0626F8023DB01134363670122114B1A7065
S214001E00626F042313436367626F02239A43626719
S214001E10626F80231B021343636720000F4B9847B3
S214001E20E1E7C04698180100611100004D1A000055
S214001E30AD130000C4180100E4180100B10400004E
S214001E4064180100E40A00203019010001A6000011
S214001E50FF7FFFFF091C000070190100951C0000A1
S214001E6010B504004078002222210D4B984700232D
S214001E700C4A1370E370626F01339A436267626FB5
S214001E8008239A436267626F02239A436267626F0F
S214001E9004239A43626704490320044B984710BD05
S214001EA0E1AB0000E40A0020AC190100611100005B
S214001EB0F8B50400056B0B4B9847276BA178C9B2A1
S214001EC02B00122285204000074EB0476378002B77
S214001ED000D0F8BD3B002A0004490320044CA0476C
S214001EE0F7E7C04665A60000B1040000C01901006F
S214001EF06111000070B5C64B1A680A23FF339A4278
S214001F0069D017D90E23FF339A4200D1ABE023D90C
S214001F1087235B009A4200D1E1E0F2339A4200D078
S214001F2012E1BC4B1B78012B41D0BB490320BB4BB5
S214001F30984757E00823FF339A4200D1FCE03ED88A
S214001F40013B9A4200D0FFE00022B54B1A70B5491B
S214001F500320B24B984745E0013B9A4200D0F3E09D
S214001F60AC4B1B78002B3DD10022AD4B1A70AE490E
S214001F700320AA4B9847AD4B1B685A6FD20631D543
S214001F80A34A1279002A4ED0012A67D1596F1F3210
S214001F900A435A675A6F9206D20F5B6FDB06DB0F57
S214001FA013422CD1A24903209C4B98471AE00022EA
S214001FB09B4B1A709F490320984B984712E0954B0D
S214001FC01B78002B0ED10022954B1A709A490320DD
S214001FD0924B984706E00122914B1A7097490320CE
S214001FE08E4B98478E4B1B78002B04D1944A127860
S214001FF0042A00D1B2E0012B00D1AAE070BD002374
S214002000904A1360904A13609048914B9847874CCB
S2140020102368196900208F4B9847236819690020A8
S2140020208D4B9847BEE7596F20220A435A675A6F6E
S214002030920602D55B6FDB0607D40023814A136045
S214002040814A13608148854B984700210020824BC7
S214002050984783490320714B9847C3E7814903207B
S2140020606E4B9847BEE701226D4B1A707E490320DF
S2140020706A4B98476D4B1B685A6FD206B2D5644AB6
S2140020801279002A16D0012A24D1596F1F320A432A
S2140020905A675A6F9206D20F5B6FDB06DB0F13424E
S2140020A004D1634903205D4B98479BE76748684B1C
S2140020B09847F6E7596F20220A435A676348674BEA
S2140020C0984700210020644B984765490320534BEE
S2140020D0984787E763490320504B984782E7584B59
S2140020E01B78042B16D0052B00D07BE75F4B1B78A4
S2140020F0032B00D076E71020FF305D4B18605D4B59
S21400210003221A7019685C4B98475C490320434BBE
S214002110984767E7554A1278012AE4D11020FF3025
S214002120534B1860534B1A701968534B98475449D1
S21400213003203A4B984755E70122394B1A7051490C
S2140021400320364B98474DE74F490320334B9847BB
S21400215048E73B4B1B78052B00D04FE72C4B1B79F1
S214002160102B00D94AE79B00484AD3589F46284B75
S2140021705B791A2B3DD89B00454AD3589F46454B62
S21400218098470222264B1A7038E7434B9847F8E7E1
S2140021901F4BD868414B9847F3E700218020400248
S2140021A03F4B9847EDE71A4BD86801213C4B9847C0
S2140021B0E7E7174BD8680021394B9847E1E7144BFF
S2140021C0D868384B9847DCE7114BD868364B9847A9
S2140021D0D7E7364B9847D4E7144B1868344B9847E4
S2140021E0CFE7344B9847CCE7094BD868324B984733
S2140021F0C7E732490320094B9847C2E7044B5B798F
S214002200122B00D99EE09B002D4AD3589F46C0460D
S214002210640E0020FE0700201C1A01006111000059
S214002220600E00204C1C0100A81A010004000020CB
S214002230D81A0100EC190100481A0100841A01009E
S2140022408408002030070020F00A0020E02000204C
S214002250A96C0000A5A40000B5A40000E56C000071
S214002260201B0100641B0100881B0100E80A0020F7
S214002270C00A0020A00A002085040000041C0100FB
S214002280BC1B0100741C01009C1C01000010010016
S2140022904410010005160000A5180000D112000029
S2140022A0091700001D130000F51700002518000090
S2140022B0C91500008119000059130000AC1C01006C
S2140022C0B0100100D64B5868D64B98470222D64B22
S2140022D01A7093E6D54BD968D14B5868D44B9847BB
S2140022E0F4E7D24BD968CE4B58680122D14B9847B9
S2140022F0ECE7CE4BD968CA4B58680122CD4B9847BD
S214002300E4E7CA4BD968C64B58680022C94B9847C1
S214002310DCE7C34B5868C84B9847D7E7C04B5868AC
S214002320C64B9847D2E7BE4B5868C54B9847CDE793
S214002330BB4B5868C34B9847C8E7B94B5868C24B65
S2140023409847C3E7C1490320C14B9847BEE7B74B40
S2140023505B79122B39D89B00BE4AD3589F46B04BA8
S2140023609868B04B98470222AF4B1A7046E6AF4BC0
S214002370D968AB4B9868AE4B9847F4E7AB4BD96837
S214002380A74B98680122AB4B9847ECE7A74BD96858
S214002390A34B98680122A74B9847E4E7A34BD9685C
S2140023A09F4B98680022A34B9847DCE79C4B9868A5
S2140023B0A34B9847D7E79A4B9868A24B9847D2E723
S2140023C0974B9868A04B9847CDE7A3490320A04BAE
S2140023D09847C8E7954B5B79032B03D3042B05D9A5
S2140023E0102B03D09D490320994B984702228E4B11
S2140023F01A7003E68D4B5B79032B03D3042B05D9A8
S214002400102B03D096490320914B98470222864B07
S2140024101A70F3E5854B5B79122B39D89B00914AED
S214002420D3589F467E4BD8687E4B984702227E4BF9
S2140024301A70E3E57D4BD968794BD8687C4B984792
S214002440F4E77A4BD968764BD8680122794B9847DF
S214002450ECE7764BD968724BD8680122754B9847E3
S214002460E4E7724BD9686E4BD8680022714B9847E8
S214002470DCE76B4BD868724B9847D7E7684BD86851
S214002480704B9847D2E7664BD8686F4B9847CDE7B6
S214002490754903206E4B9847C8E7644B5B79122B4F
S2140024A039D89B00714AD3589F465D4B18695D4BDF
S2140024B0984702225C4B1A70A0E55C4BD968584BD3
S2140024C018695B4B9847F4E7584BD968544B186922
S2140024D00122584B9847ECE7544BD968504B186983
S2140024E00122544B9847E4E7504BD9684C4B186987
S2140024F00022504B9847DCE7494B1869504B9847E9
S214002500D7E7474B18694F4B9847D2E7444B1869B3
S2140025104D4B9847CDE7564903204D4B9847C8E7A3
S214002520424B5B79122B39D89B00524AD3589F46B0
S2140025303B4B58693B4B984702223B4B1A705DE574
S2140025403A4BD968364B5869394B9847F4E7374BBE
S214002550D968334B58690122364B9847ECE7334B22
S214002560D9682F4B58690122324B9847E4E72F4B26
S214002570D9682B4B586900222E4B9847DCE7284B2E
S21400258058692F4B9847D7E7254B58692D4B9847E6
S214002590D2E7234B58692C4B9847CDE736490320A2
S2140025A02B4B9847C8E702221F4B1A7026E51F4B95
S2140025B05B79033BDAB2162A00D930E193002F4A42
S2140025C0D3589F46164B1B6801224C215A54233180
S2140025D05A5400216932995204329954596F284A44
S2140025E00A405A67596F8022D2000A435A67254923
S2140025F00220174B984702220B4B1A70FEE4084B3A
S2140026001B6800224C215A5422315A54596F1E4AD4
S2140026100A405A671D4902200D4B9847EBE7C04613
S21400262004000020611E0000600E0020640E0020E2
S214002630951300006D1A0000091C0000951C000090
S21400264091140000291D0000B11E0000D41C0100DA
S21400265061110000FC100100FC1C01002C1D010093
S214002660581D010048110100841D0100941101004D
S214002670B41D0100E0110100E01D01002C12010054
S214002680FFFDFFFF0C1E0100FFFBFFFF301E0100D9
S2140026908E4B1A688E4B99896823D152D25A92B2C1
S2140026A08C4902208C4B9847A5E7884C2268516FCE
S2140026B080231B010B435367884B984722680021F1
S2140026C04C23D15486490220834B984793E77F4B8F
S2140026D01B687F4AD268DA65596F824A0A405A6791
S2140026E0DA6D002A42D15A6FD20434D5DA6D7E49AB
S2140026F00220794B9847754D2C6801234C22A35431
S2140027002332A354626F1F331343636700226A2386
S214002710E2520433E254626F744B13406367626F95
S2140027208023DB00134363670020714B9847606586
S2140027302B685B6FDB0414D56E490220664B984706
S214002740624B1B6868229A5A92B2002A52D06822BC
S214002750995A89B24FE0DA6D674902205E4B984776
S214002760C9E7664902205C4B9847E9E75A6FD204EE
S2140027703AD5DA6D62490220574B9847534D2C687C
S21400278002224C23E254626F8023DB00134363670C
S21400279000226A23E252616F4A3B0B4363676E2353
S2140027A00021E154616F5E3B0B43636722660020A5
S2140027B04F4B984760652B685A6F9206C0D55B6F83
S2140027C0DB06BDD54F48504B9847022100204F4BA3
S2140027D098473E4B1B68196900204D4B98474D495A
S2140027E003203D4B9847ABE7DA6D4B4902203A4B46
S2140027F09847C3E70321682299529A5A92B24749EA
S2140028000320354B9847F6E6304B1B68304AD268B3
S2140028105A665A6E424902202F4B9847EBE64149CA
S21400282002202D4B9847E6E6294B5B79152B17D0EF
S2140028300AD91B2B1BD01C2B0DD1254BD968002287
S2140028400020394B984706E00C2B04D1204BD96862
S2140028500020364B98470222354B1A70FFF7CEFB06
S2140028601B4BD968012200202F4B9847F3E7184BE3
S214002870D96800202F4B9847EDE7154B5B79152B51
S21400288017D00AD91B2B1BD01C2B0DD1104BD96887
S21400289000220120244B984706E00C2B04D10C4B59
S2140028A0D9680120214B98470222214B1A70FFF766
S2140028B0A5FB074BD968012201201B4B9847F3E77D
S2140028C0034BD96801201B4B9847EDE70400002016
S2140028D0640E0020541E01006111000081190000E2
S2140028E0741E0100FFF7FFFF941E0100FFFDFFFFAF
S2140028F041A50000E41E0100BC1E0100181F0100D7
S2140029004C1F0100E0200020A96C000051A500002B
S214002910B5A40000D01F0100901F01001420010084
S214002920402001006C200100F92E0000B92E0000A6
S214002930600E00209932000010B50CE00278084BBB
S2140029409A62074B1B7E5B07FBD5054B9B6A0B7099
S214002950013101302200541EE4B2002AEED110BD2F
S214002960001000420122014B5A7070478808002070
S214002970F0B583B000900E000192C027FF05082432
S2140029807C610120064DA8476B461A7931000098F5
S214002990044B98470120A847BC61002003B0F0BD57
S2140029A0D96800003929000000B583B00B2802D989
S2140029B0012003B000BD01AB40221A705870997018
S2140029C03D3A69461800014B9847F2E77129000026
S2140029D0F0B585B00E000B281AD800291AD003AC23
S2140029E04123237060700023A37002AF03223900D6
S2140029F02000094B98470500B97831702278637833
S214002A00009106490320064CA047280005B0F0BDFB
S214002A100125FAE70125F8E7712900009420010056
S214002A206111000010B582B0F02100200C4CA047C8
S214002A3000210620A04702210520A047F021012002
S214002A40A047F0210220A0476B46D91D00230B703B
S214002A500820044B98470448044B984702B010BD22
S214002A60A9290000D1290000D8200100C1BA000021
S214002A7000221CE0C821C9005143124B5B181249C2
S214002A80581800210180114818180180C620C0007F
S214002A90181801600E4818180160C720C0001818E2
S214002AA001600C488446634419600132D2B2012AA0
S214002AB0E0D90023084A1360084A13601371537163
S214002AC07047C046EC1300202A0600002C060000C3
S214002AD0340600003C0600006C2000208004002025
S214002AE010B500230EE0C821C9005943124A5218F7
S214002AF012495118098889B21148844662441180E7
S214002B000133DBB2012BEED9002206E00D4BD000DC
S214002B100021C1501B1859600132AE2AF6D9002395
S214002B20094A1360094A1360137153710849022059
S214002B30084B984710BDC046EC1300202C0600003A
S214002B402A060000740E00206C200020800400205E
S214002B50E82001006111000010B5014B984710BD38
S214002B60E12A000070B504000D0000280DD01021E9
S214002B702B001B2288204000054EB0472B00220069
S214002B8004490220044CA04770BD0F21F0E7C04660
S214002B90B1040000702101006111000070B504004E
S214002BA00D0000280DD010212B0015228820400093
S214002BB0054EB0472B00220004490220044CA047D3
S214002BC070BD0F21F0E7C046B1040000A02101004F
S214002BD061110000F0B5C64600B586B080460023F9
S214002BE00593FDE0834DC826F6006643AE19824B7A
S214002BF09C4666443388C8277F006743DB19DA3370
S214002C009B00EB18596805987C4B984700207C4B36
S214002C109847338832883188C91989004959DB19A1
S214002C20DA339B00EB185B68411A0291D2199200C6
S214002C30525901920090220072490220724EB0470B
S214002C40C823DB0063436B4EF618704BF21813680C
S214002C5001331360684B9C46664430880130AF21D0
S214002C606B4B984789B23180C822D2006243614BD1
S214002C709B18614A9A18128892B266498C46634439
S214002C801B889BB29A4200D1A6E05A49C823DB00B3
S214002C906343CB18584A944663441B88C8225200A4
S214002CA062439B189B005B584246D31A00D593E0BC
S214002CB0C822D20062434F4B9A184F4BD3181B883A
S214002CC09B18AF229200944663441B78002B00D1D9
S214002CD088E7C822D2006243464B9A18464BD31860
S214002CE01B889B18AF229200944663441B78012BE6
S214002CF030D0494B98473F4DC826F6006643AE197C
S214002D003D4B9C4666443388C8277F006743DB19E3
S214002D10DA339B00EB1859680598404B984700201B
S214002D20374B9847338832883188C9198900495902
S214002D30DB19DA339B00EB185B68411A0291D21953
S214002D4092005259019200902200354902202E4EE0
S214002D50B04775E7274DC826F6006643AE19264BE2
S214002D609C4666443388C8277F006743DB19DA33FE
S214002D709B00EB1859680598204B98470A20294B6A
S214002D8098473388DB19DA339B00EB1859680598A7
S214002D90224B9847244B1A68516F80231B010B4324
S214002DA053670020164B9847338832883188C919F4
S214002DB089004959DB19DA339B00EB185B68411A26
S214002DC00291D2199200525901920090220017499E
S214002DD002200D4EB04733E7059D0135EBB2059353
S214002DE0059B012B01D8059C3EE706B004BC904627
S214002DF0F0BDC046EC1300202A060000652B00003C
S214002E0041A50000D0210100611100003406000039
S214002E10FD7B00002C060000811900009D2B0000A1
S214002E2088220100D9680000040000202822010042
S214002E3010B5022827D00ED9032819D0042816D199
S214002E4016490020164B9847002304220F211548E8
S214002E50154CA0470BE0012809D114490020104B5F
S214002E609847002306220F210E480F4CA04710BD9E
S214002E700F4900200A4B9847002303220F210948D8
S214002E80094CA047F3E70B490020054B9847002361
S214002E9005220F210348044CA047E8E72023010041
S214002EA06111000002040000B1040000E0220100ED
S214002EB0F82201004823010010B5012803D901209B
S214002EC0094B984710BDC823DB004343074AD21876
S214002ED0C623DB009C46624411600B0002000449D6
S214002EE00220044CA047EDE7312E0000EC13002032
S214002EF0682301006111000010B5002909D00128DF
S214002F000AD90120104B984710490020104B9847CB
S214002F1010BD104B9847FBE70F4B19601871012145
S214002F205971C821C90041430C484018C521C90041
S214002F308C46604402701A681B79DBB2084902208E
S214002F40034CA047E4E7C046312E0000A82301004A
S214002F5061110000592B000080040020EC130020B3
S214002F60C8230100F0B5D6464F4680B589B00400A8
S214002F700D000792012824D8B24B5B79002B2CD089
S214002F80B04B1B79DBB298422FD1AE4B1E680022A5
S214002F905A71AF213000AC4B98470F00CA00AB4BBC
S214002FA09B185B689E4228D00320A94B9847FF00D9
S214002FB0A64BDF197B683200A6490020A64CA04726
S214002FC006E00120A24B9847A4490020A24B984750
S214002FD009B00CBC91469A46F0BD04209C4B98471D
S214002FE09F4900209C4B9847F2E70420984B98474F
S214002FF09C490020984B9847EAE7CF00934BFB5834
S2140030009946C822D2006243974B9B18C622D2002C
S214003010944663441B689A464F4657447F193800C7
S214003020924B98479249934B9847934B98470490F6
S214003030059103970295534601934B460093330040
S21400304022008E490320844DA84700208C4B9847C9
S2140030500500C31B00D49DE001231B1B9946C82214
S214003060D2006243804B9B18864A9A18128892B206
S21400307085498C4663441B889BB29A4218D07A4B8B
S2140030809A46C823DB006343534463441888AE3033
S214003090AF216D4B98470904090CC8235B006343B6
S2140030A05B18DA339B0053445B689E4200D189E08C
S2140030B0C822D2004B465A436B4B9B18714A9A184B
S2140030C0128892B270498C4663441B889BB29A421F
S2140030D01AD0654B9A46C823DB004A4653435344EE
S2140030E063441888AE30AF21574B98470904090C43
S2140030F0C8235B004A4653435B18DA339B005344AD
S2140031005B689E4200D17EE0C823DB006343564ADC
S214003110914699445C4B4B4418880130AF214A4B8A
S214003120984789B2574B4B441B889BB28B4200D1C1
S2140031307CE04D48C822D20062438218524B9C461F
S214003140944463461B889A46C8235B0063439946AB
S21400315053464B449B001F5063461B889A18AF2368
S2140031609B009A4652446B461B7F137063461B882F
S2140031704B44DA339B00C3185E60634619807B1BA2
S2140031800293019700953300220040490220324CFA
S214003190A0471DE7C823DB006343334CE418C7236E
S2140031A0DB009C4664442368013323600320284BDD
S2140031B09847EA1B01970095330035490020264CB6
S2140031C0A04705E75546C823DB0063439946D1442C
S2140031D02D4B4B441888AE30AF211B4B9847090443
S2140031E0090CC8235B005C436418A3005F51494484
S2140031F0AF239B00CB186A46127F1A70DA34A400FD
S2140032002C196660E4E6C822D2004B465A43534661
S2140032109B181D4A914699444B461888AE30AF21FC
S214003220094B984789B24B4619806DE74C46194BB7
S2140032309C4664442368013323600220044B98476D
S214003240C6E6C04680040020FD7B0000740E002009
S214003250312E00007824010061110000A82301002F
S214003260FC23010030240100EC13002085EA000056
S214003270610B3643EDE0000001070100B0240100B9
S21400328041A500002A0600002C0600008C2501003F
S214003290282501003C06000010B501280FD8C822DA
S2140032A0D20042430C4B9B18C522D200944663447E
S2140032B01B78002B0BD00122084B984706E0012014
S2140032C0074B984707490020074B984710BD002238
S2140032D0024B9847FAE7C046EC130020652F000023
S2140032E0312E0000A82301006111000070B5C02433
S2140032F0E4058025ED059823E5500120064B984708
S2140033008023DB01E3619423E550044B1C68044BE7
S2140033109847206470BDC046B968000004000020CD
S214003320BDA20000F0B5CE46474680B583B0BB4B85
S2140033301C68002C4AD0A56A23004C339B8B9BB29A
S214003340002B03D123004C3303229A830020B44B76
S2140033509847636DC01AC317C018584023004C33F3
S2140033609B8B626E5343984205D9AC4B1B685A6FD1
S214003370920500D45B6FA94B1B685A6F920507D560
S21400338022006E321278002A02D05B6FDB0422D550
S214003390A24B1B685A6F920502D55A6FD20425D5E8
S2140033A09E4B1B685B6FDB0405D523006E331B78D2
S2140033B0002B00D17AE023006E331B78002B00D060
S2140033C07DE003B00CBC90469946F0BD95490020C0
S2140033D0954B9847F5E795490120934B98478F4BB7
S2140033E01A68516F924B0B405367D1E7596F904A5A
S2140033F00A405A6700208A4B9847804623006F335E
S2140034001B78002B07D0854B1B685A6F120502D419
S2140034105B6FDB042FD5814B1A68516F854B0B40D1
S2140034205367666D43469E1BF217B31853401E0043
S214003430676EBB00DB19980064217F4B98473B18EA
S2140034403A1A964225D39E4203D823004C330022D4
S214003450DA83626D43469A1AD317D2185A407749D0
S2140034600320714B9847434663652365012223007A
S2140034706E331A7094E723006F3300221A7060656B
S21400348020656E34012323706D490320664B9847F0
S21400349097E7019600976B490120634CA0475F4B66
S2140034A01A68516F624B0B4053678AE7012223006C
S2140034B06E331A7000205A4B984720657BE7002031
S2140034C0574B98470600E36D002B32D1236DC31A85
S2140034D0DA179B1853409D4200D972E75A4B98471B
S2140034E022004C32138C01339BB21384002223003B
S2140034F06E331A70494B1B685B6FDB040CD5236D6B
S214003500226DB21AD11752184A40009232004F4923
S2140035100320454CA04754E7236D226DB21AD117FD
S21400352052184A4000923200494903203E4CA047B8
S21400353047E7236DC31ADA179B1853409D4200D9FC
S2140035403FE7236E01332366E26D93422ED23E4B55
S2140035509847002223006E331A70304B1B685B6F4F
S214003560DB0411D5226EE36D3A4903202E4DA847A1
S214003570236D226DB21AD11752184A4000923200BB
S21400358032490320A8471CE7226EE36D3249032028
S214003590254DA847236D226DB21AD11752184A40FE
S2140035A0009232002A490320A8470AE72B4B984787
S2140035B0254B9847194B1B685B6FDB0426D5226E9C
S2140035C0E36D27490320184DA847144B1A68516F1E
S2140035D0244B0B40536722006E32002313704C229C
S2140035E0A35423660D4B1B68596F1F4A0A405A673F
S2140035F0596F802212010A435A67596F20220A43E4
S2140036005A67596F102291435967DAE6226EE36DC6
S21400361016490320044DA847DDE7C04604000020F5
S21400362041A50000E8250100611100001C260100EC
S214003630FFFDFFFFFFF7FFFF897B0000D826010094
S2140036405C2601008C260100ED32000000270100F8
S2140036504027010080270100A827010081190000EB
S214003660D0270100FFEFFFFFFFFBFFFF1028010040
S21400367010B50E4B1B685A6F120513D44C229A5C79
S214003680D2B2012A0CD0022A0DD05A6F920509D563
S2140036909A6D01329A65596F054A0A405A6701E0E9
S2140036A0044B984710BD034B9847FBE704000020E7
S2140036B0FFFDFFFF253300007047000010B5124BDA
S2140036C09847124B1B68C31A952B0ED8104B1B68D5
S2140036D05C6F80229200210011435967D8630B4B20
S2140036E01860C023DB05DA6110BD094B1B685C6FF0
S2140036F080229200210011435967D863034B18605B
S214003700C023DB05DA61EFE7BDA2000088040020D5
S2140037100400002070B504001F4E32005C211F4DCF
S214003720A84732005D212000A8471D4EB2685E21E2
S2140037302000A84732225F212000A84700226021EF
S2140037402000A847174A61212000A847164A622190
S2140037502000A847032252212000A8470922502112
S2140037602000A847092251212000A847328AB189A3
S21400377020000E4B9847328BB18A20000C4B98479E
S214003780328CB18B20000B4B9847328DB18C2000C9
S214003790094B984770BDC046FF7F000075A3000028
S2140037A01808002001000080FFFFFF7F91A50000A1
S2140037B0A5A50000B9A50000CDA5000070B50500C0
S2140037C03E4A1B213E4CA047002217212800A04756
S2140037D03C4A18212800A0473B4A19212800A04748
S2140037E007221A212800A047384A0A210020A047AD
S2140037F0374A04210020A0478026B605320005215E
S2140038000020A047320006210020A047314A0721A9
S2140038100020A047304A09210020A0472F4A08214F
S2140038200020A04700221F212800A04700222021B8
S2140038302800A047002221212800A047002223219B
S2140038402800A047022252212800A0470822632110
S2140038502800A047002229210020A047012252214B
S2140038600020A04700221C210020A047FA221201B7
S21400387024210020A047FA208000194B9847194EB3
S21400388032005C212800A04732005D212800A047B6
S214003890154B9A685E212800A04700226021280068
S2140038A0A047124A61212800A047114A6221280039
S2140038B0A04703226D210020A04770BD3200020001
S2140038C075A300009F0F00001919000000010018E2
S2140038D0100010004E014E0197814100C581410045
S2140038E0D9680000FF7F0000180800200100008053
S2140038F0FFFFFF7F70B5040000221A214C4DA84739
S21400390000221B212000A847002217212000A847DC
S214003910002218212000A847002219212000A847CD
S21400392000220A212000A847002204212000A847E0
S214003930002205212000A847002206212000A847D3
S214003940002207212000A847002209212000A847BE
S214003950002208212000A84700221F212000A84797
S214003960002220212000A847002221212000A8476D
S214003970002223212000A847002252212000A84729
S214003980002263212000A847002224212000A84707
S214003990002226212000A847002227210020A84731
S2140039A000225C212000A84700225D212000A847B5
S2140039B000225E212000A84700225F212000A847A1
S2140039C0002266212000A847002261212000A84787
S2140039D0002262212000A847002252212000A8478A
S2140039E0002250212000A847002251212000A8478D
S2140039F0002263212000A847002268212000A84753
S214003A0000226B212000A847002260212000A84742
S214003A10002200212000074B9847002200212000AA
S214003A20054B9847002200212000044B984770BDA4
S214003A3075A3000071A50000B9A50000CDA5000083
S214003A40F0B583B005000E00564CA088564FB84718
S214003A5000230122292101952800544DA84701235F
S214003A60002252210198A847002301222421019810
S214003A70A847330000222421019E3000A8470023D7
S214003A8000221C213000A847FA204000B847484FC3
S214003A90484E3A680F213068474DA84780235B019F
S214003AA0E3653A6830681021A847002831D18024A1
S214003AB064013F4E3F4F3268112138683E4DA8479B
S214003AC0384B9865326838681221A847002822D1FA
S214003AD080256D01394B1B78012B35D0002B1CD06F
S214003AE0022B48D0042B52D000222721019C200014
S214003AF0334DA847002252212000A847FA20400054
S214003B00294B984701222A2120002E4B984703B0C4
S214003B10F0BD0024CDE70025DCE7220025210020AB
S214003B20274EB0471F4FFA6D26210198B0472A004E
S214003B302C210020B047BA6D2D210020B04700226E
S214003B402E210020B047CFE72200252100201C4E62
S214003B50B047144FFA6D26210198B0472A002C2151
S214003B600020B047BA6D2D210020B04700222E213C
S214003B700020B047B8E70B4BDA6D2621019E3000D7
S214003B800F4DA847220025213000A847ACE72200A9
S214003B90252100200A4DA847024BDA6D2621019800
S214003BA0A847A1E718080020D968000031A4000043
S214003BB0200000201C0000203D5A00008408002041
S214003BC075A3000011A4000070B508226321002030
S214003BD00B4CA04700221F210020A047094D2A6851
S214003BE020210020A0476A6821210020A047AA685B
S214003BF024210020A047022252210020A04770BDA9
S214003C0075A300000408002010B580214900982301
S214003C10C022D205D150FD390020174B98476023AB
S214003C20164AD35C002B03D10022154B5A7210BDE6
S214003C3000200021134B18605960002263210020E9
S214003C40114B984700210020104CA0470C4B002237
S214003C505A725A611A61002100200D4B98470D498F
S214003C6000200D4B9847054BD96A0020A04703213A
S214003C700020014B9847DAE751A5000018080020FD
S214003C80F40A0020F007002075A30000A5A4000099
S214003C9031A500006A040100D5A4000030B583B049
S214003CA00023C94A53706A46D41DD37121000720E9
S214003CB0C64B98472378002B01D103B030BDC449CA
S214003CC00320C44B9847C44B5C689D68636F5B04D5
S214003CD008D4E378012B05D0636F5B0702D4636FCB
S214003CE09B0775D5636F5B046DD5BC490320B94B44
S214003CF09847002C00D188E0B3490820B34B98477A
S214003D00B7490320B34B98476378002B00D0CBE12C
S214003D10AD4B1B78DB0600D5A7E0AB4B1B789B06AC
S214003D20CBD56379DBB223716379DBB2A371AD497E
S214003D300320A84DA847607800222221AA4B984766
S214003D40AA490320A847636F5B0702D4636F5B042E
S214003D50B3D5626F04239A4362672000A44B98474A
S214003D60607800222221A04B9847A2490320994B55
S214003D7098470023E37023636363226B2262616FBC
S214003D800822914361679C4A1370636F5B0400D4FA
S214003D907DE1636F1B0400D560E1984902208D4BDE
S214003DA09847626F042313436367626F80231B0286
S214003DB0134363672000924B9847226A9149032079
S214003DC0844B984779E790490320824B984790E7C1
S214003DD06B6F5B0408D4EB78012B05D06B6F5B0729
S214003DE002D46B6F9B070ED56B6F5B0405D58749B6
S214003DF00320784B98472C007BE785490320754BBA
S214003E0098472C0075E7002473E782490120714D1E
S214003E10A8476D4C210008206C4B9847704903203A
S214003E20A8472378DB0611D4674B1B789B0612D471
S214003E30654B1B785B0613D4634B1B78DB0900D1FC
S214003E403BE775490320634B984736E773490320E1
S214003E50604B9847E8E7724903205E4B9847E7E7D0
S214003E60704903205B4B9847E6E76379DBB2237122
S214003E706379DBB2A3716C490320564B9847200048
S214003E806A4B9847002844D069490020514DA847FE
S214003E90607800222221544B984756490320A847B1
S214003EA02000534B9847636F5B041CD5636F5B041D
S214003EB026D40023E37023636363226B2262616F60
S214003EC05C4A0A406267616F082291436167616FCE
S214003ED0022291436167484A1370E26956490320FB
S214003EE03C4B984719E785204000544B1860A27851
S214003EF0534B1A700E225A701968524B9847D8E7DF
S214003F00A178C9B200231122852040004E4DA84753
S214003F10CFE7607800222221334B98474B49022096
S214003F202C4B9847636F9B0703D4636F5B0400D4E6
S214003F30F3E6626F02239A43626720002C4B984791
S214003F40236BE361626F08239A43626700232A4A61
S214003F501370E370636F5B0429D5636F1B0415D47D
S214003F603B4902201B4B9847626F04231343636749
S214003F70626F80231B02134363672000354B98470C
S214003F80E26935490320134B9847C6E6626F294B12
S214003F901340636785204000284B1860A278284BA2
S214003FA01A7011225A701968264B9847E8E7852040
S214003FB04000224B1860224B04221A700A325A70B4
S214003FC01968204B9847DBE788080020D1290000B5
S214003FD01029010061110000740400202829010046
S214003FE0DC290100E42B0100E1AB0000FC2B010002
S214003FF065A60000A42A0100E40A0020442C010063
S214004000091C0000BC2C010044290100682901009D
S21400401084290100A82901004C2A0100EC2901008E
S2140040200C2A01002C2A0100B01301004D1A0000D2
S2140040306C2A0100FFBFFFFFD02A0100C00A002043
S214004040A00A002085040000B1040000102B010027
S214004050582B0100951C0000A02B0100A849022047
S214004060A84B9847626FA84B13406367626FA74BD5
S2140040701340636785204000A54B1860A278A54BC7
S2140040801A7011225A701968A34B984795E6852036
S21400409040009F4B18609F4B05221A7009325A70D9
S2140040A019689D4B984788E66378012B00D004E694
S2140040B09A4B1B785B0654D4984B1B78DB0900D1CF
S2140040C0FBE56379DBB223716379DBB2A3719449B4
S2140040D003208C4DA847607800222221914B9847F8
S2140040E091490320A847636F5B0700D4E5E5626F3C
S2140040F004239A43626720008C4B9847607800221E
S2140041002221884B98478A4903207E4B98470023F4
S214004110E37023636363226B2262616F082291431C
S2140041206167844A1370636F5B0400D4DBE0636FDF
S2140041301B0400D5BEE080490220724B9847626F90
S214004140042313436367626F80231B021343636772
S21400415020007A4B9847E26979490320694B9847D3
S214004160ABE56379DBB223716379DBB2A371754982
S2140041700320644B98472000734B984700284CD088
S214004180724900205F4DA847607800222221654BC7
S214004190984767490320A847626F02239A436267DD
S2140041A02000624B9847636F5B041CD5636F5B040B
S2140041B026D40023E37023636363226B2262616F5D
S2140041C0514A0A406267616F082291436167616FD6
S2140041D0022291436167574A1370E2695C490320E3
S2140041E0484B984768E785204000494B1860A278FE
S2140041F0484B1A700E225A701968474B9847D8E7F2
S21400420085204000424B1860A278424B1A7011225B
S2140042105A701968404B9847CBE7607800222221F5
S214004220404B98474B490320364B9847636F9B0794
S21400423000D441E7626F02239A43626720003B4B3B
S2140042409847607800222221364B98473849032049
S2140042502C4B98470023E370226BE261616F0822C3
S21400426091436167334A1370636F5B0415D5626FC1
S214004270254B1340636785204000254B1860A278C5
S214004280244B1A7011225A701968234B9847E2691A
S2140042902F4903201B4B98470EE7852040001C4BF8
S2140042A018601C4B04221A700A325A7019681A4B8E
S2140042B09847ECE712490220124B9847626F124B60
S2140042C013406367626F114B13406367852040009D
S2140042D00F4B1860A2780F4B1A7011225A7019688B
S2140042E00D4B984737E785204000094B1860094B6F
S2140042F004221A700A325A701968074B98472AE740
S2140043008C2C010061110000FFBFFFFFFF7FFFFF45
S214004310C00A0020A00A00208504000088080020AB
S214004320482D0100E1AB0000FC2B010065A6000053
S214004330A42A0100E40A0020442C0100091C000005
S214004340BC2C0100201401004D1A00006C2A01004C
S214004350A02B0100002D010010B507495420074C82
S214004360A04707495120A04706493520A0470649DF
S2140043705520A04710BDC046BD360000716900003C
S214004380B936000065290000E1A5000070B5051CDF
S2140043900C001600002200231E490A604B601E49CE
S2140043A00A604B60002100201C4B9847002E28D046
S2140043B0281C1B4B9847010000201A4B98471A4BA5
S2140043C01C601A481A4B984703210020194B98473F
S2140043D00022194B1A700132184B1A70184B1B79B1
S2140043E0002B07D1A333174AD35C002B02D101223E
S2140043F0154B1A701548164B98471648164B984793
S21400440070BD281C064B984701000020134B9847A8
S214004410D5E7C04620070020B80A0020A5A4000063
S21400442045EA0000C5A400004C0B002090080020C0
S214004430E59F000051A5000039070020880A0020EB
S214004440F40A002040070020B00A0020E0200020E8
S214004450E56C00004C210020A96C0000D5A40000EB
S214004460F0B5DE4657464E464546E0B595B0A34BFA
S2140044709B78002B06D115B03CBC90469946A246C8
S214004480AB46F0BD00229D4B9A7000209C4B98478F
S21400449000280AD000209B4B98479B4B1A78072A87
S2140044A0E9D89300994AD3589F460321984B9847DA
S2140044B0F0E70020934B9847904DAE69EF69954C16
S2140044C0A04732003B00944EB047944B9847C31722
S2140044D0C01858402E6F6F6FA047012432003B0073
S2140044E08F4DA847002800D10024E4B2002C41D00C
S2140044F0012CC0D1814B3133FF3318685968894B82
S2140045009847894B1C685D6822002B00874EB04791
S214004510002811D0864B1A6D5B6D864E2000290050
S214004520B04702000B0080490A604B60824C20684E
S2140045306168B04720606160804C7F4B1A685B689A
S214004540226063606D4BF83318685968754B98475E
S2140045506568246822002B00744EB047002800D1FE
S21400456089E7200029006D4B984701000020744B16
S214004570984780E70020634B9847604DAE69EF6927
S214004580644B9A469847644C32003B00A047634B06
S21400459098469847C217831853402E6F6F6F0D9337
S2140045A01800D04732003B00A047EC246400C04708
S2140045B02851F8218A46AA44514608684968594E47
S2140045C0B046B0475C4B18605960296F6A6F0E9111
S2140045D00F9200225B4B5449086849685A4EB04710
S2140045E01290139129003131FF3108684968C0479D
S2140045F0109011910020554B9847834656463068D8
S2140046007168C0472C590A94089009915C46069434
S2140046101099119A049105921299139A0291039295
S2140046200E9B0F9C009301940D9A49490320494B19
S2140046309847AA23FF33EA5C0023012191425B419D
S214004640DBB2911E4D424D41D01E41424141C8B29F
S2140046502B430AD1002808D1043AD2B2012A00D945
S21400466009E70122284B1A7005E70222264B1A702A
S21400467001E70020234B9847204DAE69EF69254C93
S214004680A04732003B00244EB047244B9847C31740
S214004690C0185840AE6FEF6FA047012432003B00B1
S2140046A01F4DA847002800D10024E4B2002C53D0A8
S2140046B0012C00D0DFE6114B0133FF331868596830
S2140046C0184B98471D4B1A685B68184CA047002883
S2140046D000D1D0E6184C144B1A685B6820686168F5
S2140046E0144DA84720606160144B186059600B4B4E
S2140046F0984701000020124B9847BCE6900800201F
S21400470061A5000041A500003907002050280100DF
S21400471051A500000D06010039FF0000A5050100A7
S214004720C1DF0000E1040000B80A0020FDDF000041
S21400473018080020B1EB000020070020800A0020A7
S214004740A5A4000000408F4039FA000095A40000A0
S214004750882D0100611100000020C14B9847C14D13
S214004760AE69EF69C04B9A469847C04C32003B0092
S214004770A047BF4B98469847C21783185340AE6F62
S214004780EF6F0D931800D04732003B00A047EC2493
S2140047906400C0472851691CFF318A46086849688A
S2140047A0B44EB046B047B44B18605960A96FEA6F74
S2140047B00E910F920022B14BB14908684968B14E7C
S2140047C0B0471290139129003931FF3108684968C3
S2140047D0C047109011910020AB4B98478346564631
S2140047E030687168C0472C590A94089009915C4655
S2140047F006941099119A049105921299139A0291AF
S21400480003920E9B0F9C009301940D9A9F490320E0
S2140048109F4B984702229F4B1A702CE60020904B25
S2140048209847904CA669E7698F4DA84732003B0031
S2140048308E4EB0478E4B9847C317C01858408034EA
S21400484026686768A847012432003B00924DA847B7
S214004850002800D10024E4B2002C44D0012C00D063
S21400486009E6804B4133FF3318685968814B9847F7
S214004870834B1C685D6822002B00884EB0470028DA
S21400488012D0874B1A6D5B6D20002900774CA0472D
S21400489002000B007A490A604B60774C206861681A
S2140048A0804DA847206061607F4C734B1A685B6838
S2140048B0226063606B4B0933FF33186859686D4B91
S2140048C098476568246822002B00784EB047002879
S2140048D000D1D0E520002900654B98470100002054
S2140048E0734B9847C7E500205D4B98475D4CA6691B
S2140048F0E7695D4B9A4698475C4D32003B00A847F7
S2140049005B4B9B469847C2178318534080229046BD
S214004910A0444246166857680D931800D0473200E8
S2140049203B00A847EC235B009946D8474B46E0502F
S214004930842149008A46A2445146086849684D4E7B
S214004940B0474D4B1860596041464A6809680E9159
S2140049500F924B4F0022494B38687968494DA8475B
S2140049601290139121004131FF3108684968B04721
S214004970109011910020444B98478046524610688C
S2140049805168B0474B46E6580A9608900991464645
S2140049900696109D119E04950596129813990290FE
S2140049A003910E990F9A009101920D9A41490320A6
S2140049B0374B9847002200233A607B60AA23FF33D8
S2140049C0E35C594259419A1E5442544121431A1FEE
S2140049D054425441E2B2002915D1002A13D15A1E7E
S2140049E054425441D91E4A424A412243053B58424A
S2140049F05841C3B2002A02D1002B00D13BE5042265
S214004A00244B1A7037E50322224B1A7033E5002038
S214004A10134B9847134CA669E769134DA847320015
S214004A203B00124EB047124B9847C317C018584069
S214004A30883426686768A847012432003B00164D74
S214004A40A847002800D10024E4B2002C34D0012C62
S214004A5000D010E500200021094B186059600AE5D7
S214004A6041A50000900800200D06010039FF000057
S214004A70A5050100E10400002007002000408F404B
S214004A80B80A002039FA000095A40000B82D0100ED
S214004A906111000039070020C1DF0000D5DF0000EB
S214004AA018080020B1EB0000800A0020FDDF00009F
S214004AB0A5A40000E82D01000020D04B9847D04D5B
S214004AC0AE69EF69CF4B9A469847CF4C32003B0011
S214004AD0A047CE4B9B469847C21783185340882260
S214004AE09146A9444A46166857680D931800D04761
S214004AF032003B00A047EC246400D84728518821A8
S214004B0049008B46AB44594608684968C04EB046D3
S214004B10B047C04B1860596049464A6809680E910C
S214004B200F920022BC4BBD4908684968BC4EB0478E
S214004B301290139129004931FF3108684968C0472F
S214004B40109011910020B74B984781465E4630681A
S214004B507168C0472C590A94089009914C460694EF
S214004B601099119A049105921299139A0291039240
S214004B700E9B0F9C009301940D9AAB490320AB4B00
S214004B8098470422AA4B1A7075E400209B4B98475E
S214004B909B4CA669E7699B4DA84732003B009A4E9E
S214004BA0B0479A4B9847C317C018584090342668A9
S214004BB06768A847012432003B009E4DA84700289E
S214004BC000D10024E4B2002C47D0012C01D0FFF71E
S214004BD052FC8B4B5133FF33186859688C4B9847FF
S214004BE08E4B1C685D6822002B00934EB047002851
S214004BF012D0924B1A6D5B6D20002900824CA047A4
S214004C0002000B0085490A604B60824C2068616890
S214004C108B4DA847206061608A4C7E4B1A685B68A3
S214004C2022606360764B1933FF3318685968784BF7
S214004C3098476568246822002B007F4EB0470028FE
S214004C4001D1FFF718FC20002900704B984701009F
S214004C5000207D4B9847FFF70EFC0020674B9847D7
S214004C60674DAE69EF69674B9A469847664C3200C7
S214004C703B00A047654B9B469847C2178318534096
S214004C8090229146A9444A46166857680D93180024
S214004C90D04732003B00A047EC246400D847285198
S214004CA08C2149008B46AB44594608684968584EE3
S214004CB0B046B047574B1860596049464A6809687D
S214004CC00E910F920022544B544908684968544E7E
S214004CD0B0471290139129005131FF310868496896
S214004CE0C0471090119100204E4B984781465E4673
S214004CF030687168C0472C590A94089009914C4650
S214004D0006941099119A049105921299139A029199
S214004D1003920E9B0F9C009301940D9A4B4903201F
S214004D20424B9847AA23FF33EA5C002301219142B5
S214004D305B41DBB2911E4D424D41D01E4142414186
S214004D40C8B22B430CD100280AD1043AD2B2012AA9
S214004D5001D9FFF790FB0522354B1A70FFF78BFB46
S214004D600622334B1A70FFF786FB0020234B98472A
S214004D70234CA669E769234DA84732003B00224E24
S214004D80B047224B9847C317C01858409834266837
S214004D906768A847012432003B00264DA847002834
S214004DA000D10024E4B2002C52D0012C01D0FFF731
S214004DB062FB134B2133FF3318685968144B98472E
S214004DC0204B1A685B681C4CA047002801D1FFF7EF
S214004DD052FB104C114B1A685B6820686168184DCE
S214004DE0A84720606160174B18605960074B9847CA
S214004DF001000020144B9847FFF73DFB41A500003B
S214004E00900800200D06010039FF0000A5050100EE
S214004E10E10400002007002000408F40B80A002070
S214004E2039FA000095A40000182E01006111000058
S214004E3039070020C1DF0000D5DF00001808002079
S214004E40B1EB0000800A0020A5A40000482E010057
S214004E500020E04B9847E04DAE69EF69DF4B9A467D
S214004E609847DF4C32003B00A047DE4B9B469847F6
S214004E70C2178318534098229146A9444A4616689A
S214004E8057680D931800D04732003B00A047EC242B
S214004E906400D8472851902149008B46AB445946B8
S214004EA008684968D04EB046B047D04B1860596085
S214004EB049464A6809680E910F920022CC4BCD49AC
S214004EC008684968CC4EB0471290139129005931B2
S214004ED0FF3108684968C047109011910020C74B01
S214004EE0984781465E4630687168C0472C590A94D8
S214004EF0089009914C4606941099119A04910592CF
S214004F001299139A029103920E9B0F9C00930194A0
S214004F100D9ABB490320BB4B98470622BA4B1A7022
S214004F20FFF7A9FA0020AB4B9847AB4DAE69EF6987
S214004F30AA4CA04732003B00A94EB047A94B984761
S214004F40C317C0185840AE6DEF6DA047012432005D
S214004F503B00AE4DA847002800D10024E4B2002C48
S214004F6035D0012C01D0FFF786FAA94B1B79002B10
S214004F7025D0A84B186859680022A74BA74CA04715
S214004F80002801D1FFF777FAA54B186D596D994C9B
S214004F90A44D22686368A84720606160934C22682D
S214004FA06368A847206061609A4B186059608D4B13
S214004FB09847010000209C4B9847FFF75CFA9B49F6
S214004FC00320904B98470122914B1A71D1E700209D
S214004FD0804B9847804DAE69EF69804B9A4698475C
S214004FE07F4C32003B00A0477E4B9B469847C2173B
S214004FF083185340A0229046A84442461668576835
S2140050000D931800D04732003B00A047EC24640004
S214005010D8472851942149008B46AB445946086826
S2140050204968714EB246B047704B186059604146A9
S2140050304A6809680E910F9200226D4B6D49086808
S21400504049686D4EB0471290139129006131FF31C7
S21400505008684968D047109011910020674B984720
S21400506080465E4630687168D0472E590A9608908A
S2140050700991464606961099119A0491059212993E
S214005080139A029103920E990F9A009101920D9A2B
S214005090674903205B4B984700232B51654B1B78D1
S2140050A0013BDBB2012B07D96348644B9847624843
S2140050B0624B9847FFF7DFF90722534B1A70F6E763
S2140050C05C4B1B78012B17D0022B01D0FFF7D3F9CE
S2140050D000205B4B9847524B5C6B5A4B1C605A4BFC
S2140050E01B78012B41D0002B1FD0022B5DD0012254
S2140050F0504B1A70FFF7BFF90020514B9847484BAA
S214005100596B504B1960514B1B78002B08D001226D
S2140051104F48504B98470222464B1A70FFF7ABF9A0
S21400512001224D484B4B9847F5E7484B1B78002B20
S2140051300FD04A4B186A4A4DA8474A494A4B9847E7
S2140051404A4B98474042A84701222100414B9847C6
S214005150CDE7424B186A424B98474249424B984724
S214005160002221003B4B9847C1E7384B1B78002BA9
S2140051700FD03A4B186A3A4DA8473D493A4B9847E4
S2140051803A4B98474042A84701222100314B9847A6
S214005190ADE7324B186A324B98473549324B984741
S2140051A0002221002B4B9847A1E7284B1B78002BA9
S2140051B060D02A4B186A2A4DA8472A492A4B984796
S2140051C02A4B98474042A84701222100214B984786
S2140051D08DE7C04641A50000900800200D0601009E
S2140051E039FF0000A5050100E104000020070020AB
S2140051F000408F40B80A002039FA000095A400004D
S214005200782E01006111000039070020C1DF000080
S21400521088040020800A002000002440E9DF000007
S21400522018080020B1EB0000A5A40000A82E01007D
S214005230B02E0100010800204C210020E56C000083
S214005240D96800004C0B00208408002012080020BB
S214005250004021C68D43000085422146F40A002006
S21400526085EA0000269349470DE7000045EA00005E
S2140052702693C947054B186A054B98470549064BC0
S214005280984700222100054B984730E7F40A002093
S21400529085EA0000269349470DE700008D4300008D
S2140052A010B5364B1B684C229A5C022A10D00020A0
S2140052B0334B9847C317C0185840182803DC314AA8
S2140052C01368013313602F4B1B68312B0BD810BDAE
S2140052D06E329B5C002BEAD02B4B98472B4B1B78EF
S2140052E0002BE4D1F3E70024264B1C600020244B5F
S2140052F09847274B1860254B1C70264B1C70264B76
S2140053001C70A123254AD4541C4B1B684C229A5C63
S214005310022A16D085204000214B1860214B01221E
S2140053201A7010325A7019681F4B98471F48204B46
S2140053309847204B1B78022B15D01F481F4B9847C9
S214005340C5E76E329A5C002AE4D0002270215A54D7
S21400535024395A54596F1A4A0A405A671949032081
S214005360194B9847D6E70422184B1A701248184B68
S21400537098470122074B1A70A9E7C0460400002090
S21400538011A50000440B002071360000B00A002072
S214005390EC070020880A0020FF07002040070020B6
S2140053A0C00A0020A00A002085040000182F010073
S2140053B0C1BA0000010800204C210020E56C000066
S2140053C0FFFBFFFFE02E0100611100009C0A002099
S2140053D0A96C0000F0B5CE46474680B583B0664B54
S2140053E01B68002B6ED0654A137802218B4313701E
S2140053F00020634B984705005F4B1B681C69002024
S214005400604B9847060000205F4B9847022803D061
S214005410022100205D4B98475D4B98475D4B186016
S214005420554B1B685A6F520502D55B6FDB044ED591
S214005430514B1B689A6A002A12D0574A5279002AA2
S2140054400ED05A6F52050BD4534A9268921BD1174E
S21400545052184A40996A8A4202D35B6FDB0439D4F9
S21400546030004E4B98474C4B5B79002B4FD0A542F3
S2140054705EDD20004A4B9847041C474BDD68291C1C
S214005480484B9847002815D0474B1E6C5F6C281C6D
S214005490464B984732003B00454DA847454B98473A
S2140054A0011C3D4BD860201C3E4B9847002801D07D
S2140054B0394BDC60384BD8683F4B984701000020DA
S2140054C03E4B984703B00CBC90469946F0BD3C4B0B
S2140054D09847ADE73B4B98472F4B99469B689B1BDD
S2140054E0DA179B185340244A1068816AC91A364A4C
S2140054F094461268013267463A60806A01910090CD
S21400550032490320324FB8474B469E60A8E7224EEA
S2140055102800234B9847F06000201A4B9847B0604D
S214005520FA21890000202B4B9847012373719EE7D0
S214005530A542C7DA20001A4B9847041C164BDD68B4
S214005540291C254B98470028B4D0174B1E6C5F6C5F
S214005550281C164B984732003B00204DA847154B99
S2140055609847011C0C4BD860201C1B4B9847002802
S214005570A0D0094BDC609DE7040000202C0B002027
S21400558095A4000041A5000061A5000051A50000FB
S214005590BDA200003407002088040020D52B0000A0
S2140055A085EA000035E00000180800200107010029
S2140055B039FF0000A507010045EA0000B5A4000079
S2140055C071360000ED32000030070020742F010015
S2140055D061110000A5A400005DE00000B1EB000032
S2140055E010B50CE00278084B9A62074B1B7E5B07EF
S2140055F0FBD5054B9B6A0B70013101302200541E0F
S214005600E4B2002AEED110BD0004004210B50CE052
S2140056100278084B9A62074B1B7E5B07FBD5054B4F
S2140056209B6A0B70013101302200541EE4B2002A3E
S214005630EED110BD0010004270B5C024E4058025F0
S2140056406D039423E550D2B2024B98479823E55059
S214005650012070BD0D56000010B582B0040001A8F0
S2140056600523037000234370837003220449054B0F
S2140056709847002802D0024B5B78237002B010BD1A
S214005680980400203956000010B582B06B46DC1D29
S2140056902000034B98472378DB07F7D402B010BDF1
S2140056A05956000000B583B001A8062303700122F6
S2140056B00449054B9847002802D0002003B000BDDF
S2140056C00338FBE7980400203956000000B583B085
S2140056D001A89F230370002343708370C3700422C5
S2140056E00649074B9847002805D0044A5178054BD1
S2140056F01972D2785A7203B000BDC04698040020D2
S214005700395600009805002010B50E4B9847002823
S21400571017D00D4A0D4BDA60002203E008330B4920
S214005720CB600132052A0BD8084B1C7ADB68197946
S2140057308C42F3D105494C7A59798C42EED100E07F
S214005740002010BDCD560000942F010098050020C3
S21400575000B583B0044B9847002801D103B000BDC4
S21400576001A8024B9847F9E7095700005956000070
S21400577070B582B006000C0015000D4B984701A8C6
S21400578003230370330C4370330A8370C670221DE4
S21400579092B20849084B9847061E02D1300002B064
S2140057A070BD2200034904312800044B9847F5E7F2
S2140057B0895600009804002039560000C9B0000041
S2140057C0F0B5DE4657464E46C0B582B005000F001F
S2140057D0160021E001A8022303702B0C43702B0A4D
S2140057E08370C5702D193F1BC023DB0599468023A7
S2140057F05B039A4694234A465146D15004221349E5
S214005800134B9B469847E2B210493000D84798237E
S2140058104A465146D1503619002F0ED00D4B9847A8
S2140058200D4B984700280FD1FF242C4080235B00A7
S2140058301C1BA742CED23C00CCE7012002B01CBC09
S21400584091469A46A346F0BD0020F7E7980400204C
S2140058500D56000089560000A5560000F0B583B02E
S2140058600C1E5AD0002803D1802149002C4B196009
S2140058706B46D871073369468A71294A10681A0040
S2140058800121284B9847002802D1022003B0F0BD22
S2140058906B46DA79224D130029682348234EB04719
S2140058A02B68581C28606B469A1D01211D4B984793
S2140058B0002801D10220E9E76B469E1D9A79184D13
