:020000040000fa
:10000000f07f0020554200000b250000ab280000c7
:1000100000000000000000000000000000000000e0
:10002000000000000000000000000000c14a0000c5
:100030000000000000000000014400002d4a000004
:100040008f1a00008f1a00008f1a00008f1a00000c
:100050008f1a00008f1a00008f1a0000dd3900008f
:100060008f1a00006f4f0000674f00008f1a0000ca
:10007000e91b00008f1a00008f1a00008f1a000081
:10008000c92c00008f1a00008f1a00008f1a000080
:100090008f1a00008f1a00008f1a00008f1a0000bc
:1000a0008f1a00008f1a00008f1a00008f1a0000ac
:0c00b0008f1a00008f1a00008f1a000049
:020000040000fa
:1000bc00f8b5c046f8bc08bc9e46704735420000f7
:1000cc00f8b5c046f8bc08bc9e4670470d4200000f
:020000040000fa
:0800dc00f02600000100000005
:020000040000fa
:1000e400f0b59db012930b6814900b934b6811916b
:1000f40004938b680d930b691593cb68089313686d
:10010400546806930794069807990022002304f084
:100114005bfa00280dd10b9b5b073ed408230b9a96
:100124001a400c920d9a09920b9a1a4213d0183362
:100134000ae080200006844606990a000799614473
:100144000b00069207932d23089a13700d9b013b15
:10015400099301230c93079b06995b00c74a5b082c
:1001640000291cd193421ad1089a129b94460c98e8
:10017400413bc3496044192b00d9c24904f0e6fe4f
:10018400089804f055fd0b9b0200009308990d9b01
:10019400149803f09dfc1db0f0bd2b23d4e79342cb
:1001a40002d80cd100290ad0089a129b94460c98c4
:1001b400413bb5496044192be0d9b449dee700223c
:1001c40006980799002304f080fb0026b04f00280e
:1001d40000d120e100230393129804f07ffec3b200
:1001e4001093049b002b00daebe1109b0a93672b1e
:1001f40012d1049b002b01d10133049365230a938c
:10020400039b04331ddb039b049a934219da662390
:100214000a93039b002b14da049b013304930a9b77
:10022400662b0ed1039b002b03da00230026984f84
:100234000393109b672b04d0039a049b9446634456
:100244000493069a079b0e920f93002334003d00fb
:10025400139322000e980f992b0002f095fd02f0e3
:1002640053fe8022120694460e9b16901791189303
:100274000f9b63441993189a199b009201932200cf
:100284002b0004f01bfe80231b06cb180022290040
:100294000e900f9320007f4b02f076fd139b040019
:1002a40001331393139a049b0d009342d1d100227e
:1002b400794b01f0c3f90e9a0f9b04000d0004f072
:1002c40064f9002800d0d5e00e9a0f9b2000290085
:1002d40004f0fbfa002806d01698179904f0acfa3b
:1002e400c00700d4c6e00698079922002b0000f04e
:1002f400d7ff002206900791664b3000390001f0c9
:100304009df9069a079b0e900f9104f0ddf80028e2
:1003140000d1c7e0039b013303930a9b662b00d0f3
:10032400c2e0049b039d0133049300263700049b21
:100334000c9ceb1a1693169b9d4200d0dee0002f16
:1003440000d11de10026089b1f190a9b3e70652bf6
:100354002dd1159b5d1e089b5e55039bb34202daab
:100364005b4203930136039b002b00d011e1159be4
:10037400eb1a0333002b00dd0be12b236a1e002e46
:1003840000d002330899023d8b54129b413b192b38
:1003940001d845230a93089b59190a9b0b70ac4258
:1003a40002da380004f0d2fd099b023b09930323cf
:1003b4000b9a1340022b00d0e2e6099b002b00dcd1
:1003c400dee6089804f034fc0c9b834200dcf1e088
:1003d4001800089b30219c46099a604404f006fded
:1003e40000230d93cce626002f00039b01330393d7
:1003f4000022284b3000390001f020f904000d00e0
:1004040002000b000698079904f0def80028ead0f1
:100414000024012523e00390eae7204b039a9a4243
:1004240012da002c10d10698079900221c4b01f017
:1004340005f9002206900791194b3000390001f0ac
:10044400fdf82c0006000f0030003900114b00228b
:1004540002f09afc06000f00039b013b0393320059
:10046400069807993b0004f0aff80028d5d1b3e60d
:100474000623c2e60024002535e7c0460000f07fcd
:10048400e84a0000ec4a0000f04a0000f44a000088
:100494000000f03f0000244000001440d4feffffa1
:1004a400000050430e960f970a9d653d6b1e9d41bb
:1004b400039b6d421d4038e7002f0ad1002d08da56
:1004c4002e23089a139901345354099b0137013b95
:1004d4000993321923009446302102e0089ad1543a
:1004e40001336345fad1099a3419961b089a3030be
:1004f400d054731e01340026099320e0119b1394f9
:100504001b69053ba34200d819e70e9a0f9b069876
:10051400079902f039fc02f0f7fc0490059104f00d
:100524008bf9092800dd092010230b9a134003439b
:10053400c2d1109b672bbfd1002dbdda01368022ba
:100544000e980f9912069446069b013d1a93079b39
:1005540063441b931a9a1b9b00920193049a059b74
:1005640004f0acfc80231b06cb18069007930e986e
:100574000f990022174b02f007fc0e900f91dae658
:100584000b9bdb0600d4dde62e23089a13550134b9
:10059400d8e603980a2102f067fe089b3031013d3a
:1005a400595503980a2102f015fe099b0390013b5b
:1005b4000993d8e6089b09991a5c5b181a54013808
:1005c40002e7109b672b00d152e70a93062304939a
:0805d40022e6c04600002440ad
:020000040000fa
:1005dc00f0b599b012930b68cf680a934b681690dc
:1005ec000e938b680b930b691193136854680693e5
:1005fc000794069807990022002303f0e1ff0028d6
:10060c000ed10a9b5b072ed408230a9a0a991a402a
:10061c0005920b9a194213d018333b7013000ce05f
:10062c0080200006844606990a00079961440b0055
:10063c00069207932d233b700b9b5a1e01230593a7
:10064c00079b06995b005b0800290ed1af488342db
:10065c000bd1129b059a413bad4cae49b818192be6
:10066c0011d921000fe02b23e5e7a848834202d8db
:10067c0018d1002916d0129b059a413ba64ca749cc
:10068c00b818192bedd804f05dfc200004f0ccfa5e
:10069c000a9b0200009339000b9b169803f014fa86
:1006ac0019b0f0bd059b0598591c30233b54129b87
:1006bc00413b0f930f987823192800d8203b0598bd
:1006cc007b540230931e05900993002206980799db
:1006dc00002304f0f6f8002800d16de10023904cc3
:1006ec00089302930394182310930e9b002b00dbaa
:1006fc0010930026029c039d109b01331793069abe
:10070c00079b0c920d930c980d9922002b0002f074
:10071c0037fb02f0f5fb22002b001490159100f032
:10072c0089ff02000b000c980d9904f0cbfb7d4b5c
:10073c000c900d9100222000290000f07bff0e9bf5
:10074c0004000d000136002b07da0c980d990022dd
:10075c00002304f0b6f8002804d1179b9e42d2d196
:10076c00109e01360022200029006f4b00f062ff22
:10077c0004000d0002000b000c980d9903f020fff3
:10078c00002800d01ee10c980d9922002b0004f0db
:10079c0098f8002806d01498159904f049f8c00769
:1007ac0000d40fe10698079922002b0000f074fd8d
:1007bc0006900791079b069a5b005b08002a03d101
:1007cc00524a934200d144e7119b059a053b14937e
:1007dc00934200d83de10025734214001600179394
:1007ec0010950c95029a039b0698079902f0c8fa8b
:1007fc0002f086fb1290139104f01af8031e00d03d
:10080c00e3e00c9a002a00d1dfe00135029a039b49
:10081c001298139900f00eff02000b00069807992e
:10082c0004f050fb002206900791029803993d4b6f
:10083c0000f000ff0c9b179a013b029003910c9364
:10084c00934203d0149b26009c42cbd3109b002bcd
:10085c001ad1002d00dcfde00e9b002b00dcf9e032
:10086c000a9bdb0700d5f5e02e2230213b191a70cc
:10087c002a19ba18597001339342fbd16419ed430c
:10088c00099b0134eb18099300263b191e70029347
:10089c00119b5d1e089b7e55b34202da5b420893a6
:1008ac000136089b002b00d0bce0119beb1a0133e6
:1008bc0000d1b7e02b236a1e002e00d00233bb54ac
:1008cc000f9a7023023d192a00d8203b79190b701e
:1008dc00ac4202da029804f035fb03230a9a134067
:1008ec00022b11d1099b9c1e002c0ddd380004f04d
:1008fc009bf9059b984200dba4e0f81822003021fc
:10090c0004f070fa00230b933800bfe60000f07f70
:10091c00ec4a0000e84a0000f44a0000f04a0000eb
:10092c000000f03f0000b03f00002040089b029404
:10093c00039501330893029a039b1000190000f0f1
:10094c00abfc04000d0002000b000698079903f0a5
:10095c0037fe0028ead0029a039b0698079903f009
:10096c002ffe002800d1bee60298039900223d4bd1
:10097c0000f060fe0022002303f0a3ff00280fd03c
:10098c00029803990022384b00f054fe002202908a
:10099c00039106980799344b00f04cfe0690079192
:1009ac00029803992f4b002200f044fe089b029002
:1009bc000391013b0893cee700232c4c0890029343
:1009cc000394b8e700240025ece6109a002a0ad11b
:1009dc000c9a002a07d02e22ba55099a0134013af2
:1009ec0009920122109230222e1901e03a5501345d
:1009fc00b442fbd11800099a5730551b092b01dc66
:100a0c00303318000f9b192b06d820230343613b6e
:100a1c00192b01d804f065fa6b1e741c0025b8550f
:100a2c000993f3e608980a2102f01afc013d3031d3
:100a3c00089879550a2102f0c9fb099b0890013be3
:100a4c0009932ee7099b3a5c023bfb181a540138b8
:100a5c004fe7059c0a9bdb0600d415e72e233b557c
:100a6c00013411e70000e03f000050430000f03f6c
:020000040000fa
:100a7c000023f0b51600b1b0039007910493079dc5
:100a8c002b78002b00d1cfe001235b420c9310abf1
:100a9c0000240e9380230b940d940f932b5d002b4d
:100aac0001d0252b30d1002c06d029002200039830
:100abc002d1903f077ff0795079b1a78252a00d08c
:100acc00a7e001331800002105930793243a03781b
:100adc002b2b25d02dd8202b25d0232b26d000290d
:100aec0000d007902a2b2cd003f0c8fc01250d90c8
:100afc000020079a11000b780132303b092b64d986
:100b0c0000282dd007912be00134c7e701230b9966
:100b1c000b430b9311000130d9e702230b99f7e734
:100b2c0004230b99f4e708230b99f1e710230b9995
:100b3c00eee72d2bead0302befd00029d4d0079044
:100b4c00d2e7336801301a1d1b68079032600d9391
:100b5c00002b05da01220b995b424a400b920d9354
:100b6c000b9bda0702d5022293430b93079b1a784f
:100b7c002e2a0dd100270c975a785d1c07952a2a2e
:100b8c0025d10233079333681a1d1b6832600c930e
:100b9c0007a803f033fe079d0700287804f09af9a4
:100bac00252800d1d5e06138172800d9dbe004f006
:100bbc002df91fdab63ea6a6a6da3edadadada9c08
:100bcc005e7fdadac6da4edada6e280092e72800af
:100bdc0003f054fc01210c902a0013780135303bb2
:100bec00092b03d9002fd3d00792d1e70f00f3e7dd
:100bfc003200390008a803f0cbfd002800d17be0bf
:100c0c006b1c079303982b7808aa0ba9fff7e0fc41
:100c1c002418049b1c19a34200dcb0e04f22594b52
:100c2c001a6001235b420493049831b0f0bd330089
:100c3c000122390008a801f00dff00285cd0013515
:100c4c00039808aa0ba9079502f0b8f9e0e733005e
:100c5c000022390008a801f0fdfe00284cd0013517
:100c6c00039808aa0ba9079503f027fad0e73300dd
:100c7c000022390008a801f0edfe00283cd0013517
:100c8c00039808aa0ba9079503f009f8c0e73300ed
:100c9c000022390008a801f0ddfe00282cd06b1cc6
:100cac0007932b78039808aa0ba901f08af9afe7f0
:100cbc0033000022f02108a801f0ccfe00281bd044
:100ccc00089b099a0135079513430cd12e4d28002a
:100cdc0003f0aaff290002000b9b00930d9b0398c5
:100cec0002f0f2fe94e77823dce7049b39001a1932
:100cfc0008a8330002f024ff0135079589e732007c
:100d0c00390008a803f044fd0028f5d06b1c0793ac
:100d1c0003982b7808aa0ba9fff7def978e7802f48
:100d2c00ead1336801351a1d1b68326008aa1370aa
:100d3c000123079503980ba903f03afa68e7802f73
:100d4c00dad132680135131d336012680023079520
:100d5c00f0e7802fd0d10b9b0135009301220b497a
:100d6c000d9b0795bbe7059b01220793002352427d
:100d7c000c9206490b930d9300930232afe7049447
:100d8c007de6c046801e0020e04a0000e64a0000d6
:020000040000fa
:100d9c00f0b5d6464f464646c0b588b0012204ace5
:100dac008d4b18685242210001f02dfb2379002b4a
:100dbc0000d097e0894f8a4d8a4c8b4b98462ce09b
:100dcc00864a013b137003f0d7fd884b186007224d
:100ddc0002408123d340db0771d5804b1b79022b5a
:100dec004ad063781b02a27812041343227813436f
:100dfc00e27812061343db00db08eb60a2791204e5
:100e0c00e3791b061a43120c32402a70082a05d8c3
:100e1c0074495118404603f0dbff0f263b78002b3a
:100e2c00ced1734b1b78002b00d1cbe0704a013b29
:100e3c00137003f0a1fd6d4b186007220240812353
:100e4c00d340db074ad56a4b1b79022bc9d1684bbf
:100e5c005b789a461a01674b00219946180003f0fb
:100e6c00c1ff4a465146012001f060fe00282ad1fc
:100e7c00614b06221a70b4e7584b5b789a461a01fc
:100e8c00584b00219946180003f0acff4a465146d6
:100e9c00002001f04bfe002803d1574b06221a709c
:100eac009fe750494d4b58780023102201f0a0fbce
:100ebc00514b05221a70514b043a1a7091e74e4b64
:100ecc0006221a708de74b49494b587800231022a3
:100edc0001f08efb484b05221a7082e7464b062226
:100eec001a707ee7049c04ab5d7945480d22002105
:100efc00060003f077ff434b033e1e60e400e4085a
:100f0c0033685b0f5b07234333600f222a40b179b0
:100f1c000f24a1431143b1711b0e40210b43f370fd
:100f2c00d1b2002a09d00023374804aa9a18127aa1
:100f3c00c2540133dab29142f7d83448032103f09a
:100f4c00a9ff2d4b04221a702e4b1968012003f0b7
:100f5c0073fa002804d12e49033001f053f931e023
:100f6c00284b1d68eb785b0632d52a68d200d30873
:100f7c009c46a9790907090f6846264b0400c4cb87
:100f8c00c4c41b682360475c23493b0062460320b2
:100f9c0001f038f92149032001f034f9002f0dd06c
:100fac0008352c001e4eed19edb2227831000320cd
:100fbc0001f028f90134e3b29d42f6d1194903201e
:100fcc0001f020f908b0e0bcba46b146a846f0bd25
:100fdc002a6893049c46cce7681e0020001e002063
:100fec00d01d0020e8190020d11d0020701e00200b
:100ffc00f81d0020b01d0020871e0020901e002030
:10100c00c31d00206c1e0020c81d0020714800006c
:10101c002c1a0000b04e00004c1a0000781a000088
:08102c00881a0000281a0000d8
:020000040000fa
:10103400d01c00201c000000000000006c1d0020db
:101044001000000000000000801d002020000000af
:101054000000000000100020000400000000000058
:10106400f81b002080000000000000000014002095
:1010740000020000000000000c1b002054000000cf
:10108400000000007c1d002004000000000000009f
:10109400081e00201400000000000000851e00202f
:1010a4000200000000000000001600200002000002
:1010b400000000001c1e00200800000000000000ca
:1010c400981e00200400000001000000aaaaaaaa99
:1010d400241e002008000000000000000000002082
:1010e40000100000000000002c1e00202c00000056
:1010f40000000000081d0020140000000000000093
:10110400581e002004000000000000001c1d0020e8
:1011140028000000000000005c1e00200800000001
:1011240000000000441d0020280000000000000012
:10113400a81a00206400000000000000641e0020c3
:101144000800000000000000b01b00204800000060
:101154000000000000180020000100000000000052
:10116400ec1c00201c00000000000000e01d00201a
:101174000800000000000000a01d00201000000076
:1011840000000000e81d0020100000000000000026
:10119400941e00200100000000000000901e0020aa
:1011a4000100000000000000871e00200100000074
:1011b400000000006c1e002004000000000000007d
:1011c400b01d00201000000000000000e8190020fd
:1011d400c000000000000000c01d0020100000003e
:1011e400000000008c1e0020010000000000000030
:1011f400881e00200100000000000000841e002062
:101204000100000000000000891e00200100000011
:1012140000000000781c00202c00000000000000ea
:101224008a1e00200100000000000000a41c002011
:101234002c00000000000000701e002008000000c8
:101244000000000000190020e80000000000000079
:10125400f81d00201000000000000000d01d002038
:101264001000000000000000781e002004000000b0
:1012740000000000601b002050000000000000007f
:101284007c1e002008000000000000000000000098
:101294000000000066666666666666666666666682
:020000040000fa
:1012a400f0b40125ed070f005f405ad48b4200d102
:1012b400824205d950404240504059404b40594029
:1012c4004e18760ddf187f0d3bd0741c640529d0b1
:1012d400f41b352c26d80e0ddb022b43db0ac90286
:1012e4002943c9121700202c1ed2e741e24057407f
:1012f400e3415a40a340e3405a4000248018594136
:101304000ad3b21c520521d0c207012f6241170033
:101314004008cb0718434908013636054208af4157
:1013240060417141f0bc7047203c06d01f00e7418a
:10133400e3405f400024012a6741c0186141ebd3b8
:10134400dfe7002eeed129400020ebe7013631051e
:101354000020e7e7e742e5d10020c143090dc904b5
:10136400e0e76b400e00871a9e4104d26e40c01b1a
:10137400b141d21973414e18df18ac0ae642e9d2e2
:10138400760d7f0d31d0f41b362ccbd8b4460e0d20
:10139400db022b43db0ac9022943c90a012c32d8d8
:1013a40004d1d4075208df073a435b08ef0a6442ca
:1013b400904199411ed0002239424dd12419404117
:1013c40049410124394204d10134001849413942c8
:1013d400fad06246a24204d9361b013e3605891969
:1013e400a0e7f10ac90700209ce736429ad1002001
:1013f400002197e70200224394d0b842ded20100d4
:1014040020002024e3d1202c13dd203ce2411700ee
:10141400a240e2405740e3415a40a340e3405a40cf
:10142400012fbf410137174300227c42984191416b
:101434000ce01700e741e2405740e3415a40a34023
:10144400e3405a407c429041994100220f0303d269
:10145400013e241940414941013e36054708ac414b
:0814640050417141f0bc7047da
:020000040000fa
:10146c00f0b5de4657464e464546e0b583b0584b80
:10147c001b68002b00d09de0564b1c68621c009230
:10148c001a60002a11d0544b1b6800229346009a14
:10149c0093421dd8514b1b681b68002b12d04f4d2b
:1014ac004f4fbc464f4901955ce04c4a11684e4b7e
:1014bc001868106019604d4a13680133136003f00b
:1014cc0045fae0e700239b46434b012252421a6047
:1014dc00474b1b68434ad96a8b005b189b009b588f
:1014ec00012b01d901239b46424b1b68002b67d073
:1014fc0001239b4664e0384b1a60e9e7dc685460d2
:10150c0041e000229a622268013a2260dc6a3a6861
:10151c00944201d962461460a200121992008a18f2
:10152c0052689a609468dc6060609060d86a82004f
:10153c001418a400a046884444465c611418a40006
:10154c006258013262502a4a12689046da6a43465f
:10155c00db6a9a4201d901239b46019b1b681b68dd
:10156c00002bb1d02b68db68db685a68009890427e
:10157c00c1d35a699c68d868a0609c684460181de7
:10158c0054688442bad000245c611468013c146035
:10159c009c6a002cbad0da6992461a6a5646b26036
:1015ac00de6956601a00183266689642a9d11a6a2a
:1015bc006260a6e7104a13680133136000239b4650
:1015cc00584603b0f0bcbb46b246a946a046f0bd97
:1015dc002c1e0020501e0020341e0020601e0020f7
:1015ec004c1e0020a81a00205c1e00203c1e00206f
:0c15fc00641e0020401e0020441e002041
:020000040000fa
:1016080008d1002806d1f54204d801d3002a01d117
:101618006d0d09d10020c143090dc904f0bdf9d1f0
:101628001242f7d1640df5d00020c143490549089d
:10163800a6e000206146f0bdf0b50127ff070e00c7
:101648005e403e40b446be0a4c18dd18f442d7d27c
:10165800f542e4d2640decd06d0dead06419c902ec
:101668003943460dc0023143db023b43db0a10b469
:101678008e4685b297b26f43140c6c433e0ca41986
:10168800260c2404bfb227439cb26c43a419190c3e
:101698006943250ca4b249190d04090c6419000cfe
:1016a80095b245433e0c76193743bfb2360c150c3c
:1016b8004543ad19a6b2240cad192e0437432e0ca0
:1016c80036199db24543ad19acb22e0c89191d0cc3
:1016d80045436d182e04290c3443704680b295b2e8
:1016e80045433e0c76193743bfb2360c150c4543bb
:1016f800ad19a6b2ad19240c2e0437432e0c361999
:101708009db24543ad19acb22e0c89191d0c454349
:101718006d182e043443290c75462d0c90b268437d
:101728003e0c80190604bfb23e43070ca0b23f1816
:10173800120c6a43d019020c80b2240ca4189ab275
:101748006a43121914042043120c89181b0c6b43aa
:10175800c91810bc01273d05294203d1b6194041db
:101768004941013cff077d0d013d641b0bdb6d000a
:10177800ac4209da240500254208be4168416141ae
:0a17880066463143f0bd54e74ee71a
:020000040000fa
:0217920070479e
:020000040000fa
:10179400554b5a6852031b68db0c13439b029b0a8c
:1017a400524a936300235375110004228b691a4231
:1017b400fcd14e491022cb681a42fcd04b4a137d0f
:1017c40080210b4313754a4b00229a611a61494bdd
:1017d400494ada62190020224b681a42fcd1454b6f
:1017e400464a1a62190004224b681a42fcd1414b42
:1017f400434a5a62190008224b681a42fcd13d4af6
:1018040080234121d15010003f31402243581a42d5
:10181400fcd0364b20225a62083a1a6218002c2156
:10182400143a435c1342fcd1304b82221a771800dd
:101834002c21803a435c1342fcd12e4b314a9a62ec
:10184400190010224b681a42fcd12a4a80234121f4
:10185400d15010003f31402243581a42fcd0254a4f
:10186400cc234021d15010008c31402243581a42dd
:10187400fcd0204ad8234021d15010009831402276
:1018840043581a42fcd01b4ae4234021d150100093
:10189400a431402243581a42fcd0164aec2340217a
:1018a400d1501000ac31402243581a42fcd0114aa6
:1018b400f8234121d1501000b731402243581a4235
:1018c400fcd00c4a94235b004021d1501000190035
:1018d400402243581a42fcd00b4b0c4a1a610c4a62
:1018e400da6102221a627047206080000010004012
:1018f40000140040001c00400601780006010100ad
:10190400060118000701010000080040ff3e000026
:04191400523000004d
:020000040000fa
:10191800544d43343637315f5441534b5f546173f0
:101928006b7300000000000043414e5f474154457f
:101938004b45455045525f5441534b5f5461736b5f
:1019480073000000544d43323230395f5441534bd9
:101958005f5461736b730000535550455256495399
:101968004f525f5441534b5f5461736b73000000d7
:1019780044454255475f5441534b5f5461736b7301
:1019880000000000257300005b4552525d200000f6
:101998005b57524e5d2000005b494e465d200000bb
:1019a8005b4442475d20000049444c45000000006c
:1019b80054686973206973206e697365210a000091
:1019c800204e6577204d65737361676520526563a6
:1019d80065697665640d0a000a52637664204d6570
:1019e8007373616765202d204944203a203078259b
:1019f80058203078255820307825582030782558b8
:101a0800207c20444c43203a20307825580a000096
:101a1800526376642044617461203a20000000001b
:101a28000a0000000a4661696c656420746f2073bf
:101a3800656e642043414e204d6573736167650a86
:101a4800000000000a53656e74204d65737361676a
:101a580065202d204944203a2030782558204c65af
:101a68006e677468203a20307825582000000000fe
:101a780053656e742044617461203a2000000000b0
:061a880030782558200013
:020000040000fa
:021a8e00fee771
:020000040000fa
:101a9000f8b5de4657464e464546e0b503f082f8b7
:101aa000494b1a68013a1a601b680024002b7bd14d
:101ab000464b1b68002b77d0454b1b68002b5cd036
:101ac000434e00239b46434dac46434b9a4634005d
:101ad00008e0196a516012e0d96851601ee023687d
:101ae000002b48d0f368db689a6ad869196a81606c
:101af000d86948601900183150688842e9d05946c1
:101b000099621168013911605a699868d9688160d1
:101b1000986848601f1d5168b942ddd05946596127
:101b2000116801391160d86a2a68904201d9624669
:101b300010602a498200121892008a1852689a602e
:101b40009068d86047609760df6aba00d01980005b
:101b50008046884440465861d0198000425801327e
:101b600042501f4a1168da6acb6a9a42b7d90123f8
:101b700052461360b3e702f0effe1a4b1c68002ccc
:101b80000ed0154e012502e0013c002c05d0fff7d8
:101b90006dfc0028f8d03560f6e7124b00221a6081
:101ba0000d4b1c68002c08d103f008f82000f0bc95
:101bb000bb46b246a946a046f8bd094b1b6802f0d9
:101bc000e5ff0124f0e7c0462c1e0020541e002033
:101bd000301d00204c1e0020401e0020a81a0020ae
:081be000641e0020441e0020d9
:020000040000fa
:101be80070b5504b586a504b9b7d002b54d04e49d2
:101bf8004c68072214404b4b5a699d699e680b7ebe
:101c08005b0757d5896a474bdb68934252d9002c4a
:101c180043d1444b5b6899540132434b1b7edb072d
:101c280016d5414b012119753e4b9b68ab4256d9dd
:101c38003c4b1b68595d3c4b99620135394b1b691c
:101c4800002b01d1b54262d0364bdb68934262d09b
:101c5800344b5a619d61344b1b7e9b0715d5334b22
:101c68001b78002b18d02f4bdb68934211d12d4bda
:101c780000221a772c4907240c752c490a701b6a14
:101c8800002b09d0274b1b6a9847284b1b78002b41
:101c980002d0254b02229a7570bd224b5b68540016
:101ca800e1520132204b1b7edb07d1d51e4b0121af
:101cb800197508e01c4b1b7edb07c9d51a4b01219f
:101cc8001975002cb0d0174b9b68ab4213d9154b34
:101cd8001b686900c95a144b99620135aee7114b6c
:101ce8001b69002baad0104bff2199620d490b6983
:101cf800013b0b61a2e70b4b1b69002b9ed00a4be3
:101d08000b49996207490b69013b0b6196e7074b41
:101d1800012119709ce7044b01219975033119754c
:101d280096e7c046781c002000100042891e00205b
:041d3800ffff0000a9
:020000040000fa
:101d3c0070b5504b586a504b9b7d002b54d04e497c
:101d4c004c68072214404b4b5a699d699e680b7e68
:101d5c005b0757d5896a474bdb68934252d9002cf5
:101d6c0043d1444b5b6899540132434b1b7edb07d8
:101d7c0016d5414b012119753e4b9b68ab4256d988
:101d8c003c4b1b68595d3c4b99620135394b1b69c7
:101d9c00002b01d1b54262d0364bdb68934262d046
:101dac00344b5a619d61344b1b7e9b0715d5334bcd
:101dbc001b78002b18d02f4bdb68934211d12d4b85
:101dcc0000221a772c4907240c752c490a701b6abf
:101ddc00002b09d0274b1b6a9847284b1b78002bec
:101dec0002d0254b02229a7570bd224b5b685400c1
:101dfc00e1520132204b1b7edb07d1d51e4b01215a
:101e0c00197508e01c4b1b7edb07c9d51a4b012149
:101e1c001975002cb0d0174b9b68ab4213d9154bde
:101e2c001b686900c95a144b99620135aee7114b16
:101e3c001b69002baad0104bff2199620d490b692d
:101e4c00013b0b61a2e70b4b1b69002b9ed00a4b8d
:101e5c000b49996207490b69013b0b6196e7074bec
:101e6c00012119709ce7044b0121997503311975f7
:101e7c0096e7c046a41c0020000400428a1e0020e5
:041e8c00ffff000054
:020000040000fa
:101e9000f0b5c64600b584b0040001910023984611
:101ea00000274425002645e0013ba3632368002b5f
:101eb0000bd02369002b0cd102f080fe0123984641
:101ec000404604b080bcb846f0bd02f041ffa060bf
:101ed000efe72000103000f0e9fc0028ecd002f021
:101ee00055fee9e702f06afe00239846e8e702a8fb
:101ef00002f088fe28e0665530e04523e65432e0e3
:101f000002f050fea06801f011f9804602f056fe82
:101f100039e0200001f022fdfff7bafd09e02000c2
:101f200001f01cfdfff7b4fd200002f007ff0028c0
:101f300038d1012702f036fea36b002bb4d1019bf0
:101f4000002bcfd0002fd2d002f038fe02f0a0ff3d
:101f500002f028fe635d5bb20133ccd04523e35c25
:101f60005bb20133c9d002f029fe01a902a801f039
:101f7000cbff0028d3d1200002f0e0fe0028c8d01b
:101f80002368002bbcd001992000243002f0e4fd2e
:101f9000200001f0e3fcfff77bfd0028c9d102f02f
:101fa000f5fdc6e74346002b00d189e702f0fafdb4
:101fb000616a002903d0236b1b680521c91aa06838
:0e1fc00001f006fc02f0fafd0023984678e7d7
:020000040000fa
:101fce00f0b58fb00c934b680d0008938b6816001c
:101fde000993cb680f680393089b0b90002b43db90
:101fee0002239f4310233a001a400d92099a04923d
:101ffe001f4206d033687268134302d0099b023b1e
:10200e00049308233b400a935a1e9341049a2c6969
:10201e00d31a04933368039a06937368013c0793ab
:10202e0000231355049b0593012c20dc0d9b002be4
:10203e0050d10a9b002b03d02023039a013c135549
:10204e002a69039b013a19190b98099b121b0097d9
:10205e0001f039fd0b9b5b68db0503d56b6898427d
:10206e0000da18000fb0f0bd01230893bae7069b03
:10207e00079a13430ad1049a089b9b1a059a9b1838
:10208e00002b03dc002ad1ddbb07cfd50f23069a28
:10209e00013c134018005730092b01dc3033180077
:1020ae000c9b413b192b06d820230343613b192b74
:1020be0001d802f015ff039b1855059b013b0593b4
:1020ce00079b1a07069b1b091a43079b06921b09bf
:1020de000793a9e70cce1343abd0039b0c9a1b19a5
:0e20ee00013b1a703023039a023c1355a1e700
:020000040000fa
:1020fc0070b5040002f050fd354a136801331360cb
:10210c00344b1b68002b0cd0334b1b68002b0dd1b0
:10211c00304b1b68da6ae36a9a4207d82d4b1c6075
:10212c0004e02c4b1c601368012b2ed02b4a136837
:10213c0001331360e26a2a4b1b689a4201d9284b7f
:10214c001a60284993009b189b00cb185b68a3600e
:10215c009868e060221d42609a60e06a83001a1859
:10216c009200521862611a1892005358013353505e
:10217c0002f01efd184b1b68002b05d0154b1b687d
:10218c00da6ae36a9a421fd370bd164d2e0064368c
:10219c00280002f079fd1435b542f9d1124e300009
:1021ac0002f072fd114d280002f06efd104802f095
:1021bc006bfd104802f068fd0f4802f065fd0f4bf7
:1021cc001e600f4b1d60b1e702f0dafcdce7c04685
:1021dc00541e0020641e0020481e0020381e0020c3
:1021ec004c1e0020a81a0020581d0020441d002061
:1021fc00301d00201c1d0020081d0020601e00202a
:04220c005c1e002034
:020000040000fa
:102210000eb4f0b5d6464f464646c0b583b004006e
:10222000334b1b78834208d203b0e0bcba46b146b8
:10223000a846f0bc08bc03b0184701212d4b186814
:102240004942fff725fe2c4ba400e3582b4a80217e
:102250002b48490002f034fd0400c343db171c4047
:102260000cab019380214900091b254820180b9acb
:1022700001f0bafdc343db17184000190500ff2821
:1022800000ddff2500282bdd002701235b42994656
:102290001c4b98461ae01c4e3078c0011b4b9a46e6
:1022a000504417497918220002f098fd3078c00197
:1022b0005044174b1b681b68210098473378012254
:1022c000534033703f192d1b002d09dd434618681c
:1022d0004946fff7ddfd2c00802ddcdd8024dae7a8
:1022e000044b186800230022002100f013f89be73c
:1022f000851e00201c1e0020604e00008c1900006e
:1023000000160020201e0020861e0020001700203e
:04231000181e002073
:020000040000fa
:10231400f0b5ce4600b584b00400009101921e00d1
:102324000025442730e032000099200001f082fcaf
:10233400636a002b08d100280fd102f03dfc012074
:1023440004b080bcb946f0bd2000243000f0acfae3
:102354000028f2d002f018fcefe702f015fcece7dd
:1023640002f02afc0020ebe702a802f049fc18e086
:102374000023e3551fe00022e25421e0200001f095
:10238400ebfafff783fb012502f00afca26be36b77
:102394009a42c8d3022ec6d0019b002be0d0002d58
:1023a400e2d002f009fc02f071fd02f0f9fbe15dfc
:1023b40049b20131dcd04523e05c40b20130dad0cf
:1023c40002f0fafb01a902a801f09cfd002817d134
:1023d40002f0e6fba36b9946e56b02f0edfba94521
:1023e400ccd101992000103002f0b4fb200001f0a0
:1023f400b3fafff74bfb0028c5d102f0c5fbc2e7d7
:0e240400200001f0a9fafff741fb002098e745
:020000040000fa
:10241200f0b5c64600b584b00400009101920027d1
:1024220044260023984638e00099200002f033fb4e
:102432006b1ea3632369002b06d102f0befb0120b1
:1024420004b080bcb846f0bd2000103000f02dfa78
:102452000028f2d002f099fbefe702f0aefb002079
:10246200eee702a802f0cdfb21e04346a35528e0a7
:1024720045234246e25429e0200001f06efafff7bc
:1024820006fb09e0200001f068fafff700fb2000dc
:1024920002f053fc002835d1012702f082fba56b24
:1024a200002dc1d1019b002bd7d0002fd9d002f033
:1024b20084fb02f0ecfc02f074fba35d5bb201331f
:1024c200d3d04523e35c5bb20133d1d002f075fb7c
:1024d20001a902a801f017fd0028d3d1200002f0c3
:1024e2002cfc0028c8d001992000243002f033fbd4
:1024f200200001f032fafff7cafa0028ccd102f02c
:0825020044fbc9e700209be740
:020000040000fa
:02250a00fee7ea
:020000040000fa
:10250c00f8b5de4657464e464546e0b5354d364b9a
:10251c002f001e00354a01239b46324b9846b2468b
:10252c001e0016e0580030498c46095c8946ff2194
:10253c008c4349460c4301306146085c0002e4b20e
:10254c000443013319e0ff2323401385337d002b13
:10255c0021d1137e584603423ed0a868eb689842be
:10256c0037d05068072108400128dbd05046c05caa
:10257c00f8318c430443a4b201333869834280415f
:10258c0003404046c360536807210b40012bdad14e
:10259c00164b1c85dae7564602f0a2fb114b1b6862
:1025ac00002bb7d00f4b59681b7f002b08d00d4b5d
:1025bc009b699842aed30b4b1b6803209847a9e745
:1025cc00084b9b699842a5d1064b1b680320984782
:1025dc00a0e7064b01221a75f0bcbb46b246a946d1
:1025ec00a046f8bd381c0020001000200004004359
:020000040000fa
:1025fc00f0b5de4657464e464546e0b58bb08346b1
:10260c000592002855d0083100252d4b9846894657
:10261c0042e03868c000400d2a4ef060ba791207cb
:10262c00130f9a4606ab9c46274b674616cb16c72c
:10263c001b683b60634652469f5c3770430cff221d
:10264c001340410e8c4621490297c705ff0d019797
:10265c00400a1040009062460320fff7d3fd1c494e
:10266c000320fff7cffd3178002909d0002319484a
:10267c004c46e25cc2540133dab28a42f9d3a14629
:10268c0015490320fff7befd0135edb2059b9c46b5
:10269c00e1445b46ab420cd04f46083f4146032019
:1026ac00fff7b0fdfb785b06b3d53868c000c008f7
:1026bc00b2e70bb0f0bcbb46b246a946a046f0bd93
:1026cc00c8190000d01d0020b04e0000e019000019
:0c26dc00181a0000d11d0020281a000070
:020000040000fa
:1026e800f8b5ce46474680b5334d2f00a846a946d3
:1026f8005be04246126a002a42d0716a336a0120be
:102708009847b36a0133326b93429241134037e0e2
:102718004a46926a5200e0b2284988540132240a93
:102728008c543ce002f006fa234b1b6a002b3cd089
:10273800214b596a3c229b5c002b08d01e4b9b6b9b
:10274800984232d31c4b1b6a002098472de01a4b45
:102758009b6b984229d1184b1b6a0020984724e0ac
:10276800174b1b7e5b0722d5154b1c8da4b2ab6a99
:1027780001332a6b934292411340fa6a9a42b8d0c5
:102788000d4ad26a9a42ebd00d4a516807220a4094
:10279800012abdd0084a926ae4b208498c54064a14
:1027a80093623423d35c002bbcd1034ed8e7c0bc62
:1027b800b946b046f8bdc046381c0020f81b0020ba
:0427c80000040043c6
:020000040000fa
:1027cc00f0b506000f0015001c0085b08b4263d8d5
:1027dc0001d1824260d82100280002f049fa390068
:1027ec000090300002f044fa009b21001b1a1a00e2
:1027fc002800039302f030fa00900191b94245d8b9
:10280c0001d1b04242d8009b019c01200021039ac7
:10281c00f61aa74102f020fa04000d00039b002bce
:10282c002bd0019b009adb0750081843019b5908d9
:10283c00039b9c46b9422cd801d1b04229d8320016
:10284c003b00121a8b41012692185b410027b618e7
:10285c005f4101235b429c446346002bead130006c
:10286c003900039a02f0ecf9039aa4197d41060091
:10287c000f0002f0f1f9241a8d410a9b002b01d0b4
:10288c001e605f602000290005b0f0bd002400250b
:0e289c00c4e7b6197f41dce700240025ede714
:020000040000fa
:0228aa00fee747
:020000040000fa
:1028ac0010b5c368db689a6ad869196a8160d869ff
:1028bc004860180018305168814240d0002199625c
:1028cc00116801391160274a1268002a3dd15a69f2
:1028dc009868d9688160986848601c1d5168a1424d
:1028ec0030d000215961116801391160d96a1e4a32
:1028fc001268914201d91c4a11601c488a00521876
:10290c009200821852689a609168d9604c60946009
:10291c00dc6aa20011198900091859611119890082
:10292c000a5801320a50124a1168da6acb6a00203e
:10293c009a4203d90f4b01221a60013010bd196a5b
:10294c005160bbe7d9685160cbe70b4a5168d9613c
:10295c008c681c62606088609a6211680131116039
:10296c00e1e7c0462c1e00204c1e0020a81a0020b7
:0c297c00641e0020401e0020301d0020c2
:020000040000fa
:1029880010b52e4b1b68002b03d02d4b01221a606b
:1029980010bd2b4b00221a602a4b1a68116b1a685b
:1029a8001b6812681b6b9a4203d9274b0a689a4224
:1029b80033d0244b19681868343102f07bf8234b64
:1029c8001b6823499a00d21892005258002a09d14c
:1029d8009a00d21892001f495218013b143a5169c3
:1029e8000029fad01a489a00d118890041184c6871
:1029f80064684c60d218920008321218944216d0bb
:102a0800134a9900c918890052185268d1680d4aaa
:102a180011600e490b601368bae74a689a42c8d138
:102a28008a689a42c5d1ca689a42c2d1c7e7990052
:102a3800c91889004218d1685160e1e72c1e0020ae
:102a4800401e0020641e0020a5a5a5a54c1e002040
:082a5800a81a0020941a0020c6
:020000040000fa
:102a600010b50400902911dc00207f2928dd803971
:102a70000800102910d802f0cff931313d0f110fa5
:102a80000f0f240f0f0f0f0f0f0f3d00c0294bd05a
:102a9000f02949d0a02928d0002011e01968002a87
:102aa00007d00a1d1a6000228b5e2360db1763606b
:102ab00005e0081d18600b689bb22360626001206e
:102ac00010bd1968002a04d00a1d1a600023cb56d5
:102ad000ebe7081d18600b68dbb2eee71968002a07
:102ae0001ed00a1d1a600b68dfe71a68111d1960f5
:102af0001368dae707201968002a09d0091881430a
:102b00000a0008321a600a684b6822606360d6e7e0
:102b1000ca1d824311000831196053681268f4e736
:102b2000081d18600b68c8e71a68111d1960136842
:062b300023600023bbe757
:020000040000fa
:022b36007047e6
:020000040000fa
:102b3800f8b5ce46474680b507008846151e53d0df
:102b4800002829d00020012f4fd12a4ab423d45875
:102b5800a404a40e002918d04f1effb20026264b4d
:102b680059682301c9181022280002f033f9b74226
:102b78000bd010350134e4b2631e5a1e93415b42f8
:102b88001c400136f6b2b045e9d13f23234019492c
:102b9800b8228b50012028e0164aa423d458a40454
:102ba800a40e0b1e19d0013bdbb29946060003e0c8
:102bb8000136f6b2b04510d00f4b19682301c91879
:102bc8001022280002f006f9b14506d0103501346c
:102bd800e4b20c2cecd13c00eae73f232340054942
:102be800a8228b50012000e00020c0bcb946b046a6
:0c2bf800f8bdc04600200042ec1c00208c
:020000040000fa
:102c0400f0b504002c4825014019067bf6b22b4888
:102c14003f27c55dedb2c4550f37c05d800702d1b3
:102c24000020002e39d1254e4e2003273754224848
:102c340026018019023f07732148305a400530d5d8
:102c4400c9181f48801941601d492001415a0905ce
:102c54002cd5d2181a4909188a60194a2001815ab8
:102c64008905890fcb409bb212185380134b402126
:102c74005a5c022002435a54596c5a6c08230b4084
:102c8400fc2189010a4013430138002b05d10b4a6a
:102c940011690133a3400b431361084a3f23d55400
:102ca400f0bd0748260180194160cde704492001a1
:102cb40009188a60d1e7c0466c1d002000600041fd
:042cc400801d00204f
:020000040000fa
:102cc80010b52a4b1c6d2a4b22001a401c420ad010
:102cd800264b1a65274b1b68002b04d0254b5968d7
:102ce8001b6820009847e3070ed5204b01221a6580
:102cf800a3329a58204b1b68002b05d01e4b5968ed
:102d08001b687f2010409847e3060ed5174b10220a
:102d18001a65a4329a58184b9b68002b05d0164b9d
:102d2800d9689b687f201040984723050bd50f4b27
:102d3800802212011a65114b1b68002b03d00f4b20
:102d480058681b689847e4040fd5084b8022520145
:102d58001a65f4229a580a4b1b68002b05d0084bb9
:102d680059681b683f201040984710bd002000425a
:102d7800eee7ffffe01d0020a01d0020f01d002051
:042d8800e81d002022
:020000040000fa
:102d8c00f0b40125ed070c005c402c40a446ae0ac3
:102d9c004c18df18f4423dd2f74245d2640d4cd0aa
:102dac007f0d3cd0e41bc9022943cf0adb022b4325
:102dbc00db0a0600b61a9f4104d2013cb6197f41ca
:102dcc00b6185f416812800d241838dd0018844253
:102ddc0025d8e80c0021b6197f41b61a9f4103d3c0
:102dec0040414941f7d304e0b6185f41001849410e
:102dfc00f1d32405b6197f41b61a9f4105d3374349
:102e0c00c20717430022012f504161416246114312
:102e1c00f0bc70470cd100280ad1f74208d2002030
:102e2c00c143490d0905f1e7002a01d1f74206d04b
:102e3c000020c143090dc904eae77f0df8d000203a
:042e4c006146e5e70f
:020000040000fa
:102e5000f0b583b004000191264b1e68264b1f6815
:102e6000264b1d68264b1868043001f003fe631cd6
:102e70000dd03419224b1b685c60a6421ed9204b32
:102e800019680431280001f00bfd03b0f0bd019b6f
:102e9000002b20d01b4a5168194b186881601868b4
:102ea0008c68c460186804306060186804308860fa
:102eb0001b685a61136801331360e6e7104b196809
:102ec0000431380001f0ecfc0f4b1b68a342dcd945
:102ed0000d4b1c60d9e7731e094a126853609e426d
:102ee000cdd8074b19680431380001f0d9fc064be6
:102ef0001b68cae7501e0020601e00205c1e0020d8
:0c2f0000641e0020081d0020341e00206c
:020000040000fa
:102f0c004b005b0d284af0b50d00591e0400914290
:102f1c0039d8264a9e1825d420002900332e20dccf
:102f2c00234a9b1826d4234ada4013002700214a4f
:102f3c009f43f24038002f00234097432a4039002a
:102f4c0013430ed0002f0cda3400203c25d48025fe
:102f5c006d03e5402a0080246403f44023008018ac
:102f6c005941f0bd002d02db00200021f9e70020c3
:102f7c001149f6e720230f4a9b1b9a4001235b4221
:102f8c00f3401343d2e720002900002be9d10022a3
:102f9c00e90fcb0710001900e3e720248025a41bc0
:102fac006d03a5402a00d6e7fd07000001fcffffda
:0c2fbc00e1fbffffffff0f000000f0bf73
:020000040000fa
:102fc800f0b54b6889b004930b6805000c009c466b
:102fd8008e68cf68079310685168cb0f0593002956
:102fe80044da0b000200002150429941049b002b57
:102ff80009db0222634693430793059b002b02d10a
:10300800079b5a0723d5731e07aa02920a22009328
:1030180001920b000200200000f0cffd059b002b61
:1030280019d02d2301383b542269079b013a121a03
:10303800391800932800330000f048fd6b68db0561
:1030480003d56368984200da180009b0f0bd1b0781
:10305800db0ff31ad8e7079b5a0702d52b23013851
:10306800e1e71b07e0d520230138dce7049b002bb0
:04307800bfdac5e70f
:020000040000fa
:10307c00f8b504000d00002850d0c36b0020002bc5
:10308c004dd00026190c226c100c00292fd181b2c6
:10309c0000291ed10020002e41d101f07dfd2268b7
:1030ac00216ce36b4b43d018a0600020a0636260de
:1030bc005b1ad218e260ff234422a3540132a354ba
:1030cc00002d22d12369002b16d101f071fd0120b6
:1030dc0025e0011c181c9bb292b25a4380b28bb2f1
:1030ec004343120c9b181b0cd4d00126d2e780b2a0
:1030fc000028fad1101ceee720001030fff7d0fbaf
:10310c000028e2d001f03cfddfe72000103001f098
:10311c00bbfd2000243001f0b7fdd6e70020f8bd40
:020000040000fa
:10312c0070b5041e4ad0c26a254b1b68db6a9a42f2
:10313c003cd28369002b05db214b1b68d96a052324
:10314c005b1a836193009b189b001e4a9b18626953
:10315c009a4205d01a4b1b68db6ae36201202ce013
:10316c00251d280001f080fc154b1b68da6ae26211
:10317c00154b1b689a4201d9134b1a6011499300e5
:10318c009b189b00cb185b68a3609a68e260556043
:10319c009d60e06a83001a189200521862611a1836
:1031ac009200535801335350012006e0044b1b6826
:1031bc00406cdb6a98428041404270bd0020fce7c5
:0c31cc00641e0020a81a00204c1e0020e9
:020000040000fa
:1031d800002941d010b404004c40a4460123002229
:1031e800002900d54942002800d5404288422cd306
:1031f80001242407a14204d2814202d209011b0101
:10320800f8e7e400a14204d2814202d249005b00ff
:10321800f8e7884201d3401a1a434c08a04202d367
:10322800001b5c0822438c08a04202d3001b9c08a8
:103238002243cc08a04202d3001bdc08224300280a
:1032480003d01b0901d00909e3e710006446002cec
:1032580000d5404210bc704701b5002001f0b4fe13
:1032680002bdc0460029f7d003b5fff7b3ff0ebc77
:083278004243891a1847c046c1
:020000040000fa
:1032800010b582b018491948194b019301240094d4
:103290000023802200f00afe16491748174b0193bd
:1032a00000940023802200f001fe15491548164bba
:1032b000019300940023802200f0f8fd1349144884
:1032c000144b019300940023802200f0effd12497b
:1032d0001248134b019300940023802200f0e6fd76
:1032e00000f0c0f802b010bd18190000974f0000a0
:1032f000141e0020301900008f4f0000101e002007
:103300004c190000874f00000c1e002060190000bf
:103310007f4f0000081e002078190000774f000042
:043320007c1d0020f0
:020000040000fa
:1033240070b58223db05244a1a60002243215a54d3
:1033340042394420195401301954013019540130d0
:103344001a5402301a5405301a5401301a540730f2
:103354001954013019540230195428381a540230bf
:10336400322418552f3c1c5401301a5403301a547b
:103374001f3404301c541b383c25585544350f4e1b
:103384005e5147355a550935595501355955033557
:103394005a55213d5a5505355c5598341a554d32c8
:1033a400ff3299545022ff329954193a01319954f9
:1033b4003822ff32985470bd88c20000800010008b
:020000040000fa
:1033c40010b5031f802464041c60043b1960043b93
:1033d40016491960043b16491960043b15491960e4
:1033e400043b15491960043b14491960043b1a60f5
:1033f400043b134a1a60043b124a1a60043b124a03
:103404001a60043b114a1a60043b114a1a60043bd7
:10341400104a1a60043b104a1a60043b0f4a1a60af
:10342400443803235b42036010bdc0462d4e0000a8
:103434001212121203030303020202020101010128
:1034440011111111101010100909090908080808b0
:103454000707070706060606050505050404040410
:020000040000fa
:1034640030b58db00023089309930a930b9301336d
:103474001b48c25c69461f240919ca541900013348
:10348400002af6d108ab5b18013b00241c7006949b
:10349400079416256d442a0007a906a801f068fbc5
:1034a4002a881048069b0293079b019300940023eb
:1034b40008a900f0dbfd0c4b186000280cd072b694
:1034c4000a4b012252421a60094b02321a60094b1c
:1034d40000221a6000f070ff074b1b680db030bd6e
:1034e400af190000ed4b0000301e0020341e0020f8
:0c34f400481e0020501e0020c84f0000a1
:020000040000fa
:1035000010b50400e822002101f072fc204a936902
:1035100001210b439361110001228b691a42fcd0f7
:103520001b4b9a6902210a439a611a4a1460116876
:103530000904090cc02000030143a02019502100f8
:10354000c031516051680904090c13480143b0208f
:1035500019502100d031d160d1680904090c8020b4
:1035600040040143c0201950e03414611269120470
:10357000120c802149020a43f0215a509a69ef390e
:103580008a439a61190001228b691a42fcd110bd4d
:0c35900000200042ec1c00200000018024
:020000040000fa
:10359c0070b5040007231a000240034205d0130043
:1035ac00093b834229d30834a41a01f06bfc194b54
:1035bc001b68002b0ed0002c25d0174b1b68e24348
:1035cc009a420dd31c19154a94420cd9fef75afa9b
:1035dc001be000240f4a124b07218b431360eae7d0
:1035ec00fef750fa11e00b4a1568ed180a4b1c60f7
:1035fc00fef748fa002d0bd107e001f043fc054b18
:10360c001b68002be5d0fef73dfa01f0d5fc002538
:10361c00280070bd241e0020281e0020f70f00007b
:04362c000700002073
:020000040000fa
:103630001e4b1f4a1a601f4a9a81c02292025a608a
:103640001a00d369002bfcd1184a136802210b43de
:103650001360d369002bfcd1174b00221a629a62c7
:10366000da6234215a5408315a549a630021da87b5
:103670001a609a60da60197519779a610b4b5a686b
:1036800007231340012b0ad00b4b40221a6312016f
:103690001a61064b80229a757c3a9a757047064be0
:1036a00020221a6312011a61f3e7c04600040043a6
:0c36b0000401304055550000381c00207b
:020000040000fa
:1036bc00f0b5d6464f464646c0b581460f009a46f1
:1036cc000a9e9400306b2200a52101f08bfb043c78
:1036dc00336b1b19072293439846002f0cd0002400
:1036ec00330034333d5d1d55002d02d00134102cb8
:1036fc00f8d143230022f254089c042c00d9042452
:10370c00f4627464301d01f054fc3000183001f088
:10371c0050fc366105231b1bb36176625246494649
:10372c004046fff749fe3060099b002b00d01e601d
:0a373c00e0bcba46b146a846f0bd55
:020000040000fa
:10374600f0b5ce4600b582b00400009101921d008e
:1037560001f02bfc0600a26be36b9a420ad300270a
:10376600022d07d0300001f024fc380002b080bce6
:10377600b946f0bd4523e35c5bb29946a36b2a00cc
:103786000099200000f055fa4b4601330fd1636ac9
:103796000127002be6d020002430fff784f800280c
:1037a600e0d0019a002a0dd001231360dae701f078
:1037b600a8fb01278145d5d24b4601335bb2452292
:0837c600a354cfe70127cde772
:020000040000fa
:0237ce00704742
:020000040000fa
:1037d00070b5041e09d0436c8b4200d20b00e26a24
:1037e0009a4202d0a16c012900d070bde362a169a8
:1037f000002902db0521cb1aa36193009b189b00d3
:10380000134a9b1862699a42efd1251d280001f0e6
:1038100031f9e26a0f4b1b689a4201d90d4b1a60cd
:103820000b4993009b189b00cb185b68a3609a68b8
:10383000e26055609d60e06a83001a189200521899
:1038400062611a189200535801335350cde7c046b5
:08385000a81a00204c1e002004
:020000040000fa
:1038580070b504000d00002836d00021030c2a0c96
:10386800002b2cd193b2002b1bd100292fd128007b
:10387800604300260300493327d84830fff78afe03
:10388800061e22d046230022c2540300002d00d079
:1038980048333360f463356401213000fff7eafbf5
:1038a80013e0131c261ca0b2aab24243b6b29bb2c4
:1038b8007343120c9b181b0cd7d00121d5e792b289
:1038c800002afad12e1ceee70026300070bd002633
:0238d800fbe70c
:020000040000fa
:0238da00704735
:020000040000fa
:1038dc0010b5bff35f8f62b61a4bc12080001a5827
:1038ec001202120ac02109060a431a5080221a60d9
:1038fc00c2229200985814490840c0210902014381
:10390c009950802189001960985810490840c021ad
:10391c00090401439950f8321a60c32189005a589e
:10392c00ff24a243c02002435a50802252011a6045
:10393c0004315a58a24302435a50802252021a6050
:10394c0010bdc04600e100e0ff00ffffffff00ffdd
:020000040000fa
:10395c0070b5050001f020f94523ec5c64b2002c35
:10396c0011dd2e00243603e0013c64b2002c0ad099
:10397c006b6a002b07d03000fef792ff0028f3d0c3
:10398c0001f0c2faf0e74523ff22ea5401f010f9e6
:10399c0001f002f94423ec5c64b2002c11dd2e0022
:1039ac00103603e0013c64b2002c0ad02b69002bca
:1039bc0007d03000fef774ff0028f3d001f0a4fa12
:0e39cc00f0e74423ff22ea5401f0f2f870bd48
:020000040000fa
:0239da00704734
:020000040000fa
:1039dc0010b582b0002301931a4a138c0f210b40af
:1039ec003031545ce4b253540f31525cd2b2019278
:1039fc00019a0220920708d512494e228854124a85
:103a0c0019015218002111730138019ad20709d5f6
:103a1c000c494e22012088540b4a190152180021de
:103a2c0011730130084a190152185268002a04d047
:103a3c00054a531899685b689847024a3f23d45447
:0c3a4c0002b010bd006000416c1d0020a5
:020000040000fa
:103a580070b5041e31d0836c013b8364c16a426c2b
:103a680091422cd00020002b00d070bd251d2800cd
:103a780000f0fcff626ce26205239b1aa361114b04
:103a88001b689a4201d90f4b1a600f4993009b1883
:103a98009b00cb185b68a3609a68e26055609d60e4
:103aa800e06a83001a189200521862611a1892008c
:103ab8005358013353500120d7e70020d5e70020a1
:0c3ac800d3e7c0464c1e0020a81a0020c6
:020000040000fa
:103ad400f0b589b014000e9a1d0002910123110063
:103ae4001940019003911a4201d1a5420ad822003b
:103af4000299019800f05affa54203d82500280036
:103b040009b0f0bd2e1b37003200102e00d9102250
:103b1400202104a801f06af90f2f0ed80f22019872
:103b2400324004a900f042ff039b002be7d122009e
:103b34000299019800f03affe1e71022019804a9e4
:083b440000f034ff103fe7e739
:020000040000fa
:103b4c0010b50400902911dc00207f291bdd803981
:103b5c00080010290ed801f059f90f0f250d170d7b
:103b6c000d0d1e0d0d0d0d0d0d0d2500a02903d0f5
:103b7c00c02901d0002006e01968081d18600b68e8
:103b8c0023601a60012010bd1968081d18600b68ad
:103b9c0023601a80f6e71968081d18600b6823600b
:103bac001a70efe71968081d18600b6823601a601b
:063bbc00d2175a60e6e793
:020000040000fa
:103bc200f7b5040019000a9ee3686768009333683a
:103bd200100001932369013b1c00002f00da01272a
:103be2000022009dea540123089d002c03dc002bd7
:103bf2001cd02000febd02000a4309d1089aba1a5d
:103c02005219002a04dc002df1dd019a9207eed54b
:103c1200099b099adb1700f07afc8c460099130085
:103c2200013c30320a55013d6146dee7102233681d
:063c320093433360dde75f
:020000040000fa
:103c380070b504001600856b026c002a0cd103686d
:103c48000020002b02d00135a56370bda068fff7e6
:103c5800fffe0023a360f6e7002e0dd1406801f0b7
:103c6800b9f86368226c9b186360a26830009342bd
:103c7800e9d323686360e6e7c06801f0abf8226c1b
:103c88005142e3689b1ae3602268934202d2a36818
:103c98005b18e3600020022ed5d1002dd3d0013d62
:023ca800d1e762
:020000040000fa
:103caa00f0b50c004968236887b00600a768e56884
:103cba000593002902db02218b43059305a953686a
:103cca00126802910821200001910097fff774ff02
:103cda00059bdb0602d5302301382b54059b1b07b5
:103cea0002d5202301382b542269059b013a121a66
:103cfa002918009330003b00fff7e7fe7368db05e5
:0e3d0a0003d56368984200da180007b0f0bdd8
:020000040000fa
:103d1800f0b583b00400019101f046f90500a36bea
:103d2800e26b00269a420ad94522a75c7fb201338a
:103d3800a3637b1c15d1636a0136002b05d12800cb
:103d480001f036f9300003b0f0bd20002430fef752
:103d5800a9fd0028f3d0019a002a0cd00123136092
:103d6800ede701f0cdf801268742e8d201377fb2ae
:0a3d78004523e754e3e70126e1e7e5
:020000040000fa
:103d8400144b01229a6119008b691a42fcd0114b21
:103d94009a6902210a439a610f4ada61802200215a
:103da40099509a6901318a439a61190001228b69f9
:103db4001a42fcd1074b00229a650132da65074aa0
:103dc4005a65074b19001c3100221a7001338b42cb
:103dd400fbd17047002000421746002eddddf23f84
:043de400ec1c0020b3
:020000040000fa
:103de800f0b59bb004000d00160000214c2207a876
:103df8001f0000f0f9ff01235b4202930433ff33f5
:103e08000393002c00d101ac0023049405959d4236
:103e180000d06b1e0693002d06da4f220120084bb6
:103e280040421a601bb0f0bd002d01d00023237062
:103e38003a00310002a80894079400f0ebfef1e77d
:043e4800801e0020b8
:020000040000fa
:103e4c0000b583b0002000f08bf9114b114a002112
:103e5c0000911031102000f075fb0f4b186000f032
:103e6c005ffc00f051ff01f095f800f011fa82238d
:103e7c00db05802292005a6152019a6152005a610c
:103e8c0006490320fef7bef9fff7f4f9fce7c0463c
:103e9c00b01b002000180020681e0020b81900007c
:020000040000fa
:103eac00f0b587b00490059116001f009000fff745
:103ebc006ffb051e1fd05420fff76afb041e17d0a2
:103ecc005422002100f08eff2563002303930294fb
:103edc000d9b01930c9b00933b00320005990498b9
:103eec00fff7e6fb2000fef703f9012007b0f0bd59
:0c3efc002800fff766fc01204042f7e7b9
:020000040000fa
:103f080070b505000c0000f049fe124b1a682368d2
:103f1800591c1ad06968104800682e68864205d076
:103f2800914203d80023236001240fe0501a8342f2
:103f380003d800232360012408e09b1a5b18236040
:103f4800280000f05bfe002400e0002400f032feb0
:0c3f5800200070bd501e00203c1e002008
:020000040000fa
:103f640000230e4a10b513600d4a13600d4a136006
:103f74000d4a13600d4a13600d4a536213610133f5
:103f84009360fff728fdfff726fd0a4c0a4b9c427d
:103f940000d310bd08cc9847f8e7c0467c1e00202b
:103fa4006c1b0020681b0020601b0020641b002089
:0c3fb400701b0020c8000000cc000000c2
:020000040000fa
:103fc00010b50d4a002111705160916011730b48ba
:103fd0000b4b58630b4c9c630b4c5c613f24195595
:103fe0000a4959640a490180012111704d220231a8
:103ff0009954084a1a8010bd6c1d0020801d0020b5
:1040000000600041901d002081818181003480008a
:0840100009040000020f00008a
:020000040000fa
:1040180010b5144b9b7d002b16d0124a137edbb2d1
:10402800927d52b2002a10db0e4a137edbb2927ddb
:10403800d20701d5db070ed40a4a137edbb2927d84
:10404800520701d55b0709d410bd5bb2002bebda30
:1040580000f060f8e8e7fef755faede7fef740fbf9
:08406800f2e7c046000400432a
:020000040000fa
:10407000f0b589b005900d0016001f00109c0023bc
:104080000793002c1cd00f9b002b19d05422002129
:10409000200000f0adfe0f9b236351230222e25467
:1040a00000230393029407ab01930e9b00933b0004
:1040b000320029000598fff701fb2000fef71ef8eb
:0640c000079809b0f0bdf5
:020000040000fa
:1040c600f0b50c004968236887b00500a768e66864
:1040d6000593002902db02218b43059305a953684a
:1040e600126802910a21200001910097fff766fdf0
:1040f6002269059b013a121a3118009328003b00e9
:10410600fff7e5fc6b68db0503d56368984200dac8
:06411600180007b0f0bd27
:020000040000fa
:10411c0010b5114b5a8b0723110019401a4200d1cc
:10412c0010bd0e4bd9870c4b80221a76793a5a83e4
:10413c001b7e5b0705d5084b04211a8d1a7e0a429b
:10414c00fbd1064b1b6a002bead0044b596a1b6a45
:10415c0002209847e4e7c04600040043381c0020c6
:020000040000fa
:10416c0010b5124b06225a60fff7d6f8fdf70cfb80
:10417c0000f046fa00f0bcfefdf705fb00f098fae3
:10418c00fff7fafdfff74efafff714ff00f0acfa59
:10419c0000f01afb00f0befe00f0c2fe00f0c6fefe
:1041ac0000f0cafefff794fb10bdc0460040004172
:020000040000fa
:1041bc00f0b50e0087b0039015001049072204a833
:1041cc001c0000f005feb368776802933668002d7a
:1041dc0000d104ad002c03d1280000f025fd040013
:1041ec00002f02dbbc4200d93c0022002900029bbc
:1041fc0003980096fff768fc07b0f0bdf84a000082
:020000040000fa
:10420c0010b5064c2378002b07d1054b002b02d0a0
:10421c00044800e000bf0123237010bdd01c002017
:10422c000000000000000000044b10b5002b03d070
:10423c000349044800e000bf10bdc0460000000068
:08424c00d41c0020000000005a
:020000040000fa
:1042540010b50a4b98470a4b984700f081fa094b6e
:10426400ff229343084a9360084b9847084b9847aa
:10427400084b9847fff7e8fdfee7c046372b0000e0
:10428400372b00000000000000ed00e0653f000057
:08429400372b0000372b00005e
:020000040000fa
:10429c0010b50c4b18600c4b00221a700b4b0332f0
:1042ac001a7000210120fff7d1fa094b1860002386
:1042bc0000220021fef728f8012000f0f0fc054b4d
:1042cc00186010bd181e0020861e0020851e0020c0
:0842dc00201e00201c1e002022
:020000040000fa
:1042e400f8b50e4b1b68002b17d00d4f0d4e0b4c21
:1042f40000f056fcfb68dd68281d00f0b9fb33684c
:10430400013b33602368013b236000f055fc280027
:1043140000f076fb2368002bead1f8bd581e00207c
:084324001c1d0020541e0020a6
:020000040000fa
:10432c0000b587b00d4b1a7801321a70587059606d
:10433c00002302930393049305930193084b18688d
:10434c00002301aa02a9fff7f8f9019b002b03d067
:10435c00044b802252051a6007b000bd001e0020dd
:08436c00681e002004ed00e0d2
:020000040000fa
:1043740000b587b00d4b1a7801321a705870596025
:10438400002302930393049305930193084b186845
:10439400002301aa02a9fff7d4f9019b002b03d043
:1043a400044b802252051a6007b000bdf81d00209e
:0843b400681e002004ed00e08a
:020000040000fa
:1043bc0010b50d4b1968ff2212040a431a601968d4
:1043cc00ff2212060a431a600024084b1c6000f0fe
:1043dc00fffa074b1c6000f04dfdfef7cffa00f022
:1043ec001ffd002010bdc04620ed00e01ced00e0dc
:0443fc00981e0020e7
:020000040000fa
:10440000eff309800e4a1168243808607346f8c03b
:1044100044464d4656465f46f0c072b6fef7b4fac3
:1044200062b6074a116808681430f0c8a046a94669
:10443000b246bb4680f309882438f8c81847c046fe
:04444000641e0020d6
:020000040000fa
:1044440070b50023012801d0180070bd002913d0d5
:104454000a4dc433ec58e402e40e094bd868230136
:10446400c018102200f0b8fc0123a340bff34f8f03
:10447400d022ab500123e7e70023e5e70020004208
:04448400ec1c00200c
:020000040000fa
:10448800030010b51a78202a0ad011000939042926
:1044980006d92b2a06d000212d2a05d1012102e0b8
:1044a8000133efe70021013300200a2402e06043d2
:1044b8000133801a1a78303a092af8d9002900d12c
:0444c800404210bda1
:020000040000fa
:1044cc0030b401256d054c00e54215d85c00e54281
:1044dc0012d80c001c436400044314430fd005d2c3
:1044ec0082428b418041013030bc704790429941ef
:1044fc008041013030bc7047002030bc7047012037
:04450c0030bc704708
:020000040000fa
:10451000002b11d1002a0fd1002900d1002802d090
:104520000021c943080007b4024802a140180290c4
:1045300003bdc0469d0a000003b4684601b5029859
:10454000fef744f9019b9e4602b00cbc7047c04682
:020000040000fa
:1045500070b505001c00002817d0181e0fd0002ac7
:104560000ed0002000290ad046230120e05422600a
:10457000e563216401212000fef780fd200070bd6d
:0e45800010000029fbd11a00eee70020f7e73b
:020000040000fa
:10458e0030b401256d054c00e54215d85c00e542be
:10459e0012d80c001c436400044314430cd005d203
:1045ae0082428b418041404230bc704790429941db
:0e45be008041404230bc7047002030bc704746
:020000040000fa
:1045cc0030b401256d054c00e54215d85c00e54280
:1045dc0012d80c001c436400044314430cd005d2c5
:1045ec00904299418041404230bc704782428b419d
:0e45fc008041404230bc7047002030bc704708
:020000040000fa
:10460c000b4b00221a621a779a60da60094b8022ef
:10461c0092025a601a00d369002bfcd1054bdf22a1
:10462c001a73054a1a601a00d369002bfcd1704723
:0c463c00781c0020001000420e0002302c
:020000040000fa
:104648001c2101231b04984201d3000c10391b0aba
:10465800984201d3000a08391b09984201d300097e
:10466800043902a2105c40187047c04604030202d5
:0c46780001010101000000000000000032
:020000040000fa
:1046840010b502000a4b01015b18187b094b3f244b
:10469400195dc9b21a554e229b5c4b3a13405a42db
:1046a40053415b421840034a3f23d15410bdc046d6
:0846b4006c1d002000600041b4
:020000040000fa
:1046bc000b4b00221a621a779a60da60094b80223f
:1046cc0092025a601a00d369002bfcd1054b0b22c5
:1046dc001a7303321a601a00d369002bfcd170478d
:0846ec00a41c002000040042a0
:020000040000fa
:1046f4000a4b0b4a1a600b4a9a81c02292025a60f2
:104704001a00d369002bfcd1044a136802210b431d
:104714001360d369002bfcd17047c04600180042d7
:084724000401004056ecffff08
:020000040000fa
:10472c0010b50948fef7e6fe0848002100f0b2fb80
:10473c0007490222002000f00ffb0649022201204b
:10474c0000f00afb10bdc0460019002071480000a3
:08475c002d430000754300002d
:020000040000fa
:1047640010b50b480168002905d14368002b02d11c
:10477400fff7b1f810bd04008368064a9bb20c34fd
:104784009b009b5842682000984780002018e9e766
:0847940034100000c84d0000c4
:020000040000fa
:10479c0010b50400812906dc00207f2912dd136886
:1047ac000721073305e0002083290bd113687c39de
:1047bc0007338b4319000120083111601a685b68bc
:0647cc002260636010bdd5
:020000040000fa
:1047d4000b4b01221a6019000b691a42fcd1084bd9
:1047e4008c2252001a60163aff3a1a730022da61d8
:1047f40033329a721a001369002bfcd17047c046f9
:04480400003000423e
:020000040000fa
:104808000200002070b50a4b4400e55c002d02d17f
:104818001b19587870bd116801300e78c0b2ae42cd
:1048280003d11b190131587811600a28ebd9f1e737
:04483800d64c00005a
:020000040000fa
:10483c00f4464a1805d200f05df801d5c0174008bf
:10484c00604701235b05d34206d200f053f801d533
:10485c000120c0074042604701d10042f5d0d0177b
:04486c004008704749
:020000040000fa
:1048700010b5084b186000f085f8074b1860074b1f
:10488000072101408122ca40012111400622521a0b
:104890001a7010bd741e0020701e0020871e00209c
:020000040000fa
:1048a00030b50d68030008336a1c0ed01c005b682d
:1048b0001a68aa42fad963684b6099608c6061609b
:0e48c000086103680133036030bd0469f3e74b
:020000040000fa
:1048ce0070b4012676054c005d00e6420cd8ee422f
:1048de000ad825430543154303d0994204d190428b
:0e48ee0002d1012070bc7047002070bc7047e2
:020000040000fa
:1048fc004a0010d2520d03231b02ff33d21a0ad4e2
:10490c0052421f3209d4400dc90208430123db0770
:0e491c001843d040704700207047d0177047f6
:020000040000fa
:10492c0000b583b000230193064b186801a9fff76b
:10493c00edf9019b002b03d0034b802252051a602a
:0c494c0003b000bd201e002004ed00e0c0
:020000040000fa
:10495800084b1b681b68002b04d1074b01225242ed
:104968001a607047034b1b68db681a68024b1a60b1
:0c497800f7e7c046601e0020341e00203f
:020000040000fa
:10498400084b586c084a10409b69db0709d5054a57
:10499400936901218b439361110001228b691a42af
:0c49a400fcd1704700200042e7470000f3
:020000040000fa
:1049b00070b505690400954200d91500002d0bd093
:1049c0002a00606900f00afa22696369521b2261b9
:0a49d00000225b1963611a7070bdcc
:020000040000fa
:1049dc00054b04221a60054a00211160044a05495e
:1049ec00116007221a60704710e000e018e000e048
:0849fc0014e000e07fbb0000a5
:020000040000fa
:104a040010b504005123c35c002b02d0012b07d046
:104a140010bd006bfef7d9fe2000fef7d6fef7e7c7
:064a2400fef7d3fef4e7eb
:020000040000fa
:104a2c0010b500f0bffa0400fcf71afd002803d003
:104a3c00034b802252051a60200000f0b7fa10bd1b
:044a4c0004ed00e095
:020000040000fa
:104a5000074a1168086804c8022181f314882030cd
:104a600080f30988bff36f8f1047c046c046c04629
:044a7000641e0020a0
:020000040000fa
:104a74000369416882688a60416851605a68824269
:104a840005d00022026118680138186070478268f6
:044a94005a60f6e787
:020000040000fa
:104a980010b5030008001a6c002a0ad0dc68a418b4
:104aa800dc6099688c4201d31968d960d96800f034
:044ab80091f910bda3
:020000040000fa
:044abc0072b6fee7e9
:020000040000fa
:104ac00004207146084202d0eff309802ce1eff395
:104ad000088029e1c046c046c046c046c046c04620
:020000040000fa
:104ae000286e696c29002500494e4600696e6600f3
:0f4af0004e414e006e616e00286e756c6c290091
:020000040000fa
:104b0000002310b5934206d103201840421e904165
:0e4b10009b08c01810bdc45ccc540133f2e702
:020000040000fa
:104b2000054a9368d068834201d3181a7047024a35
:0c4b30001269d318181af9e7381c00208d
:020000040000fa
:104b3c00054bd86a9b6a984201d8181a7047024aea
:0c4b4c00126bd318181af9e7381c00206f
:020000040000fa
:104b580010b50c00044b19681831fff79dfe0121b0
:0c4b68002000fef771f910bd641e002053
:020000040000fa
:104b7400034b0360034b0b60802313807047c046d4
:084b84000c1b002000140020ae
:020000040000fa
:104b8c00044b802252051a60bff34f8fbff36f8f17
:084b9c007047c04604ed00e083
:020000040000fa
:104ba40072b6044a136801331360bff34f8fbff327
:084bb4006f8f7047981e00206e
:020000040000fa
:104bbc00044b1a68013a1a601b68002b00d162b6cc
:084bcc007047c046981e00204e
:020000040000fa
:104bd40010b5002807d0002383600360c36000225f
:084be4000021fdf795fb10bd57
:020000040000fa
:104bec0010b5044cfff778fb2368012bfad9fff7bb
:084bfc00c7fff7e7a81a00202b
:020000040000fa
:104c0400034b1b680360034b1b6843607047c0463b
:084c14003c1e0020501e002090
:020000040000fa
:104c1c0013b50400019201aafbf72aff6368db06b7
:084c2c0001d50120404216bd34
:020000040000fa
:104c34000378002b06d003005a780133002afbd1f5
:084c4400181a70470020fce77c
:020000040000fa
:104c4c00d0400b00d1409c46203ad34018435242ee
:084c5c006346934018437047c2
:020000040000fa
:104c64009140030090409c46203a9340194352429d
:084c74006346d3401943704769
:020000040000fa
:104c7c0010b5002903d1fff7e1fc203002e0080059
:084c8c00fff7dcfc10bdc0467f
:020000040000fa
:104c9400030008334360012252428260c36003610f
:064ca400002303607047cd
:020000040000fa
:104caa0010b5020000210120fef7d1fd0400fff734
:064cba008cff200010bd7c
:020000040000fa
:104cc0000cb407b504ab04cb0193fff78df803b028
:064cd00008bc02b0184709
:020000040000fa
:104cd60068076c094c836a9074a07ac00080688863
:064ce60000846c820081d5
:020000040000fa
:104cec0010b5034b1c69fff715ff013c201a10bdd2
:044cfc00381c002040
:020000040000fa
:104d000010b50b00024a01000020fdf77bff10bd2b
:044d10002804004330
:020000040000fa
:104d140010b503490022002000f098f810bdc046e9
:044d2400714e0000cc
:020000040000fa
:104d280010b58369023b1b78642b00d010bdfff7d8
:044d38008bfefbe70c
:020000040000fa
:104d3c0010b50400fff730ffa46bfff739ff60429a
:044d4c00604110bdf5
:020000040000fa
:104d5000034b1868002802d0836c013383647047ca
:044d6000641e0020ad
:020000040000fa
:104d6400002904d0024bc000c1501b185a60704780
:044d7400a01d00205e
:020000040000fa
:104d7800034b1b78002b02d1014b01221a7070479c
:044d8800941e002055
:020000040000fa
:104d8c00034b1b78002b02d1014b01221a70704788
:044d9c008c1e002049
:020000040000fa
:104da000034b1b78002b02d1014b01221a70704774
:044db000881e002039
:020000040000fa
:104db400034b1b78002b02d1014b01221a70704760
:044dc400841e002029
:020000040000fa
:104dc8003f4e0000014b0000cd4f0000cd4f0000ca
:044dd800cd4f0000bb
:020000040000fa
:104ddc0010b5002a05d00023cc5cc4540133934297
:044dec00fad110bd2b
:020000040000fa
:104df000002a06d00300c9b2121819700133934279
:044e0000fbd170472b
:020000040000fa
:104e040003000a7818001a7001310133002af8d11e
:044e14007047c046dd
:020000040000fa
:104e180002b4714649084900095c49008e4402bc45
:044e28007047c046c9
:020000040000fa
:104e2c0082b00023019372b6019b002bfcd002b020
:024e3c007047bd
:020000040000fa
:104e3e008a18914201d10020704700230b70013176
:024e4e00f7e784
:020000040000fa
:104e5000024b000118184160826070476c1d0020f1
:020000040000fa
:104e60009019000098190000a0190000a81900006e
:020000040000fa
:104e700010b50138012800d910bdfff757fdfbe739
:020000040000fa
:104e800062b6bff34f8fbff36f8f64dfc046c0467b
:020000040000fa
:104e9000024a1368013313607047c0462c1e00207d
:020000040000fa
:104ea000002802d0014b186059607047f01d0020a7
:020000040000fa
:104eb0000001020304050607080c101418203040f6
:020000040000fa
:104ec00010b5fcf7bdfb029a039bfcf7ebf910bd94
:020000040000fa
:104ed000f0b40125ed076b40004c2047ab120000f9
:020000040000fa
:0e4ee0000300413b192b01d8202318437047d3
:020000040000fa
:0e4eee000300613b192b01d85f231840704769
:020000040000fa
:0c4efc00014b84225a60704700400041c6
:020000040000fa
:0c4f0800014b18687047c046541e002082
:020000040000fa
:0c4f1400014b01221a607047401e002073
:020000040000fa
:0c4f2000014b00221a707047941e002004
:020000040000fa
:0c4f2c00014b00221a7070478c1e002000
:020000040000fa
:0c4f3800014b00221a707047881e0020f8
:020000040000fa
:0c4f4400014b00221a707047841e0020f0
:020000040000fa
:0c4f500010b50400fff756ff200010bd54
:020000040000fa
:0a4f5c0010b50020fff790fb10bd18
:020000040000fa
:084f660010b5fff756f810bd6d
:020000040000fa
:084f6e0010b5fcf7e4fe10bdd4
:020000040000fa
:084f760010b5fff71cfffce77a
:020000040000fa
:084f7e0010b5fff70efffce780
:020000040000fa
:084f860010b5fff700fffce786
:020000040000fa
:084f8e0010b5fbf704fffce77e
:020000040000fa
:084f960010b5fff7eefefce789
:020000040000fa
:084fa00000487047a84f000013
:020000040000fa
:084fa800014d00005d4f000007
:020000040000fa
:084fb000eff3108072b67047a8
:020000040000fa
:064fb80080f31088704731
:020000040000fa
:064fbe00002303617047af
:020000040000fa
:044fc40072b6fee7dc
:020000040000fa
:044fc80004000000e1
:020000040000fa
:044fcc00002070470a
:020000040000fa
:044fd0007047c04620
:020000040000fa
:0200000400807a
:04400000770800003d
:020000040000fa
:0200000400807a
:044004000000ffffba
:00000001FF
